{
  "contractName": "BaseLand",
  "abi": [
    {
      "anonymous": false,
      "inputs": [
        {
          "indexed": false,
          "internalType": "address",
          "name": "previousAdmin",
          "type": "address"
        },
        {
          "indexed": false,
          "internalType": "address",
          "name": "newAdmin",
          "type": "address"
        }
      ],
      "name": "AdminChanged",
      "type": "event"
    },
    {
      "anonymous": false,
      "inputs": [
        {
          "indexed": true,
          "internalType": "address",
          "name": "owner",
          "type": "address"
        },
        {
          "indexed": true,
          "internalType": "address",
          "name": "approved",
          "type": "address"
        },
        {
          "indexed": true,
          "internalType": "uint256",
          "name": "tokenId",
          "type": "uint256"
        }
      ],
      "name": "Approval",
      "type": "event"
    },
    {
      "anonymous": false,
      "inputs": [
        {
          "indexed": true,
          "internalType": "address",
          "name": "owner",
          "type": "address"
        },
        {
          "indexed": true,
          "internalType": "address",
          "name": "operator",
          "type": "address"
        },
        {
          "indexed": false,
          "internalType": "bool",
          "name": "approved",
          "type": "bool"
        }
      ],
      "name": "ApprovalForAll",
      "type": "event"
    },
    {
      "anonymous": false,
      "inputs": [
        {
          "indexed": true,
          "internalType": "address",
          "name": "beacon",
          "type": "address"
        }
      ],
      "name": "BeaconUpgraded",
      "type": "event"
    },
    {
      "anonymous": false,
      "inputs": [
        {
          "indexed": true,
          "internalType": "bytes32",
          "name": "role",
          "type": "bytes32"
        },
        {
          "indexed": true,
          "internalType": "bytes32",
          "name": "previousAdminRole",
          "type": "bytes32"
        },
        {
          "indexed": true,
          "internalType": "bytes32",
          "name": "newAdminRole",
          "type": "bytes32"
        }
      ],
      "name": "RoleAdminChanged",
      "type": "event"
    },
    {
      "anonymous": false,
      "inputs": [
        {
          "indexed": true,
          "internalType": "bytes32",
          "name": "role",
          "type": "bytes32"
        },
        {
          "indexed": true,
          "internalType": "address",
          "name": "account",
          "type": "address"
        },
        {
          "indexed": true,
          "internalType": "address",
          "name": "sender",
          "type": "address"
        }
      ],
      "name": "RoleGranted",
      "type": "event"
    },
    {
      "anonymous": false,
      "inputs": [
        {
          "indexed": true,
          "internalType": "bytes32",
          "name": "role",
          "type": "bytes32"
        },
        {
          "indexed": true,
          "internalType": "address",
          "name": "account",
          "type": "address"
        },
        {
          "indexed": true,
          "internalType": "address",
          "name": "sender",
          "type": "address"
        }
      ],
      "name": "RoleRevoked",
      "type": "event"
    },
    {
      "anonymous": false,
      "inputs": [
        {
          "indexed": true,
          "internalType": "address",
          "name": "from",
          "type": "address"
        },
        {
          "indexed": true,
          "internalType": "address",
          "name": "to",
          "type": "address"
        },
        {
          "indexed": true,
          "internalType": "uint256",
          "name": "tokenId",
          "type": "uint256"
        }
      ],
      "name": "Transfer",
      "type": "event"
    },
    {
      "anonymous": false,
      "inputs": [
        {
          "indexed": true,
          "internalType": "address",
          "name": "implementation",
          "type": "address"
        }
      ],
      "name": "Upgraded",
      "type": "event"
    },
    {
      "inputs": [],
      "name": "DEFAULT_ADMIN_ROLE",
      "outputs": [
        {
          "internalType": "bytes32",
          "name": "",
          "type": "bytes32"
        }
      ],
      "stateMutability": "view",
      "type": "function"
    },
    {
      "inputs": [],
      "name": "LAND_PADDING",
      "outputs": [
        {
          "internalType": "uint16",
          "name": "",
          "type": "uint16"
        }
      ],
      "stateMutability": "view",
      "type": "function"
    },
    {
      "inputs": [],
      "name": "MINTER_ROLE",
      "outputs": [
        {
          "internalType": "bytes32",
          "name": "",
          "type": "bytes32"
        }
      ],
      "stateMutability": "view",
      "type": "function"
    },
    {
      "inputs": [],
      "name": "UPGRADER_ROLE",
      "outputs": [
        {
          "internalType": "bytes32",
          "name": "",
          "type": "bytes32"
        }
      ],
      "stateMutability": "view",
      "type": "function"
    },
    {
      "inputs": [
        {
          "internalType": "address",
          "name": "to",
          "type": "address"
        },
        {
          "internalType": "uint256",
          "name": "tokenId",
          "type": "uint256"
        }
      ],
      "name": "approve",
      "outputs": [],
      "stateMutability": "nonpayable",
      "type": "function"
    },
    {
      "inputs": [
        {
          "internalType": "address",
          "name": "owner",
          "type": "address"
        }
      ],
      "name": "balanceOf",
      "outputs": [
        {
          "internalType": "uint256",
          "name": "",
          "type": "uint256"
        }
      ],
      "stateMutability": "view",
      "type": "function"
    },
    {
      "inputs": [
        {
          "internalType": "uint256",
          "name": "tokenId",
          "type": "uint256"
        }
      ],
      "name": "getApproved",
      "outputs": [
        {
          "internalType": "address",
          "name": "",
          "type": "address"
        }
      ],
      "stateMutability": "view",
      "type": "function"
    },
    {
      "inputs": [
        {
          "internalType": "bytes32",
          "name": "role",
          "type": "bytes32"
        }
      ],
      "name": "getRoleAdmin",
      "outputs": [
        {
          "internalType": "bytes32",
          "name": "",
          "type": "bytes32"
        }
      ],
      "stateMutability": "view",
      "type": "function"
    },
    {
      "inputs": [
        {
          "internalType": "bytes32",
          "name": "role",
          "type": "bytes32"
        },
        {
          "internalType": "address",
          "name": "account",
          "type": "address"
        }
      ],
      "name": "grantRole",
      "outputs": [],
      "stateMutability": "nonpayable",
      "type": "function"
    },
    {
      "inputs": [
        {
          "internalType": "bytes32",
          "name": "role",
          "type": "bytes32"
        },
        {
          "internalType": "address",
          "name": "account",
          "type": "address"
        }
      ],
      "name": "hasRole",
      "outputs": [
        {
          "internalType": "bool",
          "name": "",
          "type": "bool"
        }
      ],
      "stateMutability": "view",
      "type": "function"
    },
    {
      "inputs": [
        {
          "internalType": "address",
          "name": "owner",
          "type": "address"
        },
        {
          "internalType": "address",
          "name": "operator",
          "type": "address"
        }
      ],
      "name": "isApprovedForAll",
      "outputs": [
        {
          "internalType": "bool",
          "name": "",
          "type": "bool"
        }
      ],
      "stateMutability": "view",
      "type": "function"
    },
    {
      "inputs": [
        {
          "internalType": "uint256",
          "name": "tokenId",
          "type": "uint256"
        }
      ],
      "name": "ownerOf",
      "outputs": [
        {
          "internalType": "address",
          "name": "",
          "type": "address"
        }
      ],
      "stateMutability": "view",
      "type": "function"
    },
    {
      "inputs": [
        {
          "internalType": "bytes32",
          "name": "role",
          "type": "bytes32"
        },
        {
          "internalType": "address",
          "name": "account",
          "type": "address"
        }
      ],
      "name": "renounceRole",
      "outputs": [],
      "stateMutability": "nonpayable",
      "type": "function"
    },
    {
      "inputs": [
        {
          "internalType": "bytes32",
          "name": "role",
          "type": "bytes32"
        },
        {
          "internalType": "address",
          "name": "account",
          "type": "address"
        }
      ],
      "name": "revokeRole",
      "outputs": [],
      "stateMutability": "nonpayable",
      "type": "function"
    },
    {
      "inputs": [
        {
          "internalType": "address",
          "name": "from",
          "type": "address"
        },
        {
          "internalType": "address",
          "name": "to",
          "type": "address"
        },
        {
          "internalType": "uint256",
          "name": "tokenId",
          "type": "uint256"
        }
      ],
      "name": "safeTransferFrom",
      "outputs": [],
      "stateMutability": "nonpayable",
      "type": "function"
    },
    {
      "inputs": [
        {
          "internalType": "address",
          "name": "from",
          "type": "address"
        },
        {
          "internalType": "address",
          "name": "to",
          "type": "address"
        },
        {
          "internalType": "uint256",
          "name": "tokenId",
          "type": "uint256"
        },
        {
          "internalType": "bytes",
          "name": "_data",
          "type": "bytes"
        }
      ],
      "name": "safeTransferFrom",
      "outputs": [],
      "stateMutability": "nonpayable",
      "type": "function"
    },
    {
      "inputs": [
        {
          "internalType": "address",
          "name": "operator",
          "type": "address"
        },
        {
          "internalType": "bool",
          "name": "approved",
          "type": "bool"
        }
      ],
      "name": "setApprovalForAll",
      "outputs": [],
      "stateMutability": "nonpayable",
      "type": "function"
    },
    {
      "inputs": [],
      "name": "symbol",
      "outputs": [
        {
          "internalType": "string",
          "name": "",
          "type": "string"
        }
      ],
      "stateMutability": "view",
      "type": "function"
    },
    {
      "inputs": [
        {
          "internalType": "uint256",
          "name": "index",
          "type": "uint256"
        }
      ],
      "name": "tokenByIndex",
      "outputs": [
        {
          "internalType": "uint256",
          "name": "",
          "type": "uint256"
        }
      ],
      "stateMutability": "view",
      "type": "function"
    },
    {
      "inputs": [
        {
          "internalType": "address",
          "name": "owner",
          "type": "address"
        },
        {
          "internalType": "uint256",
          "name": "index",
          "type": "uint256"
        }
      ],
      "name": "tokenOfOwnerByIndex",
      "outputs": [
        {
          "internalType": "uint256",
          "name": "",
          "type": "uint256"
        }
      ],
      "stateMutability": "view",
      "type": "function"
    },
    {
      "inputs": [],
      "name": "totalSupply",
      "outputs": [
        {
          "internalType": "uint256",
          "name": "",
          "type": "uint256"
        }
      ],
      "stateMutability": "view",
      "type": "function"
    },
    {
      "inputs": [
        {
          "internalType": "address",
          "name": "from",
          "type": "address"
        },
        {
          "internalType": "address",
          "name": "to",
          "type": "address"
        },
        {
          "internalType": "uint256",
          "name": "tokenId",
          "type": "uint256"
        }
      ],
      "name": "transferFrom",
      "outputs": [],
      "stateMutability": "nonpayable",
      "type": "function"
    },
    {
      "inputs": [
        {
          "internalType": "address",
          "name": "newImplementation",
          "type": "address"
        }
      ],
      "name": "upgradeTo",
      "outputs": [],
      "stateMutability": "nonpayable",
      "type": "function"
    },
    {
      "inputs": [
        {
          "internalType": "address",
          "name": "newImplementation",
          "type": "address"
        },
        {
          "internalType": "bytes",
          "name": "data",
          "type": "bytes"
        }
      ],
      "name": "upgradeToAndCall",
      "outputs": [],
      "stateMutability": "payable",
      "type": "function"
    },
    {
      "inputs": [
        {
          "internalType": "address",
          "name": "to",
          "type": "address"
        },
        {
          "internalType": "uint256",
          "name": "landId",
          "type": "uint256"
        }
      ],
      "name": "safeMint",
      "outputs": [],
      "stateMutability": "nonpayable",
      "type": "function"
    },
    {
      "inputs": [
        {
          "internalType": "uint256",
          "name": "tokenId",
          "type": "uint256"
        }
      ],
      "name": "checkExists",
      "outputs": [
        {
          "internalType": "bool",
          "name": "",
          "type": "bool"
        }
      ],
      "stateMutability": "view",
      "type": "function"
    },
    {
      "inputs": [],
      "name": "getMintMax",
      "outputs": [
        {
          "internalType": "uint256",
          "name": "",
          "type": "uint256"
        }
      ],
      "stateMutability": "pure",
      "type": "function"
    },
    {
      "inputs": [
        {
          "internalType": "uint256",
          "name": "tokenId",
          "type": "uint256"
        }
      ],
      "name": "rcCoordinates",
      "outputs": [
        {
          "internalType": "uint256",
          "name": "r",
          "type": "uint256"
        },
        {
          "internalType": "uint256",
          "name": "c",
          "type": "uint256"
        }
      ],
      "stateMutability": "pure",
      "type": "function"
    },
    {
      "inputs": [
        {
          "internalType": "string",
          "name": "baseURI_",
          "type": "string"
        }
      ],
      "name": "setBaseURI",
      "outputs": [],
      "stateMutability": "nonpayable",
      "type": "function"
    },
    {
      "inputs": [
        {
          "internalType": "contract IERC721Land[]",
          "name": "otherLands_",
          "type": "address[]"
        }
      ],
      "name": "setOtherLands",
      "outputs": [],
      "stateMutability": "nonpayable",
      "type": "function"
    },
    {
      "inputs": [],
      "name": "name",
      "outputs": [
        {
          "internalType": "string",
          "name": "",
          "type": "string"
        }
      ],
      "stateMutability": "view",
      "type": "function"
    },
    {
      "inputs": [
        {
          "internalType": "uint256",
          "name": "tokenId",
          "type": "uint256"
        }
      ],
      "name": "tokenURI",
      "outputs": [
        {
          "internalType": "string",
          "name": "",
          "type": "string"
        }
      ],
      "stateMutability": "view",
      "type": "function"
    },
    {
      "inputs": [
        {
          "internalType": "bytes4",
          "name": "interfaceId",
          "type": "bytes4"
        }
      ],
      "name": "supportsInterface",
      "outputs": [
        {
          "internalType": "bool",
          "name": "",
          "type": "bool"
        }
      ],
      "stateMutability": "view",
      "type": "function"
    }
  ],
  "bytecode": "0x60a06040523060805234801561001457600080fd5b50608051612c8961004560003960008181610a1b01528181610a5b01528181610aff0152610b3f0152612c896000f3fe6080604052600436106101ee5760003560e01c80634f6ccce71161010d578063a1448194116100a0578063c87b56dd1161006f578063c87b56dd146105a4578063d5391393146105c4578063d547741f146105f8578063e985e9c514610618578063f72c0d8b1461066157600080fd5b8063a14481941461052f578063a217fddf1461054f578063a22cb46514610564578063b88d4fde1461058457600080fd5b80637d00a196116100dc5780637d00a1961461049c57806391d14854146104c557806394fd6d27146104e557806395d89b411461051a57600080fd5b80634f6ccce71461041c57806355f804b31461043c5780636352211e1461045c57806370a082311461047c57600080fd5b8063248a9ca31161018557806336568abe1161015457806336568abe146103a95780633659cfe6146103c957806342842e0e146103e95780634f1ef2861461040957600080fd5b8063248a9ca3146103195780632f2ff15d146103495780632f745c591461036957806331ff55561461038957600080fd5b80630e2e44e8116101c15780630e2e44e8146102a457806318160ddd146102c45780631e51e4a1146102e457806323b872dd146102f957600080fd5b806301ffc9a7146101f357806306fdde0314610228578063081812fc1461024a578063095ea7b314610282575b600080fd5b3480156101ff57600080fd5b5061021361020e36600461238d565b610695565b60405190151581526020015b60405180910390f35b34801561023457600080fd5b5061023d6106a6565b60405161021f9190612402565b34801561025657600080fd5b5061026a610265366004612415565b6106b5565b6040516001600160a01b03909116815260200161021f565b34801561028e57600080fd5b506102a261029d366004612443565b61074f565b005b3480156102b057600080fd5b506102136102bf366004612415565b610865565b3480156102d057600080fd5b5061012f545b60405190815260200161021f565b3480156102f057600080fd5b506127106102d6565b34801561030557600080fd5b506102a261031436600461246f565b610884565b34801561032557600080fd5b506102d6610334366004612415565b600090815260fb602052604090206001015490565b34801561035557600080fd5b506102a26103643660046124b0565b6108b5565b34801561037557600080fd5b506102d6610384366004612443565b6108db565b34801561039557600080fd5b506102a26103a4366004612527565b610972565b3480156103b557600080fd5b506102a26103c43660046124b0565b610992565b3480156103d557600080fd5b506102a26103e43660046125d9565b610a10565b3480156103f557600080fd5b506102a261040436600461246f565b610ad9565b6102a261041736600461266e565b610af4565b34801561042857600080fd5b506102d6610437366004612415565b610baa565b34801561044857600080fd5b506102a26104573660046126be565b610c3f565b34801561046857600080fd5b5061026a610477366004612415565b610c5f565b34801561048857600080fd5b506102d66104973660046125d9565b610cd6565b3480156104a857600080fd5b506104b261271081565b60405161ffff909116815260200161021f565b3480156104d157600080fd5b506102136104e03660046124b0565b610d5d565b3480156104f157600080fd5b50610505610500366004612415565b610d88565b6040805192835260208301919091520161021f565b34801561052657600080fd5b5061023d610db7565b34801561053b57600080fd5b506102a261054a366004612443565b610e49565b34801561055b57600080fd5b506102d6600081565b34801561057057600080fd5b506102a261057f366004612707565b611087565b34801561059057600080fd5b506102a261059f36600461273a565b611092565b3480156105b057600080fd5b5061023d6105bf366004612415565b6110ca565b3480156105d057600080fd5b506102d67f9f2df0fed2c77648de5860a4cc508cd0818c85b8b8a1ab4ceeef8d981c8956a681565b34801561060457600080fd5b506102a26106133660046124b0565b6110ff565b34801561062457600080fd5b506102136106333660046127a6565b6001600160a01b039182166000908152609c6020908152604080832093909416825291909152205460ff1690565b34801561066d57600080fd5b506102d67f189ab7a9244df0848122154315af71fe140f3db0fe014031783b0946b8c9d2e381565b60006106a082611125565b92915050565b60606106b061114a565b905090565b6000818152609960205260408120546001600160a01b03166107335760405162461bcd60e51b815260206004820152602c60248201527f4552433732313a20617070726f76656420717565727920666f72206e6f6e657860448201526b34b9ba32b73a103a37b5b2b760a11b60648201526084015b60405180910390fd5b506000908152609b60205260409020546001600160a01b031690565b600061075a82610c5f565b9050806001600160a01b0316836001600160a01b031614156107c85760405162461bcd60e51b815260206004820152602160248201527f4552433732313a20617070726f76616c20746f2063757272656e74206f776e656044820152603960f91b606482015260840161072a565b336001600160a01b03821614806107e457506107e48133610633565b6108565760405162461bcd60e51b815260206004820152603860248201527f4552433732313a20617070726f76652063616c6c6572206973206e6f74206f7760448201527f6e6572206e6f7220617070726f76656420666f7220616c6c0000000000000000606482015260840161072a565b6108608383611159565b505050565b6000818152609960205260408120546001600160a01b031615156106a0565b61088e33826111c7565b6108aa5760405162461bcd60e51b815260040161072a906127d4565b6108608383836112be565b600082815260fb60205260409020600101546108d18133611469565b61086083836114cd565b60006108e683610cd6565b82106109485760405162461bcd60e51b815260206004820152602b60248201527f455243373231456e756d657261626c653a206f776e657220696e646578206f7560448201526a74206f6620626f756e647360a81b606482015260840161072a565b506001600160a01b0391909116600090815261012d60209081526040808320938352929052205490565b600061097e8133611469565b815161086090610160906020850190612289565b6001600160a01b0381163314610a025760405162461bcd60e51b815260206004820152602f60248201527f416363657373436f6e74726f6c3a2063616e206f6e6c792072656e6f756e636560448201526e103937b632b9903337b91039b2b63360891b606482015260840161072a565b610a0c8282611553565b5050565b306001600160a01b037f0000000000000000000000000000000000000000000000000000000000000000161415610a595760405162461bcd60e51b815260040161072a90612825565b7f00000000000000000000000000000000000000000000000000000000000000006001600160a01b0316610a8b6115ba565b6001600160a01b031614610ab15760405162461bcd60e51b815260040161072a90612871565b610aba816115e8565b60408051600080825260208201909252610ad691839190611613565b50565b61086083838360405180602001604052806000815250611092565b306001600160a01b037f0000000000000000000000000000000000000000000000000000000000000000161415610b3d5760405162461bcd60e51b815260040161072a90612825565b7f00000000000000000000000000000000000000000000000000000000000000006001600160a01b0316610b6f6115ba565b6001600160a01b031614610b955760405162461bcd60e51b815260040161072a90612871565b610b9e826115e8565b610a0c82826001611613565b6000610bb661012f5490565b8210610c195760405162461bcd60e51b815260206004820152602c60248201527f455243373231456e756d657261626c653a20676c6f62616c20696e646578206f60448201526b7574206f6620626f756e647360a01b606482015260840161072a565b61012f8281548110610c2d57610c2d6128bd565b90600052602060002001549050919050565b6000610c4b8133611469565b81516108609061015f9060208501906122ee565b6000818152609960205260408120546001600160a01b0316806106a05760405162461bcd60e51b815260206004820152602960248201527f4552433732313a206f776e657220717565727920666f72206e6f6e657869737460448201526832b73a103a37b5b2b760b91b606482015260840161072a565b60006001600160a01b038216610d415760405162461bcd60e51b815260206004820152602a60248201527f4552433732313a2062616c616e636520717565727920666f7220746865207a65604482015269726f206164647265737360b01b606482015260840161072a565b506001600160a01b03166000908152609a602052604090205490565b600091825260fb602090815260408084206001600160a01b0393909316845291905290205460ff1690565b600080610d97612710846128e9565b9050612710610da68285612913565b610db0919061292a565b9150915091565b606060988054610dc69061293e565b80601f0160208091040260200160405190810160405280929190818152602001828054610df29061293e565b8015610e3f5780601f10610e1457610100808354040283529160200191610e3f565b820191906000526020600020905b815481529060010190602001808311610e2257829003601f168201915b5050505050905090565b7f9f2df0fed2c77648de5860a4cc508cd0818c85b8b8a1ab4ceeef8d981c8956a6610e748133611469565b6127108211610eb45760405162461bcd60e51b815260206004820152600c60248201526b3630b73224b21032b93937b960a11b604482015260640161072a565b61271061012f5410610f165760405162461bcd60e51b815260206004820152602560248201527f457863656564696e6720746865206d6178696d756d20737570706c79207175616044820152646e7469747960d81b606482015260840161072a565b6000828152609960205260409020546001600160a01b031615610f6f5760405162461bcd60e51b81526020600482015260116024820152704d696e7420636f6e666c6963746564203160781b604482015260640161072a565b60005b6101605460ff8216101561107c576101608160ff1681548110610f9757610f976128bd565b6000918252602090912001546040516331a9108f60e11b8152600481018590526001600160a01b0390911690636352211e9060240160206040518083038186803b158015610fe457600080fd5b505afa925050508015611014575060408051601f3d908101601f1916820190925261101191810190612979565b60015b61101d5761106a565b6001600160a01b038116156110685760405162461bcd60e51b815260206004820152601160248201527026b4b73a1031b7b7333634b1ba32b2101960791b604482015260640161072a565b505b8061107481612996565b915050610f72565b50610860838361175e565b610a0c338383611778565b61109c33836111c7565b6110b85760405162461bcd60e51b815260040161072a906127d4565b6110c484848484611847565b50505050565b606061015f6110d88361187a565b6040516020016110e99291906129d2565b6040516020818303038152906040529050919050565b600082815260fb602052604090206001015461111b8133611469565b6108608383611553565b60006001600160e01b0319821663780e9d6360e01b14806106a057506106a082611978565b606060978054610dc69061293e565b6000818152609b6020526040902080546001600160a01b0319166001600160a01b038416908117909155819061118e82610c5f565b6001600160a01b03167f8c5be1e5ebec7d5bd14f71427d1e84f3dd0314c0f7b2291e5b200ac8c7c3b92560405160405180910390a45050565b6000818152609960205260408120546001600160a01b03166112405760405162461bcd60e51b815260206004820152602c60248201527f4552433732313a206f70657261746f7220717565727920666f72206e6f6e657860448201526b34b9ba32b73a103a37b5b2b760a11b606482015260840161072a565b600061124b83610c5f565b9050806001600160a01b0316846001600160a01b031614806112865750836001600160a01b031661127b846106b5565b6001600160a01b0316145b806112b657506001600160a01b038082166000908152609c602090815260408083209388168352929052205460ff165b949350505050565b826001600160a01b03166112d182610c5f565b6001600160a01b0316146113395760405162461bcd60e51b815260206004820152602960248201527f4552433732313a207472616e73666572206f6620746f6b656e2074686174206960448201526839903737ba1037bbb760b91b606482015260840161072a565b6001600160a01b03821661139b5760405162461bcd60e51b8152602060048201526024808201527f4552433732313a207472616e7366657220746f20746865207a65726f206164646044820152637265737360e01b606482015260840161072a565b6113a683838361199d565b6113b1600082611159565b6001600160a01b0383166000908152609a602052604081208054600192906113da908490612913565b90915550506001600160a01b0382166000908152609a60205260408120805460019290611408908490612a70565b909155505060008181526099602052604080822080546001600160a01b0319166001600160a01b0386811691821790925591518493918716917fddf252ad1be2c89b69c2b068fc378daa952ba7f163c4a11628f55a4df523b3ef91a4505050565b6114738282610d5d565b610a0c5761148b816001600160a01b031660146119a8565b6114968360206119a8565b6040516020016114a7929190612a88565b60408051601f198184030181529082905262461bcd60e51b825261072a91600401612402565b6114d78282610d5d565b610a0c57600082815260fb602090815260408083206001600160a01b03851684529091529020805460ff1916600117905561150f3390565b6001600160a01b0316816001600160a01b0316837f2f8788117e7eff1d82e926ec794901d17c78024a50270940304540a733656f0d60405160405180910390a45050565b61155d8282610d5d565b15610a0c57600082815260fb602090815260408083206001600160a01b0385168085529252808320805460ff1916905551339285917ff6391f5c32d9c69d2a47ea670b442974b53935d1edc7fd64eb21e047a839171b9190a45050565b7f360894a13ba1a3210667c828492db98dca3e2076cc3735a920a3ca505d382bbc546001600160a01b031690565b7f189ab7a9244df0848122154315af71fe140f3db0fe014031783b0946b8c9d2e3610a0c8133611469565b600061161d6115ba565b905061162884611b4b565b6000835111806116355750815b15611646576116448484611bf0565b505b7f4910fdfa16fed3260ed0e7147f7cc6da11a60208b5b9406d12a635614ffd9143805460ff1661175757805460ff191660011781556040516001600160a01b03831660248201526116c590869060440160408051601f198184030181529190526020810180516001600160e01b0316631b2ce7f360e11b179052611bf0565b50805460ff191681556116d66115ba565b6001600160a01b0316826001600160a01b03161461174e5760405162461bcd60e51b815260206004820152602f60248201527f45524331393637557067726164653a207570677261646520627265616b73206660448201526e75727468657220757067726164657360881b606482015260840161072a565b61175785611cdb565b5050505050565b610a0c828260405180602001604052806000815250611d1b565b816001600160a01b0316836001600160a01b031614156117da5760405162461bcd60e51b815260206004820152601960248201527f4552433732313a20617070726f766520746f2063616c6c657200000000000000604482015260640161072a565b6001600160a01b038381166000818152609c6020908152604080832094871680845294825291829020805460ff191686151590811790915591519182527f17307eab39ab6107e8899845ad3d59bd9653f200f220920489ca2b5937696c31910160405180910390a3505050565b6118528484846112be565b61185e84848484611d4e565b6110c45760405162461bcd60e51b815260040161072a90612afd565b60608161189e5750506040805180820190915260018152600360fc1b602082015290565b8160005b81156118c857806118b281612b4f565b91506118c19050600a8361292a565b91506118a2565b60008167ffffffffffffffff8111156118e3576118e36124e0565b6040519080825280601f01601f19166020018201604052801561190d576020820181803683370190505b5090505b84156112b657611922600183612913565b915061192f600a866128e9565b61193a906030612a70565b60f81b81838151811061194f5761194f6128bd565b60200101906001600160f81b031916908160001a905350611971600a8661292a565b9450611911565b60006001600160e01b03198216637965db0b60e01b14806106a057506106a082611e5b565b610860838383611eab565b606060006119b7836002612b6a565b6119c2906002612a70565b67ffffffffffffffff8111156119da576119da6124e0565b6040519080825280601f01601f191660200182016040528015611a04576020820181803683370190505b509050600360fc1b81600081518110611a1f57611a1f6128bd565b60200101906001600160f81b031916908160001a905350600f60fb1b81600181518110611a4e57611a4e6128bd565b60200101906001600160f81b031916908160001a9053506000611a72846002612b6a565b611a7d906001612a70565b90505b6001811115611af5576f181899199a1a9b1b9c1cb0b131b232b360811b85600f1660108110611ab157611ab16128bd565b1a60f81b828281518110611ac757611ac76128bd565b60200101906001600160f81b031916908160001a90535060049490941c93611aee81612b89565b9050611a80565b508315611b445760405162461bcd60e51b815260206004820181905260248201527f537472696e67733a20686578206c656e67746820696e73756666696369656e74604482015260640161072a565b9392505050565b803b611baf5760405162461bcd60e51b815260206004820152602d60248201527f455243313936373a206e657720696d706c656d656e746174696f6e206973206e60448201526c1bdd08184818dbdb9d1c9858dd609a1b606482015260840161072a565b7f360894a13ba1a3210667c828492db98dca3e2076cc3735a920a3ca505d382bbc80546001600160a01b0319166001600160a01b0392909216919091179055565b6060823b611c4f5760405162461bcd60e51b815260206004820152602660248201527f416464726573733a2064656c65676174652063616c6c20746f206e6f6e2d636f6044820152651b9d1c9858dd60d21b606482015260840161072a565b600080846001600160a01b031684604051611c6a9190612ba0565b600060405180830381855af49150503d8060008114611ca5576040519150601f19603f3d011682016040523d82523d6000602084013e611caa565b606091505b5091509150611cd28282604051806060016040528060278152602001612c2d60279139611f65565b95945050505050565b611ce481611b4b565b6040516001600160a01b038216907fbc7cd75a20ee27fd9adebab32041f755214dbc6bffa90cc0225b39da2e5c2d3b90600090a250565b611d258383611f9e565b611d326000848484611d4e565b6108605760405162461bcd60e51b815260040161072a90612afd565b60006001600160a01b0384163b15611e5057604051630a85bd0160e11b81526001600160a01b0385169063150b7a0290611d92903390899088908890600401612bbc565b602060405180830381600087803b158015611dac57600080fd5b505af1925050508015611ddc575060408051601f3d908101601f19168201909252611dd991810190612bf9565b60015b611e36573d808015611e0a576040519150601f19603f3d011682016040523d82523d6000602084013e611e0f565b606091505b508051611e2e5760405162461bcd60e51b815260040161072a90612afd565b805181602001fd5b6001600160e01b031916630a85bd0160e11b1490506112b6565b506001949350505050565b60006001600160e01b031982166380ac58cd60e01b1480611e8c57506001600160e01b03198216635b5e139f60e01b145b806106a057506301ffc9a760e01b6001600160e01b03198316146106a0565b6001600160a01b038316611f0857611f038161012f8054600083815261013060205260408120829055600182018355919091527f232da9e50dad2971456a78fb5cd6ff6b75019984d6e918139ce990999420f9790155565b611f2b565b816001600160a01b0316836001600160a01b031614611f2b57611f2b83826120ec565b6001600160a01b038216611f42576108608161218e565b826001600160a01b0316826001600160a01b031614610860576108608282612243565b60608315611f74575081611b44565b825115611f845782518084602001fd5b8160405162461bcd60e51b815260040161072a9190612402565b6001600160a01b038216611ff45760405162461bcd60e51b815260206004820181905260248201527f4552433732313a206d696e7420746f20746865207a65726f2061646472657373604482015260640161072a565b6000818152609960205260409020546001600160a01b0316156120595760405162461bcd60e51b815260206004820152601c60248201527f4552433732313a20746f6b656e20616c7265616479206d696e74656400000000604482015260640161072a565b6120656000838361199d565b6001600160a01b0382166000908152609a6020526040812080546001929061208e908490612a70565b909155505060008181526099602052604080822080546001600160a01b0319166001600160a01b03861690811790915590518392907fddf252ad1be2c89b69c2b068fc378daa952ba7f163c4a11628f55a4df523b3ef908290a45050565b600060016120f984610cd6565b6121039190612913565b600083815261012e6020526040902054909150808214612159576001600160a01b038416600090815261012d60209081526040808320858452825280832054848452818420819055835261012e90915290208190555b50600091825261012e602090815260408084208490556001600160a01b03909416835261012d81528383209183525290812055565b61012f546000906121a190600190612913565b6000838152610130602052604081205461012f80549394509092849081106121cb576121cb6128bd565b906000526020600020015490508061012f83815481106121ed576121ed6128bd565b6000918252602080832090910192909255828152610130909152604080822084905585825281205561012f80548061222757612227612c16565b6001900381819060005260206000200160009055905550505050565b600061224e83610cd6565b6001600160a01b03909316600090815261012d60209081526040808320868452825280832085905593825261012e9052919091209190915550565b8280548282559060005260206000209081019282156122de579160200282015b828111156122de57825182546001600160a01b0319166001600160a01b039091161782556020909201916001909101906122a9565b506122ea929150612362565b5090565b8280546122fa9061293e565b90600052602060002090601f01602090048101928261231c57600085556122de565b82601f1061233557805160ff19168380011785556122de565b828001600101855582156122de579182015b828111156122de578251825591602001919060010190612347565b5b808211156122ea5760008155600101612363565b6001600160e01b031981168114610ad657600080fd5b60006020828403121561239f57600080fd5b8135611b4481612377565b60005b838110156123c55781810151838201526020016123ad565b838111156110c45750506000910152565b600081518084526123ee8160208601602086016123aa565b601f01601f19169290920160200192915050565b602081526000611b4460208301846123d6565b60006020828403121561242757600080fd5b5035919050565b6001600160a01b0381168114610ad657600080fd5b6000806040838503121561245657600080fd5b82356124618161242e565b946020939093013593505050565b60008060006060848603121561248457600080fd5b833561248f8161242e565b9250602084013561249f8161242e565b929592945050506040919091013590565b600080604083850312156124c357600080fd5b8235915060208301356124d58161242e565b809150509250929050565b634e487b7160e01b600052604160045260246000fd5b604051601f8201601f1916810167ffffffffffffffff8111828210171561251f5761251f6124e0565b604052919050565b6000602080838503121561253a57600080fd5b823567ffffffffffffffff8082111561255257600080fd5b818501915085601f83011261256657600080fd5b813581811115612578576125786124e0565b8060051b91506125898483016124f6565b81815291830184019184810190888411156125a357600080fd5b938501935b838510156125cd57843592506125bd8361242e565b82825293850193908501906125a8565b98975050505050505050565b6000602082840312156125eb57600080fd5b8135611b448161242e565b600067ffffffffffffffff831115612610576126106124e0565b612623601f8401601f19166020016124f6565b905082815283838301111561263757600080fd5b828260208301376000602084830101529392505050565b600082601f83011261265f57600080fd5b611b44838335602085016125f6565b6000806040838503121561268157600080fd5b823561268c8161242e565b9150602083013567ffffffffffffffff8111156126a857600080fd5b6126b48582860161264e565b9150509250929050565b6000602082840312156126d057600080fd5b813567ffffffffffffffff8111156126e757600080fd5b8201601f810184136126f857600080fd5b6112b6848235602084016125f6565b6000806040838503121561271a57600080fd5b82356127258161242e565b9150602083013580151581146124d557600080fd5b6000806000806080858703121561275057600080fd5b843561275b8161242e565b9350602085013561276b8161242e565b925060408501359150606085013567ffffffffffffffff81111561278e57600080fd5b61279a8782880161264e565b91505092959194509250565b600080604083850312156127b957600080fd5b82356127c48161242e565b915060208301356124d58161242e565b60208082526031908201527f4552433732313a207472616e736665722063616c6c6572206973206e6f74206f6040820152701ddb995c881b9bdc88185c1c1c9bdd9959607a1b606082015260800190565b6020808252602c908201527f46756e6374696f6e206d7573742062652063616c6c6564207468726f7567682060408201526b19195b1959d85d1958d85b1b60a21b606082015260800190565b6020808252602c908201527f46756e6374696f6e206d7573742062652063616c6c6564207468726f7567682060408201526b6163746976652070726f787960a01b606082015260800190565b634e487b7160e01b600052603260045260246000fd5b634e487b7160e01b600052601260045260246000fd5b6000826128f8576128f86128d3565b500690565b634e487b7160e01b600052601160045260246000fd5b600082821015612925576129256128fd565b500390565b600082612939576129396128d3565b500490565b600181811c9082168061295257607f821691505b6020821081141561297357634e487b7160e01b600052602260045260246000fd5b50919050565b60006020828403121561298b57600080fd5b8151611b448161242e565b600060ff821660ff8114156129ad576129ad6128fd565b60010192915050565b600081516129c88185602086016123aa565b9290920192915050565b600080845481600182811c9150808316806129ee57607f831692505b6020808410821415612a0e57634e487b7160e01b86526022600452602486fd5b818015612a225760018114612a3357612a60565b60ff19861689528489019650612a60565b60008b81526020902060005b86811015612a585781548b820152908501908301612a3f565b505084890196505b505050505050611cd281856129b6565b60008219821115612a8357612a836128fd565b500190565b7f416363657373436f6e74726f6c3a206163636f756e7420000000000000000000815260008351612ac08160178501602088016123aa565b7001034b99036b4b9b9b4b733903937b6329607d1b6017918401918201528351612af18160288401602088016123aa565b01602801949350505050565b60208082526032908201527f4552433732313a207472616e7366657220746f206e6f6e20455243373231526560408201527131b2b4bb32b91034b6b83632b6b2b73a32b960711b606082015260800190565b6000600019821415612b6357612b636128fd565b5060010190565b6000816000190483118215151615612b8457612b846128fd565b500290565b600081612b9857612b986128fd565b506000190190565b60008251612bb28184602087016123aa565b9190910192915050565b6001600160a01b0385811682528416602082015260408101839052608060608201819052600090612bef908301846123d6565b9695505050505050565b600060208284031215612c0b57600080fd5b8151611b4481612377565b634e487b7160e01b600052603160045260246000fdfe416464726573733a206c6f772d6c6576656c2064656c65676174652063616c6c206661696c6564a2646970667358221220dab920efd7f1cd5eea200cb52223ec7809186c3382b7f9a923855c997f6210c364736f6c63430008090033",
  "immutableReferences": {
    "1023": [
      {
        "length": 32,
        "start": 2587
      },
      {
        "length": 32,
        "start": 2651
      },
      {
        "length": 32,
        "start": 2815
      },
      {
        "length": 32,
        "start": 2879
      }
    ]
  },
  "source": "// SPDX-License-Identifier: MIT\npragma solidity 0.8.9;\n\nimport \"@openzeppelin/contracts-upgradeable/token/ERC721/ERC721Upgradeable.sol\";\nimport \"@openzeppelin/contracts-upgradeable/token/ERC721/extensions/ERC721EnumerableUpgradeable.sol\";\nimport \"@openzeppelin/contracts-upgradeable/access/AccessControlUpgradeable.sol\";\nimport \"@openzeppelin/contracts-upgradeable/proxy/utils/Initializable.sol\";\nimport \"@openzeppelin/contracts-upgradeable/proxy/utils/UUPSUpgradeable.sol\";\nimport \"@openzeppelin/contracts-upgradeable/utils/StringsUpgradeable.sol\";\nimport \"./ILand.sol\";\nimport \"./IERC721MelandNFT.sol\";\n\ncontract BaseLand is\n    Initializable,\n    ERC721Upgradeable,\n    UUPSUpgradeable,\n    AccessControlUpgradeable,\n    ERC721EnumerableUpgradeable\n{\n    using StringsUpgradeable for uint256;\n\n    // land mint role\n    bytes32 public constant MINTER_ROLE = keccak256(\"MINTER_ROLE\");\n    bytes32 public constant UPGRADER_ROLE = keccak256(\"UPGRADER_ROLE\");\n    uint16 public constant LAND_PADDING = 10000;\n\n    // _baseURI\n    string private baseURI;\n\n    // other land contracts\n    // mint.\n    IERC721Land[] private otherLands;\n\n    // safeMint\n    function safeMint(address to, uint256 landId) public onlyRole(MINTER_ROLE) {\n        require(landId > LAND_PADDING, \"landId error\");\n        require(\n            totalSupply() < getMintMax(),\n            \"Exceeding the maximum supply quantity\"\n        );\n        require(!_exists(landId), \"Mint conflicted 1\");\n        for (uint8 i = 0; i < otherLands.length; i++) {\n            try otherLands[i].ownerOf(landId) returns(address owner) {\n                require(owner == address(0), \"Mint conflicted 2\");\n            } catch {\n                // ok\n            }\n        }\n        _safeMint(to, landId);\n    }\n\n    /**\n     * @dev Base URI for computing {tokenURI}. If set, the resulting URI for each\n     * token will be the concatenation of the `baseURI` and the `tokenId`. Empty\n     * by default, can be overriden in child contracts.\n     */\n    function _baseURI() internal view override returns (string memory) {\n        return baseURI;\n    }\n\n    // Check if the land id has been set to the contract\n    function checkExists(uint256 tokenId) public view returns (bool) {\n        return _exists(tokenId);\n    }\n\n    function getMintMax() public pure virtual returns (uint256) {\n        return 10000;\n    }\n\n    // tokenId\n    function rcCoordinates(uint256 tokenId)\n        public\n        pure\n        returns (uint256 r, uint256 c)\n    {\n        c = tokenId % LAND_PADDING;\n        r = (tokenId - c) / LAND_PADDING;\n    }\n\n    // \n    function setBaseURI(string memory baseURI_)\n        public\n        onlyRole(DEFAULT_ADMIN_ROLE)\n    {\n        baseURI = baseURI_;\n    }\n\n    function setOtherLands(IERC721Land[] memory otherLands_)\n        public\n        onlyRole(DEFAULT_ADMIN_ROLE)\n    {\n        otherLands = otherLands_;\n    }\n\n    function _burn(uint256 tokenId)\n        internal\n        override(ERC721Upgradeable)\n    {\n        super._burn(tokenId);\n    }\n\n    function name()\n        public\n        view\n        virtual\n        override(ERC721Upgradeable)\n        returns (string memory)\n    {\n        return super.name();\n    }\n\n    function tokenURI(uint256 tokenId)\n        public\n        view\n        override(ERC721Upgradeable)\n        returns (string memory)\n    {\n        return string(abi.encodePacked(baseURI, tokenId.toString()));\n    }\n\n    function _beforeTokenTransfer(\n        address from,\n        address to,\n        uint256 tokenId\n    ) internal override(ERC721Upgradeable, ERC721EnumerableUpgradeable) {\n        super._beforeTokenTransfer(from, to, tokenId);\n    }\n\n    function supportsInterface(bytes4 interfaceId)\n        public\n        view\n        override(\n            ERC721Upgradeable,\n            ERC721EnumerableUpgradeable,\n            AccessControlUpgradeable\n        )\n        returns (bool)\n    {\n        return super.supportsInterface(interfaceId);\n    }\n\n    function _authorizeUpgrade(address newImplementation)\n        internal\n        override\n        onlyRole(UPGRADER_ROLE)\n    {}\n}\n",
  "sourcePath": "/Users/alberthuang/code/icw/meland/contracts/BaseLand.sol",
  "compiler": {
    "name": "solc",
    "version": "0.8.9+commit.e5eed63a.Emscripten.clang"
  },
  "schemaVersion": "3.4.3",
  "updatedAt": "2021-12-16T19:17:15.355Z",
  "devdoc": {
    "kind": "dev",
    "methods": {
      "approve(address,uint256)": {
        "details": "See {IERC721-approve}."
      },
      "balanceOf(address)": {
        "details": "See {IERC721-balanceOf}."
      },
      "getApproved(uint256)": {
        "details": "See {IERC721-getApproved}."
      },
      "getRoleAdmin(bytes32)": {
        "details": "Returns the admin role that controls `role`. See {grantRole} and {revokeRole}. To change a role's admin, use {_setRoleAdmin}."
      },
      "grantRole(bytes32,address)": {
        "details": "Grants `role` to `account`. If `account` had not been already granted `role`, emits a {RoleGranted} event. Requirements: - the caller must have ``role``'s admin role."
      },
      "hasRole(bytes32,address)": {
        "details": "Returns `true` if `account` has been granted `role`."
      },
      "isApprovedForAll(address,address)": {
        "details": "See {IERC721-isApprovedForAll}."
      },
      "name()": {
        "details": "See {IERC721Metadata-name}."
      },
      "ownerOf(uint256)": {
        "details": "See {IERC721-ownerOf}."
      },
      "renounceRole(bytes32,address)": {
        "details": "Revokes `role` from the calling account. Roles are often managed via {grantRole} and {revokeRole}: this function's purpose is to provide a mechanism for accounts to lose their privileges if they are compromised (such as when a trusted device is misplaced). If the calling account had been revoked `role`, emits a {RoleRevoked} event. Requirements: - the caller must be `account`."
      },
      "revokeRole(bytes32,address)": {
        "details": "Revokes `role` from `account`. If `account` had been granted `role`, emits a {RoleRevoked} event. Requirements: - the caller must have ``role``'s admin role."
      },
      "safeTransferFrom(address,address,uint256)": {
        "details": "See {IERC721-safeTransferFrom}."
      },
      "safeTransferFrom(address,address,uint256,bytes)": {
        "details": "See {IERC721-safeTransferFrom}."
      },
      "setApprovalForAll(address,bool)": {
        "details": "See {IERC721-setApprovalForAll}."
      },
      "symbol()": {
        "details": "See {IERC721Metadata-symbol}."
      },
      "tokenByIndex(uint256)": {
        "details": "See {IERC721Enumerable-tokenByIndex}."
      },
      "tokenOfOwnerByIndex(address,uint256)": {
        "details": "See {IERC721Enumerable-tokenOfOwnerByIndex}."
      },
      "tokenURI(uint256)": {
        "details": "See {IERC721Metadata-tokenURI}."
      },
      "totalSupply()": {
        "details": "See {IERC721Enumerable-totalSupply}."
      },
      "transferFrom(address,address,uint256)": {
        "details": "See {IERC721-transferFrom}."
      },
      "upgradeTo(address)": {
        "details": "Upgrade the implementation of the proxy to `newImplementation`. Calls {_authorizeUpgrade}. Emits an {Upgraded} event."
      },
      "upgradeToAndCall(address,bytes)": {
        "details": "Upgrade the implementation of the proxy to `newImplementation`, and subsequently execute the function call encoded in `data`. Calls {_authorizeUpgrade}. Emits an {Upgraded} event."
      }
    },
    "version": 1
  },
  "userdoc": {
    "kind": "user",
    "methods": {},
    "version": 1
  }
}