{
  "contractName": "DitaminSwap",
  "abi": [
    {
      "anonymous": false,
      "inputs": [
        {
          "indexed": false,
          "internalType": "address",
          "name": "previousAdmin",
          "type": "address"
        },
        {
          "indexed": false,
          "internalType": "address",
          "name": "newAdmin",
          "type": "address"
        }
      ],
      "name": "AdminChanged",
      "type": "event"
    },
    {
      "anonymous": false,
      "inputs": [
        {
          "indexed": true,
          "internalType": "address",
          "name": "beacon",
          "type": "address"
        }
      ],
      "name": "BeaconUpgraded",
      "type": "event"
    },
    {
      "anonymous": false,
      "inputs": [
        {
          "indexed": true,
          "internalType": "uint256",
          "name": "billsID",
          "type": "uint256"
        },
        {
          "indexed": true,
          "internalType": "address",
          "name": "from",
          "type": "address"
        },
        {
          "indexed": true,
          "internalType": "address",
          "name": "to",
          "type": "address"
        },
        {
          "indexed": false,
          "internalType": "uint256",
          "name": "amountDitamin",
          "type": "uint256"
        },
        {
          "indexed": false,
          "internalType": "uint256",
          "name": "amountMELD",
          "type": "uint256"
        }
      ],
      "name": "FromDitaminSwap2MELD",
      "type": "event"
    },
    {
      "anonymous": false,
      "inputs": [
        {
          "indexed": true,
          "internalType": "uint256",
          "name": "billsIdOfMELDSwap2Ditamin",
          "type": "uint256"
        },
        {
          "indexed": true,
          "internalType": "address",
          "name": "from",
          "type": "address"
        },
        {
          "indexed": true,
          "internalType": "address",
          "name": "to",
          "type": "address"
        },
        {
          "indexed": false,
          "internalType": "uint256",
          "name": "amountDitamin",
          "type": "uint256"
        },
        {
          "indexed": false,
          "internalType": "uint256",
          "name": "amountMELD",
          "type": "uint256"
        }
      ],
      "name": "FromMELDSwap2Ditamin",
      "type": "event"
    },
    {
      "anonymous": false,
      "inputs": [
        {
          "indexed": false,
          "internalType": "address",
          "name": "account",
          "type": "address"
        }
      ],
      "name": "Paused",
      "type": "event"
    },
    {
      "anonymous": false,
      "inputs": [
        {
          "indexed": true,
          "internalType": "bytes32",
          "name": "role",
          "type": "bytes32"
        },
        {
          "indexed": true,
          "internalType": "bytes32",
          "name": "previousAdminRole",
          "type": "bytes32"
        },
        {
          "indexed": true,
          "internalType": "bytes32",
          "name": "newAdminRole",
          "type": "bytes32"
        }
      ],
      "name": "RoleAdminChanged",
      "type": "event"
    },
    {
      "anonymous": false,
      "inputs": [
        {
          "indexed": true,
          "internalType": "bytes32",
          "name": "role",
          "type": "bytes32"
        },
        {
          "indexed": true,
          "internalType": "address",
          "name": "account",
          "type": "address"
        },
        {
          "indexed": true,
          "internalType": "address",
          "name": "sender",
          "type": "address"
        }
      ],
      "name": "RoleGranted",
      "type": "event"
    },
    {
      "anonymous": false,
      "inputs": [
        {
          "indexed": true,
          "internalType": "bytes32",
          "name": "role",
          "type": "bytes32"
        },
        {
          "indexed": true,
          "internalType": "address",
          "name": "account",
          "type": "address"
        },
        {
          "indexed": true,
          "internalType": "address",
          "name": "sender",
          "type": "address"
        }
      ],
      "name": "RoleRevoked",
      "type": "event"
    },
    {
      "anonymous": false,
      "inputs": [
        {
          "indexed": false,
          "internalType": "address",
          "name": "account",
          "type": "address"
        }
      ],
      "name": "Unpaused",
      "type": "event"
    },
    {
      "anonymous": false,
      "inputs": [
        {
          "indexed": true,
          "internalType": "address",
          "name": "implementation",
          "type": "address"
        }
      ],
      "name": "Upgraded",
      "type": "event"
    },
    {
      "inputs": [],
      "name": "DEFAULT_ADMIN_ROLE",
      "outputs": [
        {
          "internalType": "bytes32",
          "name": "",
          "type": "bytes32"
        }
      ],
      "stateMutability": "view",
      "type": "function"
    },
    {
      "inputs": [],
      "name": "MELDToken",
      "outputs": [
        {
          "internalType": "contract IERC20MELD",
          "name": "",
          "type": "address"
        }
      ],
      "stateMutability": "view",
      "type": "function"
    },
    {
      "inputs": [],
      "name": "SWAP_ROLE",
      "outputs": [
        {
          "internalType": "bytes32",
          "name": "",
          "type": "bytes32"
        }
      ],
      "stateMutability": "view",
      "type": "function"
    },
    {
      "inputs": [],
      "name": "UPGRADER_ROLE",
      "outputs": [
        {
          "internalType": "bytes32",
          "name": "",
          "type": "bytes32"
        }
      ],
      "stateMutability": "view",
      "type": "function"
    },
    {
      "inputs": [
        {
          "internalType": "bytes32",
          "name": "role",
          "type": "bytes32"
        }
      ],
      "name": "getRoleAdmin",
      "outputs": [
        {
          "internalType": "bytes32",
          "name": "",
          "type": "bytes32"
        }
      ],
      "stateMutability": "view",
      "type": "function"
    },
    {
      "inputs": [
        {
          "internalType": "bytes32",
          "name": "role",
          "type": "bytes32"
        },
        {
          "internalType": "address",
          "name": "account",
          "type": "address"
        }
      ],
      "name": "grantRole",
      "outputs": [],
      "stateMutability": "nonpayable",
      "type": "function"
    },
    {
      "inputs": [
        {
          "internalType": "bytes32",
          "name": "role",
          "type": "bytes32"
        },
        {
          "internalType": "address",
          "name": "account",
          "type": "address"
        }
      ],
      "name": "hasRole",
      "outputs": [
        {
          "internalType": "bool",
          "name": "",
          "type": "bool"
        }
      ],
      "stateMutability": "view",
      "type": "function"
    },
    {
      "inputs": [],
      "name": "paused",
      "outputs": [
        {
          "internalType": "bool",
          "name": "",
          "type": "bool"
        }
      ],
      "stateMutability": "view",
      "type": "function"
    },
    {
      "inputs": [
        {
          "internalType": "bytes32",
          "name": "role",
          "type": "bytes32"
        },
        {
          "internalType": "address",
          "name": "account",
          "type": "address"
        }
      ],
      "name": "renounceRole",
      "outputs": [],
      "stateMutability": "nonpayable",
      "type": "function"
    },
    {
      "inputs": [
        {
          "internalType": "bytes32",
          "name": "role",
          "type": "bytes32"
        },
        {
          "internalType": "address",
          "name": "account",
          "type": "address"
        }
      ],
      "name": "revokeRole",
      "outputs": [],
      "stateMutability": "nonpayable",
      "type": "function"
    },
    {
      "inputs": [
        {
          "internalType": "bytes4",
          "name": "interfaceId",
          "type": "bytes4"
        }
      ],
      "name": "supportsInterface",
      "outputs": [
        {
          "internalType": "bool",
          "name": "",
          "type": "bool"
        }
      ],
      "stateMutability": "view",
      "type": "function"
    },
    {
      "inputs": [
        {
          "internalType": "address",
          "name": "newImplementation",
          "type": "address"
        }
      ],
      "name": "upgradeTo",
      "outputs": [],
      "stateMutability": "nonpayable",
      "type": "function"
    },
    {
      "inputs": [
        {
          "internalType": "address",
          "name": "newImplementation",
          "type": "address"
        },
        {
          "internalType": "bytes",
          "name": "data",
          "type": "bytes"
        }
      ],
      "name": "upgradeToAndCall",
      "outputs": [],
      "stateMutability": "payable",
      "type": "function"
    },
    {
      "inputs": [],
      "name": "initialize",
      "outputs": [],
      "stateMutability": "nonpayable",
      "type": "function"
    },
    {
      "inputs": [
        {
          "internalType": "contract IERC20MELD",
          "name": "token",
          "type": "address"
        }
      ],
      "name": "initialize",
      "outputs": [],
      "stateMutability": "nonpayable",
      "type": "function"
    },
    {
      "inputs": [
        {
          "internalType": "address",
          "name": "account",
          "type": "address"
        }
      ],
      "name": "setSwapRole",
      "outputs": [],
      "stateMutability": "nonpayable",
      "type": "function"
    },
    {
      "inputs": [
        {
          "internalType": "uint256",
          "name": "billsID",
          "type": "uint256"
        }
      ],
      "name": "fromDitaminSwap2MELD",
      "outputs": [],
      "stateMutability": "nonpayable",
      "type": "function"
    },
    {
      "inputs": [
        {
          "internalType": "uint256",
          "name": "amountMELD",
          "type": "uint256"
        }
      ],
      "name": "fromMELDSwap2Ditamin",
      "outputs": [],
      "stateMutability": "nonpayable",
      "type": "function"
    }
  ],
  "bytecode": "0x60a06040523060805234801561001457600080fd5b50608051611521610045600039600081816104d1015281816105110152818161059a01526105da01526115216000f3fe6080604052600436106101095760003560e01c80638129fc1c11610095578063ce384ab511610064578063ce384ab5146102d1578063d4b7f403146102f1578063d547741f14610313578063dda7df7c146102d1578063f72c0d8b1461033357600080fd5b80638129fc1c1461026757806391d148541461027c578063a217fddf1461029c578063c4d66de8146102b157600080fd5b80632f2ff15d116100dc5780632f2ff15d146101dc57806336568abe146101fc5780633659cfe61461021c5780634f1ef2861461023c5780635c975abb1461024f57600080fd5b806301ffc9a71461010e57806313ea0d9814610143578063248a9ca31461017c57806325813f98146101ba575b600080fd5b34801561011a57600080fd5b5061012e6101293660046110d1565b610367565b60405190151581526020015b60405180910390f35b34801561014f57600080fd5b5061012d54610164906001600160a01b031681565b6040516001600160a01b03909116815260200161013a565b34801561018857600080fd5b506101ac6101973660046110fb565b60009081526097602052604090206001015490565b60405190815260200161013a565b3480156101c657600080fd5b506101da6101d5366004611129565b61039e565b005b3480156101e857600080fd5b506101da6101f7366004611146565b610421565b34801561020857600080fd5b506101da610217366004611146565b61044c565b34801561022857600080fd5b506101da610237366004611129565b6104c6565b6101da61024a36600461118c565b61058f565b34801561025b57600080fd5b5060335460ff1661012e565b34801561027357600080fd5b506101da610645565b34801561028857600080fd5b5061012e610297366004611146565b610702565b3480156102a857600080fd5b506101ac600081565b3480156102bd57600080fd5b506101da6102cc366004611129565b61072d565b3480156102dd57600080fd5b506101da6102ec3660046110fb565b6107d8565b3480156102fd57600080fd5b506101ac6000805160206114a583398151915281565b34801561031f57600080fd5b506101da61032e366004611146565b6107f1565b34801561033f57600080fd5b506101ac7f189ab7a9244df0848122154315af71fe140f3db0fe014031783b0946b8c9d2e381565b60006001600160e01b03198216637965db0b60e01b148061039857506301ffc9a760e01b6001600160e01b03198316145b92915050565b60006103aa8133610817565b6001600160a01b0382166104055760405162461bcd60e51b815260206004820152601b60248201527f6163636f756e7420616464726573732063616e6e6f74207a65726f000000000060448201526064015b60405180910390fd5b61041d6000805160206114a58339815191528361087b565b5050565b60008281526097602052604090206001015461043d8133610817565b6104478383610881565b505050565b6001600160a01b03811633146104bc5760405162461bcd60e51b815260206004820152602f60248201527f416363657373436f6e74726f6c3a2063616e206f6e6c792072656e6f756e636560448201526e103937b632b9903337b91039b2b63360891b60648201526084016103fc565b61041d8282610907565b306001600160a01b037f000000000000000000000000000000000000000000000000000000000000000016141561050f5760405162461bcd60e51b81526004016103fc90611250565b7f00000000000000000000000000000000000000000000000000000000000000006001600160a01b031661054161096e565b6001600160a01b0316146105675760405162461bcd60e51b81526004016103fc9061129c565b6105708161099c565b6040805160008082526020820190925261058c918391906109c7565b50565b306001600160a01b037f00000000000000000000000000000000000000000000000000000000000000001614156105d85760405162461bcd60e51b81526004016103fc90611250565b7f00000000000000000000000000000000000000000000000000000000000000006001600160a01b031661060a61096e565b6001600160a01b0316146106305760405162461bcd60e51b81526004016103fc9061129c565b6106398261099c565b61041d828260016109c7565b600054610100900460ff168061065e575060005460ff16155b61067a5760405162461bcd60e51b81526004016103fc906112e8565b600054610100900460ff1615801561069c576000805461ffff19166101011790555b6106a4610b12565b6106ac610b79565b6106c46000805160206114a58339815191523361087b565b6106ee7f189ab7a9244df0848122154315af71fe140f3db0fe014031783b0946b8c9d2e33361087b565b801561058c576000805461ff001916905550565b60009182526097602090815260408084206001600160a01b0393909316845291905290205460ff1690565b600054610100900460ff1680610746575060005460ff16155b6107625760405162461bcd60e51b81526004016103fc906112e8565b600054610100900460ff16158015610784576000805461ffff19166101011790555b61078c610b12565b610794610b79565b61079c610be8565b6107a760003361087b565b61012d80546001600160a01b0319166001600160a01b038416179055801561041d576000805461ff00191690555050565b6000805160206114a583398151915261041d8133610817565b60008281526097602052604090206001015461080d8133610817565b6104478383610907565b6108218282610702565b61041d57610839816001600160a01b03166014610c46565b610844836020610c46565b604051602001610855929190611366565b60408051601f198184030181529082905262461bcd60e51b82526103fc916004016113db565b61041d82825b61088b8282610702565b61041d5760008281526097602090815260408083206001600160a01b03851684529091529020805460ff191660011790556108c33390565b6001600160a01b0316816001600160a01b0316837f2f8788117e7eff1d82e926ec794901d17c78024a50270940304540a733656f0d60405160405180910390a45050565b6109118282610702565b1561041d5760008281526097602090815260408083206001600160a01b0385168085529252808320805460ff1916905551339285917ff6391f5c32d9c69d2a47ea670b442974b53935d1edc7fd64eb21e047a839171b9190a45050565b7f360894a13ba1a3210667c828492db98dca3e2076cc3735a920a3ca505d382bbc546001600160a01b031690565b7f189ab7a9244df0848122154315af71fe140f3db0fe014031783b0946b8c9d2e361041d8133610817565b60006109d161096e565b90506109dc84610de9565b6000835111806109e95750815b156109fa576109f88484610e8e565b505b7f4910fdfa16fed3260ed0e7147f7cc6da11a60208b5b9406d12a635614ffd9143805460ff16610b0b57805460ff191660011781556040516001600160a01b0383166024820152610a7990869060440160408051601f198184030181529190526020810180516001600160e01b0316631b2ce7f360e11b179052610e8e565b50805460ff19168155610a8a61096e565b6001600160a01b0316826001600160a01b031614610b025760405162461bcd60e51b815260206004820152602f60248201527f45524331393637557067726164653a207570677261646520627265616b73206660448201526e75727468657220757067726164657360881b60648201526084016103fc565b610b0b85610f79565b5050505050565b600054610100900460ff1680610b2b575060005460ff16155b610b475760405162461bcd60e51b81526004016103fc906112e8565b600054610100900460ff16158015610b69576000805461ffff19166101011790555b610b71610fb9565b6106ee611023565b600054610100900460ff1680610b92575060005460ff16155b610bae5760405162461bcd60e51b81526004016103fc906112e8565b600054610100900460ff16158015610bd0576000805461ffff19166101011790555b610bd8610fb9565b610be0610fb9565b6106ee610fb9565b600054610100900460ff1680610c01575060005460ff16155b610c1d5760405162461bcd60e51b81526004016103fc906112e8565b600054610100900460ff16158015610bd8576000805461ffff1916610101179055610be0610fb9565b60606000610c55836002611424565b610c60906002611443565b67ffffffffffffffff811115610c7857610c78611176565b6040519080825280601f01601f191660200182016040528015610ca2576020820181803683370190505b509050600360fc1b81600081518110610cbd57610cbd61145b565b60200101906001600160f81b031916908160001a905350600f60fb1b81600181518110610cec57610cec61145b565b60200101906001600160f81b031916908160001a9053506000610d10846002611424565b610d1b906001611443565b90505b6001811115610d93576f181899199a1a9b1b9c1cb0b131b232b360811b85600f1660108110610d4f57610d4f61145b565b1a60f81b828281518110610d6557610d6561145b565b60200101906001600160f81b031916908160001a90535060049490941c93610d8c81611471565b9050610d1e565b508315610de25760405162461bcd60e51b815260206004820181905260248201527f537472696e67733a20686578206c656e67746820696e73756666696369656e7460448201526064016103fc565b9392505050565b803b610e4d5760405162461bcd60e51b815260206004820152602d60248201527f455243313936373a206e657720696d706c656d656e746174696f6e206973206e60448201526c1bdd08184818dbdb9d1c9858dd609a1b60648201526084016103fc565b7f360894a13ba1a3210667c828492db98dca3e2076cc3735a920a3ca505d382bbc80546001600160a01b0319166001600160a01b0392909216919091179055565b6060823b610eed5760405162461bcd60e51b815260206004820152602660248201527f416464726573733a2064656c65676174652063616c6c20746f206e6f6e2d636f6044820152651b9d1c9858dd60d21b60648201526084016103fc565b600080846001600160a01b031684604051610f089190611488565b600060405180830381855af49150503d8060008114610f43576040519150601f19603f3d011682016040523d82523d6000602084013e610f48565b606091505b5091509150610f7082826040518060600160405280602781526020016114c560279139611098565b95945050505050565b610f8281610de9565b6040516001600160a01b038216907fbc7cd75a20ee27fd9adebab32041f755214dbc6bffa90cc0225b39da2e5c2d3b90600090a250565b600054610100900460ff1680610fd2575060005460ff16155b610fee5760405162461bcd60e51b81526004016103fc906112e8565b600054610100900460ff161580156106ee576000805461ffff1916610101179055801561058c576000805461ff001916905550565b600054610100900460ff168061103c575060005460ff16155b6110585760405162461bcd60e51b81526004016103fc906112e8565b600054610100900460ff1615801561107a576000805461ffff19166101011790555b6033805460ff19169055801561058c576000805461ff001916905550565b606083156110a7575081610de2565b8251156110b75782518084602001fd5b8160405162461bcd60e51b81526004016103fc91906113db565b6000602082840312156110e357600080fd5b81356001600160e01b031981168114610de257600080fd5b60006020828403121561110d57600080fd5b5035919050565b6001600160a01b038116811461058c57600080fd5b60006020828403121561113b57600080fd5b8135610de281611114565b6000806040838503121561115957600080fd5b82359150602083013561116b81611114565b809150509250929050565b634e487b7160e01b600052604160045260246000fd5b6000806040838503121561119f57600080fd5b82356111aa81611114565b9150602083013567ffffffffffffffff808211156111c757600080fd5b818501915085601f8301126111db57600080fd5b8135818111156111ed576111ed611176565b604051601f8201601f19908116603f0116810190838211818310171561121557611215611176565b8160405282815288602084870101111561122e57600080fd5b8260208601602083013760006020848301015280955050505050509250929050565b6020808252602c908201527f46756e6374696f6e206d7573742062652063616c6c6564207468726f7567682060408201526b19195b1959d85d1958d85b1b60a21b606082015260800190565b6020808252602c908201527f46756e6374696f6e206d7573742062652063616c6c6564207468726f7567682060408201526b6163746976652070726f787960a01b606082015260800190565b6020808252602e908201527f496e697469616c697a61626c653a20636f6e747261637420697320616c72656160408201526d191e481a5b9a5d1a585b1a5e995960921b606082015260800190565b60005b83811015611351578181015183820152602001611339565b83811115611360576000848401525b50505050565b7f416363657373436f6e74726f6c3a206163636f756e742000000000000000000081526000835161139e816017850160208801611336565b7001034b99036b4b9b9b4b733903937b6329607d1b60179184019182015283516113cf816028840160208801611336565b01602801949350505050565b60208152600082518060208401526113fa816040850160208701611336565b601f01601f19169190910160400192915050565b634e487b7160e01b600052601160045260246000fd5b600081600019048311821515161561143e5761143e61140e565b500290565b600082198211156114565761145661140e565b500190565b634e487b7160e01b600052603260045260246000fd5b6000816114805761148061140e565b506000190190565b6000825161149a818460208701611336565b919091019291505056fe499b8dbdbe4f7b12284c4a222a9951ce4488b43af4d09f42655d67f73b612fe1416464726573733a206c6f772d6c6576656c2064656c65676174652063616c6c206661696c6564a26469706673582212201f19d674c30dc311ede57e2c5d8ea6ec1f36e3984d5e690514b8cdd6113cd4f064736f6c63430008090033",
  "immutableReferences": {
    "1023": [
      {
        "length": 32,
        "start": 1233
      },
      {
        "length": 32,
        "start": 1297
      },
      {
        "length": 32,
        "start": 1434
      },
      {
        "length": 32,
        "start": 1498
      }
    ]
  },
  "source": "// SPDX-License-Identifier: MIT\npragma solidity 0.8.9;\n\nimport \"@openzeppelin/contracts-upgradeable/proxy/utils/Initializable.sol\";\nimport \"@openzeppelin/contracts-upgradeable/access/AccessControlUpgradeable.sol\";\nimport \"@openzeppelin/contracts-upgradeable/proxy/utils/UUPSUpgradeable.sol\";\nimport \"@openzeppelin/contracts-upgradeable/utils/math/SafeMathUpgradeable.sol\";\nimport \"@openzeppelin/contracts-upgradeable/security/PausableUpgradeable.sol\";\nimport \"./IMELD.sol\";\n\ncontract DitaminSwap is\n    Initializable,\n    PausableUpgradeable,\n    AccessControlUpgradeable,\n    UUPSUpgradeable\n{\n    bytes32 public constant SWAP_ROLE = keccak256(\"SWAP_ROLE\");\n    bytes32 public constant UPGRADER_ROLE = keccak256(\"UPGRADER_ROLE\");\n\n    using SafeMathUpgradeable for uint256;\n\n    function initialize() public initializer {\n        __Pausable_init();\n        __AccessControl_init();\n        _setupRole(SWAP_ROLE, msg.sender);\n        _setupRole(UPGRADER_ROLE, msg.sender);\n    }\n\n    // MELD redemption event\n    // records the address of the user who paid for the ditamin\n    // the address where the MELD was received,\n    // the number of amountDitamin paid\n    // the number of MELD received\n    event FromDitaminSwap2MELD(\n        uint256 indexed billsID,\n        address indexed from,\n        address indexed to,\n        uint256 amountDitamin,\n        uint256 amountMELD\n    );\n\n    // Ditamin redemption event\n    // The billsIdOfMELDSwap2Ditamin of the payments for MELD records\n    // The from address of the user who paid for the MELD\n    // The to address where the ditamin was received\n    // The amountDitamin of amountDitamin received\n    // The amountMELD of MELD paid\n    event FromMELDSwap2Ditamin(\n        uint256 indexed billsIdOfMELDSwap2Ditamin,\n        address indexed from,\n        address indexed to,\n        uint256 amountDitamin,\n        uint256 amountMELD\n    );\n\n    // the token being sold\n    IERC20MELD public MELDToken;\n\n    function initialize(IERC20MELD token) public initializer {\n        __Pausable_init();\n        __AccessControl_init();\n        __UUPSUpgradeable_init();\n        _setupRole(DEFAULT_ADMIN_ROLE, msg.sender);\n        MELDToken = token;\n    }\n\n    // set swap role\n    function setSwapRole(address account) public onlyRole(DEFAULT_ADMIN_ROLE) {\n        require(account != address(0), \"account address cannot zero\");\n        _setupRole(SWAP_ROLE, account);\n    }\n\n    // Users pay ditamin to redeem MELD\n    // Initiated by a redeemable server\n    function fromDitaminSwap2MELD (\n        // The bills id provided redeemable server\n        uint256 billsID\n    ) public onlyRole(SWAP_ROLE) {\n\n    }\n\n    // Users pay MELD to redeem ditamin\n    function fromMELDSwap2Ditamin(uint256 amountMELD) public onlyRole(SWAP_ROLE) {\n        \n    }\n\n    function _authorizeUpgrade(address newImplementation)\n        internal\n        onlyRole(UPGRADER_ROLE)\n        override\n    {}\n}\n",
  "sourcePath": "/Users/alberthuang/code/icw/meland/contracts/MELDDitaminSwap.sol",
  "compiler": {
    "name": "solc",
    "version": "0.8.9+commit.e5eed63a.Emscripten.clang"
  },
  "schemaVersion": "3.4.3",
  "updatedAt": "2021-12-16T19:17:15.426Z",
  "devdoc": {
    "kind": "dev",
    "methods": {
      "getRoleAdmin(bytes32)": {
        "details": "Returns the admin role that controls `role`. See {grantRole} and {revokeRole}. To change a role's admin, use {_setRoleAdmin}."
      },
      "grantRole(bytes32,address)": {
        "details": "Grants `role` to `account`. If `account` had not been already granted `role`, emits a {RoleGranted} event. Requirements: - the caller must have ``role``'s admin role."
      },
      "hasRole(bytes32,address)": {
        "details": "Returns `true` if `account` has been granted `role`."
      },
      "paused()": {
        "details": "Returns true if the contract is paused, and false otherwise."
      },
      "renounceRole(bytes32,address)": {
        "details": "Revokes `role` from the calling account. Roles are often managed via {grantRole} and {revokeRole}: this function's purpose is to provide a mechanism for accounts to lose their privileges if they are compromised (such as when a trusted device is misplaced). If the calling account had been revoked `role`, emits a {RoleRevoked} event. Requirements: - the caller must be `account`."
      },
      "revokeRole(bytes32,address)": {
        "details": "Revokes `role` from `account`. If `account` had been granted `role`, emits a {RoleRevoked} event. Requirements: - the caller must have ``role``'s admin role."
      },
      "supportsInterface(bytes4)": {
        "details": "See {IERC165-supportsInterface}."
      },
      "upgradeTo(address)": {
        "details": "Upgrade the implementation of the proxy to `newImplementation`. Calls {_authorizeUpgrade}. Emits an {Upgraded} event."
      },
      "upgradeToAndCall(address,bytes)": {
        "details": "Upgrade the implementation of the proxy to `newImplementation`, and subsequently execute the function call encoded in `data`. Calls {_authorizeUpgrade}. Emits an {Upgraded} event."
      }
    },
    "version": 1
  },
  "userdoc": {
    "kind": "user",
    "methods": {},
    "version": 1
  }
}