{
  "contractName": "LiquidityTrap",
  "abi": [
    {
      "anonymous": false,
      "inputs": [
        {
          "indexed": true,
          "internalType": "address",
          "name": "owner",
          "type": "address"
        },
        {
          "indexed": true,
          "internalType": "address",
          "name": "spender",
          "type": "address"
        },
        {
          "indexed": false,
          "internalType": "uint256",
          "name": "value",
          "type": "uint256"
        }
      ],
      "name": "Approval",
      "type": "event"
    },
    {
      "anonymous": false,
      "inputs": [
        {
          "indexed": true,
          "internalType": "address",
          "name": "previousOwner",
          "type": "address"
        },
        {
          "indexed": true,
          "internalType": "address",
          "name": "newOwner",
          "type": "address"
        }
      ],
      "name": "OwnershipTransferred",
      "type": "event"
    },
    {
      "anonymous": false,
      "inputs": [
        {
          "indexed": true,
          "internalType": "address",
          "name": "from",
          "type": "address"
        },
        {
          "indexed": true,
          "internalType": "address",
          "name": "to",
          "type": "address"
        },
        {
          "indexed": false,
          "internalType": "uint256",
          "name": "value",
          "type": "uint256"
        }
      ],
      "name": "Transfer",
      "type": "event"
    },
    {
      "inputs": [],
      "name": "TRAP_BLOCKS",
      "outputs": [
        {
          "internalType": "uint8",
          "name": "",
          "type": "uint8"
        }
      ],
      "stateMutability": "view",
      "type": "function"
    },
    {
      "inputs": [
        {
          "internalType": "address",
          "name": "owner",
          "type": "address"
        },
        {
          "internalType": "address",
          "name": "spender",
          "type": "address"
        }
      ],
      "name": "allowance",
      "outputs": [
        {
          "internalType": "uint256",
          "name": "",
          "type": "uint256"
        }
      ],
      "stateMutability": "view",
      "type": "function"
    },
    {
      "inputs": [
        {
          "internalType": "address",
          "name": "spender",
          "type": "address"
        },
        {
          "internalType": "uint256",
          "name": "amount",
          "type": "uint256"
        }
      ],
      "name": "approve",
      "outputs": [
        {
          "internalType": "bool",
          "name": "",
          "type": "bool"
        }
      ],
      "stateMutability": "nonpayable",
      "type": "function"
    },
    {
      "inputs": [
        {
          "internalType": "address",
          "name": "account",
          "type": "address"
        }
      ],
      "name": "balanceOf",
      "outputs": [
        {
          "internalType": "uint256",
          "name": "",
          "type": "uint256"
        }
      ],
      "stateMutability": "view",
      "type": "function"
    },
    {
      "inputs": [
        {
          "internalType": "address",
          "name": "",
          "type": "address"
        }
      ],
      "name": "bought",
      "outputs": [
        {
          "internalType": "uint256",
          "name": "",
          "type": "uint256"
        }
      ],
      "stateMutability": "view",
      "type": "function"
    },
    {
      "inputs": [
        {
          "internalType": "uint256",
          "name": "amount",
          "type": "uint256"
        }
      ],
      "name": "burn",
      "outputs": [],
      "stateMutability": "nonpayable",
      "type": "function"
    },
    {
      "inputs": [
        {
          "internalType": "address",
          "name": "account",
          "type": "address"
        },
        {
          "internalType": "uint256",
          "name": "amount",
          "type": "uint256"
        }
      ],
      "name": "burnFrom",
      "outputs": [],
      "stateMutability": "nonpayable",
      "type": "function"
    },
    {
      "inputs": [],
      "name": "decimals",
      "outputs": [
        {
          "internalType": "uint8",
          "name": "",
          "type": "uint8"
        }
      ],
      "stateMutability": "view",
      "type": "function"
    },
    {
      "inputs": [
        {
          "internalType": "address",
          "name": "spender",
          "type": "address"
        },
        {
          "internalType": "uint256",
          "name": "subtractedValue",
          "type": "uint256"
        }
      ],
      "name": "decreaseAllowance",
      "outputs": [
        {
          "internalType": "bool",
          "name": "",
          "type": "bool"
        }
      ],
      "stateMutability": "nonpayable",
      "type": "function"
    },
    {
      "inputs": [
        {
          "internalType": "address",
          "name": "spender",
          "type": "address"
        },
        {
          "internalType": "uint256",
          "name": "addedValue",
          "type": "uint256"
        }
      ],
      "name": "increaseAllowance",
      "outputs": [
        {
          "internalType": "bool",
          "name": "",
          "type": "bool"
        }
      ],
      "stateMutability": "nonpayable",
      "type": "function"
    },
    {
      "inputs": [],
      "name": "liquidityAddedBlock",
      "outputs": [
        {
          "internalType": "uint256",
          "name": "",
          "type": "uint256"
        }
      ],
      "stateMutability": "view",
      "type": "function"
    },
    {
      "inputs": [],
      "name": "name",
      "outputs": [
        {
          "internalType": "string",
          "name": "",
          "type": "string"
        }
      ],
      "stateMutability": "view",
      "type": "function"
    },
    {
      "inputs": [],
      "name": "owner",
      "outputs": [
        {
          "internalType": "address",
          "name": "",
          "type": "address"
        }
      ],
      "stateMutability": "view",
      "type": "function"
    },
    {
      "inputs": [],
      "name": "renounceOwnership",
      "outputs": [],
      "stateMutability": "nonpayable",
      "type": "function"
    },
    {
      "inputs": [],
      "name": "symbol",
      "outputs": [
        {
          "internalType": "string",
          "name": "",
          "type": "string"
        }
      ],
      "stateMutability": "view",
      "type": "function"
    },
    {
      "inputs": [],
      "name": "totalSupply",
      "outputs": [
        {
          "internalType": "uint256",
          "name": "",
          "type": "uint256"
        }
      ],
      "stateMutability": "view",
      "type": "function"
    },
    {
      "inputs": [
        {
          "internalType": "address",
          "name": "recipient",
          "type": "address"
        },
        {
          "internalType": "uint256",
          "name": "amount",
          "type": "uint256"
        }
      ],
      "name": "transfer",
      "outputs": [
        {
          "internalType": "bool",
          "name": "",
          "type": "bool"
        }
      ],
      "stateMutability": "nonpayable",
      "type": "function"
    },
    {
      "inputs": [
        {
          "internalType": "address",
          "name": "sender",
          "type": "address"
        },
        {
          "internalType": "address",
          "name": "recipient",
          "type": "address"
        },
        {
          "internalType": "uint256",
          "name": "amount",
          "type": "uint256"
        }
      ],
      "name": "transferFrom",
      "outputs": [
        {
          "internalType": "bool",
          "name": "",
          "type": "bool"
        }
      ],
      "stateMutability": "nonpayable",
      "type": "function"
    },
    {
      "inputs": [
        {
          "internalType": "address",
          "name": "newOwner",
          "type": "address"
        }
      ],
      "name": "transferOwnership",
      "outputs": [],
      "stateMutability": "nonpayable",
      "type": "function"
    },
    {
      "inputs": [],
      "name": "trapAmount",
      "outputs": [
        {
          "internalType": "uint128",
          "name": "",
          "type": "uint128"
        }
      ],
      "stateMutability": "view",
      "type": "function"
    },
    {
      "inputs": [
        {
          "internalType": "uint128",
          "name": "_trapAmount",
          "type": "uint128"
        }
      ],
      "name": "setTrapAmount",
      "outputs": [],
      "stateMutability": "nonpayable",
      "type": "function"
    },
    {
      "inputs": [
        {
          "internalType": "address",
          "name": "_address",
          "type": "address"
        }
      ],
      "name": "isUniswap",
      "outputs": [],
      "stateMutability": "view",
      "type": "function"
    },
    {
      "inputs": [
        {
          "internalType": "address",
          "name": "_address",
          "type": "address"
        }
      ],
      "name": "isPancake",
      "outputs": [
        {
          "internalType": "bool",
          "name": "",
          "type": "bool"
        }
      ],
      "stateMutability": "view",
      "type": "function"
    },
    {
      "inputs": [
        {
          "internalType": "address",
          "name": "_address",
          "type": "address"
        }
      ],
      "name": "isPool",
      "outputs": [
        {
          "internalType": "bool",
          "name": "",
          "type": "bool"
        }
      ],
      "stateMutability": "view",
      "type": "function"
    }
  ],
  "bytecode": "0x608060405234801561001057600080fd5b50611183806100206000396000f3fe608060405234801561001057600080fd5b50600436106101585760003560e01c806370a08231116100c3578063a9059cbb1161007c578063a9059cbb146102fe578063bcff895a14610311578063c4cb3b091461031a578063dd62ed3e14610353578063f2fde38b1461038c578063fe0cf2541461039f57600080fd5b806370a0823114610284578063715018a6146102ad57806379cc6790146102b55780638da5cb5b146102c857806395d89b41146102e3578063a457c2d7146102eb57600080fd5b8063313ce56711610115578063313ce567146101eb578063395093511461020057806342966c681461021357806346022c8a146102265780635b16ebb714610251578063667022fd1461026457600080fd5b806306fdde031461015d578063095ea7b31461017b5780630df5d15e1461019e57806318160ddd146101b3578063199752f3146101c557806323b872dd146101d8575b600080fd5b6101656103a7565b6040516101729190610ef7565b60405180910390f35b61018e610189366004610f46565b610439565b6040519015158152602001610172565b6101b16101ac366004610f70565b61044f565b005b6067545b604051908152602001610172565b61018e6101d3366004610f70565b6104f1565b61018e6101e6366004610f92565b610574565b60125b60405160ff9091168152602001610172565b61018e61020e366004610f46565b610623565b6101b1610221366004610fce565b61065f565b60c954610239906001600160801b031681565b6040516001600160801b039091168152602001610172565b61018e61025f366004610f70565b61066c565b6101b7610272366004610f70565b60cb6020526000908152604090205481565b6101b7610292366004610f70565b6001600160a01b031660009081526065602052604090205490565b6101b16107ce565b6101b16102c3366004610f46565b610834565b6033546040516001600160a01b039091168152602001610172565b6101656108ba565b61018e6102f9366004610f46565b6108c9565b61018e61030c366004610f46565b610962565b6101b760ca5481565b6101b1610328366004610fe7565b60c980546fffffffffffffffffffffffffffffffff19166001600160801b0392909216919091179055565b6101b7610361366004611010565b6001600160a01b03918216600090815260666020908152604080832093909416825291909152205490565b6101b161039a366004610f70565b61096f565b6101ee603c81565b6060606880546103b690611043565b80601f01602080910402602001604051908101604052809291908181526020018280546103e290611043565b801561042f5780601f106104045761010080835404028352916020019161042f565b820191906000526020600020905b81548152906001019060200180831161041257829003601f168201915b5050505050905090565b6000610446338484610a37565b50600192915050565b604051600060248201819052906001600160a01b0383169060440160408051601f198184030181529181526020820180516001600160e01b031663299ce14b60e11b1790525161049f919061107e565b600060405180830381855afa9150503d80600081146104da576040519150601f19603f3d011682016040523d82523d6000602084013e6104df565b606091505b50509050806104ed57600080fd5b5050565b600080829050806001600160a01b0316630902f1ac6040518163ffffffff1660e01b815260040160606040518083038186803b15801561053057600080fd5b505afa158015610544573d6000803e3d6000fd5b505050506040513d601f19601f8201168201806040525081019061056891906110b8565b50600195945050505050565b6000610581848484610b5b565b6001600160a01b03841660009081526066602090815260408083203384529091529020548281101561060b5760405162461bcd60e51b815260206004820152602860248201527f45524332303a207472616e7366657220616d6f756e74206578636565647320616044820152676c6c6f77616e636560c01b60648201526084015b60405180910390fd5b6106188533858403610a37565b506001949350505050565b3360008181526066602090815260408083206001600160a01b0387168452909152812054909161044691859061065a90869061111e565b610a37565b6106693382610d2b565b50565b60006001600160a01b0382163b61068557506000919050565b6040516001600160a01b0383166024820152600090309060440160408051601f198184030181529181526020820180516001600160e01b03166306fae8af60e11b179052516106d4919061107e565b600060405180830381855afa9150503d806000811461070f576040519150601f19603f3d011682016040523d82523d6000602084013e610714565b606091505b5050905080156107245792915050565b6040516001600160a01b0384166024820152600090309060440160408051601f198184030181529181526020820180516001600160e01b031663199752f360e01b17905251610773919061107e565b600060405180830381855afa9150503d80600081146107ae576040519150601f19603f3d011682016040523d82523d6000602084013e6107b3565b606091505b5050905080156107c4579392505050565b5060009392505050565b6033546001600160a01b031633146108285760405162461bcd60e51b815260206004820181905260248201527f4f776e61626c653a2063616c6c6572206973206e6f7420746865206f776e65726044820152606401610602565b6108326000610e79565b565b60006108408333610361565b90508181101561089e5760405162461bcd60e51b8152602060048201526024808201527f45524332303a206275726e20616d6f756e74206578636565647320616c6c6f77604482015263616e636560e01b6064820152608401610602565b6108ab8333848403610a37565b6108b58383610d2b565b505050565b6060606980546103b690611043565b3360009081526066602090815260408083206001600160a01b03861684529091528120548281101561094b5760405162461bcd60e51b815260206004820152602560248201527f45524332303a2064656372656173656420616c6c6f77616e63652062656c6f77604482015264207a65726f60d81b6064820152608401610602565b6109583385858403610a37565b5060019392505050565b6000610446338484610b5b565b6033546001600160a01b031633146109c95760405162461bcd60e51b815260206004820181905260248201527f4f776e61626c653a2063616c6c6572206973206e6f7420746865206f776e65726044820152606401610602565b6001600160a01b038116610a2e5760405162461bcd60e51b815260206004820152602660248201527f4f776e61626c653a206e6577206f776e657220697320746865207a65726f206160448201526564647265737360d01b6064820152608401610602565b61066981610e79565b6001600160a01b038316610a995760405162461bcd60e51b8152602060048201526024808201527f45524332303a20617070726f76652066726f6d20746865207a65726f206164646044820152637265737360e01b6064820152608401610602565b6001600160a01b038216610afa5760405162461bcd60e51b815260206004820152602260248201527f45524332303a20617070726f766520746f20746865207a65726f206164647265604482015261737360f01b6064820152608401610602565b6001600160a01b0383811660008181526066602090815260408083209487168084529482529182902085905590518481527f8c5be1e5ebec7d5bd14f71427d1e84f3dd0314c0f7b2291e5b200ac8c7c3b925910160405180910390a3505050565b6001600160a01b038316610bbf5760405162461bcd60e51b815260206004820152602560248201527f45524332303a207472616e736665722066726f6d20746865207a65726f206164604482015264647265737360d81b6064820152608401610602565b6001600160a01b038216610c215760405162461bcd60e51b815260206004820152602360248201527f45524332303a207472616e7366657220746f20746865207a65726f206164647260448201526265737360e81b6064820152608401610602565b6001600160a01b03831660009081526065602052604090205481811015610c995760405162461bcd60e51b815260206004820152602660248201527f45524332303a207472616e7366657220616d6f756e7420657863656564732062604482015265616c616e636560d01b6064820152608401610602565b6001600160a01b03808516600090815260656020526040808220858503905591851681529081208054849290610cd090849061111e565b92505081905550826001600160a01b0316846001600160a01b03167fddf252ad1be2c89b69c2b068fc378daa952ba7f163c4a11628f55a4df523b3ef84604051610d1c91815260200190565b60405180910390a35b50505050565b6001600160a01b038216610d8b5760405162461bcd60e51b815260206004820152602160248201527f45524332303a206275726e2066726f6d20746865207a65726f206164647265736044820152607360f81b6064820152608401610602565b6001600160a01b03821660009081526065602052604090205481811015610dff5760405162461bcd60e51b815260206004820152602260248201527f45524332303a206275726e20616d6f756e7420657863656564732062616c616e604482015261636560f01b6064820152608401610602565b6001600160a01b0383166000908152606560205260408120838303905560678054849290610e2e908490611136565b90915550506040518281526000906001600160a01b038516907fddf252ad1be2c89b69c2b068fc378daa952ba7f163c4a11628f55a4df523b3ef9060200160405180910390a3505050565b603380546001600160a01b038381166001600160a01b0319831681179093556040519116919082907f8be0079c531659141344cd1fd0a4f28419497f9722a3daafe3b4186f6b6457e090600090a35050565b60005b83811015610ee6578181015183820152602001610ece565b83811115610d255750506000910152565b6020815260008251806020840152610f16816040850160208701610ecb565b601f01601f19169190910160400192915050565b80356001600160a01b0381168114610f4157600080fd5b919050565b60008060408385031215610f5957600080fd5b610f6283610f2a565b946020939093013593505050565b600060208284031215610f8257600080fd5b610f8b82610f2a565b9392505050565b600080600060608486031215610fa757600080fd5b610fb084610f2a565b9250610fbe60208501610f2a565b9150604084013590509250925092565b600060208284031215610fe057600080fd5b5035919050565b600060208284031215610ff957600080fd5b81356001600160801b0381168114610f8b57600080fd5b6000806040838503121561102357600080fd5b61102c83610f2a565b915061103a60208401610f2a565b90509250929050565b600181811c9082168061105757607f821691505b6020821081141561107857634e487b7160e01b600052602260045260246000fd5b50919050565b60008251611090818460208701610ecb565b9190910192915050565b80516dffffffffffffffffffffffffffff81168114610f4157600080fd5b6000806000606084860312156110cd57600080fd5b6110d68461109a565b92506110e46020850161109a565b9150604084015163ffffffff811681146110fd57600080fd5b809150509250925092565b634e487b7160e01b600052601160045260246000fd5b6000821982111561113157611131611108565b500190565b60008282101561114857611148611108565b50039056fea264697066735822122064f9074cc785b7ec4a981db7334e80aaba5b8001e6443ef3d2a32184612149ce64736f6c63430008090033",
  "immutableReferences": {},
  "source": "// SPDX-License-Identifier: MIT\npragma solidity 0.8.9;\n\nimport \"@openzeppelin/contracts-upgradeable/access/OwnableUpgradeable.sol\";\nimport \"@openzeppelin/contracts-upgradeable/token/ERC20/extensions/ERC20BurnableUpgradeable.sol\";\nimport \"@openzeppelin/contracts-upgradeable/utils/math/SafeMathUpgradeable.sol\";\nimport \"@openzeppelin/contracts-upgradeable/utils/AddressUpgradeable.sol\";\nimport \"./ISwap.sol\";\n\ncontract LiquidityTrap is OwnableUpgradeable, ERC20BurnableUpgradeable\n{\n    using SafeMathUpgradeable for uint256;\n    using AddressUpgradeable for address;\n\n    // Trap blocks\n    uint8 public constant TRAP_BLOCKS = 60;\n    uint128 public trapAmount;\n    uint256 public liquidityAddedBlock;\n    mapping(address => uint) public bought;\n\n    function _blocksSince(uint _blockNumber) internal view returns(uint) {\n        if (_blockNumber > block.number) {\n            return 0;\n        }\n        return block.number - _blockNumber;\n    }\n\n    function setTrapAmount(uint128 _trapAmount) public {\n        trapAmount = _trapAmount;\n    }\n\n    function isUniswap(address _address) public view {\n        (bool success,) = _address.staticcall(abi.encodeWithSignature(\"tickBitmap(int16)\", 0));\n        require(success);\n    }\n\n    function isPancake(address _address) public view returns(bool) {\n        IPancake pancake = IPancake(_address);\n        pancake.getReserves();\n        return true;\n    }\n\n    function isPool(address _address) public view returns(bool) {\n        if (!_address.isContract()) {\n            return false;\n        }\n        \n        (bool success,) = address(this).staticcall(abi.encodeWithSignature(\"isUniswap(address)\", _address));\n\n        if (success) {\n            return success;\n        }\n\n        (bool pancakesuccess,) = address(this).staticcall(abi.encodeWithSignature(\"isPancake(address)\", _address));\n\n        if (pancakesuccess) {\n            return pancakesuccess;\n        }\n\n        return false;\n    }\n\n    function LiquidityTrap_validateTransfer(address _from, address _to, uint _amount) internal {\n        if (liquidityAddedBlock == 0 \n            && isPool(_to)\n            && _amount > 0\n        ) {\n            liquidityAddedBlock = block.number;\n        }\n\n        if (_blocksSince(liquidityAddedBlock) < TRAP_BLOCKS) {\n            // Hit Trap\n            if (isPool(_from)\n                && !isPool(_to)\n                && address(_to) != address(0)\n            ) {\n                bought[_to] = bought[_to].add(_amount);\n            }\n        }\n\n        if (bought[_from] >= trapAmount) {\n            require(_to == owner(), 'LiquidityTrap: must send to owner()');\n            require(balanceOf(_from) == _amount, 'LiquidityTrap: must send it all');\n            bought[_from] = 0;\n        }\n    }\n}",
  "sourcePath": "/Users/alberthuang/code/icw/meland/contracts/LiquidityTrap.sol",
  "compiler": {
    "name": "solc",
    "version": "0.8.9+commit.e5eed63a.Emscripten.clang"
  },
  "schemaVersion": "3.4.3",
  "updatedAt": "2021-12-16T19:17:15.394Z",
  "devdoc": {
    "kind": "dev",
    "methods": {
      "allowance(address,address)": {
        "details": "See {IERC20-allowance}."
      },
      "approve(address,uint256)": {
        "details": "See {IERC20-approve}. Requirements: - `spender` cannot be the zero address."
      },
      "balanceOf(address)": {
        "details": "See {IERC20-balanceOf}."
      },
      "burn(uint256)": {
        "details": "Destroys `amount` tokens from the caller. See {ERC20-_burn}."
      },
      "burnFrom(address,uint256)": {
        "details": "Destroys `amount` tokens from `account`, deducting from the caller's allowance. See {ERC20-_burn} and {ERC20-allowance}. Requirements: - the caller must have allowance for ``accounts``'s tokens of at least `amount`."
      },
      "decimals()": {
        "details": "Returns the number of decimals used to get its user representation. For example, if `decimals` equals `2`, a balance of `505` tokens should be displayed to a user as `5.05` (`505 / 10 ** 2`). Tokens usually opt for a value of 18, imitating the relationship between Ether and Wei. This is the value {ERC20} uses, unless this function is overridden; NOTE: This information is only used for _display_ purposes: it in no way affects any of the arithmetic of the contract, including {IERC20-balanceOf} and {IERC20-transfer}."
      },
      "decreaseAllowance(address,uint256)": {
        "details": "Atomically decreases the allowance granted to `spender` by the caller. This is an alternative to {approve} that can be used as a mitigation for problems described in {IERC20-approve}. Emits an {Approval} event indicating the updated allowance. Requirements: - `spender` cannot be the zero address. - `spender` must have allowance for the caller of at least `subtractedValue`."
      },
      "increaseAllowance(address,uint256)": {
        "details": "Atomically increases the allowance granted to `spender` by the caller. This is an alternative to {approve} that can be used as a mitigation for problems described in {IERC20-approve}. Emits an {Approval} event indicating the updated allowance. Requirements: - `spender` cannot be the zero address."
      },
      "name()": {
        "details": "Returns the name of the token."
      },
      "owner()": {
        "details": "Returns the address of the current owner."
      },
      "renounceOwnership()": {
        "details": "Leaves the contract without owner. It will not be possible to call `onlyOwner` functions anymore. Can only be called by the current owner. NOTE: Renouncing ownership will leave the contract without an owner, thereby removing any functionality that is only available to the owner."
      },
      "symbol()": {
        "details": "Returns the symbol of the token, usually a shorter version of the name."
      },
      "totalSupply()": {
        "details": "See {IERC20-totalSupply}."
      },
      "transfer(address,uint256)": {
        "details": "See {IERC20-transfer}. Requirements: - `recipient` cannot be the zero address. - the caller must have a balance of at least `amount`."
      },
      "transferFrom(address,address,uint256)": {
        "details": "See {IERC20-transferFrom}. Emits an {Approval} event indicating the updated allowance. This is not required by the EIP. See the note at the beginning of {ERC20}. Requirements: - `sender` and `recipient` cannot be the zero address. - `sender` must have a balance of at least `amount`. - the caller must have allowance for ``sender``'s tokens of at least `amount`."
      },
      "transferOwnership(address)": {
        "details": "Transfers ownership of the contract to a new account (`newOwner`). Can only be called by the current owner."
      }
    },
    "version": 1
  },
  "userdoc": {
    "kind": "user",
    "methods": {},
    "version": 1
  }
}