{
  "contractName": "Marketplace",
  "abi": [
    {
      "anonymous": false,
      "inputs": [
        {
          "indexed": false,
          "internalType": "address",
          "name": "previousAdmin",
          "type": "address"
        },
        {
          "indexed": false,
          "internalType": "address",
          "name": "newAdmin",
          "type": "address"
        }
      ],
      "name": "AdminChanged",
      "type": "event"
    },
    {
      "anonymous": false,
      "inputs": [
        {
          "indexed": true,
          "internalType": "address",
          "name": "beacon",
          "type": "address"
        }
      ],
      "name": "BeaconUpgraded",
      "type": "event"
    },
    {
      "anonymous": false,
      "inputs": [
        {
          "indexed": false,
          "internalType": "uint256",
          "name": "ownerCutPerMillion",
          "type": "uint256"
        }
      ],
      "name": "ChangedOwnerCutPerMillion",
      "type": "event"
    },
    {
      "anonymous": false,
      "inputs": [
        {
          "indexed": false,
          "internalType": "uint256",
          "name": "publicationFee",
          "type": "uint256"
        }
      ],
      "name": "ChangedPublicationFee",
      "type": "event"
    },
    {
      "anonymous": false,
      "inputs": [
        {
          "indexed": false,
          "internalType": "bytes32",
          "name": "id",
          "type": "bytes32"
        },
        {
          "indexed": true,
          "internalType": "uint256",
          "name": "assetId",
          "type": "uint256"
        },
        {
          "indexed": true,
          "internalType": "address",
          "name": "seller",
          "type": "address"
        },
        {
          "components": [
            {
              "internalType": "contract IERC1155",
              "name": "erc1155",
              "type": "address"
            },
            {
              "internalType": "contract IERC721",
              "name": "erc721",
              "type": "address"
            }
          ],
          "indexed": false,
          "internalType": "struct MarketplaceStorage.ERC721Or1155",
          "name": "nft",
          "type": "tuple"
        }
      ],
      "name": "OrderCancelled",
      "type": "event"
    },
    {
      "anonymous": false,
      "inputs": [
        {
          "indexed": false,
          "internalType": "bytes32",
          "name": "id",
          "type": "bytes32"
        },
        {
          "indexed": true,
          "internalType": "uint256",
          "name": "assetId",
          "type": "uint256"
        },
        {
          "indexed": true,
          "internalType": "address",
          "name": "seller",
          "type": "address"
        },
        {
          "components": [
            {
              "internalType": "contract IERC1155",
              "name": "erc1155",
              "type": "address"
            },
            {
              "internalType": "contract IERC721",
              "name": "erc721",
              "type": "address"
            }
          ],
          "indexed": false,
          "internalType": "struct MarketplaceStorage.ERC721Or1155",
          "name": "nft",
          "type": "tuple"
        },
        {
          "indexed": false,
          "internalType": "uint256",
          "name": "priceInWei",
          "type": "uint256"
        },
        {
          "indexed": false,
          "internalType": "uint256",
          "name": "expiresAt",
          "type": "uint256"
        }
      ],
      "name": "OrderCreated",
      "type": "event"
    },
    {
      "anonymous": false,
      "inputs": [
        {
          "indexed": false,
          "internalType": "bytes32",
          "name": "id",
          "type": "bytes32"
        },
        {
          "indexed": true,
          "internalType": "uint256",
          "name": "assetId",
          "type": "uint256"
        },
        {
          "indexed": true,
          "internalType": "address",
          "name": "seller",
          "type": "address"
        },
        {
          "components": [
            {
              "internalType": "contract IERC1155",
              "name": "erc1155",
              "type": "address"
            },
            {
              "internalType": "contract IERC721",
              "name": "erc721",
              "type": "address"
            }
          ],
          "indexed": false,
          "internalType": "struct MarketplaceStorage.ERC721Or1155",
          "name": "nft",
          "type": "tuple"
        },
        {
          "indexed": false,
          "internalType": "uint256",
          "name": "totalPrice",
          "type": "uint256"
        },
        {
          "indexed": true,
          "internalType": "address",
          "name": "buyer",
          "type": "address"
        }
      ],
      "name": "OrderSuccessful",
      "type": "event"
    },
    {
      "anonymous": false,
      "inputs": [
        {
          "indexed": false,
          "internalType": "bytes32",
          "name": "id",
          "type": "bytes32"
        },
        {
          "indexed": false,
          "internalType": "uint256",
          "name": "priceInWei",
          "type": "uint256"
        },
        {
          "indexed": false,
          "internalType": "uint256",
          "name": "expiresAt",
          "type": "uint256"
        }
      ],
      "name": "OrderUpdated",
      "type": "event"
    },
    {
      "anonymous": false,
      "inputs": [
        {
          "indexed": false,
          "internalType": "address",
          "name": "account",
          "type": "address"
        }
      ],
      "name": "Paused",
      "type": "event"
    },
    {
      "anonymous": false,
      "inputs": [
        {
          "indexed": true,
          "internalType": "bytes32",
          "name": "role",
          "type": "bytes32"
        },
        {
          "indexed": true,
          "internalType": "bytes32",
          "name": "previousAdminRole",
          "type": "bytes32"
        },
        {
          "indexed": true,
          "internalType": "bytes32",
          "name": "newAdminRole",
          "type": "bytes32"
        }
      ],
      "name": "RoleAdminChanged",
      "type": "event"
    },
    {
      "anonymous": false,
      "inputs": [
        {
          "indexed": true,
          "internalType": "bytes32",
          "name": "role",
          "type": "bytes32"
        },
        {
          "indexed": true,
          "internalType": "address",
          "name": "account",
          "type": "address"
        },
        {
          "indexed": true,
          "internalType": "address",
          "name": "sender",
          "type": "address"
        }
      ],
      "name": "RoleGranted",
      "type": "event"
    },
    {
      "anonymous": false,
      "inputs": [
        {
          "indexed": true,
          "internalType": "bytes32",
          "name": "role",
          "type": "bytes32"
        },
        {
          "indexed": true,
          "internalType": "address",
          "name": "account",
          "type": "address"
        },
        {
          "indexed": true,
          "internalType": "address",
          "name": "sender",
          "type": "address"
        }
      ],
      "name": "RoleRevoked",
      "type": "event"
    },
    {
      "anonymous": false,
      "inputs": [
        {
          "indexed": false,
          "internalType": "address",
          "name": "account",
          "type": "address"
        }
      ],
      "name": "Unpaused",
      "type": "event"
    },
    {
      "anonymous": false,
      "inputs": [
        {
          "indexed": true,
          "internalType": "address",
          "name": "implementation",
          "type": "address"
        }
      ],
      "name": "Upgraded",
      "type": "event"
    },
    {
      "inputs": [],
      "name": "DEFAULT_ADMIN_ROLE",
      "outputs": [
        {
          "internalType": "bytes32",
          "name": "",
          "type": "bytes32"
        }
      ],
      "stateMutability": "view",
      "type": "function",
      "constant": true
    },
    {
      "inputs": [],
      "name": "GM_ROLE",
      "outputs": [
        {
          "internalType": "bytes32",
          "name": "",
          "type": "bytes32"
        }
      ],
      "stateMutability": "view",
      "type": "function",
      "constant": true
    },
    {
      "inputs": [],
      "name": "UPGRADER_ROLE",
      "outputs": [
        {
          "internalType": "bytes32",
          "name": "",
          "type": "bytes32"
        }
      ],
      "stateMutability": "view",
      "type": "function",
      "constant": true
    },
    {
      "inputs": [],
      "name": "acceptedToken",
      "outputs": [
        {
          "internalType": "contract IERC20MELD",
          "name": "",
          "type": "address"
        }
      ],
      "stateMutability": "view",
      "type": "function",
      "constant": true
    },
    {
      "inputs": [],
      "name": "foundationWallet",
      "outputs": [
        {
          "internalType": "address",
          "name": "",
          "type": "address"
        }
      ],
      "stateMutability": "view",
      "type": "function",
      "constant": true
    },
    {
      "inputs": [
        {
          "internalType": "bytes32",
          "name": "role",
          "type": "bytes32"
        }
      ],
      "name": "getRoleAdmin",
      "outputs": [
        {
          "internalType": "bytes32",
          "name": "",
          "type": "bytes32"
        }
      ],
      "stateMutability": "view",
      "type": "function",
      "constant": true
    },
    {
      "inputs": [
        {
          "internalType": "bytes32",
          "name": "role",
          "type": "bytes32"
        },
        {
          "internalType": "address",
          "name": "account",
          "type": "address"
        }
      ],
      "name": "grantRole",
      "outputs": [],
      "stateMutability": "nonpayable",
      "type": "function"
    },
    {
      "inputs": [
        {
          "internalType": "bytes32",
          "name": "role",
          "type": "bytes32"
        },
        {
          "internalType": "address",
          "name": "account",
          "type": "address"
        }
      ],
      "name": "hasRole",
      "outputs": [
        {
          "internalType": "bool",
          "name": "",
          "type": "bool"
        }
      ],
      "stateMutability": "view",
      "type": "function",
      "constant": true
    },
    {
      "inputs": [],
      "name": "officialWallet",
      "outputs": [
        {
          "internalType": "address",
          "name": "",
          "type": "address"
        }
      ],
      "stateMutability": "view",
      "type": "function",
      "constant": true
    },
    {
      "inputs": [
        {
          "internalType": "address",
          "name": "",
          "type": "address"
        },
        {
          "internalType": "uint256",
          "name": "",
          "type": "uint256"
        }
      ],
      "name": "orderByAssetId",
      "outputs": [
        {
          "internalType": "bytes32",
          "name": "id",
          "type": "bytes32"
        },
        {
          "internalType": "address",
          "name": "seller",
          "type": "address"
        },
        {
          "internalType": "uint256",
          "name": "assetId",
          "type": "uint256"
        },
        {
          "components": [
            {
              "internalType": "contract IERC1155",
              "name": "erc1155",
              "type": "address"
            },
            {
              "internalType": "contract IERC721",
              "name": "erc721",
              "type": "address"
            }
          ],
          "internalType": "struct MarketplaceStorage.ERC721Or1155",
          "name": "nft",
          "type": "tuple"
        },
        {
          "internalType": "uint256",
          "name": "price",
          "type": "uint256"
        },
        {
          "internalType": "uint256",
          "name": "expiresAt",
          "type": "uint256"
        }
      ],
      "stateMutability": "view",
      "type": "function",
      "constant": true
    },
    {
      "inputs": [],
      "name": "ownerCutPerMillion",
      "outputs": [
        {
          "internalType": "uint256",
          "name": "",
          "type": "uint256"
        }
      ],
      "stateMutability": "view",
      "type": "function",
      "constant": true
    },
    {
      "inputs": [],
      "name": "paused",
      "outputs": [
        {
          "internalType": "bool",
          "name": "",
          "type": "bool"
        }
      ],
      "stateMutability": "view",
      "type": "function",
      "constant": true
    },
    {
      "inputs": [],
      "name": "publicationFeeInWei",
      "outputs": [
        {
          "internalType": "uint256",
          "name": "",
          "type": "uint256"
        }
      ],
      "stateMutability": "view",
      "type": "function",
      "constant": true
    },
    {
      "inputs": [
        {
          "internalType": "bytes32",
          "name": "role",
          "type": "bytes32"
        },
        {
          "internalType": "address",
          "name": "account",
          "type": "address"
        }
      ],
      "name": "renounceRole",
      "outputs": [],
      "stateMutability": "nonpayable",
      "type": "function"
    },
    {
      "inputs": [
        {
          "internalType": "bytes32",
          "name": "role",
          "type": "bytes32"
        },
        {
          "internalType": "address",
          "name": "account",
          "type": "address"
        }
      ],
      "name": "revokeRole",
      "outputs": [],
      "stateMutability": "nonpayable",
      "type": "function"
    },
    {
      "inputs": [
        {
          "internalType": "bytes4",
          "name": "interfaceId",
          "type": "bytes4"
        }
      ],
      "name": "supportsInterface",
      "outputs": [
        {
          "internalType": "bool",
          "name": "",
          "type": "bool"
        }
      ],
      "stateMutability": "view",
      "type": "function",
      "constant": true
    },
    {
      "inputs": [
        {
          "internalType": "address",
          "name": "newImplementation",
          "type": "address"
        }
      ],
      "name": "upgradeTo",
      "outputs": [],
      "stateMutability": "nonpayable",
      "type": "function"
    },
    {
      "inputs": [
        {
          "internalType": "address",
          "name": "newImplementation",
          "type": "address"
        },
        {
          "internalType": "bytes",
          "name": "data",
          "type": "bytes"
        }
      ],
      "name": "upgradeToAndCall",
      "outputs": [],
      "stateMutability": "payable",
      "type": "function",
      "payable": true
    },
    {
      "inputs": [
        {
          "internalType": "contract IERC20MELD",
          "name": "_acceptedToken",
          "type": "address"
        },
        {
          "internalType": "address",
          "name": "_officialWallet",
          "type": "address"
        },
        {
          "internalType": "address",
          "name": "_foundationWallet",
          "type": "address"
        },
        {
          "internalType": "uint256",
          "name": "_ownerCutPerMillion",
          "type": "uint256"
        }
      ],
      "name": "initialize",
      "outputs": [],
      "stateMutability": "nonpayable",
      "type": "function"
    },
    {
      "inputs": [
        {
          "internalType": "uint256",
          "name": "_publicationFee",
          "type": "uint256"
        }
      ],
      "name": "setPublicationFee",
      "outputs": [],
      "stateMutability": "nonpayable",
      "type": "function"
    },
    {
      "inputs": [
        {
          "internalType": "uint256",
          "name": "_ownerCutPerMillion",
          "type": "uint256"
        }
      ],
      "name": "setOwnerCutPerMillion",
      "outputs": [],
      "stateMutability": "nonpayable",
      "type": "function"
    },
    {
      "inputs": [
        {
          "internalType": "contract IERC721",
          "name": "nftAddress",
          "type": "address"
        },
        {
          "internalType": "uint256",
          "name": "assetId",
          "type": "uint256"
        },
        {
          "internalType": "uint256",
          "name": "priceInWei",
          "type": "uint256"
        },
        {
          "internalType": "uint256",
          "name": "expiresAt",
          "type": "uint256"
        }
      ],
      "name": "createOrderWith721",
      "outputs": [],
      "stateMutability": "nonpayable",
      "type": "function"
    },
    {
      "inputs": [
        {
          "internalType": "contract IERC1155",
          "name": "nftAddress",
          "type": "address"
        },
        {
          "internalType": "uint256",
          "name": "assetId",
          "type": "uint256"
        },
        {
          "internalType": "uint256",
          "name": "priceInWei",
          "type": "uint256"
        },
        {
          "internalType": "uint256",
          "name": "expiresAt",
          "type": "uint256"
        }
      ],
      "name": "createOrderWith1155",
      "outputs": [],
      "stateMutability": "nonpayable",
      "type": "function"
    },
    {
      "inputs": [
        {
          "internalType": "address",
          "name": "nftAddress",
          "type": "address"
        },
        {
          "internalType": "uint256",
          "name": "assetId",
          "type": "uint256"
        }
      ],
      "name": "cancelOrder",
      "outputs": [],
      "stateMutability": "nonpayable",
      "type": "function"
    },
    {
      "inputs": [
        {
          "internalType": "address",
          "name": "nftAddress",
          "type": "address"
        },
        {
          "internalType": "uint256",
          "name": "assetId",
          "type": "uint256"
        },
        {
          "internalType": "uint256",
          "name": "price",
          "type": "uint256"
        }
      ],
      "name": "safeExecuteOrder",
      "outputs": [],
      "stateMutability": "nonpayable",
      "type": "function"
    },
    {
      "inputs": [
        {
          "internalType": "address",
          "name": "nftAddress",
          "type": "address"
        },
        {
          "internalType": "uint256",
          "name": "assetId",
          "type": "uint256"
        },
        {
          "internalType": "uint256",
          "name": "price",
          "type": "uint256"
        }
      ],
      "name": "executeOrder",
      "outputs": [],
      "stateMutability": "nonpayable",
      "type": "function"
    },
    {
      "inputs": [
        {
          "internalType": "address",
          "name": "nft",
          "type": "address"
        },
        {
          "internalType": "uint256",
          "name": "assetId",
          "type": "uint256"
        },
        {
          "internalType": "uint256",
          "name": "priceInWei",
          "type": "uint256"
        },
        {
          "internalType": "uint256",
          "name": "expiresAt",
          "type": "uint256"
        }
      ],
      "name": "updateOrder",
      "outputs": [],
      "stateMutability": "nonpayable",
      "type": "function"
    }
  ],
  "bytecode": "0x60a06040523060805234801561001457600080fd5b5060805161320661004560003960008181610738015281816107780152818161086401526108a401526132066000f3fe60806040526004361061019c5760003560e01c80636a206137116100ec578063af8996f11161008a578063cf7ce01f11610064578063cf7ce01f14610481578063d547741f146104a1578063e61f3851146104c1578063f72c0d8b1461055557600080fd5b8063af8996f114610421578063cbd4c82014610441578063cf756fdf1461046157600080fd5b8063a01f79d4116100c6578063a01f79d4146103de578063a217fddf146103f5578063ae4f11981461040a578063ae7b0333146102f157600080fd5b80636a2061371461037d5780636b7ae8dc1461039d57806391d14854146103be57600080fd5b806336568abe116101595780633e182870116101335780633e18287014610311578063451c3d80146103315780634f1ef286146103525780635c975abb1461036557600080fd5b806336568abe146102b15780633659cfe6146102d157806338940b5b146102f157600080fd5b806301ffc9a7146101a1578063088025d3146101d657806319dad16d1461020f578063248a9ca3146102315780632f2ff15d1461026f57806330c7be2c1461028f575b600080fd5b3480156101ad57600080fd5b506101c16101bc366004612915565b610589565b60405190151581526020015b60405180910390f35b3480156101e257600080fd5b5061012f546101f7906001600160a01b031681565b6040516001600160a01b0390911681526020016101cd565b34801561021b57600080fd5b5061022f61022a36600461293f565b6105c0565b005b34801561023d57600080fd5b5061026161024c36600461293f565b60009081526065602052604090206001015490565b6040519081526020016101cd565b34801561027b57600080fd5b5061022f61028a36600461296d565b610684565b34801561029b57600080fd5b506102616000805160206131b183398151915281565b3480156102bd57600080fd5b5061022f6102cc36600461296d565b6106af565b3480156102dd57600080fd5b5061022f6102ec36600461299d565b61072d565b3480156102fd57600080fd5b5061022f61030c3660046129ba565b6107f6565b34801561031d57600080fd5b5061022f61032c3660046129ef565b61082a565b34801561033d57600080fd5b5061012d546101f7906001600160a01b031681565b61022f610360366004612a40565b610859565b34801561037157600080fd5b5060975460ff166101c1565b34801561038957600080fd5b5061022f610398366004612b04565b61090f565b3480156103a957600080fd5b5061012e546101f7906001600160a01b031681565b3480156103ca57600080fd5b506101c16103d936600461296d565b61093c565b3480156103ea57600080fd5b506102616101315481565b34801561040157600080fd5b50610261600081565b34801561041657600080fd5b506102616101325481565b34801561042d57600080fd5b5061022f61043c36600461293f565b610967565b34801561044d57600080fd5b5061022f61045c3660046129ef565b6109b6565b34801561046d57600080fd5b5061022f61047c366004612b30565b6109e5565b34801561048d57600080fd5b5061022f61049c3660046129ef565b610b52565b3480156104ad57600080fd5b5061022f6104bc36600461296d565b610b81565b3480156104cd57600080fd5b506105436104dc366004612b04565b610130602090815260009283526040808420825291835291819020805460018201546002830154845180860190955260038401546001600160a01b039081168652600485015481169686019690965260058401546006909401549295909116939092909186565b6040516101cd96959493929190612b81565b34801561056157600080fd5b506102617f189ab7a9244df0848122154315af71fe140f3db0fe014031783b0946b8c9d2e381565b60006001600160e01b03198216637965db0b60e01b14806105ba57506301ffc9a760e01b6001600160e01b03198316145b92915050565b6000805160206131b18339815191526105d98133610ba7565b620f424082106106465760405162461bcd60e51b815260206004820152602d60248201527f546865206f776e6572206375742073686f756c64206265206265747765656e2060448201526c3020616e64203939392c39393960981b60648201526084015b60405180910390fd5b6101318290556040518281527ffa406a120a9e7f2b332bfb7a43d3bf1c3f079262202907a6b69c94b2821a02c6906020015b60405180910390a15050565b6000828152606560205260409020600101546106a08133610ba7565b6106aa8383610c0b565b505050565b6001600160a01b038116331461071f5760405162461bcd60e51b815260206004820152602f60248201527f416363657373436f6e74726f6c3a2063616e206f6e6c792072656e6f756e636560448201526e103937b632b9903337b91039b2b63360891b606482015260840161063d565b6107298282610c91565b5050565b306001600160a01b037f00000000000000000000000000000000000000000000000000000000000000001614156107765760405162461bcd60e51b815260040161063d90612bd5565b7f00000000000000000000000000000000000000000000000000000000000000006001600160a01b03166107a8610cf8565b6001600160a01b0316146107ce5760405162461bcd60e51b815260040161063d90612c21565b6107d781610d26565b604080516000808252602082019092526107f391839190610d51565b50565b60975460ff16156108195760405162461bcd60e51b815260040161063d90612c6d565b610824838383610e95565b50505050565b60975460ff161561084d5760405162461bcd60e51b815260040161063d90612c6d565b610824848484846117b8565b306001600160a01b037f00000000000000000000000000000000000000000000000000000000000000001614156108a25760405162461bcd60e51b815260040161063d90612bd5565b7f00000000000000000000000000000000000000000000000000000000000000006001600160a01b03166108d4610cf8565b6001600160a01b0316146108fa5760405162461bcd60e51b815260040161063d90612c21565b61090382610d26565b61072982826001610d51565b60975460ff16156109325760405162461bcd60e51b815260040161063d90612c6d565b6106aa8282611c73565b60009182526065602090815260408084206001600160a01b0393909316845291905290205460ff1690565b6000805160206131b18339815191526109808133610ba7565b6101328290556040518281527fe7fa8737293f41b5dfa0d5c3e552860a06275bed7015581b083c7be7003308ba90602001610678565b60975460ff16156109d95760405162461bcd60e51b815260040161063d90612c6d565b61082484848484611e73565b600054610100900460ff16610a005760005460ff1615610a04565b303b155b610a675760405162461bcd60e51b815260206004820152602e60248201527f496e697469616c697a61626c653a20636f6e747261637420697320616c72656160448201526d191e481a5b9a5d1a585b1a5e995960921b606482015260840161063d565b600054610100900460ff16158015610a89576000805461ffff19166101011790555b610a91612290565b610a996122c9565b610aa46000336122f8565b610ace7f189ab7a9244df0848122154315af71fe140f3db0fe014031783b0946b8c9d2e3336122f8565b610ae66000805160206131b1833981519152336122f8565b610aef826105c0565b610af96000610967565b61012d80546001600160a01b038088166001600160a01b03199283161790925561012f805487841690831617905561012e8054928616929091169190911790558015610b4b576000805461ff00191690555b5050505050565b60975460ff1615610b755760405162461bcd60e51b815260040161063d90612c6d565b61082484848484612302565b600082815260656020526040902060010154610b9d8133610ba7565b6106aa8383610c91565b610bb1828261093c565b61072957610bc9816001600160a01b031660146124d4565b610bd48360206124d4565b604051602001610be5929190612cc3565b60408051601f198184030181529082905262461bcd60e51b825261063d91600401612d38565b610c15828261093c565b6107295760008281526065602090815260408083206001600160a01b03851684529091529020805460ff19166001179055610c4d3390565b6001600160a01b0316816001600160a01b0316837f2f8788117e7eff1d82e926ec794901d17c78024a50270940304540a733656f0d60405160405180910390a45050565b610c9b828261093c565b156107295760008281526065602090815260408083206001600160a01b0385168085529252808320805460ff1916905551339285917ff6391f5c32d9c69d2a47ea670b442974b53935d1edc7fd64eb21e047a839171b9190a45050565b7f360894a13ba1a3210667c828492db98dca3e2076cc3735a920a3ca505d382bbc546001600160a01b031690565b7f189ab7a9244df0848122154315af71fe140f3db0fe014031783b0946b8c9d2e36107298133610ba7565b6000610d5b610cf8565b9050610d6684612670565b600083511180610d735750815b15610d8457610d828484612715565b505b7f4910fdfa16fed3260ed0e7147f7cc6da11a60208b5b9406d12a635614ffd9143805460ff16610b4b57805460ff191660011781556040516001600160a01b0383166024820152610e0390869060440160408051601f198184030181529190526020810180516001600160e01b0316631b2ce7f360e11b179052612715565b50805460ff19168155610e14610cf8565b6001600160a01b0316826001600160a01b031614610e8c5760405162461bcd60e51b815260206004820152602f60248201527f45524331393637557067726164653a207570677261646520627265616b73206660448201526e75727468657220757067726164657360881b606482015260840161063d565b610b4b85612800565b610e9d6128d0565b6001600160a01b03848116600090815261013060209081526040808320878452825291829020825160c08101845281548152600182015485168184015260028201548185015283518085019094526003820154851684526004820154909416918301919091526060830191909152600581015460808301526006015460a08201528051339190610f655760405162461bcd60e51b8152602060048201526013602482015272105cdcd95d081b9bdd081c1d589b1a5cda1959606a1b604482015260640161063d565b60208101516001600160a01b038116610fb25760405162461bcd60e51b815260206004820152600f60248201526e496e76616c6964206164647265737360881b604482015260640161063d565b826001600160a01b0316816001600160a01b031614156110085760405162461bcd60e51b81526020600482015260116024820152702ab730baba3437b934bd32b2103ab9b2b960791b604482015260640161063d565b8482608001511461105b5760405162461bcd60e51b815260206004820152601860248201527f546865207072696365206973206e6f7420636f72726563740000000000000000604482015260640161063d565b8160a0015142106110a25760405162461bcd60e51b8152602060048201526011602482015270151a19481bdc99195c88195e1c1a5c9959607a1b604482015260640161063d565b606082015180516001600160a01b03161561115b578051604051627eeac760e11b81526001600160a01b038481166004830152602482018a9052600092169062fdd58e9060440160206040518083038186803b15801561110157600080fd5b505afa158015611115573d6000803e3d6000fd5b505050506040513d601f19601f820116820180604052508101906111399190612d6b565b116111565760405162461bcd60e51b815260040161063d90612d84565b611209565b60208101516040516331a9108f60e11b8152600481018990526001600160a01b0390911690636352211e9060240160206040518083038186803b1580156111a157600080fd5b505afa1580156111b5573d6000803e3d6000fd5b505050506040513d601f19601f820116820180604052508101906111d99190612dc5565b6001600160a01b0316826001600160a01b0316146112095760405162461bcd60e51b815260040161063d90612d84565b82516001600160a01b0389166000908152610130602090815260408083208b845290915281208181556001810180546001600160a01b0319908116909155600282018390556003820180548216905560048201805490911690556005810182905560060181905561013154909190156115675761129f620f4240611299610131548b61284090919063ffffffff16565b9061284c565b915060006112b36064611299856028612840565b905060006112c76064611299866028612840565b905060006112db6064611299876014612840565b61012d546040516323b872dd60e01b81529192506001600160a01b0316906323b872dd90611325908c907301b375aa81ec7595ff61094a022d09ec17da4aba908890600401612de2565b602060405180830381600087803b15801561133f57600080fd5b505af1158015611353573d6000803e3d6000fd5b505050506040513d601f19601f820116820180604052508101906113779190612e06565b5061012d5461012e546040516323b872dd60e01b81526001600160a01b03928316926323b872dd926113b3928e92909116908790600401612de2565b602060405180830381600087803b1580156113cd57600080fd5b505af11580156113e1573d6000803e3d6000fd5b505050506040513d601f19601f820116820180604052508101906114059190612e06565b61146b5760405162461bcd60e51b815260206004820152603160248201527f48616e646c696e6720666565207472616e7366657220746f20666f756e646174604482015270696f6e57616c6c6574206661696c75726560781b606482015260840161063d565b61012d5461012f546040516323b872dd60e01b81526001600160a01b03928316926323b872dd926114a6928e92909116908690600401612de2565b602060405180830381600087803b1580156114c057600080fd5b505af11580156114d4573d6000803e3d6000fd5b505050506040513d601f19601f820116820180604052508101906114f89190612e06565b6115635760405162461bcd60e51b815260206004820152603660248201527f48616e646c696e6720666565207472616e7366657220746f206f6666696369616044820152756c57616c6c657420746f206f6666206661696c75726560501b606482015260840161063d565b5050505b61012d546001600160a01b03166323b872dd87866115858c87612858565b6040518463ffffffff1660e01b81526004016115a393929190612de2565b602060405180830381600087803b1580156115bd57600080fd5b505af11580156115d1573d6000803e3d6000fd5b505050506040513d601f19601f820116820180604052508101906115f59190612e06565b61165a5760405162461bcd60e51b815260206004820152603060248201527f5472616e73666572696e67207468652073616c6520616d6f756e7420746f207460448201526f1a19481cd95b1b195c8819985a5b195960821b606482015260840161063d565b82516001600160a01b0316156116f1578251604051637921219560e11b81526001600160a01b0386811660048301528881166024830152604482018c90526001606483015260a06084830152600060a48301529091169063f242432a9060c401600060405180830381600087803b1580156116d457600080fd5b505af11580156116e8573d6000803e3d6000fd5b50505050611758565b82602001516001600160a01b03166342842e0e85888c6040518463ffffffff1660e01b815260040161172593929190612de2565b600060405180830381600087803b15801561173f57600080fd5b505af1158015611753573d6000803e3d6000fd5b505050505b856001600160a01b0316846001600160a01b03168a7fcced03cc00af2e548846639358c3b8ced78722c3bafd6651b1dae17b3e270f1f84878d6040516117a093929190612e28565b60405180910390a450929450505050505b9392505050565b6000336040516331a9108f60e11b81526004810186905290915085906000906001600160a01b03831690636352211e9060240160206040518083038186803b15801561180357600080fd5b505afa158015611817573d6000803e3d6000fd5b505050506040513d601f19601f8201168201806040525081019061183b9190612dc5565b9050806001600160a01b0316836001600160a01b03161461186e5760405162461bcd60e51b815260040161063d90612e60565b60405163020604bf60e21b81526004810187905230906001600160a01b0384169063081812fc9060240160206040518083038186803b1580156118b057600080fd5b505afa1580156118c4573d6000803e3d6000fd5b505050506040513d601f19601f820116820180604052508101906118e89190612dc5565b6001600160a01b03161480611977575060405163e985e9c560e01b81526001600160a01b03828116600483015230602483015283169063e985e9c59060440160206040518083038186803b15801561193f57600080fd5b505afa158015611953573d6000803e3d6000fd5b505050506040513d601f19601f820116820180604052508101906119779190612e06565b6119935760405162461bcd60e51b815260040161063d90612e95565b600085116119b35760405162461bcd60e51b815260040161063d90612ee7565b6119be42603c612864565b84116119dc5760405162461bcd60e51b815260040161063d90612f1e565b60004282888a896040516020016119f7959493929190612f74565b60408051601f19818403018152828252805160209182012083830190925260008084529083015291508881602001906001600160a01b031690816001600160a01b0316815250506040518060c00160405280838152602001846001600160a01b031681526020018981526020018281526020018881526020018781525061013060008b6001600160a01b03166001600160a01b0316815260200190815260200160002060008a81526020019081526020016000206000820151816000015560208201518160010160006101000a8154816001600160a01b0302191690836001600160a01b031602179055506040820151816002015560608201518160030160008201518160000160006101000a8154816001600160a01b0302191690836001600160a01b0316021790555060208201518160010160006101000a8154816001600160a01b0302191690836001600160a01b0316021790555050506080820151816005015560a082015181600601559050506000610132541115611c205761012d5461012f54610132546040516323b872dd60e01b81526001600160a01b03938416936323b872dd93611bb2938b939290911691600401612de2565b602060405180830381600087803b158015611bcc57600080fd5b505af1158015611be0573d6000803e3d6000fd5b505050506040513d601f19601f82011682018060405250810190611c049190612e06565b611c205760405162461bcd60e51b815260040161063d90612fac565b826001600160a01b0316887fc02879ff68a9ea26ab66f5455e3487b47cfaa7b608d218cdace29c6103f02d2b84848b8b604051611c609493929190613009565b60405180910390a3505050505050505050565b611c7b6128d0565b6001600160a01b03838116600090815261013060209081526040808320868452825291829020825160c08101845281548152600182015485168184015260028201548185015283518085019094526003820154851684526004820154909416918301919091526060830191909152600581015460808301526006015460a08201528051339190611d435760405162461bcd60e51b8152602060048201526013602482015272105cdcd95d081b9bdd081c1d589b1a5cda1959606a1b604482015260640161063d565b816001600160a01b031681602001516001600160a01b03161480611d7a5750611d7a6000805160206131b18339815191528361093c565b611dba5760405162461bcd60e51b81526020600482015260116024820152702ab730baba3437b934bd32b2103ab9b2b960791b604482015260640161063d565b80516020808301516001600160a01b038089166000908152610130845260408082208a83529094528381208181556001810180546001600160a01b03199081169091556002820183905560038201805482169055600482018054909116905560058101829055600601556060850151925191929083169188917f772a07cbada33874c948fc5c0ec227d4e3cac17fb31aaef9f260493cc007727391611e60918791613045565b60405180910390a3509095945050505050565b600033604051627eeac760e11b81526001600160a01b0380831660048301526024820187905291925060009187169062fdd58e9060440160206040518083038186803b158015611ec257600080fd5b505afa158015611ed6573d6000803e3d6000fd5b505050506040513d601f19601f82011682018060405250810190611efa9190612d6b565b11611f175760405162461bcd60e51b815260040161063d90612e60565b60405163e985e9c560e01b81526001600160a01b03828116600483015230602483015286169063e985e9c59060440160206040518083038186803b158015611f5e57600080fd5b505afa158015611f72573d6000803e3d6000fd5b505050506040513d601f19601f82011682018060405250810190611f969190612e06565b611fb25760405162461bcd60e51b815260040161063d90612e95565b60008311611fd25760405162461bcd60e51b815260040161063d90612ee7565b611fdd42603c612864565b8211611ffb5760405162461bcd60e51b815260040161063d90612f1e565b60004282868887604051602001612016959493929190612f74565b60408051601f19818403018152828252805160209182012083830190925260008084529083015291508681600001906001600160a01b031690816001600160a01b0316815250506040518060c00160405280838152602001846001600160a01b03168152602001878152602001828152602001868152602001858152506101306000896001600160a01b03166001600160a01b0316815260200190815260200160002060008881526020019081526020016000206000820151816000015560208201518160010160006101000a8154816001600160a01b0302191690836001600160a01b031602179055506040820151816002015560608201518160030160008201518160000160006101000a8154816001600160a01b0302191690836001600160a01b0316021790555060208201518160010160006101000a8154816001600160a01b0302191690836001600160a01b0316021790555050506080820151816005015560a08201518160060155905050600061013254111561223f5761012d5461012f54610132546040516323b872dd60e01b81526001600160a01b03938416936323b872dd936121d19389939290911691600401612de2565b602060405180830381600087803b1580156121eb57600080fd5b505af11580156121ff573d6000803e3d6000fd5b505050506040513d601f19601f820116820180604052508101906122239190612e06565b61223f5760405162461bcd60e51b815260040161063d90612fac565b826001600160a01b0316867fc02879ff68a9ea26ab66f5455e3487b47cfaa7b608d218cdace29c6103f02d2b8484898960405161227f9493929190613009565b60405180910390a350505050505050565b600054610100900460ff166122b75760405162461bcd60e51b815260040161063d9061306f565b6122bf612870565b6122c7612870565b565b600054610100900460ff166122f05760405162461bcd60e51b815260040161063d9061306f565b6122b7612870565b6107298282610c0b565b33826123205760405162461bcd60e51b815260040161063d90612ee7565b61232b42603c612864565b82116123495760405162461bcd60e51b815260040161063d90612f1e565b6001600160a01b03808616600090815261013060209081526040808320888452825291829020825160c0810184528154815260018201548516818401908152600283015482860152845180860190955260038301548616855260048301548616938501939093526060810193909352600581015460808401526006015460a08301525190918381169116146123f05760405162461bcd60e51b815260040161063d90612e60565b6080810184815260a082018481526001600160a01b038881166000908152610130602090815260408083208b84528252918290208651808255828801516001830180546001600160a01b03199081169288169290921790558489015160028401556060808a015180516003860180548516918a16919091179055850151600485018054909316971696909617905595516005820155935160069094019390935580519384529183018790529082018590527f37de993802f8ab9c75f6d7d3065ba8ab95ce30051219b14251415925e68e0a48910160405180910390a1505050505050565b606060006124e38360026130d0565b6124ee9060026130ef565b67ffffffffffffffff81111561250657612506612a2a565b6040519080825280601f01601f191660200182016040528015612530576020820181803683370190505b509050600360fc1b8160008151811061254b5761254b613107565b60200101906001600160f81b031916908160001a905350600f60fb1b8160018151811061257a5761257a613107565b60200101906001600160f81b031916908160001a905350600061259e8460026130d0565b6125a99060016130ef565b90505b6001811115612621576f181899199a1a9b1b9c1cb0b131b232b360811b85600f16601081106125dd576125dd613107565b1a60f81b8282815181106125f3576125f3613107565b60200101906001600160f81b031916908160001a90535060049490941c9361261a8161311d565b90506125ac565b5083156117b15760405162461bcd60e51b815260206004820181905260248201527f537472696e67733a20686578206c656e67746820696e73756666696369656e74604482015260640161063d565b803b6126d45760405162461bcd60e51b815260206004820152602d60248201527f455243313936373a206e657720696d706c656d656e746174696f6e206973206e60448201526c1bdd08184818dbdb9d1c9858dd609a1b606482015260840161063d565b7f360894a13ba1a3210667c828492db98dca3e2076cc3735a920a3ca505d382bbc80546001600160a01b0319166001600160a01b0392909216919091179055565b6060823b6127745760405162461bcd60e51b815260206004820152602660248201527f416464726573733a2064656c65676174652063616c6c20746f206e6f6e2d636f6044820152651b9d1c9858dd60d21b606482015260840161063d565b600080846001600160a01b03168460405161278f9190613134565b600060405180830381855af49150503d80600081146127ca576040519150601f19603f3d011682016040523d82523d6000602084013e6127cf565b606091505b50915091506127f7828260405180606001604052806027815260200161318a60279139612897565b95945050505050565b61280981612670565b6040516001600160a01b038216907fbc7cd75a20ee27fd9adebab32041f755214dbc6bffa90cc0225b39da2e5c2d3b90600090a250565b60006117b182846130d0565b60006117b18284613150565b60006117b18284613172565b60006117b182846130ef565b600054610100900460ff166122c75760405162461bcd60e51b815260040161063d9061306f565b606083156128a65750816117b1565b8251156128b65782518084602001fd5b8160405162461bcd60e51b815260040161063d9190612d38565b6040805160c081018252600080825260208083018290528284018290528351808501909452818452830152906060820190815260200160008152602001600081525090565b60006020828403121561292757600080fd5b81356001600160e01b0319811681146117b157600080fd5b60006020828403121561295157600080fd5b5035919050565b6001600160a01b03811681146107f357600080fd5b6000806040838503121561298057600080fd5b82359150602083013561299281612958565b809150509250929050565b6000602082840312156129af57600080fd5b81356117b181612958565b6000806000606084860312156129cf57600080fd5b83356129da81612958565b95602085013595506040909401359392505050565b60008060008060808587031215612a0557600080fd5b8435612a1081612958565b966020860135965060408601359560600135945092505050565b634e487b7160e01b600052604160045260246000fd5b60008060408385031215612a5357600080fd5b8235612a5e81612958565b9150602083013567ffffffffffffffff80821115612a7b57600080fd5b818501915085601f830112612a8f57600080fd5b813581811115612aa157612aa1612a2a565b604051601f8201601f19908116603f01168101908382118183101715612ac957612ac9612a2a565b81604052828152886020848701011115612ae257600080fd5b8260208601602083013760006020848301015280955050505050509250929050565b60008060408385031215612b1757600080fd5b8235612b2281612958565b946020939093013593505050565b60008060008060808587031215612b4657600080fd5b8435612b5181612958565b93506020850135612b6181612958565b92506040850135612b7181612958565b9396929550929360600135925050565b8681526001600160a01b03861660208201526040810185905260e08101612bc1606083018680516001600160a01b03908116835260209182015116910152565b60a082019390935260c00152949350505050565b6020808252602c908201527f46756e6374696f6e206d7573742062652063616c6c6564207468726f7567682060408201526b19195b1959d85d1958d85b1b60a21b606082015260800190565b6020808252602c908201527f46756e6374696f6e206d7573742062652063616c6c6564207468726f7567682060408201526b6163746976652070726f787960a01b606082015260800190565b60208082526010908201526f14185d5cd8589b194e881c185d5cd95960821b604082015260600190565b60005b83811015612cb2578181015183820152602001612c9a565b838111156108245750506000910152565b7f416363657373436f6e74726f6c3a206163636f756e7420000000000000000000815260008351612cfb816017850160208801612c97565b7001034b99036b4b9b9b4b733903937b6329607d1b6017918401918201528351612d2c816028840160208801612c97565b01602801949350505050565b6020815260008251806020840152612d57816040850160208701612c97565b601f01601f19169190910160400192915050565b600060208284031215612d7d57600080fd5b5051919050565b60208082526021908201527f5468652073656c6c6572206973206e6f206c6f6e67657220746865206f776e656040820152603960f91b606082015260800190565b600060208284031215612dd757600080fd5b81516117b181612958565b6001600160a01b039384168152919092166020820152604081019190915260600190565b600060208284031215612e1857600080fd5b815180151581146117b157600080fd5b83815260808101612e52602083018580516001600160a01b03908116835260209182015116910152565b826060830152949350505050565b6020808252818101527f4f6e6c7920746865206f776e65722063616e20637265617465206f7264657273604082015260600190565b60208082526032908201527f54686520636f6e7472616374206973206e6f7420617574686f72697a656420746040820152711bc81b585b9859d9481d1a1948185cdcd95d60721b606082015260800190565b6020808252601d908201527f50726963652073686f756c6420626520626967676572207468616e2030000000604082015260600190565b60208082526036908201527f5075626c69636174696f6e2073686f756c64206265206d6f7265207468616e2060408201527531206d696e75746520696e207468652066757475726560501b606082015260800190565b9485526bffffffffffffffffffffffff19606094851b811660208701526034860193909352921b166054830152606882015260880190565b6020808252603f908201527f5472616e73666572696e6720746865207075626c69636174696f6e206665652060408201527f746f20746865204d61726b6574706c616365206f776e6572206661696c656400606082015260800190565b84815260a08101613033602083018680516001600160a01b03908116835260209182015116910152565b60608201939093526080015292915050565b828152606081016117b1602083018480516001600160a01b03908116835260209182015116910152565b6020808252602b908201527f496e697469616c697a61626c653a20636f6e7472616374206973206e6f74206960408201526a6e697469616c697a696e6760a81b606082015260800190565b634e487b7160e01b600052601160045260246000fd5b60008160001904831182151516156130ea576130ea6130ba565b500290565b60008219821115613102576131026130ba565b500190565b634e487b7160e01b600052603260045260246000fd5b60008161312c5761312c6130ba565b506000190190565b60008251613146818460208701612c97565b9190910192915050565b60008261316d57634e487b7160e01b600052601260045260246000fd5b500490565b600082821015613184576131846130ba565b50039056fe416464726573733a206c6f772d6c6576656c2064656c65676174652063616c6c206661696c6564f5eb84615c2a00ecaf817d13794ebd6299c9e01c395bf4018453f13f577f5449a26469706673582212200aebd715773d3f3d29efd9ea4a433e3f47f0392109464d258875a50b7950d4ac64736f6c63430008090033",
  "immutableReferences": {
    "1051": [
      {
        "length": 32,
        "start": 1848
      },
      {
        "length": 32,
        "start": 1912
      },
      {
        "length": 32,
        "start": 2148
      },
      {
        "length": 32,
        "start": 2212
      }
    ]
  },
  "source": "// SPDX-License-Identifier: MIT\npragma solidity 0.8.9;\n\n// TODO.\n// Support ERC1155.\n\nimport \"@openzeppelin/contracts/token/ERC721/IERC721.sol\";\nimport \"@openzeppelin/contracts-upgradeable/access/AccessControlUpgradeable.sol\";\nimport \"@openzeppelin/contracts-upgradeable/proxy/utils/Initializable.sol\";\nimport \"@openzeppelin/contracts-upgradeable/proxy/utils/UUPSUpgradeable.sol\";\nimport \"@openzeppelin/contracts-upgradeable/security/PausableUpgradeable.sol\";\nimport \"@openzeppelin/contracts-upgradeable/utils/CountersUpgradeable.sol\";\nimport \"@openzeppelin/contracts-upgradeable/utils/math/SafeMathUpgradeable.sol\";\nimport \"@openzeppelin/contracts-upgradeable/utils/AddressUpgradeable.sol\";\nimport \"./MarketplaceStorage.sol\";\nimport \"./IMELD.sol\";\n\ncontract Marketplace is\n    Initializable,\n    AccessControlUpgradeable,\n    PausableUpgradeable,\n    UUPSUpgradeable,\n    MarketplaceStorage\n{\n    using AddressUpgradeable for address;\n    using SafeMathUpgradeable for uint256;\n\n    function initialize(\n        IERC20MELD _acceptedToken,\n        address _officialWallet,\n        address _foundationWallet,\n        uint256 _ownerCutPerMillion\n    ) public initializer {\n        __UUPSUpgradeable_init();\n        __AccessControl_init();\n        _setupRole(DEFAULT_ADMIN_ROLE, msg.sender);\n        _setupRole(UPGRADER_ROLE, msg.sender);\n        _setupRole(GM_ROLE, msg.sender);\n\n        // Fee init\n        setOwnerCutPerMillion(_ownerCutPerMillion);\n        setPublicationFee(0);\n        acceptedToken = _acceptedToken;\n        officialWallet = _officialWallet;\n        foundationWallet = _foundationWallet;\n    }\n\n    function _authorizeUpgrade(address newImplementation)\n        internal\n        override\n        onlyRole(UPGRADER_ROLE)\n    {}\n\n    function setPublicationFee(uint256 _publicationFee)\n        public\n        onlyRole(GM_ROLE)\n    {\n        publicationFeeInWei = _publicationFee;\n        emit ChangedPublicationFee(publicationFeeInWei);\n    }\n\n    // 50000 = 5%\n    // 500000 = 50%\n    function setOwnerCutPerMillion(uint256 _ownerCutPerMillion)\n        public\n        onlyRole(GM_ROLE)\n    {\n        require(\n            _ownerCutPerMillion < 1000000,\n            \"The owner cut should be between 0 and 999,999\"\n        );\n\n        ownerCutPerMillion = _ownerCutPerMillion;\n        emit ChangedOwnerCutPerMillion(ownerCutPerMillion);\n    }\n\n    // \n    function createOrderWith721(\n        IERC721 nftAddress,\n        uint256 assetId,\n        uint256 priceInWei,\n        uint256 expiresAt\n    ) public whenNotPaused {\n        _createOrderWith721(nftAddress, assetId, priceInWei, expiresAt);\n    }\n\n    // \n    function createOrderWith1155(\n        IERC1155 nftAddress,\n        uint256 assetId,\n        uint256 priceInWei,\n        uint256 expiresAt\n    ) public whenNotPaused {\n        _createOrderWith1155(nftAddress, assetId, priceInWei, expiresAt);\n    }\n\n    // \n    function cancelOrder(address nftAddress, uint256 assetId)\n        public\n        whenNotPaused\n    {\n        _cancelOrder(nftAddress, assetId);\n    }\n\n    // buy\n    function safeExecuteOrder(\n        address nftAddress,\n        uint256 assetId,\n        uint256 price\n    ) public whenNotPaused {\n        _executeOrder(nftAddress, assetId, price);\n    }\n\n    // buy\n    function executeOrder(\n        address nftAddress,\n        uint256 assetId,\n        uint256 price\n    ) public whenNotPaused {\n        _executeOrder(nftAddress, assetId, price);\n    }\n\n    function updateOrder(\n        address nft,\n        uint256 assetId,\n        uint256 priceInWei,\n        uint256 expiresAt\n    ) public whenNotPaused {\n        _updateOrder(nft, assetId, priceInWei, expiresAt);\n    }\n\n    function _updateOrder(\n        address nftAddress,\n        uint256 assetId,\n        uint256 priceInWei,\n        uint256 expiresAt\n    ) internal {\n        address sender = _msgSender();\n        require(priceInWei > 0, \"Price should be bigger than 0\");\n        require(\n            expiresAt > block.timestamp.add(1 minutes),\n            \"Publication should be more than 1 minute in the future\"\n        );\n        Order memory order = orderByAssetId[nftAddress][assetId];\n        require(sender == order.seller, \"Only the owner can create orders\");\n        order.price = priceInWei;\n        order.expiresAt = expiresAt;\n        orderByAssetId[nftAddress][assetId] = order;\n\n        emit OrderUpdated(order.id, priceInWei, expiresAt);\n    }\n\n    function _createOrderWith721(\n        IERC721 nft,\n        uint256 assetId,\n        uint256 priceInWei,\n        uint256 expiresAt\n    ) internal {\n        address sender = _msgSender();\n\n        IERC721 nftRegistry = nft;\n        address assetOwner = nftRegistry.ownerOf(assetId);\n\n        require(sender == assetOwner, \"Only the owner can create orders\");\n        require(\n            nftRegistry.getApproved(assetId) == address(this) ||\n                nftRegistry.isApprovedForAll(assetOwner, address(this)),\n            \"The contract is not authorized to manage the asset\"\n        );\n        require(priceInWei > 0, \"Price should be bigger than 0\");\n        require(\n            expiresAt > block.timestamp.add(1 minutes),\n            \"Publication should be more than 1 minute in the future\"\n        );\n\n        bytes32 orderId = keccak256(\n            abi.encodePacked(\n                block.timestamp,\n                assetOwner,\n                assetId,\n                address(nft),\n                priceInWei\n            )\n        );\n\n        ERC721Or1155 memory erc721Or1155NFT;\n\n        erc721Or1155NFT.erc721 = nft;\n\n        orderByAssetId[address(nft)][assetId] = Order({\n            id: orderId,\n            seller: assetOwner,\n            assetId: assetId,\n            nft: erc721Or1155NFT,\n            price: priceInWei,\n            expiresAt: expiresAt\n        });\n\n        // Check if there's a publication fee and\n        // transfer the amount to marketplace owner\n        if (publicationFeeInWei > 0) {\n            require(\n                acceptedToken.transferFrom(\n                    sender,\n                    officialWallet,\n                    publicationFeeInWei\n                ),\n                \"Transfering the publication fee to the Marketplace owner failed\"\n            );\n        }\n\n        emit OrderCreated(\n            orderId,\n            assetId,\n            assetOwner,\n            erc721Or1155NFT,\n            priceInWei,\n            expiresAt\n        );\n    }\n\n    function _createOrderWith1155(\n        IERC1155 nft,\n        uint256 assetId,\n        uint256 priceInWei,\n        uint256 expiresAt\n    ) internal {\n        address sender = _msgSender();\n        require(nft.balanceOf(sender, assetId) > 0, \"Only the owner can create orders\");\n        require(\n            nft.isApprovedForAll(sender, address(this)),\n            \"The contract is not authorized to manage the asset\"\n        );\n        require(priceInWei > 0, \"Price should be bigger than 0\");\n        require(\n            expiresAt > block.timestamp.add(1 minutes),\n            \"Publication should be more than 1 minute in the future\"\n        );\n\n        bytes32 orderId = keccak256(\n            abi.encodePacked(\n                block.timestamp,\n                sender,\n                assetId,\n                address(nft),\n                priceInWei\n            )\n        );\n\n        ERC721Or1155 memory erc721Or1155NFT;\n\n        erc721Or1155NFT.erc1155 = nft;\n\n        orderByAssetId[address(nft)][assetId] = Order({\n            id: orderId,\n            seller: sender,\n            assetId: assetId,\n            nft: erc721Or1155NFT,\n            price: priceInWei,\n            expiresAt: expiresAt\n        });\n\n        // Check if there's a publication fee and\n        // transfer the amount to marketplace owner\n        if (publicationFeeInWei > 0) {\n            require(\n                acceptedToken.transferFrom(\n                    sender,\n                    officialWallet,\n                    publicationFeeInWei\n                ),\n                \"Transfering the publication fee to the Marketplace owner failed\"\n            );\n        }\n\n        emit OrderCreated(\n            orderId,\n            assetId,\n            sender,\n            erc721Or1155NFT,\n            priceInWei,\n            expiresAt\n        );\n    }\n\n    function _cancelOrder(address nftAddress, uint256 assetId)\n        internal\n        returns (Order memory)\n    {\n        address sender = _msgSender();\n        Order memory order = orderByAssetId[nftAddress][assetId];\n\n        require(order.id != 0, \"Asset not published\");\n\n        // GM or owner\n        require(\n            order.seller == sender || hasRole(GM_ROLE, sender),\n            \"Unauthorized user\"\n        );\n\n        bytes32 orderId = order.id;\n        address orderSeller = order.seller;\n        delete orderByAssetId[nftAddress][assetId];\n\n        emit OrderCancelled(orderId, assetId, orderSeller, order.nft);\n\n        return order;\n    }\n\n    function _executeOrder(\n        address nftAddress,\n        uint256 assetId,\n        uint256 price\n    ) internal returns (Order memory) {\n        address sender = _msgSender();\n\n        Order memory order = orderByAssetId[nftAddress][assetId];\n        require(order.id != 0, \"Asset not published\");\n        address seller = order.seller;\n        require(seller != address(0), \"Invalid address\");\n        require(seller != sender, \"Unauthorized user\");\n        require(order.price == price, \"The price is not correct\");\n        require(block.timestamp < order.expiresAt, \"The order expired\");\n\n        ERC721Or1155 memory erc721Or1155 = order.nft;\n\n        {\n            if (address(erc721Or1155.erc1155) != address(0)) {\n                require(erc721Or1155.erc1155.balanceOf(seller, assetId) > 0, \"The seller is no longer the owner\");\n            } else {\n                require(\n                    seller == erc721Or1155.erc721.ownerOf(assetId),\n                    \"The seller is no longer the owner\"\n                );\n            }\n        }\n\n        uint256 saleShareAmount = 0;\n\n        bytes32 orderId = order.id;\n        delete orderByAssetId[nftAddress][assetId];\n\n        if (ownerCutPerMillion > 0) {\n            // Calculate sale share\n            saleShareAmount = price.mul(ownerCutPerMillion).div(1000000);\n\n            // 40% burn in handling fee\n            uint256 burnAmount = saleShareAmount.mul(40).div(100);\n\n            // The other 40% is held by the Foundation\n            uint256 foundationAmount = saleShareAmount.mul(40).div(100);\n\n            // The last 20% are official earnings\n            uint256 officialAmount = saleShareAmount.mul(20).div(100);\n\n            // transfer to bidback wallet when burn failed.\n            acceptedToken.transferFrom(\n                sender,\n                address(0x01B375Aa81EC7595ff61094A022d09eC17Da4AbA),\n                burnAmount\n            );\n            require(\n                acceptedToken.transferFrom(\n                    sender,\n                    foundationWallet,\n                    foundationAmount\n                ),\n                \"Handling fee transfer to foundationWallet failure\"\n            );\n            require(\n                acceptedToken.transferFrom(\n                    sender,\n                    officialWallet,\n                    officialAmount\n                ),\n                \"Handling fee transfer to officialWallet to off failure\"\n            );\n        }\n\n        // Transfer sale amount to seller\n        require(\n            acceptedToken.transferFrom(\n                sender,\n                seller,\n                price.sub(saleShareAmount)\n            ),\n            \"Transfering the sale amount to the seller failed\"\n        );\n\n        // Transfer asset owner\n        {\n            if (address(erc721Or1155.erc1155) != address(0)) {\n                erc721Or1155.erc1155.safeTransferFrom(seller, sender, assetId, 1, '');\n            } else {\n                erc721Or1155.erc721.safeTransferFrom(seller, sender, assetId);\n            }\n        }\n\n        emit OrderSuccessful(\n            orderId,\n            assetId,\n            seller,\n            erc721Or1155,\n            price,\n            sender\n        );\n\n        return order;\n    }\n}\n",
  "sourcePath": "/Users/alberthuang/code/icw/meland/contracts/Marketplace.sol",
  "compiler": {
    "name": "solc",
    "version": "0.8.9+commit.e5eed63a.Emscripten.clang"
  },
  "schemaVersion": "3.4.3",
  "updatedAt": "2021-12-31T04:32:33.967Z",
  "networkType": "ethereum",
  "devdoc": {
    "kind": "dev",
    "methods": {
      "getRoleAdmin(bytes32)": {
        "details": "Returns the admin role that controls `role`. See {grantRole} and {revokeRole}. To change a role's admin, use {_setRoleAdmin}."
      },
      "grantRole(bytes32,address)": {
        "details": "Grants `role` to `account`. If `account` had not been already granted `role`, emits a {RoleGranted} event. Requirements: - the caller must have ``role``'s admin role."
      },
      "hasRole(bytes32,address)": {
        "details": "Returns `true` if `account` has been granted `role`."
      },
      "paused()": {
        "details": "Returns true if the contract is paused, and false otherwise."
      },
      "renounceRole(bytes32,address)": {
        "details": "Revokes `role` from the calling account. Roles are often managed via {grantRole} and {revokeRole}: this function's purpose is to provide a mechanism for accounts to lose their privileges if they are compromised (such as when a trusted device is misplaced). If the calling account had been revoked `role`, emits a {RoleRevoked} event. Requirements: - the caller must be `account`."
      },
      "revokeRole(bytes32,address)": {
        "details": "Revokes `role` from `account`. If `account` had been granted `role`, emits a {RoleRevoked} event. Requirements: - the caller must have ``role``'s admin role."
      },
      "supportsInterface(bytes4)": {
        "details": "See {IERC165-supportsInterface}."
      },
      "upgradeTo(address)": {
        "details": "Upgrade the implementation of the proxy to `newImplementation`. Calls {_authorizeUpgrade}. Emits an {Upgraded} event."
      },
      "upgradeToAndCall(address,bytes)": {
        "details": "Upgrade the implementation of the proxy to `newImplementation`, and subsequently execute the function call encoded in `data`. Calls {_authorizeUpgrade}. Emits an {Upgraded} event."
      }
    },
    "version": 1
  },
  "userdoc": {
    "kind": "user",
    "methods": {},
    "version": 1
  }
}