{
  "contractName": "Marketplace",
  "abi": [
    {
      "anonymous": false,
      "inputs": [
        {
          "indexed": false,
          "internalType": "address",
          "name": "previousAdmin",
          "type": "address"
        },
        {
          "indexed": false,
          "internalType": "address",
          "name": "newAdmin",
          "type": "address"
        }
      ],
      "name": "AdminChanged",
      "type": "event"
    },
    {
      "anonymous": false,
      "inputs": [
        {
          "indexed": true,
          "internalType": "address",
          "name": "beacon",
          "type": "address"
        }
      ],
      "name": "BeaconUpgraded",
      "type": "event"
    },
    {
      "anonymous": false,
      "inputs": [
        {
          "indexed": false,
          "internalType": "uint256",
          "name": "ownerCutPerMillion",
          "type": "uint256"
        }
      ],
      "name": "ChangedOwnerCutPerMillion",
      "type": "event"
    },
    {
      "anonymous": false,
      "inputs": [
        {
          "indexed": false,
          "internalType": "uint256",
          "name": "publicationFee",
          "type": "uint256"
        }
      ],
      "name": "ChangedPublicationFee",
      "type": "event"
    },
    {
      "anonymous": false,
      "inputs": [
        {
          "indexed": false,
          "internalType": "bytes32",
          "name": "id",
          "type": "bytes32"
        },
        {
          "indexed": true,
          "internalType": "uint256",
          "name": "assetId",
          "type": "uint256"
        },
        {
          "indexed": true,
          "internalType": "address",
          "name": "seller",
          "type": "address"
        },
        {
          "indexed": false,
          "internalType": "contract IERC721",
          "name": "nftAddress",
          "type": "address"
        }
      ],
      "name": "OrderCancelled",
      "type": "event"
    },
    {
      "anonymous": false,
      "inputs": [
        {
          "indexed": false,
          "internalType": "bytes32",
          "name": "id",
          "type": "bytes32"
        },
        {
          "indexed": true,
          "internalType": "uint256",
          "name": "assetId",
          "type": "uint256"
        },
        {
          "indexed": true,
          "internalType": "address",
          "name": "seller",
          "type": "address"
        },
        {
          "indexed": false,
          "internalType": "contract IERC721",
          "name": "nftAddress",
          "type": "address"
        },
        {
          "indexed": false,
          "internalType": "uint256",
          "name": "priceInWei",
          "type": "uint256"
        },
        {
          "indexed": false,
          "internalType": "uint256",
          "name": "expiresAt",
          "type": "uint256"
        }
      ],
      "name": "OrderCreated",
      "type": "event"
    },
    {
      "anonymous": false,
      "inputs": [
        {
          "indexed": false,
          "internalType": "bytes32",
          "name": "id",
          "type": "bytes32"
        },
        {
          "indexed": true,
          "internalType": "uint256",
          "name": "assetId",
          "type": "uint256"
        },
        {
          "indexed": true,
          "internalType": "address",
          "name": "seller",
          "type": "address"
        },
        {
          "indexed": false,
          "internalType": "contract IERC721",
          "name": "nftAddress",
          "type": "address"
        },
        {
          "indexed": false,
          "internalType": "uint256",
          "name": "totalPrice",
          "type": "uint256"
        },
        {
          "indexed": true,
          "internalType": "address",
          "name": "buyer",
          "type": "address"
        }
      ],
      "name": "OrderSuccessful",
      "type": "event"
    },
    {
      "anonymous": false,
      "inputs": [
        {
          "indexed": false,
          "internalType": "bytes32",
          "name": "id",
          "type": "bytes32"
        },
        {
          "indexed": false,
          "internalType": "uint256",
          "name": "priceInWei",
          "type": "uint256"
        },
        {
          "indexed": false,
          "internalType": "uint256",
          "name": "expiresAt",
          "type": "uint256"
        }
      ],
      "name": "OrderUpdated",
      "type": "event"
    },
    {
      "anonymous": false,
      "inputs": [
        {
          "indexed": false,
          "internalType": "address",
          "name": "account",
          "type": "address"
        }
      ],
      "name": "Paused",
      "type": "event"
    },
    {
      "anonymous": false,
      "inputs": [
        {
          "indexed": true,
          "internalType": "bytes32",
          "name": "role",
          "type": "bytes32"
        },
        {
          "indexed": true,
          "internalType": "bytes32",
          "name": "previousAdminRole",
          "type": "bytes32"
        },
        {
          "indexed": true,
          "internalType": "bytes32",
          "name": "newAdminRole",
          "type": "bytes32"
        }
      ],
      "name": "RoleAdminChanged",
      "type": "event"
    },
    {
      "anonymous": false,
      "inputs": [
        {
          "indexed": true,
          "internalType": "bytes32",
          "name": "role",
          "type": "bytes32"
        },
        {
          "indexed": true,
          "internalType": "address",
          "name": "account",
          "type": "address"
        },
        {
          "indexed": true,
          "internalType": "address",
          "name": "sender",
          "type": "address"
        }
      ],
      "name": "RoleGranted",
      "type": "event"
    },
    {
      "anonymous": false,
      "inputs": [
        {
          "indexed": true,
          "internalType": "bytes32",
          "name": "role",
          "type": "bytes32"
        },
        {
          "indexed": true,
          "internalType": "address",
          "name": "account",
          "type": "address"
        },
        {
          "indexed": true,
          "internalType": "address",
          "name": "sender",
          "type": "address"
        }
      ],
      "name": "RoleRevoked",
      "type": "event"
    },
    {
      "anonymous": false,
      "inputs": [
        {
          "indexed": false,
          "internalType": "address",
          "name": "account",
          "type": "address"
        }
      ],
      "name": "Unpaused",
      "type": "event"
    },
    {
      "anonymous": false,
      "inputs": [
        {
          "indexed": true,
          "internalType": "address",
          "name": "implementation",
          "type": "address"
        }
      ],
      "name": "Upgraded",
      "type": "event"
    },
    {
      "inputs": [],
      "name": "DEFAULT_ADMIN_ROLE",
      "outputs": [
        {
          "internalType": "bytes32",
          "name": "",
          "type": "bytes32"
        }
      ],
      "stateMutability": "view",
      "type": "function"
    },
    {
      "inputs": [],
      "name": "GM_ROLE",
      "outputs": [
        {
          "internalType": "bytes32",
          "name": "",
          "type": "bytes32"
        }
      ],
      "stateMutability": "view",
      "type": "function"
    },
    {
      "inputs": [],
      "name": "UPGRADER_ROLE",
      "outputs": [
        {
          "internalType": "bytes32",
          "name": "",
          "type": "bytes32"
        }
      ],
      "stateMutability": "view",
      "type": "function"
    },
    {
      "inputs": [],
      "name": "acceptedToken",
      "outputs": [
        {
          "internalType": "contract IERC20MELD",
          "name": "",
          "type": "address"
        }
      ],
      "stateMutability": "view",
      "type": "function"
    },
    {
      "inputs": [],
      "name": "foundationWallet",
      "outputs": [
        {
          "internalType": "address",
          "name": "",
          "type": "address"
        }
      ],
      "stateMutability": "view",
      "type": "function"
    },
    {
      "inputs": [
        {
          "internalType": "bytes32",
          "name": "role",
          "type": "bytes32"
        }
      ],
      "name": "getRoleAdmin",
      "outputs": [
        {
          "internalType": "bytes32",
          "name": "",
          "type": "bytes32"
        }
      ],
      "stateMutability": "view",
      "type": "function"
    },
    {
      "inputs": [
        {
          "internalType": "bytes32",
          "name": "role",
          "type": "bytes32"
        },
        {
          "internalType": "address",
          "name": "account",
          "type": "address"
        }
      ],
      "name": "grantRole",
      "outputs": [],
      "stateMutability": "nonpayable",
      "type": "function"
    },
    {
      "inputs": [
        {
          "internalType": "bytes32",
          "name": "role",
          "type": "bytes32"
        },
        {
          "internalType": "address",
          "name": "account",
          "type": "address"
        }
      ],
      "name": "hasRole",
      "outputs": [
        {
          "internalType": "bool",
          "name": "",
          "type": "bool"
        }
      ],
      "stateMutability": "view",
      "type": "function"
    },
    {
      "inputs": [],
      "name": "officialWallet",
      "outputs": [
        {
          "internalType": "address",
          "name": "",
          "type": "address"
        }
      ],
      "stateMutability": "view",
      "type": "function"
    },
    {
      "inputs": [
        {
          "internalType": "contract IERC721",
          "name": "",
          "type": "address"
        },
        {
          "internalType": "uint256",
          "name": "",
          "type": "uint256"
        }
      ],
      "name": "orderByAssetId",
      "outputs": [
        {
          "internalType": "bytes32",
          "name": "id",
          "type": "bytes32"
        },
        {
          "internalType": "address",
          "name": "seller",
          "type": "address"
        },
        {
          "internalType": "uint256",
          "name": "assetId",
          "type": "uint256"
        },
        {
          "internalType": "contract IERC721",
          "name": "nftAddress",
          "type": "address"
        },
        {
          "internalType": "uint256",
          "name": "price",
          "type": "uint256"
        },
        {
          "internalType": "uint256",
          "name": "expiresAt",
          "type": "uint256"
        }
      ],
      "stateMutability": "view",
      "type": "function"
    },
    {
      "inputs": [],
      "name": "ownerCutPerMillion",
      "outputs": [
        {
          "internalType": "uint256",
          "name": "",
          "type": "uint256"
        }
      ],
      "stateMutability": "view",
      "type": "function"
    },
    {
      "inputs": [],
      "name": "paused",
      "outputs": [
        {
          "internalType": "bool",
          "name": "",
          "type": "bool"
        }
      ],
      "stateMutability": "view",
      "type": "function"
    },
    {
      "inputs": [],
      "name": "publicationFeeInWei",
      "outputs": [
        {
          "internalType": "uint256",
          "name": "",
          "type": "uint256"
        }
      ],
      "stateMutability": "view",
      "type": "function"
    },
    {
      "inputs": [
        {
          "internalType": "bytes32",
          "name": "role",
          "type": "bytes32"
        },
        {
          "internalType": "address",
          "name": "account",
          "type": "address"
        }
      ],
      "name": "renounceRole",
      "outputs": [],
      "stateMutability": "nonpayable",
      "type": "function"
    },
    {
      "inputs": [
        {
          "internalType": "bytes32",
          "name": "role",
          "type": "bytes32"
        },
        {
          "internalType": "address",
          "name": "account",
          "type": "address"
        }
      ],
      "name": "revokeRole",
      "outputs": [],
      "stateMutability": "nonpayable",
      "type": "function"
    },
    {
      "inputs": [
        {
          "internalType": "bytes4",
          "name": "interfaceId",
          "type": "bytes4"
        }
      ],
      "name": "supportsInterface",
      "outputs": [
        {
          "internalType": "bool",
          "name": "",
          "type": "bool"
        }
      ],
      "stateMutability": "view",
      "type": "function"
    },
    {
      "inputs": [
        {
          "internalType": "address",
          "name": "newImplementation",
          "type": "address"
        }
      ],
      "name": "upgradeTo",
      "outputs": [],
      "stateMutability": "nonpayable",
      "type": "function"
    },
    {
      "inputs": [
        {
          "internalType": "address",
          "name": "newImplementation",
          "type": "address"
        },
        {
          "internalType": "bytes",
          "name": "data",
          "type": "bytes"
        }
      ],
      "name": "upgradeToAndCall",
      "outputs": [],
      "stateMutability": "payable",
      "type": "function"
    },
    {
      "inputs": [
        {
          "internalType": "contract IERC20MELD",
          "name": "_acceptedToken",
          "type": "address"
        },
        {
          "internalType": "address",
          "name": "_officialWallet",
          "type": "address"
        },
        {
          "internalType": "address",
          "name": "_foundationWallet",
          "type": "address"
        },
        {
          "internalType": "uint256",
          "name": "_ownerCutPerMillion",
          "type": "uint256"
        }
      ],
      "name": "initialize",
      "outputs": [],
      "stateMutability": "nonpayable",
      "type": "function"
    },
    {
      "inputs": [
        {
          "internalType": "uint256",
          "name": "_publicationFee",
          "type": "uint256"
        }
      ],
      "name": "setPublicationFee",
      "outputs": [],
      "stateMutability": "nonpayable",
      "type": "function"
    },
    {
      "inputs": [
        {
          "internalType": "uint256",
          "name": "_ownerCutPerMillion",
          "type": "uint256"
        }
      ],
      "name": "setOwnerCutPerMillion",
      "outputs": [],
      "stateMutability": "nonpayable",
      "type": "function"
    },
    {
      "inputs": [
        {
          "internalType": "contract IERC721",
          "name": "nftAddress",
          "type": "address"
        },
        {
          "internalType": "uint256",
          "name": "assetId",
          "type": "uint256"
        },
        {
          "internalType": "uint256",
          "name": "priceInWei",
          "type": "uint256"
        },
        {
          "internalType": "uint256",
          "name": "expiresAt",
          "type": "uint256"
        }
      ],
      "name": "createOrder",
      "outputs": [],
      "stateMutability": "nonpayable",
      "type": "function"
    },
    {
      "inputs": [
        {
          "internalType": "contract IERC721",
          "name": "nftAddress",
          "type": "address"
        },
        {
          "internalType": "uint256",
          "name": "assetId",
          "type": "uint256"
        }
      ],
      "name": "cancelOrder",
      "outputs": [],
      "stateMutability": "nonpayable",
      "type": "function"
    },
    {
      "inputs": [
        {
          "internalType": "contract IERC721",
          "name": "nftAddress",
          "type": "address"
        },
        {
          "internalType": "uint256",
          "name": "assetId",
          "type": "uint256"
        },
        {
          "internalType": "uint256",
          "name": "price",
          "type": "uint256"
        }
      ],
      "name": "safeExecuteOrder",
      "outputs": [],
      "stateMutability": "nonpayable",
      "type": "function"
    },
    {
      "inputs": [
        {
          "internalType": "contract IERC721",
          "name": "nftAddress",
          "type": "address"
        },
        {
          "internalType": "uint256",
          "name": "assetId",
          "type": "uint256"
        },
        {
          "internalType": "uint256",
          "name": "price",
          "type": "uint256"
        }
      ],
      "name": "executeOrder",
      "outputs": [],
      "stateMutability": "nonpayable",
      "type": "function"
    },
    {
      "inputs": [
        {
          "internalType": "contract IERC721",
          "name": "nft",
          "type": "address"
        },
        {
          "internalType": "uint256",
          "name": "assetId",
          "type": "uint256"
        },
        {
          "internalType": "uint256",
          "name": "priceInWei",
          "type": "uint256"
        },
        {
          "internalType": "uint256",
          "name": "expiresAt",
          "type": "uint256"
        }
      ],
      "name": "updateOrder",
      "outputs": [],
      "stateMutability": "nonpayable",
      "type": "function"
    }
  ],
  "bytecode": "0x60a06040523060805234801561001457600080fd5b50608051612c466100456000396000818161070a0152818161074a0152818161080701526108470152612c466000f3fe6080604052600436106101815760003560e01c80636b7ae8dc116100d1578063ae7b03331161008a578063cf7ce01f11610064578063cf7ce01f14610446578063d547741f14610466578063e61f385114610486578063f72c0d8b1461052757600080fd5b8063ae7b0333146102d6578063af8996f114610406578063cf756fdf1461042657600080fd5b80636b7ae8dc146103625780636f652e1a1461038357806391d14854146103a3578063a01f79d4146103c3578063a217fddf146103da578063ae4f1198146103ef57600080fd5b806336568abe1161013e578063451c3d8011610118578063451c3d80146102f65780634f1ef286146103175780635c975abb1461032a5780636a2061371461034257600080fd5b806336568abe146102965780633659cfe6146102b657806338940b5b146102d657600080fd5b806301ffc9a714610186578063088025d3146101bb57806319dad16d146101f4578063248a9ca3146102165780632f2ff15d1461025457806330c7be2c14610274575b600080fd5b34801561019257600080fd5b506101a66101a13660046125f1565b61055b565b60405190151581526020015b60405180910390f35b3480156101c757600080fd5b5061012f546101dc906001600160a01b031681565b6040516001600160a01b0390911681526020016101b2565b34801561020057600080fd5b5061021461020f36600461261b565b610592565b005b34801561022257600080fd5b5061024661023136600461261b565b60009081526065602052604090206001015490565b6040519081526020016101b2565b34801561026057600080fd5b5061021461026f366004612649565b610656565b34801561028057600080fd5b50610246600080516020612bf183398151915281565b3480156102a257600080fd5b506102146102b1366004612649565b610681565b3480156102c257600080fd5b506102146102d1366004612679565b6106ff565b3480156102e257600080fd5b506102146102f1366004612696565b6107c8565b34801561030257600080fd5b5061012d546101dc906001600160a01b031681565b6102146103253660046126e1565b6107fc565b34801561033657600080fd5b5060975460ff166101a6565b34801561034e57600080fd5b5061021461035d3660046127a5565b6108b2565b34801561036e57600080fd5b5061012e546101dc906001600160a01b031681565b34801561038f57600080fd5b5061021461039e3660046127d1565b6108df565b3480156103af57600080fd5b506101a66103be366004612649565b61090e565b3480156103cf57600080fd5b506102466101315481565b3480156103e657600080fd5b50610246600081565b3480156103fb57600080fd5b506102466101325481565b34801561041257600080fd5b5061021461042136600461261b565b610939565b34801561043257600080fd5b5061021461044136600461280c565b610988565b34801561045257600080fd5b506102146104613660046127d1565b610aa8565b34801561047257600080fd5b50610214610481366004612649565b610ad7565b34801561049257600080fd5b506104ee6104a13660046127a5565b61013060209081526000928352604080842090915290825290208054600182015460028301546003840154600485015460059095015493946001600160a01b039384169492939091169186565b604080519687526001600160a01b03958616602088015286019390935292166060840152608083019190915260a082015260c0016101b2565b34801561053357600080fd5b506102467f189ab7a9244df0848122154315af71fe140f3db0fe014031783b0946b8c9d2e381565b60006001600160e01b03198216637965db0b60e01b148061058c57506301ffc9a760e01b6001600160e01b03198316145b92915050565b600080516020612bf18339815191526105ab8133610afd565b620f424082106106185760405162461bcd60e51b815260206004820152602d60248201527f546865206f776e6572206375742073686f756c64206265206265747765656e2060448201526c3020616e64203939392c39393960981b60648201526084015b60405180910390fd5b6101318290556040518281527ffa406a120a9e7f2b332bfb7a43d3bf1c3f079262202907a6b69c94b2821a02c6906020015b60405180910390a15050565b6000828152606560205260409020600101546106728133610afd565b61067c8383610b61565b505050565b6001600160a01b03811633146106f15760405162461bcd60e51b815260206004820152602f60248201527f416363657373436f6e74726f6c3a2063616e206f6e6c792072656e6f756e636560448201526e103937b632b9903337b91039b2b63360891b606482015260840161060f565b6106fb8282610be7565b5050565b306001600160a01b037f00000000000000000000000000000000000000000000000000000000000000001614156107485760405162461bcd60e51b815260040161060f9061285d565b7f00000000000000000000000000000000000000000000000000000000000000006001600160a01b031661077a610c4e565b6001600160a01b0316146107a05760405162461bcd60e51b815260040161060f906128a9565b6107a981610c7c565b604080516000808252602082019092526107c591839190610ca7565b50565b60975460ff16156107eb5760405162461bcd60e51b815260040161060f906128f5565b6107f6838383610deb565b50505050565b306001600160a01b037f00000000000000000000000000000000000000000000000000000000000000001614156108455760405162461bcd60e51b815260040161060f9061285d565b7f00000000000000000000000000000000000000000000000000000000000000006001600160a01b0316610877610c4e565b6001600160a01b03161461089d5760405162461bcd60e51b815260040161060f906128a9565b6108a682610c7c565b6106fb82826001610ca7565b60975460ff16156108d55760405162461bcd60e51b815260040161060f906128f5565b61067c82826115cd565b60975460ff16156109025760405162461bcd60e51b815260040161060f906128f5565b6107f6848484846117e4565b60009182526065602090815260408084206001600160a01b0393909316845291905290205460ff1690565b600080516020612bf18339815191526109528133610afd565b6101328290556040518281527fe7fa8737293f41b5dfa0d5c3e552860a06275bed7015581b083c7be7003308ba9060200161064a565b600054610100900460ff16806109a1575060005460ff16155b6109bd5760405162461bcd60e51b815260040161060f9061291f565b600054610100900460ff161580156109df576000805461ffff19166101011790555b6109e7611d7b565b6109ef611df6565b6109fa600033611e55565b610a247f189ab7a9244df0848122154315af71fe140f3db0fe014031783b0946b8c9d2e333611e55565b610a3c600080516020612bf183398151915233611e55565b610a4582610592565b610a4f6000610939565b61012d80546001600160a01b038088166001600160a01b03199283161790925561012f805487841690831617905561012e8054928616929091169190911790558015610aa1576000805461ff00191690555b5050505050565b60975460ff1615610acb5760405162461bcd60e51b815260040161060f906128f5565b6107f684848484611e5f565b600082815260656020526040902060010154610af38133610afd565b61067c8383610be7565b610b07828261090e565b6106fb57610b1f816001600160a01b031660146121b2565b610b2a8360206121b2565b604051602001610b3b929190612999565b60408051601f198184030181529082905262461bcd60e51b825261060f91600401612a0e565b610b6b828261090e565b6106fb5760008281526065602090815260408083206001600160a01b03851684529091529020805460ff19166001179055610ba33390565b6001600160a01b0316816001600160a01b0316837f2f8788117e7eff1d82e926ec794901d17c78024a50270940304540a733656f0d60405160405180910390a45050565b610bf1828261090e565b156106fb5760008281526065602090815260408083206001600160a01b0385168085529252808320805460ff1916905551339285917ff6391f5c32d9c69d2a47ea670b442974b53935d1edc7fd64eb21e047a839171b9190a45050565b7f360894a13ba1a3210667c828492db98dca3e2076cc3735a920a3ca505d382bbc546001600160a01b031690565b7f189ab7a9244df0848122154315af71fe140f3db0fe014031783b0946b8c9d2e36106fb8133610afd565b6000610cb1610c4e565b9050610cbc8461234e565b600083511180610cc95750815b15610cda57610cd884846123f3565b505b7f4910fdfa16fed3260ed0e7147f7cc6da11a60208b5b9406d12a635614ffd9143805460ff16610aa157805460ff191660011781556040516001600160a01b0383166024820152610d5990869060440160408051601f198184030181529190526020810180516001600160e01b0316631b2ce7f360e11b1790526123f3565b50805460ff19168155610d6a610c4e565b6001600160a01b0316826001600160a01b031614610de25760405162461bcd60e51b815260206004820152602f60248201527f45524331393637557067726164653a207570677261646520627265616b73206660448201526e75727468657220757067726164657360881b606482015260840161060f565b610aa1856124de565b6040805160c081018252600080825260208201819052918101829052606081018290526080810182905260a08101919091526000336001600160a01b03808716600090815261013060209081526040808320898452825291829020825160c08101845281548082526001830154861693820193909352600282015493810193909352600381015490931660608301526004830154608083015260059092015460a0820152919250869190610ed75760405162461bcd60e51b8152602060048201526013602482015272105cdcd95d081b9bdd081c1d589b1a5cda1959606a1b604482015260640161060f565b60208101516001600160a01b038116610f245760405162461bcd60e51b815260206004820152600f60248201526e496e76616c6964206164647265737360881b604482015260640161060f565b836001600160a01b0316816001600160a01b03161415610f7a5760405162461bcd60e51b81526020600482015260116024820152702ab730baba3437b934bd32b2103ab9b2b960791b604482015260640161060f565b85826080015114610fcd5760405162461bcd60e51b815260206004820152601860248201527f546865207072696365206973206e6f7420636f72726563740000000000000000604482015260640161060f565b8160a0015142106110145760405162461bcd60e51b8152602060048201526011602482015270151a19481bdc99195c88195e1c1a5c9959607a1b604482015260640161060f565b6040516331a9108f60e11b8152600481018890526001600160a01b03841690636352211e9060240160206040518083038186803b15801561105457600080fd5b505afa158015611068573d6000803e3d6000fd5b505050506040513d601f19601f8201168201806040525081019061108c9190612a41565b6001600160a01b0316816001600160a01b0316146110f65760405162461bcd60e51b815260206004820152602160248201527f5468652073656c6c6572206973206e6f206c6f6e67657220746865206f776e656044820152603960f91b606482015260840161060f565b81516001600160a01b0389166000908152610130602090815260408083208b845290915281208181556001810180546001600160a01b031990811690915560028201839055600382018054909116905560048101829055600501819055610131549091901561141457611182620f424061117c610131548b61251e90919063ffffffff16565b9061252a565b91506000611196606461117c85602861251e565b905060006111aa606461117c86602861251e565b905060006111be606461117c87601461251e565b61012d5460405163079cc67960e41b81526001600160a01b038c81166004830152602482018790529293509116906379cc679090604401600060405180830381600087803b15801561120f57600080fd5b505af1158015611223573d6000803e3d6000fd5b505061012d5461012e546040516323b872dd60e01b81526001600160a01b0392831694506323b872dd9350611260928e9216908790600401612a5e565b602060405180830381600087803b15801561127a57600080fd5b505af115801561128e573d6000803e3d6000fd5b505050506040513d601f19601f820116820180604052508101906112b29190612a82565b6113185760405162461bcd60e51b815260206004820152603160248201527f48616e646c696e6720666565207472616e7366657220746f20666f756e646174604482015270696f6e57616c6c6574206661696c75726560781b606482015260840161060f565b61012d5461012f546040516323b872dd60e01b81526001600160a01b03928316926323b872dd92611353928e92909116908690600401612a5e565b602060405180830381600087803b15801561136d57600080fd5b505af1158015611381573d6000803e3d6000fd5b505050506040513d601f19601f820116820180604052508101906113a59190612a82565b6114105760405162461bcd60e51b815260206004820152603660248201527f48616e646c696e6720666565207472616e7366657220746f206f6666696369616044820152756c57616c6c657420746f206f6666206661696c75726560501b606482015260840161060f565b5050505b61012d546001600160a01b03166323b872dd87856114328c87612536565b6040518463ffffffff1660e01b815260040161145093929190612a5e565b602060405180830381600087803b15801561146a57600080fd5b505af115801561147e573d6000803e3d6000fd5b505050506040513d601f19601f820116820180604052508101906114a29190612a82565b6115075760405162461bcd60e51b815260206004820152603060248201527f5472616e73666572696e67207468652073616c6520616d6f756e7420746f207460448201526f1a19481cd95b1b195c8819985a5b195960821b606482015260840161060f565b604051632142170760e11b81526001600160a01b038616906342842e0e906115379086908a908e90600401612a5e565b600060405180830381600087803b15801561155157600080fd5b505af1158015611565573d6000803e3d6000fd5b5050604080518481526001600160a01b038e811660208301529181018c9052818a16935090861691508b907f695ec315e8a642a74d450a4505eeea53df699b47a7378c7d752e97d5b16eb9bb9060600160405180910390a450919450505050505b9392505050565b6040805160c081018252600080825260208201819052918101829052606081018290526080810182905260a08101919091526000336001600160a01b03808616600090815261013060209081526040808320888452825291829020825160c08101845281548082526001830154861693820193909352600282015493810193909352600381015490931660608301526004830154608083015260059092015460a08201529192506116b65760405162461bcd60e51b8152602060048201526013602482015272105cdcd95d081b9bdd081c1d589b1a5cda1959606a1b604482015260640161060f565b816001600160a01b031681602001516001600160a01b031614806116ed57506116ed600080516020612bf18339815191528361090e565b61172d5760405162461bcd60e51b81526020600482015260116024820152702ab730baba3437b934bd32b2103ab9b2b960791b604482015260640161060f565b805160208083015160608401516001600160a01b038981166000908152610130855260408082208b835286528082208281556001810180546001600160a01b03199081169091556002820184905560038201805490911690556004810183905560050191909155805186815282841695810195909552929391929084169189917f0325426328de5b91ae4ad8462ad4076de4bcaf4551e81556185cacde5a425c6b910160405180910390a350919695505050505050565b6000336040516331a9108f60e11b81526004810186905290915085906000906001600160a01b03831690636352211e9060240160206040518083038186803b15801561182f57600080fd5b505afa158015611843573d6000803e3d6000fd5b505050506040513d601f19601f820116820180604052508101906118679190612a41565b9050806001600160a01b0316836001600160a01b0316146118ca5760405162461bcd60e51b815260206004820181905260248201527f4f6e6c7920746865206f776e65722063616e20637265617465206f7264657273604482015260640161060f565b60405163020604bf60e21b81526004810187905230906001600160a01b0384169063081812fc9060240160206040518083038186803b15801561190c57600080fd5b505afa158015611920573d6000803e3d6000fd5b505050506040513d601f19601f820116820180604052508101906119449190612a41565b6001600160a01b031614806119d3575060405163e985e9c560e01b81526001600160a01b03828116600483015230602483015283169063e985e9c59060440160206040518083038186803b15801561199b57600080fd5b505afa1580156119af573d6000803e3d6000fd5b505050506040513d601f19601f820116820180604052508101906119d39190612a82565b611a3a5760405162461bcd60e51b815260206004820152603260248201527f54686520636f6e7472616374206973206e6f7420617574686f72697a656420746044820152711bc81b585b9859d9481d1a1948185cdcd95d60721b606482015260840161060f565b60008511611a8a5760405162461bcd60e51b815260206004820152601d60248201527f50726963652073686f756c6420626520626967676572207468616e2030000000604482015260640161060f565b611a9542603c612542565b8411611ab35760405162461bcd60e51b815260040161060f90612aa4565b604080514260208201526bffffffffffffffffffffffff19606084811b821693830193909352605482018990529189901b90911660748201526088810186905260009060a8016040516020818303038152906040528051906020012090506040518060c00160405280828152602001836001600160a01b03168152602001888152602001896001600160a01b031681526020018781526020018681525061013060008a6001600160a01b03166001600160a01b0316815260200190815260200160002060008981526020019081526020016000206000820151816000015560208201518160010160006101000a8154816001600160a01b0302191690836001600160a01b031602179055506040820151816002015560608201518160030160006101000a8154816001600160a01b0302191690836001600160a01b031602179055506080820151816004015560a082015181600501559050506000610132541115611d1a5761012d5461012f54610132546040516323b872dd60e01b81526001600160a01b03938416936323b872dd93611c56938a939290911691600401612a5e565b602060405180830381600087803b158015611c7057600080fd5b505af1158015611c84573d6000803e3d6000fd5b505050506040513d601f19601f82011682018060405250810190611ca89190612a82565b611d1a5760405162461bcd60e51b815260206004820152603f60248201527f5472616e73666572696e6720746865207075626c69636174696f6e206665652060448201527f746f20746865204d61726b6574706c616365206f776e6572206661696c656400606482015260840161060f565b604080518281526001600160a01b038a81166020830152918101889052606081018790529083169088907f84c66c3f7ba4b390e20e8e8233e2a516f3ce34a72749e4f12bd010dfba2380399060800160405180910390a35050505050505050565b600054610100900460ff1680611d94575060005460ff16155b611db05760405162461bcd60e51b815260040161060f9061291f565b600054610100900460ff16158015611dd2576000805461ffff19166101011790555b611dda61254e565b611de261254e565b80156107c5576000805461ff001916905550565b600054610100900460ff1680611e0f575060005460ff16155b611e2b5760405162461bcd60e51b815260040161060f9061291f565b600054610100900460ff16158015611e4d576000805461ffff19166101011790555b611dd261254e565b6106fb8282610b61565b6000336040516331a9108f60e11b8152600481018690529091506000906001600160a01b03871690636352211e9060240160206040518083038186803b158015611ea857600080fd5b505afa158015611ebc573d6000803e3d6000fd5b505050506040513d601f19601f82011682018060405250810190611ee09190612a41565b9050806001600160a01b0316826001600160a01b031614611f435760405162461bcd60e51b815260206004820181905260248201527f4f6e6c7920746865206f776e65722063616e20637265617465206f7264657273604482015260640161060f565b60008411611f935760405162461bcd60e51b815260206004820152601d60248201527f50726963652073686f756c6420626520626967676572207468616e2030000000604482015260640161060f565b611f9e42603c612542565b8311611fbc5760405162461bcd60e51b815260040161060f90612aa4565b60006101306000886001600160a01b03166001600160a01b0316815260200190815260200160002060008781526020019081526020016000206040518060c0016040529081600082015481526020016001820160009054906101000a90046001600160a01b03166001600160a01b03166001600160a01b03168152602001600282015481526020016003820160009054906101000a90046001600160a01b03166001600160a01b03166001600160a01b0316815260200160048201548152602001600582015481525050905084816080018181525050838160a0018181525050806101306000896001600160a01b03166001600160a01b0316815260200190815260200160002060008881526020019081526020016000206000820151816000015560208201518160010160006101000a8154816001600160a01b0302191690836001600160a01b031602179055506040820151816002015560608201518160030160006101000a8154816001600160a01b0302191690836001600160a01b031602179055506080820151816004015560a082015181600501559050507f37de993802f8ab9c75f6d7d3065ba8ab95ce30051219b14251415925e68e0a48816000015186866040516121a1939291909283526020830191909152604082015260600190565b60405180910390a150505050505050565b606060006121c1836002612b10565b6121cc906002612b2f565b67ffffffffffffffff8111156121e4576121e46126cb565b6040519080825280601f01601f19166020018201604052801561220e576020820181803683370190505b509050600360fc1b8160008151811061222957612229612b47565b60200101906001600160f81b031916908160001a905350600f60fb1b8160018151811061225857612258612b47565b60200101906001600160f81b031916908160001a905350600061227c846002612b10565b612287906001612b2f565b90505b60018111156122ff576f181899199a1a9b1b9c1cb0b131b232b360811b85600f16601081106122bb576122bb612b47565b1a60f81b8282815181106122d1576122d1612b47565b60200101906001600160f81b031916908160001a90535060049490941c936122f881612b5d565b905061228a565b5083156115c65760405162461bcd60e51b815260206004820181905260248201527f537472696e67733a20686578206c656e67746820696e73756666696369656e74604482015260640161060f565b803b6123b25760405162461bcd60e51b815260206004820152602d60248201527f455243313936373a206e657720696d706c656d656e746174696f6e206973206e60448201526c1bdd08184818dbdb9d1c9858dd609a1b606482015260840161060f565b7f360894a13ba1a3210667c828492db98dca3e2076cc3735a920a3ca505d382bbc80546001600160a01b0319166001600160a01b0392909216919091179055565b6060823b6124525760405162461bcd60e51b815260206004820152602660248201527f416464726573733a2064656c65676174652063616c6c20746f206e6f6e2d636f6044820152651b9d1c9858dd60d21b606482015260840161060f565b600080846001600160a01b03168460405161246d9190612b74565b600060405180830381855af49150503d80600081146124a8576040519150601f19603f3d011682016040523d82523d6000602084013e6124ad565b606091505b50915091506124d58282604051806060016040528060278152602001612bca602791396125b8565b95945050505050565b6124e78161234e565b6040516001600160a01b038216907fbc7cd75a20ee27fd9adebab32041f755214dbc6bffa90cc0225b39da2e5c2d3b90600090a250565b60006115c68284612b10565b60006115c68284612b90565b60006115c68284612bb2565b60006115c68284612b2f565b600054610100900460ff1680612567575060005460ff16155b6125835760405162461bcd60e51b815260040161060f9061291f565b600054610100900460ff16158015611de2576000805461ffff191661010117905580156107c5576000805461ff001916905550565b606083156125c75750816115c6565b8251156125d75782518084602001fd5b8160405162461bcd60e51b815260040161060f9190612a0e565b60006020828403121561260357600080fd5b81356001600160e01b0319811681146115c657600080fd5b60006020828403121561262d57600080fd5b5035919050565b6001600160a01b03811681146107c557600080fd5b6000806040838503121561265c57600080fd5b82359150602083013561266e81612634565b809150509250929050565b60006020828403121561268b57600080fd5b81356115c681612634565b6000806000606084860312156126ab57600080fd5b83356126b681612634565b95602085013595506040909401359392505050565b634e487b7160e01b600052604160045260246000fd5b600080604083850312156126f457600080fd5b82356126ff81612634565b9150602083013567ffffffffffffffff8082111561271c57600080fd5b818501915085601f83011261273057600080fd5b813581811115612742576127426126cb565b604051601f8201601f19908116603f0116810190838211818310171561276a5761276a6126cb565b8160405282815288602084870101111561278357600080fd5b8260208601602083013760006020848301015280955050505050509250929050565b600080604083850312156127b857600080fd5b82356127c381612634565b946020939093013593505050565b600080600080608085870312156127e757600080fd5b84356127f281612634565b966020860135965060408601359560600135945092505050565b6000806000806080858703121561282257600080fd5b843561282d81612634565b9350602085013561283d81612634565b9250604085013561284d81612634565b9396929550929360600135925050565b6020808252602c908201527f46756e6374696f6e206d7573742062652063616c6c6564207468726f7567682060408201526b19195b1959d85d1958d85b1b60a21b606082015260800190565b6020808252602c908201527f46756e6374696f6e206d7573742062652063616c6c6564207468726f7567682060408201526b6163746976652070726f787960a01b606082015260800190565b60208082526010908201526f14185d5cd8589b194e881c185d5cd95960821b604082015260600190565b6020808252602e908201527f496e697469616c697a61626c653a20636f6e747261637420697320616c72656160408201526d191e481a5b9a5d1a585b1a5e995960921b606082015260800190565b60005b83811015612988578181015183820152602001612970565b838111156107f65750506000910152565b7f416363657373436f6e74726f6c3a206163636f756e74200000000000000000008152600083516129d181601785016020880161296d565b7001034b99036b4b9b9b4b733903937b6329607d1b6017918401918201528351612a0281602884016020880161296d565b01602801949350505050565b6020815260008251806020840152612a2d81604085016020870161296d565b601f01601f19169190910160400192915050565b600060208284031215612a5357600080fd5b81516115c681612634565b6001600160a01b039384168152919092166020820152604081019190915260600190565b600060208284031215612a9457600080fd5b815180151581146115c657600080fd5b60208082526036908201527f5075626c69636174696f6e2073686f756c64206265206d6f7265207468616e2060408201527531206d696e75746520696e207468652066757475726560501b606082015260800190565b634e487b7160e01b600052601160045260246000fd5b6000816000190483118215151615612b2a57612b2a612afa565b500290565b60008219821115612b4257612b42612afa565b500190565b634e487b7160e01b600052603260045260246000fd5b600081612b6c57612b6c612afa565b506000190190565b60008251612b8681846020870161296d565b9190910192915050565b600082612bad57634e487b7160e01b600052601260045260246000fd5b500490565b600082821015612bc457612bc4612afa565b50039056fe416464726573733a206c6f772d6c6576656c2064656c65676174652063616c6c206661696c6564f5eb84615c2a00ecaf817d13794ebd6299c9e01c395bf4018453f13f577f5449a2646970667358221220966a5ad3dba22604f90e9ffd76e4c0d535f7ec6980ac5cded820d959ed2ab08d64736f6c63430008090033",
  "immutableReferences": {
    "1023": [
      {
        "length": 32,
        "start": 1802
      },
      {
        "length": 32,
        "start": 1866
      },
      {
        "length": 32,
        "start": 2055
      },
      {
        "length": 32,
        "start": 2119
      }
    ]
  },
  "source": "// SPDX-License-Identifier: MIT\npragma solidity 0.8.9;\n\n/// .\n\nimport \"@openzeppelin/contracts/token/ERC721/IERC721.sol\";\nimport \"@openzeppelin/contracts-upgradeable/access/AccessControlUpgradeable.sol\";\nimport \"@openzeppelin/contracts-upgradeable/proxy/utils/Initializable.sol\";\nimport \"@openzeppelin/contracts-upgradeable/proxy/utils/UUPSUpgradeable.sol\";\nimport \"@openzeppelin/contracts-upgradeable/security/PausableUpgradeable.sol\";\nimport \"@openzeppelin/contracts-upgradeable/utils/CountersUpgradeable.sol\";\nimport \"@openzeppelin/contracts-upgradeable/utils/math/SafeMathUpgradeable.sol\";\nimport \"@openzeppelin/contracts-upgradeable/utils/AddressUpgradeable.sol\";\nimport \"./MarketplaceStorage.sol\";\nimport \"./IMELD.sol\";\n\ncontract Marketplace is\n    Initializable,\n    AccessControlUpgradeable,\n    PausableUpgradeable,\n    UUPSUpgradeable,\n    MarketplaceStorage\n{\n    using AddressUpgradeable for address;\n    using SafeMathUpgradeable for uint256;\n\n    function initialize(\n        // MELD \n        IERC20MELD _acceptedToken,\n        address _officialWallet,\n        address _foundationWallet,\n        // \n        uint256 _ownerCutPerMillion\n    ) public initializer {\n        __UUPSUpgradeable_init();\n        __AccessControl_init();\n        _setupRole(DEFAULT_ADMIN_ROLE, msg.sender);\n        _setupRole(UPGRADER_ROLE, msg.sender);\n        _setupRole(GM_ROLE, msg.sender);\n\n        // Fee init\n        setOwnerCutPerMillion(_ownerCutPerMillion);\n        setPublicationFee(0);\n        acceptedToken = _acceptedToken;\n        officialWallet = _officialWallet;\n        foundationWallet = _foundationWallet;\n    }\n\n    function _authorizeUpgrade(address newImplementation)\n        internal\n        override\n        onlyRole(UPGRADER_ROLE)\n    {}\n\n    // \n    function setPublicationFee(uint256 _publicationFee)\n        public\n        onlyRole(GM_ROLE)\n    {\n        publicationFeeInWei = _publicationFee;\n        emit ChangedPublicationFee(publicationFeeInWei);\n    }\n\n    // \n    // 50000 = 5%\n    // 500000 = 50%\n    function setOwnerCutPerMillion(uint256 _ownerCutPerMillion)\n        public\n        onlyRole(GM_ROLE)\n    {\n        require(\n            _ownerCutPerMillion < 1000000,\n            \"The owner cut should be between 0 and 999,999\"\n        );\n\n        ownerCutPerMillion = _ownerCutPerMillion;\n        emit ChangedOwnerCutPerMillion(ownerCutPerMillion);\n    }\n\n    // \n    function createOrder(\n        IERC721 nftAddress,\n        uint256 assetId,\n        uint256 priceInWei,\n        uint256 expiresAt\n    ) public whenNotPaused {\n        _createOrder(nftAddress, assetId, priceInWei, expiresAt);\n    }\n\n    // \n    function cancelOrder(IERC721 nftAddress, uint256 assetId)\n        public\n        whenNotPaused\n    {\n        _cancelOrder(nftAddress, assetId);\n    }\n\n    // \n    function safeExecuteOrder(\n        IERC721 nftAddress,\n        uint256 assetId,\n        uint256 price\n    ) public whenNotPaused {\n        _executeOrder(nftAddress, assetId, price);\n    }\n\n    // \n    function executeOrder(\n        IERC721 nftAddress,\n        uint256 assetId,\n        uint256 price\n    ) public whenNotPaused {\n        _executeOrder(nftAddress, assetId, price);\n    }\n\n    function updateOrder(\n        IERC721 nft,\n        uint256 assetId,\n        uint256 priceInWei,\n        uint256 expiresAt\n    ) public whenNotPaused {\n        _updateOrder(nft, assetId, priceInWei, expiresAt);\n    }\n\n    function _updateOrder(\n        IERC721 nft,\n        uint256 assetId,\n        uint256 priceInWei,\n        uint256 expiresAt\n    ) internal {\n        address sender = _msgSender();\n        address assetOwner = nft.ownerOf(assetId);\n        require(sender == assetOwner, \"Only the owner can create orders\");\n        require(priceInWei > 0, \"Price should be bigger than 0\");\n        require(\n            expiresAt > block.timestamp.add(1 minutes),\n            \"Publication should be more than 1 minute in the future\"\n        );\n\n        Order memory order = orderByAssetId[nft][assetId];\n        order.price = priceInWei;\n        order.expiresAt = expiresAt;\n        orderByAssetId[nft][assetId] = order;\n\n        emit OrderUpdated(order.id, priceInWei, expiresAt);\n    }\n\n    // \n    function _createOrder(\n        IERC721 nftAddress,\n        uint256 assetId,\n        uint256 priceInWei,\n        uint256 expiresAt\n    ) internal {\n        address sender = _msgSender();\n\n        IERC721 nftRegistry = nftAddress;\n        address assetOwner = nftRegistry.ownerOf(assetId);\n\n        require(sender == assetOwner, \"Only the owner can create orders\");\n        require(\n            nftRegistry.getApproved(assetId) == address(this) ||\n                nftRegistry.isApprovedForAll(assetOwner, address(this)),\n            \"The contract is not authorized to manage the asset\"\n        );\n        require(priceInWei > 0, \"Price should be bigger than 0\");\n        require(\n            expiresAt > block.timestamp.add(1 minutes),\n            \"Publication should be more than 1 minute in the future\"\n        );\n\n        bytes32 orderId = keccak256(\n            abi.encodePacked(\n                block.timestamp,\n                assetOwner,\n                assetId,\n                nftAddress,\n                priceInWei\n            )\n        );\n\n        orderByAssetId[nftAddress][assetId] = Order({\n            id: orderId,\n            seller: assetOwner,\n            assetId: assetId,\n            nftAddress: nftAddress,\n            price: priceInWei,\n            expiresAt: expiresAt\n        });\n\n        // Check if there's a publication fee and\n        // transfer the amount to marketplace owner\n        if (publicationFeeInWei > 0) {\n            require(\n                acceptedToken.transferFrom(\n                    sender,\n                    officialWallet,\n                    publicationFeeInWei\n                ),\n                \"Transfering the publication fee to the Marketplace owner failed\"\n            );\n        }\n\n        emit OrderCreated(\n            orderId,\n            assetId,\n            assetOwner,\n            nftAddress,\n            priceInWei,\n            expiresAt\n        );\n    }\n\n    // \n    function _cancelOrder(IERC721 nftAddress, uint256 assetId)\n        internal\n        returns (Order memory)\n    {\n        address sender = _msgSender();\n        Order memory order = orderByAssetId[nftAddress][assetId];\n\n        require(order.id != 0, \"Asset not published\");\n\n        // \n        // GM\n        require(\n            order.seller == sender || hasRole(GM_ROLE, sender),\n            \"Unauthorized user\"\n        );\n\n        bytes32 orderId = order.id;\n        address orderSeller = order.seller;\n        IERC721 orderNftAddress = order.nftAddress;\n        delete orderByAssetId[nftAddress][assetId];\n\n        emit OrderCancelled(orderId, assetId, orderSeller, orderNftAddress);\n\n        return order;\n    }\n\n    // \n    function _executeOrder(\n        IERC721 nftAddress,\n        uint256 assetId,\n        uint256 price\n    ) internal returns (Order memory) {\n        address sender = _msgSender();\n\n        IERC721 nftRegistry = nftAddress;\n\n        Order memory order = orderByAssetId[nftAddress][assetId];\n\n        require(order.id != 0, \"Asset not published\");\n\n        address seller = order.seller;\n\n        require(seller != address(0), \"Invalid address\");\n        require(seller != sender, \"Unauthorized user\");\n        require(order.price == price, \"The price is not correct\");\n        require(block.timestamp < order.expiresAt, \"The order expired\");\n        require(\n            seller == nftRegistry.ownerOf(assetId),\n            \"The seller is no longer the owner\"\n        );\n\n        uint256 saleShareAmount = 0;\n\n        bytes32 orderId = order.id;\n        delete orderByAssetId[nftAddress][assetId];\n\n        if (ownerCutPerMillion > 0) {\n            // Calculate sale share\n            saleShareAmount = price.mul(ownerCutPerMillion).div(1000000);\n\n            // 40% burn in handling fee\n            uint256 burnAmount = saleShareAmount.mul(40).div(100);\n\n            // The other 40% is held by the Foundation\n            uint256 foundationAmount = saleShareAmount.mul(40).div(100);\n\n            // The last 20% are official earnings\n            uint256 officialAmount = saleShareAmount.mul(20).div(100);\n\n            acceptedToken.burnFrom(sender, burnAmount);\n            require(\n                acceptedToken.transferFrom(\n                    sender,\n                    foundationWallet,\n                    foundationAmount\n                ),\n                \"Handling fee transfer to foundationWallet failure\"\n            );\n            require(\n                acceptedToken.transferFrom(\n                    sender,\n                    officialWallet,\n                    officialAmount\n                ),\n                \"Handling fee transfer to officialWallet to off failure\"\n            );\n        }\n\n        // Transfer sale amount to seller\n        require(\n            acceptedToken.transferFrom(\n                sender,\n                seller,\n                price.sub(saleShareAmount)\n            ),\n            \"Transfering the sale amount to the seller failed\"\n        );\n\n        // Transfer asset owner\n        nftRegistry.safeTransferFrom(seller, sender, assetId);\n\n        emit OrderSuccessful(\n            orderId,\n            assetId,\n            seller,\n            nftAddress,\n            price,\n            sender\n        );\n\n        return order;\n    }\n}\n",
  "sourcePath": "/Users/alberthuang/code/icw/meland/contracts/Marketplace.sol",
  "compiler": {
    "name": "solc",
    "version": "0.8.9+commit.e5eed63a.Emscripten.clang"
  },
  "schemaVersion": "3.4.3",
  "updatedAt": "2021-12-07T05:18:47.626Z",
  "devdoc": {
    "kind": "dev",
    "methods": {
      "getRoleAdmin(bytes32)": {
        "details": "Returns the admin role that controls `role`. See {grantRole} and {revokeRole}. To change a role's admin, use {_setRoleAdmin}."
      },
      "grantRole(bytes32,address)": {
        "details": "Grants `role` to `account`. If `account` had not been already granted `role`, emits a {RoleGranted} event. Requirements: - the caller must have ``role``'s admin role."
      },
      "hasRole(bytes32,address)": {
        "details": "Returns `true` if `account` has been granted `role`."
      },
      "paused()": {
        "details": "Returns true if the contract is paused, and false otherwise."
      },
      "renounceRole(bytes32,address)": {
        "details": "Revokes `role` from the calling account. Roles are often managed via {grantRole} and {revokeRole}: this function's purpose is to provide a mechanism for accounts to lose their privileges if they are compromised (such as when a trusted device is misplaced). If the calling account had been revoked `role`, emits a {RoleRevoked} event. Requirements: - the caller must be `account`."
      },
      "revokeRole(bytes32,address)": {
        "details": "Revokes `role` from `account`. If `account` had been granted `role`, emits a {RoleRevoked} event. Requirements: - the caller must have ``role``'s admin role."
      },
      "supportsInterface(bytes4)": {
        "details": "See {IERC165-supportsInterface}."
      },
      "upgradeTo(address)": {
        "details": "Upgrade the implementation of the proxy to `newImplementation`. Calls {_authorizeUpgrade}. Emits an {Upgraded} event."
      },
      "upgradeToAndCall(address,bytes)": {
        "details": "Upgrade the implementation of the proxy to `newImplementation`, and subsequently execute the function call encoded in `data`. Calls {_authorizeUpgrade}. Emits an {Upgraded} event."
      }
    },
    "version": 1
  },
  "userdoc": {
    "kind": "user",
    "methods": {},
    "version": 1
  }
}