{
  "contractName": "MarketplaceStorage",
  "abi": [
    {
      "anonymous": false,
      "inputs": [
        {
          "indexed": false,
          "internalType": "uint256",
          "name": "ownerCutPerMillion",
          "type": "uint256"
        }
      ],
      "name": "ChangedOwnerCutPerMillion",
      "type": "event"
    },
    {
      "anonymous": false,
      "inputs": [
        {
          "indexed": false,
          "internalType": "uint256",
          "name": "publicationFee",
          "type": "uint256"
        }
      ],
      "name": "ChangedPublicationFee",
      "type": "event"
    },
    {
      "anonymous": false,
      "inputs": [
        {
          "indexed": false,
          "internalType": "bytes32",
          "name": "id",
          "type": "bytes32"
        },
        {
          "indexed": true,
          "internalType": "uint256",
          "name": "assetId",
          "type": "uint256"
        },
        {
          "indexed": true,
          "internalType": "address",
          "name": "seller",
          "type": "address"
        },
        {
          "components": [
            {
              "internalType": "contract IERC1155",
              "name": "erc1155",
              "type": "address"
            },
            {
              "internalType": "contract IERC721",
              "name": "erc721",
              "type": "address"
            }
          ],
          "indexed": false,
          "internalType": "struct MarketplaceStorage.ERC721Or1155",
          "name": "nft",
          "type": "tuple"
        }
      ],
      "name": "OrderCancelled",
      "type": "event"
    },
    {
      "anonymous": false,
      "inputs": [
        {
          "indexed": false,
          "internalType": "bytes32",
          "name": "id",
          "type": "bytes32"
        },
        {
          "indexed": true,
          "internalType": "uint256",
          "name": "assetId",
          "type": "uint256"
        },
        {
          "indexed": true,
          "internalType": "address",
          "name": "seller",
          "type": "address"
        },
        {
          "components": [
            {
              "internalType": "contract IERC1155",
              "name": "erc1155",
              "type": "address"
            },
            {
              "internalType": "contract IERC721",
              "name": "erc721",
              "type": "address"
            }
          ],
          "indexed": false,
          "internalType": "struct MarketplaceStorage.ERC721Or1155",
          "name": "nft",
          "type": "tuple"
        },
        {
          "indexed": false,
          "internalType": "uint256",
          "name": "priceInWei",
          "type": "uint256"
        },
        {
          "indexed": false,
          "internalType": "uint256",
          "name": "expiresAt",
          "type": "uint256"
        }
      ],
      "name": "OrderCreated",
      "type": "event"
    },
    {
      "anonymous": false,
      "inputs": [
        {
          "indexed": false,
          "internalType": "bytes32",
          "name": "id",
          "type": "bytes32"
        },
        {
          "indexed": true,
          "internalType": "uint256",
          "name": "assetId",
          "type": "uint256"
        },
        {
          "indexed": true,
          "internalType": "address",
          "name": "seller",
          "type": "address"
        },
        {
          "components": [
            {
              "internalType": "contract IERC1155",
              "name": "erc1155",
              "type": "address"
            },
            {
              "internalType": "contract IERC721",
              "name": "erc721",
              "type": "address"
            }
          ],
          "indexed": false,
          "internalType": "struct MarketplaceStorage.ERC721Or1155",
          "name": "nft",
          "type": "tuple"
        },
        {
          "indexed": false,
          "internalType": "uint256",
          "name": "totalPrice",
          "type": "uint256"
        },
        {
          "indexed": true,
          "internalType": "address",
          "name": "buyer",
          "type": "address"
        }
      ],
      "name": "OrderSuccessful",
      "type": "event"
    },
    {
      "anonymous": false,
      "inputs": [
        {
          "indexed": false,
          "internalType": "bytes32",
          "name": "id",
          "type": "bytes32"
        },
        {
          "indexed": false,
          "internalType": "uint256",
          "name": "priceInWei",
          "type": "uint256"
        },
        {
          "indexed": false,
          "internalType": "uint256",
          "name": "expiresAt",
          "type": "uint256"
        }
      ],
      "name": "OrderUpdated",
      "type": "event"
    },
    {
      "inputs": [],
      "name": "GM_ROLE",
      "outputs": [
        {
          "internalType": "bytes32",
          "name": "",
          "type": "bytes32"
        }
      ],
      "stateMutability": "view",
      "type": "function"
    },
    {
      "inputs": [],
      "name": "UPGRADER_ROLE",
      "outputs": [
        {
          "internalType": "bytes32",
          "name": "",
          "type": "bytes32"
        }
      ],
      "stateMutability": "view",
      "type": "function"
    },
    {
      "inputs": [],
      "name": "acceptedToken",
      "outputs": [
        {
          "internalType": "contract IERC20MELD",
          "name": "",
          "type": "address"
        }
      ],
      "stateMutability": "view",
      "type": "function"
    },
    {
      "inputs": [],
      "name": "foundationWallet",
      "outputs": [
        {
          "internalType": "address",
          "name": "",
          "type": "address"
        }
      ],
      "stateMutability": "view",
      "type": "function"
    },
    {
      "inputs": [],
      "name": "officialWallet",
      "outputs": [
        {
          "internalType": "address",
          "name": "",
          "type": "address"
        }
      ],
      "stateMutability": "view",
      "type": "function"
    },
    {
      "inputs": [
        {
          "internalType": "address",
          "name": "",
          "type": "address"
        },
        {
          "internalType": "uint256",
          "name": "",
          "type": "uint256"
        }
      ],
      "name": "orderByAssetId",
      "outputs": [
        {
          "internalType": "bytes32",
          "name": "id",
          "type": "bytes32"
        },
        {
          "internalType": "address",
          "name": "seller",
          "type": "address"
        },
        {
          "internalType": "uint256",
          "name": "assetId",
          "type": "uint256"
        },
        {
          "components": [
            {
              "internalType": "contract IERC1155",
              "name": "erc1155",
              "type": "address"
            },
            {
              "internalType": "contract IERC721",
              "name": "erc721",
              "type": "address"
            }
          ],
          "internalType": "struct MarketplaceStorage.ERC721Or1155",
          "name": "nft",
          "type": "tuple"
        },
        {
          "internalType": "uint256",
          "name": "price",
          "type": "uint256"
        },
        {
          "internalType": "uint256",
          "name": "expiresAt",
          "type": "uint256"
        }
      ],
      "stateMutability": "view",
      "type": "function"
    },
    {
      "inputs": [],
      "name": "ownerCutPerMillion",
      "outputs": [
        {
          "internalType": "uint256",
          "name": "",
          "type": "uint256"
        }
      ],
      "stateMutability": "view",
      "type": "function"
    },
    {
      "inputs": [],
      "name": "publicationFeeInWei",
      "outputs": [
        {
          "internalType": "uint256",
          "name": "",
          "type": "uint256"
        }
      ],
      "stateMutability": "view",
      "type": "function"
    }
  ],
  "bytecode": "0x608060405234801561001057600080fd5b50610278806100206000396000f3fe608060405234801561001057600080fd5b50600436106100885760003560e01c8063a01f79d41161005b578063a01f79d414610118578063ae4f119814610121578063e61f38511461012a578063f72c0d8b146101e357600080fd5b8063088025d31461008d57806330c7be2c146100bd578063451c3d80146100f25780636b7ae8dc14610105575b600080fd5b6002546100a0906001600160a01b031681565b6040516001600160a01b0390911681526020015b60405180910390f35b6100e47ff5eb84615c2a00ecaf817d13794ebd6299c9e01c395bf4018453f13f577f544981565b6040519081526020016100b4565b6000546100a0906001600160a01b031681565b6001546100a0906001600160a01b031681565b6100e460045481565b6100e460055481565b61019961013836600461020a565b60036020818152600093845260408085208252928452928290208054600182015460028301548551808701909652938301546001600160a01b0390811686526004840154811696860196909652600583015460069093015491951693919086565b604080519687526001600160a01b03958616602080890191909152908701949094528251851660608701529190920151909216608084015260a083015260c082015260e0016100b4565b6100e47f189ab7a9244df0848122154315af71fe140f3db0fe014031783b0946b8c9d2e381565b6000806040838503121561021d57600080fd5b82356001600160a01b038116811461023457600080fd5b94602093909301359350505056fea2646970667358221220321b09aa118bebbeb4458cd97de1091c28fe860b23063da1d342b623b3a3924164736f6c63430008090033",
  "immutableReferences": {},
  "source": "// SPDX-License-Identifier: MIT\npragma solidity 0.8.9;\n\nimport \"@openzeppelin/contracts/token/ERC721/IERC721.sol\";\nimport \"@openzeppelin/contracts/token/ERC1155/IERC1155.sol\";\nimport \"./IMELD.sol\";\n\ncontract MarketplaceStorage {\n  // MELD Token.\n  IERC20MELD public acceptedToken;\n\n  // 40% ownerCutPerMillion\n  address public foundationWallet;\n\n  // 20% ownerCutPerMillion\n  address public officialWallet;\n\n  bytes32 public constant UPGRADER_ROLE = keccak256(\"UPGRADER_ROLE\");\n\n  bytes32 public constant GM_ROLE = keccak256(\"GM_ROLE\");\n\n  struct ERC721Or1155 {\n    IERC1155 erc1155;\n    IERC721 erc721;\n  }\n\n  struct Order {\n    // Order ID\n    bytes32 id;\n\n    address seller;\n\n    // token id\n    uint256 assetId;\n\n    ERC721Or1155 nft;\n\n    uint256 price;\n\n    uint256 expiresAt;\n  }\n\n  // nft address -> (nft token id -> Order)\n  mapping (address => mapping(uint256 => Order)) public orderByAssetId;\n\n  // \n  uint256 public ownerCutPerMillion;\n\n  // uploaded fee\n  uint256 public publicationFeeInWei;\n\n  // EVENTS\n  event OrderCreated(\n    bytes32 id,\n    uint256 indexed assetId,\n    address indexed seller,\n    ERC721Or1155 nft,\n    uint256 priceInWei,\n    uint256 expiresAt\n  );\n  event OrderSuccessful(\n    bytes32 id,\n    uint256 indexed assetId,\n    address indexed seller,\n    ERC721Or1155 nft,\n    uint256 totalPrice,\n    address indexed buyer\n  );\n  event OrderCancelled(\n    bytes32 id,\n    uint256 indexed assetId,\n    address indexed seller,\n    ERC721Or1155 nft\n  );\n  event OrderUpdated(\n    bytes32 id,\n    uint256 priceInWei,\n    uint256 expiresAt\n  );\n\n  event ChangedPublicationFee(uint256 publicationFee);\n  \n  event ChangedOwnerCutPerMillion(uint256 ownerCutPerMillion);\n}",
  "sourcePath": "/Users/alberthuang/code/icw/meland/contracts/MarketplaceStorage.sol",
  "compiler": {
    "name": "solc",
    "version": "0.8.9+commit.e5eed63a.Emscripten.clang"
  },
  "schemaVersion": "3.4.3",
  "updatedAt": "2021-12-26T23:24:40.593Z",
  "devdoc": {
    "kind": "dev",
    "methods": {},
    "version": 1
  },
  "userdoc": {
    "kind": "user",
    "methods": {},
    "version": 1
  }
}