{"contractName":"Meland1155MELDFuture","abi":[{"anonymous":false,"inputs":[{"indexed":false,"internalType":"address","name":"previousAdmin","type":"address"},{"indexed":false,"internalType":"address","name":"newAdmin","type":"address"}],"name":"AdminChanged","type":"event"},{"anonymous":false,"inputs":[{"indexed":true,"internalType":"address","name":"account","type":"address"},{"indexed":true,"internalType":"address","name":"operator","type":"address"},{"indexed":false,"internalType":"bool","name":"approved","type":"bool"}],"name":"ApprovalForAll","type":"event"},{"anonymous":false,"inputs":[{"indexed":true,"internalType":"address","name":"beacon","type":"address"}],"name":"BeaconUpgraded","type":"event"},{"anonymous":false,"inputs":[{"indexed":true,"internalType":"uint256","name":"id","type":"uint256"},{"indexed":true,"internalType":"address","name":"beneficiary","type":"address"},{"indexed":false,"internalType":"uint256","name":"amount","type":"uint256"}],"name":"Claim","type":"event"},{"anonymous":false,"inputs":[{"indexed":true,"internalType":"bytes32","name":"role","type":"bytes32"},{"indexed":true,"internalType":"bytes32","name":"previousAdminRole","type":"bytes32"},{"indexed":true,"internalType":"bytes32","name":"newAdminRole","type":"bytes32"}],"name":"RoleAdminChanged","type":"event"},{"anonymous":false,"inputs":[{"indexed":true,"internalType":"bytes32","name":"role","type":"bytes32"},{"indexed":true,"internalType":"address","name":"account","type":"address"},{"indexed":true,"internalType":"address","name":"sender","type":"address"}],"name":"RoleGranted","type":"event"},{"anonymous":false,"inputs":[{"indexed":true,"internalType":"bytes32","name":"role","type":"bytes32"},{"indexed":true,"internalType":"address","name":"account","type":"address"},{"indexed":true,"internalType":"address","name":"sender","type":"address"}],"name":"RoleRevoked","type":"event"},{"anonymous":false,"inputs":[{"indexed":true,"internalType":"address","name":"operator","type":"address"},{"indexed":true,"internalType":"address","name":"from","type":"address"},{"indexed":true,"internalType":"address","name":"to","type":"address"},{"indexed":false,"internalType":"uint256[]","name":"ids","type":"uint256[]"},{"indexed":false,"internalType":"uint256[]","name":"values","type":"uint256[]"}],"name":"TransferBatch","type":"event"},{"anonymous":false,"inputs":[{"indexed":true,"internalType":"address","name":"operator","type":"address"},{"indexed":true,"internalType":"address","name":"from","type":"address"},{"indexed":true,"internalType":"address","name":"to","type":"address"},{"indexed":false,"internalType":"uint256","name":"id","type":"uint256"},{"indexed":false,"internalType":"uint256","name":"value","type":"uint256"}],"name":"TransferSingle","type":"event"},{"anonymous":false,"inputs":[{"indexed":false,"internalType":"string","name":"value","type":"string"},{"indexed":true,"internalType":"uint256","name":"id","type":"uint256"}],"name":"URI","type":"event"},{"anonymous":false,"inputs":[{"indexed":true,"internalType":"address","name":"implementation","type":"address"}],"name":"Upgraded","type":"event"},{"inputs":[],"name":"DEFAULT_ADMIN_ROLE","outputs":[{"internalType":"bytes32","name":"","type":"bytes32"}],"stateMutability":"view","type":"function"},{"inputs":[],"name":"GM_ROLE","outputs":[{"internalType":"bytes32","name":"","type":"bytes32"}],"stateMutability":"view","type":"function"},{"inputs":[],"name":"MINTER_ROLE","outputs":[{"internalType":"bytes32","name":"","type":"bytes32"}],"stateMutability":"view","type":"function"},{"inputs":[],"name":"UPGRADER_ROLE","outputs":[{"internalType":"bytes32","name":"","type":"bytes32"}],"stateMutability":"view","type":"function"},{"inputs":[{"internalType":"address","name":"account","type":"address"},{"internalType":"uint256","name":"id","type":"uint256"}],"name":"balanceOf","outputs":[{"internalType":"uint256","name":"","type":"uint256"}],"stateMutability":"view","type":"function"},{"inputs":[{"internalType":"address[]","name":"accounts","type":"address[]"},{"internalType":"uint256[]","name":"ids","type":"uint256[]"}],"name":"balanceOfBatch","outputs":[{"internalType":"uint256[]","name":"","type":"uint256[]"}],"stateMutability":"view","type":"function"},{"inputs":[{"internalType":"address","name":"account","type":"address"},{"internalType":"uint256","name":"id","type":"uint256"},{"internalType":"uint256","name":"value","type":"uint256"}],"name":"burn","outputs":[],"stateMutability":"nonpayable","type":"function"},{"inputs":[{"internalType":"address","name":"account","type":"address"},{"internalType":"uint256[]","name":"ids","type":"uint256[]"},{"internalType":"uint256[]","name":"values","type":"uint256[]"}],"name":"burnBatch","outputs":[],"stateMutability":"nonpayable","type":"function"},{"inputs":[{"internalType":"uint256","name":"","type":"uint256"}],"name":"futureById","outputs":[{"internalType":"contract IERC20Upgradeable","name":"token","type":"address"},{"internalType":"uint256","name":"unlockAt","type":"uint256"},{"internalType":"uint256","name":"amount","type":"uint256"}],"stateMutability":"view","type":"function"},{"inputs":[{"internalType":"bytes32","name":"role","type":"bytes32"}],"name":"getRoleAdmin","outputs":[{"internalType":"bytes32","name":"","type":"bytes32"}],"stateMutability":"view","type":"function"},{"inputs":[{"internalType":"bytes32","name":"role","type":"bytes32"},{"internalType":"address","name":"account","type":"address"}],"name":"grantRole","outputs":[],"stateMutability":"nonpayable","type":"function"},{"inputs":[{"internalType":"bytes32","name":"role","type":"bytes32"},{"internalType":"address","name":"account","type":"address"}],"name":"hasRole","outputs":[{"internalType":"bool","name":"","type":"bool"}],"stateMutability":"view","type":"function"},{"inputs":[{"internalType":"bytes32","name":"role","type":"bytes32"},{"internalType":"address","name":"account","type":"address"}],"name":"renounceRole","outputs":[],"stateMutability":"nonpayable","type":"function"},{"inputs":[{"internalType":"bytes32","name":"role","type":"bytes32"},{"internalType":"address","name":"account","type":"address"}],"name":"revokeRole","outputs":[],"stateMutability":"nonpayable","type":"function"},{"inputs":[{"internalType":"address","name":"from","type":"address"},{"internalType":"address","name":"to","type":"address"},{"internalType":"uint256[]","name":"ids","type":"uint256[]"},{"internalType":"uint256[]","name":"amounts","type":"uint256[]"},{"internalType":"bytes","name":"data","type":"bytes"}],"name":"safeBatchTransferFrom","outputs":[],"stateMutability":"nonpayable","type":"function"},{"inputs":[{"internalType":"address","name":"from","type":"address"},{"internalType":"address","name":"to","type":"address"},{"internalType":"uint256","name":"id","type":"uint256"},{"internalType":"uint256","name":"amount","type":"uint256"},{"internalType":"bytes","name":"data","type":"bytes"}],"name":"safeTransferFrom","outputs":[],"stateMutability":"nonpayable","type":"function"},{"inputs":[{"internalType":"address","name":"operator","type":"address"},{"internalType":"bool","name":"approved","type":"bool"}],"name":"setApprovalForAll","outputs":[],"stateMutability":"nonpayable","type":"function"},{"inputs":[{"internalType":"contract IERC20Upgradeable","name":"","type":"address"}],"name":"totalSupplyByERC20","outputs":[{"internalType":"uint256","name":"","type":"uint256"}],"stateMutability":"view","type":"function"},{"inputs":[{"internalType":"address","name":"newImplementation","type":"address"}],"name":"upgradeTo","outputs":[],"stateMutability":"nonpayable","type":"function"},{"inputs":[{"internalType":"address","name":"newImplementation","type":"address"},{"internalType":"bytes","name":"data","type":"bytes"}],"name":"upgradeToAndCall","outputs":[],"stateMutability":"payable","type":"function"},{"inputs":[{"internalType":"string","name":"_uri","type":"string"}],"name":"initialize","outputs":[],"stateMutability":"nonpayable","type":"function"},{"inputs":[{"internalType":"address","name":"_owner","type":"address"},{"internalType":"address","name":"_operator","type":"address"}],"name":"isApprovedForAll","outputs":[{"internalType":"bool","name":"isOperator","type":"bool"}],"stateMutability":"view","type":"function"},{"inputs":[{"internalType":"string","name":"newuri","type":"string"}],"name":"setURI","outputs":[],"stateMutability":"nonpayable","type":"function"},{"inputs":[{"internalType":"uint256","name":"id","type":"uint256"}],"name":"uri","outputs":[{"internalType":"string","name":"","type":"string"}],"stateMutability":"view","type":"function"},{"inputs":[{"internalType":"contract IERC20Upgradeable","name":"token","type":"address"},{"internalType":"address","name":"to","type":"address"},{"internalType":"uint256","name":"amount","type":"uint256"},{"internalType":"uint8","name":"count","type":"uint8"},{"internalType":"uint256","name":"lockseconds","type":"uint256"}],"name":"mintBatch","outputs":[],"stateMutability":"nonpayable","type":"function"},{"inputs":[{"internalType":"contract MelandTier","name":"_tierAddress","type":"address"}],"name":"setMelandTier","outputs":[],"stateMutability":"nonpayable","type":"function"},{"inputs":[{"internalType":"uint256","name":"id","type":"uint256"}],"name":"claim","outputs":[],"stateMutability":"nonpayable","type":"function"},{"inputs":[{"internalType":"bytes4","name":"interfaceId","type":"bytes4"}],"name":"supportsInterface","outputs":[{"internalType":"bool","name":"","type":"bool"}],"stateMutability":"view","type":"function"}],"bytecode":"0x60a06040523060805234801561001457600080fd5b5060805161393d610045600039600081816108a3015281816108e301528181610c440152610c84015261393d6000f3fe6080604052600436106101b65760003560e01c80636b20c454116100ec578063d547741f1161008a578063f5298aca11610064578063f5298aca14610562578063f62d188814610582578063f70e9a47146105a2578063f72c0d8b146105c257600080fd5b8063d547741f14610502578063e985e9c514610522578063f242432a1461054257600080fd5b8063a085f193116100c6578063a085f19314610479578063a217fddf14610499578063a22cb465146104ae578063d5391393146104ce57600080fd5b80636b20c4541461040b57806390b7d8b11461042b57806391d148541461045957600080fd5b80632f2ff15d116101595780633659cfe6116101335780633659cfe61461038b578063379607f5146103ab5780634e1273f4146103cb5780634f1ef286146103f857600080fd5b80632f2ff15d1461032957806330c7be2c1461034957806336568abe1461036b57600080fd5b80630d62f77f116101955780630d62f77f146102405780630e89341c146102ac578063248a9ca3146102d95780632eb2c2d61461030957600080fd5b8062fdd58e146101bb57806301ffc9a7146101ee57806302fe53051461021e575b600080fd5b3480156101c757600080fd5b506101db6101d6366004612b17565b6105f6565b6040519081526020015b60405180910390f35b3480156101fa57600080fd5b5061020e610209366004612b59565b610692565b60405190151581526020016101e5565b34801561022a57600080fd5b5061023e610239366004612c15565b61069d565b005b34801561024c57600080fd5b5061028761025b366004612c65565b610162602052600090815260409020805460018201546002909201546001600160a01b03909116919083565b604080516001600160a01b0390941684526020840192909252908201526060016101e5565b3480156102b857600080fd5b506102cc6102c7366004612c65565b6106c3565b6040516101e59190612cda565b3480156102e557600080fd5b506101db6102f4366004612c65565b60009081526065602052604090206001015490565b34801561031557600080fd5b5061023e610324366004612da1565b61075c565b34801561033557600080fd5b5061023e610344366004612e4e565b6107f3565b34801561035557600080fd5b506101db6000805160206138e883398151915281565b34801561037757600080fd5b5061023e610386366004612e4e565b61081e565b34801561039757600080fd5b5061023e6103a6366004612e7e565b610898565b3480156103b757600080fd5b5061023e6103c6366004612c65565b610961565b3480156103d757600080fd5b506103eb6103e6366004612e9b565b610b10565b6040516101e59190612fa2565b61023e610406366004612fb5565b610c39565b34801561041757600080fd5b5061023e610426366004612ffa565b610cef565b34801561043757600080fd5b506101db610446366004612e7e565b6101616020526000908152604090205481565b34801561046557600080fd5b5061020e610474366004612e4e565b610d32565b34801561048557600080fd5b5061023e61049436600461306f565b610d5d565b3480156104a557600080fd5b506101db600081565b3480156104ba57600080fd5b5061023e6104c93660046130de565b611148565b3480156104da57600080fd5b506101db7f9f2df0fed2c77648de5860a4cc508cd0818c85b8b8a1ab4ceeef8d981c8956a681565b34801561050e57600080fd5b5061023e61051d366004612e4e565b611153565b34801561052e57600080fd5b5061020e61053d36600461310c565b611179565b34801561054e57600080fd5b5061023e61055d36600461313a565b61118c565b34801561056e57600080fd5b5061023e61057d3660046131a2565b6111d1565b34801561058e57600080fd5b5061023e61059d366004612c15565b611214565b3480156105ae57600080fd5b5061023e6105bd366004612e7e565b6112ee565b3480156105ce57600080fd5b506101db7f189ab7a9244df0848122154315af71fe140f3db0fe014031783b0946b8c9d2e381565b60006001600160a01b0383166106675760405162461bcd60e51b815260206004820152602b60248201527f455243313135353a2062616c616e636520717565727920666f7220746865207a60448201526a65726f206164647265737360a81b60648201526084015b60405180910390fd5b5060008181526097602090815260408083206001600160a01b03861684529091529020545b92915050565b600061068c82611326565b6000805160206138e88339815191526106b68133611366565b6106bf826113ca565b5050565b6000818152610162602090815260409182902082516060818101855282546001600160a01b03168252600183015493820193909352600290910154928101929092529061070f836113dd565b61071c8260400151611471565b6107298360200151611471565b61073286611471565b60405160200161074594939291906131d7565b604051602081830303815290604052915050919050565b6001600160a01b03851633148061077857506107788533611179565b6107df5760405162461bcd60e51b815260206004820152603260248201527f455243313135353a207472616e736665722063616c6c6572206973206e6f74206044820152711bdddb995c881b9bdc88185c1c1c9bdd995960721b606482015260840161065e565b6107ec8585858585611599565b5050505050565b60008281526065602052604090206001015461080f8133611366565b6108198383611746565b505050565b6001600160a01b038116331461088e5760405162461bcd60e51b815260206004820152602f60248201527f416363657373436f6e74726f6c3a2063616e206f6e6c792072656e6f756e636560448201526e103937b632b9903337b91039b2b63360891b606482015260840161065e565b6106bf82826117cc565b306001600160a01b037f00000000000000000000000000000000000000000000000000000000000000001614156108e15760405162461bcd60e51b815260040161065e9061324f565b7f00000000000000000000000000000000000000000000000000000000000000006001600160a01b0316610913611833565b6001600160a01b0316146109395760405162461bcd60e51b815260040161065e9061329b565b61094281611861565b6040805160008082526020820190925261095e9183919061188c565b50565b60008181526101626020908152604091829020825160608101845281546001600160a01b031681526001820154928101839052600290910154928101929092523391906109e35760405162461bcd60e51b815260206004820152601060248201526f199d5d1d5c99481b9bdd08199bdd5b9960821b604482015260640161065e565b42816020015110610a2c5760405162461bcd60e51b8152602060048201526013602482015272199d5d1d5c99481b9bdd081d5b9b1bd8dad959606a1b604482015260640161065e565b610a38828460016119d0565b8051604080830151905163a9059cbb60e01b81526001600160a01b038581166004830152602482019290925291169063a9059cbb90604401602060405180830381600087803b158015610a8a57600080fd5b505af1158015610a9e573d6000803e3d6000fd5b505050506040513d601f19601f82011682018060405250810190610ac291906132e7565b50816001600160a01b0316837f3ed1528b0fdc7c5207c1bf935e34a667e13656b9ed165260c522be0bc544f3038360400151604051610b0391815260200190565b60405180910390a3505050565b60608151835114610b755760405162461bcd60e51b815260206004820152602960248201527f455243313135353a206163636f756e747320616e6420696473206c656e677468604482015268040dad2e6dac2e8c6d60bb1b606482015260840161065e565b600083516001600160401b03811115610b9057610b90612b76565b604051908082528060200260200182016040528015610bb9578160200160208202803683370190505b50905060005b8451811015610c3157610c04858281518110610bdd57610bdd613304565b6020026020010151858381518110610bf757610bf7613304565b60200260200101516105f6565b828281518110610c1657610c16613304565b6020908102919091010152610c2a81613330565b9050610bbf565b509392505050565b306001600160a01b037f0000000000000000000000000000000000000000000000000000000000000000161415610c825760405162461bcd60e51b815260040161065e9061324f565b7f00000000000000000000000000000000000000000000000000000000000000006001600160a01b0316610cb4611833565b6001600160a01b031614610cda5760405162461bcd60e51b815260040161065e9061329b565b610ce382611861565b6106bf8282600161188c565b6001600160a01b038316331480610d0b5750610d0b8333611179565b610d275760405162461bcd60e51b815260040161065e9061334b565b610819838383611ad5565b60009182526065602090815260408084206001600160a01b0393909316845291905290205460ff1690565b600033604051636eb1769f60e11b81526001600160a01b03808316600483015230602483015291925060009188169063dd62ed3e9060440160206040518083038186803b158015610dad57600080fd5b505afa158015610dc1573d6000803e3d6000fd5b505050506040513d601f19601f82011682018060405250810190610de59190613394565b90506000610df68660ff8716611c66565b9050808211610e645760405162461bcd60e51b815260206004820152603460248201527f54686520617070726f76656420616d6f756e74206973206c657373207468616e604482015273081d1a19481c995c5d5a5c995908185b5bdd5b9d60621b606482015260840161065e565b60008560ff1611610eb75760405162461bcd60e51b815260206004820152601f60248201527f5175616e74697479206d7573742062652067726561746572207468616e203000604482015260640161065e565b6040516323b872dd60e01b81526001600160a01b038481166004830152306024830152604482018390528916906323b872dd90606401602060405180830381600087803b158015610f0757600080fd5b505af1158015610f1b573d6000803e3d6000fd5b505050506040513d601f19601f82011682018060405250810190610f3f91906132e7565b5060008560ff166001600160401b03811115610f5d57610f5d612b76565b604051908082528060200260200182016040528015610f86578160200160208202803683370190505b50905060008660ff166001600160401b03811115610fa657610fa6612b76565b604051908082528060200260200182016040528015610fcf578160200160208202803683370190505b50905060005b8760ff168160ff1610156110d157610ff261016080546001019055565b6000610ffe6101605490565b905060405180606001604052808d6001600160a01b0316815260200161102d8a42611c7290919063ffffffff16565b815260209081018c905260008381526101628252604090819020835181546001600160a01b0319166001600160a01b03909116178155918301516001830155919091015160029091015583518190859060ff851690811061109057611090613304565b6020026020010181815250506001838360ff16815181106110b3576110b3613304565b602090810291909101015250806110c9816133ad565b915050610fd5565b506001600160a01b038a16600090815261016160205260409020546110f79084906133cd565b61016160008c6001600160a01b03166001600160a01b031681526020019081526020016000208190555061113c89838360405180602001604052806000815250611c7e565b50505050505050505050565b6106bf338383611e13565b60008281526065602052604090206001015461116f8133611366565b61081983836117cc565b60006111858383611eec565b9392505050565b6001600160a01b0385163314806111a857506111a88533611179565b6111c45760405162461bcd60e51b815260040161065e9061334b565b6107ec8585858585611f67565b6001600160a01b0383163314806111ed57506111ed8333611179565b6112095760405162461bcd60e51b815260040161065e9061334b565b6108198383836119d0565b600054610100900460ff1661122f5760005460ff1615611233565b303b155b6112965760405162461bcd60e51b815260206004820152602e60248201527f496e697469616c697a61626c653a20636f6e747261637420697320616c72656160448201526d191e481a5b9a5d1a585b1a5e995960921b606482015260840161065e565b600054610100900460ff161580156112b8576000805461ffff19166101011790555b6112c182612097565b6112c96120d7565b6112d1612118565b6112d961213f565b80156106bf576000805461ff00191690555050565b6000805160206138e88339815191526113078133611366565b60c980546001600160a01b0319166001600160a01b0384161790555050565b60006001600160e01b03198216636cdb3d1360e11b148061135757506001600160e01b031982166303a24d0760e21b145b8061068c575061068c826121be565b6113708282610d32565b6106bf57611388816001600160a01b031660146121f3565b6113938360206121f3565b6040516020016113a49291906133e5565b60408051601f198184030181529082905262461bcd60e51b825261065e91600401612cda565b80516106bf906099906020840190612a69565b6060609980546113ec9061345a565b80601f01602080910402602001604051908101604052809291908181526020018280546114189061345a565b80156114655780601f1061143a57610100808354040283529160200191611465565b820191906000526020600020905b81548152906001019060200180831161144857829003601f168201915b50505050509050919050565b6060816114955750506040805180820190915260018152600360fc1b602082015290565b8160005b81156114bf57806114a981613330565b91506114b89050600a83613495565b9150611499565b6000816001600160401b038111156114d9576114d9612b76565b6040519080825280601f01601f191660200182016040528015611503576020820181803683370190505b509050815b8515611590576115196001826134b7565b90506000611528600a88613495565b61153390600a6134ce565b61153d90886134b7565b6115489060306134ed565b905060008160f81b90508084848151811061156557611565613304565b60200101906001600160f81b031916908160001a905350611587600a89613495565b97505050611508565b50949350505050565b81518351146115ba5760405162461bcd60e51b815260040161065e90613512565b6001600160a01b0384166115e05760405162461bcd60e51b815260040161065e9061355a565b336115ef81878787878761238e565b60005b84518110156116d857600085828151811061160f5761160f613304565b60200260200101519050600085838151811061162d5761162d613304565b60209081029190910181015160008481526097835260408082206001600160a01b038e16835290935291909120549091508181101561167e5760405162461bcd60e51b815260040161065e9061359f565b60008381526097602090815260408083206001600160a01b038e8116855292528083208585039055908b168252812080548492906116bd9084906133cd565b92505081905550505050806116d190613330565b90506115f2565b50846001600160a01b0316866001600160a01b0316826001600160a01b03167f4a39dc06d4c0dbc64b70af90fd698a233a518aa5d07e595d983b8c0526c8f7fb87876040516117289291906135e9565b60405180910390a461173e818787878787612589565b505050505050565b6117508282610d32565b6106bf5760008281526065602090815260408083206001600160a01b03851684529091529020805460ff191660011790556117883390565b6001600160a01b0316816001600160a01b0316837f2f8788117e7eff1d82e926ec794901d17c78024a50270940304540a733656f0d60405160405180910390a45050565b6117d68282610d32565b156106bf5760008281526065602090815260408083206001600160a01b0385168085529252808320805460ff1916905551339285917ff6391f5c32d9c69d2a47ea670b442974b53935d1edc7fd64eb21e047a839171b9190a45050565b7f360894a13ba1a3210667c828492db98dca3e2076cc3735a920a3ca505d382bbc546001600160a01b031690565b7f189ab7a9244df0848122154315af71fe140f3db0fe014031783b0946b8c9d2e36106bf8133611366565b6000611896611833565b90506118a1846126f4565b6000835111806118ae5750815b156118bf576118bd8484612799565b505b7f4910fdfa16fed3260ed0e7147f7cc6da11a60208b5b9406d12a635614ffd9143805460ff166107ec57805460ff191660011781556040516001600160a01b038316602482015261193e90869060440160408051601f198184030181529190526020810180516001600160e01b0316631b2ce7f360e11b179052612799565b50805460ff1916815561194f611833565b6001600160a01b0316826001600160a01b0316146119c75760405162461bcd60e51b815260206004820152602f60248201527f45524331393637557067726164653a207570677261646520627265616b73206660448201526e75727468657220757067726164657360881b606482015260840161065e565b6107ec85612884565b6001600160a01b0383166119f65760405162461bcd60e51b815260040161065e9061360e565b33611a2581856000611a07876128c4565b611a10876128c4565b6040518060200160405280600081525061238e565b60008381526097602090815260408083206001600160a01b038816845290915290205482811015611a685760405162461bcd60e51b815260040161065e90613651565b60008481526097602090815260408083206001600160a01b03898116808652918452828520888703905582518981529384018890529092908616917fc3d58168c5ae7397731d063d5bbf3d657854427343f4c083240f7aacaa2d0f62910160405180910390a45050505050565b6001600160a01b038316611afb5760405162461bcd60e51b815260040161065e9061360e565b8051825114611b1c5760405162461bcd60e51b815260040161065e90613512565b6000339050611b3f8185600086866040518060200160405280600081525061238e565b60005b8351811015611c07576000848281518110611b5f57611b5f613304565b602002602001015190506000848381518110611b7d57611b7d613304565b60209081029190910181015160008481526097835260408082206001600160a01b038c168352909352919091205490915081811015611bce5760405162461bcd60e51b815260040161065e90613651565b60009283526097602090815260408085206001600160a01b038b1686529091529092209103905580611bff81613330565b915050611b42565b5060006001600160a01b0316846001600160a01b0316826001600160a01b03167f4a39dc06d4c0dbc64b70af90fd698a233a518aa5d07e595d983b8c0526c8f7fb8686604051611c589291906135e9565b60405180910390a450505050565b600061118582846134ce565b600061118582846133cd565b6001600160a01b038416611cde5760405162461bcd60e51b815260206004820152602160248201527f455243313135353a206d696e7420746f20746865207a65726f206164647265736044820152607360f81b606482015260840161065e565b8151835114611cff5760405162461bcd60e51b815260040161065e90613512565b33611d0f8160008787878761238e565b60005b8451811015611dab57838181518110611d2d57611d2d613304565b602002602001015160976000878481518110611d4b57611d4b613304565b602002602001015181526020019081526020016000206000886001600160a01b03166001600160a01b031681526020019081526020016000206000828254611d9391906133cd565b90915550819050611da381613330565b915050611d12565b50846001600160a01b031660006001600160a01b0316826001600160a01b03167f4a39dc06d4c0dbc64b70af90fd698a233a518aa5d07e595d983b8c0526c8f7fb8787604051611dfc9291906135e9565b60405180910390a46107ec81600087878787612589565b816001600160a01b0316836001600160a01b03161415611e875760405162461bcd60e51b815260206004820152602960248201527f455243313135353a2073657474696e6720617070726f76616c20737461747573604482015268103337b91039b2b63360b91b606482015260840161065e565b6001600160a01b03838116600081815260986020908152604080832094871680845294825291829020805460ff191686151590811790915591519182527f17307eab39ab6107e8899845ad3d59bd9653f200f220920489ca2b5937696c319101610b03565b60006001600160a01b03821673207fa8df3a17d96ca7ea4f2893fcdcb78a3041011415611f1b5750600161068c565b60c9546001600160a01b0383811691161415611f395750600161068c565b6001600160a01b0380841660009081526098602090815260408083209386168352929052205460ff16611185565b6001600160a01b038416611f8d5760405162461bcd60e51b815260040161065e9061355a565b33611fac818787611f9d886128c4565b611fa6886128c4565b8761238e565b60008481526097602090815260408083206001600160a01b038a16845290915290205483811015611fef5760405162461bcd60e51b815260040161065e9061359f565b60008581526097602090815260408083206001600160a01b038b811685529252808320878503905590881682528120805486929061202e9084906133cd565b909155505060408051868152602081018690526001600160a01b03808916928a821692918616917fc3d58168c5ae7397731d063d5bbf3d657854427343f4c083240f7aacaa2d0f62910160405180910390a461208e82888888888861290f565b50505050505050565b600054610100900460ff166120be5760405162461bcd60e51b815260040161065e90613695565b6120c66129d9565b6120ce6129d9565b61095e81612a00565b600054610100900460ff166120fe5760405162461bcd60e51b815260040161065e90613695565b6121066129d9565b61210e6129d9565b6121166129d9565b565b600054610100900460ff166121065760405162461bcd60e51b815260040161065e90613695565b6121476120d7565b612152600033611746565b61216a6000805160206138e883398151915233611746565b6121947f9f2df0fed2c77648de5860a4cc508cd0818c85b8b8a1ab4ceeef8d981c8956a633611746565b6121167f189ab7a9244df0848122154315af71fe140f3db0fe014031783b0946b8c9d2e333611746565b60006001600160e01b03198216637965db0b60e01b148061068c57506301ffc9a760e01b6001600160e01b031983161461068c565b606060006122028360026134ce565b61220d9060026133cd565b6001600160401b0381111561222457612224612b76565b6040519080825280601f01601f19166020018201604052801561224e576020820181803683370190505b509050600360fc1b8160008151811061226957612269613304565b60200101906001600160f81b031916908160001a905350600f60fb1b8160018151811061229857612298613304565b60200101906001600160f81b031916908160001a90535060006122bc8460026134ce565b6122c79060016133cd565b90505b600181111561233f576f181899199a1a9b1b9c1cb0b131b232b360811b85600f16601081106122fb576122fb613304565b1a60f81b82828151811061231157612311613304565b60200101906001600160f81b031916908160001a90535060049490941c93612338816136e0565b90506122ca565b5083156111855760405162461bcd60e51b815260206004820181905260248201527f537472696e67733a20686578206c656e67746820696e73756666696369656e74604482015260640161065e565b60005b825181101561243b578281815181106123ac576123ac613304565b60200260200101516001146124295760405162461bcd60e51b815260206004820152603e60248201527f45616368206675747572657320697320756e697175652c20536f20746865726560448201527f206973206e6f207472616e736665722067726561746572207468616e20310000606482015260840161065e565b8061243381613330565b915050612391565b5060005b835181101561258357600084828151811061245c5761245c613304565b60209081029190910181015160008181526101628352604090819020815160608101835281546001600160a01b039081168252600183015495820195909552600290910154918101919091529092509087166125065760008281526101626020908152604080832080546001600160a01b0319168155600181018490556002018390558381015184516001600160a01b031684526101619092529091208054919091039055612570565b428160200151116125705760405162461bcd60e51b815260206004820152602e60248201527f5472616e736665727320617265206e6f7420616c6c6f77656420666f7220756e60448201526d6c6f636b6564206675747572657360901b606482015260840161065e565b50508061257c90613330565b905061243f565b5061173e565b6001600160a01b0384163b1561173e5760405163bc197c8160e01b81526001600160a01b0385169063bc197c81906125cd90899089908890889088906004016136f7565b602060405180830381600087803b1580156125e757600080fd5b505af1925050508015612617575060408051601f3d908101601f1916820190925261261491810190613755565b60015b6126c457612623613772565b806308c379a0141561265d575061263861378e565b80612643575061265f565b8060405162461bcd60e51b815260040161065e9190612cda565b505b60405162461bcd60e51b815260206004820152603460248201527f455243313135353a207472616e7366657220746f206e6f6e20455243313135356044820152732932b1b2b4bb32b91034b6b83632b6b2b73a32b960611b606482015260840161065e565b6001600160e01b0319811663bc197c8160e01b1461208e5760405162461bcd60e51b815260040161065e90613817565b803b6127585760405162461bcd60e51b815260206004820152602d60248201527f455243313936373a206e657720696d706c656d656e746174696f6e206973206e60448201526c1bdd08184818dbdb9d1c9858dd609a1b606482015260840161065e565b7f360894a13ba1a3210667c828492db98dca3e2076cc3735a920a3ca505d382bbc80546001600160a01b0319166001600160a01b0392909216919091179055565b6060823b6127f85760405162461bcd60e51b815260206004820152602660248201527f416464726573733a2064656c65676174652063616c6c20746f206e6f6e2d636f6044820152651b9d1c9858dd60d21b606482015260840161065e565b600080846001600160a01b031684604051612813919061385f565b600060405180830381855af49150503d806000811461284e576040519150601f19603f3d011682016040523d82523d6000602084013e612853565b606091505b509150915061287b82826040518060600160405280602781526020016138c160279139612a30565b95945050505050565b61288d816126f4565b6040516001600160a01b038216907fbc7cd75a20ee27fd9adebab32041f755214dbc6bffa90cc0225b39da2e5c2d3b90600090a250565b604080516001808252818301909252606091600091906020808301908036833701905050905082816000815181106128fe576128fe613304565b602090810291909101015292915050565b6001600160a01b0384163b1561173e5760405163f23a6e6160e01b81526001600160a01b0385169063f23a6e6190612953908990899088908890889060040161387b565b602060405180830381600087803b15801561296d57600080fd5b505af192505050801561299d575060408051601f3d908101601f1916820190925261299a91810190613755565b60015b6129a957612623613772565b6001600160e01b0319811663f23a6e6160e01b1461208e5760405162461bcd60e51b815260040161065e90613817565b600054610100900460ff166121165760405162461bcd60e51b815260040161065e90613695565b600054610100900460ff16612a275760405162461bcd60e51b815260040161065e90613695565b61095e816113ca565b60608315612a3f575081611185565b825115612a4f5782518084602001fd5b8160405162461bcd60e51b815260040161065e9190612cda565b828054612a759061345a565b90600052602060002090601f016020900481019282612a975760008555612add565b82601f10612ab057805160ff1916838001178555612add565b82800160010185558215612add579182015b82811115612add578251825591602001919060010190612ac2565b50612ae9929150612aed565b5090565b5b80821115612ae95760008155600101612aee565b6001600160a01b038116811461095e57600080fd5b60008060408385031215612b2a57600080fd5b8235612b3581612b02565b946020939093013593505050565b6001600160e01b03198116811461095e57600080fd5b600060208284031215612b6b57600080fd5b813561118581612b43565b634e487b7160e01b600052604160045260246000fd5b601f8201601f191681016001600160401b0381118282101715612bb157612bb1612b76565b6040525050565b60006001600160401b03831115612bd157612bd1612b76565b604051612be8601f8501601f191660200182612b8c565b809150838152848484011115612bfd57600080fd5b83836020830137600060208583010152509392505050565b600060208284031215612c2757600080fd5b81356001600160401b03811115612c3d57600080fd5b8201601f81018413612c4e57600080fd5b612c5d84823560208401612bb8565b949350505050565b600060208284031215612c7757600080fd5b5035919050565b60005b83811015612c99578181015183820152602001612c81565b83811115612ca8576000848401525b50505050565b60008151808452612cc6816020860160208601612c7e565b601f01601f19169290920160200192915050565b6020815260006111856020830184612cae565b60006001600160401b03821115612d0657612d06612b76565b5060051b60200190565b600082601f830112612d2157600080fd5b81356020612d2e82612ced565b604051612d3b8282612b8c565b83815260059390931b8501820192828101915086841115612d5b57600080fd5b8286015b84811015612d765780358352918301918301612d5f565b509695505050505050565b600082601f830112612d9257600080fd5b61118583833560208501612bb8565b600080600080600060a08688031215612db957600080fd5b8535612dc481612b02565b94506020860135612dd481612b02565b935060408601356001600160401b0380821115612df057600080fd5b612dfc89838a01612d10565b94506060880135915080821115612e1257600080fd5b612e1e89838a01612d10565b93506080880135915080821115612e3457600080fd5b50612e4188828901612d81565b9150509295509295909350565b60008060408385031215612e6157600080fd5b823591506020830135612e7381612b02565b809150509250929050565b600060208284031215612e9057600080fd5b813561118581612b02565b60008060408385031215612eae57600080fd5b82356001600160401b0380821115612ec557600080fd5b818501915085601f830112612ed957600080fd5b81356020612ee682612ced565b604051612ef38282612b8c565b83815260059390931b8501820192828101915089841115612f1357600080fd5b948201945b83861015612f3a578535612f2b81612b02565b82529482019490820190612f18565b96505086013592505080821115612f5057600080fd5b50612f5d85828601612d10565b9150509250929050565b600081518084526020808501945080840160005b83811015612f9757815187529582019590820190600101612f7b565b509495945050505050565b6020815260006111856020830184612f67565b60008060408385031215612fc857600080fd5b8235612fd381612b02565b915060208301356001600160401b03811115612fee57600080fd5b612f5d85828601612d81565b60008060006060848603121561300f57600080fd5b833561301a81612b02565b925060208401356001600160401b038082111561303657600080fd5b61304287838801612d10565b9350604086013591508082111561305857600080fd5b5061306586828701612d10565b9150509250925092565b600080600080600060a0868803121561308757600080fd5b853561309281612b02565b945060208601356130a281612b02565b935060408601359250606086013560ff811681146130bf57600080fd5b949793965091946080013592915050565b801515811461095e57600080fd5b600080604083850312156130f157600080fd5b82356130fc81612b02565b91506020830135612e73816130d0565b6000806040838503121561311f57600080fd5b823561312a81612b02565b91506020830135612e7381612b02565b600080600080600060a0868803121561315257600080fd5b853561315d81612b02565b9450602086013561316d81612b02565b9350604086013592506060860135915060808601356001600160401b0381111561319657600080fd5b612e4188828901612d81565b6000806000606084860312156131b757600080fd5b83356131c281612b02565b95602085013595506040909401359392505050565b600085516131e9818460208a01612c7e565b8083019050602f60f81b8082528651613209816001850160208b01612c7e565b600192019182018190528551613226816002850160208a01612c7e565b60029201918201528351613241816003840160208801612c7e565b016003019695505050505050565b6020808252602c908201527f46756e6374696f6e206d7573742062652063616c6c6564207468726f7567682060408201526b19195b1959d85d1958d85b1b60a21b606082015260800190565b6020808252602c908201527f46756e6374696f6e206d7573742062652063616c6c6564207468726f7567682060408201526b6163746976652070726f787960a01b606082015260800190565b6000602082840312156132f957600080fd5b8151611185816130d0565b634e487b7160e01b600052603260045260246000fd5b634e487b7160e01b600052601160045260246000fd5b60006000198214156133445761334461331a565b5060010190565b60208082526029908201527f455243313135353a2063616c6c6572206973206e6f74206f776e6572206e6f7260408201526808185c1c1c9bdd995960ba1b606082015260800190565b6000602082840312156133a657600080fd5b5051919050565b600060ff821660ff8114156133c4576133c461331a565b60010192915050565b600082198211156133e0576133e061331a565b500190565b7f416363657373436f6e74726f6c3a206163636f756e742000000000000000000081526000835161341d816017850160208801612c7e565b7001034b99036b4b9b9b4b733903937b6329607d1b601791840191820152835161344e816028840160208801612c7e565b01602801949350505050565b600181811c9082168061346e57607f821691505b6020821081141561348f57634e487b7160e01b600052602260045260246000fd5b50919050565b6000826134b257634e487b7160e01b600052601260045260246000fd5b500490565b6000828210156134c9576134c961331a565b500390565b60008160001904831182151516156134e8576134e861331a565b500290565b600060ff821660ff84168060ff0382111561350a5761350a61331a565b019392505050565b60208082526028908201527f455243313135353a2069647320616e6420616d6f756e7473206c656e677468206040820152670dad2e6dac2e8c6d60c31b606082015260800190565b60208082526025908201527f455243313135353a207472616e7366657220746f20746865207a65726f206164604082015264647265737360d81b606082015260800190565b6020808252602a908201527f455243313135353a20696e73756666696369656e742062616c616e636520666f60408201526939103a3930b739b332b960b11b606082015260800190565b6040815260006135fc6040830185612f67565b828103602084015261287b8185612f67565b60208082526023908201527f455243313135353a206275726e2066726f6d20746865207a65726f206164647260408201526265737360e81b606082015260800190565b60208082526024908201527f455243313135353a206275726e20616d6f756e7420657863656564732062616c604082015263616e636560e01b606082015260800190565b6020808252602b908201527f496e697469616c697a61626c653a20636f6e7472616374206973206e6f74206960408201526a6e697469616c697a696e6760a81b606082015260800190565b6000816136ef576136ef61331a565b506000190190565b6001600160a01b0386811682528516602082015260a06040820181905260009061372390830186612f67565b82810360608401526137358186612f67565b905082810360808401526137498185612cae565b98975050505050505050565b60006020828403121561376757600080fd5b815161118581612b43565b600060033d111561378b5760046000803e5060005160e01c5b90565b600060443d101561379c5790565b6040516003193d81016004833e81513d6001600160401b0381602484011181841117156137cb57505050505090565b82850191508151818111156137e35750505050505090565b843d87010160208285010111156137fd5750505050505090565b61380c60208286010187612b8c565b509095945050505050565b60208082526028908201527f455243313135353a204552433131353552656365697665722072656a656374656040820152676420746f6b656e7360c01b606082015260800190565b60008251613871818460208701612c7e565b9190910192915050565b6001600160a01b03868116825285166020820152604081018490526060810183905260a0608082018190526000906138b590830184612cae565b97965050505050505056fe416464726573733a206c6f772d6c6576656c2064656c65676174652063616c6c206661696c6564f5eb84615c2a00ecaf817d13794ebd6299c9e01c395bf4018453f13f577f5449a2646970667358221220b61c3846e8f2cb83a96bd0200e656e0b30a7688dc5f654e75644662357ba84ee64736f6c63430008090033","immutableReferences":{"1051":[{"length":32,"start":2211},{"length":32,"start":2275},{"length":32,"start":3140},{"length":32,"start":3204}]},"source":"// SPDX-License-Identifier: MIT\npragma solidity 0.8.9;\n\nimport \"@openzeppelin/contracts-upgradeable/token/ERC1155/ERC1155Upgradeable.sol\";\nimport \"@openzeppelin/contracts-upgradeable/token/ERC20/IERC20Upgradeable.sol\";\nimport \"@openzeppelin/contracts-upgradeable/access/AccessControlUpgradeable.sol\";\nimport \"@openzeppelin/contracts-upgradeable/token/ERC1155/extensions/ERC1155BurnableUpgradeable.sol\";\nimport \"@openzeppelin/contracts-upgradeable/proxy/utils/Initializable.sol\";\nimport \"@openzeppelin/contracts-upgradeable/proxy/utils/UUPSUpgradeable.sol\";\nimport \"@openzeppelin/contracts-upgradeable/utils/math/SafeMathUpgradeable.sol\";\nimport \"@openzeppelin/contracts-upgradeable/utils/CountersUpgradeable.sol\";\nimport \"./MelandTierAddressStore.sol\";\nimport \"./MelandAccessRoles.sol\";\nimport \"./MelandTier.sol\";\n\n// Support arbitrary erc20 token packaging\n// MELD Futures\n\ncontract Meland1155MELDFuture is\n    Initializable,\n    ERC1155Upgradeable,\n    MelandAccessRoles,\n    MelandTierAddressStore,\n    ERC1155BurnableUpgradeable,\n    UUPSUpgradeable\n{\n    using SafeMathUpgradeable for uint256;\n    using CountersUpgradeable for CountersUpgradeable.Counter;\n\n    CountersUpgradeable.Counter private _tokenIdCounter;\n\n    struct ERC20Future {\n        IERC20Upgradeable token;\n        uint256 unlockAt;\n        uint256 amount;\n    }\n\n    event Claim(\n        uint256 indexed id,\n        address indexed beneficiary,\n        uint256 amount\n    );\n\n    // Records the current number of tokens left for each type of token\n    mapping(IERC20Upgradeable => uint256) public totalSupplyByERC20;\n    mapping(uint256 => ERC20Future) public futureById;\n\n    function initialize(string memory _uri) public initializer {\n        __ERC1155_init(_uri);\n        __ERC1155Burnable_init();\n        __UUPSUpgradeable_init();\n        __MelandAccessRoles_init();\n    }\n\n    function isApprovedForAll(address _owner, address _operator)\n        public\n        view\n        override(ERC1155Upgradeable, MelandTierAddressStore)\n        returns (bool isOperator)\n    {\n        return super.isApprovedForAll(_owner, _operator);\n    }\n\n    function setURI(string memory newuri) public onlyRole(GM_ROLE) {\n        _setURI(newuri);\n    }\n\n    function uint2str(uint256 _i)\n        internal\n        pure\n        returns (string memory _uintAsString)\n    {\n        if (_i == 0) {\n            return \"0\";\n        }\n        uint256 j = _i;\n        uint256 len;\n        while (j != 0) {\n            len++;\n            j /= 10;\n        }\n        bytes memory bstr = new bytes(len);\n        uint256 k = len;\n        while (_i != 0) {\n            k = k - 1;\n            uint8 temp = (48 + uint8(_i - (_i / 10) * 10));\n            bytes1 b1 = bytes1(temp);\n            bstr[k] = b1;\n            _i /= 10;\n        }\n        return string(bstr);\n    }\n\n    function uri(uint256 id)\n        public\n        view\n        virtual\n        override\n        returns (string memory)\n    {\n        ERC20Future memory future = futureById[id];\n        return\n            string(\n                abi.encodePacked(\n                    super.uri(id),\n                    \"/\",\n                    uint2str(future.amount),\n                    \"/\",\n                    uint2str(future.unlockAt),\n                    \"/\",\n                    uint2str(id)\n                )\n            );\n    }\n\n    // Anyone can mint futures as long as they have money.\n    function mintBatch(\n        IERC20Upgradeable token,\n        address to,\n        uint256 amount,\n        uint8 count,\n        uint256 lockseconds\n    ) public {\n        address sender = _msgSender();\n\n        uint256 allowanceAmount = token.allowance(sender, address(this));\n\n        uint256 totalAmount = amount.mul(count);\n        require(\n            allowanceAmount > totalAmount,\n            \"The approved amount is less than the required amount\"\n        );\n        require(count > 0, \"Quantity must be greater than 0\");\n\n        token.transferFrom(sender, address(this), totalAmount);\n\n        uint256[] memory ids = new uint256[](count);\n        uint256[] memory amounts = new uint256[](count);\n\n        for (uint8 i = 0; i < count; i++) {\n            _tokenIdCounter.increment();\n            uint256 tokenId = _tokenIdCounter.current();\n\n            futureById[tokenId] = ERC20Future(\n                token,\n                block.timestamp.add(lockseconds),\n                amount\n            );\n\n            ids[i] = tokenId;\n            amounts[i] = 1;\n\n        }\n        totalSupplyByERC20[token] = totalSupplyByERC20[token] + totalAmount;\n        _mintBatch(to, ids, amounts, \"\");\n    }\n\n    function setMelandTier(MelandTier _tierAddress) public onlyRole(GM_ROLE) {\n        _setMelandTier(_tierAddress);\n    }\n\n    // Converting futures into corresponding token\n    function claim(uint256 id) public {\n        address sender = _msgSender();\n        ERC20Future memory future = futureById[id];\n        require(future.unlockAt > 0, \"future not found\");\n        require(future.unlockAt < block.timestamp, \"future not unlocked\");\n        _burn(sender, id, 1);\n        future.token.transfer(sender, future.amount);\n        emit Claim(id, sender, future.amount);\n    }\n\n    function totalSupply(uint256 id) internal view returns (uint256) {\n        ERC20Future memory future = futureById[id];\n        if (address(future.token) == address(0)) {\n            return 0;\n        }\n        return totalSupplyByERC20[future.token];\n    }\n\n    function _authorizeUpgrade(address newImplementation)\n        internal\n        override\n        onlyRole(UPGRADER_ROLE)\n    {}\n\n    // The following functions are overrides required by Solidity.\n\n    function supportsInterface(bytes4 interfaceId)\n        public\n        view\n        override(ERC1155Upgradeable, AccessControlUpgradeable)\n        returns (bool)\n    {\n        return super.supportsInterface(interfaceId);\n    }\n\n    // The following functions are overrides required by Solidity.\n    function _beforeTokenTransfer(\n        address operator,\n        address from,\n        address to,\n        uint256[] memory ids,\n        uint256[] memory amounts,\n        bytes memory landtype\n    ) internal override(ERC1155Upgradeable) {\n        for (uint256 i = 0; i < amounts.length; i++) {\n            require(\n                amounts[i] == 1,\n                \"Each futures is unique, So there is no transfer greater than 1\"\n            );\n        }\n\n        for (uint256 i = 0; i < ids.length; ++i) {\n            uint256 id = ids[i];\n            ERC20Future memory future = futureById[id];\n\n            // sub totalSupply when burn token\n            if (to == address(0)) {\n                // clear when burn\n                delete futureById[id];\n                unchecked {\n                    totalSupplyByERC20[future.token] -= future.amount;\n                }\n            } else {\n                require(\n                    future.unlockAt > block.timestamp,\n                    \"Transfers are not allowed for unlocked futures\"\n                );\n            }\n        }\n\n        super._beforeTokenTransfer(operator, from, to, ids, amounts, landtype);\n    }\n}\n","sourcePath":"/Users/alberthuang/code/contracts/contracts/Meland1155MELDFuture.sol","compiler":{"name":"solc","version":"0.8.9+commit.e5eed63a.Emscripten.clang"},"schemaVersion":"3.4.3","updatedAt":"2022-01-25T07:44:20.466Z","devdoc":{"kind":"dev","methods":{"balanceOf(address,uint256)":{"details":"See {IERC1155-balanceOf}. Requirements: - `account` cannot be the zero address."},"balanceOfBatch(address[],uint256[])":{"details":"See {IERC1155-balanceOfBatch}. Requirements: - `accounts` and `ids` must have the same length."},"getRoleAdmin(bytes32)":{"details":"Returns the admin role that controls `role`. See {grantRole} and {revokeRole}. To change a role's admin, use {_setRoleAdmin}."},"grantRole(bytes32,address)":{"details":"Grants `role` to `account`. If `account` had not been already granted `role`, emits a {RoleGranted} event. Requirements: - the caller must have ``role``'s admin role."},"hasRole(bytes32,address)":{"details":"Returns `true` if `account` has been granted `role`."},"renounceRole(bytes32,address)":{"details":"Revokes `role` from the calling account. Roles are often managed via {grantRole} and {revokeRole}: this function's purpose is to provide a mechanism for accounts to lose their privileges if they are compromised (such as when a trusted device is misplaced). If the calling account had been revoked `role`, emits a {RoleRevoked} event. Requirements: - the caller must be `account`."},"revokeRole(bytes32,address)":{"details":"Revokes `role` from `account`. If `account` had been granted `role`, emits a {RoleRevoked} event. Requirements: - the caller must have ``role``'s admin role."},"safeBatchTransferFrom(address,address,uint256[],uint256[],bytes)":{"details":"See {IERC1155-safeBatchTransferFrom}."},"safeTransferFrom(address,address,uint256,uint256,bytes)":{"details":"See {IERC1155-safeTransferFrom}."},"setApprovalForAll(address,bool)":{"details":"See {IERC1155-setApprovalForAll}."},"upgradeTo(address)":{"details":"Upgrade the implementation of the proxy to `newImplementation`. Calls {_authorizeUpgrade}. Emits an {Upgraded} event."},"upgradeToAndCall(address,bytes)":{"details":"Upgrade the implementation of the proxy to `newImplementation`, and subsequently execute the function call encoded in `data`. Calls {_authorizeUpgrade}. Emits an {Upgraded} event."}},"version":1},"userdoc":{"kind":"user","methods":{},"version":1}}