{"contractName":"MelandExchange","abi":[{"anonymous":false,"inputs":[{"indexed":false,"internalType":"address","name":"previousAdmin","type":"address"},{"indexed":false,"internalType":"address","name":"newAdmin","type":"address"}],"name":"AdminChanged","type":"event"},{"anonymous":false,"inputs":[{"indexed":true,"internalType":"address","name":"beacon","type":"address"}],"name":"BeaconUpgraded","type":"event"},{"anonymous":false,"inputs":[{"indexed":false,"internalType":"uint256","name":"depositId","type":"uint256"}],"name":"Deposit","type":"event"},{"anonymous":false,"inputs":[{"indexed":true,"internalType":"uint256","name":"depositId","type":"uint256"},{"indexed":false,"internalType":"string","name":"message","type":"string"}],"name":"DepositPaymentFail","type":"event"},{"anonymous":false,"inputs":[{"indexed":false,"internalType":"uint256","name":"depositId","type":"uint256"}],"name":"DepositPaymentSuccess","type":"event"},{"anonymous":false,"inputs":[{"indexed":false,"internalType":"uint256","name":"exchangeId","type":"uint256"}],"name":"Exchange","type":"event"},{"anonymous":false,"inputs":[{"indexed":true,"internalType":"uint256","name":"exchangeId","type":"uint256"},{"indexed":false,"internalType":"string","name":"message","type":"string"}],"name":"ExchangePaymentFail","type":"event"},{"anonymous":false,"inputs":[{"indexed":false,"internalType":"uint256","name":"exchangeId","type":"uint256"}],"name":"ExchangePaymentSuccess","type":"event"},{"anonymous":false,"inputs":[{"indexed":false,"internalType":"uint256","name":"newLimit","type":"uint256"}],"name":"MELDLimitUpdate","type":"event"},{"anonymous":false,"inputs":[{"indexed":true,"internalType":"bytes32","name":"role","type":"bytes32"},{"indexed":true,"internalType":"bytes32","name":"previousAdminRole","type":"bytes32"},{"indexed":true,"internalType":"bytes32","name":"newAdminRole","type":"bytes32"}],"name":"RoleAdminChanged","type":"event"},{"anonymous":false,"inputs":[{"indexed":true,"internalType":"bytes32","name":"role","type":"bytes32"},{"indexed":true,"internalType":"address","name":"account","type":"address"},{"indexed":true,"internalType":"address","name":"sender","type":"address"}],"name":"RoleGranted","type":"event"},{"anonymous":false,"inputs":[{"indexed":true,"internalType":"bytes32","name":"role","type":"bytes32"},{"indexed":true,"internalType":"address","name":"account","type":"address"},{"indexed":true,"internalType":"address","name":"sender","type":"address"}],"name":"RoleRevoked","type":"event"},{"anonymous":false,"inputs":[{"indexed":true,"internalType":"address","name":"implementation","type":"address"}],"name":"Upgraded","type":"event"},{"inputs":[],"name":"DEFAULT_ADMIN_ROLE","outputs":[{"internalType":"bytes32","name":"","type":"bytes32"}],"stateMutability":"view","type":"function"},{"inputs":[],"name":"GM_ROLE","outputs":[{"internalType":"bytes32","name":"","type":"bytes32"}],"stateMutability":"view","type":"function"},{"inputs":[],"name":"MINTER_ROLE","outputs":[{"internalType":"bytes32","name":"","type":"bytes32"}],"stateMutability":"view","type":"function"},{"inputs":[],"name":"PAYMENT_ROLE","outputs":[{"internalType":"bytes32","name":"","type":"bytes32"}],"stateMutability":"view","type":"function"},{"inputs":[],"name":"UPGRADER_ROLE","outputs":[{"internalType":"bytes32","name":"","type":"bytes32"}],"stateMutability":"view","type":"function"},{"inputs":[],"name":"acceptedToken","outputs":[{"internalType":"contract IERC20Upgradeable","name":"","type":"address"}],"stateMutability":"view","type":"function"},{"inputs":[],"name":"bidbackWallet","outputs":[{"internalType":"address","name":"","type":"address"}],"stateMutability":"view","type":"function"},{"inputs":[],"name":"foundationWallet","outputs":[{"internalType":"address","name":"","type":"address"}],"stateMutability":"view","type":"function"},{"inputs":[{"internalType":"uint256","name":"","type":"uint256"}],"name":"getDepositDitaminById","outputs":[{"internalType":"uint256","name":"depositedAt","type":"uint256"},{"internalType":"uint256","name":"amountOfMELD","type":"uint256"},{"internalType":"address","name":"beneficiary","type":"address"},{"internalType":"uint256","name":"paymentDitamin","type":"uint256"},{"internalType":"uint256","name":"paymentAt","type":"uint256"},{"internalType":"uint256","name":"failedAt","type":"uint256"},{"internalType":"string","name":"failedMessage","type":"string"}],"stateMutability":"view","type":"function"},{"inputs":[{"internalType":"uint256","name":"","type":"uint256"}],"name":"getExchangeMELDById","outputs":[{"internalType":"uint256","name":"exchangedAt","type":"uint256"},{"internalType":"uint256","name":"amountOfMELD","type":"uint256"},{"internalType":"address","name":"beneficiary","type":"address"},{"internalType":"uint256","name":"paymentDitamin","type":"uint256"},{"internalType":"uint256","name":"paymentAt","type":"uint256"},{"internalType":"uint256","name":"failedAt","type":"uint256"},{"internalType":"string","name":"failedMessage","type":"string"}],"stateMutability":"view","type":"function"},{"inputs":[{"internalType":"address","name":"","type":"address"},{"internalType":"uint256","name":"","type":"uint256"},{"internalType":"uint256","name":"","type":"uint256"}],"name":"getExchangeMELDIdsByUserAndDay","outputs":[{"internalType":"uint256","name":"","type":"uint256"}],"stateMutability":"view","type":"function"},{"inputs":[{"internalType":"bytes32","name":"role","type":"bytes32"}],"name":"getRoleAdmin","outputs":[{"internalType":"bytes32","name":"","type":"bytes32"}],"stateMutability":"view","type":"function"},{"inputs":[{"internalType":"bytes32","name":"role","type":"bytes32"},{"internalType":"address","name":"account","type":"address"}],"name":"grantRole","outputs":[],"stateMutability":"nonpayable","type":"function"},{"inputs":[{"internalType":"bytes32","name":"role","type":"bytes32"},{"internalType":"address","name":"account","type":"address"}],"name":"hasRole","outputs":[{"internalType":"bool","name":"","type":"bool"}],"stateMutability":"view","type":"function"},{"inputs":[],"name":"limitEveryDayMELD","outputs":[{"internalType":"uint256","name":"","type":"uint256"}],"stateMutability":"view","type":"function"},{"inputs":[{"internalType":"address","name":"","type":"address"}],"name":"lockedByUser","outputs":[{"internalType":"bool","name":"","type":"bool"}],"stateMutability":"view","type":"function"},{"inputs":[],"name":"melandMELDFuture","outputs":[{"internalType":"contract Meland1155MELDFuture","name":"","type":"address"}],"stateMutability":"view","type":"function"},{"inputs":[],"name":"officialWallet","outputs":[{"internalType":"address","name":"","type":"address"}],"stateMutability":"view","type":"function"},{"inputs":[],"name":"ownerCutPerMillion","outputs":[{"internalType":"uint256","name":"","type":"uint256"}],"stateMutability":"view","type":"function"},{"inputs":[{"internalType":"uint256","name":"","type":"uint256"}],"name":"pendingDepositIds","outputs":[{"internalType":"uint256","name":"","type":"uint256"}],"stateMutability":"view","type":"function"},{"inputs":[{"internalType":"uint256","name":"","type":"uint256"}],"name":"pendingExchangeIds","outputs":[{"internalType":"uint256","name":"","type":"uint256"}],"stateMutability":"view","type":"function"},{"inputs":[{"internalType":"bytes32","name":"role","type":"bytes32"},{"internalType":"address","name":"account","type":"address"}],"name":"renounceRole","outputs":[],"stateMutability":"nonpayable","type":"function"},{"inputs":[{"internalType":"bytes32","name":"role","type":"bytes32"},{"internalType":"address","name":"account","type":"address"}],"name":"revokeRole","outputs":[],"stateMutability":"nonpayable","type":"function"},{"inputs":[{"internalType":"bytes4","name":"interfaceId","type":"bytes4"}],"name":"supportsInterface","outputs":[{"internalType":"bool","name":"","type":"bool"}],"stateMutability":"view","type":"function"},{"inputs":[{"internalType":"address","name":"newImplementation","type":"address"}],"name":"upgradeTo","outputs":[],"stateMutability":"nonpayable","type":"function"},{"inputs":[{"internalType":"address","name":"newImplementation","type":"address"},{"internalType":"bytes","name":"data","type":"bytes"}],"name":"upgradeToAndCall","outputs":[],"stateMutability":"payable","type":"function"},{"inputs":[{"internalType":"contract IERC20Upgradeable","name":"_token","type":"address"},{"internalType":"contract Meland1155MELDFuture","name":"_melandMELDFuture","type":"address"},{"internalType":"address","name":"_officialWallet","type":"address"},{"internalType":"address","name":"_foundationWallet","type":"address"},{"internalType":"address","name":"_bidbackWallet","type":"address"},{"internalType":"uint256","name":"_ownerCutPerMillion","type":"uint256"}],"name":"initialize","outputs":[],"stateMutability":"nonpayable","type":"function"},{"inputs":[],"name":"getPendingExchangeId","outputs":[{"internalType":"uint256","name":"","type":"uint256"}],"stateMutability":"view","type":"function"},{"inputs":[],"name":"getPendingDepositId","outputs":[{"internalType":"uint256","name":"","type":"uint256"}],"stateMutability":"view","type":"function"},{"inputs":[{"internalType":"uint256","name":"amountMELD","type":"uint256"}],"name":"exchange","outputs":[],"stateMutability":"nonpayable","type":"function"},{"inputs":[{"internalType":"uint256","name":"exchangeId","type":"uint256"},{"internalType":"uint256","name":"ditaminAmount","type":"uint256"}],"name":"exchangePay","outputs":[],"stateMutability":"nonpayable","type":"function"},{"inputs":[{"internalType":"uint256","name":"exchangeId","type":"uint256"},{"internalType":"string","name":"message","type":"string"}],"name":"exchangeFailed","outputs":[],"stateMutability":"nonpayable","type":"function"},{"inputs":[{"internalType":"uint256","name":"amountMELD","type":"uint256"}],"name":"deposit","outputs":[],"stateMutability":"nonpayable","type":"function"},{"inputs":[{"internalType":"uint256","name":"depositId","type":"uint256"},{"internalType":"uint256","name":"ditaminAmount","type":"uint256"}],"name":"depositPay","outputs":[],"stateMutability":"nonpayable","type":"function"},{"inputs":[{"internalType":"uint256","name":"depositId","type":"uint256"},{"internalType":"string","name":"message","type":"string"}],"name":"depositFailed","outputs":[],"stateMutability":"nonpayable","type":"function"},{"inputs":[{"internalType":"uint256","name":"_limit","type":"uint256"}],"name":"updateMELDLimit","outputs":[],"stateMutability":"nonpayable","type":"function"}],"bytecode":"0x60a06040523060805234801561001457600080fd5b5060805161386461004560003960008181610f2201528181610f620152818161172a015261176a01526138646000f3fe60806040526004361061020f5760003560e01c80637b818a6911610118578063aabbd117116100a0578063d547741f1161006f578063d547741f14610658578063f25d07e314610678578063f69bac6214610698578063f72c0d8b146106ad578063fc3b624e146106e157600080fd5b8063aabbd117146105ce578063b6b55f25146105ee578063d4c273501461060e578063d53913931461062457600080fd5b806391d14854116100e757806391d148541461054357806395b6ef0c14610563578063983e887c14610583578063a01f79d4146105a3578063a217fddf146105b957600080fd5b80637b818a69146104bc5780637e33e930146104ed5780638100c96a14610502578063918377561461052357600080fd5b80633659cfe61161019b5780634f1ef2861161016a5780634f1ef28614610429578063535565591461043c5780636b7ae8dc1461045c5780636d6b1fbd1461047c57806376d1f1ab1461049c57600080fd5b80633659cfe61461039557806336e4f60f146103b5578063451c3d80146103e85780634e4fdde81461040957600080fd5b806316160018116101e257806316160018146102d1578063248a9ca3146102f15780632f2ff15d1461032157806330c7be2c1461034157806336568abe1461037557600080fd5b806301ffc9a7146102145780630809d1d414610249578063088025d314610277578063096593ee146102af575b600080fd5b34801561022057600080fd5b5061023461022f366004613141565b610703565b60405190151581526020015b60405180910390f35b34801561025557600080fd5b5061026961026436600461316b565b61073a565b604051908152602001610240565b34801561028357600080fd5b5060fc54610297906001600160a01b031681565b6040516001600160a01b039091168152602001610240565b3480156102bb57600080fd5b506102cf6102ca366004613210565b61075c565b005b3480156102dd57600080fd5b506102cf6102ec36600461326b565b610aa9565b3480156102fd57600080fd5b5061026961030c36600461316b565b60009081526065602052604090206001015490565b34801561032d57600080fd5b506102cf61033c3660046132a2565b610e6e565b34801561034d57600080fd5b506102697ff5eb84615c2a00ecaf817d13794ebd6299c9e01c395bf4018453f13f577f544981565b34801561038157600080fd5b506102cf6103903660046132a2565b610e99565b3480156103a157600080fd5b506102cf6103b03660046132d2565b610f17565b3480156103c157600080fd5b506103d56103d036600461316b565b610fe0565b604051610240979695949392919061334b565b3480156103f457600080fd5b5061010254610297906001600160a01b031681565b34801561041557600080fd5b506102cf61042436600461326b565b6110b2565b6102cf610437366004613397565b61171f565b34801561044857600080fd5b506102cf61045736600461316b565b6117d5565b34801561046857600080fd5b5060fb54610297906001600160a01b031681565b34801561048857600080fd5b506102696104973660046133d1565b611dd1565b3480156104a857600080fd5b506102cf6104b7366004613210565b611e10565b3480156104c857600080fd5b506102346104d73660046132d2565b6101076020526000908152604090205460ff1681565b3480156104f957600080fd5b50610269612111565b34801561050e57600080fd5b5061010354610297906001600160a01b031681565b34801561052f57600080fd5b5061026961053e36600461316b565b612147565b34801561054f57600080fd5b5061023461055e3660046132a2565b612158565b34801561056f57600080fd5b506102cf61057e366004613406565b612183565b34801561058f57600080fd5b506102cf61059e36600461316b565b6122ba565b3480156105af57600080fd5b5061026960fe5481565b3480156105c557600080fd5b50610269600081565b3480156105da57600080fd5b5060fd54610297906001600160a01b031681565b3480156105fa57600080fd5b506102cf61060936600461316b565b6122ee565b34801561061a57600080fd5b5061026960ff5481565b34801561063057600080fd5b506102697f9f2df0fed2c77648de5860a4cc508cd0818c85b8b8a1ab4ceeef8d981c8956a681565b34801561066457600080fd5b506102cf6106733660046132a2565b612609565b34801561068457600080fd5b506103d561069336600461316b565b61262f565b3480156106a457600080fd5b5061026961267e565b3480156106b957600080fd5b506102697f189ab7a9244df0848122154315af71fe140f3db0fe014031783b0946b8c9d2e381565b3480156106ed57600080fd5b506102696000805160206137e883398151915281565b60006001600160e01b03198216637965db0b60e01b148061073457506301ffc9a760e01b6001600160e01b03198316145b92915050565b610108818154811061074b57600080fd5b600091825260209091200154905081565b6000805160206137e883398151915261077581336126a4565b600083815261010560209081526040808320815160e0810183528154815260018201549381019390935260028101546001600160a01b0316918301919091526003810154606083015260048101546080830152600581015460a083015260068101805460c0840191906107e79061347f565b80601f01602080910402602001604051908101604052809291908181526020018280546108139061347f565b80156108605780601f1061083557610100808354040283529160200191610860565b820191906000526020600020905b81548152906001019060200180831161084357829003601f168201915b505050505081525050905080608001516000146108985760405162461bcd60e51b815260040161088f906134ba565b60405180910390fd5b60a0810151156108dc5760405162461bcd60e51b815260206004820152600f60248201526e115e18da185b99d94819985a5b1959608a1b604482015260640161088f565b80516108fa5760405162461bcd60e51b815260040161088f906134e6565b604081810180516001600160a01b0390811660009081526101076020908152848220805460ff1916905560c086018881524260a088019081528a84526101058352959092208651815581870151600182015593516002850180546001600160a01b03191691909416179092556060850151600384015560808501516004840155925160058301559151805184936109989260068501929101906130a8565b505061010854600091506109ae90600190613533565b9050600061010882815481106109c6576109c661354a565b906000526020600020015490506000805b61010854811015610a1e578761010882815481106109f7576109f761354a565b90600052602060002001541415610a0c578091505b80610a1681613560565b9150506109d7565b50816101088281548110610a3457610a3461354a565b600091825260209091200155610108805480610a5257610a5261357b565b60019003818190600052602060002001600090559055505050837fcdd57e6cab08472a05c6cc7904e84a5aa1a42bfdf81a02ae5f9470672db5c1a684604051610a9b9190613591565b60405180910390a250505050565b6000805160206137e8833981519152610ac281336126a4565b600083815261010660209081526040808320815160e0810183528154815260018201549381019390935260028101546001600160a01b0316918301919091526003810154606083015260048101546080830152600581015460a083015260068101805460c084019190610b349061347f565b80601f0160208091040260200160405190810160405280929190818152602001828054610b609061347f565b8015610bad5780601f10610b8257610100808354040283529160200191610bad565b820191906000526020600020905b815481529060010190602001808311610b9057829003601f168201915b50505050508152505090508060800151600014610bdc5760405162461bcd60e51b815260040161088f906134ba565b60a081015115610c1f5760405162461bcd60e51b815260206004820152600e60248201526d11195c1bdcda5d0819985a5b195960921b604482015260640161088f565b8051610c3d5760405162461bcd60e51b815260040161088f906134e6565b4260808201908152606082018481526000868152610106602090815260409182902085518155818601516001820155918501516002830180546001600160a01b0319166001600160a01b03909216919091179055915160038201559151600483015560a0830151600583015560c08301518051849392610cc49260068501929101906130a8565b5050610102546001600160a01b0316905063a9059cbb3360208401516040516001600160e01b031960e085901b1681526001600160a01b0390921660048301526024820152604401602060405180830381600087803b158015610d2657600080fd5b505af1158015610d3a573d6000803e3d6000fd5b505050506040513d601f19601f82011682018060405250810190610d5e91906135a4565b5061010954600090610d7290600190613533565b905060006101098281548110610d8a57610d8a61354a565b906000526020600020015490506000805b61010954811015610de257876101098281548110610dbb57610dbb61354a565b90600052602060002001541415610dd0578091505b80610dda81613560565b915050610d9b565b50816101098281548110610df857610df861354a565b600091825260209091200155610109805480610e1657610e1661357b565b600190038181906000526020600020016000905590555050507f0d2cdd19f94f06ba428588d10abaf80425f5507245d9b94c98c93cf484ef463284604051610e6091815260200190565b60405180910390a150505050565b600082815260656020526040902060010154610e8a81336126a4565b610e948383612708565b505050565b6001600160a01b0381163314610f095760405162461bcd60e51b815260206004820152602f60248201527f416363657373436f6e74726f6c3a2063616e206f6e6c792072656e6f756e636560448201526e103937b632b9903337b91039b2b63360891b606482015260840161088f565b610f13828261278e565b5050565b306001600160a01b037f0000000000000000000000000000000000000000000000000000000000000000161415610f605760405162461bcd60e51b815260040161088f906135c6565b7f00000000000000000000000000000000000000000000000000000000000000006001600160a01b0316610f926127f5565b6001600160a01b031614610fb85760405162461bcd60e51b815260040161088f90613612565b610fc181612823565b60408051600080825260208201909252610fdd9183919061284e565b50565b610105602052600090815260409020805460018201546002830154600384015460048501546005860154600687018054969795966001600160a01b039095169593949293919261102f9061347f565b80601f016020809104026020016040519081016040528092919081815260200182805461105b9061347f565b80156110a85780601f1061107d576101008083540402835291602001916110a8565b820191906000526020600020905b81548152906001019060200180831161108b57829003601f168201915b5050505050905087565b6000805160206137e88339815191526110cb81336126a4565b600083815261010560209081526040808320815160e0810183528154815260018201549381019390935260028101546001600160a01b0316918301919091526003810154606083015260048101546080830152600581015460a083015260068101805460c08401919061113d9061347f565b80601f01602080910402602001604051908101604052809291908181526020018280546111699061347f565b80156111b65780601f1061118b576101008083540402835291602001916111b6565b820191906000526020600020905b81548152906001019060200180831161119957829003601f168201915b505050505081525050905080608001516000146111e55760405162461bcd60e51b815260040161088f906134ba565b60a0810151156112295760405162461bcd60e51b815260206004820152600f60248201526e115e18da185b99d94819985a5b1959608a1b604482015260640161088f565b80516112475760405162461bcd60e51b815260040161088f906134e6565b6020810151610102546001600160a01b03166370a08231336040516001600160e01b031960e084901b1681526001600160a01b03909116600482015260240160206040518083038186803b15801561129e57600080fd5b505afa1580156112b2573d6000803e3d6000fd5b505050506040513d601f19601f820116820180604052508101906112d6919061365e565b116113235760405162461bcd60e51b815260206004820152601c60248201527f496e73756666696369656e74207061796d656e742062616c616e636500000000604482015260640161088f565b604081810180516001600160a01b0390811660009081526101076020908152848220805460ff191690556060860188815242608088019081528a84526101058352959092208651815581870151600182015593516002850180546001600160a01b03191691909416179092555160038301559151600482015560a0830151600582015560c0830151805184936113c09260068501929101906130a8565b50506101025460208301516040516323b872dd60e01b81526001600160a01b0390921692506323b872dd916113fc913391309190600401613677565b602060405180830381600087803b15801561141657600080fd5b505af115801561142a573d6000803e3d6000fd5b505050506040513d601f19601f8201168201806040525081019061144e91906135a4565b506101025461010354604051636eb1769f60e11b81523060048201526001600160a01b039182166024820152600092919091169063dd62ed3e9060440160206040518083038186803b1580156114a357600080fd5b505afa1580156114b7573d6000803e3d6000fd5b505050506040513d601f19601f820116820180604052508101906114db919061365e565b9050816020015181101561158257610102546101035460405163095ea7b360e01b81526001600160a01b0391821660048201526d629b8c891b267182b61400000000602482015291169063095ea7b390604401602060405180830381600087803b15801561154857600080fd5b505af115801561155c573d6000803e3d6000fd5b505050506040513d601f19601f8201168201806040525081019061158091906135a4565b505b61010354610102546040848101516020860151915163a085f19360e01b81526001600160a01b039384166004820152908316602482015260448101919091526001606482015262127500608482015291169063a085f1939060a401600060405180830381600087803b1580156115f757600080fd5b505af115801561160b573d6000803e3d6000fd5b505061010854600092506116229150600190613533565b90506000610108828154811061163a5761163a61354a565b906000526020600020015490506000805b610108548110156116925788610108828154811061166b5761166b61354a565b90600052602060002001541415611680578091505b8061168a81613560565b91505061164b565b508161010882815481106116a8576116a861354a565b6000918252602090912001556101088054806116c6576116c661357b565b600190038181906000526020600020016000905590555050507f2dfb5377a4c384f220c62ce7d7caefab0ad3a944dacb1aa7ff6619a92ea473c38560405161171091815260200190565b60405180910390a15050505050565b306001600160a01b037f00000000000000000000000000000000000000000000000000000000000000001614156117685760405162461bcd60e51b815260040161088f906135c6565b7f00000000000000000000000000000000000000000000000000000000000000006001600160a01b031661179a6127f5565b6001600160a01b0316146117c05760405162461bcd60e51b815260040161088f90613612565b6117c982612823565b610f138282600161284e565b68056bc75e2d6310000081101561182e5760405162461bcd60e51b815260206004820152601f60248201527f4d696e696d756d2031303020706965636573207065722065786368616e676500604482015260640161088f565b6000611838612999565b905060ff54670de0b6b3a7640000611850919061369b565b8261185b33846129ad565b61186591906136ba565b11156118c55760405162461bcd60e51b815260206004820152602960248201527f416c726561647920657863656564656420746f64617927732072656465656d61604482015268189b19481b1a5b5a5d60ba1b606482015260840161088f565b336000908152610107602052604090205460ff16156119265760405162461bcd60e51b815260206004820152601e60248201527f596f75206861766520612065786368616e676520696e2070656e64696e670000604482015260640161088f565b33600090815261010760205260409020805460ff1916600117905560fe5415611c3857600061196d620f424061196760fe5486612b8990919063ffffffff16565b90612b9c565b905060006119816064611967846028612b89565b905060006119956064611967856028612b89565b905060006119a96064611967866014612b89565b6101025460fd546040516323b872dd60e01b81529293506001600160a01b03918216926323b872dd926119e59233929116908890600401613677565b602060405180830381600087803b1580156119ff57600080fd5b505af1158015611a13573d6000803e3d6000fd5b505050506040513d601f19601f82011682018060405250810190611a3791906135a4565b50610102546001600160a01b03166323b872dd3360fb546040516001600160e01b031960e085901b168152611a7b92916001600160a01b0316908790600401613677565b602060405180830381600087803b158015611a9557600080fd5b505af1158015611aa9573d6000803e3d6000fd5b505050506040513d601f19601f82011682018060405250810190611acd91906135a4565b611b335760405162461bcd60e51b815260206004820152603160248201527f48616e646c696e6720666565207472616e7366657220746f20666f756e646174604482015270696f6e57616c6c6574206661696c75726560781b606482015260840161088f565b610102546001600160a01b03166323b872dd3360fc546040516001600160e01b031960e085901b168152611b7692916001600160a01b0316908690600401613677565b602060405180830381600087803b158015611b9057600080fd5b505af1158015611ba4573d6000803e3d6000fd5b505050506040513d601f19601f82011682018060405250810190611bc891906135a4565b611c335760405162461bcd60e51b815260206004820152603660248201527f48616e646c696e6720666565207472616e7366657220746f206f6666696369616044820152756c57616c6c657420746f206f6666206661696c75726560501b606482015260840161088f565b505050505b60006040518060e00160405280428152602001848152602001611c583390565b6001600160a01b03168152602001600081526020016000815260200160008152602001604051806020016040528060008152508152509050611c9f61010080546001019055565b6000611cab6101005490565b6000818152610105602090815260409182902085518155858201516001820155918501516002830180546001600160a01b0319166001600160a01b03909216919091179055606085015160038301556080850151600483015560a0850151600583015560c085015180519394508593611d2a92600685019201906130a8565b509050506101046000611d3a3390565b6001600160a01b0316815260208082019290925260409081016000908120868252835281812080546001808201835591835284832001859055610108805491820181559091527f8543e9adbfbe1f62b7411fdf032fcfea758a7d6b332f64d971a1334c2ff364dd01839055518281527f11d92a0857878af15713bca494b98c6a4b566d1abbb0db6de15370430d4b4ebd9101610e60565b6101046020528260005260406000206020528160005260406000208181548110611dfa57600080fd5b9060005260206000200160009250925050505481565b6000805160206137e8833981519152611e2981336126a4565b600083815261010660209081526040808320815160e0810183528154815260018201549381019390935260028101546001600160a01b0316918301919091526003810154606083015260048101546080830152600581015460a083015260068101805460c084019190611e9b9061347f565b80601f0160208091040260200160405190810160405280929190818152602001828054611ec79061347f565b8015611f145780601f10611ee957610100808354040283529160200191611f14565b820191906000526020600020905b815481529060010190602001808311611ef757829003601f168201915b50505050508152505090508060800151600014611f6a5760405162461bcd60e51b815260206004820152601460248201527311195c1bdcda5d08185b1c9958591e481c185a5960621b604482015260640161088f565b8051611f885760405162461bcd60e51b815260040161088f906134e6565b4260a0820190815260c082018481526000868152610106602090815260409182902085518155818601516001820155918501516002830180546001600160a01b0319166001600160a01b0390921691909117905560608501516003830155608085015160048301559251600582015590518051849361200e9260068501929101906130a8565b5050610109546000915061202490600190613533565b90506000610109828154811061203c5761203c61354a565b906000526020600020015490506000805b610109548110156120945787610109828154811061206d5761206d61354a565b90600052602060002001541415612082578091505b8061208c81613560565b91505061204d565b508161010982815481106120aa576120aa61354a565b6000918252602090912001556101098054806120c8576120c861357b565b60019003818190600052602060002001600090559055505050837feb6842f8c41d6de1b391a69b098391511693a0fece5ce81eebdc52828ca41dd784604051610a9b9190613591565b610109546000906121225750600090565b6101096000815481106121375761213761354a565b9060005260206000200154905090565b610109818154811061074b57600080fd5b60009182526065602090815260408084206001600160a01b0393909316845291905290205460ff1690565b600054610100900460ff1661219e5760005460ff16156121a2565b303b155b6122055760405162461bcd60e51b815260206004820152602e60248201527f496e697469616c697a61626c653a20636f6e747261637420697320616c72656160448201526d191e481a5b9a5d1a585b1a5e995960921b606482015260840161088f565b600054610100900460ff16158015612227576000805461ffff19166101011790555b61010280546001600160a01b03199081166001600160a01b038a8116919091179092556101038054821689841617905560fe84905560fd8054821686841617905560fb8054821687841617905560fc805490911691871691909117905561228f612710612ba8565b612297612be3565b61229f612c1c565b80156122b1576000805461ff00191690555b50505050505050565b7ff5eb84615c2a00ecaf817d13794ebd6299c9e01c395bf4018453f13f577f54496122e581336126a4565b610f1382612ba8565b68056bc75e2d631000008110156123475760405162461bcd60e51b815260206004820152601f60248201527f4d696e696d756d2031303020706965636573207065722065786368616e676500604482015260640161088f565b6101025481906001600160a01b03166370a08231336040516001600160e01b031960e084901b1681526001600160a01b03909116600482015260240160206040518083038186803b15801561239b57600080fd5b505afa1580156123af573d6000803e3d6000fd5b505050506040513d601f19601f820116820180604052508101906123d3919061365e565b116124205760405162461bcd60e51b815260206004820152601c60248201527f496e73756666696369656e74207061796d656e742062616c616e636500000000604482015260640161088f565b610102546001600160a01b03166323b872dd3330846040518463ffffffff1660e01b815260040161245393929190613677565b602060405180830381600087803b15801561246d57600080fd5b505af1158015612481573d6000803e3d6000fd5b505050506040513d601f19601f820116820180604052508101906124a591906135a4565b5060006040518060e001604052804281526020018381526020016124c63390565b6001600160a01b0316815260200160008152602001600081526020016000815260200160405180602001604052806000815250815250905061250d61010180546001019055565b60006125196101015490565b6000818152610106602090815260409182902085518155858201516001820155918501516002830180546001600160a01b0319166001600160a01b03909216919091179055606085015160038301556080850151600483015560a0850151600583015560c08501518051939450859361259892600685019201906130a8565b505061010980546001810182556000919091527fd7f48d1c2d4fdcceabee32a4fd1437f382c65f0f9af09a878c95c20147dc06a801829055506040518181527f4d6ce1e535dbade1c23defba91e23b8f791ce5edc0cc320257a2b364e4e384269060200160405180910390a1505050565b60008281526065602052604090206001015461262581336126a4565b610e94838361278e565b610106602052600090815260409020805460018201546002830154600384015460048501546005860154600687018054969795966001600160a01b039095169593949293919261102f9061347f565b6101085460009061268f5750600090565b6101086000815481106121375761213761354a565b6126ae8282612158565b610f13576126c6816001600160a01b03166014612cad565b6126d1836020612cad565b6040516020016126e29291906136d2565b60408051601f198184030181529082905262461bcd60e51b825261088f91600401613591565b6127128282612158565b610f135760008281526065602090815260408083206001600160a01b03851684529091529020805460ff1916600117905561274a3390565b6001600160a01b0316816001600160a01b0316837f2f8788117e7eff1d82e926ec794901d17c78024a50270940304540a733656f0d60405160405180910390a45050565b6127988282612158565b15610f135760008281526065602090815260408083206001600160a01b0385168085529252808320805460ff1916905551339285917ff6391f5c32d9c69d2a47ea670b442974b53935d1edc7fd64eb21e047a839171b9190a45050565b7f360894a13ba1a3210667c828492db98dca3e2076cc3735a920a3ca505d382bbc546001600160a01b031690565b7f189ab7a9244df0848122154315af71fe140f3db0fe014031783b0946b8c9d2e3610f1381336126a4565b60006128586127f5565b905061286384612e49565b6000835111806128705750815b156128815761287f8484612eee565b505b7f4910fdfa16fed3260ed0e7147f7cc6da11a60208b5b9406d12a635614ffd9143805460ff1661299257805460ff191660011781556040516001600160a01b038316602482015261290090869060440160408051601f198184030181529190526020810180516001600160e01b0316631b2ce7f360e11b179052612eee565b50805460ff191681556129116127f5565b6001600160a01b0316826001600160a01b0316146129895760405162461bcd60e51b815260206004820152602f60248201527f45524331393637557067726164653a207570677261646520627265616b73206660448201526e75727468657220757067726164657360881b606482015260840161088f565b61299285612fd9565b5050505050565b60006129a86201518042613747565b905090565b6001600160a01b038216600090815261010460209081526040808320848452825280832080548251818502810185019093528083528493830182828015612a1357602002820191906000526020600020905b8154815260200190600101908083116129ff575b50505050509050600080600090505b8251811015612b805760006101056000858481518110612a4457612a4461354a565b602002602001015181526020019081526020016000206040518060e001604052908160008201548152602001600182015481526020016002820160009054906101000a90046001600160a01b03166001600160a01b03166001600160a01b03168152602001600382015481526020016004820154815260200160058201548152602001600682018054612ad69061347f565b80601f0160208091040260200160405190810160405280929190818152602001828054612b029061347f565b8015612b4f5780601f10612b2457610100808354040283529160200191612b4f565b820191906000526020600020905b815481529060010190602001808311612b3257829003601f168201915b5050505050815250509050806020015183612b6a91906136ba565b9250508080612b7890613560565b915050612a22565b50949350505050565b6000612b95828461369b565b9392505050565b6000612b958284613747565b60ff8190556040518181527f3b24ade2863d68d94bc0ef455c5abf3f240b69d4728d269b1a33c0141224609b9060200160405180910390a150565b600054610100900460ff16612c0a5760405162461bcd60e51b815260040161088f90613769565b612c12613019565b612c1a613019565b565b612c24613040565b612c2f600033612708565b612c597ff5eb84615c2a00ecaf817d13794ebd6299c9e01c395bf4018453f13f577f544933612708565b612c837f9f2df0fed2c77648de5860a4cc508cd0818c85b8b8a1ab4ceeef8d981c8956a633612708565b612c1a7f189ab7a9244df0848122154315af71fe140f3db0fe014031783b0946b8c9d2e333612708565b60606000612cbc83600261369b565b612cc79060026136ba565b67ffffffffffffffff811115612cdf57612cdf613184565b6040519080825280601f01601f191660200182016040528015612d09576020820181803683370190505b509050600360fc1b81600081518110612d2457612d2461354a565b60200101906001600160f81b031916908160001a905350600f60fb1b81600181518110612d5357612d5361354a565b60200101906001600160f81b031916908160001a9053506000612d7784600261369b565b612d829060016136ba565b90505b6001811115612dfa576f181899199a1a9b1b9c1cb0b131b232b360811b85600f1660108110612db657612db661354a565b1a60f81b828281518110612dcc57612dcc61354a565b60200101906001600160f81b031916908160001a90535060049490941c93612df3816137b4565b9050612d85565b508315612b955760405162461bcd60e51b815260206004820181905260248201527f537472696e67733a20686578206c656e67746820696e73756666696369656e74604482015260640161088f565b803b612ead5760405162461bcd60e51b815260206004820152602d60248201527f455243313936373a206e657720696d706c656d656e746174696f6e206973206e60448201526c1bdd08184818dbdb9d1c9858dd609a1b606482015260840161088f565b7f360894a13ba1a3210667c828492db98dca3e2076cc3735a920a3ca505d382bbc80546001600160a01b0319166001600160a01b0392909216919091179055565b6060823b612f4d5760405162461bcd60e51b815260206004820152602660248201527f416464726573733a2064656c65676174652063616c6c20746f206e6f6e2d636f6044820152651b9d1c9858dd60d21b606482015260840161088f565b600080846001600160a01b031684604051612f6891906137cb565b600060405180830381855af49150503d8060008114612fa3576040519150601f19603f3d011682016040523d82523d6000602084013e612fa8565b606091505b5091509150612fd082826040518060600160405280602781526020016138086027913961306f565b95945050505050565b612fe281612e49565b6040516001600160a01b038216907fbc7cd75a20ee27fd9adebab32041f755214dbc6bffa90cc0225b39da2e5c2d3b90600090a250565b600054610100900460ff16612c1a5760405162461bcd60e51b815260040161088f90613769565b600054610100900460ff166130675760405162461bcd60e51b815260040161088f90613769565b612c0a613019565b6060831561307e575081612b95565b82511561308e5782518084602001fd5b8160405162461bcd60e51b815260040161088f9190613591565b8280546130b49061347f565b90600052602060002090601f0160209004810192826130d6576000855561311c565b82601f106130ef57805160ff191683800117855561311c565b8280016001018555821561311c579182015b8281111561311c578251825591602001919060010190613101565b5061312892915061312c565b5090565b5b80821115613128576000815560010161312d565b60006020828403121561315357600080fd5b81356001600160e01b031981168114612b9557600080fd5b60006020828403121561317d57600080fd5b5035919050565b634e487b7160e01b600052604160045260246000fd5b600067ffffffffffffffff808411156131b5576131b5613184565b604051601f8501601f19908116603f011681019082821181831017156131dd576131dd613184565b816040528093508581528686860111156131f657600080fd5b858560208301376000602087830101525050509392505050565b6000806040838503121561322357600080fd5b82359150602083013567ffffffffffffffff81111561324157600080fd5b8301601f8101851361325257600080fd5b6132618582356020840161319a565b9150509250929050565b6000806040838503121561327e57600080fd5b50508035926020909101359150565b6001600160a01b0381168114610fdd57600080fd5b600080604083850312156132b557600080fd5b8235915060208301356132c78161328d565b809150509250929050565b6000602082840312156132e457600080fd5b8135612b958161328d565b60005b8381101561330a5781810151838201526020016132f2565b83811115613319576000848401525b50505050565b600081518084526133378160208601602086016132ef565b601f01601f19169290920160200192915050565b87815286602082015260018060a01b03861660408201528460608201528360808201528260a082015260e060c0820152600061338a60e083018461331f565b9998505050505050505050565b600080604083850312156133aa57600080fd5b82356133b58161328d565b9150602083013567ffffffffffffffff81111561324157600080fd5b6000806000606084860312156133e657600080fd5b83356133f18161328d565b95602085013595506040909401359392505050565b60008060008060008060c0878903121561341f57600080fd5b863561342a8161328d565b9550602087013561343a8161328d565b9450604087013561344a8161328d565b9350606087013561345a8161328d565b9250608087013561346a8161328d565b8092505060a087013590509295509295509295565b600181811c9082168061349357607f821691505b602082108114156134b457634e487b7160e01b600052602260045260246000fd5b50919050565b6020808252601290820152714475706c6963617465207061796d656e747360701b604082015260600190565b6020808252601a908201527f4e6f7420666f756e642065786368616e6765207265636f726473000000000000604082015260600190565b634e487b7160e01b600052601160045260246000fd5b6000828210156135455761354561351d565b500390565b634e487b7160e01b600052603260045260246000fd5b60006000198214156135745761357461351d565b5060010190565b634e487b7160e01b600052603160045260246000fd5b602081526000612b95602083018461331f565b6000602082840312156135b657600080fd5b81518015158114612b9557600080fd5b6020808252602c908201527f46756e6374696f6e206d7573742062652063616c6c6564207468726f7567682060408201526b19195b1959d85d1958d85b1b60a21b606082015260800190565b6020808252602c908201527f46756e6374696f6e206d7573742062652063616c6c6564207468726f7567682060408201526b6163746976652070726f787960a01b606082015260800190565b60006020828403121561367057600080fd5b5051919050565b6001600160a01b039384168152919092166020820152604081019190915260600190565b60008160001904831182151516156136b5576136b561351d565b500290565b600082198211156136cd576136cd61351d565b500190565b7f416363657373436f6e74726f6c3a206163636f756e742000000000000000000081526000835161370a8160178501602088016132ef565b7001034b99036b4b9b9b4b733903937b6329607d1b601791840191820152835161373b8160288401602088016132ef565b01602801949350505050565b60008261376457634e487b7160e01b600052601260045260246000fd5b500490565b6020808252602b908201527f496e697469616c697a61626c653a20636f6e7472616374206973206e6f74206960408201526a6e697469616c697a696e6760a81b606082015260800190565b6000816137c3576137c361351d565b506000190190565b600082516137dd8184602087016132ef565b919091019291505056fe19d1bb95aa4278ba8d6282dbd4743df4dfa774d51ae7edcf81e834cba5d6803c416464726573733a206c6f772d6c6576656c2064656c65676174652063616c6c206661696c6564a264697066735822122040ffb37e55a2d6c32e42772ee5f279287eaf665eee860c02ef233972502cdcc164736f6c63430008090033","immutableReferences":{"1051":[{"length":32,"start":3874},{"length":32,"start":3938},{"length":32,"start":5930},{"length":32,"start":5994}]},"source":"// SPDX-License-Identifier: MIT\npragma solidity 0.8.9;\n\nimport \"@openzeppelin/contracts-upgradeable/token/ERC1155/ERC1155Upgradeable.sol\";\nimport \"@openzeppelin/contracts-upgradeable/token/ERC20/IERC20Upgradeable.sol\";\nimport \"@openzeppelin/contracts-upgradeable/access/AccessControlUpgradeable.sol\";\nimport \"@openzeppelin/contracts-upgradeable/token/ERC1155/extensions/ERC1155BurnableUpgradeable.sol\";\nimport \"@openzeppelin/contracts-upgradeable/proxy/utils/Initializable.sol\";\nimport \"@openzeppelin/contracts-upgradeable/proxy/utils/UUPSUpgradeable.sol\";\nimport \"@openzeppelin/contracts-upgradeable/utils/math/SafeMathUpgradeable.sol\";\nimport \"@openzeppelin/contracts-upgradeable/utils/CountersUpgradeable.sol\";\nimport \"./MelandTierAddressStore.sol\";\nimport \"./MelandAccessRoles.sol\";\nimport \"./MelandTier.sol\";\nimport \"./Meland1155MELDFuture.sol\";\n\n// MELD Exchange\n// MELD -> ditamin\n// ditamin -> MELD\n\ncontract MelandExchange is Initializable, MelandAccessRoles, UUPSUpgradeable {\n    using SafeMathUpgradeable for uint256;\n    using CountersUpgradeable for CountersUpgradeable.Counter;\n\n    // 40% ownerCutPerMillion\n    address public foundationWallet;\n\n    // 20% ownerCutPerMillion\n    address public officialWallet;\n\n    // If the acceptedToken is a MELD, We will burn 40% of it,\n    // Else it is another token,\n    // We will credit it to the bidback account, and then periodically buy back and burn it.\n    address public bidbackWallet;\n\n    uint256 public ownerCutPerMillion;\n\n    bytes32 public constant PAYMENT_ROLE = keccak256(\"PAYMENT_ROLE\");\n\n    uint256 public limitEveryDayMELD;\n\n    CountersUpgradeable.Counter private _exchangeMELDCounter;\n    CountersUpgradeable.Counter private _depositDitaminCounter;\n\n    IERC20Upgradeable public acceptedToken;\n\n    Meland1155MELDFuture public melandMELDFuture;\n\n    event MELDLimitUpdate(uint256 newLimit);\n\n    event Deposit(uint256 depositId);\n\n    event DepositPaymentSuccess(uint256 depositId);\n\n    event DepositPaymentFail(uint256 indexed depositId, string message);\n\n    event Exchange(uint256 exchangeId);\n\n    event ExchangePaymentSuccess(uint256 exchangeId);\n\n    event ExchangePaymentFail(uint256 indexed exchangeId, string message);\n\n    // Used to limit the number of redemptions per user per day.\n    mapping(address => mapping(uint256 => uint256[]))\n        public getExchangeMELDIdsByUserAndDay;\n\n    mapping(uint256 => ExchangeMELD) public getExchangeMELDById;\n    mapping(uint256 => DepositDitamin) public getDepositDitaminById;\n\n    //\n    mapping(address => bool) public lockedByUser;\n\n    // Exchange ids awaiting payment\n    uint256[] public pendingExchangeIds;\n\n    // Deposit ids awaiting payment\n    uint256[] public pendingDepositIds;\n\n    struct ExchangeMELD {\n        uint256 exchangedAt;\n        uint256 amountOfMELD;\n        address beneficiary;\n        uint256 paymentDitamin;\n        uint256 paymentAt;\n        uint256 failedAt;\n        string failedMessage;\n    }\n\n    struct DepositDitamin {\n        uint256 depositedAt;\n        uint256 amountOfMELD;\n        address beneficiary;\n        uint256 paymentDitamin;\n        uint256 paymentAt;\n        uint256 failedAt;\n        string failedMessage;\n    }\n\n    function initialize(\n        IERC20Upgradeable _token,\n        Meland1155MELDFuture _melandMELDFuture,\n        address _officialWallet,\n        address _foundationWallet,\n        address _bidbackWallet,\n        uint256 _ownerCutPerMillion\n    ) public initializer {\n        acceptedToken = _token;\n        melandMELDFuture = _melandMELDFuture;\n        ownerCutPerMillion = _ownerCutPerMillion;\n        bidbackWallet = _bidbackWallet;\n        foundationWallet = _foundationWallet;\n        officialWallet = _officialWallet;\n        _updateMELDLimit(10000);\n        __UUPSUpgradeable_init();\n        __MelandAccessRoles_init();\n    }\n\n    function getPendingExchangeId() public view returns(uint256) {\n        if (pendingExchangeIds.length == 0) {\n            return 0;\n        }\n        return pendingExchangeIds[0];\n    }\n\n    function getPendingDepositId() public view returns(uint256) {\n        if (pendingDepositIds.length == 0) {\n            return 0;\n        }\n        return pendingDepositIds[0];\n    }\n\n    function getCurrentDay() private view returns (uint256) {\n        return block.timestamp / 86400;\n    }\n\n    function _updateMELDLimit(uint256 _limit) internal {\n        limitEveryDayMELD = _limit;\n        emit MELDLimitUpdate(_limit);\n    }\n\n    function _getTotalAmountByDay(address u, uint256 day)\n        internal\n        view\n        returns (uint256)\n    {\n        uint256[] memory exchangeMELDIds = getExchangeMELDIdsByUserAndDay[u][\n            day\n        ];\n        uint256 totalAmount;\n        for (uint256 i = 0; i < exchangeMELDIds.length; i++) {\n            ExchangeMELD memory exchangeMELD = getExchangeMELDById[\n                exchangeMELDIds[i]\n            ];\n            totalAmount += exchangeMELD.amountOfMELD;\n        }\n        return totalAmount;\n    }\n\n    function exchange(uint256 amountMELD) public {\n        require(amountMELD >= 100 * 10**18, \"Minimum 100 pieces per exchange\");\n        uint256 day = getCurrentDay();\n        require(\n            _getTotalAmountByDay(_msgSender(), day) + amountMELD <=\n                limitEveryDayMELD * 10**18,\n            \"Already exceeded today's redeemable limit\"\n        );\n\n        // Prevent runs caused by excessive exchange\n        require(!lockedByUser[_msgSender()], \"You have a exchange in pending\");\n        lockedByUser[_msgSender()] = true;\n\n        // The fee is charged first to prevent malicious exchange attacks\n        // Because the balance of the user's ditamin cannot be verified here,\n        // Malicious redemptions may occur when the user initiates a redemption with only a small amount of gas to pay.\n        // Causes payment congestion\n        {\n            if (ownerCutPerMillion > 0) {\n                // Calculate sale share\n                uint256 saleShareAmount = amountMELD\n                    .mul(ownerCutPerMillion)\n                    .div(1000000);\n\n                // 40% burn in handling fee\n                uint256 burnAmount = saleShareAmount.mul(40).div(100);\n\n                // The other 40% is held by the Foundation\n                uint256 foundationAmount = saleShareAmount.mul(40).div(100);\n\n                // The last 20% are official earnings\n                uint256 officialAmount = saleShareAmount.mul(20).div(100);\n\n                // transfer to bidback wallet when burn failed.\n                acceptedToken.transferFrom(\n                    _msgSender(),\n                    bidbackWallet,\n                    burnAmount\n                );\n\n                require(\n                    acceptedToken.transferFrom(\n                        _msgSender(),\n                        foundationWallet,\n                        foundationAmount\n                    ),\n                    \"Handling fee transfer to foundationWallet failure\"\n                );\n                require(\n                    acceptedToken.transferFrom(\n                        _msgSender(),\n                        officialWallet,\n                        officialAmount\n                    ),\n                    \"Handling fee transfer to officialWallet to off failure\"\n                );\n            }\n        }\n\n        ExchangeMELD memory exchangeMELD = ExchangeMELD(\n            block.timestamp,\n            amountMELD,\n            _msgSender(),\n            0,\n            0,\n            0,\n            \"\"\n        );\n        _exchangeMELDCounter.increment();\n        uint256 exchId = _exchangeMELDCounter.current();\n        getExchangeMELDById[exchId] = exchangeMELD;\n        getExchangeMELDIdsByUserAndDay[_msgSender()][day].push(exchId);\n        pendingExchangeIds.push(exchId);\n        emit Exchange(exchId);\n    }\n\n    // Make MELD payment, here you can not need to restrict the permission.\n    // Because the caller needs to pay the MELD fee for this.\n    function exchangePay(uint256 exchangeId, uint256 ditaminAmount) public onlyRole(PAYMENT_ROLE) {\n        ExchangeMELD memory exchangeMELD = getExchangeMELDById[exchangeId];\n        require(exchangeMELD.paymentAt == 0, \"Duplicate payments\");\n        require(exchangeMELD.failedAt == 0, \"Exchange failed\");\n        require(exchangeMELD.exchangedAt > 0, \"Not found exchange records\");\n        require(\n            acceptedToken.balanceOf(_msgSender()) > exchangeMELD.amountOfMELD,\n            \"Insufficient payment balance\"\n        );\n        lockedByUser[exchangeMELD.beneficiary] = false;\n        exchangeMELD.paymentDitamin = ditaminAmount;\n        exchangeMELD.paymentAt = block.timestamp;\n        getExchangeMELDById[exchangeId] = exchangeMELD;\n\n        acceptedToken.transferFrom(\n            _msgSender(),\n            address(this),\n            exchangeMELD.amountOfMELD\n        );\n\n        uint256 allowance = acceptedToken.allowance(address(this), address(melandMELDFuture));\n        if (allowance < exchangeMELD.amountOfMELD) {\n            acceptedToken.approve(address(melandMELDFuture), 2000000000000000 * 10 ** 18);\n        }\n\n        melandMELDFuture.mintBatch(\n            acceptedToken,\n            exchangeMELD.beneficiary,\n            exchangeMELD.amountOfMELD,\n            1,\n            14 days\n        );\n\n        // remove pending\n        {\n            uint256 lastIndex = pendingExchangeIds.length - 1;\n            uint256 lastId = pendingExchangeIds[lastIndex];\n            uint256 index = 0;\n\n            for (uint256 i = 0; i < pendingExchangeIds.length; i ++ ) {\n                if (pendingExchangeIds[i] == exchangeId) {\n                    index = i;\n                }\n            }\n            pendingExchangeIds[index] = lastId;\n            pendingExchangeIds.pop();\n        }\n\n        emit ExchangePaymentSuccess(exchangeId);\n    }\n\n    function exchangeFailed(uint256 exchangeId, string memory message) public onlyRole(PAYMENT_ROLE) {\n        ExchangeMELD memory exchangeMELD = getExchangeMELDById[exchangeId];\n        require(exchangeMELD.paymentAt == 0, \"Duplicate payments\");\n        require(exchangeMELD.failedAt == 0, \"Exchange failed\");\n        require(exchangeMELD.exchangedAt > 0, \"Not found exchange records\");\n\n        lockedByUser[exchangeMELD.beneficiary] = false;\n        exchangeMELD.failedMessage = message;\n        exchangeMELD.failedAt = block.timestamp;\n        getExchangeMELDById[exchangeId] = exchangeMELD;\n\n        // remove pending\n        {\n            uint256 lastIndex = pendingExchangeIds.length - 1;\n            uint256 lastId = pendingExchangeIds[lastIndex];\n            uint256 index = 0;\n\n            for (uint256 i = 0; i < pendingExchangeIds.length; i ++ ) {\n                if (pendingExchangeIds[i] == exchangeId) {\n                    index = i;\n                }\n            }\n            pendingExchangeIds[index] = lastId;\n            pendingExchangeIds.pop();\n        }\n\n        emit ExchangePaymentFail(exchangeId, message);\n    }\n\n    function deposit(uint256 amountMELD) public {\n        require(amountMELD >= 100 * 10**18, \"Minimum 100 pieces per exchange\");\n        require(\n            acceptedToken.balanceOf(_msgSender()) > amountMELD,\n            \"Insufficient payment balance\"\n        );\n        acceptedToken.transferFrom(_msgSender(), address(this), amountMELD);\n        DepositDitamin memory depositDitamin = DepositDitamin(\n            block.timestamp,\n            amountMELD,\n            _msgSender(),\n            0,\n            0,\n            0,\n            \"\"\n        );\n        _depositDitaminCounter.increment();\n        uint256 depositId = _depositDitaminCounter.current();\n        getDepositDitaminById[depositId] = depositDitamin;\n        pendingDepositIds.push(depositId);\n        emit Deposit(depositId);\n    }\n\n    // Make a ditamin payment, called by the game server\n    function depositPay(uint256 depositId, uint256 ditaminAmount)\n        public\n        onlyRole(PAYMENT_ROLE)\n    {\n        DepositDitamin memory depositDitamin = getDepositDitaminById[depositId];\n        require(depositDitamin.paymentAt == 0, \"Duplicate payments\");\n        require(depositDitamin.failedAt == 0, \"Deposit failed\");\n        require(depositDitamin.depositedAt > 0, \"Not found exchange records\");\n        depositDitamin.paymentAt = block.timestamp;\n        depositDitamin.paymentDitamin = ditaminAmount;\n        getDepositDitaminById[depositId] = depositDitamin;\n        acceptedToken.transfer(_msgSender(), depositDitamin.amountOfMELD);\n\n        // remove pending\n        {\n            uint256 lastIndex = pendingDepositIds.length - 1;\n            uint256 lastId = pendingDepositIds[lastIndex];\n            uint256 index = 0;\n            for (uint256 i = 0; i < pendingDepositIds.length; i ++ ) {\n                if (pendingDepositIds[i] == depositId) {\n                    index = i;\n                }\n            }\n            pendingDepositIds[index] = lastId;\n            pendingDepositIds.pop();\n        }\n\n        emit DepositPaymentSuccess(depositId);\n    }\n\n    function depositFailed(uint256 depositId, string memory message) public onlyRole(PAYMENT_ROLE) {\n        DepositDitamin memory depositDitamin = getDepositDitaminById[depositId];\n        require(depositDitamin.paymentAt == 0, \"Deposit already paid\");\n        require(depositDitamin.depositedAt > 0, \"Not found exchange records\");\n        depositDitamin.failedAt = block.timestamp;\n        depositDitamin.failedMessage = message;\n        getDepositDitaminById[depositId] = depositDitamin;\n        // remove pending\n        {\n            uint256 lastIndex = pendingDepositIds.length - 1;\n            uint256 lastId = pendingDepositIds[lastIndex];\n            uint256 index = 0;\n\n            for (uint256 i = 0; i < pendingDepositIds.length; i ++ ) {\n                if (pendingDepositIds[i] == depositId) {\n                    index = i;\n                }\n            }\n            pendingDepositIds[index] = lastId;\n            pendingDepositIds.pop();\n        }\n\n        emit DepositPaymentFail(depositId, message);\n    }\n\n    function updateMELDLimit(uint256 _limit) public onlyRole(GM_ROLE) {\n        _updateMELDLimit(_limit);\n    }\n\n    function _authorizeUpgrade(address newImplementation)\n        internal\n        override\n        onlyRole(UPGRADER_ROLE)\n    {}\n}\n","sourcePath":"/Users/alberthuang/code/contracts/contracts/MelandExchange.sol","compiler":{"name":"solc","version":"0.8.9+commit.e5eed63a.Emscripten.clang"},"schemaVersion":"3.4.3","updatedAt":"2022-01-25T07:44:20.527Z","devdoc":{"kind":"dev","methods":{"getRoleAdmin(bytes32)":{"details":"Returns the admin role that controls `role`. See {grantRole} and {revokeRole}. To change a role's admin, use {_setRoleAdmin}."},"grantRole(bytes32,address)":{"details":"Grants `role` to `account`. If `account` had not been already granted `role`, emits a {RoleGranted} event. Requirements: - the caller must have ``role``'s admin role."},"hasRole(bytes32,address)":{"details":"Returns `true` if `account` has been granted `role`."},"renounceRole(bytes32,address)":{"details":"Revokes `role` from the calling account. Roles are often managed via {grantRole} and {revokeRole}: this function's purpose is to provide a mechanism for accounts to lose their privileges if they are compromised (such as when a trusted device is misplaced). If the calling account had been revoked `role`, emits a {RoleRevoked} event. Requirements: - the caller must be `account`."},"revokeRole(bytes32,address)":{"details":"Revokes `role` from `account`. If `account` had been granted `role`, emits a {RoleRevoked} event. Requirements: - the caller must have ``role``'s admin role."},"supportsInterface(bytes4)":{"details":"See {IERC165-supportsInterface}."},"upgradeTo(address)":{"details":"Upgrade the implementation of the proxy to `newImplementation`. Calls {_authorizeUpgrade}. Emits an {Upgraded} event."},"upgradeToAndCall(address,bytes)":{"details":"Upgrade the implementation of the proxy to `newImplementation`, and subsequently execute the function call encoded in `data`. Calls {_authorizeUpgrade}. Emits an {Upgraded} event."}},"version":1},"userdoc":{"kind":"user","methods":{},"version":1}}