{
  "contractName": "MelandStakes",
  "abi": [
    {
      "anonymous": false,
      "inputs": [
        {
          "indexed": false,
          "internalType": "address",
          "name": "previousAdmin",
          "type": "address"
        },
        {
          "indexed": false,
          "internalType": "address",
          "name": "newAdmin",
          "type": "address"
        }
      ],
      "name": "AdminChanged",
      "type": "event"
    },
    {
      "anonymous": false,
      "inputs": [
        {
          "indexed": true,
          "internalType": "address",
          "name": "beacon",
          "type": "address"
        }
      ],
      "name": "BeaconUpgraded",
      "type": "event"
    },
    {
      "anonymous": false,
      "inputs": [
        {
          "indexed": true,
          "internalType": "uint256",
          "name": "stakePoolId",
          "type": "uint256"
        }
      ],
      "name": "CreateStakePool",
      "type": "event"
    },
    {
      "anonymous": false,
      "inputs": [
        {
          "indexed": true,
          "internalType": "uint256",
          "name": "stakePoolId",
          "type": "uint256"
        }
      ],
      "name": "DefaultStakeUpdate",
      "type": "event"
    },
    {
      "anonymous": false,
      "inputs": [
        {
          "indexed": true,
          "internalType": "bytes32",
          "name": "stakeId",
          "type": "bytes32"
        },
        {
          "indexed": false,
          "internalType": "uint256",
          "name": "eran",
          "type": "uint256"
        }
      ],
      "name": "Harvest",
      "type": "event"
    },
    {
      "anonymous": false,
      "inputs": [
        {
          "indexed": true,
          "internalType": "bytes32",
          "name": "stakeId",
          "type": "bytes32"
        },
        {
          "indexed": true,
          "internalType": "address",
          "name": "staker",
          "type": "address"
        }
      ],
      "name": "NewStake",
      "type": "event"
    },
    {
      "anonymous": false,
      "inputs": [
        {
          "indexed": true,
          "internalType": "bytes32",
          "name": "role",
          "type": "bytes32"
        },
        {
          "indexed": true,
          "internalType": "bytes32",
          "name": "previousAdminRole",
          "type": "bytes32"
        },
        {
          "indexed": true,
          "internalType": "bytes32",
          "name": "newAdminRole",
          "type": "bytes32"
        }
      ],
      "name": "RoleAdminChanged",
      "type": "event"
    },
    {
      "anonymous": false,
      "inputs": [
        {
          "indexed": true,
          "internalType": "bytes32",
          "name": "role",
          "type": "bytes32"
        },
        {
          "indexed": true,
          "internalType": "address",
          "name": "account",
          "type": "address"
        },
        {
          "indexed": true,
          "internalType": "address",
          "name": "sender",
          "type": "address"
        }
      ],
      "name": "RoleGranted",
      "type": "event"
    },
    {
      "anonymous": false,
      "inputs": [
        {
          "indexed": true,
          "internalType": "bytes32",
          "name": "role",
          "type": "bytes32"
        },
        {
          "indexed": true,
          "internalType": "address",
          "name": "account",
          "type": "address"
        },
        {
          "indexed": true,
          "internalType": "address",
          "name": "sender",
          "type": "address"
        }
      ],
      "name": "RoleRevoked",
      "type": "event"
    },
    {
      "anonymous": false,
      "inputs": [
        {
          "indexed": true,
          "internalType": "bytes32",
          "name": "stakeId",
          "type": "bytes32"
        }
      ],
      "name": "StakeClaim",
      "type": "event"
    },
    {
      "anonymous": false,
      "inputs": [
        {
          "indexed": true,
          "internalType": "address",
          "name": "implementation",
          "type": "address"
        }
      ],
      "name": "Upgraded",
      "type": "event"
    },
    {
      "inputs": [],
      "name": "DEFAULT_ADMIN_ROLE",
      "outputs": [
        {
          "internalType": "bytes32",
          "name": "",
          "type": "bytes32"
        }
      ],
      "stateMutability": "view",
      "type": "function"
    },
    {
      "inputs": [],
      "name": "GM_ROLE",
      "outputs": [
        {
          "internalType": "bytes32",
          "name": "",
          "type": "bytes32"
        }
      ],
      "stateMutability": "view",
      "type": "function"
    },
    {
      "inputs": [],
      "name": "MINTER_ROLE",
      "outputs": [
        {
          "internalType": "bytes32",
          "name": "",
          "type": "bytes32"
        }
      ],
      "stateMutability": "view",
      "type": "function"
    },
    {
      "inputs": [],
      "name": "UPGRADER_ROLE",
      "outputs": [
        {
          "internalType": "bytes32",
          "name": "",
          "type": "bytes32"
        }
      ],
      "stateMutability": "view",
      "type": "function"
    },
    {
      "inputs": [],
      "name": "acceptedToken",
      "outputs": [
        {
          "internalType": "contract IERC20Upgradeable",
          "name": "",
          "type": "address"
        }
      ],
      "stateMutability": "view",
      "type": "function"
    },
    {
      "inputs": [
        {
          "internalType": "bytes32",
          "name": "role",
          "type": "bytes32"
        }
      ],
      "name": "getRoleAdmin",
      "outputs": [
        {
          "internalType": "bytes32",
          "name": "",
          "type": "bytes32"
        }
      ],
      "stateMutability": "view",
      "type": "function"
    },
    {
      "inputs": [
        {
          "internalType": "bytes32",
          "name": "role",
          "type": "bytes32"
        },
        {
          "internalType": "address",
          "name": "account",
          "type": "address"
        }
      ],
      "name": "grantRole",
      "outputs": [],
      "stateMutability": "nonpayable",
      "type": "function"
    },
    {
      "inputs": [
        {
          "internalType": "bytes32",
          "name": "role",
          "type": "bytes32"
        },
        {
          "internalType": "address",
          "name": "account",
          "type": "address"
        }
      ],
      "name": "hasRole",
      "outputs": [
        {
          "internalType": "bool",
          "name": "",
          "type": "bool"
        }
      ],
      "stateMutability": "view",
      "type": "function"
    },
    {
      "inputs": [
        {
          "internalType": "bytes32",
          "name": "role",
          "type": "bytes32"
        },
        {
          "internalType": "address",
          "name": "account",
          "type": "address"
        }
      ],
      "name": "renounceRole",
      "outputs": [],
      "stateMutability": "nonpayable",
      "type": "function"
    },
    {
      "inputs": [
        {
          "internalType": "bytes32",
          "name": "role",
          "type": "bytes32"
        },
        {
          "internalType": "address",
          "name": "account",
          "type": "address"
        }
      ],
      "name": "revokeRole",
      "outputs": [],
      "stateMutability": "nonpayable",
      "type": "function"
    },
    {
      "inputs": [
        {
          "internalType": "bytes32",
          "name": "",
          "type": "bytes32"
        }
      ],
      "name": "stakeById",
      "outputs": [
        {
          "internalType": "uint256",
          "name": "stakePoolId",
          "type": "uint256"
        },
        {
          "internalType": "address",
          "name": "staker",
          "type": "address"
        },
        {
          "internalType": "uint256",
          "name": "lastRecivedAt",
          "type": "uint256"
        },
        {
          "internalType": "uint256",
          "name": "stakedAt",
          "type": "uint256"
        },
        {
          "internalType": "uint256",
          "name": "expiredAt",
          "type": "uint256"
        },
        {
          "internalType": "bool",
          "name": "claimed",
          "type": "bool"
        }
      ],
      "stateMutability": "view",
      "type": "function"
    },
    {
      "inputs": [
        {
          "internalType": "uint256",
          "name": "",
          "type": "uint256"
        }
      ],
      "name": "stakePoolById",
      "outputs": [
        {
          "internalType": "uint256",
          "name": "ditaminLD",
          "type": "uint256"
        },
        {
          "internalType": "uint256",
          "name": "ditaminC",
          "type": "uint256"
        },
        {
          "internalType": "uint256",
          "name": "numberOfMELD",
          "type": "uint256"
        },
        {
          "internalType": "uint8",
          "name": "landC",
          "type": "uint8"
        },
        {
          "internalType": "bytes",
          "name": "vipname",
          "type": "bytes"
        },
        {
          "internalType": "uint8",
          "name": "stakeApyPercent",
          "type": "uint8"
        },
        {
          "internalType": "uint8",
          "name": "gameApyPercent",
          "type": "uint8"
        },
        {
          "internalType": "uint256",
          "name": "freezeTime",
          "type": "uint256"
        },
        {
          "internalType": "uint256",
          "name": "totalVolume",
          "type": "uint256"
        }
      ],
      "stateMutability": "view",
      "type": "function"
    },
    {
      "inputs": [
        {
          "internalType": "address",
          "name": "",
          "type": "address"
        },
        {
          "internalType": "uint256",
          "name": "",
          "type": "uint256"
        }
      ],
      "name": "stakePoolIdsByStaker",
      "outputs": [
        {
          "internalType": "uint256",
          "name": "",
          "type": "uint256"
        }
      ],
      "stateMutability": "view",
      "type": "function"
    },
    {
      "inputs": [
        {
          "internalType": "uint256",
          "name": "",
          "type": "uint256"
        }
      ],
      "name": "stakePoolSaleCountByStakePoolId",
      "outputs": [
        {
          "internalType": "uint256",
          "name": "",
          "type": "uint256"
        }
      ],
      "stateMutability": "view",
      "type": "function"
    },
    {
      "inputs": [
        {
          "internalType": "bytes4",
          "name": "interfaceId",
          "type": "bytes4"
        }
      ],
      "name": "supportsInterface",
      "outputs": [
        {
          "internalType": "bool",
          "name": "",
          "type": "bool"
        }
      ],
      "stateMutability": "view",
      "type": "function"
    },
    {
      "inputs": [
        {
          "internalType": "address",
          "name": "newImplementation",
          "type": "address"
        }
      ],
      "name": "upgradeTo",
      "outputs": [],
      "stateMutability": "nonpayable",
      "type": "function"
    },
    {
      "inputs": [
        {
          "internalType": "address",
          "name": "newImplementation",
          "type": "address"
        },
        {
          "internalType": "bytes",
          "name": "data",
          "type": "bytes"
        }
      ],
      "name": "upgradeToAndCall",
      "outputs": [],
      "stateMutability": "payable",
      "type": "function"
    },
    {
      "inputs": [],
      "name": "initialize",
      "outputs": [],
      "stateMutability": "nonpayable",
      "type": "function"
    },
    {
      "inputs": [
        {
          "internalType": "contract IERC20Upgradeable",
          "name": "_acceptedToken",
          "type": "address"
        }
      ],
      "name": "setAcceptedToken",
      "outputs": [],
      "stateMutability": "nonpayable",
      "type": "function"
    },
    {
      "inputs": [
        {
          "internalType": "address",
          "name": "staker",
          "type": "address"
        }
      ],
      "name": "getUserCurrentHighLevelStake",
      "outputs": [
        {
          "internalType": "uint8",
          "name": "",
          "type": "uint8"
        },
        {
          "internalType": "uint256",
          "name": "",
          "type": "uint256"
        },
        {
          "internalType": "uint256",
          "name": "",
          "type": "uint256"
        },
        {
          "internalType": "uint8",
          "name": "",
          "type": "uint8"
        }
      ],
      "stateMutability": "view",
      "type": "function"
    },
    {
      "inputs": [
        {
          "internalType": "uint256",
          "name": "stakePoolId",
          "type": "uint256"
        }
      ],
      "name": "stake",
      "outputs": [],
      "stateMutability": "nonpayable",
      "type": "function"
    },
    {
      "inputs": [],
      "name": "harvest",
      "outputs": [],
      "stateMutability": "nonpayable",
      "type": "function"
    },
    {
      "inputs": [
        {
          "internalType": "uint256",
          "name": "stakePoolId",
          "type": "uint256"
        }
      ],
      "name": "claim",
      "outputs": [],
      "stateMutability": "nonpayable",
      "type": "function"
    },
    {
      "inputs": [],
      "name": "getStakerAllEarned",
      "outputs": [
        {
          "internalType": "uint256",
          "name": "",
          "type": "uint256"
        }
      ],
      "stateMutability": "view",
      "type": "function"
    },
    {
      "inputs": [
        {
          "internalType": "uint256",
          "name": "amount",
          "type": "uint256"
        }
      ],
      "name": "withdraw",
      "outputs": [],
      "stateMutability": "nonpayable",
      "type": "function"
    }
  ],
  "bytecode": "0x60a06040523060805234801561001457600080fd5b50608051613036610045600039600081816108ce0152818161090e015281816109b401526109f401526130366000f3fe6080604052600436106101665760003560e01c80637487f528116100d1578063beadd5f91161008a578063e95cc47d11610064578063e95cc47d146104f2578063f72c0d8b14610507578063feb95e671461053b578063fee496f21461056857600080fd5b8063beadd5f91461040a578063d53913931461049e578063d547741f146104d257600080fd5b80637487f528146103375780638129fc1c1461035757806382d630871461036c57806391d14854146103b5578063a217fddf146103d5578063a694fc3a146103ea57600080fd5b806336568abe1161012357806336568abe146102775780633659cfe614610297578063379607f5146102b7578063451c3d80146102d75780634641257d1461030f5780634f1ef2861461032457600080fd5b806301ffc9a71461016b578063248a9ca3146101a05780632e1a7d4d146101de5780632f2ff15d146102005780633032ac0c1461022057806330c7be2c14610255575b600080fd5b34801561017757600080fd5b5061018b610186366004612a8f565b610588565b60405190151581526020015b60405180910390f35b3480156101ac57600080fd5b506101d06101bb366004612ab9565b60009081526065602052604090206001015490565b604051908152602001610197565b3480156101ea57600080fd5b506101fe6101f9366004612ab9565b6105bf565b005b34801561020c57600080fd5b506101fe61021b366004612ae7565b610743565b34801561022c57600080fd5b5061024061023b366004612ab9565b610769565b60405161019799989796959493929190612b6f565b34801561026157600080fd5b506101d0600080516020612fe183398151915281565b34801561028357600080fd5b506101fe610292366004612ae7565b610845565b3480156102a357600080fd5b506101fe6102b2366004612bcb565b6108c3565b3480156102c357600080fd5b506101fe6102d2366004612ab9565b61098c565b3480156102e357600080fd5b506098546102f7906001600160a01b031681565b6040516001600160a01b039091168152602001610197565b34801561031b57600080fd5b506101fe61099e565b6101fe610332366004612bfe565b6109a9565b34801561034357600080fd5b506101fe610352366004612bcb565b610a5f565b34801561036357600080fd5b506101fe610a9b565b34801561037857600080fd5b5061038c610387366004612bcb565b610d6e565b6040805160ff958616815260208101949094528301919091529091166060820152608001610197565b3480156103c157600080fd5b5061018b6103d0366004612ae7565b610ebe565b3480156103e157600080fd5b506101d0600081565b3480156103f657600080fd5b506101fe610405366004612ab9565b610ee9565b34801561041657600080fd5b50610467610425366004612ab9565b609c6020526000908152604090208054600182015460028301546003840154600485015460059095015493946001600160a01b03909316939192909160ff1686565b604080519687526001600160a01b0390951660208701529385019290925260608401526080830152151560a082015260c001610197565b3480156104aa57600080fd5b506101d07f9f2df0fed2c77648de5860a4cc508cd0818c85b8b8a1ab4ceeef8d981c8956a681565b3480156104de57600080fd5b506101fe6104ed366004612ae7565b610ef3565b3480156104fe57600080fd5b506101d0610f19565b34801561051357600080fd5b506101d07f189ab7a9244df0848122154315af71fe140f3db0fe014031783b0946b8c9d2e381565b34801561054757600080fd5b506101d0610556366004612ab9565b609b6020526000908152604090205481565b34801561057457600080fd5b506101d0610583366004612cc2565b610f2a565b60006001600160e01b03198216637965db0b60e01b14806105b957506301ffc9a760e01b6001600160e01b03198316145b92915050565b600080516020612fe18339815191526105d88133610f5b565b60985482906001600160a01b03166370a08231336040516001600160e01b031960e084901b1681526001600160a01b03909116600482015260240160206040518083038186803b15801561062b57600080fd5b505afa15801561063f573d6000803e3d6000fd5b505050506040513d601f19601f820116820180604052508101906106639190612cee565b116106ac5760405162461bcd60e51b8152602060048201526014602482015273496e73756666696369656e742062616c616e636560601b60448201526064015b60405180910390fd5b6098546001600160a01b031663a9059cbb336040516001600160e01b031960e084901b1681526001600160a01b03909116600482015260248101859052604401602060405180830381600087803b15801561070657600080fd5b505af115801561071a573d6000803e3d6000fd5b505050506040513d601f19601f8201168201806040525081019061073e9190612d07565b505050565b60008281526065602052604090206001015461075f8133610f5b565b61073e8383610fbf565b609a602052600090815260409020805460018201546002830154600384015460048501805494959394929360ff909216926107a390612d29565b80601f01602080910402602001604051908101604052809291908181526020018280546107cf90612d29565b801561081c5780601f106107f15761010080835404028352916020019161081c565b820191906000526020600020905b8154815290600101906020018083116107ff57829003601f168201915b50505060058401546006850154600790950154939460ff80831695610100909304169350915089565b6001600160a01b03811633146108b55760405162461bcd60e51b815260206004820152602f60248201527f416363657373436f6e74726f6c3a2063616e206f6e6c792072656e6f756e636560448201526e103937b632b9903337b91039b2b63360891b60648201526084016106a3565b6108bf8282611045565b5050565b306001600160a01b037f000000000000000000000000000000000000000000000000000000000000000016141561090c5760405162461bcd60e51b81526004016106a390612d64565b7f00000000000000000000000000000000000000000000000000000000000000006001600160a01b031661093e6110ac565b6001600160a01b0316146109645760405162461bcd60e51b81526004016106a390612db0565b61096d816110da565b6040805160008082526020820190925261098991839190611105565b50565b6109896109993383611250565b611297565b6109a733611611565b565b306001600160a01b037f00000000000000000000000000000000000000000000000000000000000000001614156109f25760405162461bcd60e51b81526004016106a390612d64565b7f00000000000000000000000000000000000000000000000000000000000000006001600160a01b0316610a246110ac565b6001600160a01b031614610a4a5760405162461bcd60e51b81526004016106a390612db0565b610a53826110da565b6108bf82826001611105565b600080516020612fe1833981519152610a788133610f5b565b50609880546001600160a01b0319166001600160a01b0392909216919091179055565b600054610100900460ff16610ab65760005460ff1615610aba565b303b155b610b1d5760405162461bcd60e51b815260206004820152602e60248201527f496e697469616c697a61626c653a20636f6e747261637420697320616c72656160448201526d191e481a5b9a5d1a585b1a5e995960921b60648201526084016106a3565b600054610100900460ff16158015610b3f576000805461ffff19166101011790555b610b476116cc565b610b4f611703565b610bcc610bc760405180610120016040528060fa8152602001600a815260200160008152602001600860ff168152602001604051806040016040528060048152602001634672656560e01b8152508152602001600060ff168152602001600060ff168152602001600081526020016000815250611782565b61186b565b610c5060405180610120016040528061012c8152602001600f81526020016902544faa778090e000008152602001600f60ff1681526020016040518060400160405280600681526020016529b4b63b32b960d11b8152508152602001601860ff168152602001602460ff16815260200162278d0081526020016103e8815250611782565b50610cd36040518061012001604052806103e88152602001602881526020016908c9b831ab9396f000008152602001601860ff1681526020016040518060400160405280600481526020016311dbdb1960e21b8152508152602001602060ff168152602001603060ff168152602001624f1a008152602001610190815250611782565b50610d596040518061012001604052806105dc815260200160508152602001690e1df89a1c64df6800008152602001602360ff16815260200160405180604001604052806008815260200167506c6174696e756d60c01b8152508152602001602860ff168152602001603c60ff1681526020016276a700815260200160c8815250611782565b508015610989576000805461ff001916905550565b600080600080600080610d8087611901565b81516000908152609a6020908152604080832081516101208101835281548152600182015493810193909352600281015491830191909152600381015460ff166060830152600481018054959750939550919390926080840191610de390612d29565b80601f0160208091040260200160405190810160405280929190818152602001828054610e0f90612d29565b8015610e5c5780601f10610e3157610100808354040283529160200191610e5c565b820191906000526020600020905b815481529060010190602001808311610e3f57829003601f168201915b5050509183525050600582015460ff808216602080850191909152610100909204166040830152600683015460608084019190915260079093015460809092019190915282519083015192909101519398509650945090925050509193509193565b60009182526065602090815260408084206001600160a01b0393909316845291905290205460ff1690565b6109893382611c7f565b600082815260656020526040902060010154610f0f8133610f5b565b61073e8383611045565b6000610f25334261217f565b905090565b609d6020528160005260406000208181548110610f4657600080fd5b90600052602060002001600091509150505481565b610f658282610ebe565b6108bf57610f7d816001600160a01b0316601461223a565b610f8883602061223a565b604051602001610f99929190612dfc565b60408051601f198184030181529082905262461bcd60e51b82526106a391600401612e71565b610fc98282610ebe565b6108bf5760008281526065602090815260408083206001600160a01b03851684529091529020805460ff191660011790556110013390565b6001600160a01b0316816001600160a01b0316837f2f8788117e7eff1d82e926ec794901d17c78024a50270940304540a733656f0d60405160405180910390a45050565b61104f8282610ebe565b156108bf5760008281526065602090815260408083206001600160a01b0385168085529252808320805460ff1916905551339285917ff6391f5c32d9c69d2a47ea670b442974b53935d1edc7fd64eb21e047a839171b9190a45050565b7f360894a13ba1a3210667c828492db98dca3e2076cc3735a920a3ca505d382bbc546001600160a01b031690565b7f189ab7a9244df0848122154315af71fe140f3db0fe014031783b0946b8c9d2e36108bf8133610f5b565b600061110f6110ac565b905061111a846123dd565b6000835111806111275750815b15611138576111368484612482565b505b7f4910fdfa16fed3260ed0e7147f7cc6da11a60208b5b9406d12a635614ffd9143805460ff1661124957805460ff191660011781556040516001600160a01b03831660248201526111b790869060440160408051601f198184030181529190526020810180516001600160e01b0316631b2ce7f360e11b179052612482565b50805460ff191681556111c86110ac565b6001600160a01b0316826001600160a01b0316146112405760405162461bcd60e51b815260206004820152602f60248201527f45524331393637557067726164653a207570677261646520627265616b73206660448201526e75727468657220757067726164657360881b60648201526084016106a3565b6112498561256d565b5050505050565b6040516bffffffffffffffffffffffff19606084901b1660208201526034810182905260009060540160405160208183030381529060405280519060200120905092915050565b6000818152609c6020908152604091829020825160c081018452815480825260018301546001600160a01b03169382019390935260028201549381019390935260038101546060840152600481015460808401526005015460ff16151560a08301526113375760405162461bcd60e51b815260206004820152600f60248201526e1cdd185ad9481b9bdd08199bdd5b99608a1b60448201526064016106a3565b428160800151106113815760405162461bcd60e51b815260206004820152601460248201527339ba30b5b2903337b91032bc3834b930ba34b7b760611b60448201526064016106a3565b8060a00151156113c35760405162461bcd60e51b815260206004820152600d60248201526c616c726561647920636c61696d60981b60448201526064016106a3565b600160a0820181905281516000908152609a60209081526040808320815161012081018352815481529481015492850192909252600282015490840152600381015460ff16606084015260048101805492939260808401919061142590612d29565b80601f016020809104026020016040519081016040528092919081815260200182805461145190612d29565b801561149e5780601f106114735761010080835404028352916020019161149e565b820191906000526020600020905b81548152906001019060200180831161148157829003601f168201915b5050509183525050600582015460ff80821660208085019190915261010090920416604080840191909152600684015460608401526007909301546080909201919091526098549085015183830151925163a9059cbb60e01b81526001600160a01b0391821660048201526024810193909352929350919091169063a9059cbb90604401602060405180830381600087803b15801561153c57600080fd5b505af1158015611550573d6000803e3d6000fd5b505050506040513d601f19601f820116820180604052508101906115749190612d07565b506000838152609c6020908152604080832085518155918501516001830180546001600160a01b0319166001600160a01b03909216919091179055848101516002830155606085015160038301556080850151600483015560a08501516005909201805460ff1916921515929092179091555184917fdfe0de20fca88bb00cb9a97b4ad14079d36aa622c18c081a38e6b29f6e19561d91a2505050565b6001600160a01b0381166000908152609d60209081526040808320805482518185028101850190935280835242949383018282801561166f57602002820191906000526020600020905b81548152602001906001019080831161165b575b5050505050905060005b81518110156116c65760006116a78584848151811061169a5761169a612e84565b6020026020010151611250565b90506116b381856125ad565b50806116be81612eb0565b915050611679565b50505050565b600054610100900460ff166116f35760405162461bcd60e51b81526004016106a390612ecb565b6116fb612706565b6109a7612706565b61170b61272d565b611716600033610fbf565b61172e600080516020612fe183398151915233610fbf565b6117587f9f2df0fed2c77648de5860a4cc508cd0818c85b8b8a1ab4ceeef8d981c8956a633610fbf565b6109a77f189ab7a9244df0848122154315af71fe140f3db0fe014031783b0946b8c9d2e333610fbf565b60008061178e60975490565b905061179e609780546001019055565b6000818152609a602090815260409182902085518155858201516001820155918501516002830155606085015160038301805460ff191660ff909216919091179055608085015180518693926117fb9260048501929101906129f6565b5060a082015160058201805460c085015160ff90811661010090810261ffff19909316919094161717905560e083015160068301559091015160079091015560405181907f732fae86df8a4bd294a9e9cdb3a5e58953d219c9acaa73b4794807004d23098890600090a292915050565b6000818152609a60205260409020600401805461188790612d29565b151590506118ce5760405162461bcd60e51b81526020600482015260146024820152731cdd185ad9481c1bdbdb081b9bdd08199bdd5b9960621b60448201526064016106a3565b609981905560405181907f720e2ed7faf3513cd9b564022fd7d6b0a91aa3eb2dccab1c20fccb0f2a597cac90600090a250565b6119456040518060c001604052806000815260200160006001600160a01b031681526020016000815260200160008152602001600081526020016000151581525090565b6001600160a01b0382166000908152609d602090815260408083208054825181850281018501909352808352849384938493849384938301828280156119aa57602002820191906000526020600020905b815481526020019060010190808311611996575b5050505050905060005b8151811015611b9b5760008282815181106119d1576119d1612e84565b6020026020010151905042609c60006119ea8d85611250565b8152602001908152602001600020600401541015611a085750611b89565b6000818152609a6020908152604080832081516101208101835281548152600182015493810193909352600281015491830191909152600381015460ff166060830152600481018054608084019190611a6090612d29565b80601f0160208091040260200160405190810160405280929190818152602001828054611a8c90612d29565b8015611ad95780601f10611aae57610100808354040283529160200191611ad9565b820191906000526020600020905b815481529060010190602001808311611abc57829003601f168201915b5050509183525050600582015460ff80821660208401526101009091048116604080840191909152600684015460608401526007909301546080909201919091529082015160a0830151929350611b3292909116612f16565b611b3c9087612f35565b9550806040015185611b4e9190612f35565b94508660ff168160c0015160ff161115611b86578060c001519650838381518110611b7b57611b7b612e84565b602002602001015197505b50505b80611b9381612eb0565b9150506119b4565b505083611bf8576040518060c001604052806099548152602001886001600160a01b03168152602001428152602001428152602001426301e13380611be09190612f35565b81526001602090910152976000975095505050505050565b609c6000611c068987611250565b81526020019081526020016000208183611c209190612f4d565b6040805160c0810182528354815260018401546001600160a01b03166020820152600284015491810191909152600383015460608201526004830154608082015260059092015460ff16151560a0830152909890975095505050505050565b6000818152609a6020908152604080832081516101208101835281548152600182015493810193909352600281015491830191909152600381015460ff166060830152600481018054608084019190611cd790612d29565b80601f0160208091040260200160405190810160405280929190818152602001828054611d0390612d29565b8015611d505780601f10611d2557610100808354040283529160200191611d50565b820191906000526020600020905b815481529060010190602001808311611d3357829003601f168201915b5050509183525050600582015460ff80821660208401526101009091041660408201526006820154606082015260079091015460809182015281015151909150611dd35760405162461bcd60e51b81526020600482015260146024820152731cdd185ad9481c1bdbdb081b9bdd08199bdd5b9960621b60448201526064016106a3565b6101008101516000838152609b602052604090205410611e355760405162461bcd60e51b815260206004820152601760248201527f496e73756666696369656e7420706f6f6c20736861726500000000000000000060448201526064016106a3565b6000611e418484611250565b6000818152609c602052604090205490915015611ea05760405162461bcd60e51b815260206004820181905260248201527f4f6e6c79206f6e65207374616b6520666f72207468652073616d6520706f6f6c60448201526064016106a3565b6000838152609b60205260408120805460019290611ebf908490612f35565b90915550506040828101516098549151636eb1769f60e11b81526001600160a01b0387811660048301523060248301529192919091169063dd62ed3e9060440160206040518083038186803b158015611f1757600080fd5b505afa158015611f2b573d6000803e3d6000fd5b505050506040513d601f19601f82011682018060405250810190611f4f9190612cee565b118260400151604051602001611f9191907f616c6c6f77616e636520696e73756666696369656e74206372656469742028008152601f810191909152603f0190565b60405160208183030381529060405290611fbe5760405162461bcd60e51b81526004016106a39190612e71565b5060985460408301516001600160a01b03909116906323b872dd9086903090611fe990606490612f6f565b6040516001600160e01b031960e086901b1681526001600160a01b0393841660048201529290911660248301526044820152606401602060405180830381600087803b15801561203857600080fd5b505af115801561204c573d6000803e3d6000fd5b505050506040513d601f19601f820116820180604052508101906120709190612d07565b506001600160a01b0384166000818152609d60209081526040808320805460018101825590845282842001879055805160c08101825287815291820193909352429281018390526060810183905260e08501519192909160808301916120d69190612f35565b815260006020918201819052848152609c8252604080822084518155928401516001840180546001600160a01b0319166001600160a01b03928316179055848201516002850155606085015160038501556080850151600485015560a08501516005909401805460ff191694151594909417909355519293509087169184917f9fe79936194ebb2b9e1fef7bc9eaf5a81c14d670b0489c53004ab3115e6709df91a35050505050565b6001600160a01b0382166000908152609d60209081526040808320805482518185028101850190935280835284938301828280156121dc57602002820191906000526020600020905b8154815260200190600101908083116121c8575b50505050509050600080600090505b82518110156122315761221361220d8785848151811061169a5761169a612e84565b8661275c565b61221d9083612f35565b91508061222981612eb0565b9150506121eb565b50949350505050565b60606000612249836002612f16565b612254906002612f35565b67ffffffffffffffff81111561226c5761226c612be8565b6040519080825280601f01601f191660200182016040528015612296576020820181803683370190505b509050600360fc1b816000815181106122b1576122b1612e84565b60200101906001600160f81b031916908160001a905350600f60fb1b816001815181106122e0576122e0612e84565b60200101906001600160f81b031916908160001a9053506000612304846002612f16565b61230f906001612f35565b90505b6001811115612387576f181899199a1a9b1b9c1cb0b131b232b360811b85600f166010811061234357612343612e84565b1a60f81b82828151811061235957612359612e84565b60200101906001600160f81b031916908160001a90535060049490941c9361238081612f86565b9050612312565b5083156123d65760405162461bcd60e51b815260206004820181905260248201527f537472696e67733a20686578206c656e67746820696e73756666696369656e7460448201526064016106a3565b9392505050565b803b6124415760405162461bcd60e51b815260206004820152602d60248201527f455243313936373a206e657720696d706c656d656e746174696f6e206973206e60448201526c1bdd08184818dbdb9d1c9858dd609a1b60648201526084016106a3565b7f360894a13ba1a3210667c828492db98dca3e2076cc3735a920a3ca505d382bbc80546001600160a01b0319166001600160a01b0392909216919091179055565b6060823b6124e15760405162461bcd60e51b815260206004820152602660248201527f416464726573733a2064656c65676174652063616c6c20746f206e6f6e2d636f6044820152651b9d1c9858dd60d21b60648201526084016106a3565b600080846001600160a01b0316846040516124fc9190612f9d565b600060405180830381855af49150503d8060008114612537576040519150601f19603f3d011682016040523d82523d6000602084013e61253c565b606091505b50915091506125648282604051806060016040528060278152602001612fba602791396129bd565b95945050505050565b612576816123dd565b6040516001600160a01b038216907fbc7cd75a20ee27fd9adebab32041f755214dbc6bffa90cc0225b39da2e5c2d3b90600090a250565b6000828152609c60209081526040808320815160c0810183528154815260018201546001600160a01b03169381019390935260028101549183019190915260038101546060830152600481015460808301526005015460ff16151560a082015290612618848461275c565b9050806126255750505050565b6000848152609c602090815260409182902060020185905560985490840151915163a9059cbb60e01b81526001600160a01b0392831660048201526024810184905291169063a9059cbb90604401602060405180830381600087803b15801561268d57600080fd5b505af11580156126a1573d6000803e3d6000fd5b505050506040513d601f19601f820116820180604052508101906126c59190612d07565b50837fd3ab9a69ac1632a6447fe8ed278bf0868cb4e8b70c9f0630769bb07b5abe513c826040516126f891815260200190565b60405180910390a250505050565b600054610100900460ff166109a75760405162461bcd60e51b81526004016106a390612ecb565b600054610100900460ff166127545760405162461bcd60e51b81526004016106a390612ecb565b6116f3612706565b6000828152609c60209081526040808320815160c081018352815480825260018301546001600160a01b03169482019490945260028201549281019290925260038101546060830152600481015460808301526005015460ff16151560a0820152906127cc5760009150506105b9565b80516000908152609a6020908152604080832081516101208101835281548152600182015493810193909352600281015491830191909152600381015460ff16606083015260048101805460808401919061282690612d29565b80601f016020809104026020016040519081016040528092919081815260200182805461285290612d29565b801561289f5780601f106128745761010080835404028352916020019161289f565b820191906000526020600020905b81548152906001019060200180831161288257829003601f168201915b5050509183525050600582015460ff808216602084015261010090910416604080830191909152600683015460608301526007909201546080918201528401519084015191925014156128f7576000925050506105b9565b60008260400151836080015161290d9190612f6f565b905060008360400151866129219190612f6f565b90508181111561292e5750805b600061293c610e1083612f4d565b90508161294b82610e10612f16565b111561295f5761295c600182612f6f565b90505b60006301e1338060648660a0015160ff16876040015161297f9190612f16565b6129899190612f4d565b6129939190612f4d565b905060006129a382610e10612f16565b90506129af8382612f16565b9a9950505050505050505050565b606083156129cc5750816123d6565b8251156129dc5782518084602001fd5b8160405162461bcd60e51b81526004016106a39190612e71565b828054612a0290612d29565b90600052602060002090601f016020900481019282612a245760008555612a6a565b82601f10612a3d57805160ff1916838001178555612a6a565b82800160010185558215612a6a579182015b82811115612a6a578251825591602001919060010190612a4f565b50612a76929150612a7a565b5090565b5b80821115612a765760008155600101612a7b565b600060208284031215612aa157600080fd5b81356001600160e01b0319811681146123d657600080fd5b600060208284031215612acb57600080fd5b5035919050565b6001600160a01b038116811461098957600080fd5b60008060408385031215612afa57600080fd5b823591506020830135612b0c81612ad2565b809150509250929050565b60005b83811015612b32578181015183820152602001612b1a565b838111156116c65750506000910152565b60008151808452612b5b816020860160208601612b17565b601f01601f19169290920160200192915050565b60006101208b83528a602084015289604084015260ff89166060840152806080840152612b9e81840189612b43565b60ff97881660a08501529590961660c08301525060e0810192909252610100909101529695505050505050565b600060208284031215612bdd57600080fd5b81356123d681612ad2565b634e487b7160e01b600052604160045260246000fd5b60008060408385031215612c1157600080fd5b8235612c1c81612ad2565b9150602083013567ffffffffffffffff80821115612c3957600080fd5b818501915085601f830112612c4d57600080fd5b813581811115612c5f57612c5f612be8565b604051601f8201601f19908116603f01168101908382118183101715612c8757612c87612be8565b81604052828152886020848701011115612ca057600080fd5b8260208601602083013760006020848301015280955050505050509250929050565b60008060408385031215612cd557600080fd5b8235612ce081612ad2565b946020939093013593505050565b600060208284031215612d0057600080fd5b5051919050565b600060208284031215612d1957600080fd5b815180151581146123d657600080fd5b600181811c90821680612d3d57607f821691505b60208210811415612d5e57634e487b7160e01b600052602260045260246000fd5b50919050565b6020808252602c908201527f46756e6374696f6e206d7573742062652063616c6c6564207468726f7567682060408201526b19195b1959d85d1958d85b1b60a21b606082015260800190565b6020808252602c908201527f46756e6374696f6e206d7573742062652063616c6c6564207468726f7567682060408201526b6163746976652070726f787960a01b606082015260800190565b7f416363657373436f6e74726f6c3a206163636f756e7420000000000000000000815260008351612e34816017850160208801612b17565b7001034b99036b4b9b9b4b733903937b6329607d1b6017918401918201528351612e65816028840160208801612b17565b01602801949350505050565b6020815260006123d66020830184612b43565b634e487b7160e01b600052603260045260246000fd5b634e487b7160e01b600052601160045260246000fd5b6000600019821415612ec457612ec4612e9a565b5060010190565b6020808252602b908201527f496e697469616c697a61626c653a20636f6e7472616374206973206e6f74206960408201526a6e697469616c697a696e6760a81b606082015260800190565b6000816000190483118215151615612f3057612f30612e9a565b500290565b60008219821115612f4857612f48612e9a565b500190565b600082612f6a57634e487b7160e01b600052601260045260246000fd5b500490565b600082821015612f8157612f81612e9a565b500390565b600081612f9557612f95612e9a565b506000190190565b60008251612faf818460208701612b17565b919091019291505056fe416464726573733a206c6f772d6c6576656c2064656c65676174652063616c6c206661696c6564f5eb84615c2a00ecaf817d13794ebd6299c9e01c395bf4018453f13f577f5449a2646970667358221220162be396240e99ce400e32cc57efd37c6b152dd2e032af09544caa6a88d8707a64736f6c63430008090033",
  "immutableReferences": {
    "1051": [
      {
        "length": 32,
        "start": 2254
      },
      {
        "length": 32,
        "start": 2318
      },
      {
        "length": 32,
        "start": 2484
      },
      {
        "length": 32,
        "start": 2548
      }
    ]
  },
  "source": "// SPDX-License-Identifier: MIT\npragma solidity 0.8.9;\n\nimport \"@openzeppelin/contracts-upgradeable/proxy/utils/UUPSUpgradeable.sol\";\nimport \"./MelandAccessRoles.sol\";\nimport \"./MelandStakesStorage.sol\";\n\ncontract MelandStakes is\n    MelandAccessRoles,\n    MelandStakesStorage,\n    UUPSUpgradeable\n{\n    function initialize() public initializer {\n        __UUPSUpgradeable_init();\n        __MelandAccessRoles_init();\n\n        _setDefaultStakePoolId(\n            _createNewStakePool(StakePool(250, 10, 0, 8, \"Free\", 0, 0, 0, 0))\n        );\n        _createNewStakePool(\n            StakePool(300, 15, 11000 * 10 ** 18, 15, \"Silver\", 24, 36, 30 days, 1000)\n        );\n        _createNewStakePool(\n            StakePool(1000, 40, 41500 * 10 ** 18, 24, \"Gold\", 32, 48, 60 days, 400)\n        );\n        _createNewStakePool(\n            StakePool(1500, 80, 66666 * 10 ** 18, 35, \"Platinum\", 40, 60, 90 days, 200)\n        );\n    }\n\n    function setAcceptedToken(IERC20Upgradeable _acceptedToken) public onlyRole(GM_ROLE) {\n        acceptedToken = _acceptedToken;\n    }\n\n    function getUserCurrentHighLevelStake(address staker) public view returns(\n        uint8,\n        uint256,\n        uint256,\n        uint8\n    ) {\n        (Stake memory ustake, uint8 stakeApy) = _getUserCurrentHighLevelStake(staker);\n        StakePool memory pool = stakePoolById[ustake.stakePoolId];\n        return (\n            stakeApy,\n            pool.ditaminLD,\n            pool.ditaminC,\n            pool.landC\n        );\n    }\n\n    function stake(uint256 stakePoolId) public {\n        _stake(_msgSender(), stakePoolId);\n    }\n\n    function harvest() public {\n        _harvestByStaker(_msgSender());\n    }\n\n    function claim(uint256 stakePoolId) public {\n        _claim(_buildStakeId(_msgSender(), stakePoolId));\n    }\n\n    function getStakerAllEarned() public view returns(uint256) {\n        return _getStakerAllEarned(_msgSender(), block.timestamp);\n    }\n\n    function _authorizeUpgrade(address newImplementation)\n        internal\n        override\n        onlyRole(UPGRADER_ROLE)\n    {}\n\n    function withdraw(uint256 amount) public onlyRole(GM_ROLE) {\n        require(\n            acceptedToken.balanceOf(_msgSender()) > amount,\n            \"Insufficient balance\"\n        );\n        acceptedToken.transfer(_msgSender(), amount);\n    }\n}\n",
  "sourcePath": "/Users/alberthuang/code/contracts/contracts/MelandStakes.sol",
  "compiler": {
    "name": "solc",
    "version": "0.8.9+commit.e5eed63a.Emscripten.clang"
  },
  "schemaVersion": "3.4.3",
  "updatedAt": "2022-01-25T07:44:20.546Z",
  "devdoc": {
    "kind": "dev",
    "methods": {
      "getRoleAdmin(bytes32)": {
        "details": "Returns the admin role that controls `role`. See {grantRole} and {revokeRole}. To change a role's admin, use {_setRoleAdmin}."
      },
      "grantRole(bytes32,address)": {
        "details": "Grants `role` to `account`. If `account` had not been already granted `role`, emits a {RoleGranted} event. Requirements: - the caller must have ``role``'s admin role."
      },
      "hasRole(bytes32,address)": {
        "details": "Returns `true` if `account` has been granted `role`."
      },
      "renounceRole(bytes32,address)": {
        "details": "Revokes `role` from the calling account. Roles are often managed via {grantRole} and {revokeRole}: this function's purpose is to provide a mechanism for accounts to lose their privileges if they are compromised (such as when a trusted device is misplaced). If the calling account had been revoked `role`, emits a {RoleRevoked} event. Requirements: - the caller must be `account`."
      },
      "revokeRole(bytes32,address)": {
        "details": "Revokes `role` from `account`. If `account` had been granted `role`, emits a {RoleRevoked} event. Requirements: - the caller must have ``role``'s admin role."
      },
      "supportsInterface(bytes4)": {
        "details": "See {IERC165-supportsInterface}."
      },
      "upgradeTo(address)": {
        "details": "Upgrade the implementation of the proxy to `newImplementation`. Calls {_authorizeUpgrade}. Emits an {Upgraded} event."
      },
      "upgradeToAndCall(address,bytes)": {
        "details": "Upgrade the implementation of the proxy to `newImplementation`, and subsequently execute the function call encoded in `data`. Calls {_authorizeUpgrade}. Emits an {Upgraded} event."
      }
    },
    "version": 1
  },
  "userdoc": {
    "kind": "user",
    "methods": {},
    "version": 1
  }
}