{
  "contractName": "Meland1155MELDFutures",
  "abi": [
    {
      "anonymous": false,
      "inputs": [
        {
          "indexed": false,
          "internalType": "address",
          "name": "previousAdmin",
          "type": "address"
        },
        {
          "indexed": false,
          "internalType": "address",
          "name": "newAdmin",
          "type": "address"
        }
      ],
      "name": "AdminChanged",
      "type": "event"
    },
    {
      "anonymous": false,
      "inputs": [
        {
          "indexed": true,
          "internalType": "address",
          "name": "account",
          "type": "address"
        },
        {
          "indexed": true,
          "internalType": "address",
          "name": "operator",
          "type": "address"
        },
        {
          "indexed": false,
          "internalType": "bool",
          "name": "approved",
          "type": "bool"
        }
      ],
      "name": "ApprovalForAll",
      "type": "event"
    },
    {
      "anonymous": false,
      "inputs": [
        {
          "indexed": true,
          "internalType": "address",
          "name": "beacon",
          "type": "address"
        }
      ],
      "name": "BeaconUpgraded",
      "type": "event"
    },
    {
      "anonymous": false,
      "inputs": [
        {
          "indexed": true,
          "internalType": "bytes32",
          "name": "role",
          "type": "bytes32"
        },
        {
          "indexed": true,
          "internalType": "bytes32",
          "name": "previousAdminRole",
          "type": "bytes32"
        },
        {
          "indexed": true,
          "internalType": "bytes32",
          "name": "newAdminRole",
          "type": "bytes32"
        }
      ],
      "name": "RoleAdminChanged",
      "type": "event"
    },
    {
      "anonymous": false,
      "inputs": [
        {
          "indexed": true,
          "internalType": "bytes32",
          "name": "role",
          "type": "bytes32"
        },
        {
          "indexed": true,
          "internalType": "address",
          "name": "account",
          "type": "address"
        },
        {
          "indexed": true,
          "internalType": "address",
          "name": "sender",
          "type": "address"
        }
      ],
      "name": "RoleGranted",
      "type": "event"
    },
    {
      "anonymous": false,
      "inputs": [
        {
          "indexed": true,
          "internalType": "bytes32",
          "name": "role",
          "type": "bytes32"
        },
        {
          "indexed": true,
          "internalType": "address",
          "name": "account",
          "type": "address"
        },
        {
          "indexed": true,
          "internalType": "address",
          "name": "sender",
          "type": "address"
        }
      ],
      "name": "RoleRevoked",
      "type": "event"
    },
    {
      "anonymous": false,
      "inputs": [
        {
          "indexed": true,
          "internalType": "address",
          "name": "operator",
          "type": "address"
        },
        {
          "indexed": true,
          "internalType": "address",
          "name": "from",
          "type": "address"
        },
        {
          "indexed": true,
          "internalType": "address",
          "name": "to",
          "type": "address"
        },
        {
          "indexed": false,
          "internalType": "uint256[]",
          "name": "ids",
          "type": "uint256[]"
        },
        {
          "indexed": false,
          "internalType": "uint256[]",
          "name": "values",
          "type": "uint256[]"
        }
      ],
      "name": "TransferBatch",
      "type": "event"
    },
    {
      "anonymous": false,
      "inputs": [
        {
          "indexed": true,
          "internalType": "address",
          "name": "operator",
          "type": "address"
        },
        {
          "indexed": true,
          "internalType": "address",
          "name": "from",
          "type": "address"
        },
        {
          "indexed": true,
          "internalType": "address",
          "name": "to",
          "type": "address"
        },
        {
          "indexed": false,
          "internalType": "uint256",
          "name": "id",
          "type": "uint256"
        },
        {
          "indexed": false,
          "internalType": "uint256",
          "name": "value",
          "type": "uint256"
        }
      ],
      "name": "TransferSingle",
      "type": "event"
    },
    {
      "anonymous": false,
      "inputs": [
        {
          "indexed": false,
          "internalType": "string",
          "name": "value",
          "type": "string"
        },
        {
          "indexed": true,
          "internalType": "uint256",
          "name": "id",
          "type": "uint256"
        }
      ],
      "name": "URI",
      "type": "event"
    },
    {
      "anonymous": false,
      "inputs": [
        {
          "indexed": true,
          "internalType": "address",
          "name": "implementation",
          "type": "address"
        }
      ],
      "name": "Upgraded",
      "type": "event"
    },
    {
      "inputs": [],
      "name": "DEFAULT_ADMIN_ROLE",
      "outputs": [
        {
          "internalType": "bytes32",
          "name": "",
          "type": "bytes32"
        }
      ],
      "stateMutability": "view",
      "type": "function"
    },
    {
      "inputs": [],
      "name": "GM_ROLE",
      "outputs": [
        {
          "internalType": "bytes32",
          "name": "",
          "type": "bytes32"
        }
      ],
      "stateMutability": "view",
      "type": "function"
    },
    {
      "inputs": [],
      "name": "MINTER_ROLE",
      "outputs": [
        {
          "internalType": "bytes32",
          "name": "",
          "type": "bytes32"
        }
      ],
      "stateMutability": "view",
      "type": "function"
    },
    {
      "inputs": [],
      "name": "UPGRADER_ROLE",
      "outputs": [
        {
          "internalType": "bytes32",
          "name": "",
          "type": "bytes32"
        }
      ],
      "stateMutability": "view",
      "type": "function"
    },
    {
      "inputs": [
        {
          "internalType": "address",
          "name": "account",
          "type": "address"
        },
        {
          "internalType": "uint256",
          "name": "id",
          "type": "uint256"
        }
      ],
      "name": "balanceOf",
      "outputs": [
        {
          "internalType": "uint256",
          "name": "",
          "type": "uint256"
        }
      ],
      "stateMutability": "view",
      "type": "function"
    },
    {
      "inputs": [
        {
          "internalType": "address[]",
          "name": "accounts",
          "type": "address[]"
        },
        {
          "internalType": "uint256[]",
          "name": "ids",
          "type": "uint256[]"
        }
      ],
      "name": "balanceOfBatch",
      "outputs": [
        {
          "internalType": "uint256[]",
          "name": "",
          "type": "uint256[]"
        }
      ],
      "stateMutability": "view",
      "type": "function"
    },
    {
      "inputs": [
        {
          "internalType": "address",
          "name": "account",
          "type": "address"
        },
        {
          "internalType": "uint256",
          "name": "id",
          "type": "uint256"
        },
        {
          "internalType": "uint256",
          "name": "value",
          "type": "uint256"
        }
      ],
      "name": "burn",
      "outputs": [],
      "stateMutability": "nonpayable",
      "type": "function"
    },
    {
      "inputs": [
        {
          "internalType": "address",
          "name": "account",
          "type": "address"
        },
        {
          "internalType": "uint256[]",
          "name": "ids",
          "type": "uint256[]"
        },
        {
          "internalType": "uint256[]",
          "name": "values",
          "type": "uint256[]"
        }
      ],
      "name": "burnBatch",
      "outputs": [],
      "stateMutability": "nonpayable",
      "type": "function"
    },
    {
      "inputs": [
        {
          "internalType": "uint256",
          "name": "",
          "type": "uint256"
        }
      ],
      "name": "futureById",
      "outputs": [
        {
          "internalType": "contract IERC20Upgradeable",
          "name": "token",
          "type": "address"
        },
        {
          "internalType": "uint256",
          "name": "unlockAt",
          "type": "uint256"
        },
        {
          "internalType": "uint256",
          "name": "amount",
          "type": "uint256"
        }
      ],
      "stateMutability": "view",
      "type": "function"
    },
    {
      "inputs": [
        {
          "internalType": "bytes32",
          "name": "role",
          "type": "bytes32"
        }
      ],
      "name": "getRoleAdmin",
      "outputs": [
        {
          "internalType": "bytes32",
          "name": "",
          "type": "bytes32"
        }
      ],
      "stateMutability": "view",
      "type": "function"
    },
    {
      "inputs": [
        {
          "internalType": "bytes32",
          "name": "role",
          "type": "bytes32"
        },
        {
          "internalType": "address",
          "name": "account",
          "type": "address"
        }
      ],
      "name": "grantRole",
      "outputs": [],
      "stateMutability": "nonpayable",
      "type": "function"
    },
    {
      "inputs": [
        {
          "internalType": "bytes32",
          "name": "role",
          "type": "bytes32"
        },
        {
          "internalType": "address",
          "name": "account",
          "type": "address"
        }
      ],
      "name": "hasRole",
      "outputs": [
        {
          "internalType": "bool",
          "name": "",
          "type": "bool"
        }
      ],
      "stateMutability": "view",
      "type": "function"
    },
    {
      "inputs": [
        {
          "internalType": "bytes32",
          "name": "role",
          "type": "bytes32"
        },
        {
          "internalType": "address",
          "name": "account",
          "type": "address"
        }
      ],
      "name": "renounceRole",
      "outputs": [],
      "stateMutability": "nonpayable",
      "type": "function"
    },
    {
      "inputs": [
        {
          "internalType": "bytes32",
          "name": "role",
          "type": "bytes32"
        },
        {
          "internalType": "address",
          "name": "account",
          "type": "address"
        }
      ],
      "name": "revokeRole",
      "outputs": [],
      "stateMutability": "nonpayable",
      "type": "function"
    },
    {
      "inputs": [
        {
          "internalType": "address",
          "name": "from",
          "type": "address"
        },
        {
          "internalType": "address",
          "name": "to",
          "type": "address"
        },
        {
          "internalType": "uint256[]",
          "name": "ids",
          "type": "uint256[]"
        },
        {
          "internalType": "uint256[]",
          "name": "amounts",
          "type": "uint256[]"
        },
        {
          "internalType": "bytes",
          "name": "data",
          "type": "bytes"
        }
      ],
      "name": "safeBatchTransferFrom",
      "outputs": [],
      "stateMutability": "nonpayable",
      "type": "function"
    },
    {
      "inputs": [
        {
          "internalType": "address",
          "name": "from",
          "type": "address"
        },
        {
          "internalType": "address",
          "name": "to",
          "type": "address"
        },
        {
          "internalType": "uint256",
          "name": "id",
          "type": "uint256"
        },
        {
          "internalType": "uint256",
          "name": "amount",
          "type": "uint256"
        },
        {
          "internalType": "bytes",
          "name": "data",
          "type": "bytes"
        }
      ],
      "name": "safeTransferFrom",
      "outputs": [],
      "stateMutability": "nonpayable",
      "type": "function"
    },
    {
      "inputs": [
        {
          "internalType": "address",
          "name": "operator",
          "type": "address"
        },
        {
          "internalType": "bool",
          "name": "approved",
          "type": "bool"
        }
      ],
      "name": "setApprovalForAll",
      "outputs": [],
      "stateMutability": "nonpayable",
      "type": "function"
    },
    {
      "inputs": [
        {
          "internalType": "contract IERC20Upgradeable",
          "name": "",
          "type": "address"
        }
      ],
      "name": "totalSupplyByERC20",
      "outputs": [
        {
          "internalType": "uint256",
          "name": "",
          "type": "uint256"
        }
      ],
      "stateMutability": "view",
      "type": "function"
    },
    {
      "inputs": [
        {
          "internalType": "address",
          "name": "newImplementation",
          "type": "address"
        }
      ],
      "name": "upgradeTo",
      "outputs": [],
      "stateMutability": "nonpayable",
      "type": "function"
    },
    {
      "inputs": [
        {
          "internalType": "address",
          "name": "newImplementation",
          "type": "address"
        },
        {
          "internalType": "bytes",
          "name": "data",
          "type": "bytes"
        }
      ],
      "name": "upgradeToAndCall",
      "outputs": [],
      "stateMutability": "payable",
      "type": "function"
    },
    {
      "inputs": [
        {
          "internalType": "uint256",
          "name": "",
          "type": "uint256"
        }
      ],
      "name": "uri",
      "outputs": [
        {
          "internalType": "string",
          "name": "",
          "type": "string"
        }
      ],
      "stateMutability": "view",
      "type": "function"
    },
    {
      "inputs": [
        {
          "internalType": "string",
          "name": "uri",
          "type": "string"
        }
      ],
      "name": "initialize",
      "outputs": [],
      "stateMutability": "nonpayable",
      "type": "function"
    },
    {
      "inputs": [
        {
          "internalType": "address",
          "name": "_owner",
          "type": "address"
        },
        {
          "internalType": "address",
          "name": "_operator",
          "type": "address"
        }
      ],
      "name": "isApprovedForAll",
      "outputs": [
        {
          "internalType": "bool",
          "name": "isOperator",
          "type": "bool"
        }
      ],
      "stateMutability": "view",
      "type": "function"
    },
    {
      "inputs": [
        {
          "internalType": "string",
          "name": "newuri",
          "type": "string"
        }
      ],
      "name": "setURI",
      "outputs": [],
      "stateMutability": "nonpayable",
      "type": "function"
    },
    {
      "inputs": [
        {
          "internalType": "contract IERC20Upgradeable",
          "name": "token",
          "type": "address"
        },
        {
          "internalType": "uint256",
          "name": "amount",
          "type": "uint256"
        },
        {
          "internalType": "uint8",
          "name": "count",
          "type": "uint8"
        },
        {
          "internalType": "uint256",
          "name": "lockseconds",
          "type": "uint256"
        }
      ],
      "name": "mintBatch",
      "outputs": [],
      "stateMutability": "nonpayable",
      "type": "function"
    },
    {
      "inputs": [
        {
          "internalType": "contract MelandTier",
          "name": "_tierAddress",
          "type": "address"
        }
      ],
      "name": "setMelandTier",
      "outputs": [],
      "stateMutability": "nonpayable",
      "type": "function"
    },
    {
      "inputs": [
        {
          "internalType": "uint256",
          "name": "id",
          "type": "uint256"
        }
      ],
      "name": "exchange",
      "outputs": [],
      "stateMutability": "nonpayable",
      "type": "function"
    },
    {
      "inputs": [
        {
          "internalType": "bytes4",
          "name": "interfaceId",
          "type": "bytes4"
        }
      ],
      "name": "supportsInterface",
      "outputs": [
        {
          "internalType": "bool",
          "name": "",
          "type": "bool"
        }
      ],
      "stateMutability": "view",
      "type": "function"
    }
  ],
  "bytecode": "0x60a06040523060805234801561001457600080fd5b506080516136926100456000396000818161089e015281816108de01528181610a910152610ad101526136926000f3fe6080604052600436106101b65760003560e01c80636b20c454116100ec578063e985e9c51161008a578063f62d188811610064578063f62d188814610562578063f70e9a4714610582578063f72c0d8b146105a2578063f98adcba146105d657600080fd5b8063e985e9c514610502578063f242432a14610522578063f5298aca1461054257600080fd5b8063a217fddf116100c6578063a217fddf14610479578063a22cb4651461048e578063d5391393146104ae578063d547741f146104e257600080fd5b80636b20c4541461040b57806390b7d8b11461042b57806391d148541461045957600080fd5b80632f2ff15d116101595780633659cfe6116101335780633659cfe61461038b5780634e1273f4146103ab5780634f1ef286146103d857806353556559146103eb57600080fd5b80632f2ff15d1461032957806330c7be2c1461034957806336568abe1461036b57600080fd5b80630d62f77f116101955780630d62f77f146102405780630e89341c146102ac578063248a9ca3146102d95780632eb2c2d61461030957600080fd5b8062fdd58e146101bb57806301ffc9a7146101ee57806302fe53051461021e575b600080fd5b3480156101c757600080fd5b506101db6101d6366004612935565b6105f6565b6040519081526020015b60405180910390f35b3480156101fa57600080fd5b5061020e610209366004612977565b610692565b60405190151581526020016101e5565b34801561022a57600080fd5b5061023e610239366004612a35565b61069d565b005b34801561024c57600080fd5b5061028761025b366004612a86565b610162602052600090815260409020805460018201546002909201546001600160a01b03909116919083565b604080516001600160a01b0390941684526020840192909252908201526060016101e5565b3480156102b857600080fd5b506102cc6102c7366004612a86565b6106c3565b6040516101e59190612af7565b3480156102e557600080fd5b506101db6102f4366004612a86565b60009081526065602052604090206001015490565b34801561031557600080fd5b5061023e610324366004612bbf565b610757565b34801561033557600080fd5b5061023e610344366004612c6d565b6107ee565b34801561035557600080fd5b506101db60008051602061363d83398151915281565b34801561037757600080fd5b5061023e610386366004612c6d565b610819565b34801561039757600080fd5b5061023e6103a6366004612c9d565b610893565b3480156103b757600080fd5b506103cb6103c6366004612cba565b61095c565b6040516101e59190612dc2565b61023e6103e6366004612dd5565b610a86565b3480156103f757600080fd5b5061023e610406366004612a86565b610b3c565b34801561041757600080fd5b5061023e610426366004612e1b565b610ca3565b34801561043757600080fd5b506101db610446366004612c9d565b6101616020526000908152604090205481565b34801561046557600080fd5b5061020e610474366004612c6d565b610ce6565b34801561048557600080fd5b506101db600081565b34801561049a57600080fd5b5061023e6104a9366004612e9f565b610d11565b3480156104ba57600080fd5b506101db7f9f2df0fed2c77648de5860a4cc508cd0818c85b8b8a1ab4ceeef8d981c8956a681565b3480156104ee57600080fd5b5061023e6104fd366004612c6d565b610d1c565b34801561050e57600080fd5b5061020e61051d366004612ecd565b610d42565b34801561052e57600080fd5b5061023e61053d366004612efb565b610d55565b34801561054e57600080fd5b5061023e61055d366004612f64565b610d9a565b34801561056e57600080fd5b5061023e61057d366004612a35565b610ddd565b34801561058e57600080fd5b5061023e61059d366004612c9d565b610e6a565b3480156105ae57600080fd5b506101db7f189ab7a9244df0848122154315af71fe140f3db0fe014031783b0946b8c9d2e381565b3480156105e257600080fd5b5061023e6105f1366004612f99565b610ea2565b60006001600160a01b0383166106675760405162461bcd60e51b815260206004820152602b60248201527f455243313135353a2062616c616e636520717565727920666f7220746865207a60448201526a65726f206164647265737360a81b60648201526084015b60405180910390fd5b5060008181526097602090815260408083206001600160a01b03861684529091529020545b92915050565b600061068c826111cb565b60008051602061363d8339815191526106b6813361120b565b6106bf8261126f565b5050565b6060609980546106d290612fe7565b80601f01602080910402602001604051908101604052809291908181526020018280546106fe90612fe7565b801561074b5780601f106107205761010080835404028352916020019161074b565b820191906000526020600020905b81548152906001019060200180831161072e57829003601f168201915b50505050509050919050565b6001600160a01b03851633148061077357506107738533610d42565b6107da5760405162461bcd60e51b815260206004820152603260248201527f455243313135353a207472616e736665722063616c6c6572206973206e6f74206044820152711bdddb995c881b9bdc88185c1c1c9bdd995960721b606482015260840161065e565b6107e78585858585611282565b5050505050565b60008281526065602052604090206001015461080a813361120b565b610814838361142f565b505050565b6001600160a01b03811633146108895760405162461bcd60e51b815260206004820152602f60248201527f416363657373436f6e74726f6c3a2063616e206f6e6c792072656e6f756e636560448201526e103937b632b9903337b91039b2b63360891b606482015260840161065e565b6106bf82826114b5565b306001600160a01b037f00000000000000000000000000000000000000000000000000000000000000001614156108dc5760405162461bcd60e51b815260040161065e90613022565b7f00000000000000000000000000000000000000000000000000000000000000006001600160a01b031661090e61151c565b6001600160a01b0316146109345760405162461bcd60e51b815260040161065e9061306e565b61093d8161154a565b6040805160008082526020820190925261095991839190611575565b50565b606081518351146109c15760405162461bcd60e51b815260206004820152602960248201527f455243313135353a206163636f756e747320616e6420696473206c656e677468604482015268040dad2e6dac2e8c6d60bb1b606482015260840161065e565b6000835167ffffffffffffffff8111156109dd576109dd612994565b604051908082528060200260200182016040528015610a06578160200160208202803683370190505b50905060005b8451811015610a7e57610a51858281518110610a2a57610a2a6130ba565b6020026020010151858381518110610a4457610a446130ba565b60200260200101516105f6565b828281518110610a6357610a636130ba565b6020908102919091010152610a77816130e6565b9050610a0c565b509392505050565b306001600160a01b037f0000000000000000000000000000000000000000000000000000000000000000161415610acf5760405162461bcd60e51b815260040161065e90613022565b7f00000000000000000000000000000000000000000000000000000000000000006001600160a01b0316610b0161151c565b6001600160a01b031614610b275760405162461bcd60e51b815260040161065e9061306e565b610b308261154a565b6106bf82826001611575565b33610b49818360016116b9565b60008281526101626020908152604091829020825160608101845281546001600160a01b031680825260018301549382019390935260029091015492810192909252610bca5760405162461bcd60e51b815260206004820152601060248201526f199d5d1d5c99481b9bdd08199bdd5b9960821b604482015260640161065e565b42816020015110610c135760405162461bcd60e51b8152602060048201526013602482015272199d5d1d5c99481b9bdd081d5b9b1bd8dad959606a1b604482015260640161065e565b8051604080830151905163a9059cbb60e01b81526001600160a01b038581166004830152602482019290925291169063a9059cbb90604401602060405180830381600087803b158015610c6557600080fd5b505af1158015610c79573d6000803e3d6000fd5b505050506040513d601f19601f82011682018060405250810190610c9d9190613101565b50505050565b6001600160a01b038316331480610cbf5750610cbf8333610d42565b610cdb5760405162461bcd60e51b815260040161065e9061311e565b6108148383836117be565b60009182526065602090815260408084206001600160a01b0393909316845291905290205460ff1690565b6106bf33838361194f565b600082815260656020526040902060010154610d38813361120b565b61081483836114b5565b6000610d4e8383611a30565b9392505050565b6001600160a01b038516331480610d715750610d718533610d42565b610d8d5760405162461bcd60e51b815260040161065e9061311e565b6107e78585858585611aab565b6001600160a01b038316331480610db65750610db68333610d42565b610dd25760405162461bcd60e51b815260040161065e9061311e565b6108148383836116b9565b600054610100900460ff1680610df6575060005460ff16155b610e125760405162461bcd60e51b815260040161065e90613167565b600054610100900460ff16158015610e34576000805461ffff19166101011790555b610e3d82611bdb565b610e45611c4b565b610e4d611cce565b610e55611d2c565b80156106bf576000805461ff00191690555050565b60008051602061363d833981519152610e83813361120b565b60c980546001600160a01b0319166001600160a01b0384161790555050565b600033604051636eb1769f60e11b81526001600160a01b03808316600483015260006024830181905292935087169063dd62ed3e9060440160206040518083038186803b158015610ef257600080fd5b505afa158015610f06573d6000803e3d6000fd5b505050506040513d601f19601f82011682018060405250810190610f2a91906131b5565b90506000610f3b8660ff8716611dad565b9050808211610fa95760405162461bcd60e51b815260206004820152603460248201527f54686520617070726f76656420616d6f756e74206973206c657373207468616e604482015273081d1a19481c995c5d5a5c995908185b5bdd5b9d60621b606482015260840161065e565b60008560ff1611610ffc5760405162461bcd60e51b815260206004820152601f60248201527f5175616e74697479206d7573742062652067726561746572207468616e203000604482015260640161065e565b6040516323b872dd60e01b81526001600160a01b038481166004830152306024830152604482018390528816906323b872dd90606401602060405180830381600087803b15801561104c57600080fd5b505af1158015611060573d6000803e3d6000fd5b505050506040513d601f19601f820116820180604052508101906110849190613101565b5060608060005b8760ff168160ff16101561117f5760006110a56101605490565b90506110b661016080546001019055565b60408051606081019091526001600160a01b038c168152602081016110db428b611db9565b815260209081018c905260008381526101628252604090819020835181546001600160a01b0319166001600160a01b03909116178155918301516001830155919091015160029091015583518190859060ff851690811061113e5761113e6130ba565b6020026020010181815250506001838360ff1681518110611161576111616130ba565b60209081029190910101525080611177816131ce565b91505061108b565b506001600160a01b038916600090815261016160205260409020546111a49084611db9565b506111c085838360405180602001604052806000815250611dc5565b505050505050505050565b60006001600160e01b03198216636cdb3d1360e11b14806111fc57506001600160e01b031982166303a24d0760e21b145b8061068c575061068c82611f5a565b6112158282610ce6565b6106bf5761122d816001600160a01b03166014611f8f565b611238836020611f8f565b6040516020016112499291906131ee565b60408051601f198184030181529082905262461bcd60e51b825261065e91600401612af7565b80516106bf906099906020840190612887565b81518351146112a35760405162461bcd60e51b815260040161065e90613263565b6001600160a01b0384166112c95760405162461bcd60e51b815260040161065e906132ab565b336112d881878787878761212b565b60005b84518110156113c15760008582815181106112f8576112f86130ba565b602002602001015190506000858381518110611316576113166130ba565b60209081029190910181015160008481526097835260408082206001600160a01b038e1683529093529190912054909150818110156113675760405162461bcd60e51b815260040161065e906132f0565b60008381526097602090815260408083206001600160a01b038e8116855292528083208585039055908b168252812080548492906113a690849061333a565b92505081905550505050806113ba906130e6565b90506112db565b50846001600160a01b0316866001600160a01b0316826001600160a01b03167f4a39dc06d4c0dbc64b70af90fd698a233a518aa5d07e595d983b8c0526c8f7fb8787604051611411929190613352565b60405180910390a4611427818787878787612334565b505050505050565b6114398282610ce6565b6106bf5760008281526065602090815260408083206001600160a01b03851684529091529020805460ff191660011790556114713390565b6001600160a01b0316816001600160a01b0316837f2f8788117e7eff1d82e926ec794901d17c78024a50270940304540a733656f0d60405160405180910390a45050565b6114bf8282610ce6565b156106bf5760008281526065602090815260408083206001600160a01b0385168085529252808320805460ff1916905551339285917ff6391f5c32d9c69d2a47ea670b442974b53935d1edc7fd64eb21e047a839171b9190a45050565b7f360894a13ba1a3210667c828492db98dca3e2076cc3735a920a3ca505d382bbc546001600160a01b031690565b7f189ab7a9244df0848122154315af71fe140f3db0fe014031783b0946b8c9d2e36106bf813361120b565b600061157f61151c565b905061158a8461249f565b6000835111806115975750815b156115a8576115a68484612544565b505b7f4910fdfa16fed3260ed0e7147f7cc6da11a60208b5b9406d12a635614ffd9143805460ff166107e757805460ff191660011781556040516001600160a01b038316602482015261162790869060440160408051601f198184030181529190526020810180516001600160e01b0316631b2ce7f360e11b179052612544565b50805460ff1916815561163861151c565b6001600160a01b0316826001600160a01b0316146116b05760405162461bcd60e51b815260206004820152602f60248201527f45524331393637557067726164653a207570677261646520627265616b73206660448201526e75727468657220757067726164657360881b606482015260840161065e565b6107e78561262f565b6001600160a01b0383166116df5760405162461bcd60e51b815260040161065e90613377565b3361170e818560006116f08761266f565b6116f98761266f565b6040518060200160405280600081525061212b565b60008381526097602090815260408083206001600160a01b0388168452909152902054828110156117515760405162461bcd60e51b815260040161065e906133ba565b60008481526097602090815260408083206001600160a01b03898116808652918452828520888703905582518981529384018890529092908616917fc3d58168c5ae7397731d063d5bbf3d657854427343f4c083240f7aacaa2d0f62910160405180910390a45050505050565b6001600160a01b0383166117e45760405162461bcd60e51b815260040161065e90613377565b80518251146118055760405162461bcd60e51b815260040161065e90613263565b60003390506118288185600086866040518060200160405280600081525061212b565b60005b83518110156118f0576000848281518110611848576118486130ba565b602002602001015190506000848381518110611866576118666130ba565b60209081029190910181015160008481526097835260408082206001600160a01b038c1683529093529190912054909150818110156118b75760405162461bcd60e51b815260040161065e906133ba565b60009283526097602090815260408085206001600160a01b038b16865290915290922091039055806118e8816130e6565b91505061182b565b5060006001600160a01b0316846001600160a01b0316826001600160a01b03167f4a39dc06d4c0dbc64b70af90fd698a233a518aa5d07e595d983b8c0526c8f7fb8686604051611941929190613352565b60405180910390a450505050565b816001600160a01b0316836001600160a01b031614156119c35760405162461bcd60e51b815260206004820152602960248201527f455243313135353a2073657474696e6720617070726f76616c20737461747573604482015268103337b91039b2b63360b91b606482015260840161065e565b6001600160a01b03838116600081815260986020908152604080832094871680845294825291829020805460ff191686151590811790915591519182527f17307eab39ab6107e8899845ad3d59bd9653f200f220920489ca2b5937696c31910160405180910390a3505050565b60006001600160a01b03821673207fa8df3a17d96ca7ea4f2893fcdcb78a3041011415611a5f5750600161068c565b60c9546001600160a01b0383811691161415611a7d5750600161068c565b6001600160a01b0380841660009081526098602090815260408083209386168352929052205460ff16610d4e565b6001600160a01b038416611ad15760405162461bcd60e51b815260040161065e906132ab565b33611af0818787611ae18861266f565b611aea8861266f565b8761212b565b60008481526097602090815260408083206001600160a01b038a16845290915290205483811015611b335760405162461bcd60e51b815260040161065e906132f0565b60008581526097602090815260408083206001600160a01b038b8116855292528083208785039055908816825281208054869290611b7290849061333a565b909155505060408051868152602081018690526001600160a01b03808916928a821692918616917fc3d58168c5ae7397731d063d5bbf3d657854427343f4c083240f7aacaa2d0f62910160405180910390a4611bd28288888888886126ba565b50505050505050565b600054610100900460ff1680611bf4575060005460ff16155b611c105760405162461bcd60e51b815260040161065e90613167565b600054610100900460ff16158015611c32576000805461ffff19166101011790555b611c3a612784565b611c42612784565b610e55826127ee565b600054610100900460ff1680611c64575060005460ff16155b611c805760405162461bcd60e51b815260040161065e90613167565b600054610100900460ff16158015611ca2576000805461ffff19166101011790555b611caa612784565b611cb2612784565b611cba612784565b8015610959576000805461ff001916905550565b600054610100900460ff1680611ce7575060005460ff16155b611d035760405162461bcd60e51b815260040161065e90613167565b600054610100900460ff16158015611caa576000805461ffff1916610101179055611cb2612784565b611d34611c4b565b611d3f60003361142f565b611d5760008051602061363d8339815191523361142f565b611d817f9f2df0fed2c77648de5860a4cc508cd0818c85b8b8a1ab4ceeef8d981c8956a63361142f565b611dab7f189ab7a9244df0848122154315af71fe140f3db0fe014031783b0946b8c9d2e33361142f565b565b6000610d4e82846133fe565b6000610d4e828461333a565b6001600160a01b038416611e255760405162461bcd60e51b815260206004820152602160248201527f455243313135353a206d696e7420746f20746865207a65726f206164647265736044820152607360f81b606482015260840161065e565b8151835114611e465760405162461bcd60e51b815260040161065e90613263565b33611e568160008787878761212b565b60005b8451811015611ef257838181518110611e7457611e746130ba565b602002602001015160976000878481518110611e9257611e926130ba565b602002602001015181526020019081526020016000206000886001600160a01b03166001600160a01b031681526020019081526020016000206000828254611eda919061333a565b90915550819050611eea816130e6565b915050611e59565b50846001600160a01b031660006001600160a01b0316826001600160a01b03167f4a39dc06d4c0dbc64b70af90fd698a233a518aa5d07e595d983b8c0526c8f7fb8787604051611f43929190613352565b60405180910390a46107e781600087878787612334565b60006001600160e01b03198216637965db0b60e01b148061068c57506301ffc9a760e01b6001600160e01b031983161461068c565b60606000611f9e8360026133fe565b611fa990600261333a565b67ffffffffffffffff811115611fc157611fc1612994565b6040519080825280601f01601f191660200182016040528015611feb576020820181803683370190505b509050600360fc1b81600081518110612006576120066130ba565b60200101906001600160f81b031916908160001a905350600f60fb1b81600181518110612035576120356130ba565b60200101906001600160f81b031916908160001a90535060006120598460026133fe565b61206490600161333a565b90505b60018111156120dc576f181899199a1a9b1b9c1cb0b131b232b360811b85600f1660108110612098576120986130ba565b1a60f81b8282815181106120ae576120ae6130ba565b60200101906001600160f81b031916908160001a90535060049490941c936120d58161341d565b9050612067565b508315610d4e5760405162461bcd60e51b815260206004820181905260248201527f537472696e67733a20686578206c656e67746820696e73756666696369656e74604482015260640161065e565b60005b82518110156121d857828181518110612149576121496130ba565b60200260200101516001146121c65760405162461bcd60e51b815260206004820152603e60248201527f45616368206675747572657320697320756e697175652c20536f20746865726560448201527f206973206e6f207472616e736665722067726561746572207468616e20310000606482015260840161065e565b806121d0816130e6565b91505061212e565b5060005b835181101561232e5760008482815181106121f9576121f96130ba565b60209081029190910181015160008181526101628352604090819020815160608101835281546001600160a01b039081168252600183015495820195909552600290910154918101919091529092509087166122b15760008281526101626020908152604080832080546001600160a01b0319168155600181018490556002018390558381015184516001600160a01b0316845261016190925282208054919290916122a6908490613434565b9091555061231b9050565b4281602001511161231b5760405162461bcd60e51b815260206004820152602e60248201527f5472616e736665727320617265206e6f7420616c6c6f77656420666f7220756e60448201526d6c6f636b6564206675747572657360901b606482015260840161065e565b505080612327906130e6565b90506121dc565b50611427565b6001600160a01b0384163b156114275760405163bc197c8160e01b81526001600160a01b0385169063bc197c8190612378908990899088908890889060040161344b565b602060405180830381600087803b15801561239257600080fd5b505af19250505080156123c2575060408051601f3d908101601f191682019092526123bf918101906134a9565b60015b61246f576123ce6134c6565b806308c379a0141561240857506123e36134e2565b806123ee575061240a565b8060405162461bcd60e51b815260040161065e9190612af7565b505b60405162461bcd60e51b815260206004820152603460248201527f455243313135353a207472616e7366657220746f206e6f6e20455243313135356044820152732932b1b2b4bb32b91034b6b83632b6b2b73a32b960611b606482015260840161065e565b6001600160e01b0319811663bc197c8160e01b14611bd25760405162461bcd60e51b815260040161065e9061356c565b803b6125035760405162461bcd60e51b815260206004820152602d60248201527f455243313936373a206e657720696d706c656d656e746174696f6e206973206e60448201526c1bdd08184818dbdb9d1c9858dd609a1b606482015260840161065e565b7f360894a13ba1a3210667c828492db98dca3e2076cc3735a920a3ca505d382bbc80546001600160a01b0319166001600160a01b0392909216919091179055565b6060823b6125a35760405162461bcd60e51b815260206004820152602660248201527f416464726573733a2064656c65676174652063616c6c20746f206e6f6e2d636f6044820152651b9d1c9858dd60d21b606482015260840161065e565b600080846001600160a01b0316846040516125be91906135b4565b600060405180830381855af49150503d80600081146125f9576040519150601f19603f3d011682016040523d82523d6000602084013e6125fe565b606091505b509150915061262682826040518060600160405280602781526020016136166027913961284e565b95945050505050565b6126388161249f565b6040516001600160a01b038216907fbc7cd75a20ee27fd9adebab32041f755214dbc6bffa90cc0225b39da2e5c2d3b90600090a250565b604080516001808252818301909252606091600091906020808301908036833701905050905082816000815181106126a9576126a96130ba565b602090810291909101015292915050565b6001600160a01b0384163b156114275760405163f23a6e6160e01b81526001600160a01b0385169063f23a6e61906126fe90899089908890889088906004016135d0565b602060405180830381600087803b15801561271857600080fd5b505af1925050508015612748575060408051601f3d908101601f19168201909252612745918101906134a9565b60015b612754576123ce6134c6565b6001600160e01b0319811663f23a6e6160e01b14611bd25760405162461bcd60e51b815260040161065e9061356c565b600054610100900460ff168061279d575060005460ff16155b6127b95760405162461bcd60e51b815260040161065e90613167565b600054610100900460ff16158015611cba576000805461ffff19166101011790558015610959576000805461ff001916905550565b600054610100900460ff1680612807575060005460ff16155b6128235760405162461bcd60e51b815260040161065e90613167565b600054610100900460ff16158015612845576000805461ffff19166101011790555b610e558261126f565b6060831561285d575081610d4e565b82511561286d5782518084602001fd5b8160405162461bcd60e51b815260040161065e9190612af7565b82805461289390612fe7565b90600052602060002090601f0160209004810192826128b557600085556128fb565b82601f106128ce57805160ff19168380011785556128fb565b828001600101855582156128fb579182015b828111156128fb5782518255916020019190600101906128e0565b5061290792915061290b565b5090565b5b80821115612907576000815560010161290c565b6001600160a01b038116811461095957600080fd5b6000806040838503121561294857600080fd5b823561295381612920565b946020939093013593505050565b6001600160e01b03198116811461095957600080fd5b60006020828403121561298957600080fd5b8135610d4e81612961565b634e487b7160e01b600052604160045260246000fd5b601f8201601f1916810167ffffffffffffffff811182821017156129d0576129d0612994565b6040525050565b600067ffffffffffffffff8311156129f1576129f1612994565b604051612a08601f8501601f1916602001826129aa565b809150838152848484011115612a1d57600080fd5b83836020830137600060208583010152509392505050565b600060208284031215612a4757600080fd5b813567ffffffffffffffff811115612a5e57600080fd5b8201601f81018413612a6f57600080fd5b612a7e848235602084016129d7565b949350505050565b600060208284031215612a9857600080fd5b5035919050565b60005b83811015612aba578181015183820152602001612aa2565b83811115610c9d5750506000910152565b60008151808452612ae3816020860160208601612a9f565b601f01601f19169290920160200192915050565b602081526000610d4e6020830184612acb565b600067ffffffffffffffff821115612b2457612b24612994565b5060051b60200190565b600082601f830112612b3f57600080fd5b81356020612b4c82612b0a565b604051612b5982826129aa565b83815260059390931b8501820192828101915086841115612b7957600080fd5b8286015b84811015612b945780358352918301918301612b7d565b509695505050505050565b600082601f830112612bb057600080fd5b610d4e838335602085016129d7565b600080600080600060a08688031215612bd757600080fd5b8535612be281612920565b94506020860135612bf281612920565b9350604086013567ffffffffffffffff80821115612c0f57600080fd5b612c1b89838a01612b2e565b94506060880135915080821115612c3157600080fd5b612c3d89838a01612b2e565b93506080880135915080821115612c5357600080fd5b50612c6088828901612b9f565b9150509295509295909350565b60008060408385031215612c8057600080fd5b823591506020830135612c9281612920565b809150509250929050565b600060208284031215612caf57600080fd5b8135610d4e81612920565b60008060408385031215612ccd57600080fd5b823567ffffffffffffffff80821115612ce557600080fd5b818501915085601f830112612cf957600080fd5b81356020612d0682612b0a565b604051612d1382826129aa565b83815260059390931b8501820192828101915089841115612d3357600080fd5b948201945b83861015612d5a578535612d4b81612920565b82529482019490820190612d38565b96505086013592505080821115612d7057600080fd5b50612d7d85828601612b2e565b9150509250929050565b600081518084526020808501945080840160005b83811015612db757815187529582019590820190600101612d9b565b509495945050505050565b602081526000610d4e6020830184612d87565b60008060408385031215612de857600080fd5b8235612df381612920565b9150602083013567ffffffffffffffff811115612e0f57600080fd5b612d7d85828601612b9f565b600080600060608486031215612e3057600080fd5b8335612e3b81612920565b9250602084013567ffffffffffffffff80821115612e5857600080fd5b612e6487838801612b2e565b93506040860135915080821115612e7a57600080fd5b50612e8786828701612b2e565b9150509250925092565b801515811461095957600080fd5b60008060408385031215612eb257600080fd5b8235612ebd81612920565b91506020830135612c9281612e91565b60008060408385031215612ee057600080fd5b8235612eeb81612920565b91506020830135612c9281612920565b600080600080600060a08688031215612f1357600080fd5b8535612f1e81612920565b94506020860135612f2e81612920565b93506040860135925060608601359150608086013567ffffffffffffffff811115612f5857600080fd5b612c6088828901612b9f565b600080600060608486031215612f7957600080fd5b8335612f8481612920565b95602085013595506040909401359392505050565b60008060008060808587031215612faf57600080fd5b8435612fba81612920565b935060208501359250604085013560ff81168114612fd757600080fd5b9396929550929360600135925050565b600181811c90821680612ffb57607f821691505b6020821081141561301c57634e487b7160e01b600052602260045260246000fd5b50919050565b6020808252602c908201527f46756e6374696f6e206d7573742062652063616c6c6564207468726f7567682060408201526b19195b1959d85d1958d85b1b60a21b606082015260800190565b6020808252602c908201527f46756e6374696f6e206d7573742062652063616c6c6564207468726f7567682060408201526b6163746976652070726f787960a01b606082015260800190565b634e487b7160e01b600052603260045260246000fd5b634e487b7160e01b600052601160045260246000fd5b60006000198214156130fa576130fa6130d0565b5060010190565b60006020828403121561311357600080fd5b8151610d4e81612e91565b60208082526029908201527f455243313135353a2063616c6c6572206973206e6f74206f776e6572206e6f7260408201526808185c1c1c9bdd995960ba1b606082015260800190565b6020808252602e908201527f496e697469616c697a61626c653a20636f6e747261637420697320616c72656160408201526d191e481a5b9a5d1a585b1a5e995960921b606082015260800190565b6000602082840312156131c757600080fd5b5051919050565b600060ff821660ff8114156131e5576131e56130d0565b60010192915050565b7f416363657373436f6e74726f6c3a206163636f756e7420000000000000000000815260008351613226816017850160208801612a9f565b7001034b99036b4b9b9b4b733903937b6329607d1b6017918401918201528351613257816028840160208801612a9f565b01602801949350505050565b60208082526028908201527f455243313135353a2069647320616e6420616d6f756e7473206c656e677468206040820152670dad2e6dac2e8c6d60c31b606082015260800190565b60208082526025908201527f455243313135353a207472616e7366657220746f20746865207a65726f206164604082015264647265737360d81b606082015260800190565b6020808252602a908201527f455243313135353a20696e73756666696369656e742062616c616e636520666f60408201526939103a3930b739b332b960b11b606082015260800190565b6000821982111561334d5761334d6130d0565b500190565b6040815260006133656040830185612d87565b82810360208401526126268185612d87565b60208082526023908201527f455243313135353a206275726e2066726f6d20746865207a65726f206164647260408201526265737360e81b606082015260800190565b60208082526024908201527f455243313135353a206275726e20616d6f756e7420657863656564732062616c604082015263616e636560e01b606082015260800190565b6000816000190483118215151615613418576134186130d0565b500290565b60008161342c5761342c6130d0565b506000190190565b600082821015613446576134466130d0565b500390565b6001600160a01b0386811682528516602082015260a06040820181905260009061347790830186612d87565b82810360608401526134898186612d87565b9050828103608084015261349d8185612acb565b98975050505050505050565b6000602082840312156134bb57600080fd5b8151610d4e81612961565b600060033d11156134df5760046000803e5060005160e01c5b90565b600060443d10156134f05790565b6040516003193d81016004833e81513d67ffffffffffffffff816024840111818411171561352057505050505090565b82850191508151818111156135385750505050505090565b843d87010160208285010111156135525750505050505090565b613561602082860101876129aa565b509095945050505050565b60208082526028908201527f455243313135353a204552433131353552656365697665722072656a656374656040820152676420746f6b656e7360c01b606082015260800190565b600082516135c6818460208701612a9f565b9190910192915050565b6001600160a01b03868116825285166020820152604081018490526060810183905260a06080820181905260009061360a90830184612acb565b97965050505050505056fe416464726573733a206c6f772d6c6576656c2064656c65676174652063616c6c206661696c6564f5eb84615c2a00ecaf817d13794ebd6299c9e01c395bf4018453f13f577f5449a2646970667358221220c3fc8e615d2dc28b0e012f29d173a2fb359f04b14358c6c8787a1293873c9e4e64736f6c63430008090033",
  "immutableReferences": {
    "1023": [
      {
        "length": 32,
        "start": 2206
      },
      {
        "length": 32,
        "start": 2270
      },
      {
        "length": 32,
        "start": 2705
      },
      {
        "length": 32,
        "start": 2769
      }
    ]
  },
  "source": "// SPDX-License-Identifier: MIT\npragma solidity 0.8.9;\n\nimport \"@openzeppelin/contracts-upgradeable/token/ERC1155/ERC1155Upgradeable.sol\";\nimport \"@openzeppelin/contracts-upgradeable/token/ERC20/IERC20Upgradeable.sol\";\nimport \"@openzeppelin/contracts-upgradeable/access/AccessControlUpgradeable.sol\";\nimport \"@openzeppelin/contracts-upgradeable/token/ERC1155/extensions/ERC1155BurnableUpgradeable.sol\";\nimport \"@openzeppelin/contracts-upgradeable/proxy/utils/Initializable.sol\";\nimport \"@openzeppelin/contracts-upgradeable/proxy/utils/UUPSUpgradeable.sol\";\nimport \"@openzeppelin/contracts-upgradeable/utils/math/SafeMathUpgradeable.sol\";\nimport \"@openzeppelin/contracts-upgradeable/utils/CountersUpgradeable.sol\";\nimport \"./MelandTierAddressStore.sol\";\nimport \"./MelandAccessRoles.sol\";\nimport \"./MelandTier.sol\";\n\n// Support arbitrary erc20 token packaging\n// MELD Futures\n\ncontract Meland1155MELDFutures is\n    Initializable,\n    ERC1155Upgradeable,\n    MelandAccessRoles,\n    MelandTierAddressStore,\n    ERC1155BurnableUpgradeable,\n    UUPSUpgradeable\n{\n    using SafeMathUpgradeable for uint256;\n    using CountersUpgradeable for CountersUpgradeable.Counter;\n\n    CountersUpgradeable.Counter private _tokenIdCounter;\n\n    struct ERC20Future {\n        IERC20Upgradeable token;\n        uint256 unlockAt;\n        uint256 amount;\n    }\n\n    // Records the current number of tokens left for each type of token\n    mapping(IERC20Upgradeable => uint256) public totalSupplyByERC20;\n    mapping(uint256 => ERC20Future) public futureById;\n\n    function initialize(string memory uri) public initializer {\n        __ERC1155_init(uri);\n        __ERC1155Burnable_init();\n        __UUPSUpgradeable_init();\n        __MelandAccessRoles_init();\n    }\n\n    function isApprovedForAll(address _owner, address _operator)\n        public\n        view\n        override(ERC1155Upgradeable, MelandTierAddressStore)\n        returns (bool isOperator)\n    {\n        return super.isApprovedForAll(_owner, _operator);\n    }\n\n    function setURI(string memory newuri) public onlyRole(GM_ROLE) {\n        _setURI(newuri);\n    }\n\n    // Anyone can mint futures as long as they have money.\n    function mintBatch(\n        IERC20Upgradeable token,\n        uint256 amount,\n        uint8 count,\n        uint256 lockseconds\n    ) public {\n        address sender = _msgSender();\n\n        uint256 allowanceAmount = token.allowance(sender, address(0));\n\n        uint256 totalAmount = amount.mul(count);\n        require(\n            allowanceAmount > totalAmount,\n            \"The approved amount is less than the required amount\"\n        );\n        require(count > 0, \"Quantity must be greater than 0\");\n\n        token.transferFrom(sender, address(this), totalAmount);\n\n        uint256[] memory ids;\n        uint256[] memory amounts;\n\n        for (uint8 i = 0; i < count; i++) {\n            uint256 tokenId = _tokenIdCounter.current();\n            _tokenIdCounter.increment();\n\n            futureById[tokenId] = ERC20Future(\n                token,\n                block.timestamp.add(lockseconds),\n                amount\n            );\n\n            ids[i] = tokenId;\n            amounts[i] = 1;\n        }\n\n        totalSupplyByERC20[token].add(totalAmount);\n        _mintBatch(sender, ids, amounts, \"\");\n    }\n\n    function setMelandTier(MelandTier _tierAddress) public onlyRole(GM_ROLE) {\n        _setMelandTier(_tierAddress);\n    }\n\n    // Converting futures into corresponding token\n    function exchange(uint256 id) public {\n        address sender = _msgSender();\n        _burn(sender, id, 1);\n        ERC20Future memory future = futureById[id];\n        require(address(future.token) != address(0), \"future not found\");\n        require(future.unlockAt < block.timestamp, \"future not unlocked\");\n        future.token.transfer(sender, future.amount);\n    }\n\n    function totalSupply(uint256 id) internal view returns (uint256) {\n        ERC20Future memory future = futureById[id];\n        if (address(future.token) == address(0)) {\n            return 0;\n        }\n        return totalSupplyByERC20[future.token];\n    }\n\n    function _authorizeUpgrade(address newImplementation)\n        internal\n        override\n        onlyRole(UPGRADER_ROLE)\n    {}\n\n    // The following functions are overrides required by Solidity.\n\n    function supportsInterface(bytes4 interfaceId)\n        public\n        view\n        override(ERC1155Upgradeable, AccessControlUpgradeable)\n        returns (bool)\n    {\n        return super.supportsInterface(interfaceId);\n    }\n\n    // The following functions are overrides required by Solidity.\n    function _beforeTokenTransfer(\n        address operator,\n        address from,\n        address to,\n        uint256[] memory ids,\n        uint256[] memory amounts,\n        bytes memory landtype\n    ) internal override(ERC1155Upgradeable) {\n        for (uint256 i = 0; i < amounts.length; i++) {\n            require(\n                amounts[i] == 1,\n                \"Each futures is unique, So there is no transfer greater than 1\"\n            );\n        }\n\n        for (uint256 i = 0; i < ids.length; ++i) {\n            uint256 id = ids[i];\n            ERC20Future memory future = futureById[id];\n\n            // sub totalSupply when burn token\n            if (to == address(0)) {\n                // clear when burn\n                delete futureById[id];\n                totalSupplyByERC20[future.token] -= future.amount;\n            } else {\n                require(future.unlockAt > block.timestamp, \"Transfers are not allowed for unlocked futures\");\n            }\n        }\n\n        super._beforeTokenTransfer(operator, from, to, ids, amounts, landtype);\n    }\n}\n",
  "sourcePath": "/Users/alberthuang/code/icw/meland/contracts/Meland1155MELDFutures.sol",
  "compiler": {
    "name": "solc",
    "version": "0.8.9+commit.e5eed63a.Emscripten.clang"
  },
  "schemaVersion": "3.4.3",
  "updatedAt": "2021-12-26T08:21:15.900Z",
  "devdoc": {
    "kind": "dev",
    "methods": {
      "balanceOf(address,uint256)": {
        "details": "See {IERC1155-balanceOf}. Requirements: - `account` cannot be the zero address."
      },
      "balanceOfBatch(address[],uint256[])": {
        "details": "See {IERC1155-balanceOfBatch}. Requirements: - `accounts` and `ids` must have the same length."
      },
      "getRoleAdmin(bytes32)": {
        "details": "Returns the admin role that controls `role`. See {grantRole} and {revokeRole}. To change a role's admin, use {_setRoleAdmin}."
      },
      "grantRole(bytes32,address)": {
        "details": "Grants `role` to `account`. If `account` had not been already granted `role`, emits a {RoleGranted} event. Requirements: - the caller must have ``role``'s admin role."
      },
      "hasRole(bytes32,address)": {
        "details": "Returns `true` if `account` has been granted `role`."
      },
      "renounceRole(bytes32,address)": {
        "details": "Revokes `role` from the calling account. Roles are often managed via {grantRole} and {revokeRole}: this function's purpose is to provide a mechanism for accounts to lose their privileges if they are compromised (such as when a trusted device is misplaced). If the calling account had been revoked `role`, emits a {RoleRevoked} event. Requirements: - the caller must be `account`."
      },
      "revokeRole(bytes32,address)": {
        "details": "Revokes `role` from `account`. If `account` had been granted `role`, emits a {RoleRevoked} event. Requirements: - the caller must have ``role``'s admin role."
      },
      "safeBatchTransferFrom(address,address,uint256[],uint256[],bytes)": {
        "details": "See {IERC1155-safeBatchTransferFrom}."
      },
      "safeTransferFrom(address,address,uint256,uint256,bytes)": {
        "details": "See {IERC1155-safeTransferFrom}."
      },
      "setApprovalForAll(address,bool)": {
        "details": "See {IERC1155-setApprovalForAll}."
      },
      "upgradeTo(address)": {
        "details": "Upgrade the implementation of the proxy to `newImplementation`. Calls {_authorizeUpgrade}. Emits an {Upgraded} event."
      },
      "upgradeToAndCall(address,bytes)": {
        "details": "Upgrade the implementation of the proxy to `newImplementation`, and subsequently execute the function call encoded in `data`. Calls {_authorizeUpgrade}. Emits an {Upgraded} event."
      },
      "uri(uint256)": {
        "details": "See {IERC1155MetadataURI-uri}. This implementation returns the same URI for *all* token types. It relies on the token type ID substitution mechanism https://eips.ethereum.org/EIPS/eip-1155#metadata[defined in the EIP]. Clients calling this function must replace the `\\{id\\}` substring with the actual token type ID."
      }
    },
    "version": 1
  },
  "userdoc": {
    "kind": "user",
    "methods": {},
    "version": 1
  }
}