{
  "contractName": "MelandStakes",
  "abi": [
    {
      "anonymous": false,
      "inputs": [
        {
          "indexed": false,
          "internalType": "address",
          "name": "previousAdmin",
          "type": "address"
        },
        {
          "indexed": false,
          "internalType": "address",
          "name": "newAdmin",
          "type": "address"
        }
      ],
      "name": "AdminChanged",
      "type": "event"
    },
    {
      "anonymous": false,
      "inputs": [
        {
          "indexed": true,
          "internalType": "address",
          "name": "beacon",
          "type": "address"
        }
      ],
      "name": "BeaconUpgraded",
      "type": "event"
    },
    {
      "anonymous": false,
      "inputs": [
        {
          "indexed": true,
          "internalType": "uint256",
          "name": "stakePoolId",
          "type": "uint256"
        }
      ],
      "name": "CreateStakePool",
      "type": "event"
    },
    {
      "anonymous": false,
      "inputs": [
        {
          "indexed": true,
          "internalType": "uint256",
          "name": "stakePoolId",
          "type": "uint256"
        }
      ],
      "name": "DefaultStakeUpdate",
      "type": "event"
    },
    {
      "anonymous": false,
      "inputs": [
        {
          "indexed": true,
          "internalType": "bytes32",
          "name": "stakeId",
          "type": "bytes32"
        },
        {
          "indexed": false,
          "internalType": "uint256",
          "name": "eran",
          "type": "uint256"
        }
      ],
      "name": "Harvest",
      "type": "event"
    },
    {
      "anonymous": false,
      "inputs": [
        {
          "indexed": true,
          "internalType": "bytes32",
          "name": "stakeId",
          "type": "bytes32"
        },
        {
          "indexed": true,
          "internalType": "address",
          "name": "staker",
          "type": "address"
        }
      ],
      "name": "NewStake",
      "type": "event"
    },
    {
      "anonymous": false,
      "inputs": [
        {
          "indexed": true,
          "internalType": "bytes32",
          "name": "role",
          "type": "bytes32"
        },
        {
          "indexed": true,
          "internalType": "bytes32",
          "name": "previousAdminRole",
          "type": "bytes32"
        },
        {
          "indexed": true,
          "internalType": "bytes32",
          "name": "newAdminRole",
          "type": "bytes32"
        }
      ],
      "name": "RoleAdminChanged",
      "type": "event"
    },
    {
      "anonymous": false,
      "inputs": [
        {
          "indexed": true,
          "internalType": "bytes32",
          "name": "role",
          "type": "bytes32"
        },
        {
          "indexed": true,
          "internalType": "address",
          "name": "account",
          "type": "address"
        },
        {
          "indexed": true,
          "internalType": "address",
          "name": "sender",
          "type": "address"
        }
      ],
      "name": "RoleGranted",
      "type": "event"
    },
    {
      "anonymous": false,
      "inputs": [
        {
          "indexed": true,
          "internalType": "bytes32",
          "name": "role",
          "type": "bytes32"
        },
        {
          "indexed": true,
          "internalType": "address",
          "name": "account",
          "type": "address"
        },
        {
          "indexed": true,
          "internalType": "address",
          "name": "sender",
          "type": "address"
        }
      ],
      "name": "RoleRevoked",
      "type": "event"
    },
    {
      "anonymous": false,
      "inputs": [
        {
          "indexed": true,
          "internalType": "bytes32",
          "name": "stakeId",
          "type": "bytes32"
        }
      ],
      "name": "StakeClaim",
      "type": "event"
    },
    {
      "anonymous": false,
      "inputs": [
        {
          "indexed": true,
          "internalType": "address",
          "name": "implementation",
          "type": "address"
        }
      ],
      "name": "Upgraded",
      "type": "event"
    },
    {
      "inputs": [],
      "name": "DEFAULT_ADMIN_ROLE",
      "outputs": [
        {
          "internalType": "bytes32",
          "name": "",
          "type": "bytes32"
        }
      ],
      "stateMutability": "view",
      "type": "function"
    },
    {
      "inputs": [],
      "name": "GM_ROLE",
      "outputs": [
        {
          "internalType": "bytes32",
          "name": "",
          "type": "bytes32"
        }
      ],
      "stateMutability": "view",
      "type": "function"
    },
    {
      "inputs": [],
      "name": "MINTER_ROLE",
      "outputs": [
        {
          "internalType": "bytes32",
          "name": "",
          "type": "bytes32"
        }
      ],
      "stateMutability": "view",
      "type": "function"
    },
    {
      "inputs": [],
      "name": "UPGRADER_ROLE",
      "outputs": [
        {
          "internalType": "bytes32",
          "name": "",
          "type": "bytes32"
        }
      ],
      "stateMutability": "view",
      "type": "function"
    },
    {
      "inputs": [],
      "name": "acceptedToken",
      "outputs": [
        {
          "internalType": "contract IERC20Upgradeable",
          "name": "",
          "type": "address"
        }
      ],
      "stateMutability": "view",
      "type": "function"
    },
    {
      "inputs": [
        {
          "internalType": "bytes32",
          "name": "role",
          "type": "bytes32"
        }
      ],
      "name": "getRoleAdmin",
      "outputs": [
        {
          "internalType": "bytes32",
          "name": "",
          "type": "bytes32"
        }
      ],
      "stateMutability": "view",
      "type": "function"
    },
    {
      "inputs": [
        {
          "internalType": "bytes32",
          "name": "role",
          "type": "bytes32"
        },
        {
          "internalType": "address",
          "name": "account",
          "type": "address"
        }
      ],
      "name": "grantRole",
      "outputs": [],
      "stateMutability": "nonpayable",
      "type": "function"
    },
    {
      "inputs": [
        {
          "internalType": "bytes32",
          "name": "role",
          "type": "bytes32"
        },
        {
          "internalType": "address",
          "name": "account",
          "type": "address"
        }
      ],
      "name": "hasRole",
      "outputs": [
        {
          "internalType": "bool",
          "name": "",
          "type": "bool"
        }
      ],
      "stateMutability": "view",
      "type": "function"
    },
    {
      "inputs": [
        {
          "internalType": "bytes32",
          "name": "role",
          "type": "bytes32"
        },
        {
          "internalType": "address",
          "name": "account",
          "type": "address"
        }
      ],
      "name": "renounceRole",
      "outputs": [],
      "stateMutability": "nonpayable",
      "type": "function"
    },
    {
      "inputs": [
        {
          "internalType": "bytes32",
          "name": "role",
          "type": "bytes32"
        },
        {
          "internalType": "address",
          "name": "account",
          "type": "address"
        }
      ],
      "name": "revokeRole",
      "outputs": [],
      "stateMutability": "nonpayable",
      "type": "function"
    },
    {
      "inputs": [
        {
          "internalType": "bytes32",
          "name": "",
          "type": "bytes32"
        }
      ],
      "name": "stakeById",
      "outputs": [
        {
          "internalType": "uint256",
          "name": "stakePoolId",
          "type": "uint256"
        },
        {
          "internalType": "address",
          "name": "staker",
          "type": "address"
        },
        {
          "internalType": "uint256",
          "name": "lastRecivedAt",
          "type": "uint256"
        },
        {
          "internalType": "uint256",
          "name": "stakedAt",
          "type": "uint256"
        },
        {
          "internalType": "uint256",
          "name": "expiredAt",
          "type": "uint256"
        },
        {
          "internalType": "bool",
          "name": "claimed",
          "type": "bool"
        }
      ],
      "stateMutability": "view",
      "type": "function"
    },
    {
      "inputs": [
        {
          "internalType": "uint256",
          "name": "",
          "type": "uint256"
        }
      ],
      "name": "stakePoolById",
      "outputs": [
        {
          "internalType": "uint256",
          "name": "ditaminLD",
          "type": "uint256"
        },
        {
          "internalType": "uint256",
          "name": "ditaminC",
          "type": "uint256"
        },
        {
          "internalType": "uint256",
          "name": "numberOfMELD",
          "type": "uint256"
        },
        {
          "internalType": "uint8",
          "name": "landC",
          "type": "uint8"
        },
        {
          "internalType": "bytes",
          "name": "vipname",
          "type": "bytes"
        },
        {
          "internalType": "uint8",
          "name": "stakeApyPercent",
          "type": "uint8"
        },
        {
          "internalType": "uint8",
          "name": "gameApyPercent",
          "type": "uint8"
        },
        {
          "internalType": "uint256",
          "name": "freezeTime",
          "type": "uint256"
        },
        {
          "internalType": "uint256",
          "name": "totalVolume",
          "type": "uint256"
        }
      ],
      "stateMutability": "view",
      "type": "function"
    },
    {
      "inputs": [
        {
          "internalType": "address",
          "name": "",
          "type": "address"
        },
        {
          "internalType": "uint256",
          "name": "",
          "type": "uint256"
        }
      ],
      "name": "stakePoolIdsByStaker",
      "outputs": [
        {
          "internalType": "uint256",
          "name": "",
          "type": "uint256"
        }
      ],
      "stateMutability": "view",
      "type": "function"
    },
    {
      "inputs": [
        {
          "internalType": "uint256",
          "name": "",
          "type": "uint256"
        }
      ],
      "name": "stakePoolSaleCountByStakePoolId",
      "outputs": [
        {
          "internalType": "uint256",
          "name": "",
          "type": "uint256"
        }
      ],
      "stateMutability": "view",
      "type": "function"
    },
    {
      "inputs": [
        {
          "internalType": "bytes4",
          "name": "interfaceId",
          "type": "bytes4"
        }
      ],
      "name": "supportsInterface",
      "outputs": [
        {
          "internalType": "bool",
          "name": "",
          "type": "bool"
        }
      ],
      "stateMutability": "view",
      "type": "function"
    },
    {
      "inputs": [
        {
          "internalType": "address",
          "name": "newImplementation",
          "type": "address"
        }
      ],
      "name": "upgradeTo",
      "outputs": [],
      "stateMutability": "nonpayable",
      "type": "function"
    },
    {
      "inputs": [
        {
          "internalType": "address",
          "name": "newImplementation",
          "type": "address"
        },
        {
          "internalType": "bytes",
          "name": "data",
          "type": "bytes"
        }
      ],
      "name": "upgradeToAndCall",
      "outputs": [],
      "stateMutability": "payable",
      "type": "function"
    },
    {
      "inputs": [],
      "name": "initialize",
      "outputs": [],
      "stateMutability": "nonpayable",
      "type": "function"
    },
    {
      "inputs": [
        {
          "internalType": "contract IERC20Upgradeable",
          "name": "_acceptedToken",
          "type": "address"
        }
      ],
      "name": "setAcceptedToken",
      "outputs": [],
      "stateMutability": "nonpayable",
      "type": "function"
    },
    {
      "inputs": [
        {
          "internalType": "address",
          "name": "staker",
          "type": "address"
        }
      ],
      "name": "getUserCurrentHighLevelStake",
      "outputs": [
        {
          "internalType": "uint8",
          "name": "",
          "type": "uint8"
        },
        {
          "internalType": "uint256",
          "name": "",
          "type": "uint256"
        },
        {
          "internalType": "uint256",
          "name": "",
          "type": "uint256"
        },
        {
          "internalType": "uint8",
          "name": "",
          "type": "uint8"
        }
      ],
      "stateMutability": "view",
      "type": "function"
    },
    {
      "inputs": [
        {
          "internalType": "uint256",
          "name": "stakePoolId",
          "type": "uint256"
        }
      ],
      "name": "stake",
      "outputs": [],
      "stateMutability": "nonpayable",
      "type": "function"
    },
    {
      "inputs": [],
      "name": "harvest",
      "outputs": [],
      "stateMutability": "nonpayable",
      "type": "function"
    },
    {
      "inputs": [
        {
          "internalType": "uint256",
          "name": "stakePoolId",
          "type": "uint256"
        }
      ],
      "name": "claim",
      "outputs": [],
      "stateMutability": "nonpayable",
      "type": "function"
    },
    {
      "inputs": [],
      "name": "getStakerAllEarned",
      "outputs": [
        {
          "internalType": "uint256",
          "name": "",
          "type": "uint256"
        }
      ],
      "stateMutability": "view",
      "type": "function"
    },
    {
      "inputs": [
        {
          "internalType": "uint256",
          "name": "amount",
          "type": "uint256"
        }
      ],
      "name": "withdraw",
      "outputs": [],
      "stateMutability": "nonpayable",
      "type": "function"
    }
  ],
  "bytecode": "0x60a06040523060805234801561001457600080fd5b506080516130a3610045600039600081816108ce0152818161090e015281816109b401526109f401526130a36000f3fe6080604052600436106101665760003560e01c80637487f528116100d1578063beadd5f91161008a578063e95cc47d11610064578063e95cc47d146104f2578063f72c0d8b14610507578063feb95e671461053b578063fee496f21461056857600080fd5b8063beadd5f91461040a578063d53913931461049e578063d547741f146104d257600080fd5b80637487f528146103375780638129fc1c1461035757806382d630871461036c57806391d14854146103b5578063a217fddf146103d5578063a694fc3a146103ea57600080fd5b806336568abe1161012357806336568abe146102775780633659cfe614610297578063379607f5146102b7578063451c3d80146102d75780634641257d1461030f5780634f1ef2861461032457600080fd5b806301ffc9a71461016b578063248a9ca3146101a05780632e1a7d4d146101de5780632f2ff15d146102005780633032ac0c1461022057806330c7be2c14610255575b600080fd5b34801561017757600080fd5b5061018b610186366004612af9565b610588565b60405190151581526020015b60405180910390f35b3480156101ac57600080fd5b506101d06101bb366004612b23565b60009081526065602052604090206001015490565b604051908152602001610197565b3480156101ea57600080fd5b506101fe6101f9366004612b23565b6105bf565b005b34801561020c57600080fd5b506101fe61021b366004612b51565b610743565b34801561022c57600080fd5b5061024061023b366004612b23565b610769565b60405161019799989796959493929190612bd9565b34801561026157600080fd5b506101d060008051602061304e83398151915281565b34801561028357600080fd5b506101fe610292366004612b51565b610845565b3480156102a357600080fd5b506101fe6102b2366004612c35565b6108c3565b3480156102c357600080fd5b506101fe6102d2366004612b23565b61098c565b3480156102e357600080fd5b506098546102f7906001600160a01b031681565b6040516001600160a01b039091168152602001610197565b34801561031b57600080fd5b506101fe61099e565b6101fe610332366004612c68565b6109a9565b34801561034357600080fd5b506101fe610352366004612c35565b610a5f565b34801561036357600080fd5b506101fe610a9b565b34801561037857600080fd5b5061038c610387366004612c35565b610d21565b6040805160ff958616815260208101949094528301919091529091166060820152608001610197565b3480156103c157600080fd5b5061018b6103d0366004612b51565b610e71565b3480156103e157600080fd5b506101d0600081565b3480156103f657600080fd5b506101fe610405366004612b23565b610e9c565b34801561041657600080fd5b50610467610425366004612b23565b609c6020526000908152604090208054600182015460028301546003840154600485015460059095015493946001600160a01b03909316939192909160ff1686565b604080519687526001600160a01b0390951660208701529385019290925260608401526080830152151560a082015260c001610197565b3480156104aa57600080fd5b506101d07f9f2df0fed2c77648de5860a4cc508cd0818c85b8b8a1ab4ceeef8d981c8956a681565b3480156104de57600080fd5b506101fe6104ed366004612b51565b610ea6565b3480156104fe57600080fd5b506101d0610ecc565b34801561051357600080fd5b506101d07f189ab7a9244df0848122154315af71fe140f3db0fe014031783b0946b8c9d2e381565b34801561054757600080fd5b506101d0610556366004612b23565b609b6020526000908152604090205481565b34801561057457600080fd5b506101d0610583366004612d2c565b610edd565b60006001600160e01b03198216637965db0b60e01b14806105b957506301ffc9a760e01b6001600160e01b03198316145b92915050565b60008051602061304e8339815191526105d88133610f0e565b60985482906001600160a01b03166370a08231336040516001600160e01b031960e084901b1681526001600160a01b03909116600482015260240160206040518083038186803b15801561062b57600080fd5b505afa15801561063f573d6000803e3d6000fd5b505050506040513d601f19601f820116820180604052508101906106639190612d58565b116106ac5760405162461bcd60e51b8152602060048201526014602482015273496e73756666696369656e742062616c616e636560601b60448201526064015b60405180910390fd5b6098546001600160a01b031663a9059cbb336040516001600160e01b031960e084901b1681526001600160a01b03909116600482015260248101859052604401602060405180830381600087803b15801561070657600080fd5b505af115801561071a573d6000803e3d6000fd5b505050506040513d601f19601f8201168201806040525081019061073e9190612d71565b505050565b60008281526065602052604090206001015461075f8133610f0e565b61073e8383610f72565b609a602052600090815260409020805460018201546002830154600384015460048501805494959394929360ff909216926107a390612d93565b80601f01602080910402602001604051908101604052809291908181526020018280546107cf90612d93565b801561081c5780601f106107f15761010080835404028352916020019161081c565b820191906000526020600020905b8154815290600101906020018083116107ff57829003601f168201915b50505060058401546006850154600790950154939460ff80831695610100909304169350915089565b6001600160a01b03811633146108b55760405162461bcd60e51b815260206004820152602f60248201527f416363657373436f6e74726f6c3a2063616e206f6e6c792072656e6f756e636560448201526e103937b632b9903337b91039b2b63360891b60648201526084016106a3565b6108bf8282610ff8565b5050565b306001600160a01b037f000000000000000000000000000000000000000000000000000000000000000016141561090c5760405162461bcd60e51b81526004016106a390612dce565b7f00000000000000000000000000000000000000000000000000000000000000006001600160a01b031661093e61105f565b6001600160a01b0316146109645760405162461bcd60e51b81526004016106a390612e1a565b61096d8161108d565b60408051600080825260208201909252610989918391906110b8565b50565b6109896109993383611203565b61124a565b6109a7336115c4565b565b306001600160a01b037f00000000000000000000000000000000000000000000000000000000000000001614156109f25760405162461bcd60e51b81526004016106a390612dce565b7f00000000000000000000000000000000000000000000000000000000000000006001600160a01b0316610a2461105f565b6001600160a01b031614610a4a5760405162461bcd60e51b81526004016106a390612e1a565b610a538261108d565b6108bf828260016110b8565b60008051602061304e833981519152610a788133610f0e565b50609880546001600160a01b0319166001600160a01b0392909216919091179055565b600054610100900460ff1680610ab4575060005460ff16155b610ad05760405162461bcd60e51b81526004016106a390612e66565b600054610100900460ff16158015610af2576000805461ffff19166101011790555b610afa61167f565b610b026116fa565b610b7f610b7a60405180610120016040528060fa8152602001600a815260200160008152602001600860ff168152602001604051806040016040528060048152602001634672656560e01b8152508152602001600060ff168152602001600060ff168152602001600081526020016000815250611779565b611862565b610c0360405180610120016040528061012c8152602001600f81526020016902544faa778090e000008152602001600f60ff1681526020016040518060400160405280600681526020016529b4b63b32b960d11b8152508152602001601860ff168152602001602460ff16815260200162278d0081526020016103e8815250611779565b50610c866040518061012001604052806103e88152602001602881526020016908c9b831ab9396f000008152602001601860ff1681526020016040518060400160405280600481526020016311dbdb1960e21b8152508152602001602060ff168152602001603060ff168152602001624f1a008152602001610190815250611779565b50610d0c6040518061012001604052806105dc815260200160508152602001690e1df89a1c64df6800008152602001602360ff16815260200160405180604001604052806008815260200167506c6174696e756d60c01b8152508152602001602860ff168152602001603c60ff1681526020016276a700815260200160c8815250611779565b508015610989576000805461ff001916905550565b600080600080600080610d33876118f8565b81516000908152609a6020908152604080832081516101208101835281548152600182015493810193909352600281015491830191909152600381015460ff166060830152600481018054959750939550919390926080840191610d9690612d93565b80601f0160208091040260200160405190810160405280929190818152602001828054610dc290612d93565b8015610e0f5780601f10610de457610100808354040283529160200191610e0f565b820191906000526020600020905b815481529060010190602001808311610df257829003601f168201915b5050509183525050600582015460ff808216602080850191909152610100909204166040830152600683015460608084019190915260079093015460809092019190915282519083015192909101519398509650945090925050509193509193565b60009182526065602090815260408084206001600160a01b0393909316845291905290205460ff1690565b6109893382611c76565b600082815260656020526040902060010154610ec28133610f0e565b61073e8383610ff8565b6000610ed83342612176565b905090565b609d6020528160005260406000208181548110610ef957600080fd5b90600052602060002001600091509150505481565b610f188282610e71565b6108bf57610f30816001600160a01b03166014612231565b610f3b836020612231565b604051602001610f4c929190612eb4565b60408051601f198184030181529082905262461bcd60e51b82526106a391600401612f29565b610f7c8282610e71565b6108bf5760008281526065602090815260408083206001600160a01b03851684529091529020805460ff19166001179055610fb43390565b6001600160a01b0316816001600160a01b0316837f2f8788117e7eff1d82e926ec794901d17c78024a50270940304540a733656f0d60405160405180910390a45050565b6110028282610e71565b156108bf5760008281526065602090815260408083206001600160a01b0385168085529252808320805460ff1916905551339285917ff6391f5c32d9c69d2a47ea670b442974b53935d1edc7fd64eb21e047a839171b9190a45050565b7f360894a13ba1a3210667c828492db98dca3e2076cc3735a920a3ca505d382bbc546001600160a01b031690565b7f189ab7a9244df0848122154315af71fe140f3db0fe014031783b0946b8c9d2e36108bf8133610f0e565b60006110c261105f565b90506110cd846123d4565b6000835111806110da5750815b156110eb576110e98484612479565b505b7f4910fdfa16fed3260ed0e7147f7cc6da11a60208b5b9406d12a635614ffd9143805460ff166111fc57805460ff191660011781556040516001600160a01b038316602482015261116a90869060440160408051601f198184030181529190526020810180516001600160e01b0316631b2ce7f360e11b179052612479565b50805460ff1916815561117b61105f565b6001600160a01b0316826001600160a01b0316146111f35760405162461bcd60e51b815260206004820152602f60248201527f45524331393637557067726164653a207570677261646520627265616b73206660448201526e75727468657220757067726164657360881b60648201526084016106a3565b6111fc85612564565b5050505050565b6040516bffffffffffffffffffffffff19606084901b1660208201526034810182905260009060540160405160208183030381529060405280519060200120905092915050565b6000818152609c6020908152604091829020825160c081018452815480825260018301546001600160a01b03169382019390935260028201549381019390935260038101546060840152600481015460808401526005015460ff16151560a08301526112ea5760405162461bcd60e51b815260206004820152600f60248201526e1cdd185ad9481b9bdd08199bdd5b99608a1b60448201526064016106a3565b428160800151106113345760405162461bcd60e51b815260206004820152601460248201527339ba30b5b2903337b91032bc3834b930ba34b7b760611b60448201526064016106a3565b8060a00151156113765760405162461bcd60e51b815260206004820152600d60248201526c616c726561647920636c61696d60981b60448201526064016106a3565b600160a0820181905281516000908152609a60209081526040808320815161012081018352815481529481015492850192909252600282015490840152600381015460ff1660608401526004810180549293926080840191906113d890612d93565b80601f016020809104026020016040519081016040528092919081815260200182805461140490612d93565b80156114515780601f1061142657610100808354040283529160200191611451565b820191906000526020600020905b81548152906001019060200180831161143457829003601f168201915b5050509183525050600582015460ff80821660208085019190915261010090920416604080840191909152600684015460608401526007909301546080909201919091526098549085015183830151925163a9059cbb60e01b81526001600160a01b0391821660048201526024810193909352929350919091169063a9059cbb90604401602060405180830381600087803b1580156114ef57600080fd5b505af1158015611503573d6000803e3d6000fd5b505050506040513d601f19601f820116820180604052508101906115279190612d71565b506000838152609c6020908152604080832085518155918501516001830180546001600160a01b0319166001600160a01b03909216919091179055848101516002830155606085015160038301556080850151600483015560a08501516005909201805460ff1916921515929092179091555184917fdfe0de20fca88bb00cb9a97b4ad14079d36aa622c18c081a38e6b29f6e19561d91a2505050565b6001600160a01b0381166000908152609d60209081526040808320805482518185028101850190935280835242949383018282801561162257602002820191906000526020600020905b81548152602001906001019080831161160e575b5050505050905060005b815181101561167957600061165a8584848151811061164d5761164d612f3c565b6020026020010151611203565b905061166681856125a4565b508061167181612f68565b91505061162c565b50505050565b600054610100900460ff1680611698575060005460ff16155b6116b45760405162461bcd60e51b81526004016106a390612e66565b600054610100900460ff161580156116d6576000805461ffff19166101011790555b6116de6126fd565b6116e66126fd565b8015610989576000805461ff001916905550565b611702612767565b61170d600033610f72565b61172560008051602061304e83398151915233610f72565b61174f7f9f2df0fed2c77648de5860a4cc508cd0818c85b8b8a1ab4ceeef8d981c8956a633610f72565b6109a77f189ab7a9244df0848122154315af71fe140f3db0fe014031783b0946b8c9d2e333610f72565b60008061178560975490565b9050611795609780546001019055565b6000818152609a602090815260409182902085518155858201516001820155918501516002830155606085015160038301805460ff191660ff909216919091179055608085015180518693926117f2926004850192910190612a60565b5060a082015160058201805460c085015160ff90811661010090810261ffff19909316919094161717905560e083015160068301559091015160079091015560405181907f732fae86df8a4bd294a9e9cdb3a5e58953d219c9acaa73b4794807004d23098890600090a292915050565b6000818152609a60205260409020600401805461187e90612d93565b151590506118c55760405162461bcd60e51b81526020600482015260146024820152731cdd185ad9481c1bdbdb081b9bdd08199bdd5b9960621b60448201526064016106a3565b609981905560405181907f720e2ed7faf3513cd9b564022fd7d6b0a91aa3eb2dccab1c20fccb0f2a597cac90600090a250565b61193c6040518060c001604052806000815260200160006001600160a01b031681526020016000815260200160008152602001600081526020016000151581525090565b6001600160a01b0382166000908152609d602090815260408083208054825181850281018501909352808352849384938493849384938301828280156119a157602002820191906000526020600020905b81548152602001906001019080831161198d575b5050505050905060005b8151811015611b925760008282815181106119c8576119c8612f3c565b6020026020010151905042609c60006119e18d85611203565b81526020019081526020016000206004015410156119ff5750611b80565b6000818152609a6020908152604080832081516101208101835281548152600182015493810193909352600281015491830191909152600381015460ff166060830152600481018054608084019190611a5790612d93565b80601f0160208091040260200160405190810160405280929190818152602001828054611a8390612d93565b8015611ad05780601f10611aa557610100808354040283529160200191611ad0565b820191906000526020600020905b815481529060010190602001808311611ab357829003601f168201915b5050509183525050600582015460ff80821660208401526101009091048116604080840191909152600684015460608401526007909301546080909201919091529082015160a0830151929350611b2992909116612f83565b611b339087612fa2565b9550806040015185611b459190612fa2565b94508660ff168160c0015160ff161115611b7d578060c001519650838381518110611b7257611b72612f3c565b602002602001015197505b50505b80611b8a81612f68565b9150506119ab565b505083611bef576040518060c001604052806099548152602001886001600160a01b03168152602001428152602001428152602001426301e13380611bd79190612fa2565b81526001602090910152976000975095505050505050565b609c6000611bfd8987611203565b81526020019081526020016000208183611c179190612fba565b6040805160c0810182528354815260018401546001600160a01b03166020820152600284015491810191909152600383015460608201526004830154608082015260059092015460ff16151560a0830152909890975095505050505050565b6000818152609a6020908152604080832081516101208101835281548152600182015493810193909352600281015491830191909152600381015460ff166060830152600481018054608084019190611cce90612d93565b80601f0160208091040260200160405190810160405280929190818152602001828054611cfa90612d93565b8015611d475780601f10611d1c57610100808354040283529160200191611d47565b820191906000526020600020905b815481529060010190602001808311611d2a57829003601f168201915b5050509183525050600582015460ff80821660208401526101009091041660408201526006820154606082015260079091015460809182015281015151909150611dca5760405162461bcd60e51b81526020600482015260146024820152731cdd185ad9481c1bdbdb081b9bdd08199bdd5b9960621b60448201526064016106a3565b6101008101516000838152609b602052604090205410611e2c5760405162461bcd60e51b815260206004820152601760248201527f496e73756666696369656e7420706f6f6c20736861726500000000000000000060448201526064016106a3565b6000611e388484611203565b6000818152609c602052604090205490915015611e975760405162461bcd60e51b815260206004820181905260248201527f4f6e6c79206f6e65207374616b6520666f72207468652073616d6520706f6f6c60448201526064016106a3565b6000838152609b60205260408120805460019290611eb6908490612fa2565b90915550506040828101516098549151636eb1769f60e11b81526001600160a01b0387811660048301523060248301529192919091169063dd62ed3e9060440160206040518083038186803b158015611f0e57600080fd5b505afa158015611f22573d6000803e3d6000fd5b505050506040513d601f19601f82011682018060405250810190611f469190612d58565b118260400151604051602001611f8891907f616c6c6f77616e636520696e73756666696369656e74206372656469742028008152601f810191909152603f0190565b60405160208183030381529060405290611fb55760405162461bcd60e51b81526004016106a39190612f29565b5060985460408301516001600160a01b03909116906323b872dd9086903090611fe090606490612fdc565b6040516001600160e01b031960e086901b1681526001600160a01b0393841660048201529290911660248301526044820152606401602060405180830381600087803b15801561202f57600080fd5b505af1158015612043573d6000803e3d6000fd5b505050506040513d601f19601f820116820180604052508101906120679190612d71565b506001600160a01b0384166000818152609d60209081526040808320805460018101825590845282842001879055805160c08101825287815291820193909352429281018390526060810183905260e08501519192909160808301916120cd9190612fa2565b815260006020918201819052848152609c8252604080822084518155928401516001840180546001600160a01b0319166001600160a01b03928316179055848201516002850155606085015160038501556080850151600485015560a08501516005909401805460ff191694151594909417909355519293509087169184917f9fe79936194ebb2b9e1fef7bc9eaf5a81c14d670b0489c53004ab3115e6709df91a35050505050565b6001600160a01b0382166000908152609d60209081526040808320805482518185028101850190935280835284938301828280156121d357602002820191906000526020600020905b8154815260200190600101908083116121bf575b50505050509050600080600090505b82518110156122285761220a6122048785848151811061164d5761164d612f3c565b866127c6565b6122149083612fa2565b91508061222081612f68565b9150506121e2565b50949350505050565b60606000612240836002612f83565b61224b906002612fa2565b67ffffffffffffffff81111561226357612263612c52565b6040519080825280601f01601f19166020018201604052801561228d576020820181803683370190505b509050600360fc1b816000815181106122a8576122a8612f3c565b60200101906001600160f81b031916908160001a905350600f60fb1b816001815181106122d7576122d7612f3c565b60200101906001600160f81b031916908160001a90535060006122fb846002612f83565b612306906001612fa2565b90505b600181111561237e576f181899199a1a9b1b9c1cb0b131b232b360811b85600f166010811061233a5761233a612f3c565b1a60f81b82828151811061235057612350612f3c565b60200101906001600160f81b031916908160001a90535060049490941c9361237781612ff3565b9050612309565b5083156123cd5760405162461bcd60e51b815260206004820181905260248201527f537472696e67733a20686578206c656e67746820696e73756666696369656e7460448201526064016106a3565b9392505050565b803b6124385760405162461bcd60e51b815260206004820152602d60248201527f455243313936373a206e657720696d706c656d656e746174696f6e206973206e60448201526c1bdd08184818dbdb9d1c9858dd609a1b60648201526084016106a3565b7f360894a13ba1a3210667c828492db98dca3e2076cc3735a920a3ca505d382bbc80546001600160a01b0319166001600160a01b0392909216919091179055565b6060823b6124d85760405162461bcd60e51b815260206004820152602660248201527f416464726573733a2064656c65676174652063616c6c20746f206e6f6e2d636f6044820152651b9d1c9858dd60d21b60648201526084016106a3565b600080846001600160a01b0316846040516124f3919061300a565b600060405180830381855af49150503d806000811461252e576040519150601f19603f3d011682016040523d82523d6000602084013e612533565b606091505b509150915061255b828260405180606001604052806027815260200161302760279139612a27565b95945050505050565b61256d816123d4565b6040516001600160a01b038216907fbc7cd75a20ee27fd9adebab32041f755214dbc6bffa90cc0225b39da2e5c2d3b90600090a250565b6000828152609c60209081526040808320815160c0810183528154815260018201546001600160a01b03169381019390935260028101549183019190915260038101546060830152600481015460808301526005015460ff16151560a08201529061260f84846127c6565b90508061261c5750505050565b6000848152609c602090815260409182902060020185905560985490840151915163a9059cbb60e01b81526001600160a01b0392831660048201526024810184905291169063a9059cbb90604401602060405180830381600087803b15801561268457600080fd5b505af1158015612698573d6000803e3d6000fd5b505050506040513d601f19601f820116820180604052508101906126bc9190612d71565b50837fd3ab9a69ac1632a6447fe8ed278bf0868cb4e8b70c9f0630769bb07b5abe513c826040516126ef91815260200190565b60405180910390a250505050565b600054610100900460ff1680612716575060005460ff16155b6127325760405162461bcd60e51b81526004016106a390612e66565b600054610100900460ff161580156116e6576000805461ffff19166101011790558015610989576000805461ff001916905550565b600054610100900460ff1680612780575060005460ff16155b61279c5760405162461bcd60e51b81526004016106a390612e66565b600054610100900460ff161580156127be576000805461ffff19166101011790555b6116d66126fd565b6000828152609c60209081526040808320815160c081018352815480825260018301546001600160a01b03169482019490945260028201549281019290925260038101546060830152600481015460808301526005015460ff16151560a0820152906128365760009150506105b9565b80516000908152609a6020908152604080832081516101208101835281548152600182015493810193909352600281015491830191909152600381015460ff16606083015260048101805460808401919061289090612d93565b80601f01602080910402602001604051908101604052809291908181526020018280546128bc90612d93565b80156129095780601f106128de57610100808354040283529160200191612909565b820191906000526020600020905b8154815290600101906020018083116128ec57829003601f168201915b5050509183525050600582015460ff80821660208401526101009091041660408083019190915260068301546060830152600790920154608091820152840151908401519192501415612961576000925050506105b9565b6000826040015183608001516129779190612fdc565b9050600083604001518661298b9190612fdc565b9050818111156129985750805b60006129a6610e1083612fba565b9050816129b582610e10612f83565b11156129c9576129c6600182612fdc565b90505b60006301e1338060648660a0015160ff1687604001516129e99190612f83565b6129f39190612fba565b6129fd9190612fba565b90506000612a0d82610e10612f83565b9050612a198382612f83565b9a9950505050505050505050565b60608315612a365750816123cd565b825115612a465782518084602001fd5b8160405162461bcd60e51b81526004016106a39190612f29565b828054612a6c90612d93565b90600052602060002090601f016020900481019282612a8e5760008555612ad4565b82601f10612aa757805160ff1916838001178555612ad4565b82800160010185558215612ad4579182015b82811115612ad4578251825591602001919060010190612ab9565b50612ae0929150612ae4565b5090565b5b80821115612ae05760008155600101612ae5565b600060208284031215612b0b57600080fd5b81356001600160e01b0319811681146123cd57600080fd5b600060208284031215612b3557600080fd5b5035919050565b6001600160a01b038116811461098957600080fd5b60008060408385031215612b6457600080fd5b823591506020830135612b7681612b3c565b809150509250929050565b60005b83811015612b9c578181015183820152602001612b84565b838111156116795750506000910152565b60008151808452612bc5816020860160208601612b81565b601f01601f19169290920160200192915050565b60006101208b83528a602084015289604084015260ff89166060840152806080840152612c0881840189612bad565b60ff97881660a08501529590961660c08301525060e0810192909252610100909101529695505050505050565b600060208284031215612c4757600080fd5b81356123cd81612b3c565b634e487b7160e01b600052604160045260246000fd5b60008060408385031215612c7b57600080fd5b8235612c8681612b3c565b9150602083013567ffffffffffffffff80821115612ca357600080fd5b818501915085601f830112612cb757600080fd5b813581811115612cc957612cc9612c52565b604051601f8201601f19908116603f01168101908382118183101715612cf157612cf1612c52565b81604052828152886020848701011115612d0a57600080fd5b8260208601602083013760006020848301015280955050505050509250929050565b60008060408385031215612d3f57600080fd5b8235612d4a81612b3c565b946020939093013593505050565b600060208284031215612d6a57600080fd5b5051919050565b600060208284031215612d8357600080fd5b815180151581146123cd57600080fd5b600181811c90821680612da757607f821691505b60208210811415612dc857634e487b7160e01b600052602260045260246000fd5b50919050565b6020808252602c908201527f46756e6374696f6e206d7573742062652063616c6c6564207468726f7567682060408201526b19195b1959d85d1958d85b1b60a21b606082015260800190565b6020808252602c908201527f46756e6374696f6e206d7573742062652063616c6c6564207468726f7567682060408201526b6163746976652070726f787960a01b606082015260800190565b6020808252602e908201527f496e697469616c697a61626c653a20636f6e747261637420697320616c72656160408201526d191e481a5b9a5d1a585b1a5e995960921b606082015260800190565b7f416363657373436f6e74726f6c3a206163636f756e7420000000000000000000815260008351612eec816017850160208801612b81565b7001034b99036b4b9b9b4b733903937b6329607d1b6017918401918201528351612f1d816028840160208801612b81565b01602801949350505050565b6020815260006123cd6020830184612bad565b634e487b7160e01b600052603260045260246000fd5b634e487b7160e01b600052601160045260246000fd5b6000600019821415612f7c57612f7c612f52565b5060010190565b6000816000190483118215151615612f9d57612f9d612f52565b500290565b60008219821115612fb557612fb5612f52565b500190565b600082612fd757634e487b7160e01b600052601260045260246000fd5b500490565b600082821015612fee57612fee612f52565b500390565b60008161300257613002612f52565b506000190190565b6000825161301c818460208701612b81565b919091019291505056fe416464726573733a206c6f772d6c6576656c2064656c65676174652063616c6c206661696c6564f5eb84615c2a00ecaf817d13794ebd6299c9e01c395bf4018453f13f577f5449a264697066735822122037e91fa01caa23b6d85cab5a3d34bea80b36cec1d03c929c3283707b9a4fa35f64736f6c63430008090033",
  "immutableReferences": {
    "1023": [
      {
        "length": 32,
        "start": 2254
      },
      {
        "length": 32,
        "start": 2318
      },
      {
        "length": 32,
        "start": 2484
      },
      {
        "length": 32,
        "start": 2548
      }
    ]
  },
  "source": "// SPDX-License-Identifier: MIT\npragma solidity 0.8.9;\n\nimport \"@openzeppelin/contracts-upgradeable/proxy/utils/UUPSUpgradeable.sol\";\nimport \"./MelandAccessRoles.sol\";\nimport \"./MelandStakesStorage.sol\";\n\ncontract MelandStakes is\n    MelandAccessRoles,\n    MelandStakesStorage,\n    UUPSUpgradeable\n{\n    function initialize() public initializer {\n        __UUPSUpgradeable_init();\n        __MelandAccessRoles_init();\n\n        _setDefaultStakePoolId(\n            _createNewStakePool(StakePool(250, 10, 0, 8, \"Free\", 0, 0, 0, 0))\n        );\n        _createNewStakePool(\n            StakePool(300, 15, 11000 * 10 ** 18, 15, \"Silver\", 24, 36, 30 days, 1000)\n        );\n        _createNewStakePool(\n            StakePool(1000, 40, 41500 * 10 ** 18, 24, \"Gold\", 32, 48, 60 days, 400)\n        );\n        _createNewStakePool(\n            StakePool(1500, 80, 66666 * 10 ** 18, 35, \"Platinum\", 40, 60, 90 days, 200)\n        );\n    }\n\n    function setAcceptedToken(IERC20Upgradeable _acceptedToken) public onlyRole(GM_ROLE) {\n        acceptedToken = _acceptedToken;\n    }\n\n    function getUserCurrentHighLevelStake(address staker) public view returns(\n        uint8,\n        uint256,\n        uint256,\n        uint8\n    ) {\n        (Stake memory ustake, uint8 stakeApy) = _getUserCurrentHighLevelStake(staker);\n        StakePool memory pool = stakePoolById[ustake.stakePoolId];\n        return (\n            stakeApy,\n            pool.ditaminLD,\n            pool.ditaminC,\n            pool.landC\n        );\n    }\n\n    function stake(uint256 stakePoolId) public {\n        _stake(_msgSender(), stakePoolId);\n    }\n\n    function harvest() public {\n        _harvestByStaker(_msgSender());\n    }\n\n    function claim(uint256 stakePoolId) public {\n        _claim(_buildStakeId(_msgSender(), stakePoolId));\n    }\n\n    function getStakerAllEarned() public view returns(uint256) {\n        return _getStakerAllEarned(_msgSender(), block.timestamp);\n    }\n\n    function _authorizeUpgrade(address newImplementation)\n        internal\n        override\n        onlyRole(UPGRADER_ROLE)\n    {}\n\n    function withdraw(uint256 amount) public onlyRole(GM_ROLE) {\n        require(\n            acceptedToken.balanceOf(_msgSender()) > amount,\n            \"Insufficient balance\"\n        );\n        acceptedToken.transfer(_msgSender(), amount);\n    }\n}\n",
  "sourcePath": "/Users/alberthuang/code/icw/meland/contracts/MelandStakes.sol",
  "compiler": {
    "name": "solc",
    "version": "0.8.9+commit.e5eed63a.Emscripten.clang"
  },
  "schemaVersion": "3.4.3",
  "updatedAt": "2021-12-26T23:24:40.754Z",
  "devdoc": {
    "kind": "dev",
    "methods": {
      "getRoleAdmin(bytes32)": {
        "details": "Returns the admin role that controls `role`. See {grantRole} and {revokeRole}. To change a role's admin, use {_setRoleAdmin}."
      },
      "grantRole(bytes32,address)": {
        "details": "Grants `role` to `account`. If `account` had not been already granted `role`, emits a {RoleGranted} event. Requirements: - the caller must have ``role``'s admin role."
      },
      "hasRole(bytes32,address)": {
        "details": "Returns `true` if `account` has been granted `role`."
      },
      "renounceRole(bytes32,address)": {
        "details": "Revokes `role` from the calling account. Roles are often managed via {grantRole} and {revokeRole}: this function's purpose is to provide a mechanism for accounts to lose their privileges if they are compromised (such as when a trusted device is misplaced). If the calling account had been revoked `role`, emits a {RoleRevoked} event. Requirements: - the caller must be `account`."
      },
      "revokeRole(bytes32,address)": {
        "details": "Revokes `role` from `account`. If `account` had been granted `role`, emits a {RoleRevoked} event. Requirements: - the caller must have ``role``'s admin role."
      },
      "supportsInterface(bytes4)": {
        "details": "See {IERC165-supportsInterface}."
      },
      "upgradeTo(address)": {
        "details": "Upgrade the implementation of the proxy to `newImplementation`. Calls {_authorizeUpgrade}. Emits an {Upgraded} event."
      },
      "upgradeToAndCall(address,bytes)": {
        "details": "Upgrade the implementation of the proxy to `newImplementation`, and subsequently execute the function call encoded in `data`. Calls {_authorizeUpgrade}. Emits an {Upgraded} event."
      }
    },
    "version": 1
  },
  "userdoc": {
    "kind": "user",
    "methods": {},
    "version": 1
  }
}