{
  "contractName": "Meland1155Placeable",
  "abi": [
    {
      "anonymous": false,
      "inputs": [
        {
          "indexed": false,
          "internalType": "address",
          "name": "previousAdmin",
          "type": "address"
        },
        {
          "indexed": false,
          "internalType": "address",
          "name": "newAdmin",
          "type": "address"
        }
      ],
      "name": "AdminChanged",
      "type": "event"
    },
    {
      "anonymous": false,
      "inputs": [
        {
          "indexed": true,
          "internalType": "address",
          "name": "account",
          "type": "address"
        },
        {
          "indexed": true,
          "internalType": "address",
          "name": "operator",
          "type": "address"
        },
        {
          "indexed": false,
          "internalType": "bool",
          "name": "approved",
          "type": "bool"
        }
      ],
      "name": "ApprovalForAll",
      "type": "event"
    },
    {
      "anonymous": false,
      "inputs": [
        {
          "indexed": true,
          "internalType": "address",
          "name": "beacon",
          "type": "address"
        }
      ],
      "name": "BeaconUpgraded",
      "type": "event"
    },
    {
      "anonymous": false,
      "inputs": [
        {
          "indexed": false,
          "internalType": "bool",
          "name": "_freezeEnabled",
          "type": "bool"
        }
      ],
      "name": "FreezeEnabledUpdate",
      "type": "event"
    },
    {
      "anonymous": false,
      "inputs": [
        {
          "indexed": true,
          "internalType": "bytes",
          "name": "rarity",
          "type": "bytes"
        },
        {
          "indexed": false,
          "internalType": "uint256",
          "name": "mintMax",
          "type": "uint256"
        }
      ],
      "name": "RarityUpdate",
      "type": "event"
    },
    {
      "anonymous": false,
      "inputs": [
        {
          "indexed": true,
          "internalType": "bytes32",
          "name": "role",
          "type": "bytes32"
        },
        {
          "indexed": true,
          "internalType": "bytes32",
          "name": "previousAdminRole",
          "type": "bytes32"
        },
        {
          "indexed": true,
          "internalType": "bytes32",
          "name": "newAdminRole",
          "type": "bytes32"
        }
      ],
      "name": "RoleAdminChanged",
      "type": "event"
    },
    {
      "anonymous": false,
      "inputs": [
        {
          "indexed": true,
          "internalType": "bytes32",
          "name": "role",
          "type": "bytes32"
        },
        {
          "indexed": true,
          "internalType": "address",
          "name": "account",
          "type": "address"
        },
        {
          "indexed": true,
          "internalType": "address",
          "name": "sender",
          "type": "address"
        }
      ],
      "name": "RoleGranted",
      "type": "event"
    },
    {
      "anonymous": false,
      "inputs": [
        {
          "indexed": true,
          "internalType": "bytes32",
          "name": "role",
          "type": "bytes32"
        },
        {
          "indexed": true,
          "internalType": "address",
          "name": "account",
          "type": "address"
        },
        {
          "indexed": true,
          "internalType": "address",
          "name": "sender",
          "type": "address"
        }
      ],
      "name": "RoleRevoked",
      "type": "event"
    },
    {
      "anonymous": false,
      "inputs": [
        {
          "indexed": true,
          "internalType": "address",
          "name": "operator",
          "type": "address"
        },
        {
          "indexed": true,
          "internalType": "address",
          "name": "from",
          "type": "address"
        },
        {
          "indexed": true,
          "internalType": "address",
          "name": "to",
          "type": "address"
        },
        {
          "indexed": false,
          "internalType": "uint256[]",
          "name": "ids",
          "type": "uint256[]"
        },
        {
          "indexed": false,
          "internalType": "uint256[]",
          "name": "values",
          "type": "uint256[]"
        }
      ],
      "name": "TransferBatch",
      "type": "event"
    },
    {
      "anonymous": false,
      "inputs": [
        {
          "indexed": true,
          "internalType": "address",
          "name": "operator",
          "type": "address"
        },
        {
          "indexed": true,
          "internalType": "address",
          "name": "from",
          "type": "address"
        },
        {
          "indexed": true,
          "internalType": "address",
          "name": "to",
          "type": "address"
        },
        {
          "indexed": false,
          "internalType": "uint256",
          "name": "id",
          "type": "uint256"
        },
        {
          "indexed": false,
          "internalType": "uint256",
          "name": "value",
          "type": "uint256"
        }
      ],
      "name": "TransferSingle",
      "type": "event"
    },
    {
      "anonymous": false,
      "inputs": [
        {
          "indexed": false,
          "internalType": "string",
          "name": "value",
          "type": "string"
        },
        {
          "indexed": true,
          "internalType": "uint256",
          "name": "id",
          "type": "uint256"
        }
      ],
      "name": "URI",
      "type": "event"
    },
    {
      "anonymous": false,
      "inputs": [
        {
          "indexed": true,
          "internalType": "address",
          "name": "implementation",
          "type": "address"
        }
      ],
      "name": "Upgraded",
      "type": "event"
    },
    {
      "inputs": [],
      "name": "DEFAULT_ADMIN_ROLE",
      "outputs": [
        {
          "internalType": "bytes32",
          "name": "",
          "type": "bytes32"
        }
      ],
      "stateMutability": "view",
      "type": "function"
    },
    {
      "inputs": [],
      "name": "GM_ROLE",
      "outputs": [
        {
          "internalType": "bytes32",
          "name": "",
          "type": "bytes32"
        }
      ],
      "stateMutability": "view",
      "type": "function"
    },
    {
      "inputs": [],
      "name": "MINTER_ROLE",
      "outputs": [
        {
          "internalType": "bytes32",
          "name": "",
          "type": "bytes32"
        }
      ],
      "stateMutability": "view",
      "type": "function"
    },
    {
      "inputs": [],
      "name": "UPGRADER_ROLE",
      "outputs": [
        {
          "internalType": "bytes32",
          "name": "",
          "type": "bytes32"
        }
      ],
      "stateMutability": "view",
      "type": "function"
    },
    {
      "inputs": [
        {
          "internalType": "string",
          "name": "",
          "type": "string"
        }
      ],
      "name": "acceptedToken",
      "outputs": [
        {
          "internalType": "contract IERC20Upgradeable",
          "name": "",
          "type": "address"
        }
      ],
      "stateMutability": "view",
      "type": "function"
    },
    {
      "inputs": [
        {
          "internalType": "address",
          "name": "account",
          "type": "address"
        },
        {
          "internalType": "uint256",
          "name": "id",
          "type": "uint256"
        }
      ],
      "name": "balanceOf",
      "outputs": [
        {
          "internalType": "uint256",
          "name": "",
          "type": "uint256"
        }
      ],
      "stateMutability": "view",
      "type": "function"
    },
    {
      "inputs": [
        {
          "internalType": "address[]",
          "name": "accounts",
          "type": "address[]"
        },
        {
          "internalType": "uint256[]",
          "name": "ids",
          "type": "uint256[]"
        }
      ],
      "name": "balanceOfBatch",
      "outputs": [
        {
          "internalType": "uint256[]",
          "name": "",
          "type": "uint256[]"
        }
      ],
      "stateMutability": "view",
      "type": "function"
    },
    {
      "inputs": [
        {
          "internalType": "address",
          "name": "account",
          "type": "address"
        },
        {
          "internalType": "uint256",
          "name": "id",
          "type": "uint256"
        },
        {
          "internalType": "uint256",
          "name": "value",
          "type": "uint256"
        }
      ],
      "name": "burn",
      "outputs": [],
      "stateMutability": "nonpayable",
      "type": "function"
    },
    {
      "inputs": [
        {
          "internalType": "address",
          "name": "account",
          "type": "address"
        },
        {
          "internalType": "uint256[]",
          "name": "ids",
          "type": "uint256[]"
        },
        {
          "internalType": "uint256[]",
          "name": "values",
          "type": "uint256[]"
        }
      ],
      "name": "burnBatch",
      "outputs": [],
      "stateMutability": "nonpayable",
      "type": "function"
    },
    {
      "inputs": [
        {
          "internalType": "uint256",
          "name": "id",
          "type": "uint256"
        }
      ],
      "name": "getCidByTokenId",
      "outputs": [
        {
          "internalType": "uint256",
          "name": "",
          "type": "uint256"
        }
      ],
      "stateMutability": "view",
      "type": "function"
    },
    {
      "inputs": [
        {
          "internalType": "uint256",
          "name": "cid",
          "type": "uint256"
        }
      ],
      "name": "getRarityByCId",
      "outputs": [
        {
          "internalType": "string",
          "name": "",
          "type": "string"
        }
      ],
      "stateMutability": "view",
      "type": "function"
    },
    {
      "inputs": [
        {
          "internalType": "uint256",
          "name": "id",
          "type": "uint256"
        }
      ],
      "name": "getRarityById",
      "outputs": [
        {
          "internalType": "string",
          "name": "",
          "type": "string"
        }
      ],
      "stateMutability": "view",
      "type": "function"
    },
    {
      "inputs": [
        {
          "internalType": "bytes32",
          "name": "role",
          "type": "bytes32"
        }
      ],
      "name": "getRoleAdmin",
      "outputs": [
        {
          "internalType": "bytes32",
          "name": "",
          "type": "bytes32"
        }
      ],
      "stateMutability": "view",
      "type": "function"
    },
    {
      "inputs": [
        {
          "internalType": "bytes32",
          "name": "role",
          "type": "bytes32"
        },
        {
          "internalType": "address",
          "name": "account",
          "type": "address"
        }
      ],
      "name": "grantRole",
      "outputs": [],
      "stateMutability": "nonpayable",
      "type": "function"
    },
    {
      "inputs": [
        {
          "internalType": "bytes32",
          "name": "role",
          "type": "bytes32"
        },
        {
          "internalType": "address",
          "name": "account",
          "type": "address"
        }
      ],
      "name": "hasRole",
      "outputs": [
        {
          "internalType": "bool",
          "name": "",
          "type": "bool"
        }
      ],
      "stateMutability": "view",
      "type": "function"
    },
    {
      "inputs": [
        {
          "internalType": "address",
          "name": "_owner",
          "type": "address"
        },
        {
          "internalType": "address",
          "name": "_operator",
          "type": "address"
        }
      ],
      "name": "isApprovedForAll",
      "outputs": [
        {
          "internalType": "bool",
          "name": "isOperator",
          "type": "bool"
        }
      ],
      "stateMutability": "view",
      "type": "function"
    },
    {
      "inputs": [],
      "name": "melandStoreItems",
      "outputs": [
        {
          "internalType": "string[]",
          "name": "",
          "type": "string[]"
        },
        {
          "internalType": "uint256[]",
          "name": "",
          "type": "uint256[]"
        }
      ],
      "stateMutability": "view",
      "type": "function"
    },
    {
      "inputs": [
        {
          "internalType": "string",
          "name": "",
          "type": "string"
        }
      ],
      "name": "melandStoreReceipt",
      "outputs": [
        {
          "internalType": "address",
          "name": "receipt",
          "type": "address"
        }
      ],
      "stateMutability": "pure",
      "type": "function"
    },
    {
      "inputs": [
        {
          "internalType": "bytes32",
          "name": "",
          "type": "bytes32"
        }
      ],
      "name": "mintMaxByRaritykeccak256",
      "outputs": [
        {
          "internalType": "uint256",
          "name": "",
          "type": "uint256"
        }
      ],
      "stateMutability": "view",
      "type": "function"
    },
    {
      "inputs": [
        {
          "internalType": "string",
          "name": "_a",
          "type": "string"
        }
      ],
      "name": "parseInt",
      "outputs": [
        {
          "internalType": "uint256",
          "name": "_parsedInt",
          "type": "uint256"
        }
      ],
      "stateMutability": "pure",
      "type": "function"
    },
    {
      "inputs": [
        {
          "internalType": "string",
          "name": "_a",
          "type": "string"
        },
        {
          "internalType": "uint256",
          "name": "_b",
          "type": "uint256"
        }
      ],
      "name": "parseInt",
      "outputs": [
        {
          "internalType": "uint256",
          "name": "_parsedInt",
          "type": "uint256"
        }
      ],
      "stateMutability": "pure",
      "type": "function"
    },
    {
      "inputs": [
        {
          "internalType": "bytes32",
          "name": "role",
          "type": "bytes32"
        },
        {
          "internalType": "address",
          "name": "account",
          "type": "address"
        }
      ],
      "name": "renounceRole",
      "outputs": [],
      "stateMutability": "nonpayable",
      "type": "function"
    },
    {
      "inputs": [
        {
          "internalType": "bytes32",
          "name": "role",
          "type": "bytes32"
        },
        {
          "internalType": "address",
          "name": "account",
          "type": "address"
        }
      ],
      "name": "revokeRole",
      "outputs": [],
      "stateMutability": "nonpayable",
      "type": "function"
    },
    {
      "inputs": [
        {
          "internalType": "address",
          "name": "from",
          "type": "address"
        },
        {
          "internalType": "address",
          "name": "to",
          "type": "address"
        },
        {
          "internalType": "uint256[]",
          "name": "ids",
          "type": "uint256[]"
        },
        {
          "internalType": "uint256[]",
          "name": "amounts",
          "type": "uint256[]"
        },
        {
          "internalType": "bytes",
          "name": "data",
          "type": "bytes"
        }
      ],
      "name": "safeBatchTransferFrom",
      "outputs": [],
      "stateMutability": "nonpayable",
      "type": "function"
    },
    {
      "inputs": [
        {
          "internalType": "string",
          "name": "_a",
          "type": "string"
        }
      ],
      "name": "safeParseInt",
      "outputs": [
        {
          "internalType": "uint256",
          "name": "_parsedInt",
          "type": "uint256"
        }
      ],
      "stateMutability": "pure",
      "type": "function"
    },
    {
      "inputs": [
        {
          "internalType": "string",
          "name": "_a",
          "type": "string"
        },
        {
          "internalType": "uint256",
          "name": "_b",
          "type": "uint256"
        }
      ],
      "name": "safeParseInt",
      "outputs": [
        {
          "internalType": "uint256",
          "name": "_parsedInt",
          "type": "uint256"
        }
      ],
      "stateMutability": "pure",
      "type": "function"
    },
    {
      "inputs": [
        {
          "internalType": "address",
          "name": "from",
          "type": "address"
        },
        {
          "internalType": "address",
          "name": "to",
          "type": "address"
        },
        {
          "internalType": "uint256",
          "name": "id",
          "type": "uint256"
        },
        {
          "internalType": "uint256",
          "name": "amount",
          "type": "uint256"
        },
        {
          "internalType": "bytes",
          "name": "data",
          "type": "bytes"
        }
      ],
      "name": "safeTransferFrom",
      "outputs": [],
      "stateMutability": "nonpayable",
      "type": "function"
    },
    {
      "inputs": [
        {
          "internalType": "address",
          "name": "operator",
          "type": "address"
        },
        {
          "internalType": "bool",
          "name": "approved",
          "type": "bool"
        }
      ],
      "name": "setApprovalForAll",
      "outputs": [],
      "stateMutability": "nonpayable",
      "type": "function"
    },
    {
      "inputs": [
        {
          "internalType": "uint256",
          "name": "id",
          "type": "uint256"
        }
      ],
      "name": "totalSupply",
      "outputs": [
        {
          "internalType": "uint256",
          "name": "",
          "type": "uint256"
        }
      ],
      "stateMutability": "view",
      "type": "function"
    },
    {
      "inputs": [
        {
          "internalType": "uint256",
          "name": "cid",
          "type": "uint256"
        }
      ],
      "name": "totalSupplyByCId",
      "outputs": [
        {
          "internalType": "uint256",
          "name": "",
          "type": "uint256"
        }
      ],
      "stateMutability": "view",
      "type": "function"
    },
    {
      "inputs": [
        {
          "internalType": "address",
          "name": "newImplementation",
          "type": "address"
        }
      ],
      "name": "upgradeTo",
      "outputs": [],
      "stateMutability": "nonpayable",
      "type": "function"
    },
    {
      "inputs": [
        {
          "internalType": "address",
          "name": "newImplementation",
          "type": "address"
        },
        {
          "internalType": "bytes",
          "name": "data",
          "type": "bytes"
        }
      ],
      "name": "upgradeToAndCall",
      "outputs": [],
      "stateMutability": "payable",
      "type": "function"
    },
    {
      "inputs": [
        {
          "internalType": "uint256",
          "name": "id",
          "type": "uint256"
        }
      ],
      "name": "uri",
      "outputs": [
        {
          "internalType": "string",
          "name": "",
          "type": "string"
        }
      ],
      "stateMutability": "view",
      "type": "function"
    },
    {
      "inputs": [
        {
          "internalType": "string",
          "name": "uri",
          "type": "string"
        }
      ],
      "name": "initialize",
      "outputs": [],
      "stateMutability": "nonpayable",
      "type": "function"
    },
    {
      "inputs": [
        {
          "internalType": "string",
          "name": "newuri",
          "type": "string"
        }
      ],
      "name": "setURI",
      "outputs": [],
      "stateMutability": "nonpayable",
      "type": "function"
    },
    {
      "inputs": [
        {
          "internalType": "contract MelandTier",
          "name": "_tierAddress",
          "type": "address"
        }
      ],
      "name": "setMelandTier",
      "outputs": [],
      "stateMutability": "nonpayable",
      "type": "function"
    },
    {
      "inputs": [
        {
          "internalType": "string",
          "name": "symbol",
          "type": "string"
        }
      ],
      "name": "melandStoreItemURI",
      "outputs": [
        {
          "internalType": "string",
          "name": "",
          "type": "string"
        }
      ],
      "stateMutability": "view",
      "type": "function"
    },
    {
      "inputs": [
        {
          "internalType": "address",
          "name": "account",
          "type": "address"
        },
        {
          "internalType": "uint256",
          "name": "cid",
          "type": "uint256"
        },
        {
          "internalType": "uint256",
          "name": "amount",
          "type": "uint256"
        }
      ],
      "name": "mint",
      "outputs": [
        {
          "internalType": "uint256[]",
          "name": "",
          "type": "uint256[]"
        }
      ],
      "stateMutability": "nonpayable",
      "type": "function"
    },
    {
      "inputs": [
        {
          "internalType": "string",
          "name": "_rarity",
          "type": "string"
        },
        {
          "internalType": "uint256",
          "name": "mintMax",
          "type": "uint256"
        }
      ],
      "name": "setRarity",
      "outputs": [],
      "stateMutability": "nonpayable",
      "type": "function"
    },
    {
      "inputs": [
        {
          "internalType": "bytes4",
          "name": "interfaceId",
          "type": "bytes4"
        }
      ],
      "name": "supportsInterface",
      "outputs": [
        {
          "internalType": "bool",
          "name": "",
          "type": "bool"
        }
      ],
      "stateMutability": "view",
      "type": "function"
    },
    {
      "inputs": [
        {
          "internalType": "contract IERC20Upgradeable",
          "name": "token",
          "type": "address"
        }
      ],
      "name": "setAcceptedToken",
      "outputs": [],
      "stateMutability": "nonpayable",
      "type": "function"
    },
    {
      "inputs": [
        {
          "internalType": "contract NFTStore",
          "name": "s",
          "type": "address"
        }
      ],
      "name": "setStore",
      "outputs": [],
      "stateMutability": "nonpayable",
      "type": "function"
    },
    {
      "inputs": [
        {
          "internalType": "string",
          "name": "symbol",
          "type": "string"
        },
        {
          "internalType": "uint256",
          "name": "price",
          "type": "uint256"
        }
      ],
      "name": "setStoreItem",
      "outputs": [],
      "stateMutability": "nonpayable",
      "type": "function"
    },
    {
      "inputs": [
        {
          "internalType": "string",
          "name": "symbol",
          "type": "string"
        }
      ],
      "name": "delStoreItem",
      "outputs": [],
      "stateMutability": "nonpayable",
      "type": "function"
    },
    {
      "inputs": [
        {
          "internalType": "string",
          "name": "",
          "type": "string"
        }
      ],
      "name": "melandStoreItemsRestrictPurchaseNFTIds",
      "outputs": [
        {
          "internalType": "bool",
          "name": "",
          "type": "bool"
        },
        {
          "internalType": "uint256[]",
          "name": "",
          "type": "uint256[]"
        }
      ],
      "stateMutability": "pure",
      "type": "function"
    },
    {
      "inputs": [
        {
          "internalType": "string",
          "name": "symbol",
          "type": "string"
        },
        {
          "internalType": "uint256",
          "name": "id",
          "type": "uint256"
        },
        {
          "internalType": "address",
          "name": "to",
          "type": "address"
        }
      ],
      "name": "melandStoreItemsMint",
      "outputs": [
        {
          "internalType": "uint256",
          "name": "",
          "type": "uint256"
        }
      ],
      "stateMutability": "nonpayable",
      "type": "function"
    },
    {
      "inputs": [
        {
          "internalType": "string",
          "name": "symbol",
          "type": "string"
        }
      ],
      "name": "melandStoreSellStatus",
      "outputs": [
        {
          "internalType": "bool",
          "name": "isSelling",
          "type": "bool"
        }
      ],
      "stateMutability": "view",
      "type": "function"
    },
    {
      "inputs": [
        {
          "internalType": "string",
          "name": "",
          "type": "string"
        }
      ],
      "name": "melandStoreItemsRestrictedPurchase",
      "outputs": [
        {
          "internalType": "bool",
          "name": "restricted",
          "type": "bool"
        },
        {
          "internalType": "uint256",
          "name": "restrictLimit",
          "type": "uint256"
        }
      ],
      "stateMutability": "pure",
      "type": "function"
    }
  ],
  "bytecode": "0x60a06040523060805234801561001457600080fd5b5060805161491961004560003960008181610cac01528181610cec01528181610eab0152610eeb01526149196000f3fe6080604052600436106102925760003560e01c80638b31e62d1161015a578063d3186324116100c1578063f405a5841161007a578063f405a584146108a6578063f5298aca146108c6578063f62d1888146108e6578063f70e9a4714610906578063f72c0d8b14610926578063fcc6dd571461095a57600080fd5b8063d3186324146107c5578063d5391393146107f2578063d547741f14610826578063e985e9c514610846578063ed9be43214610866578063f242432a1461088657600080fd5b8063a649e7a511610113578063a649e7a5146106f8578063b0c208bc14610725578063bd85b03914610745578063bdb7b5dd14610765578063be7cbe7514610785578063bf4d89b5146107a557600080fd5b80638b31e62d1461062e57806390ad941d1461065157806391d14854146106715780639f89e76914610691578063a217fddf146106c3578063a22cb465146106d857600080fd5b806330c7be2c116101fe5780634f1ef286116101b75780634f1ef2861461054f5780635eccb30c14610562578063664033d5146105825780636b20c454146105ce5780637487f528146105ee57806380e416bd1461060e57600080fd5b806330c7be2c1461048057806336568abe146104a25780633659cfe6146104c25780633ef780bc146104e257806342346c5e1461050f5780634e1273f41461052f57600080fd5b8063156e29f611610250578063156e29f6146103a35780631a8c2e80146103d05780631ba43d2b146103f0578063248a9ca3146104105780632eb2c2d6146104405780632f2ff15d1461046057600080fd5b8062fdd58e1461029757806301ffc9a7146102ca57806302fe5305146102fa5780630820c90d1461031c578063087cbd40146103565780630e89341c14610376575b600080fd5b3480156102a357600080fd5b506102b76102b2366004613896565b610986565b6040519081526020015b60405180910390f35b3480156102d657600080fd5b506102ea6102e53660046138d8565b610a22565b60405190151581526020016102c1565b34801561030657600080fd5b5061031a6103153660046139aa565b610a2d565b005b34801561032857600080fd5b5061033f6103373660046139aa565b506000908190565b6040805192151583526020830191909152016102c1565b34801561036257600080fd5b5061031a6103713660046139e6565b610a53565b34801561038257600080fd5b50610396610391366004613a03565b610a75565b6040516102c19190613a74565b3480156103af57600080fd5b506103c36103be366004613a87565b610a80565b6040516102c19190613af7565b3480156103dc57600080fd5b506102b76103eb366004613b0a565b610ad1565b3480156103fc57600080fd5b506102ea61040b3660046139aa565b610b2a565b34801561041c57600080fd5b506102b761042b366004613a03565b600090815260cf602052604090206001015490565b34801561044c57600080fd5b5061031a61045b366004613bf8565b610b65565b34801561046c57600080fd5b5061031a61047b366004613ca5565b610bfc565b34801561048c57600080fd5b506102b76000805160206148c483398151915281565b3480156104ae57600080fd5b5061031a6104bd366004613ca5565b610c27565b3480156104ce57600080fd5b5061031a6104dd3660046139e6565b610ca1565b3480156104ee57600080fd5b506102b76104fd366004613a03565b600090815260ca602052604090205490565b34801561051b57600080fd5b506102b761052a3660046139aa565b610d6a565b34801561053b57600080fd5b506103c361054a366004613cd5565b610d77565b61031a61055d366004613da1565b610ea0565b34801561056e57600080fd5b506102b761057d3660046139aa565b610f56565b34801561058e57600080fd5b506105b661059d3660046139aa565b5073fced262e4949b7b5c4177b4e0ad8e974cc7493bf90565b6040516001600160a01b0390911681526020016102c1565b3480156105da57600080fd5b5061031a6105e9366004613de6565b610f63565b3480156105fa57600080fd5b5061031a6106093660046139e6565b610fa6565b34801561061a57600080fd5b5061031a610629366004613e5b565b610fc8565b34801561063a57600080fd5b50610643610ff2565b6040516102c1929190613e9f565b34801561065d57600080fd5b5061039661066c366004613a03565b611128565b34801561067d57600080fd5b506102ea61068c366004613ca5565b6111ca565b34801561069d57600080fd5b506106b56106ac3660046139aa565b50600090606090565b6040516102c1929190613f0c565b3480156106cf57600080fd5b506102b7600081565b3480156106e457600080fd5b5061031a6106f3366004613f27565b6111f5565b34801561070457600080fd5b506102b7610713366004613a03565b60cd6020526000908152604090205481565b34801561073157600080fd5b5061031a6107403660046139aa565b611200565b34801561075157600080fd5b506102b7610760366004613a03565b611222565b34801561077157600080fd5b5061031a610780366004613e5b565b611254565b34801561079157600080fd5b506103966107a0366004613a03565b611277565b3480156107b157600080fd5b506102b76107c0366004613e5b565b61132d565b3480156107d157600080fd5b506102b76107e0366004613a03565b600090815260cb602052604090205490565b3480156107fe57600080fd5b506102b77f9f2df0fed2c77648de5860a4cc508cd0818c85b8b8a1ab4ceeef8d981c8956a681565b34801561083257600080fd5b5061031a610841366004613ca5565b61144a565b34801561085257600080fd5b506102ea610861366004613f5a565b611470565b34801561087257600080fd5b506102b7610881366004613e5b565b61147c565b34801561089257600080fd5b5061031a6108a1366004613f88565b611635565b3480156108b257600080fd5b506103966108c13660046139aa565b61167a565b3480156108d257600080fd5b5061031a6108e1366004613a87565b6116ae565b3480156108f257600080fd5b5061031a6109013660046139aa565b6116f1565b34801561091257600080fd5b5061031a6109213660046139e6565b611776565b34801561093257600080fd5b506102b77f189ab7a9244df0848122154315af71fe140f3db0fe014031783b0946b8c9d2e381565b34801561096657600080fd5b506105b66109753660046139aa565b50610102546001600160a01b031690565b60006001600160a01b0383166109f75760405162461bcd60e51b815260206004820152602b60248201527f455243313135353a2062616c616e636520717565727920666f7220746865207a60448201526a65726f206164647265737360a81b60648201526084015b60405180910390fd5b5060008181526065602090815260408083206001600160a01b03861684529091529020545b92915050565b6000610a1c826117ae565b6000805160206148c4833981519152610a4681336117d3565b610a4f82611837565b5050565b6000805160206148c4833981519152610a6c81336117d3565b610a4f8261184a565b6060610a1c8261186e565b60607f9f2df0fed2c77648de5860a4cc508cd0818c85b8b8a1ab4ceeef8d981c8956a6610aad81336117d3565b610ac8858585604051806020016040528060008152506118c4565b95945050505050565b6000610ade8484846119c6565b6000610ae985611a2a565b90506000610af984836001610a80565b9050610b03611a35565b80600081518110610b1657610b16613ff0565b6020026020010151925050505b9392505050565b600080610b3683611a2a565b90506000610b4382611aa3565b905080610b5c83600090815260cb602052604090205490565b10949350505050565b6001600160a01b038516331480610b815750610b818533611470565b610be85760405162461bcd60e51b815260206004820152603260248201527f455243313135353a207472616e736665722063616c6c6572206973206e6f74206044820152711bdddb995c881b9bdc88185c1c1c9bdd995960721b60648201526084016109ee565b610bf58585858585611b5d565b5050505050565b600082815260cf6020526040902060010154610c1881336117d3565b610c228383611d0a565b505050565b6001600160a01b0381163314610c975760405162461bcd60e51b815260206004820152602f60248201527f416363657373436f6e74726f6c3a2063616e206f6e6c792072656e6f756e636560448201526e103937b632b9903337b91039b2b63360891b60648201526084016109ee565b610a4f8282611d90565b306001600160a01b037f0000000000000000000000000000000000000000000000000000000000000000161415610cea5760405162461bcd60e51b81526004016109ee90614006565b7f00000000000000000000000000000000000000000000000000000000000000006001600160a01b0316610d1c611df7565b6001600160a01b031614610d425760405162461bcd60e51b81526004016109ee90614052565b610d4b81611e25565b60408051600080825260208201909252610d6791839190611e50565b50565b6000610a1c82600061132d565b60608151835114610ddc5760405162461bcd60e51b815260206004820152602960248201527f455243313135353a206163636f756e747320616e6420696473206c656e677468604482015268040dad2e6dac2e8c6d60bb1b60648201526084016109ee565b600083516001600160401b03811115610df757610df76138f5565b604051908082528060200260200182016040528015610e20578160200160208202803683370190505b50905060005b8451811015610e9857610e6b858281518110610e4457610e44613ff0565b6020026020010151858381518110610e5e57610e5e613ff0565b6020026020010151610986565b828281518110610e7d57610e7d613ff0565b6020908102919091010152610e91816140b4565b9050610e26565b509392505050565b306001600160a01b037f0000000000000000000000000000000000000000000000000000000000000000161415610ee95760405162461bcd60e51b81526004016109ee90614006565b7f00000000000000000000000000000000000000000000000000000000000000006001600160a01b0316610f1b611df7565b6001600160a01b031614610f415760405162461bcd60e51b81526004016109ee90614052565b610f4a82611e25565b610a4f82826001611e50565b6000610a1c82600061147c565b6001600160a01b038316331480610f7f5750610f7f8333611470565b610f9b5760405162461bcd60e51b81526004016109ee906140cf565b610c22838383611f94565b6000805160206148c4833981519152610fbf81336117d3565b610a4f82612125565b6000805160206148c4833981519152610fe181336117d3565b82610fec8184612149565b50505050565b60608061010361010481805480602002602001604051908101604052809291908181526020016000905b828210156110c857838290600052602060002001805461103b90614118565b80601f016020809104026020016040519081016040528092919081815260200182805461106790614118565b80156110b45780601f10611089576101008083540402835291602001916110b4565b820191906000526020600020905b81548152906001019060200180831161109757829003601f168201915b50505050508152602001906001019061101c565b5050505091508080548060200260200160405190810160405280929190818152602001828054801561111957602002820191906000526020600020905b815481526020019060010190808311611105575b50505050509050915091509091565b600081815260ce6020526040902080546060919061114590614118565b80601f016020809104026020016040519081016040528092919081815260200182805461117190614118565b80156111be5780601f10611193576101008083540402835291602001916111be565b820191906000526020600020905b8154815290600101906020018083116111a157829003601f168201915b50505050509050919050565b600091825260cf602090815260408084206001600160a01b0393909316845291905290205460ff1690565b610a4f3383836121b4565b6000805160206148c483398151915261121981336117d3565b610a4f82612295565b600081815260ca60205260408120548061123f5750600092915050565b600090815260cb602052604090205492915050565b6000805160206148c483398151915261126d81336117d3565b610c22838361240c565b600081815260ca602052604081205460609190600081815260ce602052604090208054919250906112a790614118565b80601f01602080910402602001604051908101604052809291908181526020018280546112d390614118565b80156113205780601f106112f557610100808354040283529160200191611320565b820191906000526020600020905b81548152906001019060200180831161130357829003601f168201915b5050505050915050919050565b6000828180805b835181101561142257603084828151811061135157611351613ff0565b016020015160f81c108015906113815750603984828151811061137657611376613ff0565b016020015160f81c11155b156113e85781156113a4578561139657611422565b856113a081614153565b9650505b6113af600a8461416a565b925060308482815181106113c5576113c5613ff0565b01602001516113d7919060f81c614189565b6113e190846141a0565b9250611410565b8381815181106113fa576113fa613ff0565b60209101015160f81c602e141561141057600191505b8061141a816140b4565b915050611334565b5084156114415761143485600a61429c565b61143e908361416a565b91505b50949350505050565b600082815260cf602052604090206001015461146681336117d3565b610c228383611d90565b6000610b238383612589565b6000828180805b83518110156114225760308482815181106114a0576114a0613ff0565b016020015160f81c108015906114d0575060398482815181106114c5576114c5613ff0565b016020015160f81c11155b156115375781156114f357856114e557611422565b856114ef81614153565b9650505b6114fe600a8461416a565b9250603084828151811061151457611514613ff0565b0160200151611526919060f81c614189565b61153090846141a0565b9250611623565b83818151811061154957611549613ff0565b60209101015160f81c602e14156115c65781156115bd5760405162461bcd60e51b815260206004820152602c60248201527f4d6f7265207468616e206f6e6520646563696d616c20656e636f756e7465726560448201526b6420696e20737472696e672160a01b60648201526084016109ee565b60019150611623565b60405162461bcd60e51b815260206004820152602c60248201527f4e6f6e2d6e756d6572616c2063686172616374657220656e636f756e7465726560448201526b6420696e20737472696e672160a01b60648201526084016109ee565b8061162d816140b4565b915050611483565b6001600160a01b03851633148061165157506116518533611470565b61166d5760405162461bcd60e51b81526004016109ee906140cf565b610bf58585858585612604565b60606116866000610a75565b826040516020016116989291906142a8565b6040516020818303038152906040529050919050565b6001600160a01b0383163314806116ca57506116ca8333611470565b6116e65760405162461bcd60e51b81526004016109ee906140cf565b610c22838383612734565b600054610100900460ff168061170a575060005460ff16155b6117265760405162461bcd60e51b81526004016109ee906142f1565b600054610100900460ff16158015611748576000805461ffff19166101011790555b611750612839565b611759826128b4565b611761612988565b8015610a4f576000805461ff00191690555050565b6000805160206148c483398151915261178f81336117d3565b60cc80546001600160a01b0319166001600160a01b0384161790555050565b60006001600160e01b03198216637965db0b60e01b1480610a1c5750610a1c82612a07565b6117dd82826111ca565b610a4f576117f5816001600160a01b03166014612a57565b611800836020612a57565b60405160200161181192919061433f565b60408051601f198184030181529082905262461bcd60e51b82526109ee91600401613a74565b8051610a4f906067906020840190613737565b61010180546001600160a01b0319166001600160a01b038316179055610d67611a35565b600081815260ca602052604090205460609061188983612bf2565b61189282612c01565b61189b85612c01565b6040516020016118ad939291906143b4565b604051602081830303815290604052915050919050565b60606000836001600160401b038111156118e0576118e06138f5565b604051908082528060200260200182016040528015611909578160200160208202803683370190505b509050600084116119665760405162461bcd60e51b815260206004820152602160248201527f54686520616d6f756e74206d7573742062652067726561746572207468616e206044820152600360fc1b60648201526084016109ee565b60005b848110156119bc57600061197c87612d20565b905061198b8882600188612d54565b8083838151811061199e5761199e613ff0565b602090810291909101015250806119b4816140b4565b915050611969565b5095945050505050565b610101546001600160a01b0316336001600160a01b031614610c225760405162461bcd60e51b815260206004820152601f60248201527f416c6c6f77206f6e6c79204d656c616e642e6169206d616c6c2063616c6c730060448201526064016109ee565b6000610a1c82610d6a565b610101546001600160a01b031615611aa1576101015460405163fa21a11d60e01b81523060048201526001600160a01b039091169063fa21a11d90602401600060405180830381600087803b158015611a8d57600080fd5b505af1158015610fec573d6000803e3d6000fd5b565b600081815260ce602052604081208054829190611abf90614118565b80601f0160208091040260200160405190810160405280929190818152602001828054611aeb90614118565b8015611b385780601f10611b0d57610100808354040283529160200191611b38565b820191906000526020600020905b815481529060010190602001808311611b1b57829003601f168201915b50505050509050610b23818051602091820120600090815260cd909152604090205490565b8151835114611b7e5760405162461bcd60e51b81526004016109ee9061440e565b6001600160a01b038416611ba45760405162461bcd60e51b81526004016109ee90614456565b33611bb3818787878787612e57565b60005b8451811015611c9c576000858281518110611bd357611bd3613ff0565b602002602001015190506000858381518110611bf157611bf1613ff0565b60209081029190910181015160008481526065835260408082206001600160a01b038e168352909352919091205490915081811015611c425760405162461bcd60e51b81526004016109ee9061449b565b60008381526065602090815260408083206001600160a01b038e8116855292528083208585039055908b16825281208054849290611c819084906141a0565b9250508190555050505080611c95906140b4565b9050611bb6565b50846001600160a01b0316866001600160a01b0316826001600160a01b03167f4a39dc06d4c0dbc64b70af90fd698a233a518aa5d07e595d983b8c0526c8f7fb8787604051611cec9291906144e5565b60405180910390a4611d02818787878787612fc5565b505050505050565b611d1482826111ca565b610a4f57600082815260cf602090815260408083206001600160a01b03851684529091529020805460ff19166001179055611d4c3390565b6001600160a01b0316816001600160a01b0316837f2f8788117e7eff1d82e926ec794901d17c78024a50270940304540a733656f0d60405160405180910390a45050565b611d9a82826111ca565b15610a4f57600082815260cf602090815260408083206001600160a01b0385168085529252808320805460ff1916905551339285917ff6391f5c32d9c69d2a47ea670b442974b53935d1edc7fd64eb21e047a839171b9190a45050565b7f360894a13ba1a3210667c828492db98dca3e2076cc3735a920a3ca505d382bbc546001600160a01b031690565b7f189ab7a9244df0848122154315af71fe140f3db0fe014031783b0946b8c9d2e3610a4f81336117d3565b6000611e5a611df7565b9050611e6584613130565b600083511180611e725750815b15611e8357611e8184846131d5565b505b7f4910fdfa16fed3260ed0e7147f7cc6da11a60208b5b9406d12a635614ffd9143805460ff16610bf557805460ff191660011781556040516001600160a01b0383166024820152611f0290869060440160408051601f198184030181529190526020810180516001600160e01b0316631b2ce7f360e11b1790526131d5565b50805460ff19168155611f13611df7565b6001600160a01b0316826001600160a01b031614611f8b5760405162461bcd60e51b815260206004820152602f60248201527f45524331393637557067726164653a207570677261646520627265616b73206660448201526e75727468657220757067726164657360881b60648201526084016109ee565b610bf5856132b7565b6001600160a01b038316611fba5760405162461bcd60e51b81526004016109ee9061450a565b8051825114611fdb5760405162461bcd60e51b81526004016109ee9061440e565b6000339050611ffe81856000868660405180602001604052806000815250612e57565b60005b83518110156120c657600084828151811061201e5761201e613ff0565b60200260200101519050600084838151811061203c5761203c613ff0565b60209081029190910181015160008481526065835260408082206001600160a01b038c16835290935291909120549091508181101561208d5760405162461bcd60e51b81526004016109ee9061454d565b60009283526065602090815260408085206001600160a01b038b16865290915290922091039055806120be816140b4565b915050612001565b5060006001600160a01b0316846001600160a01b0316826001600160a01b03167f4a39dc06d4c0dbc64b70af90fd698a233a518aa5d07e595d983b8c0526c8f7fb86866040516121179291906144e5565b60405180910390a450505050565b61010280546001600160a01b0319166001600160a01b038316179055610d67611a35565b8060cd60008480519060200120815260200190815260200160002081905550816040516121769190614591565b604051908190038120828252907fc0cc007bc58275ca70d6cec6795b70feb61df220b5c085a20bb71648ed57072c9060200160405180910390a25050565b816001600160a01b0316836001600160a01b031614156122285760405162461bcd60e51b815260206004820152602960248201527f455243313135353a2073657474696e6720617070726f76616c20737461747573604482015268103337b91039b2b63360b91b60648201526084016109ee565b6001600160a01b03838116600081815260666020908152604080832094871680845294825291829020805460ff191686151590811790915591519182527f17307eab39ab6107e8899845ad3d59bd9653f200f220920489ca2b5937696c31910160405180910390a3505050565b6000805b610103548110156122fb57828051906020012061010382815481106122c0576122c0613ff0565b906000526020600020016040516122d791906145ad565b604051809103902014156122e9578091505b806122f3816140b4565b915050612299565b50610103805461230d90600190614189565b8154811061231d5761231d613ff0565b90600052602060002001610103828154811061233b5761233b613ff0565b9060005260206000200190805461235190614118565b61235c9291906137bb565b5061010380548061236f5761236f614649565b60019003818190600052602060002001600061238b9190613836565b905561010354610104906123a190600190614189565b815481106123b1576123b1613ff0565b906000526020600020015461010482815481106123d0576123d0613ff0565b6000918252602090912001556101048054806123ee576123ee614649565b60019003818190600052602060002001600090559055610a4f611a35565b6000805b6101035481101561247257610103818154811061242f5761242f613ff0565b9060005260206000200160405161244691906145ad565b604051809103902084805190602001201415612460578091505b8061246a816140b4565b915050612410565b50801561249f5781610104828154811061248e5761248e613ff0565b600091825260209091200155612581565b61010354158015906124ea575082805190602001206101036000815481106124c9576124c9613ff0565b906000526020600020016040516124e091906145ad565b6040518091039020145b15612505578161010460008154811061248e5761248e613ff0565b61010380546001810182556000919091528351612549917f02c297ab74aad0aede3a1895c857b1f2c71e6a203feb727bec95ac752998cb7801906020860190613737565b5061010480546001810182556000919091527f4c0be60200faa20559308cb7b5a1bb3255c16cb1cab91f525b5ae7a03d02fabe018290555b610c22611a35565b60006001600160a01b03821673207fa8df3a17d96ca7ea4f2893fcdcb78a30410114156125b857506001610a1c565b60cc546001600160a01b03838116911614156125d657506001610a1c565b6001600160a01b0380841660009081526066602090815260408083209386168352929052205460ff16610b23565b6001600160a01b03841661262a5760405162461bcd60e51b81526004016109ee90614456565b3361264981878761263a886132f7565b612643886132f7565b87612e57565b60008481526065602090815260408083206001600160a01b038a1684529091529020548381101561268c5760405162461bcd60e51b81526004016109ee9061449b565b60008581526065602090815260408083206001600160a01b038b81168552925280832087850390559088168252812080548692906126cb9084906141a0565b909155505060408051868152602081018690526001600160a01b03808916928a821692918616917fc3d58168c5ae7397731d063d5bbf3d657854427343f4c083240f7aacaa2d0f62910160405180910390a461272b828888888888613342565b50505050505050565b6001600160a01b03831661275a5760405162461bcd60e51b81526004016109ee9061450a565b336127898185600061276b876132f7565b612774876132f7565b60405180602001604052806000815250612e57565b60008381526065602090815260408083206001600160a01b0388168452909152902054828110156127cc5760405162461bcd60e51b81526004016109ee9061454d565b60008481526065602090815260408083206001600160a01b03898116808652918452828520888703905582518981529384018890529092908616917fc3d58168c5ae7397731d063d5bbf3d657854427343f4c083240f7aacaa2d0f62910160405180910390a45050505050565b600054610100900460ff1680612852575060005460ff16155b61286e5760405162461bcd60e51b81526004016109ee906142f1565b600054610100900460ff16158015612890576000805461ffff19166101011790555b61289861340c565b6128a061340c565b8015610d67576000805461ff001916905550565b6128dd60405180604001604052806006815260200165756e6971756560d01b8152506001612149565b612906604051806040016040528060068152602001656d797468696360d01b815250600a612149565b61292d604051806040016040528060048152602001636570696360e01b8152506064612149565b612955604051806040016040528060048152602001637261726560e01b8152506103e8612149565b61297f6040518060400160405280600681526020016531b7b6b6b7b760d11b815250612710612149565b610d6781613476565b6129906134da565b61299b600033611d0a565b6129b36000805160206148c483398151915233611d0a565b6129dd7f9f2df0fed2c77648de5860a4cc508cd0818c85b8b8a1ab4ceeef8d981c8956a633611d0a565b611aa17f189ab7a9244df0848122154315af71fe140f3db0fe014031783b0946b8c9d2e333611d0a565b60006001600160e01b03198216636cdb3d1360e11b1480612a3857506001600160e01b031982166303a24d0760e21b145b80610a1c57506301ffc9a760e01b6001600160e01b0319831614610a1c565b60606000612a6683600261416a565b612a719060026141a0565b6001600160401b03811115612a8857612a886138f5565b6040519080825280601f01601f191660200182016040528015612ab2576020820181803683370190505b509050600360fc1b81600081518110612acd57612acd613ff0565b60200101906001600160f81b031916908160001a905350600f60fb1b81600181518110612afc57612afc613ff0565b60200101906001600160f81b031916908160001a9053506000612b2084600261416a565b612b2b9060016141a0565b90505b6001811115612ba3576f181899199a1a9b1b9c1cb0b131b232b360811b85600f1660108110612b5f57612b5f613ff0565b1a60f81b828281518110612b7557612b75613ff0565b60200101906001600160f81b031916908160001a90535060049490941c93612b9c81614153565b9050612b2e565b508315610b235760405162461bcd60e51b815260206004820181905260248201527f537472696e67733a20686578206c656e67746820696e73756666696369656e7460448201526064016109ee565b60606067805461114590614118565b606081612c255750506040805180820190915260018152600360fc1b602082015290565b8160005b8115612c4f5780612c39816140b4565b9150612c489050600a8361465f565b9150612c29565b6000816001600160401b03811115612c6957612c696138f5565b6040519080825280601f01601f191660200182016040528015612c93576020820181803683370190505b509050815b851561144157612ca9600182614189565b90506000612cb8600a8861465f565b612cc390600a61416a565b612ccd9088614189565b612cd8906030614681565b905060008160f81b905080848481518110612cf557612cf5613ff0565b60200101906001600160f81b031916908160001a905350612d17600a8961465f565b97505050612c98565b6000612d3060c980546001019055565b6000612d3b60c95490565b600081815260ca60205260409020939093555090919050565b6001600160a01b038416612db45760405162461bcd60e51b815260206004820152602160248201527f455243313135353a206d696e7420746f20746865207a65726f206164647265736044820152607360f81b60648201526084016109ee565b33612dc58160008761263a886132f7565b60008481526065602090815260408083206001600160a01b038916845290915281208054859290612df79084906141a0565b909155505060408051858152602081018590526001600160a01b0380881692600092918516917fc3d58168c5ae7397731d063d5bbf3d657854427343f4c083240f7aacaa2d0f62910160405180910390a4610bf581600087878787613342565b6001600160a01b038516612fb75760005b8351811015612fb5576000848281518110612e8557612e85613ff0565b602002602001015190506000612ea782600090815260ca602052604090205490565b600081815260ce6020526040812080549293509091612ec590614118565b80601f0160208091040260200160405190810160405280929190818152602001828054612ef190614118565b8015612f3e5780601f10612f1357610100808354040283529160200191612f3e565b820191906000526020600020905b815481529060010190602001808311612f2157829003601f168201915b505050505090506000612f5083611aa3565b905080612f5c85611222565b108282604051602001612f709291906146a6565b60405160208183030381529060405290612f9d5760405162461bcd60e51b81526004016109ee9190613a74565b50505050508080612fad906140b4565b915050612e68565b505b611d02868686868686613539565b6001600160a01b0384163b15611d025760405163bc197c8160e01b81526001600160a01b0385169063bc197c819061300990899089908890889088906004016146ef565b602060405180830381600087803b15801561302357600080fd5b505af1925050508015613053575060408051601f3d908101601f191682019092526130509181019061474d565b60015b6131005761305f61476a565b806308c379a014156130995750613074614786565b8061307f575061309b565b8060405162461bcd60e51b81526004016109ee9190613a74565b505b60405162461bcd60e51b815260206004820152603460248201527f455243313135353a207472616e7366657220746f206e6f6e20455243313135356044820152732932b1b2b4bb32b91034b6b83632b6b2b73a32b960611b60648201526084016109ee565b6001600160e01b0319811663bc197c8160e01b1461272b5760405162461bcd60e51b81526004016109ee9061480f565b803b6131945760405162461bcd60e51b815260206004820152602d60248201527f455243313936373a206e657720696d706c656d656e746174696f6e206973206e60448201526c1bdd08184818dbdb9d1c9858dd609a1b60648201526084016109ee565b7f360894a13ba1a3210667c828492db98dca3e2076cc3735a920a3ca505d382bbc80546001600160a01b0319166001600160a01b0392909216919091179055565b6060823b6132345760405162461bcd60e51b815260206004820152602660248201527f416464726573733a2064656c65676174652063616c6c20746f206e6f6e2d636f6044820152651b9d1c9858dd60d21b60648201526084016109ee565b600080846001600160a01b03168460405161324f9190614591565b600060405180830381855af49150503d806000811461328a576040519150601f19603f3d011682016040523d82523d6000602084013e61328f565b606091505b5091509150610ac8828260405180606001604052806027815260200161489d60279139613633565b6132c081613130565b6040516001600160a01b038216907fbc7cd75a20ee27fd9adebab32041f755214dbc6bffa90cc0225b39da2e5c2d3b90600090a250565b6040805160018082528183019092526060916000919060208083019080368337019050509050828160008151811061333157613331613ff0565b602090810291909101015292915050565b6001600160a01b0384163b15611d025760405163f23a6e6160e01b81526001600160a01b0385169063f23a6e61906133869089908990889088908890600401614857565b602060405180830381600087803b1580156133a057600080fd5b505af19250505080156133d0575060408051601f3d908101601f191682019092526133cd9181019061474d565b60015b6133dc5761305f61476a565b6001600160e01b0319811663f23a6e6160e01b1461272b5760405162461bcd60e51b81526004016109ee9061480f565b600054610100900460ff1680613425575060005460ff16155b6134415760405162461bcd60e51b81526004016109ee906142f1565b600054610100900460ff161580156128a0576000805461ffff19166101011790558015610d67576000805461ff001916905550565b600054610100900460ff168061348f575060005460ff16155b6134ab5760405162461bcd60e51b81526004016109ee906142f1565b600054610100900460ff161580156134cd576000805461ffff19166101011790555b6134d68261366c565b6117615b600054610100900460ff16806134f3575060005460ff16155b61350f5760405162461bcd60e51b81526004016109ee906142f1565b600054610100900460ff16158015613531576000805461ffff19166101011790555b61289061340c565b6001600160a01b0385166135c45760005b83518110156135c257600061358485838151811061356a5761356a613ff0565b6020026020010151600090815260ca602052604090205490565b9050600160cb600083815260200190815260200160002060008282546135aa91906141a0565b909155506135bb91508290506140b4565b905061354a565b505b6001600160a01b038416611d025760005b835181101561272b5760006135f585838151811061356a5761356a613ff0565b9050600160cb6000838152602001908152602001600020600082825461361b9190614189565b9091555061362c91508290506140b4565b90506135d5565b60608315613642575081610b23565b8251156136525782518084602001fd5b8160405162461bcd60e51b81526004016109ee9190613a74565b600054610100900460ff1680613685575060005460ff16155b6136a15760405162461bcd60e51b81526004016109ee906142f1565b600054610100900460ff161580156136c3576000805461ffff19166101011790555b6136cb61340c565b6136d361340c565b61176182600054610100900460ff16806136f0575060005460ff16155b61370c5760405162461bcd60e51b81526004016109ee906142f1565b600054610100900460ff1615801561372e576000805461ffff19166101011790555b61176182611837565b82805461374390614118565b90600052602060002090601f01602090048101928261376557600085556137ab565b82601f1061377e57805160ff19168380011785556137ab565b828001600101855582156137ab579182015b828111156137ab578251825591602001919060010190613790565b506137b792915061386c565b5090565b8280546137c790614118565b90600052602060002090601f0160209004810192826137e957600085556137ab565b82601f106137fa57805485556137ab565b828001600101855582156137ab57600052602060002091601f016020900482015b828111156137ab57825482559160010191906001019061381b565b50805461384290614118565b6000825580601f10613852575050565b601f016020900490600052602060002090810190610d6791905b5b808211156137b7576000815560010161386d565b6001600160a01b0381168114610d6757600080fd5b600080604083850312156138a957600080fd5b82356138b481613881565b946020939093013593505050565b6001600160e01b031981168114610d6757600080fd5b6000602082840312156138ea57600080fd5b8135610b23816138c2565b634e487b7160e01b600052604160045260246000fd5b601f8201601f191681016001600160401b0381118282101715613930576139306138f5565b6040525050565b600082601f83011261394857600080fd5b81356001600160401b03811115613961576139616138f5565b604051613978601f8301601f19166020018261390b565b81815284602083860101111561398d57600080fd5b816020850160208301376000918101602001919091529392505050565b6000602082840312156139bc57600080fd5b81356001600160401b038111156139d257600080fd5b6139de84828501613937565b949350505050565b6000602082840312156139f857600080fd5b8135610b2381613881565b600060208284031215613a1557600080fd5b5035919050565b60005b83811015613a37578181015183820152602001613a1f565b83811115610fec5750506000910152565b60008151808452613a60816020860160208601613a1c565b601f01601f19169290920160200192915050565b602081526000610b236020830184613a48565b600080600060608486031215613a9c57600080fd5b8335613aa781613881565b95602085013595506040909401359392505050565b600081518084526020808501945080840160005b83811015613aec57815187529582019590820190600101613ad0565b509495945050505050565b602081526000610b236020830184613abc565b600080600060608486031215613b1f57600080fd5b83356001600160401b03811115613b3557600080fd5b613b4186828701613937565b935050602084013591506040840135613b5981613881565b809150509250925092565b60006001600160401b03821115613b7d57613b7d6138f5565b5060051b60200190565b600082601f830112613b9857600080fd5b81356020613ba582613b64565b604051613bb2828261390b565b83815260059390931b8501820192828101915086841115613bd257600080fd5b8286015b84811015613bed5780358352918301918301613bd6565b509695505050505050565b600080600080600060a08688031215613c1057600080fd5b8535613c1b81613881565b94506020860135613c2b81613881565b935060408601356001600160401b0380821115613c4757600080fd5b613c5389838a01613b87565b94506060880135915080821115613c6957600080fd5b613c7589838a01613b87565b93506080880135915080821115613c8b57600080fd5b50613c9888828901613937565b9150509295509295909350565b60008060408385031215613cb857600080fd5b823591506020830135613cca81613881565b809150509250929050565b60008060408385031215613ce857600080fd5b82356001600160401b0380821115613cff57600080fd5b818501915085601f830112613d1357600080fd5b81356020613d2082613b64565b604051613d2d828261390b565b83815260059390931b8501820192828101915089841115613d4d57600080fd5b948201945b83861015613d74578535613d6581613881565b82529482019490820190613d52565b96505086013592505080821115613d8a57600080fd5b50613d9785828601613b87565b9150509250929050565b60008060408385031215613db457600080fd5b8235613dbf81613881565b915060208301356001600160401b03811115613dda57600080fd5b613d9785828601613937565b600080600060608486031215613dfb57600080fd5b8335613e0681613881565b925060208401356001600160401b0380821115613e2257600080fd5b613e2e87838801613b87565b93506040860135915080821115613e4457600080fd5b50613e5186828701613b87565b9150509250925092565b60008060408385031215613e6e57600080fd5b82356001600160401b03811115613e8457600080fd5b613e9085828601613937565b95602094909401359450505050565b6000604082016040835280855180835260608501915060608160051b8601019250602080880160005b83811015613ef657605f19888703018552613ee4868351613a48565b95509382019390820190600101613ec8565b505085840381870152505050610ac88185613abc565b82151581526040602082015260006139de6040830184613abc565b60008060408385031215613f3a57600080fd5b8235613f4581613881565b915060208301358015158114613cca57600080fd5b60008060408385031215613f6d57600080fd5b8235613f7881613881565b91506020830135613cca81613881565b600080600080600060a08688031215613fa057600080fd5b8535613fab81613881565b94506020860135613fbb81613881565b9350604086013592506060860135915060808601356001600160401b03811115613fe457600080fd5b613c9888828901613937565b634e487b7160e01b600052603260045260246000fd5b6020808252602c908201527f46756e6374696f6e206d7573742062652063616c6c6564207468726f7567682060408201526b19195b1959d85d1958d85b1b60a21b606082015260800190565b6020808252602c908201527f46756e6374696f6e206d7573742062652063616c6c6564207468726f7567682060408201526b6163746976652070726f787960a01b606082015260800190565b634e487b7160e01b600052601160045260246000fd5b60006000198214156140c8576140c861409e565b5060010190565b60208082526029908201527f455243313135353a2063616c6c6572206973206e6f74206f776e6572206e6f7260408201526808185c1c1c9bdd995960ba1b606082015260800190565b600181811c9082168061412c57607f821691505b6020821081141561414d57634e487b7160e01b600052602260045260246000fd5b50919050565b6000816141625761416261409e565b506000190190565b60008160001904831182151516156141845761418461409e565b500290565b60008282101561419b5761419b61409e565b500390565b600082198211156141b3576141b361409e565b500190565b600181815b808511156141f35781600019048211156141d9576141d961409e565b808516156141e657918102915b93841c93908002906141bd565b509250929050565b60008261420a57506001610a1c565b8161421757506000610a1c565b816001811461422d576002811461423757614253565b6001915050610a1c565b60ff8411156142485761424861409e565b50506001821b610a1c565b5060208310610133831016604e8410600b8410161715614276575081810a610a1c565b61428083836141b8565b80600019048211156142945761429461409e565b029392505050565b6000610b2383836141fb565b600083516142ba818460208801613a1c565b630bd8da5960e21b908301908152602f60f81b600482015283516142e5816005840160208801613a1c565b01600501949350505050565b6020808252602e908201527f496e697469616c697a61626c653a20636f6e747261637420697320616c72656160408201526d191e481a5b9a5d1a585b1a5e995960921b606082015260800190565b7f416363657373436f6e74726f6c3a206163636f756e7420000000000000000000815260008351614377816017850160208801613a1c565b7001034b99036b4b9b9b4b733903937b6329607d1b60179184019182015283516143a8816028840160208801613a1c565b01602801949350505050565b600084516143c6818460208901613a1c565b8083019050602f60f81b80825285516143e6816001850160208a01613a1c565b60019201918201528351614401816002840160208801613a1c565b0160020195945050505050565b60208082526028908201527f455243313135353a2069647320616e6420616d6f756e7473206c656e677468206040820152670dad2e6dac2e8c6d60c31b606082015260800190565b60208082526025908201527f455243313135353a207472616e7366657220746f20746865207a65726f206164604082015264647265737360d81b606082015260800190565b6020808252602a908201527f455243313135353a20696e73756666696369656e742062616c616e636520666f60408201526939103a3930b739b332b960b11b606082015260800190565b6040815260006144f86040830185613abc565b8281036020840152610ac88185613abc565b60208082526023908201527f455243313135353a206275726e2066726f6d20746865207a65726f206164647260408201526265737360e81b606082015260800190565b60208082526024908201527f455243313135353a206275726e20616d6f756e7420657863656564732062616c604082015263616e636560e01b606082015260800190565b600082516145a3818460208701613a1c565b9190910192915050565b600080835481600182811c9150808316806145c957607f831692505b60208084108214156145e957634e487b7160e01b86526022600452602486fd5b8180156145fd576001811461460e5761463b565b60ff1986168952848901965061463b565b60008a81526020902060005b868110156146335781548b82015290850190830161461a565b505084890196505b509498975050505050505050565b634e487b7160e01b600052603160045260246000fd5b60008261467c57634e487b7160e01b600052601260045260246000fd5b500490565b600060ff821660ff84168060ff0382111561469e5761469e61409e565b019392505050565b600083516146b8818460208801613a1c565b7f726172697479206f6e6c7920746f74616c537570706c790000000000000000009201918252506017810191909152603701919050565b6001600160a01b0386811682528516602082015260a06040820181905260009061471b90830186613abc565b828103606084015261472d8186613abc565b905082810360808401526147418185613a48565b98975050505050505050565b60006020828403121561475f57600080fd5b8151610b23816138c2565b600060033d11156147835760046000803e5060005160e01c5b90565b600060443d10156147945790565b6040516003193d81016004833e81513d6001600160401b0381602484011181841117156147c357505050505090565b82850191508151818111156147db5750505050505090565b843d87010160208285010111156147f55750505050505090565b6148046020828601018761390b565b509095945050505050565b60208082526028908201527f455243313135353a204552433131353552656365697665722072656a656374656040820152676420746f6b656e7360c01b606082015260800190565b6001600160a01b03868116825285166020820152604081018490526060810183905260a06080820181905260009061489190830184613a48565b97965050505050505056fe416464726573733a206c6f772d6c6576656c2064656c65676174652063616c6c206661696c6564f5eb84615c2a00ecaf817d13794ebd6299c9e01c395bf4018453f13f577f5449a264697066735822122031967dd52ddf8829d1f566a6e70cd3efee360f769acd1826df28d943915b4c4b64736f6c63430008090033",
  "immutableReferences": {
    "1023": [
      {
        "length": 32,
        "start": 3244
      },
      {
        "length": 32,
        "start": 3308
      },
      {
        "length": 32,
        "start": 3755
      },
      {
        "length": 32,
        "start": 3819
      }
    ]
  },
  "source": "// SPDX-License-Identifier: MIT\npragma solidity 0.8.9;\n\nimport \"@openzeppelin/contracts-upgradeable/token/ERC1155/ERC1155Upgradeable.sol\";\nimport \"@openzeppelin/contracts-upgradeable/access/AccessControlUpgradeable.sol\";\nimport \"@openzeppelin/contracts-upgradeable/token/ERC1155/extensions/ERC1155BurnableUpgradeable.sol\";\nimport \"@openzeppelin/contracts-upgradeable/proxy/utils/Initializable.sol\";\nimport \"@openzeppelin/contracts-upgradeable/proxy/utils/UUPSUpgradeable.sol\";\nimport \"./Meland1155Rarity.sol\";\nimport \"./MelandAccessRoles.sol\";\nimport \"./MelandTier.sol\";\nimport \"./Meland1155StoreItem.sol\";\n\ncontract Meland1155Placeable is\n    Initializable,\n    Meland1155Rarity,\n    MelandAccessRoles,\n    Meland1155StoreItem,\n    UUPSUpgradeable\n{\n    function initialize(string memory uri) public initializer {\n        __UUPSUpgradeable_init();\n        __Meland1155Rarity_init(uri);\n        __MelandAccessRoles_init();\n    }\n\n    function setURI(string memory newuri) public onlyRole(GM_ROLE) {\n        _setURI(newuri);\n    }\n\n    function setMelandTier(MelandTier _tierAddress) public onlyRole(GM_ROLE) {\n        _setMelandTier(_tierAddress);\n    }\n\n    function melandStoreItemURI(string memory symbol)\n        external\n        view\n        returns (string memory)\n    {\n        return string(abi.encodePacked(super.uri(0), \"/cid\", \"/\", symbol));\n    }\n\n    function mint(\n        address account,\n        uint256 cid,\n        uint256 amount\n    ) public onlyRole(MINTER_ROLE) returns(uint256[] memory) {\n        return _mintReturnTokenIds(account, cid, amount, '');\n    }\n\n    function setRarity(string memory _rarity, uint256 mintMax) onlyRole(GM_ROLE) public {\n        bytes memory rarity = bytes(_rarity);\n        _setRarity(rarity, mintMax);\n    }\n\n    function _authorizeUpgrade(address newImplementation)\n        internal\n        override\n        onlyRole(UPGRADER_ROLE)\n    {}\n\n    // The following functions are overrides required by Solidity.\n\n    function supportsInterface(bytes4 interfaceId)\n        public\n        view\n        override(ERC1155Upgradeable, AccessControlUpgradeable)\n        returns (bool)\n    {\n        return super.supportsInterface(interfaceId);\n    }\n\n\n    // store item impl ----\n     function setAcceptedToken(IERC20Upgradeable token)\n        external\n        onlyRole(GM_ROLE)\n    {\n        _setAcceptedToken(token);\n    }\n\n    function setStore(NFTStore s) external onlyRole(GM_ROLE) {\n        _setStore(s);\n    }\n\n    function setStoreItem(string memory symbol, uint256 price)\n        external\n        onlyRole(GM_ROLE)\n    {\n        _setStoreItem(symbol, price);\n    }\n\n    function delStoreItem(string memory symbol) external onlyRole(GM_ROLE) {\n        _delStoreItem(symbol);\n    }\n\n    // If return ture, means that the mall will only have the specified id\n    // Else otherwise it will be linear mint\n    // The ids Must ensure that you can mint,\n    // If multi-channel sales or mint, you need to filter out the ids that have been minted,\n    // To prevent errors in the sales process\n    function melandStoreItemsRestrictPurchaseNFTIds(string memory)\n        external\n        pure\n        returns (bool, uint256[] memory)\n    {\n        uint256[] memory ids;\n        return (false, ids);\n    }\n\n    // Store to pay NFT to the selling user by calling this function,\n    // For security reasons, be sure to control the permissions to allow only MelandStore contracts to call\n    // If melandStoreItemsRestrictPurchaseNFTIds return false, the id as zero.\n    function melandStoreItemsMint(\n        string memory symbol,\n        uint256 id,\n        address to\n    ) external override returns(uint256) {\n        super.checkMelandStoreItemsMint(symbol, id, to);\n        uint256 cid = _bytestoUint256(symbol);\n        uint256[] memory ids = mint(to, cid, 1);\n        _dispatchItemInfoUpdate();\n        return ids[0];\n    }\n\n    // If return false, Stores will suspend sales.\n    function melandStoreSellStatus(string memory symbol)\n        external\n        view\n        returns (bool isSelling)\n    {\n        uint256 cid = _bytestoUint256(symbol);\n        uint256 mintMax = _getMintMaxByCId(cid);\n        isSelling = totalSupplyByCId(cid) < mintMax;\n    }\n\n    // If return true, it means that each person can only buy a certain amount\n    function melandStoreItemsRestrictedPurchase(string memory)\n        external\n        pure\n        returns (bool restricted, uint256 restrictLimit)\n    {\n        restricted = false;\n        restrictLimit = 0;\n    }\n}",
  "sourcePath": "/Users/alberthuang/code/icw/meland/contracts/Meland1155Placeable.sol",
  "compiler": {
    "name": "solc",
    "version": "0.8.9+commit.e5eed63a.Emscripten.clang"
  },
  "schemaVersion": "3.4.3",
  "updatedAt": "2021-12-26T23:24:40.675Z",
  "devdoc": {
    "kind": "dev",
    "methods": {
      "balanceOf(address,uint256)": {
        "details": "See {IERC1155-balanceOf}. Requirements: - `account` cannot be the zero address."
      },
      "balanceOfBatch(address[],uint256[])": {
        "details": "See {IERC1155-balanceOfBatch}. Requirements: - `accounts` and `ids` must have the same length."
      },
      "getRoleAdmin(bytes32)": {
        "details": "Returns the admin role that controls `role`. See {grantRole} and {revokeRole}. To change a role's admin, use {_setRoleAdmin}."
      },
      "grantRole(bytes32,address)": {
        "details": "Grants `role` to `account`. If `account` had not been already granted `role`, emits a {RoleGranted} event. Requirements: - the caller must have ``role``'s admin role."
      },
      "hasRole(bytes32,address)": {
        "details": "Returns `true` if `account` has been granted `role`."
      },
      "renounceRole(bytes32,address)": {
        "details": "Revokes `role` from the calling account. Roles are often managed via {grantRole} and {revokeRole}: this function's purpose is to provide a mechanism for accounts to lose their privileges if they are compromised (such as when a trusted device is misplaced). If the calling account had been revoked `role`, emits a {RoleRevoked} event. Requirements: - the caller must be `account`."
      },
      "revokeRole(bytes32,address)": {
        "details": "Revokes `role` from `account`. If `account` had been granted `role`, emits a {RoleRevoked} event. Requirements: - the caller must have ``role``'s admin role."
      },
      "safeBatchTransferFrom(address,address,uint256[],uint256[],bytes)": {
        "details": "See {IERC1155-safeBatchTransferFrom}."
      },
      "safeTransferFrom(address,address,uint256,uint256,bytes)": {
        "details": "See {IERC1155-safeTransferFrom}."
      },
      "setApprovalForAll(address,bool)": {
        "details": "See {IERC1155-setApprovalForAll}."
      },
      "upgradeTo(address)": {
        "details": "Upgrade the implementation of the proxy to `newImplementation`. Calls {_authorizeUpgrade}. Emits an {Upgraded} event."
      },
      "upgradeToAndCall(address,bytes)": {
        "details": "Upgrade the implementation of the proxy to `newImplementation`, and subsequently execute the function call encoded in `data`. Calls {_authorizeUpgrade}. Emits an {Upgraded} event."
      }
    },
    "version": 1
  },
  "userdoc": {
    "kind": "user",
    "methods": {},
    "version": 1
  }
}