{
  "contractName": "Meland1155LandFuture",
  "abi": [
    {
      "anonymous": false,
      "inputs": [
        {
          "indexed": false,
          "internalType": "address",
          "name": "previousAdmin",
          "type": "address"
        },
        {
          "indexed": false,
          "internalType": "address",
          "name": "newAdmin",
          "type": "address"
        }
      ],
      "name": "AdminChanged",
      "type": "event"
    },
    {
      "anonymous": false,
      "inputs": [
        {
          "indexed": true,
          "internalType": "address",
          "name": "account",
          "type": "address"
        },
        {
          "indexed": true,
          "internalType": "address",
          "name": "operator",
          "type": "address"
        },
        {
          "indexed": false,
          "internalType": "bool",
          "name": "approved",
          "type": "bool"
        }
      ],
      "name": "ApprovalForAll",
      "type": "event"
    },
    {
      "anonymous": false,
      "inputs": [
        {
          "indexed": true,
          "internalType": "address",
          "name": "beacon",
          "type": "address"
        }
      ],
      "name": "BeaconUpgraded",
      "type": "event"
    },
    {
      "anonymous": false,
      "inputs": [
        {
          "indexed": false,
          "internalType": "bool",
          "name": "_freezeEnabled",
          "type": "bool"
        }
      ],
      "name": "FreezeEnabledUpdate",
      "type": "event"
    },
    {
      "anonymous": false,
      "inputs": [
        {
          "indexed": true,
          "internalType": "address",
          "name": "_address",
          "type": "address"
        },
        {
          "indexed": false,
          "internalType": "bool",
          "name": "_bool",
          "type": "bool"
        }
      ],
      "name": "FreezeWhiteListUpdate",
      "type": "event"
    },
    {
      "anonymous": false,
      "inputs": [
        {
          "indexed": true,
          "internalType": "bytes32",
          "name": "role",
          "type": "bytes32"
        },
        {
          "indexed": true,
          "internalType": "bytes32",
          "name": "previousAdminRole",
          "type": "bytes32"
        },
        {
          "indexed": true,
          "internalType": "bytes32",
          "name": "newAdminRole",
          "type": "bytes32"
        }
      ],
      "name": "RoleAdminChanged",
      "type": "event"
    },
    {
      "anonymous": false,
      "inputs": [
        {
          "indexed": true,
          "internalType": "bytes32",
          "name": "role",
          "type": "bytes32"
        },
        {
          "indexed": true,
          "internalType": "address",
          "name": "account",
          "type": "address"
        },
        {
          "indexed": true,
          "internalType": "address",
          "name": "sender",
          "type": "address"
        }
      ],
      "name": "RoleGranted",
      "type": "event"
    },
    {
      "anonymous": false,
      "inputs": [
        {
          "indexed": true,
          "internalType": "bytes32",
          "name": "role",
          "type": "bytes32"
        },
        {
          "indexed": true,
          "internalType": "address",
          "name": "account",
          "type": "address"
        },
        {
          "indexed": true,
          "internalType": "address",
          "name": "sender",
          "type": "address"
        }
      ],
      "name": "RoleRevoked",
      "type": "event"
    },
    {
      "anonymous": false,
      "inputs": [
        {
          "indexed": true,
          "internalType": "address",
          "name": "operator",
          "type": "address"
        },
        {
          "indexed": true,
          "internalType": "address",
          "name": "from",
          "type": "address"
        },
        {
          "indexed": true,
          "internalType": "address",
          "name": "to",
          "type": "address"
        },
        {
          "indexed": false,
          "internalType": "uint256[]",
          "name": "ids",
          "type": "uint256[]"
        },
        {
          "indexed": false,
          "internalType": "uint256[]",
          "name": "values",
          "type": "uint256[]"
        }
      ],
      "name": "TransferBatch",
      "type": "event"
    },
    {
      "anonymous": false,
      "inputs": [
        {
          "indexed": true,
          "internalType": "address",
          "name": "operator",
          "type": "address"
        },
        {
          "indexed": true,
          "internalType": "address",
          "name": "from",
          "type": "address"
        },
        {
          "indexed": true,
          "internalType": "address",
          "name": "to",
          "type": "address"
        },
        {
          "indexed": false,
          "internalType": "uint256",
          "name": "id",
          "type": "uint256"
        },
        {
          "indexed": false,
          "internalType": "uint256",
          "name": "value",
          "type": "uint256"
        }
      ],
      "name": "TransferSingle",
      "type": "event"
    },
    {
      "anonymous": false,
      "inputs": [
        {
          "indexed": false,
          "internalType": "string",
          "name": "value",
          "type": "string"
        },
        {
          "indexed": true,
          "internalType": "uint256",
          "name": "id",
          "type": "uint256"
        }
      ],
      "name": "URI",
      "type": "event"
    },
    {
      "anonymous": false,
      "inputs": [
        {
          "indexed": true,
          "internalType": "address",
          "name": "implementation",
          "type": "address"
        }
      ],
      "name": "Upgraded",
      "type": "event"
    },
    {
      "inputs": [],
      "name": "DEFAULT_ADMIN_ROLE",
      "outputs": [
        {
          "internalType": "bytes32",
          "name": "",
          "type": "bytes32"
        }
      ],
      "stateMutability": "view",
      "type": "function",
      "constant": true
    },
    {
      "inputs": [],
      "name": "GM_ROLE",
      "outputs": [
        {
          "internalType": "bytes32",
          "name": "",
          "type": "bytes32"
        }
      ],
      "stateMutability": "view",
      "type": "function",
      "constant": true
    },
    {
      "inputs": [],
      "name": "MINTER_ROLE",
      "outputs": [
        {
          "internalType": "bytes32",
          "name": "",
          "type": "bytes32"
        }
      ],
      "stateMutability": "view",
      "type": "function",
      "constant": true
    },
    {
      "inputs": [],
      "name": "UPGRADER_ROLE",
      "outputs": [
        {
          "internalType": "bytes32",
          "name": "",
          "type": "bytes32"
        }
      ],
      "stateMutability": "view",
      "type": "function",
      "constant": true
    },
    {
      "inputs": [
        {
          "internalType": "string",
          "name": "",
          "type": "string"
        }
      ],
      "name": "acceptedToken",
      "outputs": [
        {
          "internalType": "contract IERC20Upgradeable",
          "name": "",
          "type": "address"
        }
      ],
      "stateMutability": "view",
      "type": "function",
      "constant": true
    },
    {
      "inputs": [
        {
          "internalType": "address",
          "name": "account",
          "type": "address"
        },
        {
          "internalType": "uint256",
          "name": "id",
          "type": "uint256"
        }
      ],
      "name": "balanceOf",
      "outputs": [
        {
          "internalType": "uint256",
          "name": "",
          "type": "uint256"
        }
      ],
      "stateMutability": "view",
      "type": "function",
      "constant": true
    },
    {
      "inputs": [
        {
          "internalType": "address[]",
          "name": "accounts",
          "type": "address[]"
        },
        {
          "internalType": "uint256[]",
          "name": "ids",
          "type": "uint256[]"
        }
      ],
      "name": "balanceOfBatch",
      "outputs": [
        {
          "internalType": "uint256[]",
          "name": "",
          "type": "uint256[]"
        }
      ],
      "stateMutability": "view",
      "type": "function",
      "constant": true
    },
    {
      "inputs": [
        {
          "internalType": "address",
          "name": "account",
          "type": "address"
        },
        {
          "internalType": "uint256",
          "name": "id",
          "type": "uint256"
        },
        {
          "internalType": "uint256",
          "name": "value",
          "type": "uint256"
        }
      ],
      "name": "burn",
      "outputs": [],
      "stateMutability": "nonpayable",
      "type": "function"
    },
    {
      "inputs": [
        {
          "internalType": "address",
          "name": "account",
          "type": "address"
        },
        {
          "internalType": "uint256[]",
          "name": "ids",
          "type": "uint256[]"
        },
        {
          "internalType": "uint256[]",
          "name": "values",
          "type": "uint256[]"
        }
      ],
      "name": "burnBatch",
      "outputs": [],
      "stateMutability": "nonpayable",
      "type": "function"
    },
    {
      "inputs": [
        {
          "internalType": "address",
          "name": "",
          "type": "address"
        }
      ],
      "name": "canBuyListByAddress",
      "outputs": [
        {
          "internalType": "bool",
          "name": "",
          "type": "bool"
        }
      ],
      "stateMutability": "view",
      "type": "function",
      "constant": true
    },
    {
      "inputs": [
        {
          "internalType": "uint256",
          "name": "",
          "type": "uint256"
        }
      ],
      "name": "ereezeExpiredAtMapById",
      "outputs": [
        {
          "internalType": "uint256",
          "name": "",
          "type": "uint256"
        }
      ],
      "stateMutability": "view",
      "type": "function",
      "constant": true
    },
    {
      "inputs": [
        {
          "internalType": "bytes32",
          "name": "role",
          "type": "bytes32"
        }
      ],
      "name": "getRoleAdmin",
      "outputs": [
        {
          "internalType": "bytes32",
          "name": "",
          "type": "bytes32"
        }
      ],
      "stateMutability": "view",
      "type": "function",
      "constant": true
    },
    {
      "inputs": [
        {
          "internalType": "bytes32",
          "name": "role",
          "type": "bytes32"
        },
        {
          "internalType": "address",
          "name": "account",
          "type": "address"
        }
      ],
      "name": "grantRole",
      "outputs": [],
      "stateMutability": "nonpayable",
      "type": "function"
    },
    {
      "inputs": [
        {
          "internalType": "bytes32",
          "name": "role",
          "type": "bytes32"
        },
        {
          "internalType": "address",
          "name": "account",
          "type": "address"
        }
      ],
      "name": "hasRole",
      "outputs": [
        {
          "internalType": "bool",
          "name": "",
          "type": "bool"
        }
      ],
      "stateMutability": "view",
      "type": "function",
      "constant": true
    },
    {
      "inputs": [
        {
          "internalType": "uint256",
          "name": "",
          "type": "uint256"
        }
      ],
      "name": "landtypeById",
      "outputs": [
        {
          "internalType": "string",
          "name": "",
          "type": "string"
        }
      ],
      "stateMutability": "view",
      "type": "function",
      "constant": true
    },
    {
      "inputs": [],
      "name": "melandStoreItems",
      "outputs": [
        {
          "internalType": "string[]",
          "name": "",
          "type": "string[]"
        },
        {
          "internalType": "uint256[]",
          "name": "",
          "type": "uint256[]"
        }
      ],
      "stateMutability": "view",
      "type": "function",
      "constant": true
    },
    {
      "inputs": [
        {
          "internalType": "string",
          "name": "",
          "type": "string"
        }
      ],
      "name": "melandStoreReceipt",
      "outputs": [
        {
          "internalType": "address",
          "name": "receipt",
          "type": "address"
        }
      ],
      "stateMutability": "pure",
      "type": "function",
      "constant": true
    },
    {
      "inputs": [
        {
          "internalType": "string",
          "name": "_a",
          "type": "string"
        }
      ],
      "name": "parseInt",
      "outputs": [
        {
          "internalType": "uint256",
          "name": "_parsedInt",
          "type": "uint256"
        }
      ],
      "stateMutability": "pure",
      "type": "function",
      "constant": true
    },
    {
      "inputs": [
        {
          "internalType": "string",
          "name": "_a",
          "type": "string"
        },
        {
          "internalType": "uint256",
          "name": "_b",
          "type": "uint256"
        }
      ],
      "name": "parseInt",
      "outputs": [
        {
          "internalType": "uint256",
          "name": "_parsedInt",
          "type": "uint256"
        }
      ],
      "stateMutability": "pure",
      "type": "function",
      "constant": true
    },
    {
      "inputs": [
        {
          "internalType": "bytes32",
          "name": "role",
          "type": "bytes32"
        },
        {
          "internalType": "address",
          "name": "account",
          "type": "address"
        }
      ],
      "name": "renounceRole",
      "outputs": [],
      "stateMutability": "nonpayable",
      "type": "function"
    },
    {
      "inputs": [
        {
          "internalType": "bytes32",
          "name": "role",
          "type": "bytes32"
        },
        {
          "internalType": "address",
          "name": "account",
          "type": "address"
        }
      ],
      "name": "revokeRole",
      "outputs": [],
      "stateMutability": "nonpayable",
      "type": "function"
    },
    {
      "inputs": [
        {
          "internalType": "address",
          "name": "from",
          "type": "address"
        },
        {
          "internalType": "address",
          "name": "to",
          "type": "address"
        },
        {
          "internalType": "uint256[]",
          "name": "ids",
          "type": "uint256[]"
        },
        {
          "internalType": "uint256[]",
          "name": "amounts",
          "type": "uint256[]"
        },
        {
          "internalType": "bytes",
          "name": "data",
          "type": "bytes"
        }
      ],
      "name": "safeBatchTransferFrom",
      "outputs": [],
      "stateMutability": "nonpayable",
      "type": "function"
    },
    {
      "inputs": [
        {
          "internalType": "string",
          "name": "_a",
          "type": "string"
        }
      ],
      "name": "safeParseInt",
      "outputs": [
        {
          "internalType": "uint256",
          "name": "_parsedInt",
          "type": "uint256"
        }
      ],
      "stateMutability": "pure",
      "type": "function",
      "constant": true
    },
    {
      "inputs": [
        {
          "internalType": "string",
          "name": "_a",
          "type": "string"
        },
        {
          "internalType": "uint256",
          "name": "_b",
          "type": "uint256"
        }
      ],
      "name": "safeParseInt",
      "outputs": [
        {
          "internalType": "uint256",
          "name": "_parsedInt",
          "type": "uint256"
        }
      ],
      "stateMutability": "pure",
      "type": "function",
      "constant": true
    },
    {
      "inputs": [
        {
          "internalType": "address",
          "name": "from",
          "type": "address"
        },
        {
          "internalType": "address",
          "name": "to",
          "type": "address"
        },
        {
          "internalType": "uint256",
          "name": "id",
          "type": "uint256"
        },
        {
          "internalType": "uint256",
          "name": "amount",
          "type": "uint256"
        },
        {
          "internalType": "bytes",
          "name": "data",
          "type": "bytes"
        }
      ],
      "name": "safeTransferFrom",
      "outputs": [],
      "stateMutability": "nonpayable",
      "type": "function"
    },
    {
      "inputs": [
        {
          "internalType": "address",
          "name": "operator",
          "type": "address"
        },
        {
          "internalType": "bool",
          "name": "approved",
          "type": "bool"
        }
      ],
      "name": "setApprovalForAll",
      "outputs": [],
      "stateMutability": "nonpayable",
      "type": "function"
    },
    {
      "inputs": [
        {
          "internalType": "bytes",
          "name": "",
          "type": "bytes"
        }
      ],
      "name": "supportLandtypes",
      "outputs": [
        {
          "internalType": "bool",
          "name": "",
          "type": "bool"
        }
      ],
      "stateMutability": "view",
      "type": "function",
      "constant": true
    },
    {
      "inputs": [
        {
          "internalType": "bytes32",
          "name": "",
          "type": "bytes32"
        }
      ],
      "name": "totalSupplyByLandtype",
      "outputs": [
        {
          "internalType": "uint256",
          "name": "",
          "type": "uint256"
        }
      ],
      "stateMutability": "view",
      "type": "function",
      "constant": true
    },
    {
      "inputs": [
        {
          "internalType": "address",
          "name": "newImplementation",
          "type": "address"
        }
      ],
      "name": "upgradeTo",
      "outputs": [],
      "stateMutability": "nonpayable",
      "type": "function"
    },
    {
      "inputs": [
        {
          "internalType": "address",
          "name": "newImplementation",
          "type": "address"
        },
        {
          "internalType": "bytes",
          "name": "data",
          "type": "bytes"
        }
      ],
      "name": "upgradeToAndCall",
      "outputs": [],
      "stateMutability": "payable",
      "type": "function",
      "payable": true
    },
    {
      "inputs": [],
      "name": "vipland1x1",
      "outputs": [
        {
          "internalType": "bytes",
          "name": "",
          "type": "bytes"
        }
      ],
      "stateMutability": "view",
      "type": "function",
      "constant": true
    },
    {
      "inputs": [],
      "name": "vipland2x2",
      "outputs": [
        {
          "internalType": "bytes",
          "name": "",
          "type": "bytes"
        }
      ],
      "stateMutability": "view",
      "type": "function",
      "constant": true
    },
    {
      "inputs": [],
      "name": "vipland4x4",
      "outputs": [
        {
          "internalType": "bytes",
          "name": "",
          "type": "bytes"
        }
      ],
      "stateMutability": "view",
      "type": "function",
      "constant": true
    },
    {
      "inputs": [
        {
          "internalType": "string",
          "name": "_uri",
          "type": "string"
        }
      ],
      "name": "initialize",
      "outputs": [],
      "stateMutability": "nonpayable",
      "type": "function"
    },
    {
      "inputs": [
        {
          "internalType": "string",
          "name": "newuri",
          "type": "string"
        }
      ],
      "name": "setURI",
      "outputs": [],
      "stateMutability": "nonpayable",
      "type": "function"
    },
    {
      "inputs": [
        {
          "internalType": "uint256",
          "name": "id",
          "type": "uint256"
        }
      ],
      "name": "uri",
      "outputs": [
        {
          "internalType": "string",
          "name": "",
          "type": "string"
        }
      ],
      "stateMutability": "view",
      "type": "function",
      "constant": true
    },
    {
      "inputs": [
        {
          "internalType": "address",
          "name": "_address",
          "type": "address"
        },
        {
          "internalType": "bool",
          "name": "_b",
          "type": "bool"
        }
      ],
      "name": "setCanBuyListByAddress",
      "outputs": [],
      "stateMutability": "nonpayable",
      "type": "function"
    },
    {
      "inputs": [
        {
          "internalType": "string",
          "name": "symbol",
          "type": "string"
        }
      ],
      "name": "melandStoreItemURI",
      "outputs": [
        {
          "internalType": "string",
          "name": "",
          "type": "string"
        }
      ],
      "stateMutability": "view",
      "type": "function",
      "constant": true
    },
    {
      "inputs": [
        {
          "internalType": "address",
          "name": "_owner",
          "type": "address"
        },
        {
          "internalType": "address",
          "name": "_operator",
          "type": "address"
        }
      ],
      "name": "isApprovedForAll",
      "outputs": [
        {
          "internalType": "bool",
          "name": "isOperator",
          "type": "bool"
        }
      ],
      "stateMutability": "view",
      "type": "function",
      "constant": true
    },
    {
      "inputs": [
        {
          "internalType": "address",
          "name": "account",
          "type": "address"
        },
        {
          "internalType": "uint256",
          "name": "amount",
          "type": "uint256"
        },
        {
          "internalType": "bytes",
          "name": "landtype",
          "type": "bytes"
        }
      ],
      "name": "mint",
      "outputs": [],
      "stateMutability": "nonpayable",
      "type": "function"
    },
    {
      "inputs": [
        {
          "internalType": "address",
          "name": "_account",
          "type": "address"
        },
        {
          "internalType": "bool",
          "name": "_bool",
          "type": "bool"
        }
      ],
      "name": "setFreezeWhiteList",
      "outputs": [],
      "stateMutability": "nonpayable",
      "type": "function"
    },
    {
      "inputs": [
        {
          "internalType": "contract MelandTier",
          "name": "_tierAddress",
          "type": "address"
        }
      ],
      "name": "setMelandTier",
      "outputs": [],
      "stateMutability": "nonpayable",
      "type": "function"
    },
    {
      "inputs": [
        {
          "internalType": "bool",
          "name": "_bool",
          "type": "bool"
        }
      ],
      "name": "setFreezeEnabled",
      "outputs": [],
      "stateMutability": "nonpayable",
      "type": "function"
    },
    {
      "inputs": [
        {
          "internalType": "bytes4",
          "name": "interfaceId",
          "type": "bytes4"
        }
      ],
      "name": "supportsInterface",
      "outputs": [
        {
          "internalType": "bool",
          "name": "",
          "type": "bool"
        }
      ],
      "stateMutability": "view",
      "type": "function",
      "constant": true
    },
    {
      "inputs": [
        {
          "internalType": "contract IERC20Upgradeable",
          "name": "token",
          "type": "address"
        }
      ],
      "name": "setAcceptedToken",
      "outputs": [],
      "stateMutability": "nonpayable",
      "type": "function"
    },
    {
      "inputs": [
        {
          "internalType": "contract NFTStore",
          "name": "s",
          "type": "address"
        }
      ],
      "name": "setStore",
      "outputs": [],
      "stateMutability": "nonpayable",
      "type": "function"
    },
    {
      "inputs": [
        {
          "internalType": "string",
          "name": "symbol",
          "type": "string"
        },
        {
          "internalType": "uint256",
          "name": "p",
          "type": "uint256"
        }
      ],
      "name": "setStoreItem",
      "outputs": [],
      "stateMutability": "nonpayable",
      "type": "function"
    },
    {
      "inputs": [
        {
          "internalType": "string",
          "name": "symbol",
          "type": "string"
        }
      ],
      "name": "delStoreItem",
      "outputs": [],
      "stateMutability": "nonpayable",
      "type": "function"
    },
    {
      "inputs": [
        {
          "internalType": "string",
          "name": "",
          "type": "string"
        }
      ],
      "name": "melandStoreItemsRestrictPurchaseNFTIds",
      "outputs": [
        {
          "internalType": "bool",
          "name": "",
          "type": "bool"
        },
        {
          "internalType": "uint256[]",
          "name": "",
          "type": "uint256[]"
        }
      ],
      "stateMutability": "pure",
      "type": "function",
      "constant": true
    },
    {
      "inputs": [
        {
          "internalType": "string",
          "name": "symbol",
          "type": "string"
        },
        {
          "internalType": "uint256",
          "name": "id",
          "type": "uint256"
        },
        {
          "internalType": "address",
          "name": "to",
          "type": "address"
        }
      ],
      "name": "melandStoreItemsMint",
      "outputs": [
        {
          "internalType": "uint256",
          "name": "",
          "type": "uint256"
        }
      ],
      "stateMutability": "nonpayable",
      "type": "function"
    },
    {
      "inputs": [
        {
          "internalType": "string",
          "name": "",
          "type": "string"
        }
      ],
      "name": "melandStoreSellStatus",
      "outputs": [
        {
          "internalType": "bool",
          "name": "",
          "type": "bool"
        }
      ],
      "stateMutability": "pure",
      "type": "function",
      "constant": true
    },
    {
      "inputs": [
        {
          "internalType": "string",
          "name": "",
          "type": "string"
        }
      ],
      "name": "melandStoreItemsRestrictedPurchase",
      "outputs": [
        {
          "internalType": "bool",
          "name": "restricted",
          "type": "bool"
        },
        {
          "internalType": "uint256",
          "name": "restrictLimit",
          "type": "uint256"
        }
      ],
      "stateMutability": "pure",
      "type": "function",
      "constant": true
    }
  ],
  "bytecode": "0x60a06040523060805234801561001457600080fd5b50608051614bd861004560003960008181610ecc01528181610f0c015281816110cb015261110b0152614bd86000f3fe6080604052600436106102fe5760003560e01c806371d42be511610190578063bdb7b5dd116100dc578063f242432a11610095578063f62d18881161006f578063f62d188814610a37578063f70e9a4714610a57578063f72c0d8b14610a77578063fcc6dd5714610aab57600080fd5b8063f242432a146109d7578063f405a584146109f7578063f5298aca14610a1757600080fd5b8063bdb7b5dd14610903578063bf4d89b514610923578063d539139314610943578063d547741f14610977578063e985e9c514610997578063ed9be432146109b757600080fd5b806394d008ef11610149578063a22cb46511610123578063a22cb46514610872578063afd600f314610892578063b0c208bc146108b2578063b74f13a2146108d257600080fd5b806394d008ef1461080b5780639f89e7691461082b578063a217fddf1461085d57600080fd5b806371d42be5146107325780637487f5281461075257806383c6c37d1461077257806386e7f544146107925780638b31e62d146107c857806391d14854146107eb57600080fd5b80632eb2c2d61161024f5780634e1273f4116102085780635eccb30c116101e25780635eccb30c14610670578063664033d514610690578063686d3d1f146106dc5780636b20c4541461071257600080fd5b80634e1273f4146106025780634f1ef2861461062f57806352121f091461064257600080fd5b80632eb2c2d6146105405780632f2ff15d1461056057806330c7be2c1461058057806336568abe146105a25780633659cfe6146105c257806342346c5e146105e257600080fd5b80630e89341c116102bc5780631a8c2e80116102965780631a8c2e80146104a25780631a98cef2146104c25780631ba43d2b146104ef578063248a9ca31461051057600080fd5b80630e89341c1461041f5780630f380ce21461044c57806315a54cf51461048257600080fd5b8062fdd58e1461030357806301ffc9a71461033657806302fe5305146103665780630820c90d14610388578063087cbd40146103c35780630b5a6d86146103e3575b600080fd5b34801561030f57600080fd5b5061032361031e366004613af3565b610ad7565b6040519081526020015b60405180910390f35b34801561034257600080fd5b50610356610351366004613b35565b610b73565b604051901515815260200161032d565b34801561037257600080fd5b50610386610381366004613c07565b610b7e565b005b34801561039457600080fd5b506103ac6103a3366004613c07565b50600090600190565b60408051921515835260208301919091520161032d565b3480156103cf57600080fd5b506103866103de366004613c43565b610ba4565b3480156103ef57600080fd5b506103566103fe366004613c07565b80516020818301810180516101698252928201919093012091525460ff1681565b34801561042b57600080fd5b5061043f61043a366004613c60565b610bc6565b60405161032d9190613cd1565b34801561045857600080fd5b5061043f6040518060400160405280600a8152602001693b34b83630b732193c1960b11b81525081565b34801561048e57600080fd5b5061038661049d366004613cf9565b610ca1565b3480156104ae57600080fd5b506103236104bd366004613d2e565b610ce7565b3480156104ce57600080fd5b506103236104dd366004613c60565b60ff6020526000908152604090205481565b3480156104fb57600080fd5b5061035661050a366004613c07565b50600190565b34801561051c57600080fd5b5061032361052b366004613c60565b60009081526098602052604090206001015490565b34801561054c57600080fd5b5061038661055b366004613e1c565b610d85565b34801561056c57600080fd5b5061038661057b366004613ec9565b610e1c565b34801561058c57600080fd5b50610323600080516020614b8383398151915281565b3480156105ae57600080fd5b506103866105bd366004613ec9565b610e47565b3480156105ce57600080fd5b506103866105dd366004613c43565b610ec1565b3480156105ee57600080fd5b506103236105fd366004613c07565b610f8a565b34801561060e57600080fd5b5061062261061d366004613ef9565b610f97565b60405161032d9190614000565b61038661063d366004614013565b6110c0565b34801561064e57600080fd5b5061032361065d366004613c60565b61016b6020526000908152604090205481565b34801561067c57600080fd5b5061032361068b366004613c07565b611176565b34801561069c57600080fd5b506106c46106ab366004613c07565b5073fced262e4949b7b5c4177b4e0ad8e974cc7493bf90565b6040516001600160a01b03909116815260200161032d565b3480156106e857600080fd5b5061043f6040518060400160405280600a8152602001691d9a5c1b185b990d1e0d60b21b81525081565b34801561071e57600080fd5b5061038661072d366004614058565b611183565b34801561073e57600080fd5b5061038661074d3660046140cd565b6111c6565b34801561075e57600080fd5b5061038661076d366004613c43565b6111e8565b34801561077e57600080fd5b5061038661078d366004613cf9565b61120a565b34801561079e57600080fd5b5061043f6040518060400160405280600a8152602001697669706c616e6431783160b01b81525081565b3480156107d457600080fd5b506107dd61122d565b60405161032d9291906140e8565b3480156107f757600080fd5b50610356610806366004613ec9565b611363565b34801561081757600080fd5b50610386610826366004614155565b61138e565b34801561083757600080fd5b5061084f610846366004613c07565b50600090606090565b60405161032d9291906141a3565b34801561086957600080fd5b50610323600081565b34801561087e57600080fd5b5061038661088d366004613cf9565b611441565b34801561089e57600080fd5b5061043f6108ad366004613c60565b61144c565b3480156108be57600080fd5b506103866108cd366004613c07565b6114e7565b3480156108de57600080fd5b506103566108ed366004613c43565b61016c6020526000908152604090205460ff1681565b34801561090f57600080fd5b5061038661091e3660046141be565b611509565b34801561092f57600080fd5b5061032361093e3660046141be565b61152c565b34801561094f57600080fd5b506103237f9f2df0fed2c77648de5860a4cc508cd0818c85b8b8a1ab4ceeef8d981c8956a681565b34801561098357600080fd5b50610386610992366004613ec9565b611649565b3480156109a357600080fd5b506103566109b2366004614202565b61166f565b3480156109c357600080fd5b506103236109d23660046141be565b61167b565b3480156109e357600080fd5b506103866109f2366004614230565b611834565b348015610a0357600080fd5b5061043f610a12366004613c07565b611879565b348015610a2357600080fd5b50610386610a32366004614298565b6118ad565b348015610a4357600080fd5b50610386610a52366004613c07565b6118f0565b348015610a6357600080fd5b50610386610a72366004613c43565b611adb565b348015610a8357600080fd5b506103237f189ab7a9244df0848122154315af71fe140f3db0fe014031783b0946b8c9d2e381565b348015610ab757600080fd5b506106c4610ac6366004613c07565b50610101546001600160a01b031690565b60006001600160a01b038316610b485760405162461bcd60e51b815260206004820152602b60248201527f455243313135353a2062616c616e636520717565727920666f7220746865207a60448201526a65726f206164647265737360a81b60648201526084015b60405180910390fd5b5060008181526065602090815260408083206001600160a01b03861684529091529020545b92915050565b6000610b6d82611b13565b600080516020614b83833981519152610b978133611b38565b610ba082611b9c565b5050565b600080516020614b83833981519152610bbd8133611b38565b610ba082611baf565b600081815261016a6020526040812080546060929190610be5906142cd565b80601f0160208091040260200160405190810160405280929190818152602001828054610c11906142cd565b8015610c5e5780601f10610c3357610100808354040283529160200191610c5e565b820191906000526020600020905b815481529060010190602001808311610c4157829003601f168201915b50505050509050610c6e83611bd3565b81610c7885611c67565b604051602001610c8a93929190614308565b604051602081830303815290604052915050919050565b600080516020614b83833981519152610cba8133611b38565b506001600160a01b0391909116600090815261016c60205260409020805460ff1916911515919091179055565b6001600160a01b038116600090815261016c602052604081205460ff16610d465760405162461bcd60e51b81526020600482015260136024820152724e6f7420656c696769626c6520746f2062757960681b6044820152606401610b3f565b610d51848484611d86565b610d6061016880546001019055565b610168549250610d738284600187611dea565b610d7b611efc565b50815b9392505050565b6001600160a01b038516331480610da15750610da1853361166f565b610e085760405162461bcd60e51b815260206004820152603260248201527f455243313135353a207472616e736665722063616c6c6572206973206e6f74206044820152711bdddb995c881b9bdc88185c1c1c9bdd995960721b6064820152608401610b3f565b610e158585858585611f6f565b5050505050565b600082815260986020526040902060010154610e388133611b38565b610e42838361211c565b505050565b6001600160a01b0381163314610eb75760405162461bcd60e51b815260206004820152602f60248201527f416363657373436f6e74726f6c3a2063616e206f6e6c792072656e6f756e636560448201526e103937b632b9903337b91039b2b63360891b6064820152608401610b3f565b610ba082826121a2565b306001600160a01b037f0000000000000000000000000000000000000000000000000000000000000000161415610f0a5760405162461bcd60e51b8152600401610b3f90614362565b7f00000000000000000000000000000000000000000000000000000000000000006001600160a01b0316610f3c612209565b6001600160a01b031614610f625760405162461bcd60e51b8152600401610b3f906143ae565b610f6b81612237565b60408051600080825260208201909252610f8791839190612262565b50565b6000610b6d82600061152c565b60608151835114610ffc5760405162461bcd60e51b815260206004820152602960248201527f455243313135353a206163636f756e747320616e6420696473206c656e677468604482015268040dad2e6dac2e8c6d60bb1b6064820152608401610b3f565b600083516001600160401b0381111561101757611017613b52565b604051908082528060200260200182016040528015611040578160200160208202803683370190505b50905060005b84518110156110b85761108b858281518110611064576110646143fa565b602002602001015185838151811061107e5761107e6143fa565b6020026020010151610ad7565b82828151811061109d5761109d6143fa565b60209081029190910101526110b181614426565b9050611046565b509392505050565b306001600160a01b037f00000000000000000000000000000000000000000000000000000000000000001614156111095760405162461bcd60e51b8152600401610b3f90614362565b7f00000000000000000000000000000000000000000000000000000000000000006001600160a01b031661113b612209565b6001600160a01b0316146111615760405162461bcd60e51b8152600401610b3f906143ae565b61116a82612237565b610ba082826001612262565b6000610b6d82600061167b565b6001600160a01b03831633148061119f575061119f833361166f565b6111bb5760405162461bcd60e51b8152600401610b3f90614441565b610e428383836123a6565b600080516020614b838339815191526111df8133611b38565b610ba082612537565b600080516020614b838339815191526112018133611b38565b610ba08261257e565b600080516020614b838339815191526112238133611b38565b610e4283836125a2565b60608061010261010381805480602002602001604051908101604052809291908181526020016000905b82821015611303578382906000526020600020018054611276906142cd565b80601f01602080910402602001604051908101604052809291908181526020018280546112a2906142cd565b80156112ef5780601f106112c4576101008083540402835291602001916112ef565b820191906000526020600020905b8154815290600101906020018083116112d257829003601f168201915b505050505081526020019060010190611257565b5050505091508080548060200260200160405190810160405280929190818152602001828054801561135457602002820191906000526020600020905b815481526020019060010190808311611340575b50505050509050915091509091565b60009182526098602090815260408084206001600160a01b0393909316845291905290205460ff1690565b7f9f2df0fed2c77648de5860a4cc508cd0818c85b8b8a1ab4ceeef8d981c8956a66113b98133611b38565b6001600160a01b038416600090815261016c602052604090205460ff166114185760405162461bcd60e51b81526020600482015260136024820152724e6f7420656c696769626c6520746f2062757960681b6044820152606401610b3f565b61142761016880546001019055565b60006114336101685490565b9050610e1585828686611dea565b610ba0338383612601565b61016a6020526000908152604090208054611466906142cd565b80601f0160208091040260200160405190810160405280929190818152602001828054611492906142cd565b80156114df5780601f106114b4576101008083540402835291602001916114df565b820191906000526020600020905b8154815290600101906020018083116114c257829003601f168201915b505050505081565b600080516020614b838339815191526115008133611b38565b610ba0826126e2565b600080516020614b838339815191526115228133611b38565b610e4283836128ec565b6000828180805b8351811015611621576030848281518110611550576115506143fa565b016020015160f81c1080159061158057506039848281518110611575576115756143fa565b016020015160f81c11155b156115e75781156115a3578561159557611621565b8561159f8161448a565b9650505b6115ae600a846144a1565b925060308482815181106115c4576115c46143fa565b01602001516115d6919060f81c6144c0565b6115e090846144d7565b925061160f565b8381815181106115f9576115f96143fa565b60209101015160f81c602e141561160f57600191505b8061161981614426565b915050611533565b5084156116405761163385600a6145d3565b61163d90836144a1565b91505b50949350505050565b6000828152609860205260409020600101546116658133611b38565b610e4283836121a2565b6000610d7e8383612a69565b6000828180805b835181101561162157603084828151811061169f5761169f6143fa565b016020015160f81c108015906116cf575060398482815181106116c4576116c46143fa565b016020015160f81c11155b156117365781156116f257856116e457611621565b856116ee8161448a565b9650505b6116fd600a846144a1565b92506030848281518110611713576117136143fa565b0160200151611725919060f81c6144c0565b61172f90846144d7565b9250611822565b838181518110611748576117486143fa565b60209101015160f81c602e14156117c55781156117bc5760405162461bcd60e51b815260206004820152602c60248201527f4d6f7265207468616e206f6e6520646563696d616c20656e636f756e7465726560448201526b6420696e20737472696e672160a01b6064820152608401610b3f565b60019150611822565b60405162461bcd60e51b815260206004820152602c60248201527f4e6f6e2d6e756d6572616c2063686172616374657220656e636f756e7465726560448201526b6420696e20737472696e672160a01b6064820152608401610b3f565b8061182c81614426565b915050611682565b6001600160a01b0385163314806118505750611850853361166f565b61186c5760405162461bcd60e51b8152600401610b3f90614441565b610e158585858585612ae4565b60606118856000611bd3565b826040516020016118979291906145df565b6040516020818303038152906040529050919050565b6001600160a01b0383163314806118c957506118c9833361166f565b6118e55760405162461bcd60e51b8152600401610b3f90614441565b610e42838383612c05565b600054610100900460ff1661190b5760005460ff161561190f565b303b155b6119725760405162461bcd60e51b815260206004820152602e60248201527f496e697469616c697a61626c653a20636f6e747261637420697320616c72656160448201526d191e481a5b9a5d1a585b1a5e995960921b6064820152608401610b3f565b600054610100900460ff16158015611994576000805461ffff19166101011790555b61199d82612d0a565b6119a5612d4a565b6119ad612d89565b6119b5612db0565b6119bd612de6565b60016101696040518060400160405280600a8152602001697669706c616e6431783160b01b8152506040516119f29190614624565b908152602001604051809103902060006101000a81548160ff02191690831515021790555060016101696040518060400160405280600a8152602001693b34b83630b732193c1960b11b815250604051611a4c9190614624565b908152602001604051809103902060006101000a81548160ff02191690831515021790555060016101696040518060400160405280600a8152602001691d9a5c1b185b990d1e0d60b21b815250604051611aa69190614624565b908152604051908190036020019020805491151560ff199092169190911790558015610ba0576000805461ff00191690555050565b600080516020614b83833981519152611af48133611b38565b609780546001600160a01b0319166001600160a01b0384161790555050565b60006001600160e01b03198216637965db0b60e01b1480610b6d5750610b6d82612e65565b611b428282611363565b610ba057611b5a816001600160a01b03166014612eb5565b611b65836020612eb5565b604051602001611b76929190614640565b60408051601f198184030181529082905262461bcd60e51b8252610b3f91600401613cd1565b8051610ba0906067906020840190613a0f565b61010080546001600160a01b0319166001600160a01b038316179055610f87611efc565b606060678054611be2906142cd565b80601f0160208091040260200160405190810160405280929190818152602001828054611c0e906142cd565b8015611c5b5780601f10611c3057610100808354040283529160200191611c5b565b820191906000526020600020905b815481529060010190602001808311611c3e57829003601f168201915b50505050509050919050565b606081611c8b5750506040805180820190915260018152600360fc1b602082015290565b8160005b8115611cb55780611c9f81614426565b9150611cae9050600a836146b5565b9150611c8f565b6000816001600160401b03811115611ccf57611ccf613b52565b6040519080825280601f01601f191660200182016040528015611cf9576020820181803683370190505b509050815b851561164057611d0f6001826144c0565b90506000611d1e600a886146b5565b611d2990600a6144a1565b611d3390886144c0565b611d3e9060306146d7565b905060008160f81b905080848481518110611d5b57611d5b6143fa565b60200101906001600160f81b031916908160001a905350611d7d600a896146b5565b97505050611cfe565b610100546001600160a01b0316336001600160a01b031614610e425760405162461bcd60e51b815260206004820152601f60248201527f416c6c6f77206f6e6c79204d656c616e642e6169206d616c6c2063616c6c73006044820152606401610b3f565b6001600160a01b038416611e4a5760405162461bcd60e51b815260206004820152602160248201527f455243313135353a206d696e7420746f20746865207a65726f206164647265736044820152607360f81b6064820152608401610b3f565b33611e6a81600087611e5b88613050565b611e6488613050565b8761309b565b60008481526065602090815260408083206001600160a01b038916845290915281208054859290611e9c9084906144d7565b909155505060408051858152602081018590526001600160a01b0380881692600092918516917fc3d58168c5ae7397731d063d5bbf3d657854427343f4c083240f7aacaa2d0f62910160405180910390a4610e1581600087878787613449565b610100546001600160a01b031615611f6d576101005460405163fa21a11d60e01b81523060048201526001600160a01b039091169063fa21a11d90602401600060405180830381600087803b158015611f5457600080fd5b505af1158015611f68573d6000803e3d6000fd5b505050505b565b8151835114611f905760405162461bcd60e51b8152600401610b3f906146fc565b6001600160a01b038416611fb65760405162461bcd60e51b8152600401610b3f90614744565b33611fc581878787878761309b565b60005b84518110156120ae576000858281518110611fe557611fe56143fa565b602002602001015190506000858381518110612003576120036143fa565b60209081029190910181015160008481526065835260408082206001600160a01b038e1683529093529190912054909150818110156120545760405162461bcd60e51b8152600401610b3f90614789565b60008381526065602090815260408083206001600160a01b038e8116855292528083208585039055908b168252812080548492906120939084906144d7565b92505081905550505050806120a790614426565b9050611fc8565b50846001600160a01b0316866001600160a01b0316826001600160a01b03167f4a39dc06d4c0dbc64b70af90fd698a233a518aa5d07e595d983b8c0526c8f7fb87876040516120fe9291906147d3565b60405180910390a46121148187878787876135b4565b505050505050565b6121268282611363565b610ba05760008281526098602090815260408083206001600160a01b03851684529091529020805460ff1916600117905561215e3390565b6001600160a01b0316816001600160a01b0316837f2f8788117e7eff1d82e926ec794901d17c78024a50270940304540a733656f0d60405160405180910390a45050565b6121ac8282611363565b15610ba05760008281526098602090815260408083206001600160a01b0385168085529252808320805460ff1916905551339285917ff6391f5c32d9c69d2a47ea670b442974b53935d1edc7fd64eb21e047a839171b9190a45050565b7f360894a13ba1a3210667c828492db98dca3e2076cc3735a920a3ca505d382bbc546001600160a01b031690565b7f189ab7a9244df0848122154315af71fe140f3db0fe014031783b0946b8c9d2e3610ba08133611b38565b600061226c612209565b90506122778461367e565b6000835111806122845750815b15612295576122938484613723565b505b7f4910fdfa16fed3260ed0e7147f7cc6da11a60208b5b9406d12a635614ffd9143805460ff16610e1557805460ff191660011781556040516001600160a01b038316602482015261231490869060440160408051601f198184030181529190526020810180516001600160e01b0316631b2ce7f360e11b179052613723565b50805460ff19168155612325612209565b6001600160a01b0316826001600160a01b03161461239d5760405162461bcd60e51b815260206004820152602f60248201527f45524331393637557067726164653a207570677261646520627265616b73206660448201526e75727468657220757067726164657360881b6064820152608401610b3f565b610e158561380e565b6001600160a01b0383166123cc5760405162461bcd60e51b8152600401610b3f906147f8565b80518251146123ed5760405162461bcd60e51b8152600401610b3f906146fc565b60003390506124108185600086866040518060200160405280600081525061309b565b60005b83518110156124d8576000848281518110612430576124306143fa565b60200260200101519050600084838151811061244e5761244e6143fa565b60209081029190910181015160008481526065835260408082206001600160a01b038c16835290935291909120549091508181101561249f5760405162461bcd60e51b8152600401610b3f9061483b565b60009283526065602090815260408085206001600160a01b038b16865290915290922091039055806124d081614426565b915050612413565b5060006001600160a01b0316846001600160a01b0316826001600160a01b03167f4a39dc06d4c0dbc64b70af90fd698a233a518aa5d07e595d983b8c0526c8f7fb86866040516125299291906147d3565b60405180910390a450505050565b60fc805460ff19168215159081179091556040519081527ffe201e4b4f6868843d95c43911ae6440969ce8f267814256f138983f77b444399060200160405180910390a150565b61010180546001600160a01b0319166001600160a01b038316179055610f87611efc565b6001600160a01b038216600081815260fe6020908152604091829020805460ff191685151590811790915591519182527f8b0795ef2ee415d4d22faae6db2f220e804a2ece30b9ef73c9135823d5326e4a910160405180910390a25050565b816001600160a01b0316836001600160a01b031614156126755760405162461bcd60e51b815260206004820152602960248201527f455243313135353a2073657474696e6720617070726f76616c20737461747573604482015268103337b91039b2b63360b91b6064820152608401610b3f565b6001600160a01b03838116600081815260666020908152604080832094871680845294825291829020805460ff191686151590811790915591519182527f17307eab39ab6107e8899845ad3d59bd9653f200f220920489ca2b5937696c31910160405180910390a3505050565b6000805b61010254811015612748578280519060200120610102828154811061270d5761270d6143fa565b90600052602060002001604051612724919061487f565b60405180910390201415612736578091505b8061274081614426565b9150506126e6565b5061010280546000919061275e906001906144c0565b8154811061276e5761276e6143fa565b906000526020600020018054612783906142cd565b80601f01602080910402602001604051908101604052809291908181526020018280546127af906142cd565b80156127fc5780601f106127d1576101008083540402835291602001916127fc565b820191906000526020600020905b8154815290600101906020018083116127df57829003601f168201915b50505050509050600061010360016101028054905061281b91906144c0565b8154811061282b5761282b6143fa565b9060005260206000200154905081610102848154811061284d5761284d6143fa565b90600052602060002001908051906020019061286a929190613a0f565b5061010280548061287d5761287d61491b565b6001900381819060005260206000200160006128999190613a93565b90558061010384815481106128b0576128b06143fa565b6000918252602090912001556101038054806128ce576128ce61491b565b60019003818190600052602060002001600090559055611f68611efc565b6000805b6101025481101561295257610102818154811061290f5761290f6143fa565b90600052602060002001604051612926919061487f565b604051809103902084805190602001201415612940578091505b8061294a81614426565b9150506128f0565b50801561297f5781610103828154811061296e5761296e6143fa565b600091825260209091200155612a61565b61010254158015906129ca575082805190602001206101026000815481106129a9576129a96143fa565b906000526020600020016040516129c0919061487f565b6040518091039020145b156129e5578161010360008154811061296e5761296e6143fa565b61010280546001810182556000919091528351612a29917f93bdaa6a4190909b7c3fbe8d42169ffe1cab19f51dfc8db24c71abf849eced4a01906020860190613a0f565b5061010380546001810182556000919091527f02c297ab74aad0aede3a1895c857b1f2c71e6a203feb727bec95ac752998cb78018290555b610e42611efc565b60006001600160a01b03821673207fa8df3a17d96ca7ea4f2893fcdcb78a3041011415612a9857506001610b6d565b6097546001600160a01b0383811691161415612ab657506001610b6d565b6001600160a01b0380841660009081526066602090815260408083209386168352929052205460ff16610d7e565b6001600160a01b038416612b0a5760405162461bcd60e51b8152600401610b3f90614744565b33612b1a818787611e5b88613050565b60008481526065602090815260408083206001600160a01b038a16845290915290205483811015612b5d5760405162461bcd60e51b8152600401610b3f90614789565b60008581526065602090815260408083206001600160a01b038b8116855292528083208785039055908816825281208054869290612b9c9084906144d7565b909155505060408051868152602081018690526001600160a01b03808916928a821692918616917fc3d58168c5ae7397731d063d5bbf3d657854427343f4c083240f7aacaa2d0f62910160405180910390a4612bfc828888888888613449565b50505050505050565b6001600160a01b038316612c2b5760405162461bcd60e51b8152600401610b3f906147f8565b33612c5a81856000612c3c87613050565b612c4587613050565b6040518060200160405280600081525061309b565b60008381526065602090815260408083206001600160a01b038816845290915290205482811015612c9d5760405162461bcd60e51b8152600401610b3f9061483b565b60008481526065602090815260408083206001600160a01b03898116808652918452828520888703905582518981529384018890529092908616917fc3d58168c5ae7397731d063d5bbf3d657854427343f4c083240f7aacaa2d0f62910160405180910390a45050505050565b600054610100900460ff16612d315760405162461bcd60e51b8152600401610b3f90614931565b612d3961384e565b612d4161384e565b610f8781613875565b600054610100900460ff16612d715760405162461bcd60e51b8152600401610b3f90614931565b612d7961384e565b612d8161384e565b611f6d61384e565b600054610100900460ff16612d795760405162461bcd60e51b8152600401610b3f90614931565b60fc805460ff1916600190811790915562093a8060fd55611f6d9073714df076992f95e452a345cd8289882cec6ab82f906125a2565b612dee612d4a565b612df960003361211c565b612e11600080516020614b838339815191523361211c565b612e3b7f9f2df0fed2c77648de5860a4cc508cd0818c85b8b8a1ab4ceeef8d981c8956a63361211c565b611f6d7f189ab7a9244df0848122154315af71fe140f3db0fe014031783b0946b8c9d2e33361211c565b60006001600160e01b03198216636cdb3d1360e11b1480612e9657506001600160e01b031982166303a24d0760e21b145b80610b6d57506301ffc9a760e01b6001600160e01b0319831614610b6d565b60606000612ec48360026144a1565b612ecf9060026144d7565b6001600160401b03811115612ee657612ee6613b52565b6040519080825280601f01601f191660200182016040528015612f10576020820181803683370190505b509050600360fc1b81600081518110612f2b57612f2b6143fa565b60200101906001600160f81b031916908160001a905350600f60fb1b81600181518110612f5a57612f5a6143fa565b60200101906001600160f81b031916908160001a9053506000612f7e8460026144a1565b612f899060016144d7565b90505b6001811115613001576f181899199a1a9b1b9c1cb0b131b232b360811b85600f1660108110612fbd57612fbd6143fa565b1a60f81b828281518110612fd357612fd36143fa565b60200101906001600160f81b031916908160001a90535060049490941c93612ffa8161448a565b9050612f8c565b508315610d7e5760405162461bcd60e51b815260206004820181905260248201527f537472696e67733a20686578206c656e67746820696e73756666696369656e746044820152606401610b3f565b6040805160018082528183019092526060916000919060208083019080368337019050509050828160008151811061308a5761308a6143fa565b602090810291909101015292915050565b60005b8251811015613148578281815181106130b9576130b96143fa565b60200260200101516001146131365760405162461bcd60e51b815260206004820152603b60248201527f45616368206c616e6420697320756e697175652c20536f20746865726520697360448201527f206e6f207472616e736665722067726561746572207468616e203100000000006064820152608401610b3f565b8061314081614426565b91505061309e565b5060005b83518110156132bb576000848281518110613169576131696143fa565b60200260200101519050600061016a60008381526020019081526020016000208054613194906142cd565b80601f01602080910402602001604051908101604052809291908181526020018280546131c0906142cd565b801561320d5780601f106131e25761010080835404028352916020019161320d565b820191906000526020600020905b8154815290600101906020018083116131f057829003601f168201915b505050505090507f1cb6cb558a2b0eaf4f7c8fe6b68ffffce2f021379f9fa31ee9cbee72ba079f038180519060200120141561324e5761324e8888846138a5565b6001600160a01b0387166132a657600082815261016a6020526040812061327491613a93565b600161016b60008380519060200120815260200190815260200160002060008282546132a091906144c0565b90915550505b505080806132b390614426565b91505061314c565b506001600160a01b03851661344457610169816040516132db9190614624565b908152604051602091819003820181205460ff16916132fc9184910161497c565b604051602081830303815290604052906133295760405162461bcd60e51b8152600401610b3f9190613cd1565b5060005b83518110156134115761016a600085838151811061334d5761334d6143fa565b60200260200101518152602001908152602001600020805461336e906142cd565b1590506133bd5760405162461bcd60e51b815260206004820152601d60248201527f4d616b6520737572652065616368206c616e6420697320756e697175650000006044820152606401610b3f565b8161016a60008684815181106133d5576133d56143fa565b6020026020010151815260200190815260200160002090805190602001906133fe929190613a0f565b508061340981614426565b91505061332d565b50825161016b600083805190602001208152602001908152602001600020600082825461343e91906144d7565b90915550505b612114565b6001600160a01b0384163b156121145760405163f23a6e6160e01b81526001600160a01b0385169063f23a6e619061348d90899089908890889088906004016149ae565b602060405180830381600087803b1580156134a757600080fd5b505af19250505080156134d7575060408051601f3d908101601f191682019092526134d4918101906149f3565b60015b613584576134e3614a10565b806308c379a0141561351d57506134f8614a2c565b80613503575061351f565b8060405162461bcd60e51b8152600401610b3f9190613cd1565b505b60405162461bcd60e51b815260206004820152603460248201527f455243313135353a207472616e7366657220746f206e6f6e20455243313135356044820152732932b1b2b4bb32b91034b6b83632b6b2b73a32b960611b6064820152608401610b3f565b6001600160e01b0319811663f23a6e6160e01b14612bfc5760405162461bcd60e51b8152600401610b3f90614ab5565b6001600160a01b0384163b156121145760405163bc197c8160e01b81526001600160a01b0385169063bc197c81906135f89089908990889088908890600401614afd565b602060405180830381600087803b15801561361257600080fd5b505af1925050508015613642575060408051601f3d908101601f1916820190925261363f918101906149f3565b60015b61364e576134e3614a10565b6001600160e01b0319811663bc197c8160e01b14612bfc5760405162461bcd60e51b8152600401610b3f90614ab5565b803b6136e25760405162461bcd60e51b815260206004820152602d60248201527f455243313936373a206e657720696d706c656d656e746174696f6e206973206e60448201526c1bdd08184818dbdb9d1c9858dd609a1b6064820152608401610b3f565b7f360894a13ba1a3210667c828492db98dca3e2076cc3735a920a3ca505d382bbc80546001600160a01b0319166001600160a01b0392909216919091179055565b6060823b6137825760405162461bcd60e51b815260206004820152602660248201527f416464726573733a2064656c65676174652063616c6c20746f206e6f6e2d636f6044820152651b9d1c9858dd60d21b6064820152608401610b3f565b600080846001600160a01b03168460405161379d9190614624565b600060405180830381855af49150503d80600081146137d8576040519150601f19603f3d011682016040523d82523d6000602084013e6137dd565b606091505b50915091506138058282604051806060016040528060278152602001614b5c602791396139ca565b95945050505050565b6138178161367e565b6040516001600160a01b038216907fbc7cd75a20ee27fd9adebab32041f755214dbc6bffa90cc0225b39da2e5c2d3b90600090a250565b600054610100900460ff16611f6d5760405162461bcd60e51b8152600401610b3f90614931565b600054610100900460ff1661389c5760405162461bcd60e51b8152600401610b3f90614931565b610f8781611b9c565b60fc5460ff166138b457505050565b6001600160a01b0382163b156138c957505050565b6001600160a01b038216600090815260fe602052604090205460ff16156138ef57505050565b600081815260ff60209081526040918290205491514283109261397a929091017f5468652063757272656e74204e465420697320696e207468652074726164696e81527f672070726f74656374696f6e20706572696f6420616e642063616e206265207460208201526a3930b232b21030b33a32b960a91b6040820152604b810191909152606b0190565b604051602081830303815290604052906139a75760405162461bcd60e51b8152600401610b3f9190613cd1565b5060fd546139b6904290613a03565b600091825260ff6020526040909120555050565b606083156139d9575081610d7e565b8251156139e95782518084602001fd5b8160405162461bcd60e51b8152600401610b3f9190613cd1565b6000610d7e82846144d7565b828054613a1b906142cd565b90600052602060002090601f016020900481019282613a3d5760008555613a83565b82601f10613a5657805160ff1916838001178555613a83565b82800160010185558215613a83579182015b82811115613a83578251825591602001919060010190613a68565b50613a8f929150613ac9565b5090565b508054613a9f906142cd565b6000825580601f10613aaf575050565b601f016020900490600052602060002090810190610f8791905b5b80821115613a8f5760008155600101613aca565b6001600160a01b0381168114610f8757600080fd5b60008060408385031215613b0657600080fd5b8235613b1181613ade565b946020939093013593505050565b6001600160e01b031981168114610f8757600080fd5b600060208284031215613b4757600080fd5b8135610d7e81613b1f565b634e487b7160e01b600052604160045260246000fd5b601f8201601f191681016001600160401b0381118282101715613b8d57613b8d613b52565b6040525050565b600082601f830112613ba557600080fd5b81356001600160401b03811115613bbe57613bbe613b52565b604051613bd5601f8301601f191660200182613b68565b818152846020838601011115613bea57600080fd5b816020850160208301376000918101602001919091529392505050565b600060208284031215613c1957600080fd5b81356001600160401b03811115613c2f57600080fd5b613c3b84828501613b94565b949350505050565b600060208284031215613c5557600080fd5b8135610d7e81613ade565b600060208284031215613c7257600080fd5b5035919050565b60005b83811015613c94578181015183820152602001613c7c565b83811115611f685750506000910152565b60008151808452613cbd816020860160208601613c79565b601f01601f19169290920160200192915050565b602081526000610d7e6020830184613ca5565b80358015158114613cf457600080fd5b919050565b60008060408385031215613d0c57600080fd5b8235613d1781613ade565b9150613d2560208401613ce4565b90509250929050565b600080600060608486031215613d4357600080fd5b83356001600160401b03811115613d5957600080fd5b613d6586828701613b94565b935050602084013591506040840135613d7d81613ade565b809150509250925092565b60006001600160401b03821115613da157613da1613b52565b5060051b60200190565b600082601f830112613dbc57600080fd5b81356020613dc982613d88565b604051613dd68282613b68565b83815260059390931b8501820192828101915086841115613df657600080fd5b8286015b84811015613e115780358352918301918301613dfa565b509695505050505050565b600080600080600060a08688031215613e3457600080fd5b8535613e3f81613ade565b94506020860135613e4f81613ade565b935060408601356001600160401b0380821115613e6b57600080fd5b613e7789838a01613dab565b94506060880135915080821115613e8d57600080fd5b613e9989838a01613dab565b93506080880135915080821115613eaf57600080fd5b50613ebc88828901613b94565b9150509295509295909350565b60008060408385031215613edc57600080fd5b823591506020830135613eee81613ade565b809150509250929050565b60008060408385031215613f0c57600080fd5b82356001600160401b0380821115613f2357600080fd5b818501915085601f830112613f3757600080fd5b81356020613f4482613d88565b604051613f518282613b68565b83815260059390931b8501820192828101915089841115613f7157600080fd5b948201945b83861015613f98578535613f8981613ade565b82529482019490820190613f76565b96505086013592505080821115613fae57600080fd5b50613fbb85828601613dab565b9150509250929050565b600081518084526020808501945080840160005b83811015613ff557815187529582019590820190600101613fd9565b509495945050505050565b602081526000610d7e6020830184613fc5565b6000806040838503121561402657600080fd5b823561403181613ade565b915060208301356001600160401b0381111561404c57600080fd5b613fbb85828601613b94565b60008060006060848603121561406d57600080fd5b833561407881613ade565b925060208401356001600160401b038082111561409457600080fd5b6140a087838801613dab565b935060408601359150808211156140b657600080fd5b506140c386828701613dab565b9150509250925092565b6000602082840312156140df57600080fd5b610d7e82613ce4565b6000604082016040835280855180835260608501915060608160051b8601019250602080880160005b8381101561413f57605f1988870301855261412d868351613ca5565b95509382019390820190600101614111565b5050858403818701525050506138058185613fc5565b60008060006060848603121561416a57600080fd5b833561417581613ade565b92506020840135915060408401356001600160401b0381111561419757600080fd5b6140c386828701613b94565b8215158152604060208201526000613c3b6040830184613fc5565b600080604083850312156141d157600080fd5b82356001600160401b038111156141e757600080fd5b6141f385828601613b94565b95602094909401359450505050565b6000806040838503121561421557600080fd5b823561422081613ade565b91506020830135613eee81613ade565b600080600080600060a0868803121561424857600080fd5b853561425381613ade565b9450602086013561426381613ade565b9350604086013592506060860135915060808601356001600160401b0381111561428c57600080fd5b613ebc88828901613b94565b6000806000606084860312156142ad57600080fd5b83356142b881613ade565b95602085013595506040909401359392505050565b600181811c908216806142e157607f821691505b6020821081141561430257634e487b7160e01b600052602260045260246000fd5b50919050565b6000845161431a818460208901613c79565b8083019050602f60f81b808252855161433a816001850160208a01613c79565b60019201918201528351614355816002840160208801613c79565b0160020195945050505050565b6020808252602c908201527f46756e6374696f6e206d7573742062652063616c6c6564207468726f7567682060408201526b19195b1959d85d1958d85b1b60a21b606082015260800190565b6020808252602c908201527f46756e6374696f6e206d7573742062652063616c6c6564207468726f7567682060408201526b6163746976652070726f787960a01b606082015260800190565b634e487b7160e01b600052603260045260246000fd5b634e487b7160e01b600052601160045260246000fd5b600060001982141561443a5761443a614410565b5060010190565b60208082526029908201527f455243313135353a2063616c6c6572206973206e6f74206f776e6572206e6f7260408201526808185c1c1c9bdd995960ba1b606082015260800190565b60008161449957614499614410565b506000190190565b60008160001904831182151516156144bb576144bb614410565b500290565b6000828210156144d2576144d2614410565b500390565b600082198211156144ea576144ea614410565b500190565b600181815b8085111561452a57816000190482111561451057614510614410565b8085161561451d57918102915b93841c93908002906144f4565b509250929050565b60008261454157506001610b6d565b8161454e57506000610b6d565b8160018114614564576002811461456e5761458a565b6001915050610b6d565b60ff84111561457f5761457f614410565b50506001821b610b6d565b5060208310610133831016604e8410600b84101617156145ad575081810a610b6d565b6145b783836144ef565b80600019048211156145cb576145cb614410565b029392505050565b6000610d7e8383614532565b600083516145f1818460208801613c79565b8083019050602f60f81b8082528451614611816001850160208901613c79565b6001920191820152600201949350505050565b60008251614636818460208701613c79565b9190910192915050565b7f416363657373436f6e74726f6c3a206163636f756e7420000000000000000000815260008351614678816017850160208801613c79565b7001034b99036b4b9b9b4b733903937b6329607d1b60179184019182015283516146a9816028840160208801613c79565b01602801949350505050565b6000826146d257634e487b7160e01b600052601260045260246000fd5b500490565b600060ff821660ff84168060ff038211156146f4576146f4614410565b019392505050565b60208082526028908201527f455243313135353a2069647320616e6420616d6f756e7473206c656e677468206040820152670dad2e6dac2e8c6d60c31b606082015260800190565b60208082526025908201527f455243313135353a207472616e7366657220746f20746865207a65726f206164604082015264647265737360d81b606082015260800190565b6020808252602a908201527f455243313135353a20696e73756666696369656e742062616c616e636520666f60408201526939103a3930b739b332b960b11b606082015260800190565b6040815260006147e66040830185613fc5565b82810360208401526138058185613fc5565b60208082526023908201527f455243313135353a206275726e2066726f6d20746865207a65726f206164647260408201526265737360e81b606082015260800190565b60208082526024908201527f455243313135353a206275726e20616d6f756e7420657863656564732062616c604082015263616e636560e01b606082015260800190565b600080835481600182811c91508083168061489b57607f831692505b60208084108214156148bb57634e487b7160e01b86526022600452602486fd5b8180156148cf57600181146148e05761490d565b60ff1986168952848901965061490d565b60008a81526020902060005b868110156149055781548b8201529085019083016148ec565b505084890196505b509498975050505050505050565b634e487b7160e01b600052603160045260246000fd5b6020808252602b908201527f496e697469616c697a61626c653a20636f6e7472616374206973206e6f74206960408201526a6e697469616c697a696e6760a81b606082015260800190565b6000825161498e818460208701613c79565b6d1a5cc81b9bdd081cdd5c1c1bdc9d60921b920191825250600e01919050565b6001600160a01b03868116825285166020820152604081018490526060810183905260a0608082018190526000906149e890830184613ca5565b979650505050505050565b600060208284031215614a0557600080fd5b8151610d7e81613b1f565b600060033d1115614a295760046000803e5060005160e01c5b90565b600060443d1015614a3a5790565b6040516003193d81016004833e81513d6001600160401b038160248401118184111715614a6957505050505090565b8285019150815181811115614a815750505050505090565b843d8701016020828501011115614a9b5750505050505090565b614aaa60208286010187613b68565b509095945050505050565b60208082526028908201527f455243313135353a204552433131353552656365697665722072656a656374656040820152676420746f6b656e7360c01b606082015260800190565b6001600160a01b0386811682528516602082015260a060408201819052600090614b2990830186613fc5565b8281036060840152614b3b8186613fc5565b90508281036080840152614b4f8185613ca5565b9897505050505050505056fe416464726573733a206c6f772d6c6576656c2064656c65676174652063616c6c206661696c6564f5eb84615c2a00ecaf817d13794ebd6299c9e01c395bf4018453f13f577f5449a264697066735822122016acc811c0fa0cf604b65f7fccf2a2262aa05cb1ea0457fb1257bc90944ee21c64736f6c63430008090033",
  "immutableReferences": {
    "1051": [
      {
        "length": 32,
        "start": 3788
      },
      {
        "length": 32,
        "start": 3852
      },
      {
        "length": 32,
        "start": 4299
      },
      {
        "length": 32,
        "start": 4363
      }
    ]
  },
  "source": "// SPDX-License-Identifier: MIT\npragma solidity 0.8.9;\n\nimport \"@openzeppelin/contracts-upgradeable/token/ERC1155/ERC1155Upgradeable.sol\";\nimport \"@openzeppelin/contracts-upgradeable/access/AccessControlUpgradeable.sol\";\nimport \"@openzeppelin/contracts-upgradeable/token/ERC1155/extensions/ERC1155BurnableUpgradeable.sol\";\nimport \"@openzeppelin/contracts-upgradeable/proxy/utils/Initializable.sol\";\nimport \"@openzeppelin/contracts-upgradeable/proxy/utils/UUPSUpgradeable.sol\";\nimport \"@openzeppelin/contracts-upgradeable/utils/CountersUpgradeable.sol\";\nimport \"./MelandNFTFreeze.sol\";\nimport \"./MelandTierAddressStore.sol\";\nimport \"./MelandAccessRoles.sol\";\nimport \"./MelandTier.sol\";\nimport \"./Meland1155StoreItem.sol\";\n\ncontract Meland1155LandFuture is\n    Initializable,\n    MelandTierAddressStore,\n    MelandAccessRoles,\n    ERC1155BurnableUpgradeable,\n    MelandNFTFreeze,\n    Meland1155StoreItem,\n    UUPSUpgradeable\n{\n    using CountersUpgradeable for CountersUpgradeable.Counter;\n\n    CountersUpgradeable.Counter private _tokenIdCounter;\n    bytes public constant vipland1x1 = \"vipland1x1\";\n    bytes public constant vipland2x2 = \"vipland2x2\";\n    bytes public constant vipland4x4 = \"vipland4x4\";\n    mapping(bytes => bool) public supportLandtypes;\n    mapping(uint256 => string) public landtypeById;\n    mapping(bytes32 => uint256) public totalSupplyByLandtype;\n    mapping(address => bool) public canBuyListByAddress;\n\n    function initialize(string memory _uri) public initializer {\n        __ERC1155_init(_uri);\n        __ERC1155Burnable_init();\n        __UUPSUpgradeable_init();\n        __MelandNFTFreeze_init();\n        __MelandAccessRoles_init();\n\n        supportLandtypes[vipland1x1] = true;\n        supportLandtypes[vipland2x2] = true;\n        supportLandtypes[vipland4x4] = true;\n    }\n\n    function setURI(string memory newuri) public onlyRole(GM_ROLE) {\n        _setURI(newuri);\n    }\n\n    function uint2str(uint256 _i)\n        internal\n        pure\n        returns (string memory _uintAsString)\n    {\n        if (_i == 0) {\n            return \"0\";\n        }\n        uint256 j = _i;\n        uint256 len;\n        while (j != 0) {\n            len++;\n            j /= 10;\n        }\n        bytes memory bstr = new bytes(len);\n        uint256 k = len;\n        while (_i != 0) {\n            k = k - 1;\n            uint8 temp = (48 + uint8(_i - (_i / 10) * 10));\n            bytes1 b1 = bytes1(temp);\n            bstr[k] = b1;\n            _i /= 10;\n        }\n        return string(bstr);\n    }\n\n    function uri(uint256 id)\n        public\n        view\n        virtual\n        override\n        returns (string memory)\n    {\n        string memory landtype = landtypeById[id];\n        return string(abi.encodePacked(super.uri(id), \"/\", landtype, \"/\", uint2str(id)));\n    }\n\n    function setCanBuyListByAddress(address _address, bool _b) public onlyRole(GM_ROLE) {\n        canBuyListByAddress[_address] = _b;\n    }\n\n    function melandStoreItemURI(string memory symbol)\n        external\n        view\n        returns (string memory)\n    {\n        return string(abi.encodePacked(ERC1155Upgradeable.uri(0), \"/\", symbol, \"/\"));\n    }\n\n    function isApprovedForAll(address _owner, address _operator)\n        public\n        view\n        override(MelandTierAddressStore, ERC1155Upgradeable)\n        returns (bool isOperator)\n    {\n        return super.isApprovedForAll(_owner, _operator);\n    }\n\n    function mint(\n        address account,\n        uint256 amount,\n        bytes memory landtype\n    ) public onlyRole(MINTER_ROLE) {\n        require(canBuyListByAddress[account], \"Not eligible to buy\");\n        _tokenIdCounter.increment();\n        uint256 id = _tokenIdCounter.current();\n        _mint(account, id, amount, landtype);\n    }\n\n    // Add or cancel freeze white list\n    function setFreezeWhiteList(address _account, bool _bool)\n        public\n        onlyRole(GM_ROLE)\n    {\n        _setFreezeWhite(_account, _bool);\n    }\n\n    function setMelandTier(MelandTier _tierAddress) public onlyRole(GM_ROLE) {\n        _setMelandTier(_tierAddress);\n    }\n\n    // Enable or Disable Freeze feature.\n    function setFreezeEnabled(bool _bool) public onlyRole(GM_ROLE) {\n        _setFreezeEnabled(_bool);\n    }\n\n    function _authorizeUpgrade(address newImplementation)\n        internal\n        override\n        onlyRole(UPGRADER_ROLE)\n    {}\n\n    function totalSupply(uint256 id) internal view returns (uint256) {\n        string memory lantype = landtypeById[id];\n        return totalSupplyByLandtype[keccak256(bytes(lantype))];\n    }\n\n    // The following functions are overrides required by Solidity.\n\n    function supportsInterface(bytes4 interfaceId)\n        public\n        view\n        override(ERC1155Upgradeable, AccessControlUpgradeable)\n        returns (bool)\n    {\n        return super.supportsInterface(interfaceId);\n    }\n\n    // The following functions are overrides required by Solidity.\n    function _beforeTokenTransfer(\n        address operator,\n        address from,\n        address to,\n        uint256[] memory ids,\n        uint256[] memory amounts,\n        bytes memory maybelandtype\n    ) internal override(ERC1155Upgradeable) {\n        for (uint256 i = 0; i < amounts.length; i++) {\n            require(\n                amounts[i] == 1,\n                \"Each land is unique, So there is no transfer greater than 1\"\n            );\n        }\n\n        for (uint256 i = 0; i < ids.length; i++) {\n            uint256 id = ids[i];\n\n            // check freeze\n            string memory landtype = landtypeById[id];\n\n            if (keccak256(bytes(landtype)) == keccak256(\"ticketland\")) {\n                _freezeProtect(from, to, id);\n            }\n\n            // sub totalSupply when burn token\n            if (to == address(0)) {\n                // clear lantyoe when burn\n                delete landtypeById[id];\n                totalSupplyByLandtype[keccak256(bytes(landtype))] -= 1;\n            }\n        }\n\n        // if is mint\n        // check land type is support\n        if (from == address(0)) {\n            require(\n                supportLandtypes[maybelandtype],\n                string(abi.encodePacked(maybelandtype, \"is not support\"))\n            );\n\n            for (uint256 i = 0; i < ids.length; i++) {\n                require(\n                    bytes(landtypeById[ids[i]]).length == 0,\n                    \"Make sure each land is unique\"\n                );\n                landtypeById[ids[i]] = string(maybelandtype);\n            }\n\n            totalSupplyByLandtype[keccak256(maybelandtype)] += ids.length;\n        }\n\n        super._beforeTokenTransfer(\n            operator,\n            from,\n            to,\n            ids,\n            amounts,\n            maybelandtype\n        );\n    }\n\n    // store item impl ----\n    function setAcceptedToken(IERC20Upgradeable token)\n        external\n        onlyRole(GM_ROLE)\n    {\n        _setAcceptedToken(token);\n    }\n\n    function setStore(NFTStore s) external onlyRole(GM_ROLE) {\n        _setStore(s);\n    }\n\n    function setStoreItem(string memory symbol, uint256 p)\n        external\n        onlyRole(GM_ROLE)\n    {\n        _setStoreItem(symbol, p);\n    }\n\n    function delStoreItem(string memory symbol) external onlyRole(GM_ROLE) {\n        _delStoreItem(symbol);\n    }\n\n    // If return ture, means that the mall will only have the specified id\n    // Else otherwise it will be linear mint\n    // The ids Must ensure that you can mint\n    // If multi-channel sales or mint, you need to filter out the ids that have been minted\n    // To prevent errors in the sales process\n    function melandStoreItemsRestrictPurchaseNFTIds(string memory)\n        external\n        pure\n        returns (bool, uint256[] memory)\n    {\n        uint256[] memory ids;\n        return (false, ids);\n    }\n\n    // Store to pay NFT to the selling user by calling this function,\n    // For security reasons, be sure to control the permissions to allow only MelandStore contracts to call\n    // If melandStoreItemsRestrictPurchaseNFTIds return false, the id as zero.\n    function melandStoreItemsMint(\n        string memory symbol,\n        uint256 id,\n        address to\n    ) external override returns(uint256) {\n        require(canBuyListByAddress[to], \"Not eligible to buy\");\n        super.checkMelandStoreItemsMint(symbol, id, to);\n        _tokenIdCounter.increment();\n        id = _tokenIdCounter.current();\n        _mint(to, id, 1, bytes(symbol));\n        _dispatchItemInfoUpdate();\n        return id;\n    }\n\n    // If return false, Stores will suspend sales.\n    function melandStoreSellStatus(string memory)\n        external\n        pure\n        returns (bool)\n    {\n        return true;\n    }\n\n    // If return true, it means that each person can only buy a certain amount\n    function melandStoreItemsRestrictedPurchase(string memory)\n        external\n        pure\n        returns (bool restricted, uint256 restrictLimit)\n    {\n        restricted = false;\n        restrictLimit = 1;\n    }\n}\n",
  "sourcePath": "/Users/alberthuang/code/icw/meland/contracts/Meland1155LandFuture.sol",
  "compiler": {
    "name": "solc",
    "version": "0.8.9+commit.e5eed63a.Emscripten.clang"
  },
  "schemaVersion": "3.4.3",
  "updatedAt": "2021-12-27T13:20:09.215Z",
  "networkType": "ethereum",
  "devdoc": {
    "kind": "dev",
    "methods": {
      "balanceOf(address,uint256)": {
        "details": "See {IERC1155-balanceOf}. Requirements: - `account` cannot be the zero address."
      },
      "balanceOfBatch(address[],uint256[])": {
        "details": "See {IERC1155-balanceOfBatch}. Requirements: - `accounts` and `ids` must have the same length."
      },
      "getRoleAdmin(bytes32)": {
        "details": "Returns the admin role that controls `role`. See {grantRole} and {revokeRole}. To change a role's admin, use {_setRoleAdmin}."
      },
      "grantRole(bytes32,address)": {
        "details": "Grants `role` to `account`. If `account` had not been already granted `role`, emits a {RoleGranted} event. Requirements: - the caller must have ``role``'s admin role."
      },
      "hasRole(bytes32,address)": {
        "details": "Returns `true` if `account` has been granted `role`."
      },
      "renounceRole(bytes32,address)": {
        "details": "Revokes `role` from the calling account. Roles are often managed via {grantRole} and {revokeRole}: this function's purpose is to provide a mechanism for accounts to lose their privileges if they are compromised (such as when a trusted device is misplaced). If the calling account had been revoked `role`, emits a {RoleRevoked} event. Requirements: - the caller must be `account`."
      },
      "revokeRole(bytes32,address)": {
        "details": "Revokes `role` from `account`. If `account` had been granted `role`, emits a {RoleRevoked} event. Requirements: - the caller must have ``role``'s admin role."
      },
      "safeBatchTransferFrom(address,address,uint256[],uint256[],bytes)": {
        "details": "See {IERC1155-safeBatchTransferFrom}."
      },
      "safeTransferFrom(address,address,uint256,uint256,bytes)": {
        "details": "See {IERC1155-safeTransferFrom}."
      },
      "setApprovalForAll(address,bool)": {
        "details": "See {IERC1155-setApprovalForAll}."
      },
      "upgradeTo(address)": {
        "details": "Upgrade the implementation of the proxy to `newImplementation`. Calls {_authorizeUpgrade}. Emits an {Upgraded} event."
      },
      "upgradeToAndCall(address,bytes)": {
        "details": "Upgrade the implementation of the proxy to `newImplementation`, and subsequently execute the function call encoded in `data`. Calls {_authorizeUpgrade}. Emits an {Upgraded} event."
      }
    },
    "version": 1
  },
  "userdoc": {
    "kind": "user",
    "methods": {},
    "version": 1
  }
}