{
  "contractName": "Meland1155Wearable",
  "abi": [
    {
      "anonymous": false,
      "inputs": [
        {
          "indexed": false,
          "internalType": "address",
          "name": "previousAdmin",
          "type": "address"
        },
        {
          "indexed": false,
          "internalType": "address",
          "name": "newAdmin",
          "type": "address"
        }
      ],
      "name": "AdminChanged",
      "type": "event"
    },
    {
      "anonymous": false,
      "inputs": [
        {
          "indexed": true,
          "internalType": "address",
          "name": "account",
          "type": "address"
        },
        {
          "indexed": true,
          "internalType": "address",
          "name": "operator",
          "type": "address"
        },
        {
          "indexed": false,
          "internalType": "bool",
          "name": "approved",
          "type": "bool"
        }
      ],
      "name": "ApprovalForAll",
      "type": "event"
    },
    {
      "anonymous": false,
      "inputs": [
        {
          "indexed": true,
          "internalType": "address",
          "name": "beacon",
          "type": "address"
        }
      ],
      "name": "BeaconUpgraded",
      "type": "event"
    },
    {
      "anonymous": false,
      "inputs": [
        {
          "indexed": false,
          "internalType": "bool",
          "name": "_freezeEnabled",
          "type": "bool"
        }
      ],
      "name": "FreezeEnabledUpdate",
      "type": "event"
    },
    {
      "anonymous": false,
      "inputs": [
        {
          "indexed": true,
          "internalType": "bytes",
          "name": "rarity",
          "type": "bytes"
        },
        {
          "indexed": false,
          "internalType": "uint256",
          "name": "mintMax",
          "type": "uint256"
        }
      ],
      "name": "RarityUpdate",
      "type": "event"
    },
    {
      "anonymous": false,
      "inputs": [
        {
          "indexed": true,
          "internalType": "bytes32",
          "name": "role",
          "type": "bytes32"
        },
        {
          "indexed": true,
          "internalType": "bytes32",
          "name": "previousAdminRole",
          "type": "bytes32"
        },
        {
          "indexed": true,
          "internalType": "bytes32",
          "name": "newAdminRole",
          "type": "bytes32"
        }
      ],
      "name": "RoleAdminChanged",
      "type": "event"
    },
    {
      "anonymous": false,
      "inputs": [
        {
          "indexed": true,
          "internalType": "bytes32",
          "name": "role",
          "type": "bytes32"
        },
        {
          "indexed": true,
          "internalType": "address",
          "name": "account",
          "type": "address"
        },
        {
          "indexed": true,
          "internalType": "address",
          "name": "sender",
          "type": "address"
        }
      ],
      "name": "RoleGranted",
      "type": "event"
    },
    {
      "anonymous": false,
      "inputs": [
        {
          "indexed": true,
          "internalType": "bytes32",
          "name": "role",
          "type": "bytes32"
        },
        {
          "indexed": true,
          "internalType": "address",
          "name": "account",
          "type": "address"
        },
        {
          "indexed": true,
          "internalType": "address",
          "name": "sender",
          "type": "address"
        }
      ],
      "name": "RoleRevoked",
      "type": "event"
    },
    {
      "anonymous": false,
      "inputs": [
        {
          "indexed": true,
          "internalType": "address",
          "name": "operator",
          "type": "address"
        },
        {
          "indexed": true,
          "internalType": "address",
          "name": "from",
          "type": "address"
        },
        {
          "indexed": true,
          "internalType": "address",
          "name": "to",
          "type": "address"
        },
        {
          "indexed": false,
          "internalType": "uint256[]",
          "name": "ids",
          "type": "uint256[]"
        },
        {
          "indexed": false,
          "internalType": "uint256[]",
          "name": "values",
          "type": "uint256[]"
        }
      ],
      "name": "TransferBatch",
      "type": "event"
    },
    {
      "anonymous": false,
      "inputs": [
        {
          "indexed": true,
          "internalType": "address",
          "name": "operator",
          "type": "address"
        },
        {
          "indexed": true,
          "internalType": "address",
          "name": "from",
          "type": "address"
        },
        {
          "indexed": true,
          "internalType": "address",
          "name": "to",
          "type": "address"
        },
        {
          "indexed": false,
          "internalType": "uint256",
          "name": "id",
          "type": "uint256"
        },
        {
          "indexed": false,
          "internalType": "uint256",
          "name": "value",
          "type": "uint256"
        }
      ],
      "name": "TransferSingle",
      "type": "event"
    },
    {
      "anonymous": false,
      "inputs": [
        {
          "indexed": false,
          "internalType": "string",
          "name": "value",
          "type": "string"
        },
        {
          "indexed": true,
          "internalType": "uint256",
          "name": "id",
          "type": "uint256"
        }
      ],
      "name": "URI",
      "type": "event"
    },
    {
      "anonymous": false,
      "inputs": [
        {
          "indexed": true,
          "internalType": "address",
          "name": "implementation",
          "type": "address"
        }
      ],
      "name": "Upgraded",
      "type": "event"
    },
    {
      "inputs": [],
      "name": "DEFAULT_ADMIN_ROLE",
      "outputs": [
        {
          "internalType": "bytes32",
          "name": "",
          "type": "bytes32"
        }
      ],
      "stateMutability": "view",
      "type": "function",
      "constant": true
    },
    {
      "inputs": [],
      "name": "GM_ROLE",
      "outputs": [
        {
          "internalType": "bytes32",
          "name": "",
          "type": "bytes32"
        }
      ],
      "stateMutability": "view",
      "type": "function",
      "constant": true
    },
    {
      "inputs": [],
      "name": "MINTER_ROLE",
      "outputs": [
        {
          "internalType": "bytes32",
          "name": "",
          "type": "bytes32"
        }
      ],
      "stateMutability": "view",
      "type": "function",
      "constant": true
    },
    {
      "inputs": [],
      "name": "UPGRADER_ROLE",
      "outputs": [
        {
          "internalType": "bytes32",
          "name": "",
          "type": "bytes32"
        }
      ],
      "stateMutability": "view",
      "type": "function",
      "constant": true
    },
    {
      "inputs": [
        {
          "internalType": "string",
          "name": "",
          "type": "string"
        }
      ],
      "name": "acceptedToken",
      "outputs": [
        {
          "internalType": "contract IERC20Upgradeable",
          "name": "",
          "type": "address"
        }
      ],
      "stateMutability": "view",
      "type": "function",
      "constant": true
    },
    {
      "inputs": [
        {
          "internalType": "address",
          "name": "account",
          "type": "address"
        },
        {
          "internalType": "uint256",
          "name": "id",
          "type": "uint256"
        }
      ],
      "name": "balanceOf",
      "outputs": [
        {
          "internalType": "uint256",
          "name": "",
          "type": "uint256"
        }
      ],
      "stateMutability": "view",
      "type": "function",
      "constant": true
    },
    {
      "inputs": [
        {
          "internalType": "address[]",
          "name": "accounts",
          "type": "address[]"
        },
        {
          "internalType": "uint256[]",
          "name": "ids",
          "type": "uint256[]"
        }
      ],
      "name": "balanceOfBatch",
      "outputs": [
        {
          "internalType": "uint256[]",
          "name": "",
          "type": "uint256[]"
        }
      ],
      "stateMutability": "view",
      "type": "function",
      "constant": true
    },
    {
      "inputs": [
        {
          "internalType": "address",
          "name": "account",
          "type": "address"
        },
        {
          "internalType": "uint256",
          "name": "id",
          "type": "uint256"
        },
        {
          "internalType": "uint256",
          "name": "value",
          "type": "uint256"
        }
      ],
      "name": "burn",
      "outputs": [],
      "stateMutability": "nonpayable",
      "type": "function"
    },
    {
      "inputs": [
        {
          "internalType": "address",
          "name": "account",
          "type": "address"
        },
        {
          "internalType": "uint256[]",
          "name": "ids",
          "type": "uint256[]"
        },
        {
          "internalType": "uint256[]",
          "name": "values",
          "type": "uint256[]"
        }
      ],
      "name": "burnBatch",
      "outputs": [],
      "stateMutability": "nonpayable",
      "type": "function"
    },
    {
      "inputs": [
        {
          "internalType": "uint256",
          "name": "id",
          "type": "uint256"
        }
      ],
      "name": "getCidByTokenId",
      "outputs": [
        {
          "internalType": "uint256",
          "name": "",
          "type": "uint256"
        }
      ],
      "stateMutability": "view",
      "type": "function",
      "constant": true
    },
    {
      "inputs": [
        {
          "internalType": "uint256",
          "name": "cid",
          "type": "uint256"
        }
      ],
      "name": "getRarityByCId",
      "outputs": [
        {
          "internalType": "string",
          "name": "",
          "type": "string"
        }
      ],
      "stateMutability": "view",
      "type": "function",
      "constant": true
    },
    {
      "inputs": [
        {
          "internalType": "uint256",
          "name": "id",
          "type": "uint256"
        }
      ],
      "name": "getRarityById",
      "outputs": [
        {
          "internalType": "string",
          "name": "",
          "type": "string"
        }
      ],
      "stateMutability": "view",
      "type": "function",
      "constant": true
    },
    {
      "inputs": [
        {
          "internalType": "bytes32",
          "name": "role",
          "type": "bytes32"
        }
      ],
      "name": "getRoleAdmin",
      "outputs": [
        {
          "internalType": "bytes32",
          "name": "",
          "type": "bytes32"
        }
      ],
      "stateMutability": "view",
      "type": "function",
      "constant": true
    },
    {
      "inputs": [
        {
          "internalType": "bytes32",
          "name": "role",
          "type": "bytes32"
        },
        {
          "internalType": "address",
          "name": "account",
          "type": "address"
        }
      ],
      "name": "grantRole",
      "outputs": [],
      "stateMutability": "nonpayable",
      "type": "function"
    },
    {
      "inputs": [
        {
          "internalType": "bytes32",
          "name": "role",
          "type": "bytes32"
        },
        {
          "internalType": "address",
          "name": "account",
          "type": "address"
        }
      ],
      "name": "hasRole",
      "outputs": [
        {
          "internalType": "bool",
          "name": "",
          "type": "bool"
        }
      ],
      "stateMutability": "view",
      "type": "function",
      "constant": true
    },
    {
      "inputs": [
        {
          "internalType": "address",
          "name": "_owner",
          "type": "address"
        },
        {
          "internalType": "address",
          "name": "_operator",
          "type": "address"
        }
      ],
      "name": "isApprovedForAll",
      "outputs": [
        {
          "internalType": "bool",
          "name": "isOperator",
          "type": "bool"
        }
      ],
      "stateMutability": "view",
      "type": "function",
      "constant": true
    },
    {
      "inputs": [],
      "name": "melandStoreItems",
      "outputs": [
        {
          "internalType": "string[]",
          "name": "",
          "type": "string[]"
        },
        {
          "internalType": "uint256[]",
          "name": "",
          "type": "uint256[]"
        }
      ],
      "stateMutability": "view",
      "type": "function",
      "constant": true
    },
    {
      "inputs": [
        {
          "internalType": "string",
          "name": "",
          "type": "string"
        }
      ],
      "name": "melandStoreReceipt",
      "outputs": [
        {
          "internalType": "address",
          "name": "receipt",
          "type": "address"
        }
      ],
      "stateMutability": "pure",
      "type": "function",
      "constant": true
    },
    {
      "inputs": [
        {
          "internalType": "bytes32",
          "name": "",
          "type": "bytes32"
        }
      ],
      "name": "mintMaxByRaritykeccak256",
      "outputs": [
        {
          "internalType": "uint256",
          "name": "",
          "type": "uint256"
        }
      ],
      "stateMutability": "view",
      "type": "function",
      "constant": true
    },
    {
      "inputs": [
        {
          "internalType": "string",
          "name": "_a",
          "type": "string"
        }
      ],
      "name": "parseInt",
      "outputs": [
        {
          "internalType": "uint256",
          "name": "_parsedInt",
          "type": "uint256"
        }
      ],
      "stateMutability": "pure",
      "type": "function",
      "constant": true
    },
    {
      "inputs": [
        {
          "internalType": "string",
          "name": "_a",
          "type": "string"
        },
        {
          "internalType": "uint256",
          "name": "_b",
          "type": "uint256"
        }
      ],
      "name": "parseInt",
      "outputs": [
        {
          "internalType": "uint256",
          "name": "_parsedInt",
          "type": "uint256"
        }
      ],
      "stateMutability": "pure",
      "type": "function",
      "constant": true
    },
    {
      "inputs": [
        {
          "internalType": "bytes32",
          "name": "role",
          "type": "bytes32"
        },
        {
          "internalType": "address",
          "name": "account",
          "type": "address"
        }
      ],
      "name": "renounceRole",
      "outputs": [],
      "stateMutability": "nonpayable",
      "type": "function"
    },
    {
      "inputs": [
        {
          "internalType": "bytes32",
          "name": "role",
          "type": "bytes32"
        },
        {
          "internalType": "address",
          "name": "account",
          "type": "address"
        }
      ],
      "name": "revokeRole",
      "outputs": [],
      "stateMutability": "nonpayable",
      "type": "function"
    },
    {
      "inputs": [
        {
          "internalType": "address",
          "name": "from",
          "type": "address"
        },
        {
          "internalType": "address",
          "name": "to",
          "type": "address"
        },
        {
          "internalType": "uint256[]",
          "name": "ids",
          "type": "uint256[]"
        },
        {
          "internalType": "uint256[]",
          "name": "amounts",
          "type": "uint256[]"
        },
        {
          "internalType": "bytes",
          "name": "data",
          "type": "bytes"
        }
      ],
      "name": "safeBatchTransferFrom",
      "outputs": [],
      "stateMutability": "nonpayable",
      "type": "function"
    },
    {
      "inputs": [
        {
          "internalType": "string",
          "name": "_a",
          "type": "string"
        }
      ],
      "name": "safeParseInt",
      "outputs": [
        {
          "internalType": "uint256",
          "name": "_parsedInt",
          "type": "uint256"
        }
      ],
      "stateMutability": "pure",
      "type": "function",
      "constant": true
    },
    {
      "inputs": [
        {
          "internalType": "string",
          "name": "_a",
          "type": "string"
        },
        {
          "internalType": "uint256",
          "name": "_b",
          "type": "uint256"
        }
      ],
      "name": "safeParseInt",
      "outputs": [
        {
          "internalType": "uint256",
          "name": "_parsedInt",
          "type": "uint256"
        }
      ],
      "stateMutability": "pure",
      "type": "function",
      "constant": true
    },
    {
      "inputs": [
        {
          "internalType": "address",
          "name": "from",
          "type": "address"
        },
        {
          "internalType": "address",
          "name": "to",
          "type": "address"
        },
        {
          "internalType": "uint256",
          "name": "id",
          "type": "uint256"
        },
        {
          "internalType": "uint256",
          "name": "amount",
          "type": "uint256"
        },
        {
          "internalType": "bytes",
          "name": "data",
          "type": "bytes"
        }
      ],
      "name": "safeTransferFrom",
      "outputs": [],
      "stateMutability": "nonpayable",
      "type": "function"
    },
    {
      "inputs": [
        {
          "internalType": "address",
          "name": "operator",
          "type": "address"
        },
        {
          "internalType": "bool",
          "name": "approved",
          "type": "bool"
        }
      ],
      "name": "setApprovalForAll",
      "outputs": [],
      "stateMutability": "nonpayable",
      "type": "function"
    },
    {
      "inputs": [
        {
          "internalType": "uint256",
          "name": "id",
          "type": "uint256"
        }
      ],
      "name": "totalSupply",
      "outputs": [
        {
          "internalType": "uint256",
          "name": "",
          "type": "uint256"
        }
      ],
      "stateMutability": "view",
      "type": "function",
      "constant": true
    },
    {
      "inputs": [
        {
          "internalType": "uint256",
          "name": "cid",
          "type": "uint256"
        }
      ],
      "name": "totalSupplyByCId",
      "outputs": [
        {
          "internalType": "uint256",
          "name": "",
          "type": "uint256"
        }
      ],
      "stateMutability": "view",
      "type": "function",
      "constant": true
    },
    {
      "inputs": [
        {
          "internalType": "address",
          "name": "newImplementation",
          "type": "address"
        }
      ],
      "name": "upgradeTo",
      "outputs": [],
      "stateMutability": "nonpayable",
      "type": "function"
    },
    {
      "inputs": [
        {
          "internalType": "address",
          "name": "newImplementation",
          "type": "address"
        },
        {
          "internalType": "bytes",
          "name": "data",
          "type": "bytes"
        }
      ],
      "name": "upgradeToAndCall",
      "outputs": [],
      "stateMutability": "payable",
      "type": "function",
      "payable": true
    },
    {
      "inputs": [
        {
          "internalType": "uint256",
          "name": "id",
          "type": "uint256"
        }
      ],
      "name": "uri",
      "outputs": [
        {
          "internalType": "string",
          "name": "",
          "type": "string"
        }
      ],
      "stateMutability": "view",
      "type": "function",
      "constant": true
    },
    {
      "inputs": [
        {
          "internalType": "string",
          "name": "uri",
          "type": "string"
        }
      ],
      "name": "initialize",
      "outputs": [],
      "stateMutability": "nonpayable",
      "type": "function"
    },
    {
      "inputs": [
        {
          "internalType": "string",
          "name": "newuri",
          "type": "string"
        }
      ],
      "name": "setURI",
      "outputs": [],
      "stateMutability": "nonpayable",
      "type": "function"
    },
    {
      "inputs": [
        {
          "internalType": "string",
          "name": "symbol",
          "type": "string"
        }
      ],
      "name": "melandStoreItemURI",
      "outputs": [
        {
          "internalType": "string",
          "name": "",
          "type": "string"
        }
      ],
      "stateMutability": "view",
      "type": "function",
      "constant": true
    },
    {
      "inputs": [
        {
          "internalType": "address",
          "name": "account",
          "type": "address"
        },
        {
          "internalType": "uint256",
          "name": "cid",
          "type": "uint256"
        },
        {
          "internalType": "uint256",
          "name": "amount",
          "type": "uint256"
        }
      ],
      "name": "mint",
      "outputs": [
        {
          "internalType": "uint256[]",
          "name": "",
          "type": "uint256[]"
        }
      ],
      "stateMutability": "nonpayable",
      "type": "function"
    },
    {
      "inputs": [
        {
          "internalType": "bytes",
          "name": "_rarity",
          "type": "bytes"
        },
        {
          "internalType": "uint256",
          "name": "mintMax",
          "type": "uint256"
        }
      ],
      "name": "setRarity",
      "outputs": [],
      "stateMutability": "nonpayable",
      "type": "function"
    },
    {
      "inputs": [
        {
          "internalType": "uint256",
          "name": "cid",
          "type": "uint256"
        },
        {
          "internalType": "bytes",
          "name": "_rarity",
          "type": "bytes"
        }
      ],
      "name": "setCIDRarity",
      "outputs": [],
      "stateMutability": "nonpayable",
      "type": "function"
    },
    {
      "inputs": [
        {
          "internalType": "contract MelandTier",
          "name": "_tierAddress",
          "type": "address"
        }
      ],
      "name": "setMelandTier",
      "outputs": [],
      "stateMutability": "nonpayable",
      "type": "function"
    },
    {
      "inputs": [
        {
          "internalType": "bytes4",
          "name": "interfaceId",
          "type": "bytes4"
        }
      ],
      "name": "supportsInterface",
      "outputs": [
        {
          "internalType": "bool",
          "name": "",
          "type": "bool"
        }
      ],
      "stateMutability": "view",
      "type": "function",
      "constant": true
    },
    {
      "inputs": [
        {
          "internalType": "contract IERC20Upgradeable",
          "name": "token",
          "type": "address"
        }
      ],
      "name": "setAcceptedToken",
      "outputs": [],
      "stateMutability": "nonpayable",
      "type": "function"
    },
    {
      "inputs": [
        {
          "internalType": "contract NFTStore",
          "name": "s",
          "type": "address"
        }
      ],
      "name": "setStore",
      "outputs": [],
      "stateMutability": "nonpayable",
      "type": "function"
    },
    {
      "inputs": [
        {
          "internalType": "string",
          "name": "symbol",
          "type": "string"
        },
        {
          "internalType": "uint256",
          "name": "price",
          "type": "uint256"
        }
      ],
      "name": "setStoreItem",
      "outputs": [],
      "stateMutability": "nonpayable",
      "type": "function"
    },
    {
      "inputs": [
        {
          "internalType": "string",
          "name": "symbol",
          "type": "string"
        }
      ],
      "name": "delStoreItem",
      "outputs": [],
      "stateMutability": "nonpayable",
      "type": "function"
    },
    {
      "inputs": [
        {
          "internalType": "string",
          "name": "",
          "type": "string"
        }
      ],
      "name": "melandStoreItemsRestrictPurchaseNFTIds",
      "outputs": [
        {
          "internalType": "bool",
          "name": "",
          "type": "bool"
        },
        {
          "internalType": "uint256[]",
          "name": "",
          "type": "uint256[]"
        }
      ],
      "stateMutability": "pure",
      "type": "function",
      "constant": true
    },
    {
      "inputs": [
        {
          "internalType": "string",
          "name": "symbol",
          "type": "string"
        },
        {
          "internalType": "uint256",
          "name": "id",
          "type": "uint256"
        },
        {
          "internalType": "address",
          "name": "to",
          "type": "address"
        }
      ],
      "name": "melandStoreItemsMint",
      "outputs": [
        {
          "internalType": "uint256",
          "name": "",
          "type": "uint256"
        }
      ],
      "stateMutability": "nonpayable",
      "type": "function"
    },
    {
      "inputs": [
        {
          "internalType": "string",
          "name": "symbol",
          "type": "string"
        }
      ],
      "name": "test",
      "outputs": [
        {
          "internalType": "uint256",
          "name": "",
          "type": "uint256"
        }
      ],
      "stateMutability": "pure",
      "type": "function",
      "constant": true
    },
    {
      "inputs": [
        {
          "internalType": "string",
          "name": "symbol",
          "type": "string"
        }
      ],
      "name": "melandStoreSellStatus",
      "outputs": [
        {
          "internalType": "bool",
          "name": "",
          "type": "bool"
        }
      ],
      "stateMutability": "view",
      "type": "function",
      "constant": true
    },
    {
      "inputs": [
        {
          "internalType": "string",
          "name": "",
          "type": "string"
        }
      ],
      "name": "melandStoreItemsRestrictedPurchase",
      "outputs": [
        {
          "internalType": "bool",
          "name": "restricted",
          "type": "bool"
        },
        {
          "internalType": "uint256",
          "name": "restrictLimit",
          "type": "uint256"
        }
      ],
      "stateMutability": "pure",
      "type": "function",
      "constant": true
    }
  ],
  "bytecode": "0x60a06040523060805234801561001457600080fd5b5060805161497261004560003960008181610d2b01528181610d6b01528181610f2a0152610f6a01526149726000f3fe6080604052600436106102c85760003560e01c806390ad941d11610175578063d3186324116100dc578063f405a58411610095578063f70e9a471161006f578063f70e9a471461095c578063f72c0d8b1461097c578063f9fbd554146109b0578063fcc6dd57146109d057600080fd5b8063f405a584146108fc578063f5298aca1461091c578063f62d18881461093c57600080fd5b8063d31863241461081b578063d539139314610848578063d547741f1461087c578063e985e9c51461089c578063ed9be432146108bc578063f242432a146108dc57600080fd5b8063a649e7a51161012e578063a649e7a51461074e578063b0c208bc1461077b578063bd85b0391461079b578063bdb7b5dd146107bb578063be7cbe75146107db578063bf4d89b5146107fb57600080fd5b806390ad941d1461068757806391d14854146106a75780639294f212146106c75780639f89e769146106e7578063a217fddf14610719578063a22cb4651461072e57600080fd5b806330c7be2c116102345780634f1ef286116101ed5780636b20c454116101c75780636b20c454146106045780637487f5281461062457806377937c05146106445780638b31e62d1461066457600080fd5b80634f1ef286146105855780635eccb30c14610598578063664033d5146105b857600080fd5b806330c7be2c146104b657806336568abe146104d85780633659cfe6146104f85780633ef780bc1461051857806342346c5e146105455780634e1273f41461056557600080fd5b8063156e29f611610286578063156e29f6146103d95780631a8c2e80146104065780631ba43d2b14610426578063248a9ca3146104465780632eb2c2d6146104765780632f2ff15d1461049657600080fd5b8062fdd58e146102cd57806301ffc9a71461030057806302fe5305146103305780630820c90d14610352578063087cbd401461038c5780630e89341c146103ac575b600080fd5b3480156102d957600080fd5b506102ed6102e836600461386d565b6109fc565b6040519081526020015b60405180910390f35b34801561030c57600080fd5b5061032061031b3660046138af565b610a98565b60405190151581526020016102f7565b34801561033c57600080fd5b5061035061034b366004613981565b610aa3565b005b34801561035e57600080fd5b5061037561036d366004613981565b506000908190565b6040805192151583526020830191909152016102f7565b34801561039857600080fd5b506103506103a73660046139bd565b610ac9565b3480156103b857600080fd5b506103cc6103c73660046139da565b610aeb565b6040516102f79190613a4b565b3480156103e557600080fd5b506103f96103f4366004613a5e565b610af6565b6040516102f79190613ace565b34801561041257600080fd5b506102ed610421366004613ae1565b610b47565b34801561043257600080fd5b50610320610441366004613981565b610bb0565b34801561045257600080fd5b506102ed6104613660046139da565b600090815260cf602052604090206001015490565b34801561048257600080fd5b50610350610491366004613bcf565b610be4565b3480156104a257600080fd5b506103506104b1366004613c7c565b610c7b565b3480156104c257600080fd5b506102ed60008051602061491d83398151915281565b3480156104e457600080fd5b506103506104f3366004613c7c565b610ca6565b34801561050457600080fd5b506103506105133660046139bd565b610d20565b34801561052457600080fd5b506102ed6105333660046139da565b600090815260ca602052604090205490565b34801561055157600080fd5b506102ed610560366004613981565b610de9565b34801561057157600080fd5b506103f9610580366004613cac565b610df6565b610350610593366004613d78565b610f1f565b3480156105a457600080fd5b506102ed6105b3366004613981565b610fd5565b3480156105c457600080fd5b506105ec6105d3366004613981565b5073fced262e4949b7b5c4177b4e0ad8e974cc7493bf90565b6040516001600160a01b0390911681526020016102f7565b34801561061057600080fd5b5061035061061f366004613dbd565b610fe2565b34801561063057600080fd5b5061035061063f3660046139bd565b611025565b34801561065057600080fd5b5061035061065f366004613e32565b611047565b34801561067057600080fd5b5061067961106a565b6040516102f7929190613e62565b34801561069357600080fd5b506103cc6106a23660046139da565b6111a0565b3480156106b357600080fd5b506103206106c2366004613c7c565b611242565b3480156106d357600080fd5b506103506106e2366004613ecf565b61126d565b3480156106f357600080fd5b5061070b610702366004613981565b50600090606090565b6040516102f7929190613f13565b34801561072557600080fd5b506102ed600081565b34801561073a57600080fd5b50610350610749366004613f2e565b611290565b34801561075a57600080fd5b506102ed6107693660046139da565b60cd6020526000908152604090205481565b34801561078757600080fd5b50610350610796366004613981565b61129b565b3480156107a757600080fd5b506102ed6107b63660046139da565b6112bd565b3480156107c757600080fd5b506103506107d6366004613ecf565b6112ef565b3480156107e757600080fd5b506103cc6107f63660046139da565b611312565b34801561080757600080fd5b506102ed610816366004613ecf565b6113c8565b34801561082757600080fd5b506102ed6108363660046139da565b600090815260cb602052604090205490565b34801561085457600080fd5b506102ed7f9f2df0fed2c77648de5860a4cc508cd0818c85b8b8a1ab4ceeef8d981c8956a681565b34801561088857600080fd5b50610350610897366004613c7c565b6114e5565b3480156108a857600080fd5b506103206108b7366004613f61565b61150b565b3480156108c857600080fd5b506102ed6108d7366004613ecf565b611517565b3480156108e857600080fd5b506103506108f7366004613f8f565b6116d0565b34801561090857600080fd5b506103cc610917366004613981565b611715565b34801561092857600080fd5b50610350610937366004613a5e565b611749565b34801561094857600080fd5b50610350610957366004613981565b61178c565b34801561096857600080fd5b506103506109773660046139bd565b611817565b34801561098857600080fd5b506102ed7f189ab7a9244df0848122154315af71fe140f3db0fe014031783b0946b8c9d2e381565b3480156109bc57600080fd5b506102ed6109cb366004613981565b61184f565b3480156109dc57600080fd5b506105ec6109eb366004613981565b50610102546001600160a01b031690565b60006001600160a01b038316610a6d5760405162461bcd60e51b815260206004820152602b60248201527f455243313135353a2062616c616e636520717565727920666f7220746865207a60448201526a65726f206164647265737360a81b60648201526084015b60405180910390fd5b5060008181526065602090815260408083206001600160a01b03861684529091529020545b92915050565b6000610a928261185a565b60008051602061491d833981519152610abc813361187f565b610ac5826118e3565b5050565b60008051602061491d833981519152610ae2813361187f565b610ac5826118f6565b6060610a928261191a565b60607f9f2df0fed2c77648de5860a4cc508cd0818c85b8b8a1ab4ceeef8d981c8956a6610b23813361187f565b610b3e85858560405180602001604052806000815250611970565b95945050505050565b6000610b54848484611a72565b6000610b5f85611ad6565b90506000610b7f8483600160405180602001604052806000815250611970565b9050610b89611ae1565b80600081518110610b9c57610b9c613ff7565b6020026020010151925050505b9392505050565b600080610bbc83611ad6565b90506000610bc982611b54565b600092835260cb602052604090922054919091109392505050565b6001600160a01b038516331480610c005750610c00853361150b565b610c675760405162461bcd60e51b815260206004820152603260248201527f455243313135353a207472616e736665722063616c6c6572206973206e6f74206044820152711bdddb995c881b9bdc88185c1c1c9bdd995960721b6064820152608401610a64565b610c748585858585611c0e565b5050505050565b600082815260cf6020526040902060010154610c97813361187f565b610ca18383611dbb565b505050565b6001600160a01b0381163314610d165760405162461bcd60e51b815260206004820152602f60248201527f416363657373436f6e74726f6c3a2063616e206f6e6c792072656e6f756e636560448201526e103937b632b9903337b91039b2b63360891b6064820152608401610a64565b610ac58282611e41565b306001600160a01b037f0000000000000000000000000000000000000000000000000000000000000000161415610d695760405162461bcd60e51b8152600401610a649061400d565b7f00000000000000000000000000000000000000000000000000000000000000006001600160a01b0316610d9b611ea8565b6001600160a01b031614610dc15760405162461bcd60e51b8152600401610a6490614059565b610dca81611ed6565b60408051600080825260208201909252610de691839190611f01565b50565b6000610a928260006113c8565b60608151835114610e5b5760405162461bcd60e51b815260206004820152602960248201527f455243313135353a206163636f756e747320616e6420696473206c656e677468604482015268040dad2e6dac2e8c6d60bb1b6064820152608401610a64565b600083516001600160401b03811115610e7657610e766138cc565b604051908082528060200260200182016040528015610e9f578160200160208202803683370190505b50905060005b8451811015610f1757610eea858281518110610ec357610ec3613ff7565b6020026020010151858381518110610edd57610edd613ff7565b60200260200101516109fc565b828281518110610efc57610efc613ff7565b6020908102919091010152610f10816140bb565b9050610ea5565b509392505050565b306001600160a01b037f0000000000000000000000000000000000000000000000000000000000000000161415610f685760405162461bcd60e51b8152600401610a649061400d565b7f00000000000000000000000000000000000000000000000000000000000000006001600160a01b0316610f9a611ea8565b6001600160a01b031614610fc05760405162461bcd60e51b8152600401610a6490614059565b610fc982611ed6565b610ac582826001611f01565b6000610a92826000611517565b6001600160a01b038316331480610ffe5750610ffe833361150b565b61101a5760405162461bcd60e51b8152600401610a64906140d6565b610ca1838383612045565b60008051602061491d83398151915261103e813361187f565b610ac5826121d6565b60008051602061491d833981519152611060813361187f565b610ca183836121fa565b60608061010361010481805480602002602001604051908101604052809291908181526020016000905b828210156111405783829060005260206000200180546110b39061411f565b80601f01602080910402602001604051908101604052809291908181526020018280546110df9061411f565b801561112c5780601f106111015761010080835404028352916020019161112c565b820191906000526020600020905b81548152906001019060200180831161110f57829003601f168201915b505050505081526020019060010190611094565b5050505091508080548060200260200160405190810160405280929190818152602001828054801561119157602002820191906000526020600020905b81548152602001906001019080831161117d575b50505050509050915091509091565b600081815260ce602052604090208054606091906111bd9061411f565b80601f01602080910402602001604051908101604052809291908181526020018280546111e99061411f565b80156112365780601f1061120b57610100808354040283529160200191611236565b820191906000526020600020905b81548152906001019060200180831161121957829003601f168201915b50505050509050919050565b600091825260cf602090815260408084206001600160a01b0393909316845291905290205460ff1690565b60008051602061491d833981519152611286813361187f565b610ca18383612219565b610ac5338383612284565b60008051602061491d8339815191526112b4813361187f565b610ac582612365565b600081815260ca6020526040812054806112da5750600092915050565b600090815260cb602052604090205492915050565b60008051602061491d833981519152611308813361187f565b610ca1838361256f565b600081815260ca602052604081205460609190600081815260ce602052604090208054919250906113429061411f565b80601f016020809104026020016040519081016040528092919081815260200182805461136e9061411f565b80156113bb5780601f10611390576101008083540402835291602001916113bb565b820191906000526020600020905b81548152906001019060200180831161139e57829003601f168201915b5050505050915050919050565b6000828180805b83518110156114bd5760308482815181106113ec576113ec613ff7565b016020015160f81c1080159061141c5750603984828151811061141157611411613ff7565b016020015160f81c11155b1561148357811561143f5785611431576114bd565b8561143b8161415a565b9650505b61144a600a84614171565b9250603084828151811061146057611460613ff7565b0160200151611472919060f81c614190565b61147c90846141a7565b92506114ab565b83818151811061149557611495613ff7565b60209101015160f81c602e14156114ab57600191505b806114b5816140bb565b9150506113cf565b5084156114dc576114cf85600a6142a3565b6114d99083614171565b91505b50949350505050565b600082815260cf6020526040902060010154611501813361187f565b610ca18383611e41565b6000610ba983836126ec565b6000828180805b83518110156114bd57603084828151811061153b5761153b613ff7565b016020015160f81c1080159061156b5750603984828151811061156057611560613ff7565b016020015160f81c11155b156115d257811561158e5785611580576114bd565b8561158a8161415a565b9650505b611599600a84614171565b925060308482815181106115af576115af613ff7565b01602001516115c1919060f81c614190565b6115cb90846141a7565b92506116be565b8381815181106115e4576115e4613ff7565b60209101015160f81c602e14156116615781156116585760405162461bcd60e51b815260206004820152602c60248201527f4d6f7265207468616e206f6e6520646563696d616c20656e636f756e7465726560448201526b6420696e20737472696e672160a01b6064820152608401610a64565b600191506116be565b60405162461bcd60e51b815260206004820152602c60248201527f4e6f6e2d6e756d6572616c2063686172616374657220656e636f756e7465726560448201526b6420696e20737472696e672160a01b6064820152608401610a64565b806116c8816140bb565b91505061151e565b6001600160a01b0385163314806116ec57506116ec853361150b565b6117085760405162461bcd60e51b8152600401610a64906140d6565b610c748585858585612767565b60606117216000612897565b826040516020016117339291906142af565b6040516020818303038152906040529050919050565b6001600160a01b0383163314806117655750611765833361150b565b6117815760405162461bcd60e51b8152600401610a64906140d6565b610ca18383836128a6565b600054610100900460ff166117a75760005460ff16156117ab565b303b155b6117c75760405162461bcd60e51b8152600401610a64906142ff565b600054610100900460ff161580156117e9576000805461ffff19166101011790555b6117f16129ab565b6117fa826129e2565b611802612ab6565b8015610ac5576000805461ff00191690555050565b60008051602061491d833981519152611830813361187f565b60cc80546001600160a01b0319166001600160a01b0384161790555050565b6000610a9282611ad6565b60006001600160e01b03198216637965db0b60e01b1480610a925750610a9282612b35565b6118898282611242565b610ac5576118a1816001600160a01b03166014612b85565b6118ac836020612b85565b6040516020016118bd92919061434d565b60408051601f198184030181529082905262461bcd60e51b8252610a6491600401613a4b565b8051610ac5906067906020840190613789565b61010180546001600160a01b0319166001600160a01b038316179055610de6611ae1565b600081815260ca602052604090205460609061193583612897565b61193e82612d20565b61194785612d20565b604051602001611959939291906143c2565b604051602081830303815290604052915050919050565b60606000836001600160401b0381111561198c5761198c6138cc565b6040519080825280602002602001820160405280156119b5578160200160208202803683370190505b50905060008411611a125760405162461bcd60e51b815260206004820152602160248201527f54686520616d6f756e74206d7573742062652067726561746572207468616e206044820152600360fc1b6064820152608401610a64565b60005b84811015611a68576000611a2887612e3f565b9050611a378882600188612e73565b80838381518110611a4a57611a4a613ff7565b60209081029190910101525080611a60816140bb565b915050611a15565b5095945050505050565b610101546001600160a01b0316336001600160a01b031614610ca15760405162461bcd60e51b815260206004820152601f60248201527f416c6c6f77206f6e6c79204d656c616e642e6169206d616c6c2063616c6c73006044820152606401610a64565b6000610a9282610de9565b610101546001600160a01b031615611b52576101015460405163fa21a11d60e01b81523060048201526001600160a01b039091169063fa21a11d90602401600060405180830381600087803b158015611b3957600080fd5b505af1158015611b4d573d6000803e3d6000fd5b505050505b565b600081815260ce602052604081208054829190611b709061411f565b80601f0160208091040260200160405190810160405280929190818152602001828054611b9c9061411f565b8015611be95780601f10611bbe57610100808354040283529160200191611be9565b820191906000526020600020905b815481529060010190602001808311611bcc57829003601f168201915b50505050509050610ba9818051602091820120600090815260cd909152604090205490565b8151835114611c2f5760405162461bcd60e51b8152600401610a649061441c565b6001600160a01b038416611c555760405162461bcd60e51b8152600401610a6490614464565b33611c64818787878787612f76565b60005b8451811015611d4d576000858281518110611c8457611c84613ff7565b602002602001015190506000858381518110611ca257611ca2613ff7565b60209081029190910181015160008481526065835260408082206001600160a01b038e168352909352919091205490915081811015611cf35760405162461bcd60e51b8152600401610a64906144a9565b60008381526065602090815260408083206001600160a01b038e8116855292528083208585039055908b16825281208054849290611d329084906141a7565b9250508190555050505080611d46906140bb565b9050611c67565b50846001600160a01b0316866001600160a01b0316826001600160a01b03167f4a39dc06d4c0dbc64b70af90fd698a233a518aa5d07e595d983b8c0526c8f7fb8787604051611d9d9291906144f3565b60405180910390a4611db38187878787876130e4565b505050505050565b611dc58282611242565b610ac557600082815260cf602090815260408083206001600160a01b03851684529091529020805460ff19166001179055611dfd3390565b6001600160a01b0316816001600160a01b0316837f2f8788117e7eff1d82e926ec794901d17c78024a50270940304540a733656f0d60405160405180910390a45050565b611e4b8282611242565b15610ac557600082815260cf602090815260408083206001600160a01b0385168085529252808320805460ff1916905551339285917ff6391f5c32d9c69d2a47ea670b442974b53935d1edc7fd64eb21e047a839171b9190a45050565b7f360894a13ba1a3210667c828492db98dca3e2076cc3735a920a3ca505d382bbc546001600160a01b031690565b7f189ab7a9244df0848122154315af71fe140f3db0fe014031783b0946b8c9d2e3610ac5813361187f565b6000611f0b611ea8565b9050611f168461324f565b600083511180611f235750815b15611f3457611f3284846132f4565b505b7f4910fdfa16fed3260ed0e7147f7cc6da11a60208b5b9406d12a635614ffd9143805460ff16610c7457805460ff191660011781556040516001600160a01b0383166024820152611fb390869060440160408051601f198184030181529190526020810180516001600160e01b0316631b2ce7f360e11b1790526132f4565b50805460ff19168155611fc4611ea8565b6001600160a01b0316826001600160a01b03161461203c5760405162461bcd60e51b815260206004820152602f60248201527f45524331393637557067726164653a207570677261646520627265616b73206660448201526e75727468657220757067726164657360881b6064820152608401610a64565b610c74856133d6565b6001600160a01b03831661206b5760405162461bcd60e51b8152600401610a6490614518565b805182511461208c5760405162461bcd60e51b8152600401610a649061441c565b60003390506120af81856000868660405180602001604052806000815250612f76565b60005b83518110156121775760008482815181106120cf576120cf613ff7565b6020026020010151905060008483815181106120ed576120ed613ff7565b60209081029190910181015160008481526065835260408082206001600160a01b038c16835290935291909120549091508181101561213e5760405162461bcd60e51b8152600401610a649061455b565b60009283526065602090815260408085206001600160a01b038b168652909152909220910390558061216f816140bb565b9150506120b2565b5060006001600160a01b0316846001600160a01b0316826001600160a01b03167f4a39dc06d4c0dbc64b70af90fd698a233a518aa5d07e595d983b8c0526c8f7fb86866040516121c89291906144f3565b60405180910390a450505050565b61010280546001600160a01b0319166001600160a01b038316179055610de6611ae1565b600082815260ce602090815260409091208251610ca192840190613789565b8060cd6000848051906020012081526020019081526020016000208190555081604051612246919061459f565b604051908190038120828252907fc0cc007bc58275ca70d6cec6795b70feb61df220b5c085a20bb71648ed57072c9060200160405180910390a25050565b816001600160a01b0316836001600160a01b031614156122f85760405162461bcd60e51b815260206004820152602960248201527f455243313135353a2073657474696e6720617070726f76616c20737461747573604482015268103337b91039b2b63360b91b6064820152608401610a64565b6001600160a01b03838116600081815260666020908152604080832094871680845294825291829020805460ff191686151590811790915591519182527f17307eab39ab6107e8899845ad3d59bd9653f200f220920489ca2b5937696c31910160405180910390a3505050565b6000805b610103548110156123cb578280519060200120610103828154811061239057612390613ff7565b906000526020600020016040516123a791906145bb565b604051809103902014156123b9578091505b806123c3816140bb565b915050612369565b506101038054600091906123e190600190614190565b815481106123f1576123f1613ff7565b9060005260206000200180546124069061411f565b80601f01602080910402602001604051908101604052809291908181526020018280546124329061411f565b801561247f5780601f106124545761010080835404028352916020019161247f565b820191906000526020600020905b81548152906001019060200180831161246257829003601f168201915b50505050509050600061010460016101038054905061249e9190614190565b815481106124ae576124ae613ff7565b906000526020600020015490508161010384815481106124d0576124d0613ff7565b9060005260206000200190805190602001906124ed929190613789565b5061010380548061250057612500614657565b60019003818190600052602060002001600061251c919061380d565b905580610104848154811061253357612533613ff7565b60009182526020909120015561010480548061255157612551614657565b60019003818190600052602060002001600090559055611b4d611ae1565b6000805b610103548110156125d557610103818154811061259257612592613ff7565b906000526020600020016040516125a991906145bb565b6040518091039020848051906020012014156125c3578091505b806125cd816140bb565b915050612573565b508015612602578161010482815481106125f1576125f1613ff7565b6000918252602090912001556126e4565b610103541580159061264d5750828051906020012061010360008154811061262c5761262c613ff7565b9060005260206000200160405161264391906145bb565b6040518091039020145b1561266857816101046000815481106125f1576125f1613ff7565b610103805460018101825560009190915283516126ac917f02c297ab74aad0aede3a1895c857b1f2c71e6a203feb727bec95ac752998cb7801906020860190613789565b5061010480546001810182556000919091527f4c0be60200faa20559308cb7b5a1bb3255c16cb1cab91f525b5ae7a03d02fabe018290555b610ca1611ae1565b60006001600160a01b03821673207fa8df3a17d96ca7ea4f2893fcdcb78a304101141561271b57506001610a92565b60cc546001600160a01b038381169116141561273957506001610a92565b6001600160a01b0380841660009081526066602090815260408083209386168352929052205460ff16610ba9565b6001600160a01b03841661278d5760405162461bcd60e51b8152600401610a6490614464565b336127ac81878761279d88613416565b6127a688613416565b87612f76565b60008481526065602090815260408083206001600160a01b038a168452909152902054838110156127ef5760405162461bcd60e51b8152600401610a64906144a9565b60008581526065602090815260408083206001600160a01b038b811685529252808320878503905590881682528120805486929061282e9084906141a7565b909155505060408051868152602081018690526001600160a01b03808916928a821692918616917fc3d58168c5ae7397731d063d5bbf3d657854427343f4c083240f7aacaa2d0f62910160405180910390a461288e828888888888613461565b50505050505050565b6060606780546111bd9061411f565b6001600160a01b0383166128cc5760405162461bcd60e51b8152600401610a6490614518565b336128fb818560006128dd87613416565b6128e687613416565b60405180602001604052806000815250612f76565b60008381526065602090815260408083206001600160a01b03881684529091529020548281101561293e5760405162461bcd60e51b8152600401610a649061455b565b60008481526065602090815260408083206001600160a01b03898116808652918452828520888703905582518981529384018890529092908616917fc3d58168c5ae7397731d063d5bbf3d657854427343f4c083240f7aacaa2d0f62910160405180910390a45050505050565b600054610100900460ff166129d25760405162461bcd60e51b8152600401610a649061466d565b6129da61352b565b611b5261352b565b612a0b60405180604001604052806006815260200165756e6971756560d01b8152506001612219565b612a34604051806040016040528060068152602001656d797468696360d01b815250600a612219565b612a5b604051806040016040528060048152602001636570696360e01b8152506064612219565b612a83604051806040016040528060048152602001637261726560e01b8152506103e8612219565b612aad6040518060400160405280600681526020016531b7b6b6b7b760d11b815250612710612219565b610de681613552565b612abe6135bc565b612ac9600033611dbb565b612ae160008051602061491d83398151915233611dbb565b612b0b7f9f2df0fed2c77648de5860a4cc508cd0818c85b8b8a1ab4ceeef8d981c8956a633611dbb565b611b527f189ab7a9244df0848122154315af71fe140f3db0fe014031783b0946b8c9d2e333611dbb565b60006001600160e01b03198216636cdb3d1360e11b1480612b6657506001600160e01b031982166303a24d0760e21b145b80610a9257506301ffc9a760e01b6001600160e01b0319831614610a92565b60606000612b94836002614171565b612b9f9060026141a7565b6001600160401b03811115612bb657612bb66138cc565b6040519080825280601f01601f191660200182016040528015612be0576020820181803683370190505b509050600360fc1b81600081518110612bfb57612bfb613ff7565b60200101906001600160f81b031916908160001a905350600f60fb1b81600181518110612c2a57612c2a613ff7565b60200101906001600160f81b031916908160001a9053506000612c4e846002614171565b612c599060016141a7565b90505b6001811115612cd1576f181899199a1a9b1b9c1cb0b131b232b360811b85600f1660108110612c8d57612c8d613ff7565b1a60f81b828281518110612ca357612ca3613ff7565b60200101906001600160f81b031916908160001a90535060049490941c93612cca8161415a565b9050612c5c565b508315610ba95760405162461bcd60e51b815260206004820181905260248201527f537472696e67733a20686578206c656e67746820696e73756666696369656e746044820152606401610a64565b606081612d445750506040805180820190915260018152600360fc1b602082015290565b8160005b8115612d6e5780612d58816140bb565b9150612d679050600a836146b8565b9150612d48565b6000816001600160401b03811115612d8857612d886138cc565b6040519080825280601f01601f191660200182016040528015612db2576020820181803683370190505b509050815b85156114dc57612dc8600182614190565b90506000612dd7600a886146b8565b612de290600a614171565b612dec9088614190565b612df79060306146da565b905060008160f81b905080848481518110612e1457612e14613ff7565b60200101906001600160f81b031916908160001a905350612e36600a896146b8565b97505050612db7565b6000612e4f60c980546001019055565b6000612e5a60c95490565b600081815260ca60205260409020939093555090919050565b6001600160a01b038416612ed35760405162461bcd60e51b815260206004820152602160248201527f455243313135353a206d696e7420746f20746865207a65726f206164647265736044820152607360f81b6064820152608401610a64565b33612ee48160008761279d88613416565b60008481526065602090815260408083206001600160a01b038916845290915281208054859290612f169084906141a7565b909155505060408051858152602081018590526001600160a01b0380881692600092918516917fc3d58168c5ae7397731d063d5bbf3d657854427343f4c083240f7aacaa2d0f62910160405180910390a4610c7481600087878787613461565b6001600160a01b0385166130d65760005b83518110156130d4576000848281518110612fa457612fa4613ff7565b602002602001015190506000612fc682600090815260ca602052604090205490565b600081815260ce6020526040812080549293509091612fe49061411f565b80601f01602080910402602001604051908101604052809291908181526020018280546130109061411f565b801561305d5780601f106130325761010080835404028352916020019161305d565b820191906000526020600020905b81548152906001019060200180831161304057829003601f168201915b50505050509050600061306f83611b54565b90508061307b856112bd565b10828260405160200161308f9291906146ff565b604051602081830303815290604052906130bc5760405162461bcd60e51b8152600401610a649190613a4b565b505050505080806130cc906140bb565b915050612f87565b505b611db38686868686866135eb565b6001600160a01b0384163b15611db35760405163bc197c8160e01b81526001600160a01b0385169063bc197c81906131289089908990889088908890600401614748565b602060405180830381600087803b15801561314257600080fd5b505af1925050508015613172575060408051601f3d908101601f1916820190925261316f918101906147a6565b60015b61321f5761317e6147c3565b806308c379a014156131b857506131936147df565b8061319e57506131ba565b8060405162461bcd60e51b8152600401610a649190613a4b565b505b60405162461bcd60e51b815260206004820152603460248201527f455243313135353a207472616e7366657220746f206e6f6e20455243313135356044820152732932b1b2b4bb32b91034b6b83632b6b2b73a32b960611b6064820152608401610a64565b6001600160e01b0319811663bc197c8160e01b1461288e5760405162461bcd60e51b8152600401610a6490614868565b803b6132b35760405162461bcd60e51b815260206004820152602d60248201527f455243313936373a206e657720696d706c656d656e746174696f6e206973206e60448201526c1bdd08184818dbdb9d1c9858dd609a1b6064820152608401610a64565b7f360894a13ba1a3210667c828492db98dca3e2076cc3735a920a3ca505d382bbc80546001600160a01b0319166001600160a01b0392909216919091179055565b6060823b6133535760405162461bcd60e51b815260206004820152602660248201527f416464726573733a2064656c65676174652063616c6c20746f206e6f6e2d636f6044820152651b9d1c9858dd60d21b6064820152608401610a64565b600080846001600160a01b03168460405161336e919061459f565b600060405180830381855af49150503d80600081146133a9576040519150601f19603f3d011682016040523d82523d6000602084013e6133ae565b606091505b5091509150610b3e82826040518060600160405280602781526020016148f6602791396136e5565b6133df8161324f565b6040516001600160a01b038216907fbc7cd75a20ee27fd9adebab32041f755214dbc6bffa90cc0225b39da2e5c2d3b90600090a250565b6040805160018082528183019092526060916000919060208083019080368337019050509050828160008151811061345057613450613ff7565b602090810291909101015292915050565b6001600160a01b0384163b15611db35760405163f23a6e6160e01b81526001600160a01b0385169063f23a6e61906134a590899089908890889088906004016148b0565b602060405180830381600087803b1580156134bf57600080fd5b505af19250505080156134ef575060408051601f3d908101601f191682019092526134ec918101906147a6565b60015b6134fb5761317e6147c3565b6001600160e01b0319811663f23a6e6160e01b1461288e5760405162461bcd60e51b8152600401610a6490614868565b600054610100900460ff16611b525760405162461bcd60e51b8152600401610a649061466d565b600054610100900460ff1661356d5760005460ff1615613571565b303b155b61358d5760405162461bcd60e51b8152600401610a64906142ff565b600054610100900460ff161580156135af576000805461ffff19166101011790555b6135b88261371e565b6118025b600054610100900460ff166135e35760405162461bcd60e51b8152600401610a649061466d565b6129d261352b565b6001600160a01b0385166136765760005b835181101561367457600061363685838151811061361c5761361c613ff7565b6020026020010151600090815260ca602052604090205490565b9050600160cb6000838152602001908152602001600020600082825461365c91906141a7565b9091555061366d91508290506140bb565b90506135fc565b505b6001600160a01b038416611db35760005b835181101561288e5760006136a785838151811061361c5761361c613ff7565b9050600160cb600083815260200190815260200160002060008282546136cd9190614190565b909155506136de91508290506140bb565b9050613687565b606083156136f4575081610ba9565b8251156137045782518084602001fd5b8160405162461bcd60e51b8152600401610a649190613a4b565b600054610100900460ff166137455760405162461bcd60e51b8152600401610a649061466d565b61374d61352b565b61375561352b565b610de681600054610100900460ff166137805760405162461bcd60e51b8152600401610a649061466d565b610de6816118e3565b8280546137959061411f565b90600052602060002090601f0160209004810192826137b757600085556137fd565b82601f106137d057805160ff19168380011785556137fd565b828001600101855582156137fd579182015b828111156137fd5782518255916020019190600101906137e2565b50613809929150613843565b5090565b5080546138199061411f565b6000825580601f10613829575050565b601f016020900490600052602060002090810190610de691905b5b808211156138095760008155600101613844565b6001600160a01b0381168114610de657600080fd5b6000806040838503121561388057600080fd5b823561388b81613858565b946020939093013593505050565b6001600160e01b031981168114610de657600080fd5b6000602082840312156138c157600080fd5b8135610ba981613899565b634e487b7160e01b600052604160045260246000fd5b601f8201601f191681016001600160401b0381118282101715613907576139076138cc565b6040525050565b600082601f83011261391f57600080fd5b81356001600160401b03811115613938576139386138cc565b60405161394f601f8301601f1916602001826138e2565b81815284602083860101111561396457600080fd5b816020850160208301376000918101602001919091529392505050565b60006020828403121561399357600080fd5b81356001600160401b038111156139a957600080fd5b6139b58482850161390e565b949350505050565b6000602082840312156139cf57600080fd5b8135610ba981613858565b6000602082840312156139ec57600080fd5b5035919050565b60005b83811015613a0e5781810151838201526020016139f6565b83811115611b4d5750506000910152565b60008151808452613a378160208601602086016139f3565b601f01601f19169290920160200192915050565b602081526000610ba96020830184613a1f565b600080600060608486031215613a7357600080fd5b8335613a7e81613858565b95602085013595506040909401359392505050565b600081518084526020808501945080840160005b83811015613ac357815187529582019590820190600101613aa7565b509495945050505050565b602081526000610ba96020830184613a93565b600080600060608486031215613af657600080fd5b83356001600160401b03811115613b0c57600080fd5b613b188682870161390e565b935050602084013591506040840135613b3081613858565b809150509250925092565b60006001600160401b03821115613b5457613b546138cc565b5060051b60200190565b600082601f830112613b6f57600080fd5b81356020613b7c82613b3b565b604051613b8982826138e2565b83815260059390931b8501820192828101915086841115613ba957600080fd5b8286015b84811015613bc45780358352918301918301613bad565b509695505050505050565b600080600080600060a08688031215613be757600080fd5b8535613bf281613858565b94506020860135613c0281613858565b935060408601356001600160401b0380821115613c1e57600080fd5b613c2a89838a01613b5e565b94506060880135915080821115613c4057600080fd5b613c4c89838a01613b5e565b93506080880135915080821115613c6257600080fd5b50613c6f8882890161390e565b9150509295509295909350565b60008060408385031215613c8f57600080fd5b823591506020830135613ca181613858565b809150509250929050565b60008060408385031215613cbf57600080fd5b82356001600160401b0380821115613cd657600080fd5b818501915085601f830112613cea57600080fd5b81356020613cf782613b3b565b604051613d0482826138e2565b83815260059390931b8501820192828101915089841115613d2457600080fd5b948201945b83861015613d4b578535613d3c81613858565b82529482019490820190613d29565b96505086013592505080821115613d6157600080fd5b50613d6e85828601613b5e565b9150509250929050565b60008060408385031215613d8b57600080fd5b8235613d9681613858565b915060208301356001600160401b03811115613db157600080fd5b613d6e8582860161390e565b600080600060608486031215613dd257600080fd5b8335613ddd81613858565b925060208401356001600160401b0380821115613df957600080fd5b613e0587838801613b5e565b93506040860135915080821115613e1b57600080fd5b50613e2886828701613b5e565b9150509250925092565b60008060408385031215613e4557600080fd5b8235915060208301356001600160401b03811115613db157600080fd5b6000604082016040835280855180835260608501915060608160051b8601019250602080880160005b83811015613eb957605f19888703018552613ea7868351613a1f565b95509382019390820190600101613e8b565b505085840381870152505050610b3e8185613a93565b60008060408385031215613ee257600080fd5b82356001600160401b03811115613ef857600080fd5b613f048582860161390e565b95602094909401359450505050565b82151581526040602082015260006139b56040830184613a93565b60008060408385031215613f4157600080fd5b8235613f4c81613858565b915060208301358015158114613ca157600080fd5b60008060408385031215613f7457600080fd5b8235613f7f81613858565b91506020830135613ca181613858565b600080600080600060a08688031215613fa757600080fd5b8535613fb281613858565b94506020860135613fc281613858565b9350604086013592506060860135915060808601356001600160401b03811115613feb57600080fd5b613c6f8882890161390e565b634e487b7160e01b600052603260045260246000fd5b6020808252602c908201527f46756e6374696f6e206d7573742062652063616c6c6564207468726f7567682060408201526b19195b1959d85d1958d85b1b60a21b606082015260800190565b6020808252602c908201527f46756e6374696f6e206d7573742062652063616c6c6564207468726f7567682060408201526b6163746976652070726f787960a01b606082015260800190565b634e487b7160e01b600052601160045260246000fd5b60006000198214156140cf576140cf6140a5565b5060010190565b60208082526029908201527f455243313135353a2063616c6c6572206973206e6f74206f776e6572206e6f7260408201526808185c1c1c9bdd995960ba1b606082015260800190565b600181811c9082168061413357607f821691505b6020821081141561415457634e487b7160e01b600052602260045260246000fd5b50919050565b600081614169576141696140a5565b506000190190565b600081600019048311821515161561418b5761418b6140a5565b500290565b6000828210156141a2576141a26140a5565b500390565b600082198211156141ba576141ba6140a5565b500190565b600181815b808511156141fa5781600019048211156141e0576141e06140a5565b808516156141ed57918102915b93841c93908002906141c4565b509250929050565b60008261421157506001610a92565b8161421e57506000610a92565b8160018114614234576002811461423e5761425a565b6001915050610a92565b60ff84111561424f5761424f6140a5565b50506001821b610a92565b5060208310610133831016604e8410600b841016171561427d575081810a610a92565b61428783836141bf565b806000190482111561429b5761429b6140a5565b029392505050565b6000610ba98383614202565b600083516142c18184602088016139f3565b602f60f81b9083018181526218da5960ea1b6001820152600481019190915283516142f38160058401602088016139f3565b01600501949350505050565b6020808252602e908201527f496e697469616c697a61626c653a20636f6e747261637420697320616c72656160408201526d191e481a5b9a5d1a585b1a5e995960921b606082015260800190565b7f416363657373436f6e74726f6c3a206163636f756e74200000000000000000008152600083516143858160178501602088016139f3565b7001034b99036b4b9b9b4b733903937b6329607d1b60179184019182015283516143b68160288401602088016139f3565b01602801949350505050565b600084516143d48184602089016139f3565b8083019050602f60f81b80825285516143f4816001850160208a016139f3565b6001920191820152835161440f8160028401602088016139f3565b0160020195945050505050565b60208082526028908201527f455243313135353a2069647320616e6420616d6f756e7473206c656e677468206040820152670dad2e6dac2e8c6d60c31b606082015260800190565b60208082526025908201527f455243313135353a207472616e7366657220746f20746865207a65726f206164604082015264647265737360d81b606082015260800190565b6020808252602a908201527f455243313135353a20696e73756666696369656e742062616c616e636520666f60408201526939103a3930b739b332b960b11b606082015260800190565b6040815260006145066040830185613a93565b8281036020840152610b3e8185613a93565b60208082526023908201527f455243313135353a206275726e2066726f6d20746865207a65726f206164647260408201526265737360e81b606082015260800190565b60208082526024908201527f455243313135353a206275726e20616d6f756e7420657863656564732062616c604082015263616e636560e01b606082015260800190565b600082516145b18184602087016139f3565b9190910192915050565b600080835481600182811c9150808316806145d757607f831692505b60208084108214156145f757634e487b7160e01b86526022600452602486fd5b81801561460b576001811461461c57614649565b60ff19861689528489019650614649565b60008a81526020902060005b868110156146415781548b820152908501908301614628565b505084890196505b509498975050505050505050565b634e487b7160e01b600052603160045260246000fd5b6020808252602b908201527f496e697469616c697a61626c653a20636f6e7472616374206973206e6f74206960408201526a6e697469616c697a696e6760a81b606082015260800190565b6000826146d557634e487b7160e01b600052601260045260246000fd5b500490565b600060ff821660ff84168060ff038211156146f7576146f76140a5565b019392505050565b600083516147118184602088016139f3565b7f726172697479206f6e6c7920746f74616c537570706c790000000000000000009201918252506017810191909152603701919050565b6001600160a01b0386811682528516602082015260a06040820181905260009061477490830186613a93565b82810360608401526147868186613a93565b9050828103608084015261479a8185613a1f565b98975050505050505050565b6000602082840312156147b857600080fd5b8151610ba981613899565b600060033d11156147dc5760046000803e5060005160e01c5b90565b600060443d10156147ed5790565b6040516003193d81016004833e81513d6001600160401b03816024840111818411171561481c57505050505090565b82850191508151818111156148345750505050505090565b843d870101602082850101111561484e5750505050505090565b61485d602082860101876138e2565b509095945050505050565b60208082526028908201527f455243313135353a204552433131353552656365697665722072656a656374656040820152676420746f6b656e7360c01b606082015260800190565b6001600160a01b03868116825285166020820152604081018490526060810183905260a0608082018190526000906148ea90830184613a1f565b97965050505050505056fe416464726573733a206c6f772d6c6576656c2064656c65676174652063616c6c206661696c6564f5eb84615c2a00ecaf817d13794ebd6299c9e01c395bf4018453f13f577f5449a2646970667358221220f54f8405a931699ba575069a1e2e87d1a4a741a672d9023c9683c2dccf4b370a64736f6c63430008090033",
  "immutableReferences": {
    "1051": [
      {
        "length": 32,
        "start": 3371
      },
      {
        "length": 32,
        "start": 3435
      },
      {
        "length": 32,
        "start": 3882
      },
      {
        "length": 32,
        "start": 3946
      }
    ]
  },
  "source": "// SPDX-License-Identifier: MIT\npragma solidity 0.8.9;\n\nimport \"@openzeppelin/contracts-upgradeable/token/ERC1155/ERC1155Upgradeable.sol\";\nimport \"@openzeppelin/contracts-upgradeable/access/AccessControlUpgradeable.sol\";\nimport \"@openzeppelin/contracts-upgradeable/token/ERC1155/extensions/ERC1155BurnableUpgradeable.sol\";\nimport \"@openzeppelin/contracts-upgradeable/proxy/utils/Initializable.sol\";\nimport \"@openzeppelin/contracts-upgradeable/proxy/utils/UUPSUpgradeable.sol\";\nimport \"./Meland1155Rarity.sol\";\nimport \"./MelandAccessRoles.sol\";\nimport \"./MelandTier.sol\";\nimport \"./Meland1155StoreItem.sol\";\n\ncontract Meland1155Wearable is\n    Initializable,\n    Meland1155Rarity,\n    MelandAccessRoles,\n    Meland1155StoreItem,\n    UUPSUpgradeable\n{\n    function initialize(string memory uri) public initializer {\n        __UUPSUpgradeable_init();\n        __Meland1155Rarity_init(uri);\n        __MelandAccessRoles_init();\n    }\n\n    function setURI(string memory newuri) public onlyRole(GM_ROLE) {\n        _setURI(newuri);\n    }\n\n    function melandStoreItemURI(string memory symbol)\n        external\n        view\n        returns (string memory)\n    {\n        return\n            string(\n                abi.encodePacked(\n                    ERC1155Upgradeable.uri(0),\n                    \"/\",\n                    \"cid\",\n                    \"/\",\n                    symbol\n                )\n            );\n    }\n\n    function mint(\n        address account,\n        uint256 cid,\n        uint256 amount\n    ) public onlyRole(MINTER_ROLE) returns (uint256[] memory) {\n        return _mintReturnTokenIds(account, cid, amount, \"\");\n    }\n\n    function setRarity(bytes memory _rarity, uint256 mintMax)\n        public\n        onlyRole(GM_ROLE)\n    {\n        _setRarity(_rarity, mintMax);\n    }\n\n    function setCIDRarity(uint256 cid, bytes memory _rarity)\n        public\n        onlyRole(GM_ROLE)\n    {\n        _setCIDRarity(cid, _rarity);\n    }\n\n    function setMelandTier(MelandTier _tierAddress) public onlyRole(GM_ROLE) {\n        _setMelandTier(_tierAddress);\n    }\n\n    function _authorizeUpgrade(address newImplementation)\n        internal\n        override\n        onlyRole(UPGRADER_ROLE)\n    {}\n\n    // The following functions are overrides required by Solidity.\n    function supportsInterface(bytes4 interfaceId)\n        public\n        view\n        override(ERC1155Upgradeable, AccessControlUpgradeable)\n        returns (bool)\n    {\n        return super.supportsInterface(interfaceId);\n    }\n\n    // store item impl ----\n    function setAcceptedToken(IERC20Upgradeable token)\n        external\n        onlyRole(GM_ROLE)\n    {\n        _setAcceptedToken(token);\n    }\n\n    function setStore(NFTStore s) external onlyRole(GM_ROLE) {\n        _setStore(s);\n    }\n\n    function setStoreItem(string memory symbol, uint256 price)\n        external\n        onlyRole(GM_ROLE)\n    {\n        _setStoreItem(symbol, price);\n    }\n\n    function delStoreItem(string memory symbol) external onlyRole(GM_ROLE) {\n        _delStoreItem(symbol);\n    }\n\n    // If return ture, means that the mall will only have the specified id\n    // Else otherwise it will be linear mint\n    // The ids Must ensure that you can mint,\n    // If multi-channel sales or mint, you need to filter out the ids that have been minted,\n    // To prevent errors in the sales process\n    function melandStoreItemsRestrictPurchaseNFTIds(string memory)\n        external\n        pure\n        returns (bool, uint256[] memory)\n    {\n        uint256[] memory ids;\n        return (false, ids);\n    }\n\n    // Store to pay NFT to the selling user by calling this function,\n    // For security reasons, be sure to control the permissions to allow only MelandStore contracts to call\n    // If melandStoreItemsRestrictPurchaseNFTIds return false, the id as zero.\n    function melandStoreItemsMint(\n        string memory symbol,\n        uint256 id,\n        address to\n    ) external override returns(uint256) {\n        super.checkMelandStoreItemsMint(symbol, id, to);\n        uint256 cid = _bytestoUint256(symbol);\n        uint256[] memory ids = _mintReturnTokenIds(to, cid, 1, \"\");\n        _dispatchItemInfoUpdate();\n        return ids[0];\n    }\n\n    function test(string memory symbol) public pure returns(uint256) {\n        return _bytestoUint256(symbol);\n    }\n\n    // If return false, Stores will suspend sales.\n    function melandStoreSellStatus(string memory symbol)\n        external\n        view\n        returns (bool)\n    {\n        uint256 cid = _bytestoUint256(symbol);\n        uint256 mintMax = _getMintMaxByCId(cid);\n        uint totol = totalSupplyByCId(cid);\n        return totol < mintMax;\n    }\n\n    // If return true, it means that each person can only buy a certain amount\n    function melandStoreItemsRestrictedPurchase(string memory)\n        external\n        pure\n        returns (bool restricted, uint256 restrictLimit)\n    {\n        restricted = false;\n        restrictLimit = 0;\n    }\n}\n",
  "sourcePath": "/Users/alberthuang/code/icw/meland/contracts/Meland1155Wearable.sol",
  "compiler": {
    "name": "solc",
    "version": "0.8.9+commit.e5eed63a.Emscripten.clang"
  },
  "schemaVersion": "3.4.3",
  "updatedAt": "2021-12-31T04:32:33.903Z",
  "networkType": "ethereum",
  "devdoc": {
    "kind": "dev",
    "methods": {
      "balanceOf(address,uint256)": {
        "details": "See {IERC1155-balanceOf}. Requirements: - `account` cannot be the zero address."
      },
      "balanceOfBatch(address[],uint256[])": {
        "details": "See {IERC1155-balanceOfBatch}. Requirements: - `accounts` and `ids` must have the same length."
      },
      "getRoleAdmin(bytes32)": {
        "details": "Returns the admin role that controls `role`. See {grantRole} and {revokeRole}. To change a role's admin, use {_setRoleAdmin}."
      },
      "grantRole(bytes32,address)": {
        "details": "Grants `role` to `account`. If `account` had not been already granted `role`, emits a {RoleGranted} event. Requirements: - the caller must have ``role``'s admin role."
      },
      "hasRole(bytes32,address)": {
        "details": "Returns `true` if `account` has been granted `role`."
      },
      "renounceRole(bytes32,address)": {
        "details": "Revokes `role` from the calling account. Roles are often managed via {grantRole} and {revokeRole}: this function's purpose is to provide a mechanism for accounts to lose their privileges if they are compromised (such as when a trusted device is misplaced). If the calling account had been revoked `role`, emits a {RoleRevoked} event. Requirements: - the caller must be `account`."
      },
      "revokeRole(bytes32,address)": {
        "details": "Revokes `role` from `account`. If `account` had been granted `role`, emits a {RoleRevoked} event. Requirements: - the caller must have ``role``'s admin role."
      },
      "safeBatchTransferFrom(address,address,uint256[],uint256[],bytes)": {
        "details": "See {IERC1155-safeBatchTransferFrom}."
      },
      "safeTransferFrom(address,address,uint256,uint256,bytes)": {
        "details": "See {IERC1155-safeTransferFrom}."
      },
      "setApprovalForAll(address,bool)": {
        "details": "See {IERC1155-setApprovalForAll}."
      },
      "upgradeTo(address)": {
        "details": "Upgrade the implementation of the proxy to `newImplementation`. Calls {_authorizeUpgrade}. Emits an {Upgraded} event."
      },
      "upgradeToAndCall(address,bytes)": {
        "details": "Upgrade the implementation of the proxy to `newImplementation`, and subsequently execute the function call encoded in `data`. Calls {_authorizeUpgrade}. Emits an {Upgraded} event."
      }
    },
    "version": 1
  },
  "userdoc": {
    "kind": "user",
    "methods": {},
    "version": 1
  }
}