{
  "contractName": "MelandTierStorage",
  "abi": [
    {
      "anonymous": false,
      "inputs": [
        {
          "indexed": true,
          "internalType": "uint256",
          "name": "rewardId",
          "type": "uint256"
        },
        {
          "indexed": true,
          "internalType": "uint256",
          "name": "erc1155RewardId",
          "type": "uint256"
        },
        {
          "components": [
            {
              "internalType": "contract IERC1155Upgradeable",
              "name": "erc1155",
              "type": "address"
            },
            {
              "internalType": "uint256[]",
              "name": "tokenIds",
              "type": "uint256[]"
            },
            {
              "internalType": "uint256[]",
              "name": "amounts",
              "type": "uint256[]"
            }
          ],
          "indexed": false,
          "internalType": "struct MelandTierStorage.ERC1155Reward",
          "name": "erc1155reward",
          "type": "tuple"
        }
      ],
      "name": "CreateRewardERC1155",
      "type": "event"
    },
    {
      "anonymous": false,
      "inputs": [
        {
          "indexed": true,
          "internalType": "uint256",
          "name": "rewardId",
          "type": "uint256"
        },
        {
          "indexed": true,
          "internalType": "uint256",
          "name": "erc20RewardId",
          "type": "uint256"
        },
        {
          "components": [
            {
              "internalType": "contract IERC20Upgradeable",
              "name": "erc20",
              "type": "address"
            },
            {
              "internalType": "uint256",
              "name": "amount",
              "type": "uint256"
            }
          ],
          "indexed": false,
          "internalType": "struct MelandTierStorage.ERC20Reward",
          "name": "erc20reward",
          "type": "tuple"
        }
      ],
      "name": "CreateRewardERC20",
      "type": "event"
    },
    {
      "anonymous": false,
      "inputs": [
        {
          "indexed": true,
          "internalType": "uint256",
          "name": "rewardId",
          "type": "uint256"
        },
        {
          "indexed": true,
          "internalType": "uint256",
          "name": "erc721RewardId",
          "type": "uint256"
        },
        {
          "components": [
            {
              "internalType": "contract IERC721Upgradeable",
              "name": "erc721",
              "type": "address"
            },
            {
              "internalType": "uint256",
              "name": "tokenId",
              "type": "uint256"
            }
          ],
          "indexed": false,
          "internalType": "struct MelandTierStorage.ERC721Reward",
          "name": "erc721reward",
          "type": "tuple"
        }
      ],
      "name": "CreateRewardERC721",
      "type": "event"
    },
    {
      "anonymous": false,
      "inputs": [
        {
          "indexed": false,
          "internalType": "uint256[2]",
          "name": "rewardIds",
          "type": "uint256[2]"
        }
      ],
      "name": "OpenTier",
      "type": "event"
    },
    {
      "anonymous": false,
      "inputs": [
        {
          "indexed": true,
          "internalType": "uint256",
          "name": "cid",
          "type": "uint256"
        }
      ],
      "name": "RewaardPoolUpdate",
      "type": "event"
    },
    {
      "anonymous": false,
      "inputs": [
        {
          "indexed": true,
          "internalType": "uint256",
          "name": "cid",
          "type": "uint256"
        }
      ],
      "name": "TierStartSale",
      "type": "event"
    },
    {
      "inputs": [
        {
          "internalType": "uint256",
          "name": "",
          "type": "uint256"
        }
      ],
      "name": "erc1155RewardById",
      "outputs": [
        {
          "internalType": "contract IERC1155Upgradeable",
          "name": "erc1155",
          "type": "address"
        }
      ],
      "stateMutability": "view",
      "type": "function"
    },
    {
      "inputs": [
        {
          "internalType": "uint256",
          "name": "",
          "type": "uint256"
        }
      ],
      "name": "erc20RewardById",
      "outputs": [
        {
          "internalType": "contract IERC20Upgradeable",
          "name": "erc20",
          "type": "address"
        },
        {
          "internalType": "uint256",
          "name": "amount",
          "type": "uint256"
        }
      ],
      "stateMutability": "view",
      "type": "function"
    },
    {
      "inputs": [
        {
          "internalType": "uint256",
          "name": "",
          "type": "uint256"
        }
      ],
      "name": "erc721RewardById",
      "outputs": [
        {
          "internalType": "contract IERC721Upgradeable",
          "name": "erc721",
          "type": "address"
        },
        {
          "internalType": "uint256",
          "name": "tokenId",
          "type": "uint256"
        }
      ],
      "stateMutability": "view",
      "type": "function"
    },
    {
      "inputs": [
        {
          "internalType": "uint256",
          "name": "cid",
          "type": "uint256"
        },
        {
          "components": [
            {
              "internalType": "contract IERC1155Upgradeable",
              "name": "erc1155",
              "type": "address"
            },
            {
              "internalType": "uint256[]",
              "name": "tokenIds",
              "type": "uint256[]"
            },
            {
              "internalType": "uint256[]",
              "name": "amounts",
              "type": "uint256[]"
            }
          ],
          "internalType": "struct MelandTierStorage.ERC1155Reward[]",
          "name": "erc1155rewards",
          "type": "tuple[]"
        },
        {
          "components": [
            {
              "internalType": "contract IERC721Upgradeable",
              "name": "erc721",
              "type": "address"
            },
            {
              "internalType": "uint256",
              "name": "tokenId",
              "type": "uint256"
            }
          ],
          "internalType": "struct MelandTierStorage.ERC721Reward[]",
          "name": "erc721rewards",
          "type": "tuple[]"
        },
        {
          "components": [
            {
              "internalType": "contract IERC20Upgradeable",
              "name": "erc20",
              "type": "address"
            },
            {
              "internalType": "uint256",
              "name": "amount",
              "type": "uint256"
            }
          ],
          "internalType": "struct MelandTierStorage.ERC20Reward[]",
          "name": "erc20rewards",
          "type": "tuple[]"
        }
      ],
      "name": "addOptionReward",
      "outputs": [],
      "stateMutability": "nonpayable",
      "type": "function"
    },
    {
      "inputs": [
        {
          "internalType": "uint256",
          "name": "cid",
          "type": "uint256"
        },
        {
          "components": [
            {
              "internalType": "contract IERC1155Upgradeable",
              "name": "erc1155",
              "type": "address"
            },
            {
              "internalType": "uint256[]",
              "name": "tokenIds",
              "type": "uint256[]"
            },
            {
              "internalType": "uint256[]",
              "name": "amounts",
              "type": "uint256[]"
            }
          ],
          "internalType": "struct MelandTierStorage.ERC1155Reward[]",
          "name": "erc1155rewards",
          "type": "tuple[]"
        },
        {
          "components": [
            {
              "internalType": "contract IERC721Upgradeable",
              "name": "erc721",
              "type": "address"
            },
            {
              "internalType": "uint256",
              "name": "tokenId",
              "type": "uint256"
            }
          ],
          "internalType": "struct MelandTierStorage.ERC721Reward[]",
          "name": "erc721rewards",
          "type": "tuple[]"
        },
        {
          "components": [
            {
              "internalType": "contract IERC20Upgradeable",
              "name": "erc20",
              "type": "address"
            },
            {
              "internalType": "uint256",
              "name": "amount",
              "type": "uint256"
            }
          ],
          "internalType": "struct MelandTierStorage.ERC20Reward[]",
          "name": "erc20rewards",
          "type": "tuple[]"
        }
      ],
      "name": "fixed100PercentReward",
      "outputs": [],
      "stateMutability": "nonpayable",
      "type": "function"
    },
    {
      "inputs": [
        {
          "internalType": "uint256",
          "name": "cid",
          "type": "uint256"
        },
        {
          "components": [
            {
              "internalType": "contract IERC1155Upgradeable",
              "name": "erc1155",
              "type": "address"
            },
            {
              "internalType": "uint256[]",
              "name": "tokenIds",
              "type": "uint256[]"
            },
            {
              "internalType": "uint256[]",
              "name": "amounts",
              "type": "uint256[]"
            }
          ],
          "internalType": "struct MelandTierStorage.ERC1155Reward[]",
          "name": "erc1155rewards",
          "type": "tuple[]"
        },
        {
          "components": [
            {
              "internalType": "contract IERC721Upgradeable",
              "name": "erc721",
              "type": "address"
            },
            {
              "internalType": "uint256",
              "name": "tokenId",
              "type": "uint256"
            }
          ],
          "internalType": "struct MelandTierStorage.ERC721Reward[]",
          "name": "erc721rewards",
          "type": "tuple[]"
        },
        {
          "components": [
            {
              "internalType": "contract IERC20Upgradeable",
              "name": "erc20",
              "type": "address"
            },
            {
              "internalType": "uint256",
              "name": "amount",
              "type": "uint256"
            }
          ],
          "internalType": "struct MelandTierStorage.ERC20Reward[]",
          "name": "erc20rewards",
          "type": "tuple[]"
        }
      ],
      "name": "add100PercentReward",
      "outputs": [],
      "stateMutability": "nonpayable",
      "type": "function"
    }
  ],
  "bytecode": "0x608060405234801561001057600080fd5b50610e23806100206000396000f3fe608060405234801561001057600080fd5b50600436106100625760003560e01c806357587f3f146100675780637672f2b51461007c578063c14ee0aa146100c2578063d0a7917a14610114578063d4a3139314610147578063e1e9646a1461015a575b600080fd5b61007a610075366004610a9a565b61016d565b005b6100a561008a366004610c0c565b6039602052600090815260409020546001600160a01b031681565b6040516001600160a01b0390911681526020015b60405180910390f35b6100f56100d0366004610c0c565b603860205260009081526040902080546001909101546001600160a01b039091169082565b604080516001600160a01b0390931683526020830191909152016100b9565b6100f5610122366004610c0c565b603760205260009081526040902080546001909101546001600160a01b039091169082565b61007a610155366004610a9a565b6101fc565b61007a610168366004610a9a565b610215565b6000848152603c6020526040902054156101a25760405162461bcd60e51b815260040161019990610c25565b60405180910390fd5b6000848152603d602052604090206101bb848484610256565b8154600181018355600092835260208320015560405185917fe4b7e0bb3edd3119b8854a52d62b18a5a44ba6827d49ea293a7f44c7b43dc26191a250505050565b6000848152603c602052604090206101bb848484610256565b6000848152603c6020526040902054156102415760405162461bcd60e51b815260040161019990610c25565b6000848152603b602052604090206101bb8484845b6000610266603380546001019055565b60335490506000845167ffffffffffffffff811115610287576102876108d8565b6040519080825280602002602001820160405280156102b0578160200160208202803683370190505b5090506000845167ffffffffffffffff8111156102cf576102cf6108d8565b6040519080825280602002602001820160405280156102f8578160200160208202803683370190505b5090506000865167ffffffffffffffff811115610317576103176108d8565b604051908082528060200260200182016040528015610340578160200160208202803683370190505b50905060005b87518160ff1610156104d4576000888260ff168151811061036957610369610c96565b60200260200101519050610381603480546001019055565b600061038c60345490565b6000818152603960209081526040909120845181546001600160a01b0319166001600160a01b03909116178155848201518051939450859391926103d892600185019290910190610878565b50604082015180516103f4916002840191602090910190610878565b5090505080868460ff168151811061040e5761040e610c96565b602090810291909101015281516001600160a01b0316632eb2c2d63330856020015186604001516040518563ffffffff1660e01b81526004016104549493929190610ce7565b600060405180830381600087803b15801561046e57600080fd5b505af1158015610482573d6000803e3d6000fd5b5050505080877f10b61b06ff573bc563e8dd478c7b5a9f163bad1ce17041c506c774e6d67627d5846040516104b79190610d42565b60405180910390a3505080806104cc90610d96565b915050610346565b5060005b86518160ff161015610655576000878260ff16815181106104fb576104fb610c96565b60200260200101519050610513603580546001019055565b600061051e60355490565b6000818152603760209081526040909120845181546001600160a01b0319166001600160a01b039091161781559084015160019091015585519091508190869060ff861690811061057157610571610c96565b602090810291909101015281516001600160a01b03166323b872dd3360208501516040516001600160e01b031960e085901b1681526001600160a01b0390921660048301523060248301526044820152606401600060405180830381600087803b1580156105de57600080fd5b505af11580156105f2573d6000803e3d6000fd5b50506040805185516001600160a01b03168152602080870151908201528493508a92507ff7796afa4fae4049e99e7c3b826d5c94d6f1c1717d528cce17c7e284ed539ee3910160405180910390a35050808061064d90610d96565b9150506104d8565b5060005b85518160ff1610156107f7576000868260ff168151811061067c5761067c610c96565b60200260200101519050610694603680546001019055565b600061069f60365490565b6000818152603860209081526040909120845181546001600160a01b0319166001600160a01b039091161781559084015160019091015584519091508190859060ff86169081106106f2576106f2610c96565b602090810291909101015281516001600160a01b03166323b872dd3360208501516040516001600160e01b031960e085901b1681526001600160a01b0390921660048301523060248301526044820152606401602060405180830381600087803b15801561075f57600080fd5b505af1158015610773573d6000803e3d6000fd5b505050506040513d601f19601f820116820180604052508101906107979190610dc4565b506040805183516001600160a01b0316815260208085015190820152829189917f62022dd3f80bb6fbb4339aa53350292b79fceaa76793933e98b908b0a18cab8c910160405180910390a3505080806107ef90610d96565b915050610659565b506040805160608101825284815260208082018590528183018490526000878152603a82529290922081518051929391926108359284920190610878565b50602082810151805161084e9260018501920190610878565b506040820151805161086a916002840191602090910190610878565b509050505050509392505050565b8280548282559060005260206000209081019282156108b3579160200282015b828111156108b3578251825591602001919060010190610898565b506108bf9291506108c3565b5090565b5b808211156108bf57600081556001016108c4565b634e487b7160e01b600052604160045260246000fd5b6040805190810167ffffffffffffffff81118282101715610911576109116108d8565b60405290565b6040516060810167ffffffffffffffff81118282101715610911576109116108d8565b604051601f8201601f1916810167ffffffffffffffff81118282101715610963576109636108d8565b604052919050565b600067ffffffffffffffff821115610985576109856108d8565b5060051b60200190565b6001600160a01b03811681146109a457600080fd5b50565b600082601f8301126109b857600080fd5b813560206109cd6109c88361096b565b61093a565b82815260059290921b840181019181810190868411156109ec57600080fd5b8286015b84811015610a0757803583529183019183016109f0565b509695505050505050565b600082601f830112610a2357600080fd5b81356020610a336109c88361096b565b82815260069290921b84018101918181019086841115610a5257600080fd5b8286015b84811015610a075760408189031215610a6f5760008081fd5b610a776108ee565b8135610a828161098f565b81528185013585820152835291830191604001610a56565b60008060008060808587031215610ab057600080fd5b84359350602085013567ffffffffffffffff80821115610acf57600080fd5b818701915087601f830112610ae357600080fd5b610af06109c8833561096b565b82358082526020808301929160051b8501018a811115610b0f57600080fd5b602085015b81811015610bb7578481351115610b2a57600080fd5b803586016060818e03601f19011215610b4257600080fd5b610b4a610917565b6020820135610b588161098f565b8152604082013587811115610b6c57600080fd5b610b7b8f6020838601016109a7565b602083015250606082013587811115610b9357600080fd5b610ba28f6020838601016109a7565b60408301525085525060209384019301610b14565b5090965050506040870135915080821115610bd157600080fd5b610bdd88838901610a12565b93506060870135915080821115610bf357600080fd5b50610c0087828801610a12565b91505092959194509250565b600060208284031215610c1e57600080fd5b5035919050565b6020808252604b908201527f53616c6573206861766520616c7265616479207374617274656420616e64206360408201527f616e6e6f74206368616e67652074686520636f6e74656e74206f66207468652060608201526a1c995dd85c99081c1bdbdb60aa1b608082015260a00190565b634e487b7160e01b600052603260045260246000fd5b600081518084526020808501945080840160005b83811015610cdc57815187529582019590820190600101610cc0565b509495945050505050565b6001600160a01b0385811682528416602082015260a060408201819052600090610d1390830185610cac565b8281036060840152610d258185610cac565b838103608090940193909352505060008152602001949350505050565b602080825282516001600160a01b03168282015282015160606040830152600090610d706080840182610cac565b90506040840151601f19848303016060850152610d8d8282610cac565b95945050505050565b600060ff821660ff811415610dbb57634e487b7160e01b600052601160045260246000fd5b60010192915050565b600060208284031215610dd657600080fd5b81518015158114610de657600080fd5b939250505056fea2646970667358221220eed38b8ed1084a320bba9deab66ddb0e977f3456579dd825ede236e8e00005db64736f6c63430008090033",
  "immutableReferences": {},
  "source": "// SPDX-License-Identifier: MIT\npragma solidity 0.8.9;\n\nimport \"@openzeppelin/contracts-upgradeable/token/ERC1155/IERC1155Upgradeable.sol\";\nimport \"@openzeppelin/contracts-upgradeable/token/ERC721/IERC721Upgradeable.sol\";\nimport \"@openzeppelin/contracts-upgradeable/token/ERC20/IERC20Upgradeable.sol\";\nimport \"@openzeppelin/contracts-upgradeable/utils/ContextUpgradeable.sol\";\nimport \"@openzeppelin/contracts-upgradeable/utils/CountersUpgradeable.sol\";\n\n/// Meland.ai tier core data storage contract.\n\ncontract MelandTierStorage is ContextUpgradeable {\n    using CountersUpgradeable for CountersUpgradeable.Counter;\n    CountersUpgradeable.Counter private _rewardIdCounter;\n    CountersUpgradeable.Counter private _erc1155RewardIdCounter;\n    CountersUpgradeable.Counter private _erc721RewardIdCounter;\n    CountersUpgradeable.Counter private _erc20RewardIdCounter;\n\n    struct Reward {\n        uint256[] erc1155RewardIds;\n        uint256[] erc721RewardIds;\n        uint256[] erc20RewardIds;\n    }\n\n    struct ERC1155Reward {\n        IERC1155Upgradeable erc1155;\n        uint256[] tokenIds;\n        uint256[] amounts;\n    }\n\n    struct ERC721Reward {\n        IERC721Upgradeable erc721;\n        uint256 tokenId;\n    }\n\n    struct ERC20Reward {\n        IERC20Upgradeable erc20;\n        uint256 amount;\n    }\n\n    mapping(uint256 => ERC721Reward) public erc721RewardById;\n    mapping(uint256 => ERC20Reward) public erc20RewardById;\n    mapping(uint256 => ERC1155Reward) public erc1155RewardById;\n    mapping(uint256 => Reward) internal rewardById;\n\n    /// Current tier's remaining must-win prizes\n    /// To prevent people from cheating, he is private\n    mapping(uint256 => uint256[]) internal currentNFTPoolFor100PercentByCId;\n\n    /// Must-win prizes at the opening of the sale\n    /// For the sake of openness and transparency, he is public\n    mapping(uint256 => uint256[]) internal saleNFTPoolFor100PercentByCId;\n\n    /// Current tier's remaining probability of winning a prize\n    /// To prevent people from cheating, he is private\n    mapping(uint256 => uint256[]) internal currentNFTPoolForOptionByCId;\n\n    /// Probability of winning a prize at the opening of the sale\n    /// For the sake of openness and transparency, he is public\n    mapping(uint256 => uint256[]) internal saleNFTPoolForOptionByCId;\n\n    /// Whether the rewards have been transferred, to prevent excessive transfer bugs that lead to insufficient balance\n    mapping(uint256 => bool) internal rewardTransferedByRewardId;\n\n    // EVENTS\n    event TierStartSale(uint256 indexed cid);\n\n    event RewaardPoolUpdate(uint256 indexed cid);\n\n    event CreateRewardERC1155(\n        uint256 indexed rewardId,\n        uint256 indexed erc1155RewardId,\n        ERC1155Reward erc1155reward\n    );\n    event CreateRewardERC721(\n        uint256 indexed rewardId,\n        uint256 indexed erc721RewardId,\n        ERC721Reward erc721reward\n    );\n    event CreateRewardERC20(\n        uint256 indexed rewardId,\n        uint256 indexed erc20RewardId,\n        ERC20Reward erc20reward\n    );\n\n    event OpenTier(uint256[2] rewardIds);\n\n    function _startSale(uint256 cid) internal {\n        require(\n            currentNFTPoolFor100PercentByCId[cid].length > 0,\n            \"Sales don't seem to be ready(100Percent reward)\"\n        );\n        saleNFTPoolFor100PercentByCId[cid] = currentNFTPoolFor100PercentByCId[\n            cid\n        ];\n        saleNFTPoolForOptionByCId[cid] = currentNFTPoolForOptionByCId[cid];\n\n        emit TierStartSale(cid);\n    }\n\n    // Send the reward to the user, which usually happens when tier is open\n    function _transferReward(address to, uint256 rewardId) internal {\n        require(\n            rewardTransferedByRewardId[rewardId] == false,\n            \"The award has already been transferred\"\n        );\n        rewardTransferedByRewardId[rewardId] = true;\n\n        Reward storage reward = rewardById[rewardId];\n\n        // recive erc1155\n        if (reward.erc1155RewardIds.length > 0) {\n            for (uint256 i = 0; i < reward.erc1155RewardIds.length; i++) {\n                uint256 erc1155RewardId = reward.erc1155RewardIds[i];\n                ERC1155Reward memory erc1155reward = erc1155RewardById[\n                    erc1155RewardId\n                ];\n                erc1155reward.erc1155.safeBatchTransferFrom(\n                    address(this),\n                    to,\n                    erc1155reward.tokenIds,\n                    erc1155reward.amounts,\n                    \"\"\n                );\n            }\n        }\n\n        if (reward.erc721RewardIds.length > 0) {\n            for (uint256 i = 0; i < reward.erc721RewardIds.length; i++) {\n                uint256 erc721RewardId = reward.erc721RewardIds[i];\n                ERC721Reward memory erc721reward = erc721RewardById[\n                    erc721RewardId\n                ];\n                erc721reward.erc721.transferFrom(\n                    address(this),\n                    to,\n                    erc721reward.tokenId\n                );\n            }\n        }\n\n        // if (reward.erc20RewardIds.length > 0) {\n        //     for (uint256 i = 0; i < reward.erc20RewardIds.length; i++) {\n        //         uint256 erc20RewardId = reward.erc20RewardIds[i];\n        //         ERC20Reward memory erc20reward = erc20RewardById[erc20RewardId];\n        //         erc20reward.erc20.transferFrom(\n        //             address(this),\n        //             to,\n        //             erc20reward.amount\n        //         );\n        //     }\n        // }\n    }\n\n    function _createReward(\n        ERC1155Reward[] memory erc1155rewards,\n        ERC721Reward[] memory erc721rewards,\n        ERC20Reward[] memory erc20rewards\n    ) internal returns (uint256 rewardId) {\n        _rewardIdCounter.increment();\n        rewardId = _rewardIdCounter.current();\n\n        uint256[] memory erc1155RewardIds = new uint256[](\n            erc1155rewards.length\n        );\n        uint256[] memory erc721RewardIds = new uint256[](erc721rewards.length);\n        uint256[] memory erc20RewardIds = new uint256[](erc1155rewards.length);\n\n        // uint8 is used here because you can't set too many things for each reward.\n        for (uint8 i = 0; i < erc1155rewards.length; i++) {\n            ERC1155Reward memory erc1155reward = erc1155rewards[i];\n            _erc1155RewardIdCounter.increment();\n            uint256 erc1155RewardId = _erc1155RewardIdCounter.current();\n            erc1155RewardById[erc1155RewardId] = erc1155reward;\n            erc1155RewardIds[i] = erc1155RewardId;\n            erc1155reward.erc1155.safeBatchTransferFrom(\n                _msgSender(),\n                address(this),\n                erc1155reward.tokenIds,\n                erc1155reward.amounts,\n                \"\"\n            );\n\n            emit CreateRewardERC1155(rewardId, erc1155RewardId, erc1155reward);\n        }\n\n        for (uint8 i = 0; i < erc721rewards.length; i++) {\n            ERC721Reward memory erc721reward = erc721rewards[i];\n            _erc721RewardIdCounter.increment();\n            uint256 erc721RewardId = _erc721RewardIdCounter.current();\n            erc721RewardById[erc721RewardId] = erc721reward;\n            erc721RewardIds[i] = erc721RewardId;\n\n            erc721reward.erc721.transferFrom(\n                _msgSender(),\n                address(this),\n                erc721reward.tokenId\n            );\n\n            emit CreateRewardERC721(rewardId, erc721RewardId, erc721reward);\n        }\n\n        for (uint8 i = 0; i < erc20rewards.length; i++) {\n            ERC20Reward memory erc20reward = erc20rewards[i];\n            _erc20RewardIdCounter.increment();\n            uint256 erc20RewardId = _erc20RewardIdCounter.current();\n            erc20RewardById[erc20RewardId] = erc20reward;\n            erc20RewardIds[i] = erc20RewardId;\n\n            erc20reward.erc20.transferFrom(\n                _msgSender(),\n                address(this),\n                erc20reward.amount\n            );\n            emit CreateRewardERC20(rewardId, erc20RewardId, erc20reward);\n        }\n\n        rewardById[rewardId] = Reward(\n            erc1155RewardIds,\n            erc721RewardIds,\n            erc20RewardIds\n        );\n    }\n\n    // Add bonus items in bulk to save gas fee\n    // note: that the token associated with adding the reward must be approved in advance.\n    function addOptionReward(\n        uint256 cid,\n        ERC1155Reward[] memory erc1155rewards,\n        ERC721Reward[] memory erc721rewards,\n        ERC20Reward[] memory erc20rewards\n    ) public {\n        require(\n            saleNFTPoolFor100PercentByCId[cid].length == 0,\n            \"Sales have already started and cannot change the content of the reward pool\"\n        );\n        currentNFTPoolForOptionByCId[cid].push(\n            _createReward(erc1155rewards, erc721rewards, erc20rewards)\n        );\n        emit RewaardPoolUpdate(cid);\n    }\n\n    function fixed100PercentReward(\n        uint256 cid,\n        ERC1155Reward[] memory erc1155rewards,\n        ERC721Reward[] memory erc721rewards,\n        ERC20Reward[] memory erc20rewards\n    ) public {\n        saleNFTPoolFor100PercentByCId[cid].push(\n            _createReward(erc1155rewards, erc721rewards, erc20rewards)\n        );\n        emit RewaardPoolUpdate(cid);\n    }\n\n    // Add bonus items in bulk to save gas fee\n    // note: that the token associated with adding the reward must be approved in advance.\n    function add100PercentReward(\n        uint256 cid,\n        ERC1155Reward[] memory erc1155rewards,\n        ERC721Reward[] memory erc721rewards,\n        ERC20Reward[] memory erc20rewards\n    ) public {\n        require(\n            saleNFTPoolFor100PercentByCId[cid].length == 0,\n            \"Sales have already started and cannot change the content of the reward pool\"\n        );\n        currentNFTPoolFor100PercentByCId[cid].push(\n            _createReward(erc1155rewards, erc721rewards, erc20rewards)\n        );\n        emit RewaardPoolUpdate(cid);\n    }\n}\n",
  "sourcePath": "/Users/alberthuang/code/contracts/contracts/MelandTierStorage.sol",
  "compiler": {
    "name": "solc",
    "version": "0.8.9+commit.e5eed63a.Emscripten.clang"
  },
  "schemaVersion": "3.4.3",
  "updatedAt": "2022-01-25T07:44:20.589Z",
  "devdoc": {
    "kind": "dev",
    "methods": {},
    "version": 1
  },
  "userdoc": {
    "kind": "user",
    "methods": {},
    "notice": "Meland.ai tier core data storage contract.",
    "version": 1
  }
}