{
  "contractName": "MelandStake",
  "abi": [
    {
      "inputs": [],
      "stateMutability": "nonpayable",
      "type": "constructor"
    },
    {
      "anonymous": false,
      "inputs": [
        {
          "indexed": false,
          "internalType": "address",
          "name": "previousAdmin",
          "type": "address"
        },
        {
          "indexed": false,
          "internalType": "address",
          "name": "newAdmin",
          "type": "address"
        }
      ],
      "name": "AdminChanged",
      "type": "event"
    },
    {
      "anonymous": false,
      "inputs": [
        {
          "indexed": true,
          "internalType": "address",
          "name": "beacon",
          "type": "address"
        }
      ],
      "name": "BeaconUpgraded",
      "type": "event"
    },
    {
      "anonymous": false,
      "inputs": [
        {
          "indexed": true,
          "internalType": "bytes32",
          "name": "role",
          "type": "bytes32"
        },
        {
          "indexed": true,
          "internalType": "bytes32",
          "name": "previousAdminRole",
          "type": "bytes32"
        },
        {
          "indexed": true,
          "internalType": "bytes32",
          "name": "newAdminRole",
          "type": "bytes32"
        }
      ],
      "name": "RoleAdminChanged",
      "type": "event"
    },
    {
      "anonymous": false,
      "inputs": [
        {
          "indexed": true,
          "internalType": "bytes32",
          "name": "role",
          "type": "bytes32"
        },
        {
          "indexed": true,
          "internalType": "address",
          "name": "account",
          "type": "address"
        },
        {
          "indexed": true,
          "internalType": "address",
          "name": "sender",
          "type": "address"
        }
      ],
      "name": "RoleGranted",
      "type": "event"
    },
    {
      "anonymous": false,
      "inputs": [
        {
          "indexed": true,
          "internalType": "bytes32",
          "name": "role",
          "type": "bytes32"
        },
        {
          "indexed": true,
          "internalType": "address",
          "name": "account",
          "type": "address"
        },
        {
          "indexed": true,
          "internalType": "address",
          "name": "sender",
          "type": "address"
        }
      ],
      "name": "RoleRevoked",
      "type": "event"
    },
    {
      "anonymous": false,
      "inputs": [
        {
          "indexed": true,
          "internalType": "address",
          "name": "implementation",
          "type": "address"
        }
      ],
      "name": "Upgraded",
      "type": "event"
    },
    {
      "inputs": [],
      "name": "DEFAULT_ADMIN_ROLE",
      "outputs": [
        {
          "internalType": "bytes32",
          "name": "",
          "type": "bytes32"
        }
      ],
      "stateMutability": "view",
      "type": "function"
    },
    {
      "inputs": [],
      "name": "GM_ROLE",
      "outputs": [
        {
          "internalType": "bytes32",
          "name": "",
          "type": "bytes32"
        }
      ],
      "stateMutability": "view",
      "type": "function"
    },
    {
      "inputs": [],
      "name": "MINTER_ROLE",
      "outputs": [
        {
          "internalType": "bytes32",
          "name": "",
          "type": "bytes32"
        }
      ],
      "stateMutability": "view",
      "type": "function"
    },
    {
      "inputs": [],
      "name": "UPGRADER_ROLE",
      "outputs": [
        {
          "internalType": "bytes32",
          "name": "",
          "type": "bytes32"
        }
      ],
      "stateMutability": "view",
      "type": "function"
    },
    {
      "inputs": [
        {
          "internalType": "bytes32",
          "name": "role",
          "type": "bytes32"
        }
      ],
      "name": "getRoleAdmin",
      "outputs": [
        {
          "internalType": "bytes32",
          "name": "",
          "type": "bytes32"
        }
      ],
      "stateMutability": "view",
      "type": "function"
    },
    {
      "inputs": [
        {
          "internalType": "bytes32",
          "name": "role",
          "type": "bytes32"
        },
        {
          "internalType": "address",
          "name": "account",
          "type": "address"
        }
      ],
      "name": "grantRole",
      "outputs": [],
      "stateMutability": "nonpayable",
      "type": "function"
    },
    {
      "inputs": [
        {
          "internalType": "bytes32",
          "name": "role",
          "type": "bytes32"
        },
        {
          "internalType": "address",
          "name": "account",
          "type": "address"
        }
      ],
      "name": "hasRole",
      "outputs": [
        {
          "internalType": "bool",
          "name": "",
          "type": "bool"
        }
      ],
      "stateMutability": "view",
      "type": "function"
    },
    {
      "inputs": [
        {
          "internalType": "bytes32",
          "name": "role",
          "type": "bytes32"
        },
        {
          "internalType": "address",
          "name": "account",
          "type": "address"
        }
      ],
      "name": "renounceRole",
      "outputs": [],
      "stateMutability": "nonpayable",
      "type": "function"
    },
    {
      "inputs": [
        {
          "internalType": "bytes32",
          "name": "role",
          "type": "bytes32"
        },
        {
          "internalType": "address",
          "name": "account",
          "type": "address"
        }
      ],
      "name": "revokeRole",
      "outputs": [],
      "stateMutability": "nonpayable",
      "type": "function"
    },
    {
      "inputs": [
        {
          "internalType": "bytes4",
          "name": "interfaceId",
          "type": "bytes4"
        }
      ],
      "name": "supportsInterface",
      "outputs": [
        {
          "internalType": "bool",
          "name": "",
          "type": "bool"
        }
      ],
      "stateMutability": "view",
      "type": "function"
    },
    {
      "inputs": [
        {
          "internalType": "address",
          "name": "newImplementation",
          "type": "address"
        }
      ],
      "name": "upgradeTo",
      "outputs": [],
      "stateMutability": "nonpayable",
      "type": "function"
    },
    {
      "inputs": [
        {
          "internalType": "address",
          "name": "newImplementation",
          "type": "address"
        },
        {
          "internalType": "bytes",
          "name": "data",
          "type": "bytes"
        }
      ],
      "name": "upgradeToAndCall",
      "outputs": [],
      "stateMutability": "payable",
      "type": "function"
    },
    {
      "inputs": [],
      "name": "initialize",
      "outputs": [],
      "stateMutability": "nonpayable",
      "type": "function"
    }
  ],
  "bytecode": "0x60a06040523060805234801561001457600080fd5b50600054610100900460ff168061002e575060005460ff16155b6100845760405162461bcd60e51b815260206004820152602e602482015260008051602061140083398151915260448201526d191e481a5b9a5d1a585b1a5e995960921b60648201526084015b60405180910390fd5b600054610100900460ff161580156100a6576000805461ffff19166101011790555b80156100b8576000805461ff00191690555b50600054610100900460ff16806100d2575060005460ff16155b6101235760405162461bcd60e51b815260206004820152602e602482015260008051602061140083398151915260448201526d191e481a5b9a5d1a585b1a5e995960921b606482015260840161007b565b600054610100900460ff16158015610145576000805461ffff19166101011790555b8015610157576000805461ff00191690555b50608051611278610188600039600081816103a5015281816103e50152818161046e01526104ae01526112786000f3fe6080604052600436106100c25760003560e01c80634f1ef2861161007f578063a217fddf11610059578063a217fddf14610218578063d53913931461022d578063d547741f14610261578063f72c0d8b1461028157600080fd5b80634f1ef286146101d05780638129fc1c146101e357806391d14854146101f857600080fd5b806301ffc9a7146100c7578063248a9ca3146100fc5780632f2ff15d1461013a57806330c7be2c1461015c57806336568abe146101905780633659cfe6146101b0575b600080fd5b3480156100d357600080fd5b506100e76100e2366004610e49565b6102b5565b60405190151581526020015b60405180910390f35b34801561010857600080fd5b5061012c610117366004610e73565b60009081526065602052604090206001015490565b6040519081526020016100f3565b34801561014657600080fd5b5061015a610155366004610ea8565b6102ec565b005b34801561016857600080fd5b5061012c7ff5eb84615c2a00ecaf817d13794ebd6299c9e01c395bf4018453f13f577f544981565b34801561019c57600080fd5b5061015a6101ab366004610ea8565b610317565b3480156101bc57600080fd5b5061015a6101cb366004610ed4565b61039a565b61015a6101de366004610f05565b610463565b3480156101ef57600080fd5b5061015a610519565b34801561020457600080fd5b506100e7610213366004610ea8565b610594565b34801561022457600080fd5b5061012c600081565b34801561023957600080fd5b5061012c7f9f2df0fed2c77648de5860a4cc508cd0818c85b8b8a1ab4ceeef8d981c8956a681565b34801561026d57600080fd5b5061015a61027c366004610ea8565b6105bf565b34801561028d57600080fd5b5061012c7f189ab7a9244df0848122154315af71fe140f3db0fe014031783b0946b8c9d2e381565b60006001600160e01b03198216637965db0b60e01b14806102e657506301ffc9a760e01b6001600160e01b03198316145b92915050565b60008281526065602052604090206001015461030881336105e5565b6103128383610649565b505050565b6001600160a01b038116331461038c5760405162461bcd60e51b815260206004820152602f60248201527f416363657373436f6e74726f6c3a2063616e206f6e6c792072656e6f756e636560448201526e103937b632b9903337b91039b2b63360891b60648201526084015b60405180910390fd5b61039682826106cf565b5050565b306001600160a01b037f00000000000000000000000000000000000000000000000000000000000000001614156103e35760405162461bcd60e51b815260040161038390610fc7565b7f00000000000000000000000000000000000000000000000000000000000000006001600160a01b0316610415610736565b6001600160a01b03161461043b5760405162461bcd60e51b815260040161038390611013565b61044481610764565b604080516000808252602082019092526104609183919061078f565b50565b306001600160a01b037f00000000000000000000000000000000000000000000000000000000000000001614156104ac5760405162461bcd60e51b815260040161038390610fc7565b7f00000000000000000000000000000000000000000000000000000000000000006001600160a01b03166104de610736565b6001600160a01b0316146105045760405162461bcd60e51b815260040161038390611013565b61050d82610764565b6103968282600161078f565b600054610100900460ff1680610532575060005460ff16155b61054e5760405162461bcd60e51b81526004016103839061105f565b600054610100900460ff16158015610570576000805461ffff19166101011790555b6105786108da565b610580610941565b8015610460576000805461ff001916905550565b60009182526065602090815260408084206001600160a01b0393909316845291905290205460ff1690565b6000828152606560205260409020600101546105db81336105e5565b61031283836106cf565b6105ef8282610594565b61039657610607816001600160a01b031660146109d4565b6106128360206109d4565b6040516020016106239291906110dd565b60408051601f198184030181529082905262461bcd60e51b825261038391600401611152565b6106538282610594565b6103965760008281526065602090815260408083206001600160a01b03851684529091529020805460ff1916600117905561068b3390565b6001600160a01b0316816001600160a01b0316837f2f8788117e7eff1d82e926ec794901d17c78024a50270940304540a733656f0d60405160405180910390a45050565b6106d98282610594565b156103965760008281526065602090815260408083206001600160a01b0385168085529252808320805460ff1916905551339285917ff6391f5c32d9c69d2a47ea670b442974b53935d1edc7fd64eb21e047a839171b9190a45050565b7f360894a13ba1a3210667c828492db98dca3e2076cc3735a920a3ca505d382bbc546001600160a01b031690565b7f189ab7a9244df0848122154315af71fe140f3db0fe014031783b0946b8c9d2e361039681336105e5565b6000610799610736565b90506107a484610b77565b6000835111806107b15750815b156107c2576107c08484610c1c565b505b7f4910fdfa16fed3260ed0e7147f7cc6da11a60208b5b9406d12a635614ffd9143805460ff166108d357805460ff191660011781556040516001600160a01b038316602482015261084190869060440160408051601f198184030181529190526020810180516001600160e01b0316631b2ce7f360e11b179052610c1c565b50805460ff19168155610852610736565b6001600160a01b0316826001600160a01b0316146108ca5760405162461bcd60e51b815260206004820152602f60248201527f45524331393637557067726164653a207570677261646520627265616b73206660448201526e75727468657220757067726164657360881b6064820152608401610383565b6108d385610d07565b5050505050565b600054610100900460ff16806108f3575060005460ff16155b61090f5760405162461bcd60e51b81526004016103839061105f565b600054610100900460ff16158015610931576000805461ffff19166101011790555b610939610d47565b610580610d47565b610949610db1565b610954600033610649565b61097e7ff5eb84615c2a00ecaf817d13794ebd6299c9e01c395bf4018453f13f577f544933610649565b6109a87f9f2df0fed2c77648de5860a4cc508cd0818c85b8b8a1ab4ceeef8d981c8956a633610649565b6109d27f189ab7a9244df0848122154315af71fe140f3db0fe014031783b0946b8c9d2e333610649565b565b606060006109e383600261119b565b6109ee9060026111ba565b67ffffffffffffffff811115610a0657610a06610eef565b6040519080825280601f01601f191660200182016040528015610a30576020820181803683370190505b509050600360fc1b81600081518110610a4b57610a4b6111d2565b60200101906001600160f81b031916908160001a905350600f60fb1b81600181518110610a7a57610a7a6111d2565b60200101906001600160f81b031916908160001a9053506000610a9e84600261119b565b610aa99060016111ba565b90505b6001811115610b21576f181899199a1a9b1b9c1cb0b131b232b360811b85600f1660108110610add57610add6111d2565b1a60f81b828281518110610af357610af36111d2565b60200101906001600160f81b031916908160001a90535060049490941c93610b1a816111e8565b9050610aac565b508315610b705760405162461bcd60e51b815260206004820181905260248201527f537472696e67733a20686578206c656e67746820696e73756666696369656e746044820152606401610383565b9392505050565b803b610bdb5760405162461bcd60e51b815260206004820152602d60248201527f455243313936373a206e657720696d706c656d656e746174696f6e206973206e60448201526c1bdd08184818dbdb9d1c9858dd609a1b6064820152608401610383565b7f360894a13ba1a3210667c828492db98dca3e2076cc3735a920a3ca505d382bbc80546001600160a01b0319166001600160a01b0392909216919091179055565b6060823b610c7b5760405162461bcd60e51b815260206004820152602660248201527f416464726573733a2064656c65676174652063616c6c20746f206e6f6e2d636f6044820152651b9d1c9858dd60d21b6064820152608401610383565b600080846001600160a01b031684604051610c9691906111ff565b600060405180830381855af49150503d8060008114610cd1576040519150601f19603f3d011682016040523d82523d6000602084013e610cd6565b606091505b5091509150610cfe828260405180606001604052806027815260200161121c60279139610e10565b95945050505050565b610d1081610b77565b6040516001600160a01b038216907fbc7cd75a20ee27fd9adebab32041f755214dbc6bffa90cc0225b39da2e5c2d3b90600090a250565b600054610100900460ff1680610d60575060005460ff16155b610d7c5760405162461bcd60e51b81526004016103839061105f565b600054610100900460ff16158015610580576000805461ffff19166101011790558015610460576000805461ff001916905550565b600054610100900460ff1680610dca575060005460ff16155b610de65760405162461bcd60e51b81526004016103839061105f565b600054610100900460ff16158015610e08576000805461ffff19166101011790555b610931610d47565b60608315610e1f575081610b70565b825115610e2f5782518084602001fd5b8160405162461bcd60e51b81526004016103839190611152565b600060208284031215610e5b57600080fd5b81356001600160e01b031981168114610b7057600080fd5b600060208284031215610e8557600080fd5b5035919050565b80356001600160a01b0381168114610ea357600080fd5b919050565b60008060408385031215610ebb57600080fd5b82359150610ecb60208401610e8c565b90509250929050565b600060208284031215610ee657600080fd5b610b7082610e8c565b634e487b7160e01b600052604160045260246000fd5b60008060408385031215610f1857600080fd5b610f2183610e8c565b9150602083013567ffffffffffffffff80821115610f3e57600080fd5b818501915085601f830112610f5257600080fd5b813581811115610f6457610f64610eef565b604051601f8201601f19908116603f01168101908382118183101715610f8c57610f8c610eef565b81604052828152886020848701011115610fa557600080fd5b8260208601602083013760006020848301015280955050505050509250929050565b6020808252602c908201527f46756e6374696f6e206d7573742062652063616c6c6564207468726f7567682060408201526b19195b1959d85d1958d85b1b60a21b606082015260800190565b6020808252602c908201527f46756e6374696f6e206d7573742062652063616c6c6564207468726f7567682060408201526b6163746976652070726f787960a01b606082015260800190565b6020808252602e908201527f496e697469616c697a61626c653a20636f6e747261637420697320616c72656160408201526d191e481a5b9a5d1a585b1a5e995960921b606082015260800190565b60005b838110156110c85781810151838201526020016110b0565b838111156110d7576000848401525b50505050565b7f416363657373436f6e74726f6c3a206163636f756e74200000000000000000008152600083516111158160178501602088016110ad565b7001034b99036b4b9b9b4b733903937b6329607d1b60179184019182015283516111468160288401602088016110ad565b01602801949350505050565b60208152600082518060208401526111718160408501602087016110ad565b601f01601f19169190910160400192915050565b634e487b7160e01b600052601160045260246000fd5b60008160001904831182151516156111b5576111b5611185565b500290565b600082198211156111cd576111cd611185565b500190565b634e487b7160e01b600052603260045260246000fd5b6000816111f7576111f7611185565b506000190190565b600082516112118184602087016110ad565b919091019291505056fe416464726573733a206c6f772d6c6576656c2064656c65676174652063616c6c206661696c6564a2646970667358221220bb292e7728d9b223d489a9d39a0a1d79d6a9b90b0fcc49e3cfa7cf1b56963e4d64736f6c63430008090033496e697469616c697a61626c653a20636f6e747261637420697320616c726561",
  "immutableReferences": {
    "897": [
      {
        "length": 32,
        "start": 933
      },
      {
        "length": 32,
        "start": 997
      },
      {
        "length": 32,
        "start": 1134
      },
      {
        "length": 32,
        "start": 1198
      }
    ]
  },
  "source": "// SPDX-License-Identifier: MIT\npragma solidity 0.8.9;\n\nimport \"@openzeppelin/contracts-upgradeable/proxy/utils/UUPSUpgradeable.sol\";\nimport \"./MelandAccessRoles.sol\";\n\n\ncontract MelandStake is MelandAccessRoles, UUPSUpgradeable {\n    /// @custom:oz-upgrades-unsafe-allow constructor\n    constructor() initializer {}\n\n    function initialize() public initializer {\n        __UUPSUpgradeable_init();\n        __MelandAccessRoles_init();\n    }\n\n    function _authorizeUpgrade(address newImplementation)\n        internal\n        override\n        onlyRole(UPGRADER_ROLE)\n    {\n\n    }\n}",
  "sourcePath": "/Users/alberthuang/code/icw/meland/contracts/MelandStake.sol",
  "compiler": {
    "name": "solc",
    "version": "0.8.9+commit.e5eed63a.Emscripten.clang"
  },
  "schemaVersion": "3.4.3",
  "updatedAt": "2021-12-19T13:18:52.268Z",
  "devdoc": {
    "kind": "dev",
    "methods": {
      "constructor": {
        "custom:oz-upgrades-unsafe-allow": "constructor"
      },
      "getRoleAdmin(bytes32)": {
        "details": "Returns the admin role that controls `role`. See {grantRole} and {revokeRole}. To change a role's admin, use {_setRoleAdmin}."
      },
      "grantRole(bytes32,address)": {
        "details": "Grants `role` to `account`. If `account` had not been already granted `role`, emits a {RoleGranted} event. Requirements: - the caller must have ``role``'s admin role."
      },
      "hasRole(bytes32,address)": {
        "details": "Returns `true` if `account` has been granted `role`."
      },
      "renounceRole(bytes32,address)": {
        "details": "Revokes `role` from the calling account. Roles are often managed via {grantRole} and {revokeRole}: this function's purpose is to provide a mechanism for accounts to lose their privileges if they are compromised (such as when a trusted device is misplaced). If the calling account had been revoked `role`, emits a {RoleRevoked} event. Requirements: - the caller must be `account`."
      },
      "revokeRole(bytes32,address)": {
        "details": "Revokes `role` from `account`. If `account` had been granted `role`, emits a {RoleRevoked} event. Requirements: - the caller must have ``role``'s admin role."
      },
      "supportsInterface(bytes4)": {
        "details": "See {IERC165-supportsInterface}."
      },
      "upgradeTo(address)": {
        "details": "Upgrade the implementation of the proxy to `newImplementation`. Calls {_authorizeUpgrade}. Emits an {Upgraded} event."
      },
      "upgradeToAndCall(address,bytes)": {
        "details": "Upgrade the implementation of the proxy to `newImplementation`, and subsequently execute the function call encoded in `data`. Calls {_authorizeUpgrade}. Emits an {Upgraded} event."
      }
    },
    "version": 1
  },
  "userdoc": {
    "kind": "user",
    "methods": {},
    "version": 1
  }
}