{
  "contractName": "Meland1155Placeable",
  "abi": [
    {
      "anonymous": false,
      "inputs": [
        {
          "indexed": false,
          "internalType": "address",
          "name": "previousAdmin",
          "type": "address"
        },
        {
          "indexed": false,
          "internalType": "address",
          "name": "newAdmin",
          "type": "address"
        }
      ],
      "name": "AdminChanged",
      "type": "event"
    },
    {
      "anonymous": false,
      "inputs": [
        {
          "indexed": true,
          "internalType": "address",
          "name": "account",
          "type": "address"
        },
        {
          "indexed": true,
          "internalType": "address",
          "name": "operator",
          "type": "address"
        },
        {
          "indexed": false,
          "internalType": "bool",
          "name": "approved",
          "type": "bool"
        }
      ],
      "name": "ApprovalForAll",
      "type": "event"
    },
    {
      "anonymous": false,
      "inputs": [
        {
          "indexed": true,
          "internalType": "address",
          "name": "beacon",
          "type": "address"
        }
      ],
      "name": "BeaconUpgraded",
      "type": "event"
    },
    {
      "anonymous": false,
      "inputs": [
        {
          "indexed": false,
          "internalType": "bool",
          "name": "_freezeEnabled",
          "type": "bool"
        }
      ],
      "name": "FreezeEnabledUpdate",
      "type": "event"
    },
    {
      "anonymous": false,
      "inputs": [
        {
          "indexed": true,
          "internalType": "bytes",
          "name": "rarity",
          "type": "bytes"
        },
        {
          "indexed": false,
          "internalType": "uint256",
          "name": "mintMax",
          "type": "uint256"
        }
      ],
      "name": "RarityUpdate",
      "type": "event"
    },
    {
      "anonymous": false,
      "inputs": [
        {
          "indexed": true,
          "internalType": "bytes32",
          "name": "role",
          "type": "bytes32"
        },
        {
          "indexed": true,
          "internalType": "bytes32",
          "name": "previousAdminRole",
          "type": "bytes32"
        },
        {
          "indexed": true,
          "internalType": "bytes32",
          "name": "newAdminRole",
          "type": "bytes32"
        }
      ],
      "name": "RoleAdminChanged",
      "type": "event"
    },
    {
      "anonymous": false,
      "inputs": [
        {
          "indexed": true,
          "internalType": "bytes32",
          "name": "role",
          "type": "bytes32"
        },
        {
          "indexed": true,
          "internalType": "address",
          "name": "account",
          "type": "address"
        },
        {
          "indexed": true,
          "internalType": "address",
          "name": "sender",
          "type": "address"
        }
      ],
      "name": "RoleGranted",
      "type": "event"
    },
    {
      "anonymous": false,
      "inputs": [
        {
          "indexed": true,
          "internalType": "bytes32",
          "name": "role",
          "type": "bytes32"
        },
        {
          "indexed": true,
          "internalType": "address",
          "name": "account",
          "type": "address"
        },
        {
          "indexed": true,
          "internalType": "address",
          "name": "sender",
          "type": "address"
        }
      ],
      "name": "RoleRevoked",
      "type": "event"
    },
    {
      "anonymous": false,
      "inputs": [
        {
          "indexed": true,
          "internalType": "address",
          "name": "operator",
          "type": "address"
        },
        {
          "indexed": true,
          "internalType": "address",
          "name": "from",
          "type": "address"
        },
        {
          "indexed": true,
          "internalType": "address",
          "name": "to",
          "type": "address"
        },
        {
          "indexed": false,
          "internalType": "uint256[]",
          "name": "ids",
          "type": "uint256[]"
        },
        {
          "indexed": false,
          "internalType": "uint256[]",
          "name": "values",
          "type": "uint256[]"
        }
      ],
      "name": "TransferBatch",
      "type": "event"
    },
    {
      "anonymous": false,
      "inputs": [
        {
          "indexed": true,
          "internalType": "address",
          "name": "operator",
          "type": "address"
        },
        {
          "indexed": true,
          "internalType": "address",
          "name": "from",
          "type": "address"
        },
        {
          "indexed": true,
          "internalType": "address",
          "name": "to",
          "type": "address"
        },
        {
          "indexed": false,
          "internalType": "uint256",
          "name": "id",
          "type": "uint256"
        },
        {
          "indexed": false,
          "internalType": "uint256",
          "name": "value",
          "type": "uint256"
        }
      ],
      "name": "TransferSingle",
      "type": "event"
    },
    {
      "anonymous": false,
      "inputs": [
        {
          "indexed": false,
          "internalType": "string",
          "name": "value",
          "type": "string"
        },
        {
          "indexed": true,
          "internalType": "uint256",
          "name": "id",
          "type": "uint256"
        }
      ],
      "name": "URI",
      "type": "event"
    },
    {
      "anonymous": false,
      "inputs": [
        {
          "indexed": true,
          "internalType": "address",
          "name": "implementation",
          "type": "address"
        }
      ],
      "name": "Upgraded",
      "type": "event"
    },
    {
      "inputs": [],
      "name": "DEFAULT_ADMIN_ROLE",
      "outputs": [
        {
          "internalType": "bytes32",
          "name": "",
          "type": "bytes32"
        }
      ],
      "stateMutability": "view",
      "type": "function",
      "constant": true
    },
    {
      "inputs": [],
      "name": "GM_ROLE",
      "outputs": [
        {
          "internalType": "bytes32",
          "name": "",
          "type": "bytes32"
        }
      ],
      "stateMutability": "view",
      "type": "function",
      "constant": true
    },
    {
      "inputs": [],
      "name": "MINTER_ROLE",
      "outputs": [
        {
          "internalType": "bytes32",
          "name": "",
          "type": "bytes32"
        }
      ],
      "stateMutability": "view",
      "type": "function",
      "constant": true
    },
    {
      "inputs": [],
      "name": "UPGRADER_ROLE",
      "outputs": [
        {
          "internalType": "bytes32",
          "name": "",
          "type": "bytes32"
        }
      ],
      "stateMutability": "view",
      "type": "function",
      "constant": true
    },
    {
      "inputs": [
        {
          "internalType": "string",
          "name": "",
          "type": "string"
        }
      ],
      "name": "acceptedToken",
      "outputs": [
        {
          "internalType": "contract IERC20Upgradeable",
          "name": "",
          "type": "address"
        }
      ],
      "stateMutability": "view",
      "type": "function",
      "constant": true
    },
    {
      "inputs": [
        {
          "internalType": "address",
          "name": "account",
          "type": "address"
        },
        {
          "internalType": "uint256",
          "name": "id",
          "type": "uint256"
        }
      ],
      "name": "balanceOf",
      "outputs": [
        {
          "internalType": "uint256",
          "name": "",
          "type": "uint256"
        }
      ],
      "stateMutability": "view",
      "type": "function",
      "constant": true
    },
    {
      "inputs": [
        {
          "internalType": "address[]",
          "name": "accounts",
          "type": "address[]"
        },
        {
          "internalType": "uint256[]",
          "name": "ids",
          "type": "uint256[]"
        }
      ],
      "name": "balanceOfBatch",
      "outputs": [
        {
          "internalType": "uint256[]",
          "name": "",
          "type": "uint256[]"
        }
      ],
      "stateMutability": "view",
      "type": "function",
      "constant": true
    },
    {
      "inputs": [
        {
          "internalType": "address",
          "name": "account",
          "type": "address"
        },
        {
          "internalType": "uint256",
          "name": "id",
          "type": "uint256"
        },
        {
          "internalType": "uint256",
          "name": "value",
          "type": "uint256"
        }
      ],
      "name": "burn",
      "outputs": [],
      "stateMutability": "nonpayable",
      "type": "function"
    },
    {
      "inputs": [
        {
          "internalType": "address",
          "name": "account",
          "type": "address"
        },
        {
          "internalType": "uint256[]",
          "name": "ids",
          "type": "uint256[]"
        },
        {
          "internalType": "uint256[]",
          "name": "values",
          "type": "uint256[]"
        }
      ],
      "name": "burnBatch",
      "outputs": [],
      "stateMutability": "nonpayable",
      "type": "function"
    },
    {
      "inputs": [
        {
          "internalType": "uint256",
          "name": "id",
          "type": "uint256"
        }
      ],
      "name": "getCidByTokenId",
      "outputs": [
        {
          "internalType": "uint256",
          "name": "",
          "type": "uint256"
        }
      ],
      "stateMutability": "view",
      "type": "function",
      "constant": true
    },
    {
      "inputs": [
        {
          "internalType": "uint256",
          "name": "cid",
          "type": "uint256"
        }
      ],
      "name": "getRarityByCId",
      "outputs": [
        {
          "internalType": "string",
          "name": "",
          "type": "string"
        }
      ],
      "stateMutability": "view",
      "type": "function",
      "constant": true
    },
    {
      "inputs": [
        {
          "internalType": "uint256",
          "name": "id",
          "type": "uint256"
        }
      ],
      "name": "getRarityById",
      "outputs": [
        {
          "internalType": "string",
          "name": "",
          "type": "string"
        }
      ],
      "stateMutability": "view",
      "type": "function",
      "constant": true
    },
    {
      "inputs": [
        {
          "internalType": "bytes32",
          "name": "role",
          "type": "bytes32"
        }
      ],
      "name": "getRoleAdmin",
      "outputs": [
        {
          "internalType": "bytes32",
          "name": "",
          "type": "bytes32"
        }
      ],
      "stateMutability": "view",
      "type": "function",
      "constant": true
    },
    {
      "inputs": [
        {
          "internalType": "bytes32",
          "name": "role",
          "type": "bytes32"
        },
        {
          "internalType": "address",
          "name": "account",
          "type": "address"
        }
      ],
      "name": "grantRole",
      "outputs": [],
      "stateMutability": "nonpayable",
      "type": "function"
    },
    {
      "inputs": [
        {
          "internalType": "bytes32",
          "name": "role",
          "type": "bytes32"
        },
        {
          "internalType": "address",
          "name": "account",
          "type": "address"
        }
      ],
      "name": "hasRole",
      "outputs": [
        {
          "internalType": "bool",
          "name": "",
          "type": "bool"
        }
      ],
      "stateMutability": "view",
      "type": "function",
      "constant": true
    },
    {
      "inputs": [
        {
          "internalType": "address",
          "name": "_owner",
          "type": "address"
        },
        {
          "internalType": "address",
          "name": "_operator",
          "type": "address"
        }
      ],
      "name": "isApprovedForAll",
      "outputs": [
        {
          "internalType": "bool",
          "name": "isOperator",
          "type": "bool"
        }
      ],
      "stateMutability": "view",
      "type": "function",
      "constant": true
    },
    {
      "inputs": [],
      "name": "melandStoreItems",
      "outputs": [
        {
          "internalType": "string[]",
          "name": "",
          "type": "string[]"
        },
        {
          "internalType": "uint256[]",
          "name": "",
          "type": "uint256[]"
        }
      ],
      "stateMutability": "view",
      "type": "function",
      "constant": true
    },
    {
      "inputs": [
        {
          "internalType": "string",
          "name": "",
          "type": "string"
        }
      ],
      "name": "melandStoreReceipt",
      "outputs": [
        {
          "internalType": "address",
          "name": "receipt",
          "type": "address"
        }
      ],
      "stateMutability": "pure",
      "type": "function",
      "constant": true
    },
    {
      "inputs": [
        {
          "internalType": "bytes32",
          "name": "",
          "type": "bytes32"
        }
      ],
      "name": "mintMaxByRaritykeccak256",
      "outputs": [
        {
          "internalType": "uint256",
          "name": "",
          "type": "uint256"
        }
      ],
      "stateMutability": "view",
      "type": "function",
      "constant": true
    },
    {
      "inputs": [
        {
          "internalType": "string",
          "name": "_a",
          "type": "string"
        }
      ],
      "name": "parseInt",
      "outputs": [
        {
          "internalType": "uint256",
          "name": "_parsedInt",
          "type": "uint256"
        }
      ],
      "stateMutability": "pure",
      "type": "function",
      "constant": true
    },
    {
      "inputs": [
        {
          "internalType": "string",
          "name": "_a",
          "type": "string"
        },
        {
          "internalType": "uint256",
          "name": "_b",
          "type": "uint256"
        }
      ],
      "name": "parseInt",
      "outputs": [
        {
          "internalType": "uint256",
          "name": "_parsedInt",
          "type": "uint256"
        }
      ],
      "stateMutability": "pure",
      "type": "function",
      "constant": true
    },
    {
      "inputs": [
        {
          "internalType": "bytes32",
          "name": "role",
          "type": "bytes32"
        },
        {
          "internalType": "address",
          "name": "account",
          "type": "address"
        }
      ],
      "name": "renounceRole",
      "outputs": [],
      "stateMutability": "nonpayable",
      "type": "function"
    },
    {
      "inputs": [
        {
          "internalType": "bytes32",
          "name": "role",
          "type": "bytes32"
        },
        {
          "internalType": "address",
          "name": "account",
          "type": "address"
        }
      ],
      "name": "revokeRole",
      "outputs": [],
      "stateMutability": "nonpayable",
      "type": "function"
    },
    {
      "inputs": [
        {
          "internalType": "address",
          "name": "from",
          "type": "address"
        },
        {
          "internalType": "address",
          "name": "to",
          "type": "address"
        },
        {
          "internalType": "uint256[]",
          "name": "ids",
          "type": "uint256[]"
        },
        {
          "internalType": "uint256[]",
          "name": "amounts",
          "type": "uint256[]"
        },
        {
          "internalType": "bytes",
          "name": "data",
          "type": "bytes"
        }
      ],
      "name": "safeBatchTransferFrom",
      "outputs": [],
      "stateMutability": "nonpayable",
      "type": "function"
    },
    {
      "inputs": [
        {
          "internalType": "string",
          "name": "_a",
          "type": "string"
        }
      ],
      "name": "safeParseInt",
      "outputs": [
        {
          "internalType": "uint256",
          "name": "_parsedInt",
          "type": "uint256"
        }
      ],
      "stateMutability": "pure",
      "type": "function",
      "constant": true
    },
    {
      "inputs": [
        {
          "internalType": "string",
          "name": "_a",
          "type": "string"
        },
        {
          "internalType": "uint256",
          "name": "_b",
          "type": "uint256"
        }
      ],
      "name": "safeParseInt",
      "outputs": [
        {
          "internalType": "uint256",
          "name": "_parsedInt",
          "type": "uint256"
        }
      ],
      "stateMutability": "pure",
      "type": "function",
      "constant": true
    },
    {
      "inputs": [
        {
          "internalType": "address",
          "name": "from",
          "type": "address"
        },
        {
          "internalType": "address",
          "name": "to",
          "type": "address"
        },
        {
          "internalType": "uint256",
          "name": "id",
          "type": "uint256"
        },
        {
          "internalType": "uint256",
          "name": "amount",
          "type": "uint256"
        },
        {
          "internalType": "bytes",
          "name": "data",
          "type": "bytes"
        }
      ],
      "name": "safeTransferFrom",
      "outputs": [],
      "stateMutability": "nonpayable",
      "type": "function"
    },
    {
      "inputs": [
        {
          "internalType": "address",
          "name": "operator",
          "type": "address"
        },
        {
          "internalType": "bool",
          "name": "approved",
          "type": "bool"
        }
      ],
      "name": "setApprovalForAll",
      "outputs": [],
      "stateMutability": "nonpayable",
      "type": "function"
    },
    {
      "inputs": [
        {
          "internalType": "uint256",
          "name": "id",
          "type": "uint256"
        }
      ],
      "name": "totalSupply",
      "outputs": [
        {
          "internalType": "uint256",
          "name": "",
          "type": "uint256"
        }
      ],
      "stateMutability": "view",
      "type": "function",
      "constant": true
    },
    {
      "inputs": [
        {
          "internalType": "uint256",
          "name": "cid",
          "type": "uint256"
        }
      ],
      "name": "totalSupplyByCId",
      "outputs": [
        {
          "internalType": "uint256",
          "name": "",
          "type": "uint256"
        }
      ],
      "stateMutability": "view",
      "type": "function",
      "constant": true
    },
    {
      "inputs": [
        {
          "internalType": "address",
          "name": "newImplementation",
          "type": "address"
        }
      ],
      "name": "upgradeTo",
      "outputs": [],
      "stateMutability": "nonpayable",
      "type": "function"
    },
    {
      "inputs": [
        {
          "internalType": "address",
          "name": "newImplementation",
          "type": "address"
        },
        {
          "internalType": "bytes",
          "name": "data",
          "type": "bytes"
        }
      ],
      "name": "upgradeToAndCall",
      "outputs": [],
      "stateMutability": "payable",
      "type": "function",
      "payable": true
    },
    {
      "inputs": [
        {
          "internalType": "uint256",
          "name": "id",
          "type": "uint256"
        }
      ],
      "name": "uri",
      "outputs": [
        {
          "internalType": "string",
          "name": "",
          "type": "string"
        }
      ],
      "stateMutability": "view",
      "type": "function",
      "constant": true
    },
    {
      "inputs": [
        {
          "internalType": "string",
          "name": "uri",
          "type": "string"
        }
      ],
      "name": "initialize",
      "outputs": [],
      "stateMutability": "nonpayable",
      "type": "function"
    },
    {
      "inputs": [
        {
          "internalType": "string",
          "name": "newuri",
          "type": "string"
        }
      ],
      "name": "setURI",
      "outputs": [],
      "stateMutability": "nonpayable",
      "type": "function"
    },
    {
      "inputs": [
        {
          "internalType": "contract MelandTier",
          "name": "_tierAddress",
          "type": "address"
        }
      ],
      "name": "setMelandTier",
      "outputs": [],
      "stateMutability": "nonpayable",
      "type": "function"
    },
    {
      "inputs": [
        {
          "internalType": "string",
          "name": "symbol",
          "type": "string"
        }
      ],
      "name": "melandStoreItemURI",
      "outputs": [
        {
          "internalType": "string",
          "name": "",
          "type": "string"
        }
      ],
      "stateMutability": "view",
      "type": "function",
      "constant": true
    },
    {
      "inputs": [
        {
          "internalType": "address",
          "name": "account",
          "type": "address"
        },
        {
          "internalType": "uint256",
          "name": "cid",
          "type": "uint256"
        },
        {
          "internalType": "uint256",
          "name": "amount",
          "type": "uint256"
        }
      ],
      "name": "mint",
      "outputs": [
        {
          "internalType": "uint256[]",
          "name": "",
          "type": "uint256[]"
        }
      ],
      "stateMutability": "nonpayable",
      "type": "function"
    },
    {
      "inputs": [
        {
          "internalType": "string",
          "name": "_rarity",
          "type": "string"
        },
        {
          "internalType": "uint256",
          "name": "mintMax",
          "type": "uint256"
        }
      ],
      "name": "setRarity",
      "outputs": [],
      "stateMutability": "nonpayable",
      "type": "function"
    },
    {
      "inputs": [
        {
          "internalType": "uint256",
          "name": "cid",
          "type": "uint256"
        },
        {
          "internalType": "bytes",
          "name": "_rarity",
          "type": "bytes"
        }
      ],
      "name": "setCIDRarity",
      "outputs": [],
      "stateMutability": "nonpayable",
      "type": "function"
    },
    {
      "inputs": [
        {
          "internalType": "bytes4",
          "name": "interfaceId",
          "type": "bytes4"
        }
      ],
      "name": "supportsInterface",
      "outputs": [
        {
          "internalType": "bool",
          "name": "",
          "type": "bool"
        }
      ],
      "stateMutability": "view",
      "type": "function",
      "constant": true
    },
    {
      "inputs": [
        {
          "internalType": "contract IERC20Upgradeable",
          "name": "token",
          "type": "address"
        }
      ],
      "name": "setAcceptedToken",
      "outputs": [],
      "stateMutability": "nonpayable",
      "type": "function"
    },
    {
      "inputs": [
        {
          "internalType": "contract NFTStore",
          "name": "s",
          "type": "address"
        }
      ],
      "name": "setStore",
      "outputs": [],
      "stateMutability": "nonpayable",
      "type": "function"
    },
    {
      "inputs": [
        {
          "internalType": "string",
          "name": "symbol",
          "type": "string"
        },
        {
          "internalType": "uint256",
          "name": "price",
          "type": "uint256"
        }
      ],
      "name": "setStoreItem",
      "outputs": [],
      "stateMutability": "nonpayable",
      "type": "function"
    },
    {
      "inputs": [
        {
          "internalType": "string",
          "name": "symbol",
          "type": "string"
        }
      ],
      "name": "delStoreItem",
      "outputs": [],
      "stateMutability": "nonpayable",
      "type": "function"
    },
    {
      "inputs": [
        {
          "internalType": "string",
          "name": "",
          "type": "string"
        }
      ],
      "name": "melandStoreItemsRestrictPurchaseNFTIds",
      "outputs": [
        {
          "internalType": "bool",
          "name": "",
          "type": "bool"
        },
        {
          "internalType": "uint256[]",
          "name": "",
          "type": "uint256[]"
        }
      ],
      "stateMutability": "pure",
      "type": "function",
      "constant": true
    },
    {
      "inputs": [
        {
          "internalType": "string",
          "name": "symbol",
          "type": "string"
        },
        {
          "internalType": "uint256",
          "name": "id",
          "type": "uint256"
        },
        {
          "internalType": "address",
          "name": "to",
          "type": "address"
        }
      ],
      "name": "melandStoreItemsMint",
      "outputs": [
        {
          "internalType": "uint256",
          "name": "",
          "type": "uint256"
        }
      ],
      "stateMutability": "nonpayable",
      "type": "function"
    },
    {
      "inputs": [
        {
          "internalType": "string",
          "name": "symbol",
          "type": "string"
        }
      ],
      "name": "melandStoreSellStatus",
      "outputs": [
        {
          "internalType": "bool",
          "name": "isSelling",
          "type": "bool"
        }
      ],
      "stateMutability": "view",
      "type": "function",
      "constant": true
    },
    {
      "inputs": [
        {
          "internalType": "string",
          "name": "",
          "type": "string"
        }
      ],
      "name": "melandStoreItemsRestrictedPurchase",
      "outputs": [
        {
          "internalType": "bool",
          "name": "restricted",
          "type": "bool"
        },
        {
          "internalType": "uint256",
          "name": "restrictLimit",
          "type": "uint256"
        }
      ],
      "stateMutability": "pure",
      "type": "function",
      "constant": true
    }
  ],
  "bytecode": "0x60a06040523060805234801561001457600080fd5b5060805161492e61004560003960008181610cf701528181610d3701528181610ef60152610f36015261492e6000f3fe6080604052600436106102ad5760003560e01c806380e416bd11610175578063bf4d89b5116100dc578063f242432a11610095578063f62d18881161006f578063f62d188814610921578063f70e9a4714610941578063f72c0d8b14610961578063fcc6dd571461099557600080fd5b8063f242432a146108c1578063f405a584146108e1578063f5298aca1461090157600080fd5b8063bf4d89b5146107e0578063d318632414610800578063d53913931461082d578063d547741f14610861578063e985e9c514610881578063ed9be432146108a157600080fd5b8063a22cb4651161012e578063a22cb46514610713578063a649e7a514610733578063b0c208bc14610760578063bd85b03914610780578063bdb7b5dd146107a0578063be7cbe75146107c057600080fd5b806380e416bd146106495780638b31e62d1461066957806390ad941d1461068c57806391d14854146106ac5780639f89e769146106cc578063a217fddf146106fe57600080fd5b806330c7be2c116102195780634f1ef286116101d25780634f1ef2861461056a5780635eccb30c1461057d578063664033d51461059d5780636b20c454146105e95780637487f5281461060957806377937c051461062957600080fd5b806330c7be2c1461049b57806336568abe146104bd5780633659cfe6146104dd5780633ef780bc146104fd57806342346c5e1461052a5780634e1273f41461054a57600080fd5b8063156e29f61161026b578063156e29f6146103be5780631a8c2e80146103eb5780631ba43d2b1461040b578063248a9ca31461042b5780632eb2c2d61461045b5780632f2ff15d1461047b57600080fd5b8062fdd58e146102b257806301ffc9a7146102e557806302fe5305146103155780630820c90d14610337578063087cbd40146103715780630e89341c14610391575b600080fd5b3480156102be57600080fd5b506102d26102cd366004613830565b6109c1565b6040519081526020015b60405180910390f35b3480156102f157600080fd5b50610305610300366004613872565b610a5d565b60405190151581526020016102dc565b34801561032157600080fd5b50610335610330366004613944565b610a68565b005b34801561034357600080fd5b5061035a610352366004613944565b506000908190565b6040805192151583526020830191909152016102dc565b34801561037d57600080fd5b5061033561038c366004613980565b610a8e565b34801561039d57600080fd5b506103b16103ac36600461399d565b610ab0565b6040516102dc9190613a0e565b3480156103ca57600080fd5b506103de6103d9366004613a21565b610abb565b6040516102dc9190613a91565b3480156103f757600080fd5b506102d2610406366004613aa4565b610b0c565b34801561041757600080fd5b50610305610426366004613944565b610b75565b34801561043757600080fd5b506102d261044636600461399d565b600090815260cf602052604090206001015490565b34801561046757600080fd5b50610335610476366004613b92565b610bb0565b34801561048757600080fd5b50610335610496366004613c3f565b610c47565b3480156104a757600080fd5b506102d26000805160206148d983398151915281565b3480156104c957600080fd5b506103356104d8366004613c3f565b610c72565b3480156104e957600080fd5b506103356104f8366004613980565b610cec565b34801561050957600080fd5b506102d261051836600461399d565b600090815260ca602052604090205490565b34801561053657600080fd5b506102d2610545366004613944565b610db5565b34801561055657600080fd5b506103de610565366004613c6f565b610dc2565b610335610578366004613d3b565b610eeb565b34801561058957600080fd5b506102d2610598366004613944565b610fa1565b3480156105a957600080fd5b506105d16105b8366004613944565b5073fced262e4949b7b5c4177b4e0ad8e974cc7493bf90565b6040516001600160a01b0390911681526020016102dc565b3480156105f557600080fd5b50610335610604366004613d80565b610fae565b34801561061557600080fd5b50610335610624366004613980565b610ff1565b34801561063557600080fd5b50610335610644366004613df5565b611013565b34801561065557600080fd5b50610335610664366004613e25565b611036565b34801561067557600080fd5b5061067e611060565b6040516102dc929190613e69565b34801561069857600080fd5b506103b16106a736600461399d565b611196565b3480156106b857600080fd5b506103056106c7366004613c3f565b611238565b3480156106d857600080fd5b506106f06106e7366004613944565b50600090606090565b6040516102dc929190613ed6565b34801561070a57600080fd5b506102d2600081565b34801561071f57600080fd5b5061033561072e366004613ef1565b611263565b34801561073f57600080fd5b506102d261074e36600461399d565b60cd6020526000908152604090205481565b34801561076c57600080fd5b5061033561077b366004613944565b61126e565b34801561078c57600080fd5b506102d261079b36600461399d565b611290565b3480156107ac57600080fd5b506103356107bb366004613e25565b6112c2565b3480156107cc57600080fd5b506103b16107db36600461399d565b6112e5565b3480156107ec57600080fd5b506102d26107fb366004613e25565b61139b565b34801561080c57600080fd5b506102d261081b36600461399d565b600090815260cb602052604090205490565b34801561083957600080fd5b506102d27f9f2df0fed2c77648de5860a4cc508cd0818c85b8b8a1ab4ceeef8d981c8956a681565b34801561086d57600080fd5b5061033561087c366004613c3f565b6114b8565b34801561088d57600080fd5b5061030561089c366004613f24565b6114de565b3480156108ad57600080fd5b506102d26108bc366004613e25565b6114ea565b3480156108cd57600080fd5b506103356108dc366004613f52565b6116a3565b3480156108ed57600080fd5b506103b16108fc366004613944565b6116e8565b34801561090d57600080fd5b5061033561091c366004613a21565b61171c565b34801561092d57600080fd5b5061033561093c366004613944565b61175f565b34801561094d57600080fd5b5061033561095c366004613980565b6117ea565b34801561096d57600080fd5b506102d27f189ab7a9244df0848122154315af71fe140f3db0fe014031783b0946b8c9d2e381565b3480156109a157600080fd5b506105d16109b0366004613944565b50610102546001600160a01b031690565b60006001600160a01b038316610a325760405162461bcd60e51b815260206004820152602b60248201527f455243313135353a2062616c616e636520717565727920666f7220746865207a60448201526a65726f206164647265737360a81b60648201526084015b60405180910390fd5b5060008181526065602090815260408083206001600160a01b03861684529091529020545b92915050565b6000610a5782611822565b6000805160206148d9833981519152610a818133611847565b610a8a826118ab565b5050565b6000805160206148d9833981519152610aa78133611847565b610a8a826118be565b6060610a57826118e2565b60607f9f2df0fed2c77648de5860a4cc508cd0818c85b8b8a1ab4ceeef8d981c8956a6610ae88133611847565b610b0385858560405180602001604052806000815250611938565b95945050505050565b6000610b19848484611a3a565b6000610b2485611a9e565b90506000610b448483600160405180602001604052806000815250611938565b9050610b4e611aa9565b80600081518110610b6157610b61613fba565b6020026020010151925050505b9392505050565b600080610b8183611a9e565b90506000610b8e82611b17565b905080610ba783600090815260cb602052604090205490565b10949350505050565b6001600160a01b038516331480610bcc5750610bcc85336114de565b610c335760405162461bcd60e51b815260206004820152603260248201527f455243313135353a207472616e736665722063616c6c6572206973206e6f74206044820152711bdddb995c881b9bdc88185c1c1c9bdd995960721b6064820152608401610a29565b610c408585858585611bd1565b5050505050565b600082815260cf6020526040902060010154610c638133611847565b610c6d8383611d7e565b505050565b6001600160a01b0381163314610ce25760405162461bcd60e51b815260206004820152602f60248201527f416363657373436f6e74726f6c3a2063616e206f6e6c792072656e6f756e636560448201526e103937b632b9903337b91039b2b63360891b6064820152608401610a29565b610a8a8282611e04565b306001600160a01b037f0000000000000000000000000000000000000000000000000000000000000000161415610d355760405162461bcd60e51b8152600401610a2990613fd0565b7f00000000000000000000000000000000000000000000000000000000000000006001600160a01b0316610d67611e6b565b6001600160a01b031614610d8d5760405162461bcd60e51b8152600401610a299061401c565b610d9681611e99565b60408051600080825260208201909252610db291839190611ec4565b50565b6000610a5782600061139b565b60608151835114610e275760405162461bcd60e51b815260206004820152602960248201527f455243313135353a206163636f756e747320616e6420696473206c656e677468604482015268040dad2e6dac2e8c6d60bb1b6064820152608401610a29565b600083516001600160401b03811115610e4257610e4261388f565b604051908082528060200260200182016040528015610e6b578160200160208202803683370190505b50905060005b8451811015610ee357610eb6858281518110610e8f57610e8f613fba565b6020026020010151858381518110610ea957610ea9613fba565b60200260200101516109c1565b828281518110610ec857610ec8613fba565b6020908102919091010152610edc8161407e565b9050610e71565b509392505050565b306001600160a01b037f0000000000000000000000000000000000000000000000000000000000000000161415610f345760405162461bcd60e51b8152600401610a2990613fd0565b7f00000000000000000000000000000000000000000000000000000000000000006001600160a01b0316610f66611e6b565b6001600160a01b031614610f8c5760405162461bcd60e51b8152600401610a299061401c565b610f9582611e99565b610a8a82826001611ec4565b6000610a578260006114ea565b6001600160a01b038316331480610fca5750610fca83336114de565b610fe65760405162461bcd60e51b8152600401610a2990614099565b610c6d838383612008565b6000805160206148d983398151915261100a8133611847565b610a8a82612199565b6000805160206148d983398151915261102c8133611847565b610c6d83836121bd565b6000805160206148d983398151915261104f8133611847565b8261105a81846121dc565b50505050565b60608061010361010481805480602002602001604051908101604052809291908181526020016000905b828210156111365783829060005260206000200180546110a9906140e2565b80601f01602080910402602001604051908101604052809291908181526020018280546110d5906140e2565b80156111225780601f106110f757610100808354040283529160200191611122565b820191906000526020600020905b81548152906001019060200180831161110557829003601f168201915b50505050508152602001906001019061108a565b5050505091508080548060200260200160405190810160405280929190818152602001828054801561118757602002820191906000526020600020905b815481526020019060010190808311611173575b50505050509050915091509091565b600081815260ce602052604090208054606091906111b3906140e2565b80601f01602080910402602001604051908101604052809291908181526020018280546111df906140e2565b801561122c5780601f106112015761010080835404028352916020019161122c565b820191906000526020600020905b81548152906001019060200180831161120f57829003601f168201915b50505050509050919050565b600091825260cf602090815260408084206001600160a01b0393909316845291905290205460ff1690565b610a8a338383612247565b6000805160206148d98339815191526112878133611847565b610a8a82612328565b600081815260ca6020526040812054806112ad5750600092915050565b600090815260cb602052604090205492915050565b6000805160206148d98339815191526112db8133611847565b610c6d8383612532565b600081815260ca602052604081205460609190600081815260ce60205260409020805491925090611315906140e2565b80601f0160208091040260200160405190810160405280929190818152602001828054611341906140e2565b801561138e5780601f106113635761010080835404028352916020019161138e565b820191906000526020600020905b81548152906001019060200180831161137157829003601f168201915b5050505050915050919050565b6000828180805b83518110156114905760308482815181106113bf576113bf613fba565b016020015160f81c108015906113ef575060398482815181106113e4576113e4613fba565b016020015160f81c11155b15611456578115611412578561140457611490565b8561140e8161411d565b9650505b61141d600a84614134565b9250603084828151811061143357611433613fba565b0160200151611445919060f81c614153565b61144f908461416a565b925061147e565b83818151811061146857611468613fba565b60209101015160f81c602e141561147e57600191505b806114888161407e565b9150506113a2565b5084156114af576114a285600a614266565b6114ac9083614134565b91505b50949350505050565b600082815260cf60205260409020600101546114d48133611847565b610c6d8383611e04565b6000610b6e83836126af565b6000828180805b835181101561149057603084828151811061150e5761150e613fba565b016020015160f81c1080159061153e5750603984828151811061153357611533613fba565b016020015160f81c11155b156115a5578115611561578561155357611490565b8561155d8161411d565b9650505b61156c600a84614134565b9250603084828151811061158257611582613fba565b0160200151611594919060f81c614153565b61159e908461416a565b9250611691565b8381815181106115b7576115b7613fba565b60209101015160f81c602e141561163457811561162b5760405162461bcd60e51b815260206004820152602c60248201527f4d6f7265207468616e206f6e6520646563696d616c20656e636f756e7465726560448201526b6420696e20737472696e672160a01b6064820152608401610a29565b60019150611691565b60405162461bcd60e51b815260206004820152602c60248201527f4e6f6e2d6e756d6572616c2063686172616374657220656e636f756e7465726560448201526b6420696e20737472696e672160a01b6064820152608401610a29565b8061169b8161407e565b9150506114f1565b6001600160a01b0385163314806116bf57506116bf85336114de565b6116db5760405162461bcd60e51b8152600401610a2990614099565b610c40858585858561272a565b60606116f46000610ab0565b82604051602001611706929190614272565b6040516020818303038152906040529050919050565b6001600160a01b038316331480611738575061173883336114de565b6117545760405162461bcd60e51b8152600401610a2990614099565b610c6d83838361285a565b600054610100900460ff1661177a5760005460ff161561177e565b303b155b61179a5760405162461bcd60e51b8152600401610a29906142bb565b600054610100900460ff161580156117bc576000805461ffff19166101011790555b6117c461295f565b6117cd82612996565b6117d5612a6a565b8015610a8a576000805461ff00191690555050565b6000805160206148d98339815191526118038133611847565b60cc80546001600160a01b0319166001600160a01b0384161790555050565b60006001600160e01b03198216637965db0b60e01b1480610a575750610a5782612ae9565b6118518282611238565b610a8a57611869816001600160a01b03166014612b39565b611874836020612b39565b604051602001611885929190614309565b60408051601f198184030181529082905262461bcd60e51b8252610a2991600401613a0e565b8051610a8a90606790602084019061374c565b61010180546001600160a01b0319166001600160a01b038316179055610db2611aa9565b600081815260ca60205260409020546060906118fd83612cd4565b61190682612ce3565b61190f85612ce3565b6040516020016119219392919061437e565b604051602081830303815290604052915050919050565b60606000836001600160401b038111156119545761195461388f565b60405190808252806020026020018201604052801561197d578160200160208202803683370190505b509050600084116119da5760405162461bcd60e51b815260206004820152602160248201527f54686520616d6f756e74206d7573742062652067726561746572207468616e206044820152600360fc1b6064820152608401610a29565b60005b84811015611a305760006119f087612e02565b90506119ff8882600188612e36565b80838381518110611a1257611a12613fba565b60209081029190910101525080611a288161407e565b9150506119dd565b5095945050505050565b610101546001600160a01b0316336001600160a01b031614610c6d5760405162461bcd60e51b815260206004820152601f60248201527f416c6c6f77206f6e6c79204d656c616e642e6169206d616c6c2063616c6c73006044820152606401610a29565b6000610a5782610db5565b610101546001600160a01b031615611b15576101015460405163fa21a11d60e01b81523060048201526001600160a01b039091169063fa21a11d90602401600060405180830381600087803b158015611b0157600080fd5b505af115801561105a573d6000803e3d6000fd5b565b600081815260ce602052604081208054829190611b33906140e2565b80601f0160208091040260200160405190810160405280929190818152602001828054611b5f906140e2565b8015611bac5780601f10611b8157610100808354040283529160200191611bac565b820191906000526020600020905b815481529060010190602001808311611b8f57829003601f168201915b50505050509050610b6e818051602091820120600090815260cd909152604090205490565b8151835114611bf25760405162461bcd60e51b8152600401610a29906143d8565b6001600160a01b038416611c185760405162461bcd60e51b8152600401610a2990614420565b33611c27818787878787612f39565b60005b8451811015611d10576000858281518110611c4757611c47613fba565b602002602001015190506000858381518110611c6557611c65613fba565b60209081029190910181015160008481526065835260408082206001600160a01b038e168352909352919091205490915081811015611cb65760405162461bcd60e51b8152600401610a2990614465565b60008381526065602090815260408083206001600160a01b038e8116855292528083208585039055908b16825281208054849290611cf590849061416a565b9250508190555050505080611d099061407e565b9050611c2a565b50846001600160a01b0316866001600160a01b0316826001600160a01b03167f4a39dc06d4c0dbc64b70af90fd698a233a518aa5d07e595d983b8c0526c8f7fb8787604051611d609291906144af565b60405180910390a4611d768187878787876130a7565b505050505050565b611d888282611238565b610a8a57600082815260cf602090815260408083206001600160a01b03851684529091529020805460ff19166001179055611dc03390565b6001600160a01b0316816001600160a01b0316837f2f8788117e7eff1d82e926ec794901d17c78024a50270940304540a733656f0d60405160405180910390a45050565b611e0e8282611238565b15610a8a57600082815260cf602090815260408083206001600160a01b0385168085529252808320805460ff1916905551339285917ff6391f5c32d9c69d2a47ea670b442974b53935d1edc7fd64eb21e047a839171b9190a45050565b7f360894a13ba1a3210667c828492db98dca3e2076cc3735a920a3ca505d382bbc546001600160a01b031690565b7f189ab7a9244df0848122154315af71fe140f3db0fe014031783b0946b8c9d2e3610a8a8133611847565b6000611ece611e6b565b9050611ed984613212565b600083511180611ee65750815b15611ef757611ef584846132b7565b505b7f4910fdfa16fed3260ed0e7147f7cc6da11a60208b5b9406d12a635614ffd9143805460ff16610c4057805460ff191660011781556040516001600160a01b0383166024820152611f7690869060440160408051601f198184030181529190526020810180516001600160e01b0316631b2ce7f360e11b1790526132b7565b50805460ff19168155611f87611e6b565b6001600160a01b0316826001600160a01b031614611fff5760405162461bcd60e51b815260206004820152602f60248201527f45524331393637557067726164653a207570677261646520627265616b73206660448201526e75727468657220757067726164657360881b6064820152608401610a29565b610c4085613399565b6001600160a01b03831661202e5760405162461bcd60e51b8152600401610a29906144d4565b805182511461204f5760405162461bcd60e51b8152600401610a29906143d8565b600033905061207281856000868660405180602001604052806000815250612f39565b60005b835181101561213a57600084828151811061209257612092613fba565b6020026020010151905060008483815181106120b0576120b0613fba565b60209081029190910181015160008481526065835260408082206001600160a01b038c1683529093529190912054909150818110156121015760405162461bcd60e51b8152600401610a2990614517565b60009283526065602090815260408085206001600160a01b038b16865290915290922091039055806121328161407e565b915050612075565b5060006001600160a01b0316846001600160a01b0316826001600160a01b03167f4a39dc06d4c0dbc64b70af90fd698a233a518aa5d07e595d983b8c0526c8f7fb868660405161218b9291906144af565b60405180910390a450505050565b61010280546001600160a01b0319166001600160a01b038316179055610db2611aa9565b600082815260ce602090815260409091208251610c6d9284019061374c565b8060cd6000848051906020012081526020019081526020016000208190555081604051612209919061455b565b604051908190038120828252907fc0cc007bc58275ca70d6cec6795b70feb61df220b5c085a20bb71648ed57072c9060200160405180910390a25050565b816001600160a01b0316836001600160a01b031614156122bb5760405162461bcd60e51b815260206004820152602960248201527f455243313135353a2073657474696e6720617070726f76616c20737461747573604482015268103337b91039b2b63360b91b6064820152608401610a29565b6001600160a01b03838116600081815260666020908152604080832094871680845294825291829020805460ff191686151590811790915591519182527f17307eab39ab6107e8899845ad3d59bd9653f200f220920489ca2b5937696c31910160405180910390a3505050565b6000805b6101035481101561238e578280519060200120610103828154811061235357612353613fba565b9060005260206000200160405161236a9190614577565b6040518091039020141561237c578091505b806123868161407e565b91505061232c565b506101038054600091906123a490600190614153565b815481106123b4576123b4613fba565b9060005260206000200180546123c9906140e2565b80601f01602080910402602001604051908101604052809291908181526020018280546123f5906140e2565b80156124425780601f1061241757610100808354040283529160200191612442565b820191906000526020600020905b81548152906001019060200180831161242557829003601f168201915b5050505050905060006101046001610103805490506124619190614153565b8154811061247157612471613fba565b9060005260206000200154905081610103848154811061249357612493613fba565b9060005260206000200190805190602001906124b092919061374c565b506101038054806124c3576124c3614613565b6001900381819060005260206000200160006124df91906137d0565b90558061010484815481106124f6576124f6613fba565b60009182526020909120015561010480548061251457612514614613565b6001900381819060005260206000200160009055905561105a611aa9565b6000805b6101035481101561259857610103818154811061255557612555613fba565b9060005260206000200160405161256c9190614577565b604051809103902084805190602001201415612586578091505b806125908161407e565b915050612536565b5080156125c5578161010482815481106125b4576125b4613fba565b6000918252602090912001556126a7565b6101035415801590612610575082805190602001206101036000815481106125ef576125ef613fba565b906000526020600020016040516126069190614577565b6040518091039020145b1561262b57816101046000815481106125b4576125b4613fba565b6101038054600181018255600091909152835161266f917f02c297ab74aad0aede3a1895c857b1f2c71e6a203feb727bec95ac752998cb780190602086019061374c565b5061010480546001810182556000919091527f4c0be60200faa20559308cb7b5a1bb3255c16cb1cab91f525b5ae7a03d02fabe018290555b610c6d611aa9565b60006001600160a01b03821673207fa8df3a17d96ca7ea4f2893fcdcb78a30410114156126de57506001610a57565b60cc546001600160a01b03838116911614156126fc57506001610a57565b6001600160a01b0380841660009081526066602090815260408083209386168352929052205460ff16610b6e565b6001600160a01b0384166127505760405162461bcd60e51b8152600401610a2990614420565b3361276f818787612760886133d9565b612769886133d9565b87612f39565b60008481526065602090815260408083206001600160a01b038a168452909152902054838110156127b25760405162461bcd60e51b8152600401610a2990614465565b60008581526065602090815260408083206001600160a01b038b81168552925280832087850390559088168252812080548692906127f190849061416a565b909155505060408051868152602081018690526001600160a01b03808916928a821692918616917fc3d58168c5ae7397731d063d5bbf3d657854427343f4c083240f7aacaa2d0f62910160405180910390a4612851828888888888613424565b50505050505050565b6001600160a01b0383166128805760405162461bcd60e51b8152600401610a29906144d4565b336128af81856000612891876133d9565b61289a876133d9565b60405180602001604052806000815250612f39565b60008381526065602090815260408083206001600160a01b0388168452909152902054828110156128f25760405162461bcd60e51b8152600401610a2990614517565b60008481526065602090815260408083206001600160a01b03898116808652918452828520888703905582518981529384018890529092908616917fc3d58168c5ae7397731d063d5bbf3d657854427343f4c083240f7aacaa2d0f62910160405180910390a45050505050565b600054610100900460ff166129865760405162461bcd60e51b8152600401610a2990614629565b61298e6134ee565b611b156134ee565b6129bf60405180604001604052806006815260200165756e6971756560d01b81525060016121dc565b6129e8604051806040016040528060068152602001656d797468696360d01b815250600a6121dc565b612a0f604051806040016040528060048152602001636570696360e01b81525060646121dc565b612a37604051806040016040528060048152602001637261726560e01b8152506103e86121dc565b612a616040518060400160405280600681526020016531b7b6b6b7b760d11b8152506127106121dc565b610db281613515565b612a7261357f565b612a7d600033611d7e565b612a956000805160206148d983398151915233611d7e565b612abf7f9f2df0fed2c77648de5860a4cc508cd0818c85b8b8a1ab4ceeef8d981c8956a633611d7e565b611b157f189ab7a9244df0848122154315af71fe140f3db0fe014031783b0946b8c9d2e333611d7e565b60006001600160e01b03198216636cdb3d1360e11b1480612b1a57506001600160e01b031982166303a24d0760e21b145b80610a5757506301ffc9a760e01b6001600160e01b0319831614610a57565b60606000612b48836002614134565b612b5390600261416a565b6001600160401b03811115612b6a57612b6a61388f565b6040519080825280601f01601f191660200182016040528015612b94576020820181803683370190505b509050600360fc1b81600081518110612baf57612baf613fba565b60200101906001600160f81b031916908160001a905350600f60fb1b81600181518110612bde57612bde613fba565b60200101906001600160f81b031916908160001a9053506000612c02846002614134565b612c0d90600161416a565b90505b6001811115612c85576f181899199a1a9b1b9c1cb0b131b232b360811b85600f1660108110612c4157612c41613fba565b1a60f81b828281518110612c5757612c57613fba565b60200101906001600160f81b031916908160001a90535060049490941c93612c7e8161411d565b9050612c10565b508315610b6e5760405162461bcd60e51b815260206004820181905260248201527f537472696e67733a20686578206c656e67746820696e73756666696369656e746044820152606401610a29565b6060606780546111b3906140e2565b606081612d075750506040805180820190915260018152600360fc1b602082015290565b8160005b8115612d315780612d1b8161407e565b9150612d2a9050600a83614674565b9150612d0b565b6000816001600160401b03811115612d4b57612d4b61388f565b6040519080825280601f01601f191660200182016040528015612d75576020820181803683370190505b509050815b85156114af57612d8b600182614153565b90506000612d9a600a88614674565b612da590600a614134565b612daf9088614153565b612dba906030614696565b905060008160f81b905080848481518110612dd757612dd7613fba565b60200101906001600160f81b031916908160001a905350612df9600a89614674565b97505050612d7a565b6000612e1260c980546001019055565b6000612e1d60c95490565b600081815260ca60205260409020939093555090919050565b6001600160a01b038416612e965760405162461bcd60e51b815260206004820152602160248201527f455243313135353a206d696e7420746f20746865207a65726f206164647265736044820152607360f81b6064820152608401610a29565b33612ea781600087612760886133d9565b60008481526065602090815260408083206001600160a01b038916845290915281208054859290612ed990849061416a565b909155505060408051858152602081018590526001600160a01b0380881692600092918516917fc3d58168c5ae7397731d063d5bbf3d657854427343f4c083240f7aacaa2d0f62910160405180910390a4610c4081600087878787613424565b6001600160a01b0385166130995760005b8351811015613097576000848281518110612f6757612f67613fba565b602002602001015190506000612f8982600090815260ca602052604090205490565b600081815260ce6020526040812080549293509091612fa7906140e2565b80601f0160208091040260200160405190810160405280929190818152602001828054612fd3906140e2565b80156130205780601f10612ff557610100808354040283529160200191613020565b820191906000526020600020905b81548152906001019060200180831161300357829003601f168201915b50505050509050600061303283611b17565b90508061303e85611290565b1082826040516020016130529291906146bb565b6040516020818303038152906040529061307f5760405162461bcd60e51b8152600401610a299190613a0e565b5050505050808061308f9061407e565b915050612f4a565b505b611d768686868686866135ae565b6001600160a01b0384163b15611d765760405163bc197c8160e01b81526001600160a01b0385169063bc197c81906130eb9089908990889088908890600401614704565b602060405180830381600087803b15801561310557600080fd5b505af1925050508015613135575060408051601f3d908101601f1916820190925261313291810190614762565b60015b6131e25761314161477f565b806308c379a0141561317b575061315661479b565b80613161575061317d565b8060405162461bcd60e51b8152600401610a299190613a0e565b505b60405162461bcd60e51b815260206004820152603460248201527f455243313135353a207472616e7366657220746f206e6f6e20455243313135356044820152732932b1b2b4bb32b91034b6b83632b6b2b73a32b960611b6064820152608401610a29565b6001600160e01b0319811663bc197c8160e01b146128515760405162461bcd60e51b8152600401610a2990614824565b803b6132765760405162461bcd60e51b815260206004820152602d60248201527f455243313936373a206e657720696d706c656d656e746174696f6e206973206e60448201526c1bdd08184818dbdb9d1c9858dd609a1b6064820152608401610a29565b7f360894a13ba1a3210667c828492db98dca3e2076cc3735a920a3ca505d382bbc80546001600160a01b0319166001600160a01b0392909216919091179055565b6060823b6133165760405162461bcd60e51b815260206004820152602660248201527f416464726573733a2064656c65676174652063616c6c20746f206e6f6e2d636f6044820152651b9d1c9858dd60d21b6064820152608401610a29565b600080846001600160a01b031684604051613331919061455b565b600060405180830381855af49150503d806000811461336c576040519150601f19603f3d011682016040523d82523d6000602084013e613371565b606091505b5091509150610b0382826040518060600160405280602781526020016148b2602791396136a8565b6133a281613212565b6040516001600160a01b038216907fbc7cd75a20ee27fd9adebab32041f755214dbc6bffa90cc0225b39da2e5c2d3b90600090a250565b6040805160018082528183019092526060916000919060208083019080368337019050509050828160008151811061341357613413613fba565b602090810291909101015292915050565b6001600160a01b0384163b15611d765760405163f23a6e6160e01b81526001600160a01b0385169063f23a6e6190613468908990899088908890889060040161486c565b602060405180830381600087803b15801561348257600080fd5b505af19250505080156134b2575060408051601f3d908101601f191682019092526134af91810190614762565b60015b6134be5761314161477f565b6001600160e01b0319811663f23a6e6160e01b146128515760405162461bcd60e51b8152600401610a2990614824565b600054610100900460ff16611b155760405162461bcd60e51b8152600401610a2990614629565b600054610100900460ff166135305760005460ff1615613534565b303b155b6135505760405162461bcd60e51b8152600401610a29906142bb565b600054610100900460ff16158015613572576000805461ffff19166101011790555b61357b826136e1565b6117d55b600054610100900460ff166135a65760405162461bcd60e51b8152600401610a2990614629565b6129866134ee565b6001600160a01b0385166136395760005b83518110156136375760006135f98583815181106135df576135df613fba565b6020026020010151600090815260ca602052604090205490565b9050600160cb6000838152602001908152602001600020600082825461361f919061416a565b90915550613630915082905061407e565b90506135bf565b505b6001600160a01b038416611d765760005b835181101561285157600061366a8583815181106135df576135df613fba565b9050600160cb600083815260200190815260200160002060008282546136909190614153565b909155506136a1915082905061407e565b905061364a565b606083156136b7575081610b6e565b8251156136c75782518084602001fd5b8160405162461bcd60e51b8152600401610a299190613a0e565b600054610100900460ff166137085760405162461bcd60e51b8152600401610a2990614629565b6137106134ee565b6137186134ee565b610db281600054610100900460ff166137435760405162461bcd60e51b8152600401610a2990614629565b610db2816118ab565b828054613758906140e2565b90600052602060002090601f01602090048101928261377a57600085556137c0565b82601f1061379357805160ff19168380011785556137c0565b828001600101855582156137c0579182015b828111156137c05782518255916020019190600101906137a5565b506137cc929150613806565b5090565b5080546137dc906140e2565b6000825580601f106137ec575050565b601f016020900490600052602060002090810190610db291905b5b808211156137cc5760008155600101613807565b6001600160a01b0381168114610db257600080fd5b6000806040838503121561384357600080fd5b823561384e8161381b565b946020939093013593505050565b6001600160e01b031981168114610db257600080fd5b60006020828403121561388457600080fd5b8135610b6e8161385c565b634e487b7160e01b600052604160045260246000fd5b601f8201601f191681016001600160401b03811182821017156138ca576138ca61388f565b6040525050565b600082601f8301126138e257600080fd5b81356001600160401b038111156138fb576138fb61388f565b604051613912601f8301601f1916602001826138a5565b81815284602083860101111561392757600080fd5b816020850160208301376000918101602001919091529392505050565b60006020828403121561395657600080fd5b81356001600160401b0381111561396c57600080fd5b613978848285016138d1565b949350505050565b60006020828403121561399257600080fd5b8135610b6e8161381b565b6000602082840312156139af57600080fd5b5035919050565b60005b838110156139d15781810151838201526020016139b9565b8381111561105a5750506000910152565b600081518084526139fa8160208601602086016139b6565b601f01601f19169290920160200192915050565b602081526000610b6e60208301846139e2565b600080600060608486031215613a3657600080fd5b8335613a418161381b565b95602085013595506040909401359392505050565b600081518084526020808501945080840160005b83811015613a8657815187529582019590820190600101613a6a565b509495945050505050565b602081526000610b6e6020830184613a56565b600080600060608486031215613ab957600080fd5b83356001600160401b03811115613acf57600080fd5b613adb868287016138d1565b935050602084013591506040840135613af38161381b565b809150509250925092565b60006001600160401b03821115613b1757613b1761388f565b5060051b60200190565b600082601f830112613b3257600080fd5b81356020613b3f82613afe565b604051613b4c82826138a5565b83815260059390931b8501820192828101915086841115613b6c57600080fd5b8286015b84811015613b875780358352918301918301613b70565b509695505050505050565b600080600080600060a08688031215613baa57600080fd5b8535613bb58161381b565b94506020860135613bc58161381b565b935060408601356001600160401b0380821115613be157600080fd5b613bed89838a01613b21565b94506060880135915080821115613c0357600080fd5b613c0f89838a01613b21565b93506080880135915080821115613c2557600080fd5b50613c32888289016138d1565b9150509295509295909350565b60008060408385031215613c5257600080fd5b823591506020830135613c648161381b565b809150509250929050565b60008060408385031215613c8257600080fd5b82356001600160401b0380821115613c9957600080fd5b818501915085601f830112613cad57600080fd5b81356020613cba82613afe565b604051613cc782826138a5565b83815260059390931b8501820192828101915089841115613ce757600080fd5b948201945b83861015613d0e578535613cff8161381b565b82529482019490820190613cec565b96505086013592505080821115613d2457600080fd5b50613d3185828601613b21565b9150509250929050565b60008060408385031215613d4e57600080fd5b8235613d598161381b565b915060208301356001600160401b03811115613d7457600080fd5b613d31858286016138d1565b600080600060608486031215613d9557600080fd5b8335613da08161381b565b925060208401356001600160401b0380821115613dbc57600080fd5b613dc887838801613b21565b93506040860135915080821115613dde57600080fd5b50613deb86828701613b21565b9150509250925092565b60008060408385031215613e0857600080fd5b8235915060208301356001600160401b03811115613d7457600080fd5b60008060408385031215613e3857600080fd5b82356001600160401b03811115613e4e57600080fd5b613e5a858286016138d1565b95602094909401359450505050565b6000604082016040835280855180835260608501915060608160051b8601019250602080880160005b83811015613ec057605f19888703018552613eae8683516139e2565b95509382019390820190600101613e92565b505085840381870152505050610b038185613a56565b82151581526040602082015260006139786040830184613a56565b60008060408385031215613f0457600080fd5b8235613f0f8161381b565b915060208301358015158114613c6457600080fd5b60008060408385031215613f3757600080fd5b8235613f428161381b565b91506020830135613c648161381b565b600080600080600060a08688031215613f6a57600080fd5b8535613f758161381b565b94506020860135613f858161381b565b9350604086013592506060860135915060808601356001600160401b03811115613fae57600080fd5b613c32888289016138d1565b634e487b7160e01b600052603260045260246000fd5b6020808252602c908201527f46756e6374696f6e206d7573742062652063616c6c6564207468726f7567682060408201526b19195b1959d85d1958d85b1b60a21b606082015260800190565b6020808252602c908201527f46756e6374696f6e206d7573742062652063616c6c6564207468726f7567682060408201526b6163746976652070726f787960a01b606082015260800190565b634e487b7160e01b600052601160045260246000fd5b600060001982141561409257614092614068565b5060010190565b60208082526029908201527f455243313135353a2063616c6c6572206973206e6f74206f776e6572206e6f7260408201526808185c1c1c9bdd995960ba1b606082015260800190565b600181811c908216806140f657607f821691505b6020821081141561411757634e487b7160e01b600052602260045260246000fd5b50919050565b60008161412c5761412c614068565b506000190190565b600081600019048311821515161561414e5761414e614068565b500290565b60008282101561416557614165614068565b500390565b6000821982111561417d5761417d614068565b500190565b600181815b808511156141bd5781600019048211156141a3576141a3614068565b808516156141b057918102915b93841c9390800290614187565b509250929050565b6000826141d457506001610a57565b816141e157506000610a57565b81600181146141f757600281146142015761421d565b6001915050610a57565b60ff84111561421257614212614068565b50506001821b610a57565b5060208310610133831016604e8410600b8410161715614240575081810a610a57565b61424a8383614182565b806000190482111561425e5761425e614068565b029392505050565b6000610b6e83836141c5565b600083516142848184602088016139b6565b630bd8da5960e21b908301908152602f60f81b600482015283516142af8160058401602088016139b6565b01600501949350505050565b6020808252602e908201527f496e697469616c697a61626c653a20636f6e747261637420697320616c72656160408201526d191e481a5b9a5d1a585b1a5e995960921b606082015260800190565b7f416363657373436f6e74726f6c3a206163636f756e74200000000000000000008152600083516143418160178501602088016139b6565b7001034b99036b4b9b9b4b733903937b6329607d1b60179184019182015283516143728160288401602088016139b6565b01602801949350505050565b600084516143908184602089016139b6565b8083019050602f60f81b80825285516143b0816001850160208a016139b6565b600192019182015283516143cb8160028401602088016139b6565b0160020195945050505050565b60208082526028908201527f455243313135353a2069647320616e6420616d6f756e7473206c656e677468206040820152670dad2e6dac2e8c6d60c31b606082015260800190565b60208082526025908201527f455243313135353a207472616e7366657220746f20746865207a65726f206164604082015264647265737360d81b606082015260800190565b6020808252602a908201527f455243313135353a20696e73756666696369656e742062616c616e636520666f60408201526939103a3930b739b332b960b11b606082015260800190565b6040815260006144c26040830185613a56565b8281036020840152610b038185613a56565b60208082526023908201527f455243313135353a206275726e2066726f6d20746865207a65726f206164647260408201526265737360e81b606082015260800190565b60208082526024908201527f455243313135353a206275726e20616d6f756e7420657863656564732062616c604082015263616e636560e01b606082015260800190565b6000825161456d8184602087016139b6565b9190910192915050565b600080835481600182811c91508083168061459357607f831692505b60208084108214156145b357634e487b7160e01b86526022600452602486fd5b8180156145c757600181146145d857614605565b60ff19861689528489019650614605565b60008a81526020902060005b868110156145fd5781548b8201529085019083016145e4565b505084890196505b509498975050505050505050565b634e487b7160e01b600052603160045260246000fd5b6020808252602b908201527f496e697469616c697a61626c653a20636f6e7472616374206973206e6f74206960408201526a6e697469616c697a696e6760a81b606082015260800190565b60008261469157634e487b7160e01b600052601260045260246000fd5b500490565b600060ff821660ff84168060ff038211156146b3576146b3614068565b019392505050565b600083516146cd8184602088016139b6565b7f726172697479206f6e6c7920746f74616c537570706c790000000000000000009201918252506017810191909152603701919050565b6001600160a01b0386811682528516602082015260a06040820181905260009061473090830186613a56565b82810360608401526147428186613a56565b9050828103608084015261475681856139e2565b98975050505050505050565b60006020828403121561477457600080fd5b8151610b6e8161385c565b600060033d11156147985760046000803e5060005160e01c5b90565b600060443d10156147a95790565b6040516003193d81016004833e81513d6001600160401b0381602484011181841117156147d857505050505090565b82850191508151818111156147f05750505050505090565b843d870101602082850101111561480a5750505050505090565b614819602082860101876138a5565b509095945050505050565b60208082526028908201527f455243313135353a204552433131353552656365697665722072656a656374656040820152676420746f6b656e7360c01b606082015260800190565b6001600160a01b03868116825285166020820152604081018490526060810183905260a0608082018190526000906148a6908301846139e2565b97965050505050505056fe416464726573733a206c6f772d6c6576656c2064656c65676174652063616c6c206661696c6564f5eb84615c2a00ecaf817d13794ebd6299c9e01c395bf4018453f13f577f5449a264697066735822122041c77a8bc9eb7fbbcce508361de6cd0cf5cf56f177005fd098da040e679c5a9864736f6c63430008090033",
  "immutableReferences": {
    "1051": [
      {
        "length": 32,
        "start": 3319
      },
      {
        "length": 32,
        "start": 3383
      },
      {
        "length": 32,
        "start": 3830
      },
      {
        "length": 32,
        "start": 3894
      }
    ]
  },
  "source": "// SPDX-License-Identifier: MIT\npragma solidity 0.8.9;\n\nimport \"@openzeppelin/contracts-upgradeable/token/ERC1155/ERC1155Upgradeable.sol\";\nimport \"@openzeppelin/contracts-upgradeable/access/AccessControlUpgradeable.sol\";\nimport \"@openzeppelin/contracts-upgradeable/token/ERC1155/extensions/ERC1155BurnableUpgradeable.sol\";\nimport \"@openzeppelin/contracts-upgradeable/proxy/utils/Initializable.sol\";\nimport \"@openzeppelin/contracts-upgradeable/proxy/utils/UUPSUpgradeable.sol\";\nimport \"./Meland1155Rarity.sol\";\nimport \"./MelandAccessRoles.sol\";\nimport \"./MelandTier.sol\";\nimport \"./Meland1155StoreItem.sol\";\n\ncontract Meland1155Placeable is\n    Initializable,\n    Meland1155Rarity,\n    MelandAccessRoles,\n    Meland1155StoreItem,\n    UUPSUpgradeable\n{\n    function initialize(string memory uri) public initializer {\n        __UUPSUpgradeable_init();\n        __Meland1155Rarity_init(uri);\n        __MelandAccessRoles_init();\n    }\n\n    function setURI(string memory newuri) public onlyRole(GM_ROLE) {\n        _setURI(newuri);\n    }\n\n    function setMelandTier(MelandTier _tierAddress) public onlyRole(GM_ROLE) {\n        _setMelandTier(_tierAddress);\n    }\n\n    function melandStoreItemURI(string memory symbol)\n        external\n        view\n        returns (string memory)\n    {\n        return string(abi.encodePacked(super.uri(0), \"/cid\", \"/\", symbol));\n    }\n\n    function mint(\n        address account,\n        uint256 cid,\n        uint256 amount\n    ) public onlyRole(MINTER_ROLE) returns(uint256[] memory) {\n        return _mintReturnTokenIds(account, cid, amount, '');\n    }\n\n    function setRarity(string memory _rarity, uint256 mintMax) onlyRole(GM_ROLE) public {\n        bytes memory rarity = bytes(_rarity);\n        _setRarity(rarity, mintMax);\n    }\n\n    function setCIDRarity(uint256 cid, bytes memory _rarity)\n        public\n        onlyRole(GM_ROLE)\n    {\n        _setCIDRarity(cid, _rarity);\n    }\n\n    function _authorizeUpgrade(address newImplementation)\n        internal\n        override\n        onlyRole(UPGRADER_ROLE)\n    {}\n\n    // The following functions are overrides required by Solidity.\n\n    function supportsInterface(bytes4 interfaceId)\n        public\n        view\n        override(ERC1155Upgradeable, AccessControlUpgradeable)\n        returns (bool)\n    {\n        return super.supportsInterface(interfaceId);\n    }\n\n\n    // store item impl ----\n     function setAcceptedToken(IERC20Upgradeable token)\n        external\n        onlyRole(GM_ROLE)\n    {\n        _setAcceptedToken(token);\n    }\n\n    function setStore(NFTStore s) external onlyRole(GM_ROLE) {\n        _setStore(s);\n    }\n\n    function setStoreItem(string memory symbol, uint256 price)\n        external\n        onlyRole(GM_ROLE)\n    {\n        _setStoreItem(symbol, price);\n    }\n\n    function delStoreItem(string memory symbol) external onlyRole(GM_ROLE) {\n        _delStoreItem(symbol);\n    }\n\n    // If return ture, means that the mall will only have the specified id\n    // Else otherwise it will be linear mint\n    // The ids Must ensure that you can mint,\n    // If multi-channel sales or mint, you need to filter out the ids that have been minted,\n    // To prevent errors in the sales process\n    function melandStoreItemsRestrictPurchaseNFTIds(string memory)\n        external\n        pure\n        returns (bool, uint256[] memory)\n    {\n        uint256[] memory ids;\n        return (false, ids);\n    }\n\n    // Store to pay NFT to the selling user by calling this function,\n    // For security reasons, be sure to control the permissions to allow only MelandStore contracts to call\n    // If melandStoreItemsRestrictPurchaseNFTIds return false, the id as zero.\n    function melandStoreItemsMint(\n        string memory symbol,\n        uint256 id,\n        address to\n    ) external override returns(uint256) {\n        super.checkMelandStoreItemsMint(symbol, id, to);\n        uint256 cid = _bytestoUint256(symbol);\n        uint256[] memory ids = _mintReturnTokenIds(to, cid, 1, \"\");\n        _dispatchItemInfoUpdate();\n        return ids[0];\n    }\n\n    // If return false, Stores will suspend sales.\n    function melandStoreSellStatus(string memory symbol)\n        external\n        view\n        returns (bool isSelling)\n    {\n        uint256 cid = _bytestoUint256(symbol);\n        uint256 mintMax = _getMintMaxByCId(cid);\n        isSelling = totalSupplyByCId(cid) < mintMax;\n    }\n\n    // If return true, it means that each person can only buy a certain amount\n    function melandStoreItemsRestrictedPurchase(string memory)\n        external\n        pure\n        returns (bool restricted, uint256 restrictLimit)\n    {\n        restricted = false;\n        restrictLimit = 0;\n    }\n}",
  "sourcePath": "/Users/alberthuang/code/contracts/contracts/Meland1155Placeable.sol",
  "compiler": {
    "name": "solc",
    "version": "0.8.9+commit.e5eed63a.Emscripten.clang"
  },
  "schemaVersion": "3.4.3",
  "updatedAt": "2022-01-25T12:32:21.690Z",
  "networkType": "ethereum",
  "devdoc": {
    "kind": "dev",
    "methods": {
      "balanceOf(address,uint256)": {
        "details": "See {IERC1155-balanceOf}. Requirements: - `account` cannot be the zero address."
      },
      "balanceOfBatch(address[],uint256[])": {
        "details": "See {IERC1155-balanceOfBatch}. Requirements: - `accounts` and `ids` must have the same length."
      },
      "getRoleAdmin(bytes32)": {
        "details": "Returns the admin role that controls `role`. See {grantRole} and {revokeRole}. To change a role's admin, use {_setRoleAdmin}."
      },
      "grantRole(bytes32,address)": {
        "details": "Grants `role` to `account`. If `account` had not been already granted `role`, emits a {RoleGranted} event. Requirements: - the caller must have ``role``'s admin role."
      },
      "hasRole(bytes32,address)": {
        "details": "Returns `true` if `account` has been granted `role`."
      },
      "renounceRole(bytes32,address)": {
        "details": "Revokes `role` from the calling account. Roles are often managed via {grantRole} and {revokeRole}: this function's purpose is to provide a mechanism for accounts to lose their privileges if they are compromised (such as when a trusted device is misplaced). If the calling account had been revoked `role`, emits a {RoleRevoked} event. Requirements: - the caller must be `account`."
      },
      "revokeRole(bytes32,address)": {
        "details": "Revokes `role` from `account`. If `account` had been granted `role`, emits a {RoleRevoked} event. Requirements: - the caller must have ``role``'s admin role."
      },
      "safeBatchTransferFrom(address,address,uint256[],uint256[],bytes)": {
        "details": "See {IERC1155-safeBatchTransferFrom}."
      },
      "safeTransferFrom(address,address,uint256,uint256,bytes)": {
        "details": "See {IERC1155-safeTransferFrom}."
      },
      "setApprovalForAll(address,bool)": {
        "details": "See {IERC1155-setApprovalForAll}."
      },
      "upgradeTo(address)": {
        "details": "Upgrade the implementation of the proxy to `newImplementation`. Calls {_authorizeUpgrade}. Emits an {Upgraded} event."
      },
      "upgradeToAndCall(address,bytes)": {
        "details": "Upgrade the implementation of the proxy to `newImplementation`, and subsequently execute the function call encoded in `data`. Calls {_authorizeUpgrade}. Emits an {Upgraded} event."
      }
    },
    "version": 1
  },
  "userdoc": {
    "kind": "user",
    "methods": {},
    "version": 1
  }
}