{
  "contractName": "Meland1155Wearable",
  "abi": [
    {
      "inputs": [],
      "stateMutability": "nonpayable",
      "type": "constructor"
    },
    {
      "anonymous": false,
      "inputs": [
        {
          "indexed": false,
          "internalType": "address",
          "name": "previousAdmin",
          "type": "address"
        },
        {
          "indexed": false,
          "internalType": "address",
          "name": "newAdmin",
          "type": "address"
        }
      ],
      "name": "AdminChanged",
      "type": "event"
    },
    {
      "anonymous": false,
      "inputs": [
        {
          "indexed": true,
          "internalType": "address",
          "name": "account",
          "type": "address"
        },
        {
          "indexed": true,
          "internalType": "address",
          "name": "operator",
          "type": "address"
        },
        {
          "indexed": false,
          "internalType": "bool",
          "name": "approved",
          "type": "bool"
        }
      ],
      "name": "ApprovalForAll",
      "type": "event"
    },
    {
      "anonymous": false,
      "inputs": [
        {
          "indexed": true,
          "internalType": "address",
          "name": "beacon",
          "type": "address"
        }
      ],
      "name": "BeaconUpgraded",
      "type": "event"
    },
    {
      "anonymous": false,
      "inputs": [
        {
          "indexed": false,
          "internalType": "bool",
          "name": "_freezeEnabled",
          "type": "bool"
        }
      ],
      "name": "FreezeEnabledUpdate",
      "type": "event"
    },
    {
      "anonymous": false,
      "inputs": [
        {
          "indexed": true,
          "internalType": "bytes",
          "name": "rarity",
          "type": "bytes"
        },
        {
          "indexed": false,
          "internalType": "uint256",
          "name": "mintMax",
          "type": "uint256"
        }
      ],
      "name": "RarityUpdate",
      "type": "event"
    },
    {
      "anonymous": false,
      "inputs": [
        {
          "indexed": true,
          "internalType": "bytes32",
          "name": "role",
          "type": "bytes32"
        },
        {
          "indexed": true,
          "internalType": "bytes32",
          "name": "previousAdminRole",
          "type": "bytes32"
        },
        {
          "indexed": true,
          "internalType": "bytes32",
          "name": "newAdminRole",
          "type": "bytes32"
        }
      ],
      "name": "RoleAdminChanged",
      "type": "event"
    },
    {
      "anonymous": false,
      "inputs": [
        {
          "indexed": true,
          "internalType": "bytes32",
          "name": "role",
          "type": "bytes32"
        },
        {
          "indexed": true,
          "internalType": "address",
          "name": "account",
          "type": "address"
        },
        {
          "indexed": true,
          "internalType": "address",
          "name": "sender",
          "type": "address"
        }
      ],
      "name": "RoleGranted",
      "type": "event"
    },
    {
      "anonymous": false,
      "inputs": [
        {
          "indexed": true,
          "internalType": "bytes32",
          "name": "role",
          "type": "bytes32"
        },
        {
          "indexed": true,
          "internalType": "address",
          "name": "account",
          "type": "address"
        },
        {
          "indexed": true,
          "internalType": "address",
          "name": "sender",
          "type": "address"
        }
      ],
      "name": "RoleRevoked",
      "type": "event"
    },
    {
      "anonymous": false,
      "inputs": [
        {
          "indexed": true,
          "internalType": "address",
          "name": "operator",
          "type": "address"
        },
        {
          "indexed": true,
          "internalType": "address",
          "name": "from",
          "type": "address"
        },
        {
          "indexed": true,
          "internalType": "address",
          "name": "to",
          "type": "address"
        },
        {
          "indexed": false,
          "internalType": "uint256[]",
          "name": "ids",
          "type": "uint256[]"
        },
        {
          "indexed": false,
          "internalType": "uint256[]",
          "name": "values",
          "type": "uint256[]"
        }
      ],
      "name": "TransferBatch",
      "type": "event"
    },
    {
      "anonymous": false,
      "inputs": [
        {
          "indexed": true,
          "internalType": "address",
          "name": "operator",
          "type": "address"
        },
        {
          "indexed": true,
          "internalType": "address",
          "name": "from",
          "type": "address"
        },
        {
          "indexed": true,
          "internalType": "address",
          "name": "to",
          "type": "address"
        },
        {
          "indexed": false,
          "internalType": "uint256",
          "name": "id",
          "type": "uint256"
        },
        {
          "indexed": false,
          "internalType": "uint256",
          "name": "value",
          "type": "uint256"
        }
      ],
      "name": "TransferSingle",
      "type": "event"
    },
    {
      "anonymous": false,
      "inputs": [
        {
          "indexed": false,
          "internalType": "string",
          "name": "value",
          "type": "string"
        },
        {
          "indexed": true,
          "internalType": "uint256",
          "name": "id",
          "type": "uint256"
        }
      ],
      "name": "URI",
      "type": "event"
    },
    {
      "anonymous": false,
      "inputs": [
        {
          "indexed": true,
          "internalType": "address",
          "name": "implementation",
          "type": "address"
        }
      ],
      "name": "Upgraded",
      "type": "event"
    },
    {
      "inputs": [],
      "name": "DEFAULT_ADMIN_ROLE",
      "outputs": [
        {
          "internalType": "bytes32",
          "name": "",
          "type": "bytes32"
        }
      ],
      "stateMutability": "view",
      "type": "function"
    },
    {
      "inputs": [],
      "name": "GM_ROLE",
      "outputs": [
        {
          "internalType": "bytes32",
          "name": "",
          "type": "bytes32"
        }
      ],
      "stateMutability": "view",
      "type": "function"
    },
    {
      "inputs": [],
      "name": "MINTER_ROLE",
      "outputs": [
        {
          "internalType": "bytes32",
          "name": "",
          "type": "bytes32"
        }
      ],
      "stateMutability": "view",
      "type": "function"
    },
    {
      "inputs": [],
      "name": "UPGRADER_ROLE",
      "outputs": [
        {
          "internalType": "bytes32",
          "name": "",
          "type": "bytes32"
        }
      ],
      "stateMutability": "view",
      "type": "function"
    },
    {
      "inputs": [
        {
          "internalType": "address",
          "name": "account",
          "type": "address"
        },
        {
          "internalType": "uint256",
          "name": "id",
          "type": "uint256"
        }
      ],
      "name": "balanceOf",
      "outputs": [
        {
          "internalType": "uint256",
          "name": "",
          "type": "uint256"
        }
      ],
      "stateMutability": "view",
      "type": "function"
    },
    {
      "inputs": [
        {
          "internalType": "address[]",
          "name": "accounts",
          "type": "address[]"
        },
        {
          "internalType": "uint256[]",
          "name": "ids",
          "type": "uint256[]"
        }
      ],
      "name": "balanceOfBatch",
      "outputs": [
        {
          "internalType": "uint256[]",
          "name": "",
          "type": "uint256[]"
        }
      ],
      "stateMutability": "view",
      "type": "function"
    },
    {
      "inputs": [
        {
          "internalType": "address",
          "name": "account",
          "type": "address"
        },
        {
          "internalType": "uint256",
          "name": "id",
          "type": "uint256"
        },
        {
          "internalType": "uint256",
          "name": "value",
          "type": "uint256"
        }
      ],
      "name": "burn",
      "outputs": [],
      "stateMutability": "nonpayable",
      "type": "function"
    },
    {
      "inputs": [
        {
          "internalType": "address",
          "name": "account",
          "type": "address"
        },
        {
          "internalType": "uint256[]",
          "name": "ids",
          "type": "uint256[]"
        },
        {
          "internalType": "uint256[]",
          "name": "values",
          "type": "uint256[]"
        }
      ],
      "name": "burnBatch",
      "outputs": [],
      "stateMutability": "nonpayable",
      "type": "function"
    },
    {
      "inputs": [
        {
          "internalType": "uint256",
          "name": "id",
          "type": "uint256"
        }
      ],
      "name": "getCidByTokenId",
      "outputs": [
        {
          "internalType": "uint256",
          "name": "",
          "type": "uint256"
        }
      ],
      "stateMutability": "view",
      "type": "function"
    },
    {
      "inputs": [
        {
          "internalType": "uint256",
          "name": "id",
          "type": "uint256"
        }
      ],
      "name": "getRarityById",
      "outputs": [
        {
          "internalType": "string",
          "name": "",
          "type": "string"
        }
      ],
      "stateMutability": "view",
      "type": "function"
    },
    {
      "inputs": [
        {
          "internalType": "bytes32",
          "name": "role",
          "type": "bytes32"
        }
      ],
      "name": "getRoleAdmin",
      "outputs": [
        {
          "internalType": "bytes32",
          "name": "",
          "type": "bytes32"
        }
      ],
      "stateMutability": "view",
      "type": "function"
    },
    {
      "inputs": [
        {
          "internalType": "bytes32",
          "name": "role",
          "type": "bytes32"
        },
        {
          "internalType": "address",
          "name": "account",
          "type": "address"
        }
      ],
      "name": "grantRole",
      "outputs": [],
      "stateMutability": "nonpayable",
      "type": "function"
    },
    {
      "inputs": [
        {
          "internalType": "bytes32",
          "name": "role",
          "type": "bytes32"
        },
        {
          "internalType": "address",
          "name": "account",
          "type": "address"
        }
      ],
      "name": "hasRole",
      "outputs": [
        {
          "internalType": "bool",
          "name": "",
          "type": "bool"
        }
      ],
      "stateMutability": "view",
      "type": "function"
    },
    {
      "inputs": [
        {
          "internalType": "address",
          "name": "_owner",
          "type": "address"
        },
        {
          "internalType": "address",
          "name": "_operator",
          "type": "address"
        }
      ],
      "name": "isApprovedForAll",
      "outputs": [
        {
          "internalType": "bool",
          "name": "isOperator",
          "type": "bool"
        }
      ],
      "stateMutability": "view",
      "type": "function"
    },
    {
      "inputs": [
        {
          "internalType": "bytes32",
          "name": "",
          "type": "bytes32"
        }
      ],
      "name": "mintMaxByRaritykeccak256",
      "outputs": [
        {
          "internalType": "uint256",
          "name": "",
          "type": "uint256"
        }
      ],
      "stateMutability": "view",
      "type": "function"
    },
    {
      "inputs": [
        {
          "internalType": "bytes32",
          "name": "role",
          "type": "bytes32"
        },
        {
          "internalType": "address",
          "name": "account",
          "type": "address"
        }
      ],
      "name": "renounceRole",
      "outputs": [],
      "stateMutability": "nonpayable",
      "type": "function"
    },
    {
      "inputs": [
        {
          "internalType": "bytes32",
          "name": "role",
          "type": "bytes32"
        },
        {
          "internalType": "address",
          "name": "account",
          "type": "address"
        }
      ],
      "name": "revokeRole",
      "outputs": [],
      "stateMutability": "nonpayable",
      "type": "function"
    },
    {
      "inputs": [
        {
          "internalType": "address",
          "name": "from",
          "type": "address"
        },
        {
          "internalType": "address",
          "name": "to",
          "type": "address"
        },
        {
          "internalType": "uint256[]",
          "name": "ids",
          "type": "uint256[]"
        },
        {
          "internalType": "uint256[]",
          "name": "amounts",
          "type": "uint256[]"
        },
        {
          "internalType": "bytes",
          "name": "data",
          "type": "bytes"
        }
      ],
      "name": "safeBatchTransferFrom",
      "outputs": [],
      "stateMutability": "nonpayable",
      "type": "function"
    },
    {
      "inputs": [
        {
          "internalType": "address",
          "name": "from",
          "type": "address"
        },
        {
          "internalType": "address",
          "name": "to",
          "type": "address"
        },
        {
          "internalType": "uint256",
          "name": "id",
          "type": "uint256"
        },
        {
          "internalType": "uint256",
          "name": "amount",
          "type": "uint256"
        },
        {
          "internalType": "bytes",
          "name": "data",
          "type": "bytes"
        }
      ],
      "name": "safeTransferFrom",
      "outputs": [],
      "stateMutability": "nonpayable",
      "type": "function"
    },
    {
      "inputs": [
        {
          "internalType": "address",
          "name": "operator",
          "type": "address"
        },
        {
          "internalType": "bool",
          "name": "approved",
          "type": "bool"
        }
      ],
      "name": "setApprovalForAll",
      "outputs": [],
      "stateMutability": "nonpayable",
      "type": "function"
    },
    {
      "inputs": [
        {
          "internalType": "address",
          "name": "newImplementation",
          "type": "address"
        }
      ],
      "name": "upgradeTo",
      "outputs": [],
      "stateMutability": "nonpayable",
      "type": "function"
    },
    {
      "inputs": [
        {
          "internalType": "address",
          "name": "newImplementation",
          "type": "address"
        },
        {
          "internalType": "bytes",
          "name": "data",
          "type": "bytes"
        }
      ],
      "name": "upgradeToAndCall",
      "outputs": [],
      "stateMutability": "payable",
      "type": "function"
    },
    {
      "inputs": [
        {
          "internalType": "uint256",
          "name": "",
          "type": "uint256"
        }
      ],
      "name": "uri",
      "outputs": [
        {
          "internalType": "string",
          "name": "",
          "type": "string"
        }
      ],
      "stateMutability": "view",
      "type": "function"
    },
    {
      "inputs": [
        {
          "internalType": "string",
          "name": "uri",
          "type": "string"
        }
      ],
      "name": "initialize",
      "outputs": [],
      "stateMutability": "nonpayable",
      "type": "function"
    },
    {
      "inputs": [
        {
          "internalType": "string",
          "name": "newuri",
          "type": "string"
        }
      ],
      "name": "setURI",
      "outputs": [],
      "stateMutability": "nonpayable",
      "type": "function"
    },
    {
      "inputs": [
        {
          "internalType": "address",
          "name": "account",
          "type": "address"
        },
        {
          "internalType": "uint256",
          "name": "cid",
          "type": "uint256"
        },
        {
          "internalType": "uint256",
          "name": "amount",
          "type": "uint256"
        },
        {
          "internalType": "bytes",
          "name": "data",
          "type": "bytes"
        }
      ],
      "name": "mint",
      "outputs": [],
      "stateMutability": "nonpayable",
      "type": "function"
    },
    {
      "inputs": [
        {
          "internalType": "string",
          "name": "_rarity",
          "type": "string"
        },
        {
          "internalType": "uint256",
          "name": "mintMax",
          "type": "uint256"
        }
      ],
      "name": "setRarity",
      "outputs": [],
      "stateMutability": "nonpayable",
      "type": "function"
    },
    {
      "inputs": [
        {
          "internalType": "contract MelandTier",
          "name": "_tierAddress",
          "type": "address"
        }
      ],
      "name": "setMelandTier",
      "outputs": [],
      "stateMutability": "nonpayable",
      "type": "function"
    },
    {
      "inputs": [
        {
          "internalType": "bytes4",
          "name": "interfaceId",
          "type": "bytes4"
        }
      ],
      "name": "supportsInterface",
      "outputs": [
        {
          "internalType": "bool",
          "name": "",
          "type": "bool"
        }
      ],
      "stateMutability": "view",
      "type": "function"
    }
  ],
  "bytecode": "0x60a0604052306080523480156200001557600080fd5b50600054610100900460ff168062000030575060005460ff16155b620000885760405162461bcd60e51b815260206004820152602e6024820152600080516020620035d783398151915260448201526d191e481a5b9a5d1a585b1a5e995960921b60648201526084015b60405180910390fd5b600054610100900460ff16158015620000ab576000805461ffff19166101011790555b8015620000be576000805461ff00191690555b50600054610100900460ff1680620000d9575060005460ff16155b6200012d5760405162461bcd60e51b815260206004820152602e6024820152600080516020620035d783398151915260448201526d191e481a5b9a5d1a585b1a5e995960921b60648201526084016200007f565b600054610100900460ff1615801562000150576000805461ffff19166101011790555b801562000163576000805461ff00191690555b506080516134426200019560003960008181610889015281816108c901528181610a7b0152610abb01526134426000f3fe6080604052600436106101c15760003560e01c8063731133e9116100f7578063d539139311610095578063f5298aca11610064578063f5298aca1461054d578063f62d18881461056d578063f70e9a471461058d578063f72c0d8b146105ad57600080fd5b8063d5391393146104b9578063d547741f146104ed578063e985e9c51461050d578063f242432a1461052d57600080fd5b8063a217fddf116100d1578063a217fddf14610437578063a22cb4651461044c578063a649e7a51461046c578063be7cbe751461049957600080fd5b8063731133e9146103d757806380e416bd146103f757806391d148541461041757600080fd5b806330c7be2c116101645780633ef780bc1161013e5780633ef780bc1461034a5780634e1273f4146103775780634f1ef286146103a45780636b20c454146103b757600080fd5b806330c7be2c146102e857806336568abe1461030a5780633659cfe61461032a57600080fd5b80630e89341c116101a05780630e89341c1461024b578063248a9ca3146102785780632eb2c2d6146102a85780632f2ff15d146102c857600080fd5b8062fdd58e146101c657806301ffc9a7146101f957806302fe530514610229575b600080fd5b3480156101d257600080fd5b506101e66101e13660046126cb565b6105e1565b6040519081526020015b60405180910390f35b34801561020557600080fd5b5061021961021436600461270d565b61067d565b60405190151581526020016101f0565b34801561023557600080fd5b506102496102443660046127df565b610688565b005b34801561025757600080fd5b5061026b61026636600461281b565b6106ae565b6040516101f0919061288c565b34801561028457600080fd5b506101e661029336600461281b565b600090815260cf602052604090206001015490565b3480156102b457600080fd5b506102496102c3366004612933565b610742565b3480156102d457600080fd5b506102496102e33660046129e0565b6107d9565b3480156102f457600080fd5b506101e66000805160206133ed83398151915281565b34801561031657600080fd5b506102496103253660046129e0565b610804565b34801561033657600080fd5b50610249610345366004612a10565b61087e565b34801561035657600080fd5b506101e661036536600461281b565b600090815260ca602052604090205490565b34801561038357600080fd5b50610397610392366004612a2d565b610947565b6040516101f09190612b34565b6102496103b2366004612b47565b610a70565b3480156103c357600080fd5b506102496103d2366004612b8c565b610b26565b3480156103e357600080fd5b506102496103f2366004612c01565b610b69565b34801561040357600080fd5b50610249610412366004612c63565b610ba0565b34801561042357600080fd5b506102196104323660046129e0565b610bca565b34801561044357600080fd5b506101e6600081565b34801561045857600080fd5b50610249610467366004612ca7565b610bf5565b34801561047857600080fd5b506101e661048736600461281b565b60cd6020526000908152604090205481565b3480156104a557600080fd5b5061026b6104b436600461281b565b610c00565b3480156104c557600080fd5b506101e67f9f2df0fed2c77648de5860a4cc508cd0818c85b8b8a1ab4ceeef8d981c8956a681565b3480156104f957600080fd5b506102496105083660046129e0565b610c1d565b34801561051957600080fd5b50610219610528366004612cda565b610c43565b34801561053957600080fd5b50610249610548366004612d08565b610c56565b34801561055957600080fd5b50610249610568366004612d70565b610c9b565b34801561057957600080fd5b506102496105883660046127df565b610cde565b34801561059957600080fd5b506102496105a8366004612a10565b610d63565b3480156105b957600080fd5b506101e67f189ab7a9244df0848122154315af71fe140f3db0fe014031783b0946b8c9d2e381565b60006001600160a01b0383166106525760405162461bcd60e51b815260206004820152602b60248201527f455243313135353a2062616c616e636520717565727920666f7220746865207a60448201526a65726f206164647265737360a81b60648201526084015b60405180910390fd5b5060008181526065602090815260408083206001600160a01b03861684529091529020545b92915050565b600061067782610d9b565b6000805160206133ed8339815191526106a18133610dc0565b6106aa82610e24565b5050565b6060606780546106bd90612da5565b80601f01602080910402602001604051908101604052809291908181526020018280546106e990612da5565b80156107365780601f1061070b57610100808354040283529160200191610736565b820191906000526020600020905b81548152906001019060200180831161071957829003601f168201915b50505050509050919050565b6001600160a01b03851633148061075e575061075e8533610c43565b6107c55760405162461bcd60e51b815260206004820152603260248201527f455243313135353a207472616e736665722063616c6c6572206973206e6f74206044820152711bdddb995c881b9bdc88185c1c1c9bdd995960721b6064820152608401610649565b6107d28585858585610e37565b5050505050565b600082815260cf60205260409020600101546107f58133610dc0565b6107ff8383610fe4565b505050565b6001600160a01b03811633146108745760405162461bcd60e51b815260206004820152602f60248201527f416363657373436f6e74726f6c3a2063616e206f6e6c792072656e6f756e636560448201526e103937b632b9903337b91039b2b63360891b6064820152608401610649565b6106aa828261106a565b306001600160a01b037f00000000000000000000000000000000000000000000000000000000000000001614156108c75760405162461bcd60e51b815260040161064990612de0565b7f00000000000000000000000000000000000000000000000000000000000000006001600160a01b03166108f96110d1565b6001600160a01b03161461091f5760405162461bcd60e51b815260040161064990612e2c565b610928816110ff565b604080516000808252602082019092526109449183919061112a565b50565b606081518351146109ac5760405162461bcd60e51b815260206004820152602960248201527f455243313135353a206163636f756e747320616e6420696473206c656e677468604482015268040dad2e6dac2e8c6d60bb1b6064820152608401610649565b600083516001600160401b038111156109c7576109c761272a565b6040519080825280602002602001820160405280156109f0578160200160208202803683370190505b50905060005b8451811015610a6857610a3b858281518110610a1457610a14612e78565b6020026020010151858381518110610a2e57610a2e612e78565b60200260200101516105e1565b828281518110610a4d57610a4d612e78565b6020908102919091010152610a6181612ea4565b90506109f6565b509392505050565b306001600160a01b037f0000000000000000000000000000000000000000000000000000000000000000161415610ab95760405162461bcd60e51b815260040161064990612de0565b7f00000000000000000000000000000000000000000000000000000000000000006001600160a01b0316610aeb6110d1565b6001600160a01b031614610b115760405162461bcd60e51b815260040161064990612e2c565b610b1a826110ff565b6106aa8282600161112a565b6001600160a01b038316331480610b425750610b428333610c43565b610b5e5760405162461bcd60e51b815260040161064990612ebf565b6107ff83838361126e565b7f9f2df0fed2c77648de5860a4cc508cd0818c85b8b8a1ab4ceeef8d981c8956a6610b948133610dc0565b6107d2858585856113ff565b6000805160206133ed833981519152610bb98133610dc0565b82610bc4818461140b565b50505050565b600091825260cf602090815260408084206001600160a01b0393909316845291905290205460ff1690565b6106aa338383611476565b600081815260ce602052604090208054606091906106bd90612da5565b600082815260cf6020526040902060010154610c398133610dc0565b6107ff838361106a565b6000610c4f8383611557565b9392505050565b6001600160a01b038516331480610c725750610c728533610c43565b610c8e5760405162461bcd60e51b815260040161064990612ebf565b6107d285858585856115d2565b6001600160a01b038316331480610cb75750610cb78333610c43565b610cd35760405162461bcd60e51b815260040161064990612ebf565b6107ff838383611702565b600054610100900460ff1680610cf7575060005460ff16155b610d135760405162461bcd60e51b815260040161064990612f08565b600054610100900460ff16158015610d35576000805461ffff19166101011790555b610d3d611807565b610d4682611882565b610d4e611956565b80156106aa576000805461ff00191690555050565b6000805160206133ed833981519152610d7c8133610dc0565b60cc80546001600160a01b0319166001600160a01b0384161790555050565b60006001600160e01b03198216637965db0b60e01b14806106775750610677826119d7565b610dca8282610bca565b6106aa57610de2816001600160a01b03166014611a27565b610ded836020611a27565b604051602001610dfe929190612f56565b60408051601f198184030181529082905262461bcd60e51b82526106499160040161288c565b80516106aa90606790602084019061261d565b8151835114610e585760405162461bcd60e51b815260040161064990612fcb565b6001600160a01b038416610e7e5760405162461bcd60e51b815260040161064990613013565b33610e8d818787878787611bc2565b60005b8451811015610f76576000858281518110610ead57610ead612e78565b602002602001015190506000858381518110610ecb57610ecb612e78565b60209081029190910181015160008481526065835260408082206001600160a01b038e168352909352919091205490915081811015610f1c5760405162461bcd60e51b815260040161064990613058565b60008381526065602090815260408083206001600160a01b038e8116855292528083208585039055908b16825281208054849290610f5b9084906130a2565b9250508190555050505080610f6f90612ea4565b9050610e90565b50846001600160a01b0316866001600160a01b0316826001600160a01b03167f4a39dc06d4c0dbc64b70af90fd698a233a518aa5d07e595d983b8c0526c8f7fb8787604051610fc69291906130ba565b60405180910390a4610fdc818787878787611ca9565b505050505050565b610fee8282610bca565b6106aa57600082815260cf602090815260408083206001600160a01b03851684529091529020805460ff191660011790556110263390565b6001600160a01b0316816001600160a01b0316837f2f8788117e7eff1d82e926ec794901d17c78024a50270940304540a733656f0d60405160405180910390a45050565b6110748282610bca565b156106aa57600082815260cf602090815260408083206001600160a01b0385168085529252808320805460ff1916905551339285917ff6391f5c32d9c69d2a47ea670b442974b53935d1edc7fd64eb21e047a839171b9190a45050565b7f360894a13ba1a3210667c828492db98dca3e2076cc3735a920a3ca505d382bbc546001600160a01b031690565b7f189ab7a9244df0848122154315af71fe140f3db0fe014031783b0946b8c9d2e36106aa8133610dc0565b60006111346110d1565b905061113f84611e14565b60008351118061114c5750815b1561115d5761115b8484611eb9565b505b7f4910fdfa16fed3260ed0e7147f7cc6da11a60208b5b9406d12a635614ffd9143805460ff166107d257805460ff191660011781556040516001600160a01b03831660248201526111dc90869060440160408051601f198184030181529190526020810180516001600160e01b0316631b2ce7f360e11b179052611eb9565b50805460ff191681556111ed6110d1565b6001600160a01b0316826001600160a01b0316146112655760405162461bcd60e51b815260206004820152602f60248201527f45524331393637557067726164653a207570677261646520627265616b73206660448201526e75727468657220757067726164657360881b6064820152608401610649565b6107d285611fa4565b6001600160a01b0383166112945760405162461bcd60e51b8152600401610649906130df565b80518251146112b55760405162461bcd60e51b815260040161064990612fcb565b60003390506112d881856000868660405180602001604052806000815250611bc2565b60005b83518110156113a05760008482815181106112f8576112f8612e78565b60200260200101519050600084838151811061131657611316612e78565b60209081029190910181015160008481526065835260408082206001600160a01b038c1683529093529190912054909150818110156113675760405162461bcd60e51b815260040161064990613122565b60009283526065602090815260408085206001600160a01b038b168652909152909220910390558061139881612ea4565b9150506112db565b5060006001600160a01b0316846001600160a01b0316826001600160a01b03167f4a39dc06d4c0dbc64b70af90fd698a233a518aa5d07e595d983b8c0526c8f7fb86866040516113f19291906130ba565b60405180910390a450505050565b610bc484848484611fe4565b8060cd60008480519060200120815260200190815260200160002081905550816040516114389190613166565b604051908190038120828252907fc0cc007bc58275ca70d6cec6795b70feb61df220b5c085a20bb71648ed57072c9060200160405180910390a25050565b816001600160a01b0316836001600160a01b031614156114ea5760405162461bcd60e51b815260206004820152602960248201527f455243313135353a2073657474696e6720617070726f76616c20737461747573604482015268103337b91039b2b63360b91b6064820152608401610649565b6001600160a01b03838116600081815260666020908152604080832094871680845294825291829020805460ff191686151590811790915591519182527f17307eab39ab6107e8899845ad3d59bd9653f200f220920489ca2b5937696c31910160405180910390a3505050565b60006001600160a01b03821673207fa8df3a17d96ca7ea4f2893fcdcb78a304101141561158657506001610677565b60cc546001600160a01b03838116911614156115a457506001610677565b6001600160a01b0380841660009081526066602090815260408083209386168352929052205460ff16610c4f565b6001600160a01b0384166115f85760405162461bcd60e51b815260040161064990613013565b3361161781878761160888612076565b61161188612076565b87611bc2565b60008481526065602090815260408083206001600160a01b038a1684529091529020548381101561165a5760405162461bcd60e51b815260040161064990613058565b60008581526065602090815260408083206001600160a01b038b81168552925280832087850390559088168252812080548692906116999084906130a2565b909155505060408051868152602081018690526001600160a01b03808916928a821692918616917fc3d58168c5ae7397731d063d5bbf3d657854427343f4c083240f7aacaa2d0f62910160405180910390a46116f98288888888886120c1565b50505050505050565b6001600160a01b0383166117285760405162461bcd60e51b8152600401610649906130df565b336117578185600061173987612076565b61174287612076565b60405180602001604052806000815250611bc2565b60008381526065602090815260408083206001600160a01b03881684529091529020548281101561179a5760405162461bcd60e51b815260040161064990613122565b60008481526065602090815260408083206001600160a01b03898116808652918452828520888703905582518981529384018890529092908616917fc3d58168c5ae7397731d063d5bbf3d657854427343f4c083240f7aacaa2d0f62910160405180910390a45050505050565b600054610100900460ff1680611820575060005460ff16155b61183c5760405162461bcd60e51b815260040161064990612f08565b600054610100900460ff1615801561185e576000805461ffff19166101011790555b61186661218b565b61186e61218b565b8015610944576000805461ff001916905550565b6118ab60405180604001604052806006815260200165756e6971756560d01b815250600161140b565b6118d4604051806040016040528060068152602001656d797468696360d01b815250600a61140b565b6118fb604051806040016040528060048152602001636570696360e01b815250606461140b565b611923604051806040016040528060048152602001637261726560e01b8152506103e861140b565b61194d6040518060400160405280600681526020016531b7b6b6b7b760d11b81525061271061140b565b610944816121f5565b61195e612259565b611969600033610fe4565b6119816000805160206133ed83398151915233610fe4565b6119ab7f9f2df0fed2c77648de5860a4cc508cd0818c85b8b8a1ab4ceeef8d981c8956a633610fe4565b6119d57f189ab7a9244df0848122154315af71fe140f3db0fe014031783b0946b8c9d2e333610fe4565b565b60006001600160e01b03198216636cdb3d1360e11b1480611a0857506001600160e01b031982166303a24d0760e21b145b8061067757506301ffc9a760e01b6001600160e01b0319831614610677565b60606000611a36836002613182565b611a419060026130a2565b6001600160401b03811115611a5857611a5861272a565b6040519080825280601f01601f191660200182016040528015611a82576020820181803683370190505b509050600360fc1b81600081518110611a9d57611a9d612e78565b60200101906001600160f81b031916908160001a905350600f60fb1b81600181518110611acc57611acc612e78565b60200101906001600160f81b031916908160001a9053506000611af0846002613182565b611afb9060016130a2565b90505b6001811115611b73576f181899199a1a9b1b9c1cb0b131b232b360811b85600f1660108110611b2f57611b2f612e78565b1a60f81b828281518110611b4557611b45612e78565b60200101906001600160f81b031916908160001a90535060049490941c93611b6c816131a1565b9050611afe565b508315610c4f5760405162461bcd60e51b815260206004820181905260248201527f537472696e67733a20686578206c656e67746820696e73756666696369656e746044820152606401610649565b6001600160a01b038516611c9b5760005b8351811015611c99576000848281518110611bf057611bf0612e78565b602090810291909101810151845185830120600090815260cd909252604090912054909150839080611c21846122b8565b108282604051602001611c359291906131b8565b60405160208183030381529060405290611c625760405162461bcd60e51b8152600401610649919061288c565b50600083815260ce602090815260409091208351611c829285019061261d565b505050508080611c9190612ea4565b915050611bd3565b505b610fdc8686868686866122ea565b6001600160a01b0384163b15610fdc5760405163bc197c8160e01b81526001600160a01b0385169063bc197c8190611ced9089908990889088908890600401613201565b602060405180830381600087803b158015611d0757600080fd5b505af1925050508015611d37575060408051601f3d908101601f19168201909252611d349181019061325f565b60015b611de457611d4361327c565b806308c379a01415611d7d5750611d58613298565b80611d635750611d7f565b8060405162461bcd60e51b8152600401610649919061288c565b505b60405162461bcd60e51b815260206004820152603460248201527f455243313135353a207472616e7366657220746f206e6f6e20455243313135356044820152732932b1b2b4bb32b91034b6b83632b6b2b73a32b960611b6064820152608401610649565b6001600160e01b0319811663bc197c8160e01b146116f95760405162461bcd60e51b815260040161064990613321565b803b611e785760405162461bcd60e51b815260206004820152602d60248201527f455243313936373a206e657720696d706c656d656e746174696f6e206973206e60448201526c1bdd08184818dbdb9d1c9858dd609a1b6064820152608401610649565b7f360894a13ba1a3210667c828492db98dca3e2076cc3735a920a3ca505d382bbc80546001600160a01b0319166001600160a01b0392909216919091179055565b6060823b611f185760405162461bcd60e51b815260206004820152602660248201527f416464726573733a2064656c65676174652063616c6c20746f206e6f6e2d636f6044820152651b9d1c9858dd60d21b6064820152608401610649565b600080846001600160a01b031684604051611f339190613166565b600060405180830381855af49150503d8060008114611f6e576040519150601f19603f3d011682016040523d82523d6000602084013e611f73565b606091505b5091509150611f9b82826040518060600160405280602781526020016133c6602791396123e4565b95945050505050565b611fad81611e14565b6040516001600160a01b038216907fbc7cd75a20ee27fd9adebab32041f755214dbc6bffa90cc0225b39da2e5c2d3b90600090a250565b6000821161203e5760405162461bcd60e51b815260206004820152602160248201527f54686520616d6f756e74206d7573742062652067726561746572207468616e206044820152600360fc1b6064820152608401610649565b60005b828110156107d25760006120548561241d565b9050612063868260018661244f565b508061206e81612ea4565b915050612041565b604080516001808252818301909252606091600091906020808301908036833701905050905082816000815181106120b0576120b0612e78565b602090810291909101015292915050565b6001600160a01b0384163b15610fdc5760405163f23a6e6160e01b81526001600160a01b0385169063f23a6e61906121059089908990889088908890600401613369565b602060405180830381600087803b15801561211f57600080fd5b505af192505050801561214f575060408051601f3d908101601f1916820190925261214c9181019061325f565b60015b61215b57611d4361327c565b6001600160e01b0319811663f23a6e6160e01b146116f95760405162461bcd60e51b815260040161064990613321565b600054610100900460ff16806121a4575060005460ff16155b6121c05760405162461bcd60e51b815260040161064990612f08565b600054610100900460ff1615801561186e576000805461ffff19166101011790558015610944576000805461ff001916905550565b600054610100900460ff168061220e575060005460ff16155b61222a5760405162461bcd60e51b815260040161064990612f08565b600054610100900460ff1615801561224c576000805461ffff19166101011790555b61225582612552565b610d4e5b600054610100900460ff1680612272575060005460ff16155b61228e5760405162461bcd60e51b815260040161064990612f08565b600054610100900460ff161580156122b0576000805461ffff19166101011790555b61185e61218b565b600081815260ca6020526040812054806122d55750600092915050565b600090815260cb602052604090205492915050565b6001600160a01b0385166123755760005b835181101561237357600061233585838151811061231b5761231b612e78565b6020026020010151600090815260ca602052604090205490565b9050600160cb6000838152602001908152602001600020600082825461235b91906130a2565b9091555061236c9150829050612ea4565b90506122fb565b505b6001600160a01b038416610fdc5760005b83518110156116f95760006123a685838151811061231b5761231b612e78565b9050600160cb600083815260200190815260200160002060008282546123cc91906133ae565b909155506123dd9150829050612ea4565b9050612386565b606083156123f3575081610c4f565b8251156124035782518084602001fd5b8160405162461bcd60e51b8152600401610649919061288c565b60008061242960c95490565b905061243960c980546001019055565b600081815260ca60205260409020929092555090565b6001600160a01b0384166124af5760405162461bcd60e51b815260206004820152602160248201527f455243313135353a206d696e7420746f20746865207a65726f206164647265736044820152607360f81b6064820152608401610649565b336124c08160008761160888612076565b60008481526065602090815260408083206001600160a01b0389168452909152812080548592906124f29084906130a2565b909155505060408051858152602081018590526001600160a01b0380881692600092918516917fc3d58168c5ae7397731d063d5bbf3d657854427343f4c083240f7aacaa2d0f62910160405180910390a46107d2816000878787876120c1565b600054610100900460ff168061256b575060005460ff16155b6125875760405162461bcd60e51b815260040161064990612f08565b600054610100900460ff161580156125a9576000805461ffff19166101011790555b6125b161218b565b6125b961218b565b610d4e82600054610100900460ff16806125d6575060005460ff16155b6125f25760405162461bcd60e51b815260040161064990612f08565b600054610100900460ff16158015612614576000805461ffff19166101011790555b610d4e82610e24565b82805461262990612da5565b90600052602060002090601f01602090048101928261264b5760008555612691565b82601f1061266457805160ff1916838001178555612691565b82800160010185558215612691579182015b82811115612691578251825591602001919060010190612676565b5061269d9291506126a1565b5090565b5b8082111561269d57600081556001016126a2565b6001600160a01b038116811461094457600080fd5b600080604083850312156126de57600080fd5b82356126e9816126b6565b946020939093013593505050565b6001600160e01b03198116811461094457600080fd5b60006020828403121561271f57600080fd5b8135610c4f816126f7565b634e487b7160e01b600052604160045260246000fd5b601f8201601f191681016001600160401b03811182821017156127655761276561272a565b6040525050565b600082601f83011261277d57600080fd5b81356001600160401b038111156127965761279661272a565b6040516127ad601f8301601f191660200182612740565b8181528460208386010111156127c257600080fd5b816020850160208301376000918101602001919091529392505050565b6000602082840312156127f157600080fd5b81356001600160401b0381111561280757600080fd5b6128138482850161276c565b949350505050565b60006020828403121561282d57600080fd5b5035919050565b60005b8381101561284f578181015183820152602001612837565b83811115610bc45750506000910152565b60008151808452612878816020860160208601612834565b601f01601f19169290920160200192915050565b602081526000610c4f6020830184612860565b60006001600160401b038211156128b8576128b861272a565b5060051b60200190565b600082601f8301126128d357600080fd5b813560206128e08261289f565b6040516128ed8282612740565b83815260059390931b850182019282810191508684111561290d57600080fd5b8286015b848110156129285780358352918301918301612911565b509695505050505050565b600080600080600060a0868803121561294b57600080fd5b8535612956816126b6565b94506020860135612966816126b6565b935060408601356001600160401b038082111561298257600080fd5b61298e89838a016128c2565b945060608801359150808211156129a457600080fd5b6129b089838a016128c2565b935060808801359150808211156129c657600080fd5b506129d38882890161276c565b9150509295509295909350565b600080604083850312156129f357600080fd5b823591506020830135612a05816126b6565b809150509250929050565b600060208284031215612a2257600080fd5b8135610c4f816126b6565b60008060408385031215612a4057600080fd5b82356001600160401b0380821115612a5757600080fd5b818501915085601f830112612a6b57600080fd5b81356020612a788261289f565b604051612a858282612740565b83815260059390931b8501820192828101915089841115612aa557600080fd5b948201945b83861015612acc578535612abd816126b6565b82529482019490820190612aaa565b96505086013592505080821115612ae257600080fd5b50612aef858286016128c2565b9150509250929050565b600081518084526020808501945080840160005b83811015612b2957815187529582019590820190600101612b0d565b509495945050505050565b602081526000610c4f6020830184612af9565b60008060408385031215612b5a57600080fd5b8235612b65816126b6565b915060208301356001600160401b03811115612b8057600080fd5b612aef8582860161276c565b600080600060608486031215612ba157600080fd5b8335612bac816126b6565b925060208401356001600160401b0380821115612bc857600080fd5b612bd4878388016128c2565b93506040860135915080821115612bea57600080fd5b50612bf7868287016128c2565b9150509250925092565b60008060008060808587031215612c1757600080fd5b8435612c22816126b6565b9350602085013592506040850135915060608501356001600160401b03811115612c4b57600080fd5b612c578782880161276c565b91505092959194509250565b60008060408385031215612c7657600080fd5b82356001600160401b03811115612c8c57600080fd5b612c988582860161276c565b95602094909401359450505050565b60008060408385031215612cba57600080fd5b8235612cc5816126b6565b915060208301358015158114612a0557600080fd5b60008060408385031215612ced57600080fd5b8235612cf8816126b6565b91506020830135612a05816126b6565b600080600080600060a08688031215612d2057600080fd5b8535612d2b816126b6565b94506020860135612d3b816126b6565b9350604086013592506060860135915060808601356001600160401b03811115612d6457600080fd5b6129d38882890161276c565b600080600060608486031215612d8557600080fd5b8335612d90816126b6565b95602085013595506040909401359392505050565b600181811c90821680612db957607f821691505b60208210811415612dda57634e487b7160e01b600052602260045260246000fd5b50919050565b6020808252602c908201527f46756e6374696f6e206d7573742062652063616c6c6564207468726f7567682060408201526b19195b1959d85d1958d85b1b60a21b606082015260800190565b6020808252602c908201527f46756e6374696f6e206d7573742062652063616c6c6564207468726f7567682060408201526b6163746976652070726f787960a01b606082015260800190565b634e487b7160e01b600052603260045260246000fd5b634e487b7160e01b600052601160045260246000fd5b6000600019821415612eb857612eb8612e8e565b5060010190565b60208082526029908201527f455243313135353a2063616c6c6572206973206e6f74206f776e6572206e6f7260408201526808185c1c1c9bdd995960ba1b606082015260800190565b6020808252602e908201527f496e697469616c697a61626c653a20636f6e747261637420697320616c72656160408201526d191e481a5b9a5d1a585b1a5e995960921b606082015260800190565b7f416363657373436f6e74726f6c3a206163636f756e7420000000000000000000815260008351612f8e816017850160208801612834565b7001034b99036b4b9b9b4b733903937b6329607d1b6017918401918201528351612fbf816028840160208801612834565b01602801949350505050565b60208082526028908201527f455243313135353a2069647320616e6420616d6f756e7473206c656e677468206040820152670dad2e6dac2e8c6d60c31b606082015260800190565b60208082526025908201527f455243313135353a207472616e7366657220746f20746865207a65726f206164604082015264647265737360d81b606082015260800190565b6020808252602a908201527f455243313135353a20696e73756666696369656e742062616c616e636520666f60408201526939103a3930b739b332b960b11b606082015260800190565b600082198211156130b5576130b5612e8e565b500190565b6040815260006130cd6040830185612af9565b8281036020840152611f9b8185612af9565b60208082526023908201527f455243313135353a206275726e2066726f6d20746865207a65726f206164647260408201526265737360e81b606082015260800190565b60208082526024908201527f455243313135353a206275726e20616d6f756e7420657863656564732062616c604082015263616e636560e01b606082015260800190565b60008251613178818460208701612834565b9190910192915050565b600081600019048311821515161561319c5761319c612e8e565b500290565b6000816131b0576131b0612e8e565b506000190190565b600083516131ca818460208801612834565b7f726172697479206f6e6c7920746f74616c537570706c790000000000000000009201918252506017810191909152603701919050565b6001600160a01b0386811682528516602082015260a06040820181905260009061322d90830186612af9565b828103606084015261323f8186612af9565b905082810360808401526132538185612860565b98975050505050505050565b60006020828403121561327157600080fd5b8151610c4f816126f7565b600060033d11156132955760046000803e5060005160e01c5b90565b600060443d10156132a65790565b6040516003193d81016004833e81513d6001600160401b0381602484011181841117156132d557505050505090565b82850191508151818111156132ed5750505050505090565b843d87010160208285010111156133075750505050505090565b61331660208286010187612740565b509095945050505050565b60208082526028908201527f455243313135353a204552433131353552656365697665722072656a656374656040820152676420746f6b656e7360c01b606082015260800190565b6001600160a01b03868116825285166020820152604081018490526060810183905260a0608082018190526000906133a390830184612860565b979650505050505050565b6000828210156133c0576133c0612e8e565b50039056fe416464726573733a206c6f772d6c6576656c2064656c65676174652063616c6c206661696c6564f5eb84615c2a00ecaf817d13794ebd6299c9e01c395bf4018453f13f577f5449a264697066735822122095b121fd021e3a3d0b10ab33eb710f57241ba69b5f00aad82298fab943de306c64736f6c63430008090033496e697469616c697a61626c653a20636f6e747261637420697320616c726561",
  "immutableReferences": {
    "897": [
      {
        "length": 32,
        "start": 2185
      },
      {
        "length": 32,
        "start": 2249
      },
      {
        "length": 32,
        "start": 2683
      },
      {
        "length": 32,
        "start": 2747
      }
    ]
  },
  "source": "// SPDX-License-Identifier: MIT\npragma solidity 0.8.9;\n\nimport \"@openzeppelin/contracts-upgradeable/token/ERC1155/ERC1155Upgradeable.sol\";\nimport \"@openzeppelin/contracts-upgradeable/access/AccessControlUpgradeable.sol\";\nimport \"@openzeppelin/contracts-upgradeable/token/ERC1155/extensions/ERC1155BurnableUpgradeable.sol\";\nimport \"@openzeppelin/contracts-upgradeable/proxy/utils/Initializable.sol\";\nimport \"@openzeppelin/contracts-upgradeable/proxy/utils/UUPSUpgradeable.sol\";\nimport \"./Meland1155Rarity.sol\";\nimport \"./MelandAccessRoles.sol\";\nimport \"./MelandTier.sol\";\n\ncontract Meland1155Wearable is\n    Initializable,\n    Meland1155Rarity,\n    MelandAccessRoles,\n    UUPSUpgradeable\n{\n    /// @custom:oz-upgrades-unsafe-allow constructor\n    constructor() initializer {}\n\n    function initialize(string memory uri) public initializer {\n        __UUPSUpgradeable_init();\n        __Meland1155Rarity_init(uri);\n        __MelandAccessRoles_init();\n    }\n\n    function setURI(string memory newuri) public onlyRole(GM_ROLE) {\n        _setURI(newuri);\n    }\n\n    function mint(\n        address account,\n        uint256 cid,\n        uint256 amount,\n        bytes memory data\n    ) public onlyRole(MINTER_ROLE) {\n        _mint(account, cid, amount, data);\n    }\n\n    function setRarity(string memory _rarity, uint256 mintMax) onlyRole(GM_ROLE) public {\n        bytes memory rarity = bytes(_rarity);\n        _setRarity(rarity, mintMax);\n    }\n\n    function setMelandTier(MelandTier _tierAddress) public onlyRole(GM_ROLE) {\n        _setMelandTier(_tierAddress);\n    }\n\n    function _authorizeUpgrade(address newImplementation)\n        internal\n        override\n        onlyRole(UPGRADER_ROLE)\n    {}\n\n    // The following functions are overrides required by Solidity.\n\n    function supportsInterface(bytes4 interfaceId)\n        public\n        view\n        override(ERC1155Upgradeable, AccessControlUpgradeable)\n        returns (bool)\n    {\n        return super.supportsInterface(interfaceId);\n    }\n}\n",
  "sourcePath": "/Users/alberthuang/code/icw/meland/contracts/Meland1155Wearable.sol",
  "compiler": {
    "name": "solc",
    "version": "0.8.9+commit.e5eed63a.Emscripten.clang"
  },
  "schemaVersion": "3.4.3",
  "updatedAt": "2021-12-19T13:18:52.260Z",
  "devdoc": {
    "kind": "dev",
    "methods": {
      "balanceOf(address,uint256)": {
        "details": "See {IERC1155-balanceOf}. Requirements: - `account` cannot be the zero address."
      },
      "balanceOfBatch(address[],uint256[])": {
        "details": "See {IERC1155-balanceOfBatch}. Requirements: - `accounts` and `ids` must have the same length."
      },
      "constructor": {
        "custom:oz-upgrades-unsafe-allow": "constructor"
      },
      "getRoleAdmin(bytes32)": {
        "details": "Returns the admin role that controls `role`. See {grantRole} and {revokeRole}. To change a role's admin, use {_setRoleAdmin}."
      },
      "grantRole(bytes32,address)": {
        "details": "Grants `role` to `account`. If `account` had not been already granted `role`, emits a {RoleGranted} event. Requirements: - the caller must have ``role``'s admin role."
      },
      "hasRole(bytes32,address)": {
        "details": "Returns `true` if `account` has been granted `role`."
      },
      "renounceRole(bytes32,address)": {
        "details": "Revokes `role` from the calling account. Roles are often managed via {grantRole} and {revokeRole}: this function's purpose is to provide a mechanism for accounts to lose their privileges if they are compromised (such as when a trusted device is misplaced). If the calling account had been revoked `role`, emits a {RoleRevoked} event. Requirements: - the caller must be `account`."
      },
      "revokeRole(bytes32,address)": {
        "details": "Revokes `role` from `account`. If `account` had been granted `role`, emits a {RoleRevoked} event. Requirements: - the caller must have ``role``'s admin role."
      },
      "safeBatchTransferFrom(address,address,uint256[],uint256[],bytes)": {
        "details": "See {IERC1155-safeBatchTransferFrom}."
      },
      "safeTransferFrom(address,address,uint256,uint256,bytes)": {
        "details": "See {IERC1155-safeTransferFrom}."
      },
      "setApprovalForAll(address,bool)": {
        "details": "See {IERC1155-setApprovalForAll}."
      },
      "upgradeTo(address)": {
        "details": "Upgrade the implementation of the proxy to `newImplementation`. Calls {_authorizeUpgrade}. Emits an {Upgraded} event."
      },
      "upgradeToAndCall(address,bytes)": {
        "details": "Upgrade the implementation of the proxy to `newImplementation`, and subsequently execute the function call encoded in `data`. Calls {_authorizeUpgrade}. Emits an {Upgraded} event."
      },
      "uri(uint256)": {
        "details": "See {IERC1155MetadataURI-uri}. This implementation returns the same URI for *all* token types. It relies on the token type ID substitution mechanism https://eips.ethereum.org/EIPS/eip-1155#metadata[defined in the EIP]. Clients calling this function must replace the `\\{id\\}` substring with the actual token type ID."
      }
    },
    "version": 1
  },
  "userdoc": {
    "kind": "user",
    "methods": {},
    "version": 1
  }
}