{
  "contractName": "MelandTier",
  "abi": [
    {
      "anonymous": false,
      "inputs": [
        {
          "indexed": false,
          "internalType": "address",
          "name": "previousAdmin",
          "type": "address"
        },
        {
          "indexed": false,
          "internalType": "address",
          "name": "newAdmin",
          "type": "address"
        }
      ],
      "name": "AdminChanged",
      "type": "event"
    },
    {
      "anonymous": false,
      "inputs": [
        {
          "indexed": true,
          "internalType": "address",
          "name": "account",
          "type": "address"
        },
        {
          "indexed": true,
          "internalType": "address",
          "name": "operator",
          "type": "address"
        },
        {
          "indexed": false,
          "internalType": "bool",
          "name": "approved",
          "type": "bool"
        }
      ],
      "name": "ApprovalForAll",
      "type": "event"
    },
    {
      "anonymous": false,
      "inputs": [
        {
          "indexed": true,
          "internalType": "address",
          "name": "beacon",
          "type": "address"
        }
      ],
      "name": "BeaconUpgraded",
      "type": "event"
    },
    {
      "anonymous": false,
      "inputs": [
        {
          "indexed": true,
          "internalType": "uint256",
          "name": "rewardId",
          "type": "uint256"
        },
        {
          "indexed": true,
          "internalType": "uint256",
          "name": "erc1155RewardId",
          "type": "uint256"
        },
        {
          "components": [
            {
              "internalType": "contract IERC1155Upgradeable",
              "name": "erc1155",
              "type": "address"
            },
            {
              "internalType": "uint256[]",
              "name": "tokenIds",
              "type": "uint256[]"
            },
            {
              "internalType": "uint256[]",
              "name": "amounts",
              "type": "uint256[]"
            }
          ],
          "indexed": false,
          "internalType": "struct MelandTierStorage.ERC1155Reward",
          "name": "erc1155reward",
          "type": "tuple"
        }
      ],
      "name": "CreateRewardERC1155",
      "type": "event"
    },
    {
      "anonymous": false,
      "inputs": [
        {
          "indexed": true,
          "internalType": "uint256",
          "name": "rewardId",
          "type": "uint256"
        },
        {
          "indexed": true,
          "internalType": "uint256",
          "name": "erc20RewardId",
          "type": "uint256"
        },
        {
          "components": [
            {
              "internalType": "contract IERC20Upgradeable",
              "name": "erc20",
              "type": "address"
            },
            {
              "internalType": "uint256",
              "name": "amount",
              "type": "uint256"
            }
          ],
          "indexed": false,
          "internalType": "struct MelandTierStorage.ERC20Reward",
          "name": "erc20reward",
          "type": "tuple"
        }
      ],
      "name": "CreateRewardERC20",
      "type": "event"
    },
    {
      "anonymous": false,
      "inputs": [
        {
          "indexed": true,
          "internalType": "uint256",
          "name": "rewardId",
          "type": "uint256"
        },
        {
          "indexed": true,
          "internalType": "uint256",
          "name": "erc721RewardId",
          "type": "uint256"
        },
        {
          "components": [
            {
              "internalType": "contract IERC721Upgradeable",
              "name": "erc721",
              "type": "address"
            },
            {
              "internalType": "uint256",
              "name": "tokenId",
              "type": "uint256"
            }
          ],
          "indexed": false,
          "internalType": "struct MelandTierStorage.ERC721Reward",
          "name": "erc721reward",
          "type": "tuple"
        }
      ],
      "name": "CreateRewardERC721",
      "type": "event"
    },
    {
      "anonymous": false,
      "inputs": [
        {
          "indexed": false,
          "internalType": "uint256[2]",
          "name": "rewardIds",
          "type": "uint256[2]"
        }
      ],
      "name": "OpenTier",
      "type": "event"
    },
    {
      "anonymous": false,
      "inputs": [
        {
          "indexed": true,
          "internalType": "uint256",
          "name": "cid",
          "type": "uint256"
        }
      ],
      "name": "RewaardPoolUpdate",
      "type": "event"
    },
    {
      "anonymous": false,
      "inputs": [
        {
          "indexed": true,
          "internalType": "bytes32",
          "name": "role",
          "type": "bytes32"
        },
        {
          "indexed": true,
          "internalType": "bytes32",
          "name": "previousAdminRole",
          "type": "bytes32"
        },
        {
          "indexed": true,
          "internalType": "bytes32",
          "name": "newAdminRole",
          "type": "bytes32"
        }
      ],
      "name": "RoleAdminChanged",
      "type": "event"
    },
    {
      "anonymous": false,
      "inputs": [
        {
          "indexed": true,
          "internalType": "bytes32",
          "name": "role",
          "type": "bytes32"
        },
        {
          "indexed": true,
          "internalType": "address",
          "name": "account",
          "type": "address"
        },
        {
          "indexed": true,
          "internalType": "address",
          "name": "sender",
          "type": "address"
        }
      ],
      "name": "RoleGranted",
      "type": "event"
    },
    {
      "anonymous": false,
      "inputs": [
        {
          "indexed": true,
          "internalType": "bytes32",
          "name": "role",
          "type": "bytes32"
        },
        {
          "indexed": true,
          "internalType": "address",
          "name": "account",
          "type": "address"
        },
        {
          "indexed": true,
          "internalType": "address",
          "name": "sender",
          "type": "address"
        }
      ],
      "name": "RoleRevoked",
      "type": "event"
    },
    {
      "anonymous": false,
      "inputs": [
        {
          "indexed": true,
          "internalType": "uint256",
          "name": "cid",
          "type": "uint256"
        }
      ],
      "name": "TierStartSale",
      "type": "event"
    },
    {
      "anonymous": false,
      "inputs": [
        {
          "indexed": true,
          "internalType": "address",
          "name": "operator",
          "type": "address"
        },
        {
          "indexed": true,
          "internalType": "address",
          "name": "from",
          "type": "address"
        },
        {
          "indexed": true,
          "internalType": "address",
          "name": "to",
          "type": "address"
        },
        {
          "indexed": false,
          "internalType": "uint256[]",
          "name": "ids",
          "type": "uint256[]"
        },
        {
          "indexed": false,
          "internalType": "uint256[]",
          "name": "values",
          "type": "uint256[]"
        }
      ],
      "name": "TransferBatch",
      "type": "event"
    },
    {
      "anonymous": false,
      "inputs": [
        {
          "indexed": true,
          "internalType": "address",
          "name": "operator",
          "type": "address"
        },
        {
          "indexed": true,
          "internalType": "address",
          "name": "from",
          "type": "address"
        },
        {
          "indexed": true,
          "internalType": "address",
          "name": "to",
          "type": "address"
        },
        {
          "indexed": false,
          "internalType": "uint256",
          "name": "id",
          "type": "uint256"
        },
        {
          "indexed": false,
          "internalType": "uint256",
          "name": "value",
          "type": "uint256"
        }
      ],
      "name": "TransferSingle",
      "type": "event"
    },
    {
      "anonymous": false,
      "inputs": [
        {
          "indexed": false,
          "internalType": "string",
          "name": "value",
          "type": "string"
        },
        {
          "indexed": true,
          "internalType": "uint256",
          "name": "id",
          "type": "uint256"
        }
      ],
      "name": "URI",
      "type": "event"
    },
    {
      "anonymous": false,
      "inputs": [
        {
          "indexed": true,
          "internalType": "address",
          "name": "implementation",
          "type": "address"
        }
      ],
      "name": "Upgraded",
      "type": "event"
    },
    {
      "inputs": [],
      "name": "DEFAULT_ADMIN_ROLE",
      "outputs": [
        {
          "internalType": "bytes32",
          "name": "",
          "type": "bytes32"
        }
      ],
      "stateMutability": "view",
      "type": "function",
      "constant": true
    },
    {
      "inputs": [],
      "name": "GM_ROLE",
      "outputs": [
        {
          "internalType": "bytes32",
          "name": "",
          "type": "bytes32"
        }
      ],
      "stateMutability": "view",
      "type": "function",
      "constant": true
    },
    {
      "inputs": [],
      "name": "MINTER_ROLE",
      "outputs": [
        {
          "internalType": "bytes32",
          "name": "",
          "type": "bytes32"
        }
      ],
      "stateMutability": "view",
      "type": "function",
      "constant": true
    },
    {
      "inputs": [],
      "name": "UPGRADER_ROLE",
      "outputs": [
        {
          "internalType": "bytes32",
          "name": "",
          "type": "bytes32"
        }
      ],
      "stateMutability": "view",
      "type": "function",
      "constant": true
    },
    {
      "inputs": [
        {
          "internalType": "uint256",
          "name": "cid",
          "type": "uint256"
        },
        {
          "components": [
            {
              "internalType": "contract IERC1155Upgradeable",
              "name": "erc1155",
              "type": "address"
            },
            {
              "internalType": "uint256[]",
              "name": "tokenIds",
              "type": "uint256[]"
            },
            {
              "internalType": "uint256[]",
              "name": "amounts",
              "type": "uint256[]"
            }
          ],
          "internalType": "struct MelandTierStorage.ERC1155Reward[]",
          "name": "erc1155rewards",
          "type": "tuple[]"
        },
        {
          "components": [
            {
              "internalType": "contract IERC721Upgradeable",
              "name": "erc721",
              "type": "address"
            },
            {
              "internalType": "uint256",
              "name": "tokenId",
              "type": "uint256"
            }
          ],
          "internalType": "struct MelandTierStorage.ERC721Reward[]",
          "name": "erc721rewards",
          "type": "tuple[]"
        },
        {
          "components": [
            {
              "internalType": "contract IERC20Upgradeable",
              "name": "erc20",
              "type": "address"
            },
            {
              "internalType": "uint256",
              "name": "amount",
              "type": "uint256"
            }
          ],
          "internalType": "struct MelandTierStorage.ERC20Reward[]",
          "name": "erc20rewards",
          "type": "tuple[]"
        }
      ],
      "name": "add100PercentReward",
      "outputs": [],
      "stateMutability": "nonpayable",
      "type": "function"
    },
    {
      "inputs": [
        {
          "internalType": "uint256",
          "name": "cid",
          "type": "uint256"
        },
        {
          "components": [
            {
              "internalType": "contract IERC1155Upgradeable",
              "name": "erc1155",
              "type": "address"
            },
            {
              "internalType": "uint256[]",
              "name": "tokenIds",
              "type": "uint256[]"
            },
            {
              "internalType": "uint256[]",
              "name": "amounts",
              "type": "uint256[]"
            }
          ],
          "internalType": "struct MelandTierStorage.ERC1155Reward[]",
          "name": "erc1155rewards",
          "type": "tuple[]"
        },
        {
          "components": [
            {
              "internalType": "contract IERC721Upgradeable",
              "name": "erc721",
              "type": "address"
            },
            {
              "internalType": "uint256",
              "name": "tokenId",
              "type": "uint256"
            }
          ],
          "internalType": "struct MelandTierStorage.ERC721Reward[]",
          "name": "erc721rewards",
          "type": "tuple[]"
        },
        {
          "components": [
            {
              "internalType": "contract IERC20Upgradeable",
              "name": "erc20",
              "type": "address"
            },
            {
              "internalType": "uint256",
              "name": "amount",
              "type": "uint256"
            }
          ],
          "internalType": "struct MelandTierStorage.ERC20Reward[]",
          "name": "erc20rewards",
          "type": "tuple[]"
        }
      ],
      "name": "addOptionReward",
      "outputs": [],
      "stateMutability": "nonpayable",
      "type": "function"
    },
    {
      "inputs": [
        {
          "internalType": "address",
          "name": "account",
          "type": "address"
        },
        {
          "internalType": "uint256",
          "name": "id",
          "type": "uint256"
        }
      ],
      "name": "balanceOf",
      "outputs": [
        {
          "internalType": "uint256",
          "name": "",
          "type": "uint256"
        }
      ],
      "stateMutability": "view",
      "type": "function",
      "constant": true
    },
    {
      "inputs": [
        {
          "internalType": "address[]",
          "name": "accounts",
          "type": "address[]"
        },
        {
          "internalType": "uint256[]",
          "name": "ids",
          "type": "uint256[]"
        }
      ],
      "name": "balanceOfBatch",
      "outputs": [
        {
          "internalType": "uint256[]",
          "name": "",
          "type": "uint256[]"
        }
      ],
      "stateMutability": "view",
      "type": "function",
      "constant": true
    },
    {
      "inputs": [
        {
          "internalType": "address",
          "name": "account",
          "type": "address"
        },
        {
          "internalType": "uint256",
          "name": "id",
          "type": "uint256"
        },
        {
          "internalType": "uint256",
          "name": "value",
          "type": "uint256"
        }
      ],
      "name": "burn",
      "outputs": [],
      "stateMutability": "nonpayable",
      "type": "function"
    },
    {
      "inputs": [
        {
          "internalType": "address",
          "name": "account",
          "type": "address"
        },
        {
          "internalType": "uint256[]",
          "name": "ids",
          "type": "uint256[]"
        },
        {
          "internalType": "uint256[]",
          "name": "values",
          "type": "uint256[]"
        }
      ],
      "name": "burnBatch",
      "outputs": [],
      "stateMutability": "nonpayable",
      "type": "function"
    },
    {
      "inputs": [
        {
          "internalType": "uint256",
          "name": "",
          "type": "uint256"
        }
      ],
      "name": "erc1155RewardById",
      "outputs": [
        {
          "internalType": "contract IERC1155Upgradeable",
          "name": "erc1155",
          "type": "address"
        }
      ],
      "stateMutability": "view",
      "type": "function",
      "constant": true
    },
    {
      "inputs": [
        {
          "internalType": "uint256",
          "name": "",
          "type": "uint256"
        }
      ],
      "name": "erc20RewardById",
      "outputs": [
        {
          "internalType": "contract IERC20Upgradeable",
          "name": "erc20",
          "type": "address"
        },
        {
          "internalType": "uint256",
          "name": "amount",
          "type": "uint256"
        }
      ],
      "stateMutability": "view",
      "type": "function",
      "constant": true
    },
    {
      "inputs": [
        {
          "internalType": "uint256",
          "name": "",
          "type": "uint256"
        }
      ],
      "name": "erc721RewardById",
      "outputs": [
        {
          "internalType": "contract IERC721Upgradeable",
          "name": "erc721",
          "type": "address"
        },
        {
          "internalType": "uint256",
          "name": "tokenId",
          "type": "uint256"
        }
      ],
      "stateMutability": "view",
      "type": "function",
      "constant": true
    },
    {
      "inputs": [
        {
          "internalType": "uint256",
          "name": "id",
          "type": "uint256"
        }
      ],
      "name": "getCidByTokenId",
      "outputs": [
        {
          "internalType": "uint256",
          "name": "",
          "type": "uint256"
        }
      ],
      "stateMutability": "view",
      "type": "function",
      "constant": true
    },
    {
      "inputs": [
        {
          "internalType": "bytes32",
          "name": "role",
          "type": "bytes32"
        }
      ],
      "name": "getRoleAdmin",
      "outputs": [
        {
          "internalType": "bytes32",
          "name": "",
          "type": "bytes32"
        }
      ],
      "stateMutability": "view",
      "type": "function",
      "constant": true
    },
    {
      "inputs": [
        {
          "internalType": "bytes32",
          "name": "role",
          "type": "bytes32"
        },
        {
          "internalType": "address",
          "name": "account",
          "type": "address"
        }
      ],
      "name": "grantRole",
      "outputs": [],
      "stateMutability": "nonpayable",
      "type": "function"
    },
    {
      "inputs": [
        {
          "internalType": "bytes32",
          "name": "role",
          "type": "bytes32"
        },
        {
          "internalType": "address",
          "name": "account",
          "type": "address"
        }
      ],
      "name": "hasRole",
      "outputs": [
        {
          "internalType": "bool",
          "name": "",
          "type": "bool"
        }
      ],
      "stateMutability": "view",
      "type": "function",
      "constant": true
    },
    {
      "inputs": [
        {
          "internalType": "address",
          "name": "",
          "type": "address"
        },
        {
          "internalType": "address",
          "name": "",
          "type": "address"
        },
        {
          "internalType": "uint256[]",
          "name": "",
          "type": "uint256[]"
        },
        {
          "internalType": "uint256[]",
          "name": "",
          "type": "uint256[]"
        },
        {
          "internalType": "bytes",
          "name": "",
          "type": "bytes"
        }
      ],
      "name": "onERC1155BatchReceived",
      "outputs": [
        {
          "internalType": "bytes4",
          "name": "",
          "type": "bytes4"
        }
      ],
      "stateMutability": "nonpayable",
      "type": "function"
    },
    {
      "inputs": [
        {
          "internalType": "address",
          "name": "",
          "type": "address"
        },
        {
          "internalType": "address",
          "name": "",
          "type": "address"
        },
        {
          "internalType": "uint256",
          "name": "",
          "type": "uint256"
        },
        {
          "internalType": "uint256",
          "name": "",
          "type": "uint256"
        },
        {
          "internalType": "bytes",
          "name": "",
          "type": "bytes"
        }
      ],
      "name": "onERC1155Received",
      "outputs": [
        {
          "internalType": "bytes4",
          "name": "",
          "type": "bytes4"
        }
      ],
      "stateMutability": "nonpayable",
      "type": "function"
    },
    {
      "inputs": [
        {
          "internalType": "bytes32",
          "name": "role",
          "type": "bytes32"
        },
        {
          "internalType": "address",
          "name": "account",
          "type": "address"
        }
      ],
      "name": "renounceRole",
      "outputs": [],
      "stateMutability": "nonpayable",
      "type": "function"
    },
    {
      "inputs": [
        {
          "internalType": "bytes32",
          "name": "role",
          "type": "bytes32"
        },
        {
          "internalType": "address",
          "name": "account",
          "type": "address"
        }
      ],
      "name": "revokeRole",
      "outputs": [],
      "stateMutability": "nonpayable",
      "type": "function"
    },
    {
      "inputs": [
        {
          "internalType": "address",
          "name": "from",
          "type": "address"
        },
        {
          "internalType": "address",
          "name": "to",
          "type": "address"
        },
        {
          "internalType": "uint256[]",
          "name": "ids",
          "type": "uint256[]"
        },
        {
          "internalType": "uint256[]",
          "name": "amounts",
          "type": "uint256[]"
        },
        {
          "internalType": "bytes",
          "name": "data",
          "type": "bytes"
        }
      ],
      "name": "safeBatchTransferFrom",
      "outputs": [],
      "stateMutability": "nonpayable",
      "type": "function"
    },
    {
      "inputs": [
        {
          "internalType": "address",
          "name": "from",
          "type": "address"
        },
        {
          "internalType": "address",
          "name": "to",
          "type": "address"
        },
        {
          "internalType": "uint256",
          "name": "id",
          "type": "uint256"
        },
        {
          "internalType": "uint256",
          "name": "amount",
          "type": "uint256"
        },
        {
          "internalType": "bytes",
          "name": "data",
          "type": "bytes"
        }
      ],
      "name": "safeTransferFrom",
      "outputs": [],
      "stateMutability": "nonpayable",
      "type": "function"
    },
    {
      "inputs": [
        {
          "internalType": "address",
          "name": "operator",
          "type": "address"
        },
        {
          "internalType": "bool",
          "name": "approved",
          "type": "bool"
        }
      ],
      "name": "setApprovalForAll",
      "outputs": [],
      "stateMutability": "nonpayable",
      "type": "function"
    },
    {
      "inputs": [
        {
          "internalType": "uint256",
          "name": "id",
          "type": "uint256"
        }
      ],
      "name": "totalSupply",
      "outputs": [
        {
          "internalType": "uint256",
          "name": "",
          "type": "uint256"
        }
      ],
      "stateMutability": "view",
      "type": "function",
      "constant": true
    },
    {
      "inputs": [
        {
          "internalType": "uint256",
          "name": "cid",
          "type": "uint256"
        }
      ],
      "name": "totalSupplyByCId",
      "outputs": [
        {
          "internalType": "uint256",
          "name": "",
          "type": "uint256"
        }
      ],
      "stateMutability": "view",
      "type": "function",
      "constant": true
    },
    {
      "inputs": [
        {
          "internalType": "address",
          "name": "newImplementation",
          "type": "address"
        }
      ],
      "name": "upgradeTo",
      "outputs": [],
      "stateMutability": "nonpayable",
      "type": "function"
    },
    {
      "inputs": [
        {
          "internalType": "address",
          "name": "newImplementation",
          "type": "address"
        },
        {
          "internalType": "bytes",
          "name": "data",
          "type": "bytes"
        }
      ],
      "name": "upgradeToAndCall",
      "outputs": [],
      "stateMutability": "payable",
      "type": "function",
      "payable": true
    },
    {
      "inputs": [
        {
          "internalType": "uint256",
          "name": "id",
          "type": "uint256"
        }
      ],
      "name": "uri",
      "outputs": [
        {
          "internalType": "string",
          "name": "",
          "type": "string"
        }
      ],
      "stateMutability": "view",
      "type": "function",
      "constant": true
    },
    {
      "inputs": [
        {
          "internalType": "string",
          "name": "uri",
          "type": "string"
        }
      ],
      "name": "initialize",
      "outputs": [],
      "stateMutability": "nonpayable",
      "type": "function"
    },
    {
      "inputs": [
        {
          "internalType": "string",
          "name": "newuri",
          "type": "string"
        }
      ],
      "name": "setURI",
      "outputs": [],
      "stateMutability": "nonpayable",
      "type": "function"
    },
    {
      "inputs": [
        {
          "internalType": "address",
          "name": "account",
          "type": "address"
        },
        {
          "internalType": "uint256",
          "name": "cid",
          "type": "uint256"
        },
        {
          "internalType": "uint256",
          "name": "amount",
          "type": "uint256"
        },
        {
          "internalType": "bytes",
          "name": "data",
          "type": "bytes"
        }
      ],
      "name": "mint",
      "outputs": [],
      "stateMutability": "nonpayable",
      "type": "function"
    },
    {
      "inputs": [
        {
          "internalType": "address",
          "name": "_owner",
          "type": "address"
        },
        {
          "internalType": "address",
          "name": "_operator",
          "type": "address"
        }
      ],
      "name": "isApprovedForAll",
      "outputs": [
        {
          "internalType": "bool",
          "name": "isOperator",
          "type": "bool"
        }
      ],
      "stateMutability": "view",
      "type": "function",
      "constant": true
    },
    {
      "inputs": [
        {
          "internalType": "uint256",
          "name": "id",
          "type": "uint256"
        }
      ],
      "name": "getAllRewardsById",
      "outputs": [
        {
          "components": [
            {
              "internalType": "contract IERC1155Upgradeable",
              "name": "erc1155",
              "type": "address"
            },
            {
              "internalType": "uint256[]",
              "name": "tokenIds",
              "type": "uint256[]"
            },
            {
              "internalType": "uint256[]",
              "name": "amounts",
              "type": "uint256[]"
            }
          ],
          "internalType": "struct MelandTierStorage.ERC1155Reward[]",
          "name": "erc1155rewards",
          "type": "tuple[]"
        },
        {
          "components": [
            {
              "internalType": "contract IERC721Upgradeable",
              "name": "erc721",
              "type": "address"
            },
            {
              "internalType": "uint256",
              "name": "tokenId",
              "type": "uint256"
            }
          ],
          "internalType": "struct MelandTierStorage.ERC721Reward[]",
          "name": "erc721rewards",
          "type": "tuple[]"
        },
        {
          "components": [
            {
              "internalType": "contract IERC20Upgradeable",
              "name": "erc20",
              "type": "address"
            },
            {
              "internalType": "uint256",
              "name": "amount",
              "type": "uint256"
            }
          ],
          "internalType": "struct MelandTierStorage.ERC20Reward[]",
          "name": "erc20rewards",
          "type": "tuple[]"
        }
      ],
      "stateMutability": "view",
      "type": "function",
      "constant": true
    },
    {
      "inputs": [
        {
          "internalType": "uint256",
          "name": "id",
          "type": "uint256"
        }
      ],
      "name": "openTier",
      "outputs": [
        {
          "internalType": "uint256[2]",
          "name": "returnRewardIds",
          "type": "uint256[2]"
        }
      ],
      "stateMutability": "nonpayable",
      "type": "function"
    },
    {
      "inputs": [
        {
          "internalType": "uint256",
          "name": "cid",
          "type": "uint256"
        }
      ],
      "name": "startSale",
      "outputs": [],
      "stateMutability": "nonpayable",
      "type": "function"
    },
    {
      "inputs": [
        {
          "internalType": "bytes4",
          "name": "interfaceId",
          "type": "bytes4"
        }
      ],
      "name": "supportsInterface",
      "outputs": [
        {
          "internalType": "bool",
          "name": "",
          "type": "bool"
        }
      ],
      "stateMutability": "view",
      "type": "function",
      "constant": true
    }
  ],
  "bytecode": "0x60a06040523060805234801561001457600080fd5b50608051614f0261004560003960008181610aa201528181610ae20152818161101501526110550152614f026000f3fe6080604052600436106102195760003560e01c8063731133e911610123578063d3186324116100ab578063f23a6e611161006f578063f23a6e6114610755578063f242432a14610781578063f5298aca146107a1578063f62d1888146107c1578063f72c0d8b146107e157600080fd5b8063d318632414610693578063d5391393146106c1578063d547741f146106f5578063e1e9646a14610715578063e985e9c51461073557600080fd5b8063a22cb465116100f2578063a22cb4651461056f578063bc197c811461058f578063bd85b039146105d4578063c14ee0aa146105f4578063d0a7917a1461065357600080fd5b8063731133e9146104cc5780637672f2b5146104ec57806391d148541461053a578063a217fddf1461055a57600080fd5b806336568abe116101a65780634e1273f4116101755780634e1273f41461041d5780634f1ef2861461044a57806357587f3f1461045d578063579460ca1461047d5780636b20c454146104ac57600080fd5b806336568abe146103825780633659cfe6146103a2578063384c6f89146103c25780633ef780bc146103ef57600080fd5b80630e89341c116101ed5780630e89341c146102c3578063248a9ca3146102f05780632eb2c2d6146103205780632f2ff15d1461034057806330c7be2c1461036057600080fd5b8062fdd58e1461021e57806301ffc9a71461025157806302fe5305146102815780630e3ab61d146102a3575b600080fd5b34801561022a57600080fd5b5061023e610239366004613b78565b610815565b6040519081526020015b60405180910390f35b34801561025d57600080fd5b5061027161026c366004613bba565b6108b1565b6040519015158152602001610248565b34801561028d57600080fd5b506102a161029c366004613cba565b6108bc565b005b3480156102af57600080fd5b506102a16102be366004613d0a565b6108e2565b3480156102cf57600080fd5b506102e36102de366004613d0a565b610904565b6040516102489190613d7b565b3480156102fc57600080fd5b5061023e61030b366004613d0a565b60009081526065602052604090206001015490565b34801561032c57600080fd5b506102a161033b366004613e42565b61095b565b34801561034c57600080fd5b506102a161035b366004613eef565b6109f2565b34801561036c57600080fd5b5061023e600080516020614ead83398151915281565b34801561038e57600080fd5b506102a161039d366004613eef565b610a1d565b3480156103ae57600080fd5b506102a16103bd366004613f1f565b610a97565b3480156103ce57600080fd5b506103e26103dd366004613d0a565b610b60565b6040516102489190613f3c565b3480156103fb57600080fd5b5061023e61040a366004613d0a565b6000908152610109602052604090205490565b34801561042957600080fd5b5061043d610438366004613f6d565b610ee1565b6040516102489190614074565b6102a1610458366004614087565b61100a565b34801561046957600080fd5b506102a161047836600461416d565b6110c0565b34801561048957600080fd5b5061049d610498366004613d0a565b611146565b6040516102489392919061437c565b3480156104b857600080fd5b506102a16104c7366004614447565b6114fa565b3480156104d857600080fd5b506102a16104e73660046144bc565b61153d565b3480156104f857600080fd5b50610522610507366004613d0a565b609d602052600090815260409020546001600160a01b031681565b6040516001600160a01b039091168152602001610248565b34801561054657600080fd5b50610271610555366004613eef565b611574565b34801561056657600080fd5b5061023e600081565b34801561057b57600080fd5b506102a161058a366004614520565b61159f565b34801561059b57600080fd5b506105bb6105aa366004613e42565b63bc197c8160e01b95945050505050565b6040516001600160e01b03199091168152602001610248565b3480156105e057600080fd5b5061023e6105ef366004613d0a565b6115aa565b34801561060057600080fd5b5061063461060f366004613d0a565b609c60205260009081526040902080546001909101546001600160a01b039091169082565b604080516001600160a01b039093168352602083019190915201610248565b34801561065f57600080fd5b5061063461066e366004613d0a565b609b60205260009081526040902080546001909101546001600160a01b039091169082565b34801561069f57600080fd5b5061023e6106ae366004613d0a565b600090815261010a602052604090205490565b3480156106cd57600080fd5b5061023e7f9f2df0fed2c77648de5860a4cc508cd0818c85b8b8a1ab4ceeef8d981c8956a681565b34801561070157600080fd5b506102a1610710366004613eef565b6115de565b34801561072157600080fd5b506102a161073036600461416d565b611604565b34801561074157600080fd5b5061027161075036600461454e565b611649565b34801561076157600080fd5b506105bb61077036600461457c565b63f23a6e6160e01b95945050505050565b34801561078d57600080fd5b506102a161079c36600461457c565b6116a9565b3480156107ad57600080fd5b506102a16107bc3660046145e4565b6116ee565b3480156107cd57600080fd5b506102a16107dc366004613cba565b611731565b3480156107ed57600080fd5b5061023e7f189ab7a9244df0848122154315af71fe140f3db0fe014031783b0946b8c9d2e381565b60006001600160a01b0383166108865760405162461bcd60e51b815260206004820152602b60248201527f455243313135353a2062616c616e636520717565727920666f7220746865207a60448201526a65726f206164647265737360a81b60648201526084015b60405180910390fd5b50600081815260a4602090815260408083206001600160a01b03861684529091529020545b92915050565b60006108ab826117b6565b600080516020614ead8339815191526108d581336117db565b6108de8261183f565b5050565b600080516020614ead8339815191526108fb81336117db565b6108de82611852565b60008181526101096020526040902054606090610920836118f7565b6109298261198b565b6109328561198b565b60405160200161094493929190614619565b604051602081830303815290604052915050919050565b6001600160a01b03851633148061097757506109778533611649565b6109de5760405162461bcd60e51b815260206004820152603260248201527f455243313135353a207472616e736665722063616c6c6572206973206e6f74206044820152711bdddb995c881b9bdc88185c1c1c9bdd995960721b606482015260840161087d565b6109eb8585858585611ab3565b5050505050565b600082815260656020526040902060010154610a0e81336117db565b610a188383611c60565b505050565b6001600160a01b0381163314610a8d5760405162461bcd60e51b815260206004820152602f60248201527f416363657373436f6e74726f6c3a2063616e206f6e6c792072656e6f756e636560448201526e103937b632b9903337b91039b2b63360891b606482015260840161087d565b6108de8282611ce6565b306001600160a01b037f0000000000000000000000000000000000000000000000000000000000000000161415610ae05760405162461bcd60e51b815260040161087d90614673565b7f00000000000000000000000000000000000000000000000000000000000000006001600160a01b0316610b12611d4d565b6001600160a01b031614610b385760405162461bcd60e51b815260040161087d906146bf565b610b4181611d7b565b60408051600080825260208201909252610b5d91839190611da6565b50565b610b68613a32565b6000610b743384610815565b11610bb85760405162461bcd60e51b8152602060048201526014602482015273496e73756666696369656e742062616c616e636560601b604482015260640161087d565b60008281526101096020908152604080832054808452609f835281842060a190935292208154610c1a5760405162461bcd60e51b815260206004820152600d60248201526c1cde5cdd195b4819985a5b1959609a1b604482015260640161087d565b81546040805160208084028201810190925282815260009291610c75919086908490830182828015610c6b57602002820191906000526020600020905b815481526020019060010190808311610c57575b5050505050611eea565b610c7f9190614721565b90506000838281548110610c9557610c95614735565b6000918252602090912001548087529050610cb1335b82611f1f565b8354600090610cc290600190614761565b90506000858281548110610cd857610cd8614735565b9060005260206000200154905080868581548110610cf857610cf8614735565b906000526020600020018190555085805480610d1657610d16614778565b6001900381819060005260206000200160009055905585609f6000898152602001908152602001600020908054610d4e929190613a50565b50845415610e925784546040805160208084028201810190925282815260009291610daf919089908490830182828015610c6b5760200282019190600052602060002090815481526020019060010190808311610c57575050505050611eea565b610db99190614721565b90506000868281548110610dcf57610dcf614735565b6000918252602090912001549050808a60016020020152610def33610cab565b8654600090610e0090600190614761565b90506000888281548110610e1657610e16614735565b9060005260206000200154905080898581548110610e3657610e36614735565b906000526020600020018190555088805480610e5457610e54614778565b600190038181906000526020600020016000905590558860a160008d8152602001908152602001600020908054610e8c929190613a50565b50505050505b610e9e338a60016116ee565b7f498355353f371df5e52b50a07117819f49e32a0428e5b620a67001e7060cab2f88604051610ecd9190613f3c565b60405180910390a150505050505050919050565b60608151835114610f465760405162461bcd60e51b815260206004820152602960248201527f455243313135353a206163636f756e747320616e6420696473206c656e677468604482015268040dad2e6dac2e8c6d60bb1b606482015260840161087d565b600083516001600160401b03811115610f6157610f61613bd7565b604051908082528060200260200182016040528015610f8a578160200160208202803683370190505b50905060005b845181101561100257610fd5858281518110610fae57610fae614735565b6020026020010151858381518110610fc857610fc8614735565b6020026020010151610815565b828281518110610fe757610fe7614735565b6020908102919091010152610ffb8161478e565b9050610f90565b509392505050565b306001600160a01b037f00000000000000000000000000000000000000000000000000000000000000001614156110535760405162461bcd60e51b815260040161087d90614673565b7f00000000000000000000000000000000000000000000000000000000000000006001600160a01b0316611085611d4d565b6001600160a01b0316146110ab5760405162461bcd60e51b815260040161087d906146bf565b6110b482611d7b565b6108de82826001611da6565b600084815260a06020526040902054156110ec5760405162461bcd60e51b815260040161087d906147a9565b600084815260a16020526040902061110584848461222f565b8154600181018355600092835260208320015560405185917fe4b7e0bb3edd3119b8854a52d62b18a5a44ba6827d49ea293a7f44c7b43dc26191a250505050565b6000818152609e60209081526040808320815181546080948102820185019093526060818101848152909586958695919492849290918491908401828280156111ae57602002820191906000526020600020905b81548152602001906001019080831161119a575b505050505081526020016001820180548060200260200160405190810160405280929190818152602001828054801561120657602002820191906000526020600020905b8154815260200190600101908083116111f2575b505050505081526020016002820180548060200260200160405190810160405280929190818152602001828054801561125e57602002820191906000526020600020905b81548152602001906001019080831161124a575b505050505081525050905060005b81515160ff821610156113ab57609d600083600001518360ff168151811061129657611296614735565b6020908102919091018101518252818101929092526040908101600020815160608101835281546001600160a01b03168152600182018054845181870281018701909552808552919492938584019390929083018282801561131757602002820191906000526020600020905b815481526020019060010190808311611303575b505050505081526020016002820180548060200260200160405190810160405280929190818152602001828054801561136f57602002820191906000526020600020905b81548152602001906001019080831161135b575b505050505081525050858260ff168151811061138d5761138d614735565b602002602001018190525080806113a39061481a565b91505061126c565b5060005b8160200151518160ff16101561144e57609b600083602001518360ff16815181106113dc576113dc614735565b6020908102919091018101518252818101929092526040908101600020815180830190925280546001600160a01b0316825260010154918101919091528451859060ff841690811061143057611430614735565b602002602001018190525080806114469061481a565b9150506113af565b5060005b8160400151518160ff1610156114f157609c600083604001518360ff168151811061147f5761147f614735565b6020908102919091018101518252818101929092526040908101600020815180830190925280546001600160a01b0316825260010154918101919091528351849060ff84169081106114d3576114d3614735565b602002602001018190525080806114e99061481a565b915050611452565b50509193909250565b6001600160a01b03831633148061151657506115168333611649565b6115325760405162461bcd60e51b815260040161087d9061483a565b610a1883838361282c565b7f9f2df0fed2c77648de5860a4cc508cd0818c85b8b8a1ab4ceeef8d981c8956a661156881336117db565b6109eb858585856129bd565b60009182526065602090815260408084206001600160a01b0393909316845291905290205460ff1690565b6108de338383612a4f565b60008181526101096020526040812054806115c85750600092915050565b600090815261010a602052604090205492915050565b6000828152606560205260409020600101546115fa81336117db565b610a188383611ce6565b600084815260a06020526040902054156116305760405162461bcd60e51b815260040161087d906147a9565b6000848152609f6020526040902061110584848461222f565b60006001600160a01b03821673207fa8df3a17d96ca7ea4f2893fcdcb78a3041011415611678575060016108ab565b6001600160a01b03808416600090815260a5602090815260408083209386168352929052205460ff165b9392505050565b6001600160a01b0385163314806116c557506116c58533611649565b6116e15760405162461bcd60e51b815260040161087d9061483a565b6109eb8585858585612b30565b6001600160a01b03831633148061170a575061170a8333611649565b6117265760405162461bcd60e51b815260040161087d9061483a565b610a18838383612c60565b600054610100900460ff168061174a575060005460ff16155b6117665760405162461bcd60e51b815260040161087d90614883565b600054610100900460ff16158015611788576000805461ffff19166101011790555b611790612d65565b61179982612de0565b6117a1612e48565b80156108de576000805461ff00191690555050565b60006001600160e01b03198216630271189760e51b14806108ab57506108ab82612ec9565b6117e58282611574565b6108de576117fd816001600160a01b03166014612f09565b611808836020612f09565b6040516020016118199291906148d1565b60408051601f198184030181529082905262461bcd60e51b825261087d91600401613d7b565b80516108de9060a6906020840190613aa0565b6000818152609f602052604090205461187d5760405162461bcd60e51b815260040161087d90614946565b6000818152609f6020908152604080832060a090925290912081546118a29290613a50565b50600081815260a16020908152604080832060a290925290912081546118c89290613a50565b5060405181907ff41f6e5c1ea27387c8494610493f43af7f9f1c4e57b83aaafb57193d9a28ad1490600090a250565b606060a6805461190690614995565b80601f016020809104026020016040519081016040528092919081815260200182805461193290614995565b801561197f5780601f106119545761010080835404028352916020019161197f565b820191906000526020600020905b81548152906001019060200180831161196257829003601f168201915b50505050509050919050565b6060816119af5750506040805180820190915260018152600360fc1b602082015290565b8160005b81156119d957806119c38161478e565b91506119d29050600a836149d0565b91506119b3565b6000816001600160401b038111156119f3576119f3613bd7565b6040519080825280601f01601f191660200182016040528015611a1d576020820181803683370190505b509050815b8515611aaa57611a33600182614761565b90506000611a42600a886149d0565b611a4d90600a6149e4565b611a579088614761565b611a62906030614a03565b905060008160f81b905080848481518110611a7f57611a7f614735565b60200101906001600160f81b031916908160001a905350611aa1600a896149d0565b97505050611a22565b50949350505050565b8151835114611ad45760405162461bcd60e51b815260040161087d90614a28565b6001600160a01b038416611afa5760405162461bcd60e51b815260040161087d90614a70565b33611b098187878787876130a4565b60005b8451811015611bf2576000858281518110611b2957611b29614735565b602002602001015190506000858381518110611b4757611b47614735565b602090810291909101810151600084815260a4835260408082206001600160a01b038e168352909352919091205490915081811015611b985760405162461bcd60e51b815260040161087d90614ab5565b600083815260a4602090815260408083206001600160a01b038e8116855292528083208585039055908b16825281208054849290611bd7908490614aff565b9250508190555050505080611beb9061478e565b9050611b0c565b50846001600160a01b0316866001600160a01b0316826001600160a01b03167f4a39dc06d4c0dbc64b70af90fd698a233a518aa5d07e595d983b8c0526c8f7fb8787604051611c42929190614b17565b60405180910390a4611c58818787878787613102565b505050505050565b611c6a8282611574565b6108de5760008281526065602090815260408083206001600160a01b03851684529091529020805460ff19166001179055611ca23390565b6001600160a01b0316816001600160a01b0316837f2f8788117e7eff1d82e926ec794901d17c78024a50270940304540a733656f0d60405160405180910390a45050565b611cf08282611574565b156108de5760008281526065602090815260408083206001600160a01b0385168085529252808320805460ff1916905551339285917ff6391f5c32d9c69d2a47ea670b442974b53935d1edc7fd64eb21e047a839171b9190a45050565b7f360894a13ba1a3210667c828492db98dca3e2076cc3735a920a3ca505d382bbc546001600160a01b031690565b7f189ab7a9244df0848122154315af71fe140f3db0fe014031783b0946b8c9d2e36108de81336117db565b6000611db0611d4d565b9050611dbb8461326d565b600083511180611dc85750815b15611dd957611dd78484613312565b505b7f4910fdfa16fed3260ed0e7147f7cc6da11a60208b5b9406d12a635614ffd9143805460ff166109eb57805460ff191660011781556040516001600160a01b0383166024820152611e5890869060440160408051601f198184030181529190526020810180516001600160e01b0316631b2ce7f360e11b179052613312565b50805460ff19168155611e69611d4d565b6001600160a01b0316826001600160a01b031614611ee15760405162461bcd60e51b815260206004820152602f60248201527f45524331393637557067726164653a207570677261646520627265616b73206660448201526e75727468657220757067726164657360881b606482015260840161087d565b6109eb856133fd565b6000444283604051602001611f0193929190614b3c565b60408051601f19818403018152919052805160209091012092915050565b600081815260a3602052604090205460ff1615611f8d5760405162461bcd60e51b815260206004820152602660248201527f5468652061776172642068617320616c7265616479206265656e207472616e7360448201526519995c9c995960d21b606482015260840161087d565b600081815260a360209081526040808320805460ff19166001179055609e90915290208054156121435760005b8154811015612141576000826000018281548110611fda57611fda614735565b6000918252602080832090910154808352609d82526040808420815160608101835281546001600160a01b0316815260018201805484518188028101880190955280855294975090949193858301939283018282801561205957602002820191906000526020600020905b815481526020019060010190808311612045575b50505050508152602001600282018054806020026020016040519081016040528092919081815260200182805480156120b157602002820191906000526020600020905b81548152602001906001019080831161209d575b505050505081525050905080600001516001600160a01b0316632eb2c2d63088846020015185604001516040518563ffffffff1660e01b81526004016120fa9493929190614b7e565b600060405180830381600087803b15801561211457600080fd5b505af1158015612128573d6000803e3d6000fd5b50505050505080806121399061478e565b915050611fba565b505b600181015415610a185760005b600182015481101561222957600082600101828154811061217357612173614735565b600091825260208083209190910154808352609b82526040928390208351808501855281546001600160a01b0390811680835260019093015494820185905294516323b872dd60e01b8152306004820152948a166024860152604485019390935290935090916323b872dd90606401600060405180830381600087803b1580156121fc57600080fd5b505af1158015612210573d6000803e3d6000fd5b50505050505080806122219061478e565b915050612150565b50505050565b600061223f609780546001019055565b6097549050600084516001600160401b0381111561225f5761225f613bd7565b604051908082528060200260200182016040528015612288578160200160208202803683370190505b509050600084516001600160401b038111156122a6576122a6613bd7565b6040519080825280602002602001820160405280156122cf578160200160208202803683370190505b509050600086516001600160401b038111156122ed576122ed613bd7565b604051908082528060200260200182016040528015612316578160200160208202803683370190505b50905060005b87518160ff1610156124aa576000888260ff168151811061233f5761233f614735565b60200260200101519050612357609880546001019055565b600061236260985490565b6000818152609d60209081526040909120845181546001600160a01b0319166001600160a01b03909116178155848201518051939450859391926123ae92600185019290910190613b14565b50604082015180516123ca916002840191602090910190613b14565b5090505080868460ff16815181106123e4576123e4614735565b602090810291909101015281516001600160a01b0316632eb2c2d63330856020015186604001516040518563ffffffff1660e01b815260040161242a9493929190614b7e565b600060405180830381600087803b15801561244457600080fd5b505af1158015612458573d6000803e3d6000fd5b5050505080877f10b61b06ff573bc563e8dd478c7b5a9f163bad1ce17041c506c774e6d67627d58460405161248d9190614bd9565b60405180910390a3505080806124a29061481a565b91505061231c565b5060005b86518160ff16101561261a576000878260ff16815181106124d1576124d1614735565b602002602001015190506124e9609980546001019055565b60006124f460995490565b6000818152609b60209081526040909120845181546001600160a01b0319166001600160a01b039091161781559084015160019091015585519091508190869060ff861690811061254757612547614735565b602090810291909101015281516001600160a01b03166323b872dd3360208501516040516001600160e01b031960e085901b1681526001600160a01b0390921660048301523060248301526044820152606401600060405180830381600087803b1580156125b457600080fd5b505af11580156125c8573d6000803e3d6000fd5b5050505080877ff7796afa4fae4049e99e7c3b826d5c94d6f1c1717d528cce17c7e284ed539ee3846040516125fd9190614bec565b60405180910390a3505080806126129061481a565b9150506124ae565b5060005b85518160ff1610156127ab576000868260ff168151811061264157612641614735565b60200260200101519050612659609a80546001019055565b6000612664609a5490565b6000818152609c60209081526040909120845181546001600160a01b0319166001600160a01b039091161781559084015160019091015584519091508190859060ff86169081106126b7576126b7614735565b602090810291909101015281516001600160a01b03166323b872dd3360208501516040516001600160e01b031960e085901b1681526001600160a01b0390921660048301523060248301526044820152606401602060405180830381600087803b15801561272457600080fd5b505af1158015612738573d6000803e3d6000fd5b505050506040513d601f19601f8201168201806040525081019061275c9190614c0c565b5080877f62022dd3f80bb6fbb4339aa53350292b79fceaa76793933e98b908b0a18cab8c8460405161278e9190614bec565b60405180910390a3505080806127a39061481a565b91505061261e565b506040805160608101825284815260208082018590528183018490526000878152609e82529290922081518051929391926127e99284920190613b14565b5060208281015180516128029260018501920190613b14565b506040820151805161281e916002840191602090910190613b14565b509050505050509392505050565b6001600160a01b0383166128525760405162461bcd60e51b815260040161087d90614c29565b80518251146128735760405162461bcd60e51b815260040161087d90614a28565b6000339050612896818560008686604051806020016040528060008152506130a4565b60005b835181101561295e5760008482815181106128b6576128b6614735565b6020026020010151905060008483815181106128d4576128d4614735565b602090810291909101810151600084815260a4835260408082206001600160a01b038c1683529093529190912054909150818110156129255760405162461bcd60e51b815260040161087d90614c6c565b600092835260a4602090815260408085206001600160a01b038b16865290915290922091039055806129568161478e565b915050612899565b5060006001600160a01b0316846001600160a01b0316826001600160a01b03167f4a39dc06d4c0dbc64b70af90fd698a233a518aa5d07e595d983b8c0526c8f7fb86866040516129af929190614b17565b60405180910390a450505050565b60008211612a175760405162461bcd60e51b815260206004820152602160248201527f54686520616d6f756e74206d7573742062652067726561746572207468616e206044820152600360fc1b606482015260840161087d565b60005b828110156109eb576000612a2d8561343d565b9050612a3c8682600186613472565b5080612a478161478e565b915050612a1a565b816001600160a01b0316836001600160a01b03161415612ac35760405162461bcd60e51b815260206004820152602960248201527f455243313135353a2073657474696e6720617070726f76616c20737461747573604482015268103337b91039b2b63360b91b606482015260840161087d565b6001600160a01b03838116600081815260a56020908152604080832094871680845294825291829020805460ff191686151590811790915591519182527f17307eab39ab6107e8899845ad3d59bd9653f200f220920489ca2b5937696c31910160405180910390a3505050565b6001600160a01b038416612b565760405162461bcd60e51b815260040161087d90614a70565b33612b75818787612b6688613575565b612b6f88613575565b876130a4565b600084815260a4602090815260408083206001600160a01b038a16845290915290205483811015612bb85760405162461bcd60e51b815260040161087d90614ab5565b600085815260a4602090815260408083206001600160a01b038b8116855292528083208785039055908816825281208054869290612bf7908490614aff565b909155505060408051868152602081018690526001600160a01b03808916928a821692918616917fc3d58168c5ae7397731d063d5bbf3d657854427343f4c083240f7aacaa2d0f62910160405180910390a4612c578288888888886135c0565b50505050505050565b6001600160a01b038316612c865760405162461bcd60e51b815260040161087d90614c29565b33612cb581856000612c9787613575565b612ca087613575565b604051806020016040528060008152506130a4565b600083815260a4602090815260408083206001600160a01b038816845290915290205482811015612cf85760405162461bcd60e51b815260040161087d90614c6c565b600084815260a4602090815260408083206001600160a01b03898116808652918452828520888703905582518981529384018890529092908616917fc3d58168c5ae7397731d063d5bbf3d657854427343f4c083240f7aacaa2d0f62910160405180910390a45050505050565b600054610100900460ff1680612d7e575060005460ff16155b612d9a5760405162461bcd60e51b815260040161087d90614883565b600054610100900460ff16158015612dbc576000805461ffff19166101011790555b612dc461368a565b612dcc61368a565b8015610b5d576000805461ff001916905550565b600054610100900460ff1680612df9575060005460ff16155b612e155760405162461bcd60e51b815260040161087d90614883565b600054610100900460ff16158015612e37576000805461ffff19166101011790555b612e40826136f4565b6117a1613764565b612e50613764565b612e5b600033611c60565b612e73600080516020614ead83398151915233611c60565b612e9d7f9f2df0fed2c77648de5860a4cc508cd0818c85b8b8a1ab4ceeef8d981c8956a633611c60565b612ec77f189ab7a9244df0848122154315af71fe140f3db0fe014031783b0946b8c9d2e333611c60565b565b60006001600160e01b03198216636cdb3d1360e11b1480612efa57506001600160e01b031982166303a24d0760e21b145b806108ab57506108ab826137c3565b60606000612f188360026149e4565b612f23906002614aff565b6001600160401b03811115612f3a57612f3a613bd7565b6040519080825280601f01601f191660200182016040528015612f64576020820181803683370190505b509050600360fc1b81600081518110612f7f57612f7f614735565b60200101906001600160f81b031916908160001a905350600f60fb1b81600181518110612fae57612fae614735565b60200101906001600160f81b031916908160001a9053506000612fd28460026149e4565b612fdd906001614aff565b90505b6001811115613055576f181899199a1a9b1b9c1cb0b131b232b360811b85600f166010811061301157613011614735565b1a60f81b82828151811061302757613027614735565b60200101906001600160f81b031916908160001a90535060049490941c9361304e81614cb0565b9050612fe0565b5083156116a25760405162461bcd60e51b815260206004820181905260248201527f537472696e67733a20686578206c656e67746820696e73756666696369656e74604482015260640161087d565b6001600160a01b0385166130f45760005b83518110156130f2576130e08482815181106130d3576130d3614735565b60200260200101516137f8565b806130ea8161478e565b9150506130b5565b505b611c5886868686868661389c565b6001600160a01b0384163b15611c585760405163bc197c8160e01b81526001600160a01b0385169063bc197c81906131469089908990889088908890600401614cc7565b602060405180830381600087803b15801561316057600080fd5b505af1925050508015613190575060408051601f3d908101601f1916820190925261318d91810190614d25565b60015b61323d5761319c614d42565b806308c379a014156131d657506131b1614d5e565b806131bc57506131d8565b8060405162461bcd60e51b815260040161087d9190613d7b565b505b60405162461bcd60e51b815260206004820152603460248201527f455243313135353a207472616e7366657220746f206e6f6e20455243313135356044820152732932b1b2b4bb32b91034b6b83632b6b2b73a32b960611b606482015260840161087d565b6001600160e01b0319811663bc197c8160e01b14612c575760405162461bcd60e51b815260040161087d90614de7565b803b6132d15760405162461bcd60e51b815260206004820152602d60248201527f455243313936373a206e657720696d706c656d656e746174696f6e206973206e60448201526c1bdd08184818dbdb9d1c9858dd609a1b606482015260840161087d565b7f360894a13ba1a3210667c828492db98dca3e2076cc3735a920a3ca505d382bbc80546001600160a01b0319166001600160a01b0392909216919091179055565b6060823b6133715760405162461bcd60e51b815260206004820152602660248201527f416464726573733a2064656c65676174652063616c6c20746f206e6f6e2d636f6044820152651b9d1c9858dd60d21b606482015260840161087d565b600080846001600160a01b03168460405161338c9190614e2f565b600060405180830381855af49150503d80600081146133c7576040519150601f19603f3d011682016040523d82523d6000602084013e6133cc565b606091505b50915091506133f48282604051806060016040528060278152602001614e8660279139613999565b95945050505050565b6134068161326d565b6040516001600160a01b038216907fbc7cd75a20ee27fd9adebab32041f755214dbc6bffa90cc0225b39da2e5c2d3b90600090a250565b60008061344a6101085490565b905061345b61010880546001019055565b600081815261010960205260409020929092555090565b6001600160a01b0384166134d25760405162461bcd60e51b815260206004820152602160248201527f455243313135353a206d696e7420746f20746865207a65726f206164647265736044820152607360f81b606482015260840161087d565b336134e381600087612b6688613575565b600084815260a4602090815260408083206001600160a01b038916845290915281208054859290613515908490614aff565b909155505060408051858152602081018590526001600160a01b0380881692600092918516917fc3d58168c5ae7397731d063d5bbf3d657854427343f4c083240f7aacaa2d0f62910160405180910390a46109eb816000878787876135c0565b604080516001808252818301909252606091600091906020808301908036833701905050905082816000815181106135af576135af614735565b602090810291909101015292915050565b6001600160a01b0384163b15611c585760405163f23a6e6160e01b81526001600160a01b0385169063f23a6e61906136049089908990889088908890600401614e4b565b602060405180830381600087803b15801561361e57600080fd5b505af192505050801561364e575060408051601f3d908101601f1916820190925261364b91810190614d25565b60015b61365a5761319c614d42565b6001600160e01b0319811663f23a6e6160e01b14612c575760405162461bcd60e51b815260040161087d90614de7565b600054610100900460ff16806136a3575060005460ff16155b6136bf5760405162461bcd60e51b815260040161087d90614883565b600054610100900460ff16158015612dcc576000805461ffff19166101011790558015610b5d576000805461ff001916905550565b600054610100900460ff168061370d575060005460ff16155b6137295760405162461bcd60e51b815260040161087d90614883565b600054610100900460ff1615801561374b576000805461ffff19166101011790555b61375361368a565b61375b61368a565b6117a1826139d2565b600054610100900460ff168061377d575060005460ff16155b6137995760405162461bcd60e51b815260040161087d90614883565b600054610100900460ff161580156137bb576000805461ffff19166101011790555b612dbc61368a565b60006001600160e01b03198216637965db0b60e01b14806108ab57506301ffc9a760e01b6001600160e01b03198316146108ab565b60008181526101096020526040812054600081815260a060205260409020549091506138365760405162461bcd60e51b815260040161087d90614946565b61383f826115aa565b600082815260a0602052604090205410156108de5760405162461bcd60e51b815260206004820152601960248201527f496e73756666696369656e7420726577617264206974656d7300000000000000604482015260640161087d565b6001600160a01b0385166139295760005b83518110156139275760006138e88583815181106138cd576138cd614735565b60200260200101516000908152610109602052604090205490565b9050600161010a6000838152602001908152602001600020600082825461390f9190614aff565b90915550613920915082905061478e565b90506138ad565b505b6001600160a01b038416611c585760005b8351811015612c5757600061395a8583815181106138cd576138cd614735565b9050600161010a600083815260200190815260200160002060008282546139819190614761565b90915550613992915082905061478e565b905061393a565b606083156139a85750816116a2565b8251156139b85782518084602001fd5b8160405162461bcd60e51b815260040161087d9190613d7b565b600054610100900460ff16806139eb575060005460ff16155b613a075760405162461bcd60e51b815260040161087d90614883565b600054610100900460ff16158015613a29576000805461ffff19166101011790555b6117a18261183f565b60405180604001604052806002906020820280368337509192915050565b828054828255906000526020600020908101928215613a905760005260206000209182015b82811115613a90578254825591600101919060010190613a75565b50613a9c929150613b4e565b5090565b828054613aac90614995565b90600052602060002090601f016020900481019282613ace5760008555613a90565b82601f10613ae757805160ff1916838001178555613a90565b82800160010185558215613a90579182015b82811115613a90578251825591602001919060010190613af9565b828054828255906000526020600020908101928215613a905791602002820182811115613a90578251825591602001919060010190613af9565b5b80821115613a9c5760008155600101613b4f565b6001600160a01b0381168114610b5d57600080fd5b60008060408385031215613b8b57600080fd5b8235613b9681613b63565b946020939093013593505050565b6001600160e01b031981168114610b5d57600080fd5b600060208284031215613bcc57600080fd5b81356116a281613ba4565b634e487b7160e01b600052604160045260246000fd5b604081018181106001600160401b0382111715613c0c57613c0c613bd7565b60405250565b606081018181106001600160401b0382111715613c0c57613c0c613bd7565b601f8201601f191681016001600160401b0381118282101715613c5657613c56613bd7565b6040525050565b60006001600160401b03831115613c7657613c76613bd7565b604051613c8d601f8501601f191660200182613c31565b809150838152848484011115613ca257600080fd5b83836020830137600060208583010152509392505050565b600060208284031215613ccc57600080fd5b81356001600160401b03811115613ce257600080fd5b8201601f81018413613cf357600080fd5b613d0284823560208401613c5d565b949350505050565b600060208284031215613d1c57600080fd5b5035919050565b60005b83811015613d3e578181015183820152602001613d26565b838111156122295750506000910152565b60008151808452613d67816020860160208601613d23565b601f01601f19169290920160200192915050565b6020815260006116a26020830184613d4f565b60006001600160401b03821115613da757613da7613bd7565b5060051b60200190565b600082601f830112613dc257600080fd5b81356020613dcf82613d8e565b604051613ddc8282613c31565b83815260059390931b8501820192828101915086841115613dfc57600080fd5b8286015b84811015613e175780358352918301918301613e00565b509695505050505050565b600082601f830112613e3357600080fd5b6116a283833560208501613c5d565b600080600080600060a08688031215613e5a57600080fd5b8535613e6581613b63565b94506020860135613e7581613b63565b935060408601356001600160401b0380821115613e9157600080fd5b613e9d89838a01613db1565b94506060880135915080821115613eb357600080fd5b613ebf89838a01613db1565b93506080880135915080821115613ed557600080fd5b50613ee288828901613e22565b9150509295509295909350565b60008060408385031215613f0257600080fd5b823591506020830135613f1481613b63565b809150509250929050565b600060208284031215613f3157600080fd5b81356116a281613b63565b60408101818360005b6002811015613f64578151835260209283019290910190600101613f45565b50505092915050565b60008060408385031215613f8057600080fd5b82356001600160401b0380821115613f9757600080fd5b818501915085601f830112613fab57600080fd5b81356020613fb882613d8e565b604051613fc58282613c31565b83815260059390931b8501820192828101915089841115613fe557600080fd5b948201945b8386101561400c578535613ffd81613b63565b82529482019490820190613fea565b9650508601359250508082111561402257600080fd5b5061402f85828601613db1565b9150509250929050565b600081518084526020808501945080840160005b838110156140695781518752958201959082019060010161404d565b509495945050505050565b6020815260006116a26020830184614039565b6000806040838503121561409a57600080fd5b82356140a581613b63565b915060208301356001600160401b038111156140c057600080fd5b61402f85828601613e22565b600082601f8301126140dd57600080fd5b813560206140ea82613d8e565b604080516140f88382613c31565b84815260069490941b860183019383810192508785111561411857600080fd5b8387015b858110156141615782818a0312156141345760008081fd5b825161413f81613bed565b813561414a81613b63565b81528186013586820152845292840192820161411c565b50979650505050505050565b6000806000806080858703121561418357600080fd5b8435935060208501356001600160401b03808211156141a157600080fd5b818701915087601f8301126141b557600080fd5b6141bf8235613d8e565b6040516141cc8282613c31565b83358082526020808301935060059190911b8501018a8111156141ee57600080fd5b602085015b8181101561429a57848135111561420957600080fd5b803586016060818e03601f1901121561422157600080fd5b60405161422d81613c12565b602082013561423b81613b63565b815260408201358781111561424f57600080fd5b61425e8f602083860101613db1565b60208301525060608201358781111561427657600080fd5b6142858f602083860101613db1565b604083015250855250602093840193016141f3565b50909650505060408701359150808211156142b457600080fd5b6142c0888389016140cc565b935060608701359150808211156142d657600080fd5b506142e3878288016140cc565b91505092959194509250565b60018060a01b03815116825260006020820151606060208501526143166060850182614039565b9050604083015184820360408601526133f48282614039565b600081518084526020808501945080840160005b838110156140695761436987835180516001600160a01b03168252602090810151910152565b6040969096019590820190600101614343565b6000606082016060835280865180835260808501915060808160051b8601019250602080890160005b838110156143d357607f198887030185526143c18683516142ef565b955093820193908201906001016143a5565b50508584038187015287518085528882019482019350915060005b828110156144275761441484865180516001600160a01b03168252602090810151910152565b93810193604093909301926001016143ee565b505050838103604085015261443c818661432f565b979650505050505050565b60008060006060848603121561445c57600080fd5b833561446781613b63565b925060208401356001600160401b038082111561448357600080fd5b61448f87838801613db1565b935060408601359150808211156144a557600080fd5b506144b286828701613db1565b9150509250925092565b600080600080608085870312156144d257600080fd5b84356144dd81613b63565b9350602085013592506040850135915060608501356001600160401b0381111561450657600080fd5b6142e387828801613e22565b8015158114610b5d57600080fd5b6000806040838503121561453357600080fd5b823561453e81613b63565b91506020830135613f1481614512565b6000806040838503121561456157600080fd5b823561456c81613b63565b91506020830135613f1481613b63565b600080600080600060a0868803121561459457600080fd5b853561459f81613b63565b945060208601356145af81613b63565b9350604086013592506060860135915060808601356001600160401b038111156145d857600080fd5b613ee288828901613e22565b6000806000606084860312156145f957600080fd5b833561460481613b63565b95602085013595506040909401359392505050565b6000845161462b818460208901613d23565b8083019050602f60f81b808252855161464b816001850160208a01613d23565b60019201918201528351614666816002840160208801613d23565b0160020195945050505050565b6020808252602c908201527f46756e6374696f6e206d7573742062652063616c6c6564207468726f7567682060408201526b19195b1959d85d1958d85b1b60a21b606082015260800190565b6020808252602c908201527f46756e6374696f6e206d7573742062652063616c6c6564207468726f7567682060408201526b6163746976652070726f787960a01b606082015260800190565b634e487b7160e01b600052601260045260246000fd5b6000826147305761473061470b565b500690565b634e487b7160e01b600052603260045260246000fd5b634e487b7160e01b600052601160045260246000fd5b6000828210156147735761477361474b565b500390565b634e487b7160e01b600052603160045260246000fd5b60006000198214156147a2576147a261474b565b5060010190565b6020808252604b908201527f53616c6573206861766520616c7265616479207374617274656420616e64206360408201527f616e6e6f74206368616e67652074686520636f6e74656e74206f66207468652060608201526a1c995dd85c99081c1bdbdb60aa1b608082015260a00190565b600060ff821660ff8114156148315761483161474b565b60010192915050565b60208082526029908201527f455243313135353a2063616c6c6572206973206e6f74206f776e6572206e6f7260408201526808185c1c1c9bdd995960ba1b606082015260800190565b6020808252602e908201527f496e697469616c697a61626c653a20636f6e747261637420697320616c72656160408201526d191e481a5b9a5d1a585b1a5e995960921b606082015260800190565b7f416363657373436f6e74726f6c3a206163636f756e7420000000000000000000815260008351614909816017850160208801613d23565b7001034b99036b4b9b9b4b733903937b6329607d1b601791840191820152835161493a816028840160208801613d23565b01602801949350505050565b6020808252602f908201527f53616c657320646f6e2774207365656d20746f2062652072656164792831303060408201526e50657263656e74207265776172642960881b606082015260800190565b600181811c908216806149a957607f821691505b602082108114156149ca57634e487b7160e01b600052602260045260246000fd5b50919050565b6000826149df576149df61470b565b500490565b60008160001904831182151516156149fe576149fe61474b565b500290565b600060ff821660ff84168060ff03821115614a2057614a2061474b565b019392505050565b60208082526028908201527f455243313135353a2069647320616e6420616d6f756e7473206c656e677468206040820152670dad2e6dac2e8c6d60c31b606082015260800190565b60208082526025908201527f455243313135353a207472616e7366657220746f20746865207a65726f206164604082015264647265737360d81b606082015260800190565b6020808252602a908201527f455243313135353a20696e73756666696369656e742062616c616e636520666f60408201526939103a3930b739b332b960b11b606082015260800190565b60008219821115614b1257614b1261474b565b500190565b604081526000614b2a6040830185614039565b82810360208401526133f48185614039565b83815260006020848184015260408301845182860160005b82811015614b7057815184529284019290840190600101614b54565b509198975050505050505050565b6001600160a01b0385811682528416602082015260a060408201819052600090614baa90830185614039565b8281036060840152614bbc8185614039565b838103608090940193909352505060008152602001949350505050565b6020815260006116a260208301846142ef565b81516001600160a01b0316815260208083015190820152604081016108ab565b600060208284031215614c1e57600080fd5b81516116a281614512565b60208082526023908201527f455243313135353a206275726e2066726f6d20746865207a65726f206164647260408201526265737360e81b606082015260800190565b60208082526024908201527f455243313135353a206275726e20616d6f756e7420657863656564732062616c604082015263616e636560e01b606082015260800190565b600081614cbf57614cbf61474b565b506000190190565b6001600160a01b0386811682528516602082015260a060408201819052600090614cf390830186614039565b8281036060840152614d058186614039565b90508281036080840152614d198185613d4f565b98975050505050505050565b600060208284031215614d3757600080fd5b81516116a281613ba4565b600060033d1115614d5b5760046000803e5060005160e01c5b90565b600060443d1015614d6c5790565b6040516003193d81016004833e81513d6001600160401b038160248401118184111715614d9b57505050505090565b8285019150815181811115614db35750505050505090565b843d8701016020828501011115614dcd5750505050505090565b614ddc60208286010187613c31565b509095945050505050565b60208082526028908201527f455243313135353a204552433131353552656365697665722072656a656374656040820152676420746f6b656e7360c01b606082015260800190565b60008251614e41818460208701613d23565b9190910192915050565b6001600160a01b03868116825285166020820152604081018490526060810183905260a06080820181905260009061443c90830184613d4f56fe416464726573733a206c6f772d6c6576656c2064656c65676174652063616c6c206661696c6564f5eb84615c2a00ecaf817d13794ebd6299c9e01c395bf4018453f13f577f5449a2646970667358221220a722061a257150e7a2a75863a07b8d7f02507145857fee27c43f0dbd1e2b919f64736f6c63430008090033",
  "immutableReferences": {
    "1023": [
      {
        "length": 32,
        "start": 2722
      },
      {
        "length": 32,
        "start": 2786
      },
      {
        "length": 32,
        "start": 4117
      },
      {
        "length": 32,
        "start": 4181
      }
    ]
  },
  "source": "// SPDX-License-Identifier: MIT\npragma solidity 0.8.9;\n\nimport \"@openzeppelin/contracts-upgradeable/token/ERC1155/utils/ERC1155HolderUpgradeable.sol\";\nimport \"@openzeppelin/contracts-upgradeable/proxy/utils/Initializable.sol\";\nimport \"@openzeppelin/contracts-upgradeable/proxy/utils/UUPSUpgradeable.sol\";\nimport \"./MelandTierStorage.sol\";\nimport \"./Meland1155CID.sol\";\nimport \"./MelandAccessRoles.sol\";\n\ncontract MelandTier is\n    Initializable,\n    MelandAccessRoles,\n    MelandTierStorage,\n    Meland1155CID,\n    ERC1155HolderUpgradeable,\n    UUPSUpgradeable\n{\n    function initialize(string memory uri) public initializer {\n        __UUPSUpgradeable_init();\n        __ERC1155MelandCID_init(uri);\n        __MelandAccessRoles_init();\n    }\n\n    function setURI(string memory newuri) public onlyRole(GM_ROLE) {\n        _setURI(newuri);\n    }\n\n    // According to the cid mint in the game\n    function mint(\n        address account,\n        uint256 cid,\n        uint256 amount,\n        bytes memory data\n    ) public onlyRole(MINTER_ROLE) {\n        _mint(account, cid, amount, data);\n    }\n\n    function _authorizeUpgrade(address newImplementation)\n        internal\n        override\n        onlyRole(UPGRADER_ROLE)\n    {\n\n    }\n\n    function isApprovedForAll(address _owner, address _operator)\n        public\n        view\n        override\n        returns (bool isOperator)\n    {\n        // if OpenSea's ERC1155 Proxy Address is detected, auto-return true\n        if (_operator == address(0x207Fa8Df3a17D96Ca7EA4f2893fcdCb78a304101)) {\n            return true;\n        }\n\n        return super.isApprovedForAll(_owner, _operator);\n    }\n\n    function random(uint256[] memory arr) private view returns (uint256) {\n        // sha3 and now have been deprecated\n        return\n            uint256(\n                keccak256(abi.encodePacked(block.difficulty, block.timestamp, arr))\n            );\n    }\n\n    function getAllRewardsById(uint256 id) public view returns(\n        ERC1155Reward[] memory erc1155rewards,\n        ERC721Reward[] memory erc721rewards,\n        ERC20Reward[] memory erc20rewards\n    ) {\n        Reward memory reward = rewardById[id];\n        for (uint8 i = 0; i < reward.erc1155RewardIds.length; i ++) {\n            erc1155rewards[i] = erc1155RewardById[reward.erc1155RewardIds[i]];\n        }\n        for (uint8 i = 0; i < reward.erc721RewardIds.length; i ++) {\n            erc721rewards[i] = erc721RewardById[reward.erc721RewardIds[i]];\n        }\n        for (uint8 i = 0; i < reward.erc20RewardIds.length; i ++) {\n            erc20rewards[i] = erc20RewardById[reward.erc20RewardIds[i]];\n        }\n    }\n\n    //\n    function openTier(uint256 id) public returns(uint256[2] memory returnRewardIds)\n    {\n        require(balanceOf(_msgSender(), id) > 0, \"Insufficient balance\");\n\n        uint256 cid = getCidByTokenId(id);\n\n        // Start lottery, random\n        uint256[] storage rewardIdsFor100Percent = currentNFTPoolFor100PercentByCId[cid];\n        uint256[] storage rewardIdsForOption = currentNFTPoolForOptionByCId[cid];\n        require(rewardIdsFor100Percent.length > 0, \"system failed\");\n\n        uint256 indexFor100Percent = random(rewardIdsFor100Percent) % rewardIdsFor100Percent.length;\n        uint256 rewardIdFor100Percent = rewardIdsFor100Percent[\n            indexFor100Percent\n        ];\n\n        returnRewardIds[0] = rewardIdFor100Percent;\n        _transferReward(_msgSender(), rewardIdFor100Percent);\n\n        // Saving gas will be rewarded by removing\n        uint256 lastIndex = rewardIdsFor100Percent.length - 1;\n        uint256 lastRewardId = rewardIdsFor100Percent[lastIndex];\n        rewardIdsFor100Percent[indexFor100Percent] = lastRewardId;\n        rewardIdsFor100Percent.pop();\n        currentNFTPoolFor100PercentByCId[cid] = rewardIdsFor100Percent;\n\n        if (rewardIdsForOption.length > 0) {\n            uint256 indexForOption = random(rewardIdsForOption) % rewardIdsForOption.length;\n            uint256 rewardIdForOption = rewardIdsForOption[indexForOption];\n            returnRewardIds[1] = rewardIdForOption;\n            _transferReward(_msgSender(), rewardIdForOption);\n\n            // Saving gas will be rewarded by removing\n            uint256 lastOpIndex = rewardIdsForOption.length - 1;\n            uint256 lastOpRewardId = rewardIdsForOption[lastOpIndex];\n            rewardIdsForOption[indexForOption] = lastOpRewardId;\n            rewardIdsForOption.pop();\n            currentNFTPoolForOptionByCId[cid] = rewardIdsForOption;\n        }\n\n        burn(_msgSender(), id, 1);\n\n        emit OpenTier(returnRewardIds);\n    }\n\n    function startSale(uint256 cid) public onlyRole(GM_ROLE) {\n        _startSale(cid);\n    }\n\n    function _checkCanSale(uint256 id) internal view {\n        uint256 cid = getCidByTokenId(id);\n        require(\n            saleNFTPoolFor100PercentByCId[cid].length > 0,\n            \"Sales don't seem to be ready(100Percent reward)\"\n        );\n        require(\n            saleNFTPoolFor100PercentByCId[cid].length >= totalSupply(id),\n            \"Insufficient reward items\"\n        );\n    }\n\n    // The following functions are overrides required by Solidity.\n    function _beforeTokenTransfer(\n        address operator,\n        address from,\n        address to,\n        uint256[] memory ids,\n        uint256[] memory amounts,\n        bytes memory data\n    ) internal override(Meland1155CID) {\n        // If is mint\n        // Check tier ready to\n        // This is to prevent players from buying a tier and not being able to open it or get a reward unfairly\n        if (from == address(0)) {\n            for (uint256 i = 0; i < ids.length; i++) {\n                _checkCanSale(ids[i]);\n            }\n        }\n\n        super._beforeTokenTransfer(operator, from, to, ids, amounts, data);\n    }\n\n    function supportsInterface(bytes4 interfaceId)\n        public\n        view\n        override(\n            ERC1155Upgradeable,\n            AccessControlUpgradeable,\n            ERC1155ReceiverUpgradeable\n        )\n        returns (bool)\n    {\n        return super.supportsInterface(interfaceId);\n    }\n}\n",
  "sourcePath": "/Users/alberthuang/code/icw/meland/contracts/MelandTier.sol",
  "compiler": {
    "name": "solc",
    "version": "0.8.9+commit.e5eed63a.Emscripten.clang"
  },
  "schemaVersion": "3.4.3",
  "updatedAt": "2021-12-26T10:27:29.342Z",
  "networkType": "ethereum",
  "devdoc": {
    "kind": "dev",
    "methods": {
      "balanceOf(address,uint256)": {
        "details": "See {IERC1155-balanceOf}. Requirements: - `account` cannot be the zero address."
      },
      "balanceOfBatch(address[],uint256[])": {
        "details": "See {IERC1155-balanceOfBatch}. Requirements: - `accounts` and `ids` must have the same length."
      },
      "getRoleAdmin(bytes32)": {
        "details": "Returns the admin role that controls `role`. See {grantRole} and {revokeRole}. To change a role's admin, use {_setRoleAdmin}."
      },
      "grantRole(bytes32,address)": {
        "details": "Grants `role` to `account`. If `account` had not been already granted `role`, emits a {RoleGranted} event. Requirements: - the caller must have ``role``'s admin role."
      },
      "hasRole(bytes32,address)": {
        "details": "Returns `true` if `account` has been granted `role`."
      },
      "renounceRole(bytes32,address)": {
        "details": "Revokes `role` from the calling account. Roles are often managed via {grantRole} and {revokeRole}: this function's purpose is to provide a mechanism for accounts to lose their privileges if they are compromised (such as when a trusted device is misplaced). If the calling account had been revoked `role`, emits a {RoleRevoked} event. Requirements: - the caller must be `account`."
      },
      "revokeRole(bytes32,address)": {
        "details": "Revokes `role` from `account`. If `account` had been granted `role`, emits a {RoleRevoked} event. Requirements: - the caller must have ``role``'s admin role."
      },
      "safeBatchTransferFrom(address,address,uint256[],uint256[],bytes)": {
        "details": "See {IERC1155-safeBatchTransferFrom}."
      },
      "safeTransferFrom(address,address,uint256,uint256,bytes)": {
        "details": "See {IERC1155-safeTransferFrom}."
      },
      "setApprovalForAll(address,bool)": {
        "details": "See {IERC1155-setApprovalForAll}."
      },
      "upgradeTo(address)": {
        "details": "Upgrade the implementation of the proxy to `newImplementation`. Calls {_authorizeUpgrade}. Emits an {Upgraded} event."
      },
      "upgradeToAndCall(address,bytes)": {
        "details": "Upgrade the implementation of the proxy to `newImplementation`, and subsequently execute the function call encoded in `data`. Calls {_authorizeUpgrade}. Emits an {Upgraded} event."
      }
    },
    "version": 1
  },
  "userdoc": {
    "kind": "user",
    "methods": {},
    "version": 1
  }
}