{
  "contractName": "Meland1155Placeable",
  "abi": [
    {
      "anonymous": false,
      "inputs": [
        {
          "indexed": false,
          "internalType": "address",
          "name": "previousAdmin",
          "type": "address"
        },
        {
          "indexed": false,
          "internalType": "address",
          "name": "newAdmin",
          "type": "address"
        }
      ],
      "name": "AdminChanged",
      "type": "event"
    },
    {
      "anonymous": false,
      "inputs": [
        {
          "indexed": true,
          "internalType": "address",
          "name": "account",
          "type": "address"
        },
        {
          "indexed": true,
          "internalType": "address",
          "name": "operator",
          "type": "address"
        },
        {
          "indexed": false,
          "internalType": "bool",
          "name": "approved",
          "type": "bool"
        }
      ],
      "name": "ApprovalForAll",
      "type": "event"
    },
    {
      "anonymous": false,
      "inputs": [
        {
          "indexed": true,
          "internalType": "address",
          "name": "beacon",
          "type": "address"
        }
      ],
      "name": "BeaconUpgraded",
      "type": "event"
    },
    {
      "anonymous": false,
      "inputs": [
        {
          "indexed": false,
          "internalType": "bool",
          "name": "_freezeEnabled",
          "type": "bool"
        }
      ],
      "name": "FreezeEnabledUpdate",
      "type": "event"
    },
    {
      "anonymous": false,
      "inputs": [
        {
          "indexed": true,
          "internalType": "bytes",
          "name": "rarity",
          "type": "bytes"
        },
        {
          "indexed": false,
          "internalType": "uint256",
          "name": "mintMax",
          "type": "uint256"
        }
      ],
      "name": "RarityUpdate",
      "type": "event"
    },
    {
      "anonymous": false,
      "inputs": [
        {
          "indexed": true,
          "internalType": "bytes32",
          "name": "role",
          "type": "bytes32"
        },
        {
          "indexed": true,
          "internalType": "bytes32",
          "name": "previousAdminRole",
          "type": "bytes32"
        },
        {
          "indexed": true,
          "internalType": "bytes32",
          "name": "newAdminRole",
          "type": "bytes32"
        }
      ],
      "name": "RoleAdminChanged",
      "type": "event"
    },
    {
      "anonymous": false,
      "inputs": [
        {
          "indexed": true,
          "internalType": "bytes32",
          "name": "role",
          "type": "bytes32"
        },
        {
          "indexed": true,
          "internalType": "address",
          "name": "account",
          "type": "address"
        },
        {
          "indexed": true,
          "internalType": "address",
          "name": "sender",
          "type": "address"
        }
      ],
      "name": "RoleGranted",
      "type": "event"
    },
    {
      "anonymous": false,
      "inputs": [
        {
          "indexed": true,
          "internalType": "bytes32",
          "name": "role",
          "type": "bytes32"
        },
        {
          "indexed": true,
          "internalType": "address",
          "name": "account",
          "type": "address"
        },
        {
          "indexed": true,
          "internalType": "address",
          "name": "sender",
          "type": "address"
        }
      ],
      "name": "RoleRevoked",
      "type": "event"
    },
    {
      "anonymous": false,
      "inputs": [
        {
          "indexed": true,
          "internalType": "address",
          "name": "operator",
          "type": "address"
        },
        {
          "indexed": true,
          "internalType": "address",
          "name": "from",
          "type": "address"
        },
        {
          "indexed": true,
          "internalType": "address",
          "name": "to",
          "type": "address"
        },
        {
          "indexed": false,
          "internalType": "uint256[]",
          "name": "ids",
          "type": "uint256[]"
        },
        {
          "indexed": false,
          "internalType": "uint256[]",
          "name": "values",
          "type": "uint256[]"
        }
      ],
      "name": "TransferBatch",
      "type": "event"
    },
    {
      "anonymous": false,
      "inputs": [
        {
          "indexed": true,
          "internalType": "address",
          "name": "operator",
          "type": "address"
        },
        {
          "indexed": true,
          "internalType": "address",
          "name": "from",
          "type": "address"
        },
        {
          "indexed": true,
          "internalType": "address",
          "name": "to",
          "type": "address"
        },
        {
          "indexed": false,
          "internalType": "uint256",
          "name": "id",
          "type": "uint256"
        },
        {
          "indexed": false,
          "internalType": "uint256",
          "name": "value",
          "type": "uint256"
        }
      ],
      "name": "TransferSingle",
      "type": "event"
    },
    {
      "anonymous": false,
      "inputs": [
        {
          "indexed": false,
          "internalType": "string",
          "name": "value",
          "type": "string"
        },
        {
          "indexed": true,
          "internalType": "uint256",
          "name": "id",
          "type": "uint256"
        }
      ],
      "name": "URI",
      "type": "event"
    },
    {
      "anonymous": false,
      "inputs": [
        {
          "indexed": true,
          "internalType": "address",
          "name": "implementation",
          "type": "address"
        }
      ],
      "name": "Upgraded",
      "type": "event"
    },
    {
      "inputs": [],
      "name": "DEFAULT_ADMIN_ROLE",
      "outputs": [
        {
          "internalType": "bytes32",
          "name": "",
          "type": "bytes32"
        }
      ],
      "stateMutability": "view",
      "type": "function"
    },
    {
      "inputs": [],
      "name": "GM_ROLE",
      "outputs": [
        {
          "internalType": "bytes32",
          "name": "",
          "type": "bytes32"
        }
      ],
      "stateMutability": "view",
      "type": "function"
    },
    {
      "inputs": [],
      "name": "MINTER_ROLE",
      "outputs": [
        {
          "internalType": "bytes32",
          "name": "",
          "type": "bytes32"
        }
      ],
      "stateMutability": "view",
      "type": "function"
    },
    {
      "inputs": [],
      "name": "UPGRADER_ROLE",
      "outputs": [
        {
          "internalType": "bytes32",
          "name": "",
          "type": "bytes32"
        }
      ],
      "stateMutability": "view",
      "type": "function"
    },
    {
      "inputs": [
        {
          "internalType": "string",
          "name": "",
          "type": "string"
        }
      ],
      "name": "acceptedToken",
      "outputs": [
        {
          "internalType": "contract IERC20Upgradeable",
          "name": "",
          "type": "address"
        }
      ],
      "stateMutability": "view",
      "type": "function"
    },
    {
      "inputs": [
        {
          "internalType": "address",
          "name": "account",
          "type": "address"
        },
        {
          "internalType": "uint256",
          "name": "id",
          "type": "uint256"
        }
      ],
      "name": "balanceOf",
      "outputs": [
        {
          "internalType": "uint256",
          "name": "",
          "type": "uint256"
        }
      ],
      "stateMutability": "view",
      "type": "function"
    },
    {
      "inputs": [
        {
          "internalType": "address[]",
          "name": "accounts",
          "type": "address[]"
        },
        {
          "internalType": "uint256[]",
          "name": "ids",
          "type": "uint256[]"
        }
      ],
      "name": "balanceOfBatch",
      "outputs": [
        {
          "internalType": "uint256[]",
          "name": "",
          "type": "uint256[]"
        }
      ],
      "stateMutability": "view",
      "type": "function"
    },
    {
      "inputs": [
        {
          "internalType": "address",
          "name": "account",
          "type": "address"
        },
        {
          "internalType": "uint256",
          "name": "id",
          "type": "uint256"
        },
        {
          "internalType": "uint256",
          "name": "value",
          "type": "uint256"
        }
      ],
      "name": "burn",
      "outputs": [],
      "stateMutability": "nonpayable",
      "type": "function"
    },
    {
      "inputs": [
        {
          "internalType": "address",
          "name": "account",
          "type": "address"
        },
        {
          "internalType": "uint256[]",
          "name": "ids",
          "type": "uint256[]"
        },
        {
          "internalType": "uint256[]",
          "name": "values",
          "type": "uint256[]"
        }
      ],
      "name": "burnBatch",
      "outputs": [],
      "stateMutability": "nonpayable",
      "type": "function"
    },
    {
      "inputs": [
        {
          "internalType": "uint256",
          "name": "id",
          "type": "uint256"
        }
      ],
      "name": "getCidByTokenId",
      "outputs": [
        {
          "internalType": "uint256",
          "name": "",
          "type": "uint256"
        }
      ],
      "stateMutability": "view",
      "type": "function"
    },
    {
      "inputs": [
        {
          "internalType": "uint256",
          "name": "cid",
          "type": "uint256"
        }
      ],
      "name": "getRarityByCId",
      "outputs": [
        {
          "internalType": "string",
          "name": "",
          "type": "string"
        }
      ],
      "stateMutability": "view",
      "type": "function"
    },
    {
      "inputs": [
        {
          "internalType": "uint256",
          "name": "id",
          "type": "uint256"
        }
      ],
      "name": "getRarityById",
      "outputs": [
        {
          "internalType": "string",
          "name": "",
          "type": "string"
        }
      ],
      "stateMutability": "view",
      "type": "function"
    },
    {
      "inputs": [
        {
          "internalType": "bytes32",
          "name": "role",
          "type": "bytes32"
        }
      ],
      "name": "getRoleAdmin",
      "outputs": [
        {
          "internalType": "bytes32",
          "name": "",
          "type": "bytes32"
        }
      ],
      "stateMutability": "view",
      "type": "function"
    },
    {
      "inputs": [
        {
          "internalType": "bytes32",
          "name": "role",
          "type": "bytes32"
        },
        {
          "internalType": "address",
          "name": "account",
          "type": "address"
        }
      ],
      "name": "grantRole",
      "outputs": [],
      "stateMutability": "nonpayable",
      "type": "function"
    },
    {
      "inputs": [
        {
          "internalType": "bytes32",
          "name": "role",
          "type": "bytes32"
        },
        {
          "internalType": "address",
          "name": "account",
          "type": "address"
        }
      ],
      "name": "hasRole",
      "outputs": [
        {
          "internalType": "bool",
          "name": "",
          "type": "bool"
        }
      ],
      "stateMutability": "view",
      "type": "function"
    },
    {
      "inputs": [
        {
          "internalType": "address",
          "name": "_owner",
          "type": "address"
        },
        {
          "internalType": "address",
          "name": "_operator",
          "type": "address"
        }
      ],
      "name": "isApprovedForAll",
      "outputs": [
        {
          "internalType": "bool",
          "name": "isOperator",
          "type": "bool"
        }
      ],
      "stateMutability": "view",
      "type": "function"
    },
    {
      "inputs": [],
      "name": "melandStoreItems",
      "outputs": [
        {
          "internalType": "string[]",
          "name": "",
          "type": "string[]"
        },
        {
          "internalType": "uint256[]",
          "name": "",
          "type": "uint256[]"
        }
      ],
      "stateMutability": "view",
      "type": "function"
    },
    {
      "inputs": [
        {
          "internalType": "string",
          "name": "",
          "type": "string"
        }
      ],
      "name": "melandStoreReceipt",
      "outputs": [
        {
          "internalType": "address",
          "name": "receipt",
          "type": "address"
        }
      ],
      "stateMutability": "pure",
      "type": "function"
    },
    {
      "inputs": [
        {
          "internalType": "bytes32",
          "name": "",
          "type": "bytes32"
        }
      ],
      "name": "mintMaxByRaritykeccak256",
      "outputs": [
        {
          "internalType": "uint256",
          "name": "",
          "type": "uint256"
        }
      ],
      "stateMutability": "view",
      "type": "function"
    },
    {
      "inputs": [
        {
          "internalType": "string",
          "name": "_a",
          "type": "string"
        }
      ],
      "name": "parseInt",
      "outputs": [
        {
          "internalType": "uint256",
          "name": "_parsedInt",
          "type": "uint256"
        }
      ],
      "stateMutability": "pure",
      "type": "function"
    },
    {
      "inputs": [
        {
          "internalType": "string",
          "name": "_a",
          "type": "string"
        },
        {
          "internalType": "uint256",
          "name": "_b",
          "type": "uint256"
        }
      ],
      "name": "parseInt",
      "outputs": [
        {
          "internalType": "uint256",
          "name": "_parsedInt",
          "type": "uint256"
        }
      ],
      "stateMutability": "pure",
      "type": "function"
    },
    {
      "inputs": [
        {
          "internalType": "bytes32",
          "name": "role",
          "type": "bytes32"
        },
        {
          "internalType": "address",
          "name": "account",
          "type": "address"
        }
      ],
      "name": "renounceRole",
      "outputs": [],
      "stateMutability": "nonpayable",
      "type": "function"
    },
    {
      "inputs": [
        {
          "internalType": "bytes32",
          "name": "role",
          "type": "bytes32"
        },
        {
          "internalType": "address",
          "name": "account",
          "type": "address"
        }
      ],
      "name": "revokeRole",
      "outputs": [],
      "stateMutability": "nonpayable",
      "type": "function"
    },
    {
      "inputs": [
        {
          "internalType": "address",
          "name": "from",
          "type": "address"
        },
        {
          "internalType": "address",
          "name": "to",
          "type": "address"
        },
        {
          "internalType": "uint256[]",
          "name": "ids",
          "type": "uint256[]"
        },
        {
          "internalType": "uint256[]",
          "name": "amounts",
          "type": "uint256[]"
        },
        {
          "internalType": "bytes",
          "name": "data",
          "type": "bytes"
        }
      ],
      "name": "safeBatchTransferFrom",
      "outputs": [],
      "stateMutability": "nonpayable",
      "type": "function"
    },
    {
      "inputs": [
        {
          "internalType": "string",
          "name": "_a",
          "type": "string"
        }
      ],
      "name": "safeParseInt",
      "outputs": [
        {
          "internalType": "uint256",
          "name": "_parsedInt",
          "type": "uint256"
        }
      ],
      "stateMutability": "pure",
      "type": "function"
    },
    {
      "inputs": [
        {
          "internalType": "string",
          "name": "_a",
          "type": "string"
        },
        {
          "internalType": "uint256",
          "name": "_b",
          "type": "uint256"
        }
      ],
      "name": "safeParseInt",
      "outputs": [
        {
          "internalType": "uint256",
          "name": "_parsedInt",
          "type": "uint256"
        }
      ],
      "stateMutability": "pure",
      "type": "function"
    },
    {
      "inputs": [
        {
          "internalType": "address",
          "name": "from",
          "type": "address"
        },
        {
          "internalType": "address",
          "name": "to",
          "type": "address"
        },
        {
          "internalType": "uint256",
          "name": "id",
          "type": "uint256"
        },
        {
          "internalType": "uint256",
          "name": "amount",
          "type": "uint256"
        },
        {
          "internalType": "bytes",
          "name": "data",
          "type": "bytes"
        }
      ],
      "name": "safeTransferFrom",
      "outputs": [],
      "stateMutability": "nonpayable",
      "type": "function"
    },
    {
      "inputs": [
        {
          "internalType": "address",
          "name": "operator",
          "type": "address"
        },
        {
          "internalType": "bool",
          "name": "approved",
          "type": "bool"
        }
      ],
      "name": "setApprovalForAll",
      "outputs": [],
      "stateMutability": "nonpayable",
      "type": "function"
    },
    {
      "inputs": [
        {
          "internalType": "uint256",
          "name": "id",
          "type": "uint256"
        }
      ],
      "name": "totalSupply",
      "outputs": [
        {
          "internalType": "uint256",
          "name": "",
          "type": "uint256"
        }
      ],
      "stateMutability": "view",
      "type": "function"
    },
    {
      "inputs": [
        {
          "internalType": "uint256",
          "name": "cid",
          "type": "uint256"
        }
      ],
      "name": "totalSupplyByCId",
      "outputs": [
        {
          "internalType": "uint256",
          "name": "",
          "type": "uint256"
        }
      ],
      "stateMutability": "view",
      "type": "function"
    },
    {
      "inputs": [
        {
          "internalType": "address",
          "name": "newImplementation",
          "type": "address"
        }
      ],
      "name": "upgradeTo",
      "outputs": [],
      "stateMutability": "nonpayable",
      "type": "function"
    },
    {
      "inputs": [
        {
          "internalType": "address",
          "name": "newImplementation",
          "type": "address"
        },
        {
          "internalType": "bytes",
          "name": "data",
          "type": "bytes"
        }
      ],
      "name": "upgradeToAndCall",
      "outputs": [],
      "stateMutability": "payable",
      "type": "function"
    },
    {
      "inputs": [
        {
          "internalType": "uint256",
          "name": "id",
          "type": "uint256"
        }
      ],
      "name": "uri",
      "outputs": [
        {
          "internalType": "string",
          "name": "",
          "type": "string"
        }
      ],
      "stateMutability": "view",
      "type": "function"
    },
    {
      "inputs": [
        {
          "internalType": "string",
          "name": "uri",
          "type": "string"
        }
      ],
      "name": "initialize",
      "outputs": [],
      "stateMutability": "nonpayable",
      "type": "function"
    },
    {
      "inputs": [
        {
          "internalType": "string",
          "name": "newuri",
          "type": "string"
        }
      ],
      "name": "setURI",
      "outputs": [],
      "stateMutability": "nonpayable",
      "type": "function"
    },
    {
      "inputs": [
        {
          "internalType": "contract MelandTier",
          "name": "_tierAddress",
          "type": "address"
        }
      ],
      "name": "setMelandTier",
      "outputs": [],
      "stateMutability": "nonpayable",
      "type": "function"
    },
    {
      "inputs": [
        {
          "internalType": "string",
          "name": "symbol",
          "type": "string"
        }
      ],
      "name": "melandStoreItemURI",
      "outputs": [
        {
          "internalType": "string",
          "name": "",
          "type": "string"
        }
      ],
      "stateMutability": "view",
      "type": "function"
    },
    {
      "inputs": [
        {
          "internalType": "address",
          "name": "account",
          "type": "address"
        },
        {
          "internalType": "uint256",
          "name": "cid",
          "type": "uint256"
        },
        {
          "internalType": "uint256",
          "name": "amount",
          "type": "uint256"
        }
      ],
      "name": "mint",
      "outputs": [
        {
          "internalType": "uint256[]",
          "name": "",
          "type": "uint256[]"
        }
      ],
      "stateMutability": "nonpayable",
      "type": "function"
    },
    {
      "inputs": [
        {
          "internalType": "string",
          "name": "_rarity",
          "type": "string"
        },
        {
          "internalType": "uint256",
          "name": "mintMax",
          "type": "uint256"
        }
      ],
      "name": "setRarity",
      "outputs": [],
      "stateMutability": "nonpayable",
      "type": "function"
    },
    {
      "inputs": [
        {
          "internalType": "bytes4",
          "name": "interfaceId",
          "type": "bytes4"
        }
      ],
      "name": "supportsInterface",
      "outputs": [
        {
          "internalType": "bool",
          "name": "",
          "type": "bool"
        }
      ],
      "stateMutability": "view",
      "type": "function"
    },
    {
      "inputs": [
        {
          "internalType": "contract IERC20Upgradeable",
          "name": "token",
          "type": "address"
        }
      ],
      "name": "setAcceptedToken",
      "outputs": [],
      "stateMutability": "nonpayable",
      "type": "function"
    },
    {
      "inputs": [
        {
          "internalType": "contract NFTStore",
          "name": "s",
          "type": "address"
        }
      ],
      "name": "setStore",
      "outputs": [],
      "stateMutability": "nonpayable",
      "type": "function"
    },
    {
      "inputs": [
        {
          "internalType": "string",
          "name": "symbol",
          "type": "string"
        },
        {
          "internalType": "uint256",
          "name": "price",
          "type": "uint256"
        }
      ],
      "name": "setStoreItem",
      "outputs": [],
      "stateMutability": "nonpayable",
      "type": "function"
    },
    {
      "inputs": [
        {
          "internalType": "string",
          "name": "symbol",
          "type": "string"
        }
      ],
      "name": "delStoreItem",
      "outputs": [],
      "stateMutability": "nonpayable",
      "type": "function"
    },
    {
      "inputs": [
        {
          "internalType": "string",
          "name": "",
          "type": "string"
        }
      ],
      "name": "melandStoreItemsRestrictPurchaseNFTIds",
      "outputs": [
        {
          "internalType": "bool",
          "name": "",
          "type": "bool"
        },
        {
          "internalType": "uint256[]",
          "name": "",
          "type": "uint256[]"
        }
      ],
      "stateMutability": "pure",
      "type": "function"
    },
    {
      "inputs": [
        {
          "internalType": "string",
          "name": "symbol",
          "type": "string"
        },
        {
          "internalType": "uint256",
          "name": "id",
          "type": "uint256"
        },
        {
          "internalType": "address",
          "name": "to",
          "type": "address"
        }
      ],
      "name": "melandStoreItemsMint",
      "outputs": [
        {
          "internalType": "uint256",
          "name": "",
          "type": "uint256"
        }
      ],
      "stateMutability": "nonpayable",
      "type": "function"
    },
    {
      "inputs": [
        {
          "internalType": "string",
          "name": "symbol",
          "type": "string"
        }
      ],
      "name": "melandStoreSellStatus",
      "outputs": [
        {
          "internalType": "bool",
          "name": "isSelling",
          "type": "bool"
        }
      ],
      "stateMutability": "view",
      "type": "function"
    },
    {
      "inputs": [
        {
          "internalType": "string",
          "name": "",
          "type": "string"
        }
      ],
      "name": "melandStoreItemsRestrictedPurchase",
      "outputs": [
        {
          "internalType": "bool",
          "name": "restricted",
          "type": "bool"
        },
        {
          "internalType": "uint256",
          "name": "restrictLimit",
          "type": "uint256"
        }
      ],
      "stateMutability": "pure",
      "type": "function"
    }
  ],
  "bytecode": "0x60a06040523060805234801561001457600080fd5b5060805161488161004560003960008181610cbc01528181610cfc01528181610ebb0152610efb01526148816000f3fe6080604052600436106102925760003560e01c80638b31e62d1161015a578063d3186324116100c1578063f405a5841161007a578063f405a584146108a6578063f5298aca146108c6578063f62d1888146108e6578063f70e9a4714610906578063f72c0d8b14610926578063fcc6dd571461095a57600080fd5b8063d3186324146107c5578063d5391393146107f2578063d547741f14610826578063e985e9c514610846578063ed9be43214610866578063f242432a1461088657600080fd5b8063a649e7a511610113578063a649e7a5146106f8578063b0c208bc14610725578063bd85b03914610745578063bdb7b5dd14610765578063be7cbe7514610785578063bf4d89b5146107a557600080fd5b80638b31e62d1461062e57806390ad941d1461065157806391d14854146106715780639f89e76914610691578063a217fddf146106c3578063a22cb465146106d857600080fd5b806330c7be2c116101fe5780634f1ef286116101b75780634f1ef2861461054f5780635eccb30c14610562578063664033d5146105825780636b20c454146105ce5780637487f528146105ee57806380e416bd1461060e57600080fd5b806330c7be2c1461048057806336568abe146104a25780633659cfe6146104c25780633ef780bc146104e257806342346c5e1461050f5780634e1273f41461052f57600080fd5b8063156e29f611610250578063156e29f6146103a35780631a8c2e80146103d05780631ba43d2b146103f0578063248a9ca3146104105780632eb2c2d6146104405780632f2ff15d1461046057600080fd5b8062fdd58e1461029757806301ffc9a7146102ca57806302fe5305146102fa5780630820c90d1461031c578063087cbd40146103565780630e89341c14610376575b600080fd5b3480156102a357600080fd5b506102b76102b23660046137b3565b610986565b6040519081526020015b60405180910390f35b3480156102d657600080fd5b506102ea6102e53660046137f5565b610a22565b60405190151581526020016102c1565b34801561030657600080fd5b5061031a6103153660046138c7565b610a2d565b005b34801561032857600080fd5b5061033f6103373660046138c7565b506000908190565b6040805192151583526020830191909152016102c1565b34801561036257600080fd5b5061031a610371366004613903565b610a53565b34801561038257600080fd5b50610396610391366004613920565b610a75565b6040516102c19190613991565b3480156103af57600080fd5b506103c36103be3660046139a4565b610a80565b6040516102c19190613a14565b3480156103dc57600080fd5b506102b76103eb366004613a27565b610ad1565b3480156103fc57600080fd5b506102ea61040b3660046138c7565b610b3a565b34801561041c57600080fd5b506102b761042b366004613920565b600090815260cf602052604090206001015490565b34801561044c57600080fd5b5061031a61045b366004613b15565b610b75565b34801561046c57600080fd5b5061031a61047b366004613bc2565b610c0c565b34801561048c57600080fd5b506102b760008051602061482c83398151915281565b3480156104ae57600080fd5b5061031a6104bd366004613bc2565b610c37565b3480156104ce57600080fd5b5061031a6104dd366004613903565b610cb1565b3480156104ee57600080fd5b506102b76104fd366004613920565b600090815260ca602052604090205490565b34801561051b57600080fd5b506102b761052a3660046138c7565b610d7a565b34801561053b57600080fd5b506103c361054a366004613bf2565b610d87565b61031a61055d366004613cbe565b610eb0565b34801561056e57600080fd5b506102b761057d3660046138c7565b610f66565b34801561058e57600080fd5b506105b661059d3660046138c7565b5073fced262e4949b7b5c4177b4e0ad8e974cc7493bf90565b6040516001600160a01b0390911681526020016102c1565b3480156105da57600080fd5b5061031a6105e9366004613d03565b610f73565b3480156105fa57600080fd5b5061031a610609366004613903565b610fb6565b34801561061a57600080fd5b5061031a610629366004613d78565b610fd8565b34801561063a57600080fd5b50610643611002565b6040516102c1929190613dbc565b34801561065d57600080fd5b5061039661066c366004613920565b611138565b34801561067d57600080fd5b506102ea61068c366004613bc2565b6111da565b34801561069d57600080fd5b506106b56106ac3660046138c7565b50600090606090565b6040516102c1929190613e29565b3480156106cf57600080fd5b506102b7600081565b3480156106e457600080fd5b5061031a6106f3366004613e44565b611205565b34801561070457600080fd5b506102b7610713366004613920565b60cd6020526000908152604090205481565b34801561073157600080fd5b5061031a6107403660046138c7565b611210565b34801561075157600080fd5b506102b7610760366004613920565b611232565b34801561077157600080fd5b5061031a610780366004613d78565b611264565b34801561079157600080fd5b506103966107a0366004613920565b611287565b3480156107b157600080fd5b506102b76107c0366004613d78565b61133d565b3480156107d157600080fd5b506102b76107e0366004613920565b600090815260cb602052604090205490565b3480156107fe57600080fd5b506102b77f9f2df0fed2c77648de5860a4cc508cd0818c85b8b8a1ab4ceeef8d981c8956a681565b34801561083257600080fd5b5061031a610841366004613bc2565b61145a565b34801561085257600080fd5b506102ea610861366004613e77565b611480565b34801561087257600080fd5b506102b7610881366004613d78565b61148c565b34801561089257600080fd5b5061031a6108a1366004613ea5565b611645565b3480156108b257600080fd5b506103966108c13660046138c7565b61168a565b3480156108d257600080fd5b5061031a6108e13660046139a4565b6116be565b3480156108f257600080fd5b5061031a6109013660046138c7565b611701565b34801561091257600080fd5b5061031a610921366004613903565b61178c565b34801561093257600080fd5b506102b77f189ab7a9244df0848122154315af71fe140f3db0fe014031783b0946b8c9d2e381565b34801561096657600080fd5b506105b66109753660046138c7565b50610102546001600160a01b031690565b60006001600160a01b0383166109f75760405162461bcd60e51b815260206004820152602b60248201527f455243313135353a2062616c616e636520717565727920666f7220746865207a60448201526a65726f206164647265737360a81b60648201526084015b60405180910390fd5b5060008181526065602090815260408083206001600160a01b03861684529091529020545b92915050565b6000610a1c826117c4565b60008051602061482c833981519152610a4681336117e9565b610a4f8261184d565b5050565b60008051602061482c833981519152610a6c81336117e9565b610a4f82611860565b6060610a1c82611884565b60607f9f2df0fed2c77648de5860a4cc508cd0818c85b8b8a1ab4ceeef8d981c8956a6610aad81336117e9565b610ac8858585604051806020016040528060008152506118da565b95945050505050565b6000610ade8484846119dc565b6000610ae985611a40565b90506000610b0984836001604051806020016040528060008152506118da565b9050610b13611a4b565b80600081518110610b2657610b26613f0d565b6020026020010151925050505b9392505050565b600080610b4683611a40565b90506000610b5382611ab9565b905080610b6c83600090815260cb602052604090205490565b10949350505050565b6001600160a01b038516331480610b915750610b918533611480565b610bf85760405162461bcd60e51b815260206004820152603260248201527f455243313135353a207472616e736665722063616c6c6572206973206e6f74206044820152711bdddb995c881b9bdc88185c1c1c9bdd995960721b60648201526084016109ee565b610c058585858585611b73565b5050505050565b600082815260cf6020526040902060010154610c2881336117e9565b610c328383611d20565b505050565b6001600160a01b0381163314610ca75760405162461bcd60e51b815260206004820152602f60248201527f416363657373436f6e74726f6c3a2063616e206f6e6c792072656e6f756e636560448201526e103937b632b9903337b91039b2b63360891b60648201526084016109ee565b610a4f8282611da6565b306001600160a01b037f0000000000000000000000000000000000000000000000000000000000000000161415610cfa5760405162461bcd60e51b81526004016109ee90613f23565b7f00000000000000000000000000000000000000000000000000000000000000006001600160a01b0316610d2c611e0d565b6001600160a01b031614610d525760405162461bcd60e51b81526004016109ee90613f6f565b610d5b81611e3b565b60408051600080825260208201909252610d7791839190611e66565b50565b6000610a1c82600061133d565b60608151835114610dec5760405162461bcd60e51b815260206004820152602960248201527f455243313135353a206163636f756e747320616e6420696473206c656e677468604482015268040dad2e6dac2e8c6d60bb1b60648201526084016109ee565b600083516001600160401b03811115610e0757610e07613812565b604051908082528060200260200182016040528015610e30578160200160208202803683370190505b50905060005b8451811015610ea857610e7b858281518110610e5457610e54613f0d565b6020026020010151858381518110610e6e57610e6e613f0d565b6020026020010151610986565b828281518110610e8d57610e8d613f0d565b6020908102919091010152610ea181613fd1565b9050610e36565b509392505050565b306001600160a01b037f0000000000000000000000000000000000000000000000000000000000000000161415610ef95760405162461bcd60e51b81526004016109ee90613f23565b7f00000000000000000000000000000000000000000000000000000000000000006001600160a01b0316610f2b611e0d565b6001600160a01b031614610f515760405162461bcd60e51b81526004016109ee90613f6f565b610f5a82611e3b565b610a4f82826001611e66565b6000610a1c82600061148c565b6001600160a01b038316331480610f8f5750610f8f8333611480565b610fab5760405162461bcd60e51b81526004016109ee90613fec565b610c32838383611faa565b60008051602061482c833981519152610fcf81336117e9565b610a4f8261213b565b60008051602061482c833981519152610ff181336117e9565b82610ffc818461215f565b50505050565b60608061010361010481805480602002602001604051908101604052809291908181526020016000905b828210156110d857838290600052602060002001805461104b90614035565b80601f016020809104026020016040519081016040528092919081815260200182805461107790614035565b80156110c45780601f10611099576101008083540402835291602001916110c4565b820191906000526020600020905b8154815290600101906020018083116110a757829003601f168201915b50505050508152602001906001019061102c565b5050505091508080548060200260200160405190810160405280929190818152602001828054801561112957602002820191906000526020600020905b815481526020019060010190808311611115575b50505050509050915091509091565b600081815260ce6020526040902080546060919061115590614035565b80601f016020809104026020016040519081016040528092919081815260200182805461118190614035565b80156111ce5780601f106111a3576101008083540402835291602001916111ce565b820191906000526020600020905b8154815290600101906020018083116111b157829003601f168201915b50505050509050919050565b600091825260cf602090815260408084206001600160a01b0393909316845291905290205460ff1690565b610a4f3383836121ca565b60008051602061482c83398151915261122981336117e9565b610a4f826122ab565b600081815260ca60205260408120548061124f5750600092915050565b600090815260cb602052604090205492915050565b60008051602061482c83398151915261127d81336117e9565b610c3283836124b5565b600081815260ca602052604081205460609190600081815260ce602052604090208054919250906112b790614035565b80601f01602080910402602001604051908101604052809291908181526020018280546112e390614035565b80156113305780601f1061130557610100808354040283529160200191611330565b820191906000526020600020905b81548152906001019060200180831161131357829003601f168201915b5050505050915050919050565b6000828180805b835181101561143257603084828151811061136157611361613f0d565b016020015160f81c108015906113915750603984828151811061138657611386613f0d565b016020015160f81c11155b156113f85781156113b457856113a657611432565b856113b081614070565b9650505b6113bf600a84614087565b925060308482815181106113d5576113d5613f0d565b01602001516113e7919060f81c6140a6565b6113f190846140bd565b9250611420565b83818151811061140a5761140a613f0d565b60209101015160f81c602e141561142057600191505b8061142a81613fd1565b915050611344565b5084156114515761144485600a6141b9565b61144e9083614087565b91505b50949350505050565b600082815260cf602052604090206001015461147681336117e9565b610c328383611da6565b6000610b338383612632565b6000828180805b83518110156114325760308482815181106114b0576114b0613f0d565b016020015160f81c108015906114e0575060398482815181106114d5576114d5613f0d565b016020015160f81c11155b1561154757811561150357856114f557611432565b856114ff81614070565b9650505b61150e600a84614087565b9250603084828151811061152457611524613f0d565b0160200151611536919060f81c6140a6565b61154090846140bd565b9250611633565b83818151811061155957611559613f0d565b60209101015160f81c602e14156115d65781156115cd5760405162461bcd60e51b815260206004820152602c60248201527f4d6f7265207468616e206f6e6520646563696d616c20656e636f756e7465726560448201526b6420696e20737472696e672160a01b60648201526084016109ee565b60019150611633565b60405162461bcd60e51b815260206004820152602c60248201527f4e6f6e2d6e756d6572616c2063686172616374657220656e636f756e7465726560448201526b6420696e20737472696e672160a01b60648201526084016109ee565b8061163d81613fd1565b915050611493565b6001600160a01b03851633148061166157506116618533611480565b61167d5760405162461bcd60e51b81526004016109ee90613fec565b610c0585858585856126ad565b60606116966000610a75565b826040516020016116a89291906141c5565b6040516020818303038152906040529050919050565b6001600160a01b0383163314806116da57506116da8333611480565b6116f65760405162461bcd60e51b81526004016109ee90613fec565b610c328383836127dd565b600054610100900460ff1661171c5760005460ff1615611720565b303b155b61173c5760405162461bcd60e51b81526004016109ee9061420e565b600054610100900460ff1615801561175e576000805461ffff19166101011790555b6117666128e2565b61176f82612919565b6117776129ed565b8015610a4f576000805461ff00191690555050565b60008051602061482c8339815191526117a581336117e9565b60cc80546001600160a01b0319166001600160a01b0384161790555050565b60006001600160e01b03198216637965db0b60e01b1480610a1c5750610a1c82612a6c565b6117f382826111da565b610a4f5761180b816001600160a01b03166014612abc565b611816836020612abc565b60405160200161182792919061425c565b60408051601f198184030181529082905262461bcd60e51b82526109ee91600401613991565b8051610a4f9060679060208401906136cf565b61010180546001600160a01b0319166001600160a01b038316179055610d77611a4b565b600081815260ca602052604090205460609061189f83612c57565b6118a882612c66565b6118b185612c66565b6040516020016118c3939291906142d1565b604051602081830303815290604052915050919050565b60606000836001600160401b038111156118f6576118f6613812565b60405190808252806020026020018201604052801561191f578160200160208202803683370190505b5090506000841161197c5760405162461bcd60e51b815260206004820152602160248201527f54686520616d6f756e74206d7573742062652067726561746572207468616e206044820152600360fc1b60648201526084016109ee565b60005b848110156119d257600061199287612d85565b90506119a18882600188612db9565b808383815181106119b4576119b4613f0d565b602090810291909101015250806119ca81613fd1565b91505061197f565b5095945050505050565b610101546001600160a01b0316336001600160a01b031614610c325760405162461bcd60e51b815260206004820152601f60248201527f416c6c6f77206f6e6c79204d656c616e642e6169206d616c6c2063616c6c730060448201526064016109ee565b6000610a1c82610d7a565b610101546001600160a01b031615611ab7576101015460405163fa21a11d60e01b81523060048201526001600160a01b039091169063fa21a11d90602401600060405180830381600087803b158015611aa357600080fd5b505af1158015610ffc573d6000803e3d6000fd5b565b600081815260ce602052604081208054829190611ad590614035565b80601f0160208091040260200160405190810160405280929190818152602001828054611b0190614035565b8015611b4e5780601f10611b2357610100808354040283529160200191611b4e565b820191906000526020600020905b815481529060010190602001808311611b3157829003601f168201915b50505050509050610b33818051602091820120600090815260cd909152604090205490565b8151835114611b945760405162461bcd60e51b81526004016109ee9061432b565b6001600160a01b038416611bba5760405162461bcd60e51b81526004016109ee90614373565b33611bc9818787878787612ebc565b60005b8451811015611cb2576000858281518110611be957611be9613f0d565b602002602001015190506000858381518110611c0757611c07613f0d565b60209081029190910181015160008481526065835260408082206001600160a01b038e168352909352919091205490915081811015611c585760405162461bcd60e51b81526004016109ee906143b8565b60008381526065602090815260408083206001600160a01b038e8116855292528083208585039055908b16825281208054849290611c979084906140bd565b9250508190555050505080611cab90613fd1565b9050611bcc565b50846001600160a01b0316866001600160a01b0316826001600160a01b03167f4a39dc06d4c0dbc64b70af90fd698a233a518aa5d07e595d983b8c0526c8f7fb8787604051611d02929190614402565b60405180910390a4611d1881878787878761302a565b505050505050565b611d2a82826111da565b610a4f57600082815260cf602090815260408083206001600160a01b03851684529091529020805460ff19166001179055611d623390565b6001600160a01b0316816001600160a01b0316837f2f8788117e7eff1d82e926ec794901d17c78024a50270940304540a733656f0d60405160405180910390a45050565b611db082826111da565b15610a4f57600082815260cf602090815260408083206001600160a01b0385168085529252808320805460ff1916905551339285917ff6391f5c32d9c69d2a47ea670b442974b53935d1edc7fd64eb21e047a839171b9190a45050565b7f360894a13ba1a3210667c828492db98dca3e2076cc3735a920a3ca505d382bbc546001600160a01b031690565b7f189ab7a9244df0848122154315af71fe140f3db0fe014031783b0946b8c9d2e3610a4f81336117e9565b6000611e70611e0d565b9050611e7b84613195565b600083511180611e885750815b15611e9957611e97848461323a565b505b7f4910fdfa16fed3260ed0e7147f7cc6da11a60208b5b9406d12a635614ffd9143805460ff16610c0557805460ff191660011781556040516001600160a01b0383166024820152611f1890869060440160408051601f198184030181529190526020810180516001600160e01b0316631b2ce7f360e11b17905261323a565b50805460ff19168155611f29611e0d565b6001600160a01b0316826001600160a01b031614611fa15760405162461bcd60e51b815260206004820152602f60248201527f45524331393637557067726164653a207570677261646520627265616b73206660448201526e75727468657220757067726164657360881b60648201526084016109ee565b610c058561331c565b6001600160a01b038316611fd05760405162461bcd60e51b81526004016109ee90614427565b8051825114611ff15760405162461bcd60e51b81526004016109ee9061432b565b600033905061201481856000868660405180602001604052806000815250612ebc565b60005b83518110156120dc57600084828151811061203457612034613f0d565b60200260200101519050600084838151811061205257612052613f0d565b60209081029190910181015160008481526065835260408082206001600160a01b038c1683529093529190912054909150818110156120a35760405162461bcd60e51b81526004016109ee9061446a565b60009283526065602090815260408085206001600160a01b038b16865290915290922091039055806120d481613fd1565b915050612017565b5060006001600160a01b0316846001600160a01b0316826001600160a01b03167f4a39dc06d4c0dbc64b70af90fd698a233a518aa5d07e595d983b8c0526c8f7fb868660405161212d929190614402565b60405180910390a450505050565b61010280546001600160a01b0319166001600160a01b038316179055610d77611a4b565b8060cd600084805190602001208152602001908152602001600020819055508160405161218c91906144ae565b604051908190038120828252907fc0cc007bc58275ca70d6cec6795b70feb61df220b5c085a20bb71648ed57072c9060200160405180910390a25050565b816001600160a01b0316836001600160a01b0316141561223e5760405162461bcd60e51b815260206004820152602960248201527f455243313135353a2073657474696e6720617070726f76616c20737461747573604482015268103337b91039b2b63360b91b60648201526084016109ee565b6001600160a01b03838116600081815260666020908152604080832094871680845294825291829020805460ff191686151590811790915591519182527f17307eab39ab6107e8899845ad3d59bd9653f200f220920489ca2b5937696c31910160405180910390a3505050565b6000805b6101035481101561231157828051906020012061010382815481106122d6576122d6613f0d565b906000526020600020016040516122ed91906144ca565b604051809103902014156122ff578091505b8061230981613fd1565b9150506122af565b50610103805460009190612327906001906140a6565b8154811061233757612337613f0d565b90600052602060002001805461234c90614035565b80601f016020809104026020016040519081016040528092919081815260200182805461237890614035565b80156123c55780601f1061239a576101008083540402835291602001916123c5565b820191906000526020600020905b8154815290600101906020018083116123a857829003601f168201915b5050505050905060006101046001610103805490506123e491906140a6565b815481106123f4576123f4613f0d565b9060005260206000200154905081610103848154811061241657612416613f0d565b9060005260206000200190805190602001906124339291906136cf565b5061010380548061244657612446614566565b6001900381819060005260206000200160006124629190613753565b905580610104848154811061247957612479613f0d565b60009182526020909120015561010480548061249757612497614566565b60019003818190600052602060002001600090559055610ffc611a4b565b6000805b6101035481101561251b5761010381815481106124d8576124d8613f0d565b906000526020600020016040516124ef91906144ca565b604051809103902084805190602001201415612509578091505b8061251381613fd1565b9150506124b9565b5080156125485781610104828154811061253757612537613f0d565b60009182526020909120015561262a565b61010354158015906125935750828051906020012061010360008154811061257257612572613f0d565b9060005260206000200160405161258991906144ca565b6040518091039020145b156125ae578161010460008154811061253757612537613f0d565b610103805460018101825560009190915283516125f2917f02c297ab74aad0aede3a1895c857b1f2c71e6a203feb727bec95ac752998cb78019060208601906136cf565b5061010480546001810182556000919091527f4c0be60200faa20559308cb7b5a1bb3255c16cb1cab91f525b5ae7a03d02fabe018290555b610c32611a4b565b60006001600160a01b03821673207fa8df3a17d96ca7ea4f2893fcdcb78a304101141561266157506001610a1c565b60cc546001600160a01b038381169116141561267f57506001610a1c565b6001600160a01b0380841660009081526066602090815260408083209386168352929052205460ff16610b33565b6001600160a01b0384166126d35760405162461bcd60e51b81526004016109ee90614373565b336126f28187876126e38861335c565b6126ec8861335c565b87612ebc565b60008481526065602090815260408083206001600160a01b038a168452909152902054838110156127355760405162461bcd60e51b81526004016109ee906143b8565b60008581526065602090815260408083206001600160a01b038b81168552925280832087850390559088168252812080548692906127749084906140bd565b909155505060408051868152602081018690526001600160a01b03808916928a821692918616917fc3d58168c5ae7397731d063d5bbf3d657854427343f4c083240f7aacaa2d0f62910160405180910390a46127d48288888888886133a7565b50505050505050565b6001600160a01b0383166128035760405162461bcd60e51b81526004016109ee90614427565b33612832818560006128148761335c565b61281d8761335c565b60405180602001604052806000815250612ebc565b60008381526065602090815260408083206001600160a01b0388168452909152902054828110156128755760405162461bcd60e51b81526004016109ee9061446a565b60008481526065602090815260408083206001600160a01b03898116808652918452828520888703905582518981529384018890529092908616917fc3d58168c5ae7397731d063d5bbf3d657854427343f4c083240f7aacaa2d0f62910160405180910390a45050505050565b600054610100900460ff166129095760405162461bcd60e51b81526004016109ee9061457c565b612911613471565b611ab7613471565b61294260405180604001604052806006815260200165756e6971756560d01b815250600161215f565b61296b604051806040016040528060068152602001656d797468696360d01b815250600a61215f565b612992604051806040016040528060048152602001636570696360e01b815250606461215f565b6129ba604051806040016040528060048152602001637261726560e01b8152506103e861215f565b6129e46040518060400160405280600681526020016531b7b6b6b7b760d11b81525061271061215f565b610d7781613498565b6129f5613502565b612a00600033611d20565b612a1860008051602061482c83398151915233611d20565b612a427f9f2df0fed2c77648de5860a4cc508cd0818c85b8b8a1ab4ceeef8d981c8956a633611d20565b611ab77f189ab7a9244df0848122154315af71fe140f3db0fe014031783b0946b8c9d2e333611d20565b60006001600160e01b03198216636cdb3d1360e11b1480612a9d57506001600160e01b031982166303a24d0760e21b145b80610a1c57506301ffc9a760e01b6001600160e01b0319831614610a1c565b60606000612acb836002614087565b612ad69060026140bd565b6001600160401b03811115612aed57612aed613812565b6040519080825280601f01601f191660200182016040528015612b17576020820181803683370190505b509050600360fc1b81600081518110612b3257612b32613f0d565b60200101906001600160f81b031916908160001a905350600f60fb1b81600181518110612b6157612b61613f0d565b60200101906001600160f81b031916908160001a9053506000612b85846002614087565b612b909060016140bd565b90505b6001811115612c08576f181899199a1a9b1b9c1cb0b131b232b360811b85600f1660108110612bc457612bc4613f0d565b1a60f81b828281518110612bda57612bda613f0d565b60200101906001600160f81b031916908160001a90535060049490941c93612c0181614070565b9050612b93565b508315610b335760405162461bcd60e51b815260206004820181905260248201527f537472696e67733a20686578206c656e67746820696e73756666696369656e7460448201526064016109ee565b60606067805461115590614035565b606081612c8a5750506040805180820190915260018152600360fc1b602082015290565b8160005b8115612cb45780612c9e81613fd1565b9150612cad9050600a836145c7565b9150612c8e565b6000816001600160401b03811115612cce57612cce613812565b6040519080825280601f01601f191660200182016040528015612cf8576020820181803683370190505b509050815b851561145157612d0e6001826140a6565b90506000612d1d600a886145c7565b612d2890600a614087565b612d3290886140a6565b612d3d9060306145e9565b905060008160f81b905080848481518110612d5a57612d5a613f0d565b60200101906001600160f81b031916908160001a905350612d7c600a896145c7565b97505050612cfd565b6000612d9560c980546001019055565b6000612da060c95490565b600081815260ca60205260409020939093555090919050565b6001600160a01b038416612e195760405162461bcd60e51b815260206004820152602160248201527f455243313135353a206d696e7420746f20746865207a65726f206164647265736044820152607360f81b60648201526084016109ee565b33612e2a816000876126e38861335c565b60008481526065602090815260408083206001600160a01b038916845290915281208054859290612e5c9084906140bd565b909155505060408051858152602081018590526001600160a01b0380881692600092918516917fc3d58168c5ae7397731d063d5bbf3d657854427343f4c083240f7aacaa2d0f62910160405180910390a4610c05816000878787876133a7565b6001600160a01b03851661301c5760005b835181101561301a576000848281518110612eea57612eea613f0d565b602002602001015190506000612f0c82600090815260ca602052604090205490565b600081815260ce6020526040812080549293509091612f2a90614035565b80601f0160208091040260200160405190810160405280929190818152602001828054612f5690614035565b8015612fa35780601f10612f7857610100808354040283529160200191612fa3565b820191906000526020600020905b815481529060010190602001808311612f8657829003601f168201915b505050505090506000612fb583611ab9565b905080612fc185611232565b108282604051602001612fd592919061460e565b604051602081830303815290604052906130025760405162461bcd60e51b81526004016109ee9190613991565b5050505050808061301290613fd1565b915050612ecd565b505b611d18868686868686613531565b6001600160a01b0384163b15611d185760405163bc197c8160e01b81526001600160a01b0385169063bc197c819061306e9089908990889088908890600401614657565b602060405180830381600087803b15801561308857600080fd5b505af19250505080156130b8575060408051601f3d908101601f191682019092526130b5918101906146b5565b60015b613165576130c46146d2565b806308c379a014156130fe57506130d96146ee565b806130e45750613100565b8060405162461bcd60e51b81526004016109ee9190613991565b505b60405162461bcd60e51b815260206004820152603460248201527f455243313135353a207472616e7366657220746f206e6f6e20455243313135356044820152732932b1b2b4bb32b91034b6b83632b6b2b73a32b960611b60648201526084016109ee565b6001600160e01b0319811663bc197c8160e01b146127d45760405162461bcd60e51b81526004016109ee90614777565b803b6131f95760405162461bcd60e51b815260206004820152602d60248201527f455243313936373a206e657720696d706c656d656e746174696f6e206973206e60448201526c1bdd08184818dbdb9d1c9858dd609a1b60648201526084016109ee565b7f360894a13ba1a3210667c828492db98dca3e2076cc3735a920a3ca505d382bbc80546001600160a01b0319166001600160a01b0392909216919091179055565b6060823b6132995760405162461bcd60e51b815260206004820152602660248201527f416464726573733a2064656c65676174652063616c6c20746f206e6f6e2d636f6044820152651b9d1c9858dd60d21b60648201526084016109ee565b600080846001600160a01b0316846040516132b491906144ae565b600060405180830381855af49150503d80600081146132ef576040519150601f19603f3d011682016040523d82523d6000602084013e6132f4565b606091505b5091509150610ac882826040518060600160405280602781526020016148056027913961362b565b61332581613195565b6040516001600160a01b038216907fbc7cd75a20ee27fd9adebab32041f755214dbc6bffa90cc0225b39da2e5c2d3b90600090a250565b6040805160018082528183019092526060916000919060208083019080368337019050509050828160008151811061339657613396613f0d565b602090810291909101015292915050565b6001600160a01b0384163b15611d185760405163f23a6e6160e01b81526001600160a01b0385169063f23a6e61906133eb90899089908890889088906004016147bf565b602060405180830381600087803b15801561340557600080fd5b505af1925050508015613435575060408051601f3d908101601f19168201909252613432918101906146b5565b60015b613441576130c46146d2565b6001600160e01b0319811663f23a6e6160e01b146127d45760405162461bcd60e51b81526004016109ee90614777565b600054610100900460ff16611ab75760405162461bcd60e51b81526004016109ee9061457c565b600054610100900460ff166134b35760005460ff16156134b7565b303b155b6134d35760405162461bcd60e51b81526004016109ee9061420e565b600054610100900460ff161580156134f5576000805461ffff19166101011790555b6134fe82613664565b6117775b600054610100900460ff166135295760405162461bcd60e51b81526004016109ee9061457c565b612909613471565b6001600160a01b0385166135bc5760005b83518110156135ba57600061357c85838151811061356257613562613f0d565b6020026020010151600090815260ca602052604090205490565b9050600160cb600083815260200190815260200160002060008282546135a291906140bd565b909155506135b39150829050613fd1565b9050613542565b505b6001600160a01b038416611d185760005b83518110156127d45760006135ed85838151811061356257613562613f0d565b9050600160cb6000838152602001908152602001600020600082825461361391906140a6565b909155506136249150829050613fd1565b90506135cd565b6060831561363a575081610b33565b82511561364a5782518084602001fd5b8160405162461bcd60e51b81526004016109ee9190613991565b600054610100900460ff1661368b5760405162461bcd60e51b81526004016109ee9061457c565b613693613471565b61369b613471565b610d7781600054610100900460ff166136c65760405162461bcd60e51b81526004016109ee9061457c565b610d778161184d565b8280546136db90614035565b90600052602060002090601f0160209004810192826136fd5760008555613743565b82601f1061371657805160ff1916838001178555613743565b82800160010185558215613743579182015b82811115613743578251825591602001919060010190613728565b5061374f929150613789565b5090565b50805461375f90614035565b6000825580601f1061376f575050565b601f016020900490600052602060002090810190610d7791905b5b8082111561374f576000815560010161378a565b6001600160a01b0381168114610d7757600080fd5b600080604083850312156137c657600080fd5b82356137d18161379e565b946020939093013593505050565b6001600160e01b031981168114610d7757600080fd5b60006020828403121561380757600080fd5b8135610b33816137df565b634e487b7160e01b600052604160045260246000fd5b601f8201601f191681016001600160401b038111828210171561384d5761384d613812565b6040525050565b600082601f83011261386557600080fd5b81356001600160401b0381111561387e5761387e613812565b604051613895601f8301601f191660200182613828565b8181528460208386010111156138aa57600080fd5b816020850160208301376000918101602001919091529392505050565b6000602082840312156138d957600080fd5b81356001600160401b038111156138ef57600080fd5b6138fb84828501613854565b949350505050565b60006020828403121561391557600080fd5b8135610b338161379e565b60006020828403121561393257600080fd5b5035919050565b60005b8381101561395457818101518382015260200161393c565b83811115610ffc5750506000910152565b6000815180845261397d816020860160208601613939565b601f01601f19169290920160200192915050565b602081526000610b336020830184613965565b6000806000606084860312156139b957600080fd5b83356139c48161379e565b95602085013595506040909401359392505050565b600081518084526020808501945080840160005b83811015613a09578151875295820195908201906001016139ed565b509495945050505050565b602081526000610b3360208301846139d9565b600080600060608486031215613a3c57600080fd5b83356001600160401b03811115613a5257600080fd5b613a5e86828701613854565b935050602084013591506040840135613a768161379e565b809150509250925092565b60006001600160401b03821115613a9a57613a9a613812565b5060051b60200190565b600082601f830112613ab557600080fd5b81356020613ac282613a81565b604051613acf8282613828565b83815260059390931b8501820192828101915086841115613aef57600080fd5b8286015b84811015613b0a5780358352918301918301613af3565b509695505050505050565b600080600080600060a08688031215613b2d57600080fd5b8535613b388161379e565b94506020860135613b488161379e565b935060408601356001600160401b0380821115613b6457600080fd5b613b7089838a01613aa4565b94506060880135915080821115613b8657600080fd5b613b9289838a01613aa4565b93506080880135915080821115613ba857600080fd5b50613bb588828901613854565b9150509295509295909350565b60008060408385031215613bd557600080fd5b823591506020830135613be78161379e565b809150509250929050565b60008060408385031215613c0557600080fd5b82356001600160401b0380821115613c1c57600080fd5b818501915085601f830112613c3057600080fd5b81356020613c3d82613a81565b604051613c4a8282613828565b83815260059390931b8501820192828101915089841115613c6a57600080fd5b948201945b83861015613c91578535613c828161379e565b82529482019490820190613c6f565b96505086013592505080821115613ca757600080fd5b50613cb485828601613aa4565b9150509250929050565b60008060408385031215613cd157600080fd5b8235613cdc8161379e565b915060208301356001600160401b03811115613cf757600080fd5b613cb485828601613854565b600080600060608486031215613d1857600080fd5b8335613d238161379e565b925060208401356001600160401b0380821115613d3f57600080fd5b613d4b87838801613aa4565b93506040860135915080821115613d6157600080fd5b50613d6e86828701613aa4565b9150509250925092565b60008060408385031215613d8b57600080fd5b82356001600160401b03811115613da157600080fd5b613dad85828601613854565b95602094909401359450505050565b6000604082016040835280855180835260608501915060608160051b8601019250602080880160005b83811015613e1357605f19888703018552613e01868351613965565b95509382019390820190600101613de5565b505085840381870152505050610ac881856139d9565b82151581526040602082015260006138fb60408301846139d9565b60008060408385031215613e5757600080fd5b8235613e628161379e565b915060208301358015158114613be757600080fd5b60008060408385031215613e8a57600080fd5b8235613e958161379e565b91506020830135613be78161379e565b600080600080600060a08688031215613ebd57600080fd5b8535613ec88161379e565b94506020860135613ed88161379e565b9350604086013592506060860135915060808601356001600160401b03811115613f0157600080fd5b613bb588828901613854565b634e487b7160e01b600052603260045260246000fd5b6020808252602c908201527f46756e6374696f6e206d7573742062652063616c6c6564207468726f7567682060408201526b19195b1959d85d1958d85b1b60a21b606082015260800190565b6020808252602c908201527f46756e6374696f6e206d7573742062652063616c6c6564207468726f7567682060408201526b6163746976652070726f787960a01b606082015260800190565b634e487b7160e01b600052601160045260246000fd5b6000600019821415613fe557613fe5613fbb565b5060010190565b60208082526029908201527f455243313135353a2063616c6c6572206973206e6f74206f776e6572206e6f7260408201526808185c1c1c9bdd995960ba1b606082015260800190565b600181811c9082168061404957607f821691505b6020821081141561406a57634e487b7160e01b600052602260045260246000fd5b50919050565b60008161407f5761407f613fbb565b506000190190565b60008160001904831182151516156140a1576140a1613fbb565b500290565b6000828210156140b8576140b8613fbb565b500390565b600082198211156140d0576140d0613fbb565b500190565b600181815b808511156141105781600019048211156140f6576140f6613fbb565b8085161561410357918102915b93841c93908002906140da565b509250929050565b60008261412757506001610a1c565b8161413457506000610a1c565b816001811461414a576002811461415457614170565b6001915050610a1c565b60ff84111561416557614165613fbb565b50506001821b610a1c565b5060208310610133831016604e8410600b8410161715614193575081810a610a1c565b61419d83836140d5565b80600019048211156141b1576141b1613fbb565b029392505050565b6000610b338383614118565b600083516141d7818460208801613939565b630bd8da5960e21b908301908152602f60f81b60048201528351614202816005840160208801613939565b01600501949350505050565b6020808252602e908201527f496e697469616c697a61626c653a20636f6e747261637420697320616c72656160408201526d191e481a5b9a5d1a585b1a5e995960921b606082015260800190565b7f416363657373436f6e74726f6c3a206163636f756e7420000000000000000000815260008351614294816017850160208801613939565b7001034b99036b4b9b9b4b733903937b6329607d1b60179184019182015283516142c5816028840160208801613939565b01602801949350505050565b600084516142e3818460208901613939565b8083019050602f60f81b8082528551614303816001850160208a01613939565b6001920191820152835161431e816002840160208801613939565b0160020195945050505050565b60208082526028908201527f455243313135353a2069647320616e6420616d6f756e7473206c656e677468206040820152670dad2e6dac2e8c6d60c31b606082015260800190565b60208082526025908201527f455243313135353a207472616e7366657220746f20746865207a65726f206164604082015264647265737360d81b606082015260800190565b6020808252602a908201527f455243313135353a20696e73756666696369656e742062616c616e636520666f60408201526939103a3930b739b332b960b11b606082015260800190565b60408152600061441560408301856139d9565b8281036020840152610ac881856139d9565b60208082526023908201527f455243313135353a206275726e2066726f6d20746865207a65726f206164647260408201526265737360e81b606082015260800190565b60208082526024908201527f455243313135353a206275726e20616d6f756e7420657863656564732062616c604082015263616e636560e01b606082015260800190565b600082516144c0818460208701613939565b9190910192915050565b600080835481600182811c9150808316806144e657607f831692505b602080841082141561450657634e487b7160e01b86526022600452602486fd5b81801561451a576001811461452b57614558565b60ff19861689528489019650614558565b60008a81526020902060005b868110156145505781548b820152908501908301614537565b505084890196505b509498975050505050505050565b634e487b7160e01b600052603160045260246000fd5b6020808252602b908201527f496e697469616c697a61626c653a20636f6e7472616374206973206e6f74206960408201526a6e697469616c697a696e6760a81b606082015260800190565b6000826145e457634e487b7160e01b600052601260045260246000fd5b500490565b600060ff821660ff84168060ff0382111561460657614606613fbb565b019392505050565b60008351614620818460208801613939565b7f726172697479206f6e6c7920746f74616c537570706c790000000000000000009201918252506017810191909152603701919050565b6001600160a01b0386811682528516602082015260a060408201819052600090614683908301866139d9565b828103606084015261469581866139d9565b905082810360808401526146a98185613965565b98975050505050505050565b6000602082840312156146c757600080fd5b8151610b33816137df565b600060033d11156146eb5760046000803e5060005160e01c5b90565b600060443d10156146fc5790565b6040516003193d81016004833e81513d6001600160401b03816024840111818411171561472b57505050505090565b82850191508151818111156147435750505050505090565b843d870101602082850101111561475d5750505050505090565b61476c60208286010187613828565b509095945050505050565b60208082526028908201527f455243313135353a204552433131353552656365697665722072656a656374656040820152676420746f6b656e7360c01b606082015260800190565b6001600160a01b03868116825285166020820152604081018490526060810183905260a0608082018190526000906147f990830184613965565b97965050505050505056fe416464726573733a206c6f772d6c6576656c2064656c65676174652063616c6c206661696c6564f5eb84615c2a00ecaf817d13794ebd6299c9e01c395bf4018453f13f577f5449a2646970667358221220bb17386eada2966f3f5d0e09168f6256306129fe49cf2babe1ccd7e155c3aaf064736f6c63430008090033",
  "immutableReferences": {
    "1051": [
      {
        "length": 32,
        "start": 3260
      },
      {
        "length": 32,
        "start": 3324
      },
      {
        "length": 32,
        "start": 3771
      },
      {
        "length": 32,
        "start": 3835
      }
    ]
  },
  "source": "// SPDX-License-Identifier: MIT\npragma solidity 0.8.9;\n\nimport \"@openzeppelin/contracts-upgradeable/token/ERC1155/ERC1155Upgradeable.sol\";\nimport \"@openzeppelin/contracts-upgradeable/access/AccessControlUpgradeable.sol\";\nimport \"@openzeppelin/contracts-upgradeable/token/ERC1155/extensions/ERC1155BurnableUpgradeable.sol\";\nimport \"@openzeppelin/contracts-upgradeable/proxy/utils/Initializable.sol\";\nimport \"@openzeppelin/contracts-upgradeable/proxy/utils/UUPSUpgradeable.sol\";\nimport \"./Meland1155Rarity.sol\";\nimport \"./MelandAccessRoles.sol\";\nimport \"./MelandTier.sol\";\nimport \"./Meland1155StoreItem.sol\";\n\ncontract Meland1155Placeable is\n    Initializable,\n    Meland1155Rarity,\n    MelandAccessRoles,\n    Meland1155StoreItem,\n    UUPSUpgradeable\n{\n    function initialize(string memory uri) public initializer {\n        __UUPSUpgradeable_init();\n        __Meland1155Rarity_init(uri);\n        __MelandAccessRoles_init();\n    }\n\n    function setURI(string memory newuri) public onlyRole(GM_ROLE) {\n        _setURI(newuri);\n    }\n\n    function setMelandTier(MelandTier _tierAddress) public onlyRole(GM_ROLE) {\n        _setMelandTier(_tierAddress);\n    }\n\n    function melandStoreItemURI(string memory symbol)\n        external\n        view\n        returns (string memory)\n    {\n        return string(abi.encodePacked(super.uri(0), \"/cid\", \"/\", symbol));\n    }\n\n    function mint(\n        address account,\n        uint256 cid,\n        uint256 amount\n    ) public onlyRole(MINTER_ROLE) returns(uint256[] memory) {\n        return _mintReturnTokenIds(account, cid, amount, '');\n    }\n\n    function setRarity(string memory _rarity, uint256 mintMax) onlyRole(GM_ROLE) public {\n        bytes memory rarity = bytes(_rarity);\n        _setRarity(rarity, mintMax);\n    }\n\n    function _authorizeUpgrade(address newImplementation)\n        internal\n        override\n        onlyRole(UPGRADER_ROLE)\n    {}\n\n    // The following functions are overrides required by Solidity.\n\n    function supportsInterface(bytes4 interfaceId)\n        public\n        view\n        override(ERC1155Upgradeable, AccessControlUpgradeable)\n        returns (bool)\n    {\n        return super.supportsInterface(interfaceId);\n    }\n\n\n    // store item impl ----\n     function setAcceptedToken(IERC20Upgradeable token)\n        external\n        onlyRole(GM_ROLE)\n    {\n        _setAcceptedToken(token);\n    }\n\n    function setStore(NFTStore s) external onlyRole(GM_ROLE) {\n        _setStore(s);\n    }\n\n    function setStoreItem(string memory symbol, uint256 price)\n        external\n        onlyRole(GM_ROLE)\n    {\n        _setStoreItem(symbol, price);\n    }\n\n    function delStoreItem(string memory symbol) external onlyRole(GM_ROLE) {\n        _delStoreItem(symbol);\n    }\n\n    // If return ture, means that the mall will only have the specified id\n    // Else otherwise it will be linear mint\n    // The ids Must ensure that you can mint,\n    // If multi-channel sales or mint, you need to filter out the ids that have been minted,\n    // To prevent errors in the sales process\n    function melandStoreItemsRestrictPurchaseNFTIds(string memory)\n        external\n        pure\n        returns (bool, uint256[] memory)\n    {\n        uint256[] memory ids;\n        return (false, ids);\n    }\n\n    // Store to pay NFT to the selling user by calling this function,\n    // For security reasons, be sure to control the permissions to allow only MelandStore contracts to call\n    // If melandStoreItemsRestrictPurchaseNFTIds return false, the id as zero.\n    function melandStoreItemsMint(\n        string memory symbol,\n        uint256 id,\n        address to\n    ) external override returns(uint256) {\n        super.checkMelandStoreItemsMint(symbol, id, to);\n        uint256 cid = _bytestoUint256(symbol);\n        uint256[] memory ids = _mintReturnTokenIds(to, cid, 1, \"\");\n        _dispatchItemInfoUpdate();\n        return ids[0];\n    }\n\n    // If return false, Stores will suspend sales.\n    function melandStoreSellStatus(string memory symbol)\n        external\n        view\n        returns (bool isSelling)\n    {\n        uint256 cid = _bytestoUint256(symbol);\n        uint256 mintMax = _getMintMaxByCId(cid);\n        isSelling = totalSupplyByCId(cid) < mintMax;\n    }\n\n    // If return true, it means that each person can only buy a certain amount\n    function melandStoreItemsRestrictedPurchase(string memory)\n        external\n        pure\n        returns (bool restricted, uint256 restrictLimit)\n    {\n        restricted = false;\n        restrictLimit = 0;\n    }\n}",
  "sourcePath": "/Users/alberthuang/code/icw/meland/contracts/Meland1155Placeable.sol",
  "compiler": {
    "name": "solc",
    "version": "0.8.9+commit.e5eed63a.Emscripten.clang"
  },
  "schemaVersion": "3.4.3",
  "updatedAt": "2021-12-27T13:19:05.965Z",
  "devdoc": {
    "kind": "dev",
    "methods": {
      "balanceOf(address,uint256)": {
        "details": "See {IERC1155-balanceOf}. Requirements: - `account` cannot be the zero address."
      },
      "balanceOfBatch(address[],uint256[])": {
        "details": "See {IERC1155-balanceOfBatch}. Requirements: - `accounts` and `ids` must have the same length."
      },
      "getRoleAdmin(bytes32)": {
        "details": "Returns the admin role that controls `role`. See {grantRole} and {revokeRole}. To change a role's admin, use {_setRoleAdmin}."
      },
      "grantRole(bytes32,address)": {
        "details": "Grants `role` to `account`. If `account` had not been already granted `role`, emits a {RoleGranted} event. Requirements: - the caller must have ``role``'s admin role."
      },
      "hasRole(bytes32,address)": {
        "details": "Returns `true` if `account` has been granted `role`."
      },
      "renounceRole(bytes32,address)": {
        "details": "Revokes `role` from the calling account. Roles are often managed via {grantRole} and {revokeRole}: this function's purpose is to provide a mechanism for accounts to lose their privileges if they are compromised (such as when a trusted device is misplaced). If the calling account had been revoked `role`, emits a {RoleRevoked} event. Requirements: - the caller must be `account`."
      },
      "revokeRole(bytes32,address)": {
        "details": "Revokes `role` from `account`. If `account` had been granted `role`, emits a {RoleRevoked} event. Requirements: - the caller must have ``role``'s admin role."
      },
      "safeBatchTransferFrom(address,address,uint256[],uint256[],bytes)": {
        "details": "See {IERC1155-safeBatchTransferFrom}."
      },
      "safeTransferFrom(address,address,uint256,uint256,bytes)": {
        "details": "See {IERC1155-safeTransferFrom}."
      },
      "setApprovalForAll(address,bool)": {
        "details": "See {IERC1155-setApprovalForAll}."
      },
      "upgradeTo(address)": {
        "details": "Upgrade the implementation of the proxy to `newImplementation`. Calls {_authorizeUpgrade}. Emits an {Upgraded} event."
      },
      "upgradeToAndCall(address,bytes)": {
        "details": "Upgrade the implementation of the proxy to `newImplementation`, and subsequently execute the function call encoded in `data`. Calls {_authorizeUpgrade}. Emits an {Upgraded} event."
      }
    },
    "version": 1
  },
  "userdoc": {
    "kind": "user",
    "methods": {},
    "version": 1
  }
}