{"contractName":"Meland1155Land","abi":[{"anonymous":false,"inputs":[{"indexed":false,"internalType":"address","name":"previousAdmin","type":"address"},{"indexed":false,"internalType":"address","name":"newAdmin","type":"address"}],"name":"AdminChanged","type":"event"},{"anonymous":false,"inputs":[{"indexed":true,"internalType":"address","name":"account","type":"address"},{"indexed":true,"internalType":"address","name":"operator","type":"address"},{"indexed":false,"internalType":"bool","name":"approved","type":"bool"}],"name":"ApprovalForAll","type":"event"},{"anonymous":false,"inputs":[{"indexed":true,"internalType":"address","name":"beacon","type":"address"}],"name":"BeaconUpgraded","type":"event"},{"anonymous":false,"inputs":[{"indexed":false,"internalType":"bool","name":"_freezeEnabled","type":"bool"}],"name":"FreezeEnabledUpdate","type":"event"},{"anonymous":false,"inputs":[{"indexed":true,"internalType":"address","name":"_address","type":"address"},{"indexed":false,"internalType":"bool","name":"_bool","type":"bool"}],"name":"FreezeWhiteListUpdate","type":"event"},{"anonymous":false,"inputs":[{"indexed":true,"internalType":"bytes32","name":"role","type":"bytes32"},{"indexed":true,"internalType":"bytes32","name":"previousAdminRole","type":"bytes32"},{"indexed":true,"internalType":"bytes32","name":"newAdminRole","type":"bytes32"}],"name":"RoleAdminChanged","type":"event"},{"anonymous":false,"inputs":[{"indexed":true,"internalType":"bytes32","name":"role","type":"bytes32"},{"indexed":true,"internalType":"address","name":"account","type":"address"},{"indexed":true,"internalType":"address","name":"sender","type":"address"}],"name":"RoleGranted","type":"event"},{"anonymous":false,"inputs":[{"indexed":true,"internalType":"bytes32","name":"role","type":"bytes32"},{"indexed":true,"internalType":"address","name":"account","type":"address"},{"indexed":true,"internalType":"address","name":"sender","type":"address"}],"name":"RoleRevoked","type":"event"},{"anonymous":false,"inputs":[{"indexed":true,"internalType":"address","name":"operator","type":"address"},{"indexed":true,"internalType":"address","name":"from","type":"address"},{"indexed":true,"internalType":"address","name":"to","type":"address"},{"indexed":false,"internalType":"uint256[]","name":"ids","type":"uint256[]"},{"indexed":false,"internalType":"uint256[]","name":"values","type":"uint256[]"}],"name":"TransferBatch","type":"event"},{"anonymous":false,"inputs":[{"indexed":true,"internalType":"address","name":"operator","type":"address"},{"indexed":true,"internalType":"address","name":"from","type":"address"},{"indexed":true,"internalType":"address","name":"to","type":"address"},{"indexed":false,"internalType":"uint256","name":"id","type":"uint256"},{"indexed":false,"internalType":"uint256","name":"value","type":"uint256"}],"name":"TransferSingle","type":"event"},{"anonymous":false,"inputs":[{"indexed":false,"internalType":"string","name":"value","type":"string"},{"indexed":true,"internalType":"uint256","name":"id","type":"uint256"}],"name":"URI","type":"event"},{"anonymous":false,"inputs":[{"indexed":true,"internalType":"address","name":"implementation","type":"address"}],"name":"Upgraded","type":"event"},{"inputs":[],"name":"DEFAULT_ADMIN_ROLE","outputs":[{"internalType":"bytes32","name":"","type":"bytes32"}],"stateMutability":"view","type":"function"},{"inputs":[],"name":"GM_ROLE","outputs":[{"internalType":"bytes32","name":"","type":"bytes32"}],"stateMutability":"view","type":"function"},{"inputs":[],"name":"MINTER_ROLE","outputs":[{"internalType":"bytes32","name":"","type":"bytes32"}],"stateMutability":"view","type":"function"},{"inputs":[],"name":"UPGRADER_ROLE","outputs":[{"internalType":"bytes32","name":"","type":"bytes32"}],"stateMutability":"view","type":"function"},{"inputs":[{"internalType":"string","name":"","type":"string"}],"name":"acceptedToken","outputs":[{"internalType":"contract IERC20Upgradeable","name":"","type":"address"}],"stateMutability":"view","type":"function"},{"inputs":[{"internalType":"address","name":"account","type":"address"},{"internalType":"uint256","name":"id","type":"uint256"}],"name":"balanceOf","outputs":[{"internalType":"uint256","name":"","type":"uint256"}],"stateMutability":"view","type":"function"},{"inputs":[{"internalType":"address[]","name":"accounts","type":"address[]"},{"internalType":"uint256[]","name":"ids","type":"uint256[]"}],"name":"balanceOfBatch","outputs":[{"internalType":"uint256[]","name":"","type":"uint256[]"}],"stateMutability":"view","type":"function"},{"inputs":[{"internalType":"address","name":"account","type":"address"},{"internalType":"uint256","name":"id","type":"uint256"},{"internalType":"uint256","name":"value","type":"uint256"}],"name":"burn","outputs":[],"stateMutability":"nonpayable","type":"function"},{"inputs":[{"internalType":"address","name":"account","type":"address"},{"internalType":"uint256[]","name":"ids","type":"uint256[]"},{"internalType":"uint256[]","name":"values","type":"uint256[]"}],"name":"burnBatch","outputs":[],"stateMutability":"nonpayable","type":"function"},{"inputs":[{"internalType":"uint256","name":"","type":"uint256"}],"name":"ereezeExpiredAtMapById","outputs":[{"internalType":"uint256","name":"","type":"uint256"}],"stateMutability":"view","type":"function"},{"inputs":[{"internalType":"bytes32","name":"role","type":"bytes32"}],"name":"getRoleAdmin","outputs":[{"internalType":"bytes32","name":"","type":"bytes32"}],"stateMutability":"view","type":"function"},{"inputs":[{"internalType":"bytes32","name":"role","type":"bytes32"},{"internalType":"address","name":"account","type":"address"}],"name":"grantRole","outputs":[],"stateMutability":"nonpayable","type":"function"},{"inputs":[{"internalType":"bytes32","name":"role","type":"bytes32"},{"internalType":"address","name":"account","type":"address"}],"name":"hasRole","outputs":[{"internalType":"bool","name":"","type":"bool"}],"stateMutability":"view","type":"function"},{"inputs":[{"internalType":"uint256","name":"","type":"uint256"}],"name":"landtypeById","outputs":[{"internalType":"string","name":"","type":"string"}],"stateMutability":"view","type":"function"},{"inputs":[],"name":"melandStoreItems","outputs":[{"internalType":"string[]","name":"","type":"string[]"},{"internalType":"uint256[]","name":"","type":"uint256[]"}],"stateMutability":"view","type":"function"},{"inputs":[{"internalType":"string","name":"","type":"string"}],"name":"melandStoreReceipt","outputs":[{"internalType":"address","name":"receipt","type":"address"}],"stateMutability":"pure","type":"function"},{"inputs":[{"internalType":"string","name":"_a","type":"string"}],"name":"parseInt","outputs":[{"internalType":"uint256","name":"_parsedInt","type":"uint256"}],"stateMutability":"pure","type":"function"},{"inputs":[{"internalType":"string","name":"_a","type":"string"},{"internalType":"uint256","name":"_b","type":"uint256"}],"name":"parseInt","outputs":[{"internalType":"uint256","name":"_parsedInt","type":"uint256"}],"stateMutability":"pure","type":"function"},{"inputs":[{"internalType":"bytes32","name":"role","type":"bytes32"},{"internalType":"address","name":"account","type":"address"}],"name":"renounceRole","outputs":[],"stateMutability":"nonpayable","type":"function"},{"inputs":[{"internalType":"bytes32","name":"role","type":"bytes32"},{"internalType":"address","name":"account","type":"address"}],"name":"revokeRole","outputs":[],"stateMutability":"nonpayable","type":"function"},{"inputs":[{"internalType":"address","name":"from","type":"address"},{"internalType":"address","name":"to","type":"address"},{"internalType":"uint256[]","name":"ids","type":"uint256[]"},{"internalType":"uint256[]","name":"amounts","type":"uint256[]"},{"internalType":"bytes","name":"data","type":"bytes"}],"name":"safeBatchTransferFrom","outputs":[],"stateMutability":"nonpayable","type":"function"},{"inputs":[{"internalType":"string","name":"_a","type":"string"}],"name":"safeParseInt","outputs":[{"internalType":"uint256","name":"_parsedInt","type":"uint256"}],"stateMutability":"pure","type":"function"},{"inputs":[{"internalType":"string","name":"_a","type":"string"},{"internalType":"uint256","name":"_b","type":"uint256"}],"name":"safeParseInt","outputs":[{"internalType":"uint256","name":"_parsedInt","type":"uint256"}],"stateMutability":"pure","type":"function"},{"inputs":[{"internalType":"address","name":"from","type":"address"},{"internalType":"address","name":"to","type":"address"},{"internalType":"uint256","name":"id","type":"uint256"},{"internalType":"uint256","name":"amount","type":"uint256"},{"internalType":"bytes","name":"data","type":"bytes"}],"name":"safeTransferFrom","outputs":[],"stateMutability":"nonpayable","type":"function"},{"inputs":[{"internalType":"address","name":"operator","type":"address"},{"internalType":"bool","name":"approved","type":"bool"}],"name":"setApprovalForAll","outputs":[],"stateMutability":"nonpayable","type":"function"},{"inputs":[{"internalType":"bytes","name":"","type":"bytes"}],"name":"supportLandtypes","outputs":[{"internalType":"bool","name":"","type":"bool"}],"stateMutability":"view","type":"function"},{"inputs":[],"name":"ticketland","outputs":[{"internalType":"bytes","name":"","type":"bytes"}],"stateMutability":"view","type":"function"},{"inputs":[{"internalType":"uint256","name":"","type":"uint256"}],"name":"ticketlandIds","outputs":[{"internalType":"uint256","name":"","type":"uint256"}],"stateMutability":"view","type":"function"},{"inputs":[{"internalType":"bytes32","name":"","type":"bytes32"}],"name":"totalSupplyByLandtype","outputs":[{"internalType":"uint256","name":"","type":"uint256"}],"stateMutability":"view","type":"function"},{"inputs":[{"internalType":"address","name":"newImplementation","type":"address"}],"name":"upgradeTo","outputs":[],"stateMutability":"nonpayable","type":"function"},{"inputs":[{"internalType":"address","name":"newImplementation","type":"address"},{"internalType":"bytes","name":"data","type":"bytes"}],"name":"upgradeToAndCall","outputs":[],"stateMutability":"payable","type":"function"},{"inputs":[],"name":"vipland","outputs":[{"internalType":"bytes","name":"","type":"bytes"}],"stateMutability":"view","type":"function"},{"inputs":[{"internalType":"string","name":"_uri","type":"string"}],"name":"initialize","outputs":[],"stateMutability":"nonpayable","type":"function"},{"inputs":[{"internalType":"string","name":"newuri","type":"string"}],"name":"setURI","outputs":[],"stateMutability":"nonpayable","type":"function"},{"inputs":[{"internalType":"uint256","name":"id","type":"uint256"}],"name":"uri","outputs":[{"internalType":"string","name":"","type":"string"}],"stateMutability":"view","type":"function"},{"inputs":[{"internalType":"uint256[]","name":"ids","type":"uint256[]"}],"name":"addticketlandIds","outputs":[],"stateMutability":"nonpayable","type":"function"},{"inputs":[],"name":"claerticketlandIds","outputs":[],"stateMutability":"nonpayable","type":"function"},{"inputs":[{"internalType":"string","name":"symbol","type":"string"}],"name":"melandStoreItemURI","outputs":[{"internalType":"string","name":"","type":"string"}],"stateMutability":"view","type":"function"},{"inputs":[{"internalType":"address","name":"_owner","type":"address"},{"internalType":"address","name":"_operator","type":"address"}],"name":"isApprovedForAll","outputs":[{"internalType":"bool","name":"isOperator","type":"bool"}],"stateMutability":"view","type":"function"},{"inputs":[{"internalType":"address","name":"account","type":"address"},{"internalType":"uint256","name":"id","type":"uint256"},{"internalType":"uint256","name":"amount","type":"uint256"},{"internalType":"bytes","name":"landtype","type":"bytes"}],"name":"mint","outputs":[],"stateMutability":"nonpayable","type":"function"},{"inputs":[{"internalType":"address","name":"_account","type":"address"},{"internalType":"bool","name":"_bool","type":"bool"}],"name":"setFreezeWhiteList","outputs":[],"stateMutability":"nonpayable","type":"function"},{"inputs":[{"internalType":"contract MelandTier","name":"_tierAddress","type":"address"}],"name":"setMelandTier","outputs":[],"stateMutability":"nonpayable","type":"function"},{"inputs":[{"internalType":"bool","name":"_bool","type":"bool"}],"name":"setFreezeEnabled","outputs":[],"stateMutability":"nonpayable","type":"function"},{"inputs":[{"internalType":"address","name":"to","type":"address"},{"internalType":"uint256[]","name":"ids","type":"uint256[]"},{"internalType":"uint256[]","name":"amounts","type":"uint256[]"},{"internalType":"bytes","name":"landtype","type":"bytes"}],"name":"mintBatch","outputs":[],"stateMutability":"nonpayable","type":"function"},{"inputs":[{"internalType":"bytes4","name":"interfaceId","type":"bytes4"}],"name":"supportsInterface","outputs":[{"internalType":"bool","name":"","type":"bool"}],"stateMutability":"view","type":"function"},{"inputs":[{"internalType":"contract IERC20Upgradeable","name":"token","type":"address"}],"name":"setAcceptedToken","outputs":[],"stateMutability":"nonpayable","type":"function"},{"inputs":[{"internalType":"contract NFTStore","name":"s","type":"address"}],"name":"setStore","outputs":[],"stateMutability":"nonpayable","type":"function"},{"inputs":[{"internalType":"string","name":"symbol","type":"string"},{"internalType":"uint256","name":"p","type":"uint256"}],"name":"setStoreItem","outputs":[],"stateMutability":"nonpayable","type":"function"},{"inputs":[{"internalType":"string","name":"symbol","type":"string"}],"name":"delStoreItem","outputs":[],"stateMutability":"nonpayable","type":"function"},{"inputs":[{"internalType":"string","name":"","type":"string"}],"name":"melandStoreItemsRestrictPurchaseNFTIds","outputs":[{"internalType":"bool","name":"","type":"bool"},{"internalType":"uint256[]","name":"","type":"uint256[]"}],"stateMutability":"view","type":"function"},{"inputs":[{"internalType":"string","name":"symbol","type":"string"},{"internalType":"uint256","name":"id","type":"uint256"},{"internalType":"address","name":"to","type":"address"}],"name":"melandStoreItemsMint","outputs":[{"internalType":"uint256","name":"","type":"uint256"}],"stateMutability":"nonpayable","type":"function"},{"inputs":[{"internalType":"string","name":"","type":"string"}],"name":"melandStoreSellStatus","outputs":[{"internalType":"bool","name":"","type":"bool"}],"stateMutability":"view","type":"function"},{"inputs":[{"internalType":"string","name":"","type":"string"}],"name":"melandStoreItemsRestrictedPurchase","outputs":[{"internalType":"bool","name":"restricted","type":"bool"},{"internalType":"uint256","name":"restrictLimit","type":"uint256"}],"stateMutability":"pure","type":"function"}],"bytecode":"0x60a06040523060805234801561001457600080fd5b50608051614fbe61004560003960008181610f4501528181610f850152818161114401526111840152614fbe6000f3fe6080604052600436106103195760003560e01c806371d42be5116101ab578063bdb7b5dd116100f7578063f3a7768911610095578063f62d18881161006f578063f62d188814610a2a578063f70e9a4714610a4a578063f72c0d8b14610a6a578063fcc6dd5714610a9e57600080fd5b8063f3a77689146109ca578063f405a584146109ea578063f5298aca14610a0a57600080fd5b8063d547741f116100d1578063d547741f1461094a578063e985e9c51461096a578063ed9be4321461098a578063f242432a146109aa57600080fd5b8063bdb7b5dd146108e8578063bf4d89b514610908578063d53913931461092857600080fd5b806391d1485411610164578063a22cb4651161013e578063a22cb46514610852578063afd600f314610872578063b05462e614610892578063b0c208bc146108c857600080fd5b806391d14854146107ef5780639f89e7691461080f578063a217fddf1461083d57600080fd5b806371d42be514610719578063731133e9146107395780637487f5281461075957806383c6c37d1461077957806388beda00146107995780638b31e62d146107cc57600080fd5b80632eb2c2d61161026a57806342346c5e1161022357806352121f09116101fd57806352121f091461065f5780635eccb30c1461068d578063664033d5146106ad5780636b20c454146106f957600080fd5b806342346c5e146105ff5780634e1273f41461061f5780634f1ef2861461064c57600080fd5b80632eb2c2d61461053d5780632f2ff15d1461055d57806330c7be2c1461057d57806333a383b01461059f57806336568abe146105bf5780633659cfe6146105df57600080fd5b80630e89341c116102d75780631ba43d2b116102b15780631ba43d2b146104b35780631f7fdffa146104d8578063248a9ca3146104f85780632e95dd611461052857600080fd5b80630e89341c146104395780631a8c2e80146104665780631a98cef21461048657600080fd5b8062fdd58e1461031e57806301ffc9a71461035157806302fe5305146103815780630820c90d146103a3578063087cbd40146103dd5780630b5a6d86146103fd575b600080fd5b34801561032a57600080fd5b5061033e610339366004613d23565b610aca565b6040519081526020015b60405180910390f35b34801561035d57600080fd5b5061037161036c366004613d65565b610b66565b6040519015158152602001610348565b34801561038d57600080fd5b506103a161039c366004613e37565b610b71565b005b3480156103af57600080fd5b506103c66103be366004613e37565b506001908190565b604080519215158352602083019190915201610348565b3480156103e957600080fd5b506103a16103f8366004613e73565b610b97565b34801561040957600080fd5b50610371610418366004613e37565b80516020818301810180516101688252928201919093012091525460ff1681565b34801561044557600080fd5b50610459610454366004613e90565b610bb9565b6040516103489190613f01565b34801561047257600080fd5b5061033e610481366004613f14565b610c94565b34801561049257600080fd5b5061033e6104a1366004613e90565b60ff6020526000908152604090205481565b3480156104bf57600080fd5b506103716104ce366004613e37565b5061016b54151590565b3480156104e457600080fd5b506103a16104f3366004614002565b610d8a565b34801561050457600080fd5b5061033e610513366004613e90565b60009081526098602052604090206001015490565b34801561053457600080fd5b506103a1610db6565b34801561054957600080fd5b506103a161055836600461409c565b610de8565b34801561056957600080fd5b506103a1610578366004614149565b610e78565b34801561058957600080fd5b5061033e600080516020614f6983398151915281565b3480156105ab57600080fd5b5061033e6105ba366004613e90565b610e9e565b3480156105cb57600080fd5b506103a16105da366004614149565b610ec0565b3480156105eb57600080fd5b506103a16105fa366004613e73565b610f3a565b34801561060b57600080fd5b5061033e61061a366004613e37565b611003565b34801561062b57600080fd5b5061063f61063a366004614179565b611010565b6040516103489190614280565b6103a161065a366004614293565b611139565b34801561066b57600080fd5b5061033e61067a366004613e90565b61016a6020526000908152604090205481565b34801561069957600080fd5b5061033e6106a8366004613e37565b6111ef565b3480156106b957600080fd5b506106e16106c8366004613e37565b5073fced262e4949b7b5c4177b4e0ad8e974cc7493bf90565b6040516001600160a01b039091168152602001610348565b34801561070557600080fd5b506103a16107143660046142d8565b6111fc565b34801561072557600080fd5b506103a1610734366004614362565b61123f565b34801561074557600080fd5b506103a161075436600461437d565b611261565b34801561076557600080fd5b506103a1610774366004613e73565b611286565b34801561078557600080fd5b506103a16107943660046143d3565b6112a8565b3480156107a557600080fd5b50610459604051806040016040528060078152602001661d9a5c1b185b9960ca1b81525081565b3480156107d857600080fd5b506107e16112cb565b604051610348929190614408565b3480156107fb57600080fd5b5061037161080a366004614149565b611401565b34801561081b57600080fd5b5061082f61082a366004613e37565b61142c565b604051610348929190614475565b34801561084957600080fd5b5061033e600081565b34801561085e57600080fd5b506103a161086d3660046143d3565b6114e4565b34801561087e57600080fd5b5061045961088d366004613e90565b6114ef565b34801561089e57600080fd5b506104596040518060400160405280600a8152602001691d1a58dad95d1b185b9960b21b81525081565b3480156108d457600080fd5b506103a16108e3366004613e37565b61158a565b3480156108f457600080fd5b506103a1610903366004614490565b6115ac565b34801561091457600080fd5b5061033e610923366004614490565b6115cf565b34801561093457600080fd5b5061033e600080516020614f4983398151915281565b34801561095657600080fd5b506103a1610965366004614149565b6116ec565b34801561097657600080fd5b506103716109853660046144d4565b611712565b34801561099657600080fd5b5061033e6109a5366004614490565b61171e565b3480156109b657600080fd5b506103a16109c5366004614502565b6118d7565b3480156109d657600080fd5b506103a16109e536600461456a565b61191c565b3480156109f657600080fd5b50610459610a05366004613e37565b611987565b348015610a1657600080fd5b506103a1610a2536600461459e565b6119bb565b348015610a3657600080fd5b506103a1610a45366004613e37565b6119fe565b348015610a5657600080fd5b506103a1610a65366004613e73565b611b8c565b348015610a7657600080fd5b5061033e7f189ab7a9244df0848122154315af71fe140f3db0fe014031783b0946b8c9d2e381565b348015610aaa57600080fd5b506106e1610ab9366004613e37565b50610101546001600160a01b031690565b60006001600160a01b038316610b3b5760405162461bcd60e51b815260206004820152602b60248201527f455243313135353a2062616c616e636520717565727920666f7220746865207a60448201526a65726f206164647265737360a81b60648201526084015b60405180910390fd5b5060008181526065602090815260408083206001600160a01b03861684529091529020545b92915050565b6000610b6082611bc4565b600080516020614f69833981519152610b8a8133611be9565b610b9382611c4d565b5050565b600080516020614f69833981519152610bb08133611be9565b610b9382611c60565b60008181526101696020526040812080546060929190610bd8906145d3565b80601f0160208091040260200160405190810160405280929190818152602001828054610c04906145d3565b8015610c515780601f10610c2657610100808354040283529160200191610c51565b820191906000526020600020905b815481529060010190602001808311610c3457829003601f168201915b50505050509050610c6183611c84565b81610c6b85611d18565b604051602001610c7d9392919061460e565b604051602081830303815290604052915050919050565b6000610ca1848484611e37565b610cae8284600187611e9b565b610cb6611f73565b6000805b61016b54811015610d01578461016b8281548110610cda57610cda614668565b90600052602060002001541415610cef578091505b80610cf981614694565b915050610cba565b5061016b805460009190610d17906001906146af565b81548110610d2757610d27614668565b906000526020600020015490508061016b8381548110610d4957610d49614668565b60009182526020909120015561016b805480610d6757610d676146c6565b6001900381819060005260206000200160009055905584925050505b9392505050565b600080516020614f49833981519152610da38133611be9565b610daf85858585611fe6565b5050505050565b600080516020614f69833981519152610dcf8133611be9565b60608051610de39061016b90608090613c05565b505050565b6001600160a01b038516331480610e045750610e048533611712565b610e6b5760405162461bcd60e51b815260206004820152603260248201527f455243313135353a207472616e736665722063616c6c6572206973206e6f74206044820152711bdddb995c881b9bdc88185c1c1c9bdd995960721b6064820152608401610b32565b610daf8585858585612141565b600082815260986020526040902060010154610e948133611be9565b610de383836122ee565b61016b8181548110610eaf57600080fd5b600091825260209091200154905081565b6001600160a01b0381163314610f305760405162461bcd60e51b815260206004820152602f60248201527f416363657373436f6e74726f6c3a2063616e206f6e6c792072656e6f756e636560448201526e103937b632b9903337b91039b2b63360891b6064820152608401610b32565b610b938282612374565b306001600160a01b037f0000000000000000000000000000000000000000000000000000000000000000161415610f835760405162461bcd60e51b8152600401610b32906146dc565b7f00000000000000000000000000000000000000000000000000000000000000006001600160a01b0316610fb56123db565b6001600160a01b031614610fdb5760405162461bcd60e51b8152600401610b3290614728565b610fe481612409565b6040805160008082526020820190925261100091839190612434565b50565b6000610b608260006115cf565b606081518351146110755760405162461bcd60e51b815260206004820152602960248201527f455243313135353a206163636f756e747320616e6420696473206c656e677468604482015268040dad2e6dac2e8c6d60bb1b6064820152608401610b32565b600083516001600160401b0381111561109057611090613d82565b6040519080825280602002602001820160405280156110b9578160200160208202803683370190505b50905060005b8451811015611131576111048582815181106110dd576110dd614668565b60200260200101518583815181106110f7576110f7614668565b6020026020010151610aca565b82828151811061111657611116614668565b602090810291909101015261112a81614694565b90506110bf565b509392505050565b306001600160a01b037f00000000000000000000000000000000000000000000000000000000000000001614156111825760405162461bcd60e51b8152600401610b32906146dc565b7f00000000000000000000000000000000000000000000000000000000000000006001600160a01b03166111b46123db565b6001600160a01b0316146111da5760405162461bcd60e51b8152600401610b3290614728565b6111e382612409565b610b9382826001612434565b6000610b6082600061171e565b6001600160a01b03831633148061121857506112188333611712565b6112345760405162461bcd60e51b8152600401610b3290614774565b610de3838383612578565b600080516020614f698339815191526112588133611be9565b610b9382612709565b600080516020614f4983398151915261127a8133611be9565b610daf85858585611e9b565b600080516020614f6983398151915261129f8133611be9565b610b9382612750565b600080516020614f698339815191526112c18133611be9565b610de38383612774565b60608061010261010381805480602002602001604051908101604052809291908181526020016000905b828210156113a1578382906000526020600020018054611314906145d3565b80601f0160208091040260200160405190810160405280929190818152602001828054611340906145d3565b801561138d5780601f106113625761010080835404028352916020019161138d565b820191906000526020600020905b81548152906001019060200180831161137057829003601f168201915b5050505050815260200190600101906112f5565b505050509150808054806020026020016040519081016040528092919081815260200182805480156113f257602002820191906000526020600020905b8154815260200190600101908083116113de575b50505050509050915091509091565b60009182526098602090815260408084206001600160a01b0393909316845291905290205460ff1690565b60006060600061016b805490506001600160401b0381111561145057611450613d82565b604051908082528060200260200182016040528015611479578160200160208202803683370190505b50905060005b61016b548110156114d85761016b818154811061149e5761149e614668565b90600052602060002001548282815181106114bb576114bb614668565b6020908102919091010152806114d081614694565b91505061147f565b50600194909350915050565b610b933383836127d3565b6101696020526000908152604090208054611509906145d3565b80601f0160208091040260200160405190810160405280929190818152602001828054611535906145d3565b80156115825780601f1061155757610100808354040283529160200191611582565b820191906000526020600020905b81548152906001019060200180831161156557829003601f168201915b505050505081565b600080516020614f698339815191526115a38133611be9565b610b93826128b4565b600080516020614f698339815191526115c58133611be9565b610de38383612abe565b6000828180805b83518110156116c45760308482815181106115f3576115f3614668565b016020015160f81c108015906116235750603984828151811061161857611618614668565b016020015160f81c11155b1561168a5781156116465785611638576116c4565b85611642816147bd565b9650505b611651600a846147d4565b9250603084828151811061166757611667614668565b0160200151611679919060f81c6146af565b61168390846147f3565b92506116b2565b83818151811061169c5761169c614668565b60209101015160f81c602e14156116b257600191505b806116bc81614694565b9150506115d6565b5084156116e3576116d685600a6148ef565b6116e090836147d4565b91505b50949350505050565b6000828152609860205260409020600101546117088133611be9565b610de38383612374565b6000610d838383612c3b565b6000828180805b83518110156116c457603084828151811061174257611742614668565b016020015160f81c108015906117725750603984828151811061176757611767614668565b016020015160f81c11155b156117d95781156117955785611787576116c4565b85611791816147bd565b9650505b6117a0600a846147d4565b925060308482815181106117b6576117b6614668565b01602001516117c8919060f81c6146af565b6117d290846147f3565b92506118c5565b8381815181106117eb576117eb614668565b60209101015160f81c602e141561186857811561185f5760405162461bcd60e51b815260206004820152602c60248201527f4d6f7265207468616e206f6e6520646563696d616c20656e636f756e7465726560448201526b6420696e20737472696e672160a01b6064820152608401610b32565b600191506118c5565b60405162461bcd60e51b815260206004820152602c60248201527f4e6f6e2d6e756d6572616c2063686172616374657220656e636f756e7465726560448201526b6420696e20737472696e672160a01b6064820152608401610b32565b806118cf81614694565b915050611725565b6001600160a01b0385163314806118f357506118f38533611712565b61190f5760405162461bcd60e51b8152600401610b3290614774565b610daf8585858585612cb6565b600080516020614f698339815191526119358133611be9565b60005b8251811015610de35761016b83828151811061195657611956614668565b602090810291909101810151825460018101845560009384529190922001558061197f81614694565b915050611938565b60606119936000611c84565b826040516020016119a59291906148fb565b6040516020818303038152906040529050919050565b6001600160a01b0383163314806119d757506119d78333611712565b6119f35760405162461bcd60e51b8152600401610b3290614774565b610de3838383612dd7565b600054610100900460ff16611a195760005460ff1615611a1d565b303b155b611a805760405162461bcd60e51b815260206004820152602e60248201527f496e697469616c697a61626c653a20636f6e747261637420697320616c72656160448201526d191e481a5b9a5d1a585b1a5e995960921b6064820152608401610b32565b600054610100900460ff16158015611aa2576000805461ffff19166101011790555b611aab82612edc565b611ab3612f1c565b611abb612f5b565b611ac3612f82565b611acb612fb8565b6001610168604051806040016040528060078152602001661d9a5c1b185b9960ca1b815250604051611afd9190614940565b908152602001604051809103902060006101000a81548160ff02191690831515021790555060016101686040518060400160405280600a8152602001691d1a58dad95d1b185b9960b21b815250604051611b579190614940565b908152604051908190036020019020805491151560ff199092169190911790558015610b93576000805461ff00191690555050565b600080516020614f69833981519152611ba58133611be9565b609780546001600160a01b0319166001600160a01b0384161790555050565b60006001600160e01b03198216637965db0b60e01b1480610b605750610b6082613025565b611bf38282611401565b610b9357611c0b816001600160a01b03166014613075565b611c16836020613075565b604051602001611c2792919061495c565b60408051601f198184030181529082905262461bcd60e51b8252610b3291600401613f01565b8051610b93906067906020840190613c50565b61010080546001600160a01b0319166001600160a01b038316179055611000611f73565b606060678054611c93906145d3565b80601f0160208091040260200160405190810160405280929190818152602001828054611cbf906145d3565b8015611d0c5780601f10611ce157610100808354040283529160200191611d0c565b820191906000526020600020905b815481529060010190602001808311611cef57829003601f168201915b50505050509050919050565b606081611d3c5750506040805180820190915260018152600360fc1b602082015290565b8160005b8115611d665780611d5081614694565b9150611d5f9050600a836149d1565b9150611d40565b6000816001600160401b03811115611d8057611d80613d82565b6040519080825280601f01601f191660200182016040528015611daa576020820181803683370190505b509050815b85156116e357611dc06001826146af565b90506000611dcf600a886149d1565b611dda90600a6147d4565b611de490886146af565b611def9060306149f3565b905060008160f81b905080848481518110611e0c57611e0c614668565b60200101906001600160f81b031916908160001a905350611e2e600a896149d1565b97505050611daf565b610100546001600160a01b0316336001600160a01b031614610de35760405162461bcd60e51b815260206004820152601f60248201527f416c6c6f77206f6e6c79204d656c616e642e6169206d616c6c2063616c6c73006044820152606401610b32565b6001600160a01b038416611ec15760405162461bcd60e51b8152600401610b3290614a18565b33611ee181600087611ed288613210565b611edb88613210565b8761325b565b60008481526065602090815260408083206001600160a01b038916845290915281208054859290611f139084906147f3565b909155505060408051858152602081018590526001600160a01b0380881692600092918516917fc3d58168c5ae7397731d063d5bbf3d657854427343f4c083240f7aacaa2d0f62910160405180910390a4610daf8160008787878761369e565b610100546001600160a01b031615611fe4576101005460405163fa21a11d60e01b81523060048201526001600160a01b039091169063fa21a11d90602401600060405180830381600087803b158015611fcb57600080fd5b505af1158015611fdf573d6000803e3d6000fd5b505050505b565b6001600160a01b03841661200c5760405162461bcd60e51b8152600401610b3290614a18565b815183511461202d5760405162461bcd60e51b8152600401610b3290614a59565b3361203d8160008787878761325b565b60005b84518110156120d95783818151811061205b5761205b614668565b60200260200101516065600087848151811061207957612079614668565b602002602001015181526020019081526020016000206000886001600160a01b03166001600160a01b0316815260200190815260200160002060008282546120c191906147f3565b909155508190506120d181614694565b915050612040565b50846001600160a01b031660006001600160a01b0316826001600160a01b03167f4a39dc06d4c0dbc64b70af90fd698a233a518aa5d07e595d983b8c0526c8f7fb878760405161212a929190614aa1565b60405180910390a4610daf81600087878787613809565b81518351146121625760405162461bcd60e51b8152600401610b3290614a59565b6001600160a01b0384166121885760405162461bcd60e51b8152600401610b3290614ac6565b3361219781878787878761325b565b60005b84518110156122805760008582815181106121b7576121b7614668565b6020026020010151905060008583815181106121d5576121d5614668565b60209081029190910181015160008481526065835260408082206001600160a01b038e1683529093529190912054909150818110156122265760405162461bcd60e51b8152600401610b3290614b0b565b60008381526065602090815260408083206001600160a01b038e8116855292528083208585039055908b168252812080548492906122659084906147f3565b925050819055505050508061227990614694565b905061219a565b50846001600160a01b0316866001600160a01b0316826001600160a01b03167f4a39dc06d4c0dbc64b70af90fd698a233a518aa5d07e595d983b8c0526c8f7fb87876040516122d0929190614aa1565b60405180910390a46122e6818787878787613809565b505050505050565b6122f88282611401565b610b935760008281526098602090815260408083206001600160a01b03851684529091529020805460ff191660011790556123303390565b6001600160a01b0316816001600160a01b0316837f2f8788117e7eff1d82e926ec794901d17c78024a50270940304540a733656f0d60405160405180910390a45050565b61237e8282611401565b15610b935760008281526098602090815260408083206001600160a01b0385168085529252808320805460ff1916905551339285917ff6391f5c32d9c69d2a47ea670b442974b53935d1edc7fd64eb21e047a839171b9190a45050565b7f360894a13ba1a3210667c828492db98dca3e2076cc3735a920a3ca505d382bbc546001600160a01b031690565b7f189ab7a9244df0848122154315af71fe140f3db0fe014031783b0946b8c9d2e3610b938133611be9565b600061243e6123db565b9050612449846138d3565b6000835111806124565750815b15612467576124658484613978565b505b7f4910fdfa16fed3260ed0e7147f7cc6da11a60208b5b9406d12a635614ffd9143805460ff16610daf57805460ff191660011781556040516001600160a01b03831660248201526124e690869060440160408051601f198184030181529190526020810180516001600160e01b0316631b2ce7f360e11b179052613978565b50805460ff191681556124f76123db565b6001600160a01b0316826001600160a01b03161461256f5760405162461bcd60e51b815260206004820152602f60248201527f45524331393637557067726164653a207570677261646520627265616b73206660448201526e75727468657220757067726164657360881b6064820152608401610b32565b610daf85613a63565b6001600160a01b03831661259e5760405162461bcd60e51b8152600401610b3290614b55565b80518251146125bf5760405162461bcd60e51b8152600401610b3290614a59565b60003390506125e28185600086866040518060200160405280600081525061325b565b60005b83518110156126aa57600084828151811061260257612602614668565b60200260200101519050600084838151811061262057612620614668565b60209081029190910181015160008481526065835260408082206001600160a01b038c1683529093529190912054909150818110156126715760405162461bcd60e51b8152600401610b3290614b98565b60009283526065602090815260408085206001600160a01b038b16865290915290922091039055806126a281614694565b9150506125e5565b5060006001600160a01b0316846001600160a01b0316826001600160a01b03167f4a39dc06d4c0dbc64b70af90fd698a233a518aa5d07e595d983b8c0526c8f7fb86866040516126fb929190614aa1565b60405180910390a450505050565b60fc805460ff19168215159081179091556040519081527ffe201e4b4f6868843d95c43911ae6440969ce8f267814256f138983f77b444399060200160405180910390a150565b61010180546001600160a01b0319166001600160a01b038316179055611000611f73565b6001600160a01b038216600081815260fe6020908152604091829020805460ff191685151590811790915591519182527f8b0795ef2ee415d4d22faae6db2f220e804a2ece30b9ef73c9135823d5326e4a910160405180910390a25050565b816001600160a01b0316836001600160a01b031614156128475760405162461bcd60e51b815260206004820152602960248201527f455243313135353a2073657474696e6720617070726f76616c20737461747573604482015268103337b91039b2b63360b91b6064820152608401610b32565b6001600160a01b03838116600081815260666020908152604080832094871680845294825291829020805460ff191686151590811790915591519182527f17307eab39ab6107e8899845ad3d59bd9653f200f220920489ca2b5937696c31910160405180910390a3505050565b6000805b6101025481101561291a57828051906020012061010282815481106128df576128df614668565b906000526020600020016040516128f69190614bdc565b60405180910390201415612908578091505b8061291281614694565b9150506128b8565b50610102805460009190612930906001906146af565b8154811061294057612940614668565b906000526020600020018054612955906145d3565b80601f0160208091040260200160405190810160405280929190818152602001828054612981906145d3565b80156129ce5780601f106129a3576101008083540402835291602001916129ce565b820191906000526020600020905b8154815290600101906020018083116129b157829003601f168201915b5050505050905060006101036001610102805490506129ed91906146af565b815481106129fd576129fd614668565b90600052602060002001549050816101028481548110612a1f57612a1f614668565b906000526020600020019080519060200190612a3c929190613c50565b50610102805480612a4f57612a4f6146c6565b600190038181906000526020600020016000612a6b9190613cc3565b9055806101038481548110612a8257612a82614668565b600091825260209091200155610103805480612aa057612aa06146c6565b60019003818190600052602060002001600090559055611fdf611f73565b6000805b61010254811015612b24576101028181548110612ae157612ae1614668565b90600052602060002001604051612af89190614bdc565b604051809103902084805190602001201415612b12578091505b80612b1c81614694565b915050612ac2565b508015612b5157816101038281548110612b4057612b40614668565b600091825260209091200155612c33565b6101025415801590612b9c57508280519060200120610102600081548110612b7b57612b7b614668565b90600052602060002001604051612b929190614bdc565b6040518091039020145b15612bb75781610103600081548110612b4057612b40614668565b61010280546001810182556000919091528351612bfb917f93bdaa6a4190909b7c3fbe8d42169ffe1cab19f51dfc8db24c71abf849eced4a01906020860190613c50565b5061010380546001810182556000919091527f02c297ab74aad0aede3a1895c857b1f2c71e6a203feb727bec95ac752998cb78018290555b610de3611f73565b60006001600160a01b03821673207fa8df3a17d96ca7ea4f2893fcdcb78a3041011415612c6a57506001610b60565b6097546001600160a01b0383811691161415612c8857506001610b60565b6001600160a01b0380841660009081526066602090815260408083209386168352929052205460ff16610d83565b6001600160a01b038416612cdc5760405162461bcd60e51b8152600401610b3290614ac6565b33612cec818787611ed288613210565b60008481526065602090815260408083206001600160a01b038a16845290915290205483811015612d2f5760405162461bcd60e51b8152600401610b3290614b0b565b60008581526065602090815260408083206001600160a01b038b8116855292528083208785039055908816825281208054869290612d6e9084906147f3565b909155505060408051868152602081018690526001600160a01b03808916928a821692918616917fc3d58168c5ae7397731d063d5bbf3d657854427343f4c083240f7aacaa2d0f62910160405180910390a4612dce82888888888861369e565b50505050505050565b6001600160a01b038316612dfd5760405162461bcd60e51b8152600401610b3290614b55565b33612e2c81856000612e0e87613210565b612e1787613210565b6040518060200160405280600081525061325b565b60008381526065602090815260408083206001600160a01b038816845290915290205482811015612e6f5760405162461bcd60e51b8152600401610b3290614b98565b60008481526065602090815260408083206001600160a01b03898116808652918452828520888703905582518981529384018890529092908616917fc3d58168c5ae7397731d063d5bbf3d657854427343f4c083240f7aacaa2d0f62910160405180910390a45050505050565b600054610100900460ff16612f035760405162461bcd60e51b8152600401610b3290614c78565b612f0b613aa3565b612f13613aa3565b61100081613aca565b600054610100900460ff16612f435760405162461bcd60e51b8152600401610b3290614c78565b612f4b613aa3565b612f53613aa3565b611fe4613aa3565b600054610100900460ff16612f4b5760405162461bcd60e51b8152600401610b3290614c78565b60fc805460ff1916600190811790915562093a8060fd55611fe49073714df076992f95e452a345cd8289882cec6ab82f90612774565b612fc0612f1c565b612fcb6000336122ee565b612fe3600080516020614f69833981519152336122ee565b612ffb600080516020614f49833981519152336122ee565b611fe47f189ab7a9244df0848122154315af71fe140f3db0fe014031783b0946b8c9d2e3336122ee565b60006001600160e01b03198216636cdb3d1360e11b148061305657506001600160e01b031982166303a24d0760e21b145b80610b6057506301ffc9a760e01b6001600160e01b0319831614610b60565b606060006130848360026147d4565b61308f9060026147f3565b6001600160401b038111156130a6576130a6613d82565b6040519080825280601f01601f1916602001820160405280156130d0576020820181803683370190505b509050600360fc1b816000815181106130eb576130eb614668565b60200101906001600160f81b031916908160001a905350600f60fb1b8160018151811061311a5761311a614668565b60200101906001600160f81b031916908160001a905350600061313e8460026147d4565b6131499060016147f3565b90505b60018111156131c1576f181899199a1a9b1b9c1cb0b131b232b360811b85600f166010811061317d5761317d614668565b1a60f81b82828151811061319357613193614668565b60200101906001600160f81b031916908160001a90535060049490941c936131ba816147bd565b905061314c565b508315610d835760405162461bcd60e51b815260206004820181905260248201527f537472696e67733a20686578206c656e67746820696e73756666696369656e746044820152606401610b32565b6040805160018082528183019092526060916000919060208083019080368337019050509050828160008151811061324a5761324a614668565b602090810291909101015292915050565b60005b82518110156133085782818151811061327957613279614668565b60200260200101516001146132f65760405162461bcd60e51b815260206004820152603b60248201527f45616368206c616e6420697320756e697175652c20536f20746865726520697360448201527f206e6f207472616e736665722067726561746572207468616e203100000000006064820152608401610b32565b8061330081614694565b91505061325e565b5060005b835181101561347b57600084828151811061332957613329614668565b60200260200101519050600061016960008381526020019081526020016000208054613354906145d3565b80601f0160208091040260200160405190810160405280929190818152602001828054613380906145d3565b80156133cd5780601f106133a2576101008083540402835291602001916133cd565b820191906000526020600020905b8154815290600101906020018083116133b057829003601f168201915b505050505090507f1cb6cb558a2b0eaf4f7c8fe6b68ffffce2f021379f9fa31ee9cbee72ba079f038180519060200120141561340e5761340e888884613afa565b6001600160a01b0387166134665760008281526101696020526040812061343491613cc3565b600161016a600083805190602001208152602001908152602001600020600082825461346091906146af565b90915550505b5050808061347390614694565b91505061330c565b506001600160a01b038516613699576101688160405161349b9190614940565b908152604051602091819003820181205460ff16916134bc91849101614cc3565b604051602081830303815290604052906134e95760405162461bcd60e51b8152600401610b329190613f01565b5060005b83518110156136665761271184828151811061350b5761350b614668565b60200260200101511015801561353f57506402540be7e884828151811061353457613534614668565b602002602001015111155b61358b5760405162461bcd60e51b815260206004820152601960248201527f436f6f7264696e6174657320617265206e6f74206c6567616c000000000000006044820152606401610b32565b61016960008583815181106135a2576135a2614668565b6020026020010151815260200190815260200160002080546135c3906145d3565b1590506136125760405162461bcd60e51b815260206004820152601d60248201527f4d616b6520737572652065616368206c616e6420697320756e697175650000006044820152606401610b32565b81610169600086848151811061362a5761362a614668565b602002602001015181526020019081526020016000209080519060200190613653929190613c50565b508061365e81614694565b9150506134ed565b50825161016a600083805190602001208152602001908152602001600020600082825461369391906147f3565b90915550505b6122e6565b6001600160a01b0384163b156122e65760405163f23a6e6160e01b81526001600160a01b0385169063f23a6e61906136e29089908990889088908890600401614cf5565b602060405180830381600087803b1580156136fc57600080fd5b505af192505050801561372c575060408051601f3d908101601f1916820190925261372991810190614d3a565b60015b6137d957613738614d57565b806308c379a01415613772575061374d614d73565b806137585750613774565b8060405162461bcd60e51b8152600401610b329190613f01565b505b60405162461bcd60e51b815260206004820152603460248201527f455243313135353a207472616e7366657220746f206e6f6e20455243313135356044820152732932b1b2b4bb32b91034b6b83632b6b2b73a32b960611b6064820152608401610b32565b6001600160e01b0319811663f23a6e6160e01b14612dce5760405162461bcd60e51b8152600401610b3290614dfc565b6001600160a01b0384163b156122e65760405163bc197c8160e01b81526001600160a01b0385169063bc197c819061384d9089908990889088908890600401614e44565b602060405180830381600087803b15801561386757600080fd5b505af1925050508015613897575060408051601f3d908101601f1916820190925261389491810190614d3a565b60015b6138a357613738614d57565b6001600160e01b0319811663bc197c8160e01b14612dce5760405162461bcd60e51b8152600401610b3290614dfc565b803b6139375760405162461bcd60e51b815260206004820152602d60248201527f455243313936373a206e657720696d706c656d656e746174696f6e206973206e60448201526c1bdd08184818dbdb9d1c9858dd609a1b6064820152608401610b32565b7f360894a13ba1a3210667c828492db98dca3e2076cc3735a920a3ca505d382bbc80546001600160a01b0319166001600160a01b0392909216919091179055565b6060823b6139d75760405162461bcd60e51b815260206004820152602660248201527f416464726573733a2064656c65676174652063616c6c20746f206e6f6e2d636f6044820152651b9d1c9858dd60d21b6064820152608401610b32565b600080846001600160a01b0316846040516139f29190614940565b600060405180830381855af49150503d8060008114613a2d576040519150601f19603f3d011682016040523d82523d6000602084013e613a32565b606091505b5091509150613a5a8282604051806060016040528060278152602001614f2260279139613bc0565b95945050505050565b613a6c816138d3565b6040516001600160a01b038216907fbc7cd75a20ee27fd9adebab32041f755214dbc6bffa90cc0225b39da2e5c2d3b90600090a250565b600054610100900460ff16611fe45760405162461bcd60e51b8152600401610b3290614c78565b600054610100900460ff16613af15760405162461bcd60e51b8152600401610b3290614c78565b61100081611c4d565b60fc5460ff16613b0957505050565b6001600160a01b0382163b15613b1e57505050565b6001600160a01b038216600090815260fe602052604090205460ff1615613b4457505050565b600081815260ff602052604090205442811090613b6090611d18565b604051602001613b709190614ea2565b60405160208183030381529060405290613b9d5760405162461bcd60e51b8152600401610b329190613f01565b5060fd54613bac904290613bf9565b600091825260ff6020526040909120555050565b60608315613bcf575081610d83565b825115613bdf5782518084602001fd5b8160405162461bcd60e51b8152600401610b329190613f01565b6000610d8382846147f3565b828054828255906000526020600020908101928215613c40579160200282015b82811115613c40578251825591602001919060010190613c25565b50613c4c929150613cf9565b5090565b828054613c5c906145d3565b90600052602060002090601f016020900481019282613c7e5760008555613c40565b82601f10613c9757805160ff1916838001178555613c40565b82800160010185558215613c405791820182811115613c40578251825591602001919060010190613c25565b508054613ccf906145d3565b6000825580601f10613cdf575050565b601f01602090049060005260206000209081019061100091905b5b80821115613c4c5760008155600101613cfa565b6001600160a01b038116811461100057600080fd5b60008060408385031215613d3657600080fd5b8235613d4181613d0e565b946020939093013593505050565b6001600160e01b03198116811461100057600080fd5b600060208284031215613d7757600080fd5b8135610d8381613d4f565b634e487b7160e01b600052604160045260246000fd5b601f8201601f191681016001600160401b0381118282101715613dbd57613dbd613d82565b6040525050565b600082601f830112613dd557600080fd5b81356001600160401b03811115613dee57613dee613d82565b604051613e05601f8301601f191660200182613d98565b818152846020838601011115613e1a57600080fd5b816020850160208301376000918101602001919091529392505050565b600060208284031215613e4957600080fd5b81356001600160401b03811115613e5f57600080fd5b613e6b84828501613dc4565b949350505050565b600060208284031215613e8557600080fd5b8135610d8381613d0e565b600060208284031215613ea257600080fd5b5035919050565b60005b83811015613ec4578181015183820152602001613eac565b83811115611fdf5750506000910152565b60008151808452613eed816020860160208601613ea9565b601f01601f19169290920160200192915050565b602081526000610d836020830184613ed5565b600080600060608486031215613f2957600080fd5b83356001600160401b03811115613f3f57600080fd5b613f4b86828701613dc4565b935050602084013591506040840135613f6381613d0e565b809150509250925092565b60006001600160401b03821115613f8757613f87613d82565b5060051b60200190565b600082601f830112613fa257600080fd5b81356020613faf82613f6e565b604051613fbc8282613d98565b83815260059390931b8501820192828101915086841115613fdc57600080fd5b8286015b84811015613ff75780358352918301918301613fe0565b509695505050505050565b6000806000806080858703121561401857600080fd5b843561402381613d0e565b935060208501356001600160401b038082111561403f57600080fd5b61404b88838901613f91565b9450604087013591508082111561406157600080fd5b61406d88838901613f91565b9350606087013591508082111561408357600080fd5b5061409087828801613dc4565b91505092959194509250565b600080600080600060a086880312156140b457600080fd5b85356140bf81613d0e565b945060208601356140cf81613d0e565b935060408601356001600160401b03808211156140eb57600080fd5b6140f789838a01613f91565b9450606088013591508082111561410d57600080fd5b61411989838a01613f91565b9350608088013591508082111561412f57600080fd5b5061413c88828901613dc4565b9150509295509295909350565b6000806040838503121561415c57600080fd5b82359150602083013561416e81613d0e565b809150509250929050565b6000806040838503121561418c57600080fd5b82356001600160401b03808211156141a357600080fd5b818501915085601f8301126141b757600080fd5b813560206141c482613f6e565b6040516141d18282613d98565b83815260059390931b85018201928281019150898411156141f157600080fd5b948201945b8386101561421857853561420981613d0e565b825294820194908201906141f6565b9650508601359250508082111561422e57600080fd5b5061423b85828601613f91565b9150509250929050565b600081518084526020808501945080840160005b8381101561427557815187529582019590820190600101614259565b509495945050505050565b602081526000610d836020830184614245565b600080604083850312156142a657600080fd5b82356142b181613d0e565b915060208301356001600160401b038111156142cc57600080fd5b61423b85828601613dc4565b6000806000606084860312156142ed57600080fd5b83356142f881613d0e565b925060208401356001600160401b038082111561431457600080fd5b61432087838801613f91565b9350604086013591508082111561433657600080fd5b5061434386828701613f91565b9150509250925092565b8035801515811461435d57600080fd5b919050565b60006020828403121561437457600080fd5b610d838261434d565b6000806000806080858703121561439357600080fd5b843561439e81613d0e565b9350602085013592506040850135915060608501356001600160401b038111156143c757600080fd5b61409087828801613dc4565b600080604083850312156143e657600080fd5b82356143f181613d0e565b91506143ff6020840161434d565b90509250929050565b6000604082016040835280855180835260608501915060608160051b8601019250602080880160005b8381101561445f57605f1988870301855261444d868351613ed5565b95509382019390820190600101614431565b505085840381870152505050613a5a8185614245565b8215158152604060208201526000613e6b6040830184614245565b600080604083850312156144a357600080fd5b82356001600160401b038111156144b957600080fd5b6144c585828601613dc4565b95602094909401359450505050565b600080604083850312156144e757600080fd5b82356144f281613d0e565b9150602083013561416e81613d0e565b600080600080600060a0868803121561451a57600080fd5b853561452581613d0e565b9450602086013561453581613d0e565b9350604086013592506060860135915060808601356001600160401b0381111561455e57600080fd5b61413c88828901613dc4565b60006020828403121561457c57600080fd5b81356001600160401b0381111561459257600080fd5b613e6b84828501613f91565b6000806000606084860312156145b357600080fd5b83356145be81613d0e565b95602085013595506040909401359392505050565b600181811c908216806145e757607f821691505b6020821081141561460857634e487b7160e01b600052602260045260246000fd5b50919050565b60008451614620818460208901613ea9565b8083019050602f60f81b8082528551614640816001850160208a01613ea9565b6001920191820152835161465b816002840160208801613ea9565b0160020195945050505050565b634e487b7160e01b600052603260045260246000fd5b634e487b7160e01b600052601160045260246000fd5b60006000198214156146a8576146a861467e565b5060010190565b6000828210156146c1576146c161467e565b500390565b634e487b7160e01b600052603160045260246000fd5b6020808252602c908201527f46756e6374696f6e206d7573742062652063616c6c6564207468726f7567682060408201526b19195b1959d85d1958d85b1b60a21b606082015260800190565b6020808252602c908201527f46756e6374696f6e206d7573742062652063616c6c6564207468726f7567682060408201526b6163746976652070726f787960a01b606082015260800190565b60208082526029908201527f455243313135353a2063616c6c6572206973206e6f74206f776e6572206e6f7260408201526808185c1c1c9bdd995960ba1b606082015260800190565b6000816147cc576147cc61467e565b506000190190565b60008160001904831182151516156147ee576147ee61467e565b500290565b600082198211156148065761480661467e565b500190565b600181815b8085111561484657816000190482111561482c5761482c61467e565b8085161561483957918102915b93841c9390800290614810565b509250929050565b60008261485d57506001610b60565b8161486a57506000610b60565b8160018114614880576002811461488a576148a6565b6001915050610b60565b60ff84111561489b5761489b61467e565b50506001821b610b60565b5060208310610133831016604e8410600b84101617156148c9575081810a610b60565b6148d3838361480b565b80600019048211156148e7576148e761467e565b029392505050565b6000610d83838361484e565b6000835161490d818460208801613ea9565b8083019050602f60f81b808252845161492d816001850160208901613ea9565b6001920191820152600201949350505050565b60008251614952818460208701613ea9565b9190910192915050565b7f416363657373436f6e74726f6c3a206163636f756e7420000000000000000000815260008351614994816017850160208801613ea9565b7001034b99036b4b9b9b4b733903937b6329607d1b60179184019182015283516149c5816028840160208801613ea9565b01602801949350505050565b6000826149ee57634e487b7160e01b600052601260045260246000fd5b500490565b600060ff821660ff84168060ff03821115614a1057614a1061467e565b019392505050565b60208082526021908201527f455243313135353a206d696e7420746f20746865207a65726f206164647265736040820152607360f81b606082015260800190565b60208082526028908201527f455243313135353a2069647320616e6420616d6f756e7473206c656e677468206040820152670dad2e6dac2e8c6d60c31b606082015260800190565b604081526000614ab46040830185614245565b8281036020840152613a5a8185614245565b60208082526025908201527f455243313135353a207472616e7366657220746f20746865207a65726f206164604082015264647265737360d81b606082015260800190565b6020808252602a908201527f455243313135353a20696e73756666696369656e742062616c616e636520666f60408201526939103a3930b739b332b960b11b606082015260800190565b60208082526023908201527f455243313135353a206275726e2066726f6d20746865207a65726f206164647260408201526265737360e81b606082015260800190565b60208082526024908201527f455243313135353a206275726e20616d6f756e7420657863656564732062616c604082015263616e636560e01b606082015260800190565b600080835481600182811c915080831680614bf857607f831692505b6020808410821415614c1857634e487b7160e01b86526022600452602486fd5b818015614c2c5760018114614c3d57614c6a565b60ff19861689528489019650614c6a565b60008a81526020902060005b86811015614c625781548b820152908501908301614c49565b505084890196505b509498975050505050505050565b6020808252602b908201527f496e697469616c697a61626c653a20636f6e7472616374206973206e6f74206960408201526a6e697469616c697a696e6760a81b606082015260800190565b60008251614cd5818460208701613ea9565b6d1a5cc81b9bdd081cdd5c1c1bdc9d60921b920191825250600e01919050565b6001600160a01b03868116825285166020820152604081018490526060810183905260a060808201819052600090614d2f90830184613ed5565b979650505050505050565b600060208284031215614d4c57600080fd5b8151610d8381613d4f565b600060033d1115614d705760046000803e5060005160e01c5b90565b600060443d1015614d815790565b6040516003193d81016004833e81513d6001600160401b038160248401118184111715614db057505050505090565b8285019150815181811115614dc85750505050505090565b843d8701016020828501011115614de25750505050505090565b614df160208286010187613d98565b509095945050505050565b60208082526028908201527f455243313135353a204552433131353552656365697665722072656a656374656040820152676420746f6b656e7360c01b606082015260800190565b6001600160a01b0386811682528516602082015260a060408201819052600090614e7090830186614245565b8281036060840152614e828186614245565b90508281036080840152614e968185613ed5565b98975050505050505050565b7f5468652063757272656e74204e465420697320696e207468652074726164696e81527f672070726f74656374696f6e20706572696f6420616e642063616e206265207460208201526a3930b232b21030b33a32b960a91b604082015260008251614f1481604b850160208701613ea9565b91909101604b019291505056fe416464726573733a206c6f772d6c6576656c2064656c65676174652063616c6c206661696c65649f2df0fed2c77648de5860a4cc508cd0818c85b8b8a1ab4ceeef8d981c8956a6f5eb84615c2a00ecaf817d13794ebd6299c9e01c395bf4018453f13f577f5449a2646970667358221220d0aa6e2f71f52d4e8d130f500ec8b5f262cc0243cecc5c9fe95b7f20408737d364736f6c63430008090033","immutableReferences":{"1051":[{"length":32,"start":3909},{"length":32,"start":3973},{"length":32,"start":4420},{"length":32,"start":4484}]},"source":"// SPDX-License-Identifier: MIT\npragma solidity 0.8.9;\n\nimport \"@openzeppelin/contracts-upgradeable/token/ERC1155/ERC1155Upgradeable.sol\";\nimport \"@openzeppelin/contracts-upgradeable/access/AccessControlUpgradeable.sol\";\nimport \"@openzeppelin/contracts-upgradeable/token/ERC1155/extensions/ERC1155BurnableUpgradeable.sol\";\nimport \"@openzeppelin/contracts-upgradeable/proxy/utils/Initializable.sol\";\nimport \"@openzeppelin/contracts-upgradeable/proxy/utils/UUPSUpgradeable.sol\";\nimport \"./MelandNFTFreeze.sol\";\nimport \"./MelandTierAddressStore.sol\";\nimport \"./MelandAccessRoles.sol\";\nimport \"./MelandTier.sol\";\nimport \"./Meland1155StoreItem.sol\";\n\ncontract Meland1155Land is\n    Initializable,\n    MelandTierAddressStore,\n    MelandAccessRoles,\n    ERC1155BurnableUpgradeable,\n    MelandNFTFreeze,\n    Meland1155StoreItem,\n    UUPSUpgradeable\n{\n    bytes public constant ticketland = \"ticketland\";\n    bytes public constant vipland = \"vipland\";\n    mapping(bytes => bool) public supportLandtypes;\n    mapping(uint256 => string) public landtypeById;\n    mapping(bytes32 => uint256) public totalSupplyByLandtype;\n\n    uint256[] public ticketlandIds;\n\n    function initialize(string memory _uri) public initializer {\n        __ERC1155_init(_uri);\n        __ERC1155Burnable_init();\n        __UUPSUpgradeable_init();\n        __MelandNFTFreeze_init();\n        __MelandAccessRoles_init();\n\n        supportLandtypes[vipland] = true;\n        supportLandtypes[ticketland] = true;\n    }\n\n    function setURI(string memory newuri) public onlyRole(GM_ROLE) {\n        _setURI(newuri);\n    }\n\n    function uri(uint256 id)\n        public\n        view\n        virtual\n        override\n        returns (string memory)\n    {\n        string memory landtype = landtypeById[id];\n        return string(abi.encodePacked(super.uri(id), \"/\", landtype, \"/\", uint2str(id)));\n    }\n\n    function addticketlandIds(uint256[] memory ids) external onlyRole(GM_ROLE) {\n        for (uint256 i = 0; i < ids.length; i ++) {\n            ticketlandIds.push(ids[i]);\n        }\n    }\n\n    function claerticketlandIds() external onlyRole(GM_ROLE) {\n        uint256[] memory ids;\n        ticketlandIds = ids;\n    }\n\n    function melandStoreItemURI(string memory symbol)\n        external\n        view\n        returns (string memory)\n    {\n        return string(abi.encodePacked(ERC1155Upgradeable.uri(0), \"/\", symbol, \"/\"));\n    }\n\n    function isApprovedForAll(address _owner, address _operator)\n        public\n        view\n        override(MelandTierAddressStore, ERC1155Upgradeable)\n        returns (bool isOperator)\n    {\n        return super.isApprovedForAll(_owner, _operator);\n    }\n\n    function mint(\n        address account,\n        uint256 id,\n        uint256 amount,\n        bytes memory landtype\n    ) public onlyRole(MINTER_ROLE) {\n        _mint(account, id, amount, landtype);\n    }\n\n    // Add or cancel freeze white list\n    function setFreezeWhiteList(address _account, bool _bool)\n        public\n        onlyRole(GM_ROLE)\n    {\n        _setFreezeWhite(_account, _bool);\n    }\n\n    function setMelandTier(MelandTier _tierAddress) public onlyRole(GM_ROLE) {\n        _setMelandTier(_tierAddress);\n    }\n\n    // Enable or Disable Freeze feature.\n    function setFreezeEnabled(bool _bool) public onlyRole(GM_ROLE) {\n        _setFreezeEnabled(_bool);\n    }\n\n    function mintBatch(\n        address to,\n        uint256[] memory ids,\n        uint256[] memory amounts,\n        bytes memory landtype\n    ) public onlyRole(MINTER_ROLE) {\n        _mintBatch(to, ids, amounts, landtype);\n    }\n\n    function _authorizeUpgrade(address newImplementation)\n        internal\n        override\n        onlyRole(UPGRADER_ROLE)\n    {}\n\n    function totalSupply(uint256 id) internal view returns (uint256) {\n        string memory lantype = landtypeById[id];\n        return totalSupplyByLandtype[keccak256(bytes(lantype))];\n    }\n\n    // The following functions are overrides required by Solidity.\n\n    function supportsInterface(bytes4 interfaceId)\n        public\n        view\n        override(ERC1155Upgradeable, AccessControlUpgradeable)\n        returns (bool)\n    {\n        return super.supportsInterface(interfaceId);\n    }\n\n    // The following functions are overrides required by Solidity.\n    function _beforeTokenTransfer(\n        address operator,\n        address from,\n        address to,\n        uint256[] memory ids,\n        uint256[] memory amounts,\n        bytes memory maybelandtype\n    ) internal override(ERC1155Upgradeable) {\n        for (uint256 i = 0; i < amounts.length; i++) {\n            require(\n                amounts[i] == 1,\n                \"Each land is unique, So there is no transfer greater than 1\"\n            );\n        }\n\n        for (uint256 i = 0; i < ids.length; i++) {\n            uint256 id = ids[i];\n\n            // check freeze\n            string memory landtype = landtypeById[id];\n\n            if (keccak256(bytes(landtype)) == keccak256(\"ticketland\")) {\n                _freezeProtect(from, to, id);\n            }\n\n            // sub totalSupply when burn token\n            if (to == address(0)) {\n                // clear lantyoe when burn\n                delete landtypeById[id];\n                totalSupplyByLandtype[keccak256(bytes(landtype))] -= 1;\n            }\n        }\n\n        // if is mint\n        // check land type is support\n        if (from == address(0)) {\n            require(\n                supportLandtypes[maybelandtype],\n                string(abi.encodePacked(maybelandtype, \"is not support\"))\n            );\n\n            for (uint256 i = 0; i < ids.length; i++) {\n                require(\n                    ids[i] >= 10001 && ids[i] <= 10000001000,\n                    \"Coordinates are not legal\"\n                );\n                require(\n                    bytes(landtypeById[ids[i]]).length == 0,\n                    \"Make sure each land is unique\"\n                );\n                landtypeById[ids[i]] = string(maybelandtype);\n            }\n\n            totalSupplyByLandtype[keccak256(maybelandtype)] += ids.length;\n        }\n\n        super._beforeTokenTransfer(\n            operator,\n            from,\n            to,\n            ids,\n            amounts,\n            maybelandtype\n        );\n    }\n\n    // store item impl ----\n    function setAcceptedToken(IERC20Upgradeable token)\n        external\n        onlyRole(GM_ROLE)\n    {\n        _setAcceptedToken(token);\n    }\n\n    function setStore(NFTStore s) external onlyRole(GM_ROLE) {\n        _setStore(s);\n    }\n\n    function setStoreItem(string memory symbol, uint256 p)\n        external\n        onlyRole(GM_ROLE)\n    {\n        _setStoreItem(symbol, p);\n    }\n\n    function delStoreItem(string memory symbol) external onlyRole(GM_ROLE) {\n        _delStoreItem(symbol);\n    }\n\n    // If return ture, means that the mall will only have the specified id\n    // Else otherwise it will be linear mint\n    // The ids Must ensure that you can mint\n    // If multi-channel sales or mint, you need to filter out the ids that have been minted\n    // To prevent errors in the sales process\n    function melandStoreItemsRestrictPurchaseNFTIds(string memory)\n        external\n        view\n        returns (bool, uint256[] memory)\n    {\n        uint256[] memory ids = new uint256[](ticketlandIds.length);\n        for (uint256 i = 0; i < ticketlandIds.length; i++) {\n            ids[i] = ticketlandIds[i];\n        }\n        return (true, ids);\n    }\n\n    // Store to pay NFT to the selling user by calling this function,\n    // For security reasons, be sure to control the permissions to allow only MelandStore contracts to call\n    // If melandStoreItemsRestrictPurchaseNFTIds return false, the id as zero.\n    function melandStoreItemsMint(\n        string memory symbol,\n        uint256 id,\n        address to\n    ) external override returns(uint256) {\n        super.checkMelandStoreItemsMint(symbol, id, to);\n        _mint(to, id, 1, bytes(symbol));\n        _dispatchItemInfoUpdate();\n\n        uint256 index;\n        for (uint256 i = 0; i < ticketlandIds.length; i ++) {\n            if (ticketlandIds[i] == id) {\n                index = i;\n            }\n        }\n\n        uint256 last = ticketlandIds[ticketlandIds.length - 1];\n        ticketlandIds[index] = last;\n        ticketlandIds.pop();\n\n        return id;\n    }\n\n    // If return false, Stores will suspend sales.\n    function melandStoreSellStatus(string memory)\n        external\n        view\n        returns (bool)\n    {\n        return\n            ticketlandIds.length > 0;\n    }\n\n    // If return true, it means that each person can only buy a certain amount\n    function melandStoreItemsRestrictedPurchase(string memory)\n        external\n        pure\n        returns (bool restricted, uint256 restrictLimit)\n    {\n        restricted = true;\n        restrictLimit = 1;\n    }\n}\n","sourcePath":"/Users/alberthuang/code/contracts/contracts/Meland1155Land.sol","compiler":{"name":"solc","version":"0.8.9+commit.e5eed63a.Emscripten.clang"},"schemaVersion":"3.4.3","updatedAt":"2022-01-25T07:44:20.428Z","devdoc":{"kind":"dev","methods":{"balanceOf(address,uint256)":{"details":"See {IERC1155-balanceOf}. Requirements: - `account` cannot be the zero address."},"balanceOfBatch(address[],uint256[])":{"details":"See {IERC1155-balanceOfBatch}. Requirements: - `accounts` and `ids` must have the same length."},"getRoleAdmin(bytes32)":{"details":"Returns the admin role that controls `role`. See {grantRole} and {revokeRole}. To change a role's admin, use {_setRoleAdmin}."},"grantRole(bytes32,address)":{"details":"Grants `role` to `account`. If `account` had not been already granted `role`, emits a {RoleGranted} event. Requirements: - the caller must have ``role``'s admin role."},"hasRole(bytes32,address)":{"details":"Returns `true` if `account` has been granted `role`."},"renounceRole(bytes32,address)":{"details":"Revokes `role` from the calling account. Roles are often managed via {grantRole} and {revokeRole}: this function's purpose is to provide a mechanism for accounts to lose their privileges if they are compromised (such as when a trusted device is misplaced). If the calling account had been revoked `role`, emits a {RoleRevoked} event. Requirements: - the caller must be `account`."},"revokeRole(bytes32,address)":{"details":"Revokes `role` from `account`. If `account` had been granted `role`, emits a {RoleRevoked} event. Requirements: - the caller must have ``role``'s admin role."},"safeBatchTransferFrom(address,address,uint256[],uint256[],bytes)":{"details":"See {IERC1155-safeBatchTransferFrom}."},"safeTransferFrom(address,address,uint256,uint256,bytes)":{"details":"See {IERC1155-safeTransferFrom}."},"setApprovalForAll(address,bool)":{"details":"See {IERC1155-setApprovalForAll}."},"upgradeTo(address)":{"details":"Upgrade the implementation of the proxy to `newImplementation`. Calls {_authorizeUpgrade}. Emits an {Upgraded} event."},"upgradeToAndCall(address,bytes)":{"details":"Upgrade the implementation of the proxy to `newImplementation`, and subsequently execute the function call encoded in `data`. Calls {_authorizeUpgrade}. Emits an {Upgraded} event."}},"version":1},"userdoc":{"kind":"user","methods":{},"version":1}}