{
  "contractName": "MelandStakesStorage",
  "abi": [
    {
      "anonymous": false,
      "inputs": [
        {
          "indexed": true,
          "internalType": "uint256",
          "name": "stakePoolId",
          "type": "uint256"
        }
      ],
      "name": "CreateStakePool",
      "type": "event"
    },
    {
      "anonymous": false,
      "inputs": [
        {
          "indexed": true,
          "internalType": "uint256",
          "name": "stakePoolId",
          "type": "uint256"
        }
      ],
      "name": "DefaultStakeUpdate",
      "type": "event"
    },
    {
      "anonymous": false,
      "inputs": [
        {
          "indexed": true,
          "internalType": "bytes32",
          "name": "stakeId",
          "type": "bytes32"
        },
        {
          "indexed": false,
          "internalType": "uint256",
          "name": "eran",
          "type": "uint256"
        }
      ],
      "name": "Harvest",
      "type": "event"
    },
    {
      "anonymous": false,
      "inputs": [
        {
          "indexed": true,
          "internalType": "bytes32",
          "name": "stakeId",
          "type": "bytes32"
        },
        {
          "indexed": true,
          "internalType": "address",
          "name": "staker",
          "type": "address"
        }
      ],
      "name": "NewStake",
      "type": "event"
    },
    {
      "anonymous": false,
      "inputs": [
        {
          "indexed": true,
          "internalType": "bytes32",
          "name": "stakeId",
          "type": "bytes32"
        }
      ],
      "name": "StakeClaim",
      "type": "event"
    },
    {
      "inputs": [],
      "name": "acceptedToken",
      "outputs": [
        {
          "internalType": "contract IERC20Upgradeable",
          "name": "",
          "type": "address"
        }
      ],
      "stateMutability": "view",
      "type": "function"
    },
    {
      "inputs": [
        {
          "internalType": "bytes32",
          "name": "",
          "type": "bytes32"
        }
      ],
      "name": "stakeById",
      "outputs": [
        {
          "internalType": "uint256",
          "name": "stakePoolId",
          "type": "uint256"
        },
        {
          "internalType": "address",
          "name": "staker",
          "type": "address"
        },
        {
          "internalType": "uint256",
          "name": "lastRecivedAt",
          "type": "uint256"
        },
        {
          "internalType": "uint256",
          "name": "stakedAt",
          "type": "uint256"
        },
        {
          "internalType": "uint256",
          "name": "expiredAt",
          "type": "uint256"
        },
        {
          "internalType": "bool",
          "name": "claimed",
          "type": "bool"
        }
      ],
      "stateMutability": "view",
      "type": "function"
    },
    {
      "inputs": [
        {
          "internalType": "uint256",
          "name": "",
          "type": "uint256"
        }
      ],
      "name": "stakePoolById",
      "outputs": [
        {
          "internalType": "uint256",
          "name": "ditaminLD",
          "type": "uint256"
        },
        {
          "internalType": "uint256",
          "name": "ditaminC",
          "type": "uint256"
        },
        {
          "internalType": "uint256",
          "name": "numberOfMELD",
          "type": "uint256"
        },
        {
          "internalType": "uint8",
          "name": "landC",
          "type": "uint8"
        },
        {
          "internalType": "bytes",
          "name": "vipname",
          "type": "bytes"
        },
        {
          "internalType": "uint8",
          "name": "stakeApyPercent",
          "type": "uint8"
        },
        {
          "internalType": "uint8",
          "name": "gameApyPercent",
          "type": "uint8"
        },
        {
          "internalType": "uint256",
          "name": "freezeTime",
          "type": "uint256"
        },
        {
          "internalType": "uint256",
          "name": "totalVolume",
          "type": "uint256"
        }
      ],
      "stateMutability": "view",
      "type": "function"
    },
    {
      "inputs": [
        {
          "internalType": "address",
          "name": "",
          "type": "address"
        },
        {
          "internalType": "uint256",
          "name": "",
          "type": "uint256"
        }
      ],
      "name": "stakePoolIdsByStaker",
      "outputs": [
        {
          "internalType": "uint256",
          "name": "",
          "type": "uint256"
        }
      ],
      "stateMutability": "view",
      "type": "function"
    },
    {
      "inputs": [
        {
          "internalType": "uint256",
          "name": "",
          "type": "uint256"
        }
      ],
      "name": "stakePoolSaleCountByStakePoolId",
      "outputs": [
        {
          "internalType": "uint256",
          "name": "",
          "type": "uint256"
        }
      ],
      "stateMutability": "view",
      "type": "function"
    }
  ],
  "bytecode": "0x608060405234801561001057600080fd5b506103f6806100206000396000f3fe608060405234801561001057600080fd5b50600436106100575760003560e01c80633032ac0c1461005c578063451c3d801461008d578063beadd5f9146100b8578063feb95e671461013f578063fee496f21461016d575b600080fd5b61006f61006a366004610290565b610180565b604051610084999897969594939291906102a9565b60405180910390f35b6001546100a0906001600160a01b031681565b6040516001600160a01b039091168152602001610084565b6101086100c6366004610290565b600560208190526000918252604090912080546001820154600283015460038401546004850154949095015492946001600160a01b0390921693909260ff1686565b604080519687526001600160a01b0390951660208701529385019290925260608401526080830152151560a082015260c001610084565b61015f61014d366004610290565b60046020526000908152604090205481565b604051908152602001610084565b61015f61017b36600461034d565b61025f565b60036020819052600091825260409091208054600182015460028301549383015460048401805493959294929360ff90921692916101bd90610385565b80601f01602080910402602001604051908101604052809291908181526020018280546101e990610385565b80156102365780601f1061020b57610100808354040283529160200191610236565b820191906000526020600020905b81548152906001019060200180831161021957829003601f168201915b50505060058401546006850154600790950154939460ff80831695610100909304169350915089565b6006602052816000526040600020818154811061027b57600080fd5b90600052602060002001600091509150505481565b6000602082840312156102a257600080fd5b5035919050565b60006101208b835260208b818501528a604085015260ff8a16606085015281608085015288518083860152600092505b808310156102f8578983018201518584016101400152918101916102d9565b8083111561030b57600061014082870101525b601f01601f1916840161014001925061032c91505060a083018760ff169052565b60ff851660c083015260e08201939093526101000152979650505050505050565b6000806040838503121561036057600080fd5b82356001600160a01b038116811461037757600080fd5b946020939093013593505050565b600181811c9082168061039957607f821691505b602082108114156103ba57634e487b7160e01b600052602260045260246000fd5b5091905056fea2646970667358221220c671ed7cb1dbd4f792413f5e6c46b77de21571d135516caae81d7a3df00336b764736f6c63430008090033",
  "immutableReferences": {},
  "source": "// SPDX-License-Identifier: MIT\npragma solidity 0.8.9;\n\nimport \"@openzeppelin/contracts-upgradeable/token/ERC20/IERC20Upgradeable.sol\";\nimport \"@openzeppelin/contracts-upgradeable/proxy/utils/UUPSUpgradeable.sol\";\nimport \"@openzeppelin/contracts-upgradeable/utils/CountersUpgradeable.sol\";\nimport \"./MelandAccessRoles.sol\";\n\ncontract MelandStakesStorage {\n    using CountersUpgradeable for CountersUpgradeable.Counter;\n    CountersUpgradeable.Counter private _stakePoolIdCounter;\n\n    // MELD Token.\n    IERC20Upgradeable public acceptedToken;\n\n    // gamer default stake pool id;\n    uint256 private _defaultStakePoolId;\n\n    mapping(uint256 => StakePool) public stakePoolById;\n\n    // get stake pool\n    // sales info\n    mapping(uint256 => uint256) public stakePoolSaleCountByStakePoolId;\n\n    mapping(bytes32 => Stake) public stakeById;\n\n    mapping(address => uint256[]) public stakePoolIdsByStaker;\n\n    event CreateStakePool(uint256 indexed stakePoolId);\n\n    event DefaultStakeUpdate(uint256 indexed stakePoolId);\n\n    event NewStake(\n        bytes32 indexed stakeId,\n        address indexed staker\n    );\n\n    event StakeClaim(\n        bytes32 indexed stakeId\n    );\n\n    event Harvest(\n        bytes32 indexed stakeId,\n        uint256 eran\n    );\n\n    struct StakePool {\n        uint256 ditaminLD;\n        uint256 ditaminC;\n        uint256 numberOfMELD;\n        uint8 landC;\n        bytes vipname;\n        uint8 stakeApyPercent;\n        uint8 gameApyPercent;\n        uint256 freezeTime;\n        uint256 totalVolume;\n    }\n\n    struct Stake {\n        uint256 stakePoolId;\n        address staker;\n        uint256 lastRecivedAt;\n        uint256 stakedAt;\n        uint256 expiredAt;\n        bool claimed;\n    }\n\n    function _buildStakeId(address staker, uint256 stakePoolId)\n        internal\n        pure\n        returns (bytes32)\n    {\n        return keccak256(abi.encodePacked(staker, stakePoolId));\n    }\n\n    function _getUserCurrentHighLevelStake(address staker)\n        internal\n        view\n        returns (Stake memory, uint8)\n    {\n        uint256 highStakePoolId;\n        uint8 gameApyPercent;\n        uint256 totalApy;\n        uint256 totalApyAmount;\n        {\n            uint256[] memory stakePoolIds = stakePoolIdsByStaker[staker];\n            for (uint256 i = 0; i < stakePoolIds.length; i++) {\n                uint256 stakePoolId = stakePoolIds[i];\n                if (\n                    stakeById[_buildStakeId(staker, stakePoolId)].expiredAt <\n                    block.timestamp\n                ) {\n                    continue;\n                }\n                StakePool memory pool = stakePoolById[stakePoolId];\n                totalApy = totalApy + pool.stakeApyPercent * pool.numberOfMELD;\n                totalApyAmount = totalApyAmount + pool.numberOfMELD;\n                if (pool.gameApyPercent > gameApyPercent) {\n                    gameApyPercent = pool.gameApyPercent;\n                    highStakePoolId = stakePoolIds[i];\n                }\n            }\n        }\n\n        if (highStakePoolId == 0) {\n            return (\n                Stake(\n                    _defaultStakePoolId,\n                    staker,\n                    block.timestamp,\n                    block.timestamp,\n                    block.timestamp + 365 days,\n                    true\n                ),\n                0\n            );\n        }\n\n        return (\n            stakeById[_buildStakeId(staker, highStakePoolId)], \n            uint8(totalApy / totalApyAmount)\n        );\n    }\n\n    function _createNewStakePool(StakePool memory _stakePool)\n        internal\n        returns (uint256)\n    {\n        uint256 stakePoolId = _stakePoolIdCounter.current();\n        _stakePoolIdCounter.increment();\n        stakePoolById[stakePoolId] = _stakePool;\n        emit CreateStakePool(stakePoolId);\n        return stakePoolId;\n    }\n\n    function _setDefaultStakePoolId(uint256 stakePoolId) internal {\n        require(\n            stakePoolById[stakePoolId].vipname.length != 0,\n            \"stake pool not found\"\n        );\n        _defaultStakePoolId = stakePoolId;\n        emit DefaultStakeUpdate(stakePoolId);\n    }\n\n    function _stake(address staker, uint256 stakePoolId) internal {\n        StakePool memory stakePool = stakePoolById[stakePoolId];\n        require(stakePool.vipname.length != 0, \"stake pool not found\");\n        require(\n            stakePoolSaleCountByStakePoolId[stakePoolId] <\n                stakePool.totalVolume,\n            \"Insufficient pool share\"\n        );\n        bytes32 stakeId = _buildStakeId(staker, stakePoolId);\n        require(stakeById[stakeId].stakePoolId == 0, \"Only one stake for the same pool\");\n\n        stakePoolSaleCountByStakePoolId[stakePoolId] += 1;\n\n        require(\n            acceptedToken.allowance(staker, address(this)) >\n                stakePool.numberOfMELD,\n            string(\n                abi.encodePacked(\n                    \"allowance insufficient credit (\",\n                    stakePool.numberOfMELD\n                )\n            )\n        );\n        acceptedToken.transferFrom(\n            staker,\n            address(this),\n            stakePool.numberOfMELD - 100\n        );\n        stakePoolIdsByStaker[staker].push(stakePoolId);\n\n        Stake memory stake = Stake(\n            stakePoolId,\n            staker,\n            block.timestamp,\n            block.timestamp,\n            block.timestamp + stakePool.freezeTime,\n            false\n        );\n\n        stakeById[stakeId] = stake;\n\n        emit NewStake(stakeId, staker);\n    }\n\n    // Get the current existing interest\n    function _getEarnedByStakeId(bytes32 stakeId, uint256 timestamp) internal view returns(uint256) {\n        Stake memory stake = stakeById[stakeId];\n        if (stake.stakePoolId <= 0) {\n            return 0;\n        }\n        StakePool memory stakePool = stakePoolById[stake.stakePoolId];\n        if (stake.lastRecivedAt == stake.expiredAt) {\n            return 0;\n        }\n        uint256 max = stake.expiredAt - stake.lastRecivedAt;\n        uint256 current = timestamp - stake.lastRecivedAt;\n        if (current > max) {\n            current = max;\n        }\n        // Because the default division is rounded, \n        // And we need the exact hour\n        uint256 h = current / 1 hours;\n        if (h * 1 hours > current) {\n            h = h - 1;\n        }\n        uint256 totalEarnAtSeconds = stakePool.numberOfMELD * stakePool.stakeApyPercent / 100 / 31536000;\n        uint256 avgEarnAtHours = totalEarnAtSeconds * (1 hours);\n        return avgEarnAtHours * h;\n    }\n\n    function _harvestByStakeId(bytes32 stakeId, uint256 timestamp) internal {\n        Stake memory stake = stakeById[stakeId];\n        uint256 earn = _getEarnedByStakeId(stakeId, timestamp);\n        if (earn == 0) {\n            return;\n        }\n        stakeById[stakeId].lastRecivedAt = timestamp;\n        acceptedToken.transfer(stake.staker, earn);\n        emit Harvest(stakeId, earn);\n    }\n\n    function _harvestByStaker(address staker) internal {\n        uint256 timestamp = block.timestamp;\n        uint256[] memory ids = stakePoolIdsByStaker[staker];\n        for (uint256 i = 0; i < ids.length; i++) {\n            bytes32 stakeId = _buildStakeId(staker, ids[i]);\n            _harvestByStakeId(stakeId, timestamp);\n        }\n    }\n\n    function _getStakerAllEarned(address staker, uint256 timestamp) internal view returns(uint256) {\n        uint256[] memory ids = stakePoolIdsByStaker[staker];\n        uint256 earn;\n        for (uint256 i = 0; i < ids.length; i++) {\n            earn += _getEarnedByStakeId(_buildStakeId(staker, ids[i]), timestamp);\n        }\n        return earn;\n    }\n\n    function _claim(bytes32 stakeId) internal {\n        Stake memory stake = stakeById[stakeId];\n        require(stake.stakePoolId > 0, \"stake not found\");\n        require(stake.expiredAt < block.timestamp, \"stake for expiration\");\n        require(!stake.claimed, \"already claim\");\n        stake.claimed = true;\n        StakePool memory pool = stakePoolById[stake.stakePoolId];\n        acceptedToken.transfer(stake.staker, pool.numberOfMELD);\n        stakeById[stakeId] = stake;\n        emit StakeClaim(stakeId);\n    }\n}\n",
  "sourcePath": "/Users/alberthuang/code/icw/meland/contracts/MelandStakesStorage.sol",
  "compiler": {
    "name": "solc",
    "version": "0.8.9+commit.e5eed63a.Emscripten.clang"
  },
  "schemaVersion": "3.4.3",
  "updatedAt": "2021-12-31T04:22:36.800Z",
  "devdoc": {
    "kind": "dev",
    "methods": {},
    "version": 1
  },
  "userdoc": {
    "kind": "user",
    "methods": {},
    "version": 1
  }
}