{
  "contractName": "MelandTier",
  "abi": [
    {
      "inputs": [],
      "stateMutability": "nonpayable",
      "type": "constructor"
    },
    {
      "anonymous": false,
      "inputs": [
        {
          "indexed": false,
          "internalType": "address",
          "name": "previousAdmin",
          "type": "address"
        },
        {
          "indexed": false,
          "internalType": "address",
          "name": "newAdmin",
          "type": "address"
        }
      ],
      "name": "AdminChanged",
      "type": "event"
    },
    {
      "anonymous": false,
      "inputs": [
        {
          "indexed": true,
          "internalType": "address",
          "name": "account",
          "type": "address"
        },
        {
          "indexed": true,
          "internalType": "address",
          "name": "operator",
          "type": "address"
        },
        {
          "indexed": false,
          "internalType": "bool",
          "name": "approved",
          "type": "bool"
        }
      ],
      "name": "ApprovalForAll",
      "type": "event"
    },
    {
      "anonymous": false,
      "inputs": [
        {
          "indexed": true,
          "internalType": "address",
          "name": "beacon",
          "type": "address"
        }
      ],
      "name": "BeaconUpgraded",
      "type": "event"
    },
    {
      "anonymous": false,
      "inputs": [
        {
          "indexed": true,
          "internalType": "uint256",
          "name": "id",
          "type": "uint256"
        }
      ],
      "name": "RewaardPoolUpdate",
      "type": "event"
    },
    {
      "anonymous": false,
      "inputs": [
        {
          "indexed": true,
          "internalType": "bytes32",
          "name": "role",
          "type": "bytes32"
        },
        {
          "indexed": true,
          "internalType": "bytes32",
          "name": "previousAdminRole",
          "type": "bytes32"
        },
        {
          "indexed": true,
          "internalType": "bytes32",
          "name": "newAdminRole",
          "type": "bytes32"
        }
      ],
      "name": "RoleAdminChanged",
      "type": "event"
    },
    {
      "anonymous": false,
      "inputs": [
        {
          "indexed": true,
          "internalType": "bytes32",
          "name": "role",
          "type": "bytes32"
        },
        {
          "indexed": true,
          "internalType": "address",
          "name": "account",
          "type": "address"
        },
        {
          "indexed": true,
          "internalType": "address",
          "name": "sender",
          "type": "address"
        }
      ],
      "name": "RoleGranted",
      "type": "event"
    },
    {
      "anonymous": false,
      "inputs": [
        {
          "indexed": true,
          "internalType": "bytes32",
          "name": "role",
          "type": "bytes32"
        },
        {
          "indexed": true,
          "internalType": "address",
          "name": "account",
          "type": "address"
        },
        {
          "indexed": true,
          "internalType": "address",
          "name": "sender",
          "type": "address"
        }
      ],
      "name": "RoleRevoked",
      "type": "event"
    },
    {
      "anonymous": false,
      "inputs": [
        {
          "indexed": true,
          "internalType": "uint256",
          "name": "id",
          "type": "uint256"
        }
      ],
      "name": "TierStartSale",
      "type": "event"
    },
    {
      "anonymous": false,
      "inputs": [
        {
          "indexed": true,
          "internalType": "address",
          "name": "operator",
          "type": "address"
        },
        {
          "indexed": true,
          "internalType": "address",
          "name": "from",
          "type": "address"
        },
        {
          "indexed": true,
          "internalType": "address",
          "name": "to",
          "type": "address"
        },
        {
          "indexed": false,
          "internalType": "uint256[]",
          "name": "ids",
          "type": "uint256[]"
        },
        {
          "indexed": false,
          "internalType": "uint256[]",
          "name": "values",
          "type": "uint256[]"
        }
      ],
      "name": "TransferBatch",
      "type": "event"
    },
    {
      "anonymous": false,
      "inputs": [
        {
          "indexed": true,
          "internalType": "address",
          "name": "operator",
          "type": "address"
        },
        {
          "indexed": true,
          "internalType": "address",
          "name": "from",
          "type": "address"
        },
        {
          "indexed": true,
          "internalType": "address",
          "name": "to",
          "type": "address"
        },
        {
          "indexed": false,
          "internalType": "uint256",
          "name": "id",
          "type": "uint256"
        },
        {
          "indexed": false,
          "internalType": "uint256",
          "name": "value",
          "type": "uint256"
        }
      ],
      "name": "TransferSingle",
      "type": "event"
    },
    {
      "anonymous": false,
      "inputs": [
        {
          "indexed": false,
          "internalType": "string",
          "name": "value",
          "type": "string"
        },
        {
          "indexed": true,
          "internalType": "uint256",
          "name": "id",
          "type": "uint256"
        }
      ],
      "name": "URI",
      "type": "event"
    },
    {
      "anonymous": false,
      "inputs": [
        {
          "indexed": true,
          "internalType": "address",
          "name": "implementation",
          "type": "address"
        }
      ],
      "name": "Upgraded",
      "type": "event"
    },
    {
      "inputs": [],
      "name": "DEFAULT_ADMIN_ROLE",
      "outputs": [
        {
          "internalType": "bytes32",
          "name": "",
          "type": "bytes32"
        }
      ],
      "stateMutability": "view",
      "type": "function"
    },
    {
      "inputs": [],
      "name": "GM_ROLE",
      "outputs": [
        {
          "internalType": "bytes32",
          "name": "",
          "type": "bytes32"
        }
      ],
      "stateMutability": "view",
      "type": "function"
    },
    {
      "inputs": [],
      "name": "MINTER_ROLE",
      "outputs": [
        {
          "internalType": "bytes32",
          "name": "",
          "type": "bytes32"
        }
      ],
      "stateMutability": "view",
      "type": "function"
    },
    {
      "inputs": [],
      "name": "UPGRADER_ROLE",
      "outputs": [
        {
          "internalType": "bytes32",
          "name": "",
          "type": "bytes32"
        }
      ],
      "stateMutability": "view",
      "type": "function"
    },
    {
      "inputs": [
        {
          "internalType": "uint256",
          "name": "id",
          "type": "uint256"
        },
        {
          "components": [
            {
              "internalType": "contract IERC1155Upgradeable",
              "name": "erc1155",
              "type": "address"
            },
            {
              "internalType": "uint256[]",
              "name": "tokenIds",
              "type": "uint256[]"
            },
            {
              "internalType": "uint256[]",
              "name": "amounts",
              "type": "uint256[]"
            }
          ],
          "internalType": "struct MelandTierStorage.ERC1155Reward[]",
          "name": "erc1155rewards",
          "type": "tuple[]"
        },
        {
          "components": [
            {
              "internalType": "contract IERC721Upgradeable",
              "name": "erc721",
              "type": "address"
            },
            {
              "internalType": "uint256",
              "name": "tokenId",
              "type": "uint256"
            }
          ],
          "internalType": "struct MelandTierStorage.ERC721Reward[]",
          "name": "erc721rewards",
          "type": "tuple[]"
        },
        {
          "components": [
            {
              "internalType": "contract IERC20Upgradeable",
              "name": "erc20",
              "type": "address"
            },
            {
              "internalType": "uint256",
              "name": "amount",
              "type": "uint256"
            }
          ],
          "internalType": "struct MelandTierStorage.ERC20Reward[]",
          "name": "erc20rewards",
          "type": "tuple[]"
        }
      ],
      "name": "add100PercentReward",
      "outputs": [],
      "stateMutability": "nonpayable",
      "type": "function"
    },
    {
      "inputs": [
        {
          "internalType": "uint256",
          "name": "id",
          "type": "uint256"
        },
        {
          "components": [
            {
              "internalType": "contract IERC1155Upgradeable",
              "name": "erc1155",
              "type": "address"
            },
            {
              "internalType": "uint256[]",
              "name": "tokenIds",
              "type": "uint256[]"
            },
            {
              "internalType": "uint256[]",
              "name": "amounts",
              "type": "uint256[]"
            }
          ],
          "internalType": "struct MelandTierStorage.ERC1155Reward[]",
          "name": "erc1155rewards",
          "type": "tuple[]"
        },
        {
          "components": [
            {
              "internalType": "contract IERC721Upgradeable",
              "name": "erc721",
              "type": "address"
            },
            {
              "internalType": "uint256",
              "name": "tokenId",
              "type": "uint256"
            }
          ],
          "internalType": "struct MelandTierStorage.ERC721Reward[]",
          "name": "erc721rewards",
          "type": "tuple[]"
        },
        {
          "components": [
            {
              "internalType": "contract IERC20Upgradeable",
              "name": "erc20",
              "type": "address"
            },
            {
              "internalType": "uint256",
              "name": "amount",
              "type": "uint256"
            }
          ],
          "internalType": "struct MelandTierStorage.ERC20Reward[]",
          "name": "erc20rewards",
          "type": "tuple[]"
        }
      ],
      "name": "addOptionReward",
      "outputs": [],
      "stateMutability": "nonpayable",
      "type": "function"
    },
    {
      "inputs": [
        {
          "internalType": "address",
          "name": "account",
          "type": "address"
        },
        {
          "internalType": "uint256",
          "name": "id",
          "type": "uint256"
        }
      ],
      "name": "balanceOf",
      "outputs": [
        {
          "internalType": "uint256",
          "name": "",
          "type": "uint256"
        }
      ],
      "stateMutability": "view",
      "type": "function"
    },
    {
      "inputs": [
        {
          "internalType": "address[]",
          "name": "accounts",
          "type": "address[]"
        },
        {
          "internalType": "uint256[]",
          "name": "ids",
          "type": "uint256[]"
        }
      ],
      "name": "balanceOfBatch",
      "outputs": [
        {
          "internalType": "uint256[]",
          "name": "",
          "type": "uint256[]"
        }
      ],
      "stateMutability": "view",
      "type": "function"
    },
    {
      "inputs": [
        {
          "internalType": "address",
          "name": "account",
          "type": "address"
        },
        {
          "internalType": "uint256",
          "name": "id",
          "type": "uint256"
        },
        {
          "internalType": "uint256",
          "name": "value",
          "type": "uint256"
        }
      ],
      "name": "burn",
      "outputs": [],
      "stateMutability": "nonpayable",
      "type": "function"
    },
    {
      "inputs": [
        {
          "internalType": "address",
          "name": "account",
          "type": "address"
        },
        {
          "internalType": "uint256[]",
          "name": "ids",
          "type": "uint256[]"
        },
        {
          "internalType": "uint256[]",
          "name": "values",
          "type": "uint256[]"
        }
      ],
      "name": "burnBatch",
      "outputs": [],
      "stateMutability": "nonpayable",
      "type": "function"
    },
    {
      "inputs": [
        {
          "internalType": "uint256",
          "name": "id",
          "type": "uint256"
        }
      ],
      "name": "getCidByTokenId",
      "outputs": [
        {
          "internalType": "uint256",
          "name": "",
          "type": "uint256"
        }
      ],
      "stateMutability": "view",
      "type": "function"
    },
    {
      "inputs": [
        {
          "internalType": "bytes32",
          "name": "role",
          "type": "bytes32"
        }
      ],
      "name": "getRoleAdmin",
      "outputs": [
        {
          "internalType": "bytes32",
          "name": "",
          "type": "bytes32"
        }
      ],
      "stateMutability": "view",
      "type": "function"
    },
    {
      "inputs": [
        {
          "internalType": "bytes32",
          "name": "role",
          "type": "bytes32"
        },
        {
          "internalType": "address",
          "name": "account",
          "type": "address"
        }
      ],
      "name": "grantRole",
      "outputs": [],
      "stateMutability": "nonpayable",
      "type": "function"
    },
    {
      "inputs": [
        {
          "internalType": "bytes32",
          "name": "role",
          "type": "bytes32"
        },
        {
          "internalType": "address",
          "name": "account",
          "type": "address"
        }
      ],
      "name": "hasRole",
      "outputs": [
        {
          "internalType": "bool",
          "name": "",
          "type": "bool"
        }
      ],
      "stateMutability": "view",
      "type": "function"
    },
    {
      "inputs": [
        {
          "internalType": "address",
          "name": "",
          "type": "address"
        },
        {
          "internalType": "address",
          "name": "",
          "type": "address"
        },
        {
          "internalType": "uint256[]",
          "name": "",
          "type": "uint256[]"
        },
        {
          "internalType": "uint256[]",
          "name": "",
          "type": "uint256[]"
        },
        {
          "internalType": "bytes",
          "name": "",
          "type": "bytes"
        }
      ],
      "name": "onERC1155BatchReceived",
      "outputs": [
        {
          "internalType": "bytes4",
          "name": "",
          "type": "bytes4"
        }
      ],
      "stateMutability": "nonpayable",
      "type": "function"
    },
    {
      "inputs": [
        {
          "internalType": "address",
          "name": "",
          "type": "address"
        },
        {
          "internalType": "address",
          "name": "",
          "type": "address"
        },
        {
          "internalType": "uint256",
          "name": "",
          "type": "uint256"
        },
        {
          "internalType": "uint256",
          "name": "",
          "type": "uint256"
        },
        {
          "internalType": "bytes",
          "name": "",
          "type": "bytes"
        }
      ],
      "name": "onERC1155Received",
      "outputs": [
        {
          "internalType": "bytes4",
          "name": "",
          "type": "bytes4"
        }
      ],
      "stateMutability": "nonpayable",
      "type": "function"
    },
    {
      "inputs": [
        {
          "internalType": "bytes32",
          "name": "role",
          "type": "bytes32"
        },
        {
          "internalType": "address",
          "name": "account",
          "type": "address"
        }
      ],
      "name": "renounceRole",
      "outputs": [],
      "stateMutability": "nonpayable",
      "type": "function"
    },
    {
      "inputs": [
        {
          "internalType": "bytes32",
          "name": "role",
          "type": "bytes32"
        },
        {
          "internalType": "address",
          "name": "account",
          "type": "address"
        }
      ],
      "name": "revokeRole",
      "outputs": [],
      "stateMutability": "nonpayable",
      "type": "function"
    },
    {
      "inputs": [
        {
          "internalType": "address",
          "name": "from",
          "type": "address"
        },
        {
          "internalType": "address",
          "name": "to",
          "type": "address"
        },
        {
          "internalType": "uint256[]",
          "name": "ids",
          "type": "uint256[]"
        },
        {
          "internalType": "uint256[]",
          "name": "amounts",
          "type": "uint256[]"
        },
        {
          "internalType": "bytes",
          "name": "data",
          "type": "bytes"
        }
      ],
      "name": "safeBatchTransferFrom",
      "outputs": [],
      "stateMutability": "nonpayable",
      "type": "function"
    },
    {
      "inputs": [
        {
          "internalType": "address",
          "name": "from",
          "type": "address"
        },
        {
          "internalType": "address",
          "name": "to",
          "type": "address"
        },
        {
          "internalType": "uint256",
          "name": "id",
          "type": "uint256"
        },
        {
          "internalType": "uint256",
          "name": "amount",
          "type": "uint256"
        },
        {
          "internalType": "bytes",
          "name": "data",
          "type": "bytes"
        }
      ],
      "name": "safeTransferFrom",
      "outputs": [],
      "stateMutability": "nonpayable",
      "type": "function"
    },
    {
      "inputs": [
        {
          "internalType": "address",
          "name": "operator",
          "type": "address"
        },
        {
          "internalType": "bool",
          "name": "approved",
          "type": "bool"
        }
      ],
      "name": "setApprovalForAll",
      "outputs": [],
      "stateMutability": "nonpayable",
      "type": "function"
    },
    {
      "inputs": [
        {
          "internalType": "address",
          "name": "newImplementation",
          "type": "address"
        }
      ],
      "name": "upgradeTo",
      "outputs": [],
      "stateMutability": "nonpayable",
      "type": "function"
    },
    {
      "inputs": [
        {
          "internalType": "address",
          "name": "newImplementation",
          "type": "address"
        },
        {
          "internalType": "bytes",
          "name": "data",
          "type": "bytes"
        }
      ],
      "name": "upgradeToAndCall",
      "outputs": [],
      "stateMutability": "payable",
      "type": "function"
    },
    {
      "inputs": [
        {
          "internalType": "uint256",
          "name": "",
          "type": "uint256"
        }
      ],
      "name": "uri",
      "outputs": [
        {
          "internalType": "string",
          "name": "",
          "type": "string"
        }
      ],
      "stateMutability": "view",
      "type": "function"
    },
    {
      "inputs": [
        {
          "internalType": "string",
          "name": "uri",
          "type": "string"
        }
      ],
      "name": "initialize",
      "outputs": [],
      "stateMutability": "nonpayable",
      "type": "function"
    },
    {
      "inputs": [
        {
          "internalType": "string",
          "name": "newuri",
          "type": "string"
        }
      ],
      "name": "setURI",
      "outputs": [],
      "stateMutability": "nonpayable",
      "type": "function"
    },
    {
      "inputs": [
        {
          "internalType": "address",
          "name": "account",
          "type": "address"
        },
        {
          "internalType": "uint256",
          "name": "cid",
          "type": "uint256"
        },
        {
          "internalType": "uint256",
          "name": "amount",
          "type": "uint256"
        },
        {
          "internalType": "bytes",
          "name": "data",
          "type": "bytes"
        }
      ],
      "name": "mint",
      "outputs": [],
      "stateMutability": "nonpayable",
      "type": "function"
    },
    {
      "inputs": [
        {
          "internalType": "address",
          "name": "_owner",
          "type": "address"
        },
        {
          "internalType": "address",
          "name": "_operator",
          "type": "address"
        }
      ],
      "name": "isApprovedForAll",
      "outputs": [
        {
          "internalType": "bool",
          "name": "isOperator",
          "type": "bool"
        }
      ],
      "stateMutability": "view",
      "type": "function"
    },
    {
      "inputs": [
        {
          "internalType": "uint256",
          "name": "id",
          "type": "uint256"
        }
      ],
      "name": "getAllRewardsById",
      "outputs": [
        {
          "components": [
            {
              "internalType": "contract IERC1155Upgradeable",
              "name": "erc1155",
              "type": "address"
            },
            {
              "internalType": "uint256[]",
              "name": "tokenIds",
              "type": "uint256[]"
            },
            {
              "internalType": "uint256[]",
              "name": "amounts",
              "type": "uint256[]"
            }
          ],
          "internalType": "struct MelandTierStorage.ERC1155Reward[]",
          "name": "erc1155rewards",
          "type": "tuple[]"
        },
        {
          "components": [
            {
              "internalType": "contract IERC721Upgradeable",
              "name": "erc721",
              "type": "address"
            },
            {
              "internalType": "uint256",
              "name": "tokenId",
              "type": "uint256"
            }
          ],
          "internalType": "struct MelandTierStorage.ERC721Reward[]",
          "name": "erc721rewards",
          "type": "tuple[]"
        },
        {
          "components": [
            {
              "internalType": "contract IERC20Upgradeable",
              "name": "erc20",
              "type": "address"
            },
            {
              "internalType": "uint256",
              "name": "amount",
              "type": "uint256"
            }
          ],
          "internalType": "struct MelandTierStorage.ERC20Reward[]",
          "name": "erc20rewards",
          "type": "tuple[]"
        }
      ],
      "stateMutability": "view",
      "type": "function"
    },
    {
      "inputs": [
        {
          "internalType": "uint256",
          "name": "id",
          "type": "uint256"
        }
      ],
      "name": "openTier",
      "outputs": [
        {
          "internalType": "uint256[]",
          "name": "returnRewardIds",
          "type": "uint256[]"
        }
      ],
      "stateMutability": "nonpayable",
      "type": "function"
    },
    {
      "inputs": [
        {
          "internalType": "uint256",
          "name": "id",
          "type": "uint256"
        }
      ],
      "name": "startSale",
      "outputs": [],
      "stateMutability": "nonpayable",
      "type": "function"
    },
    {
      "inputs": [
        {
          "internalType": "bytes4",
          "name": "interfaceId",
          "type": "bytes4"
        }
      ],
      "name": "supportsInterface",
      "outputs": [
        {
          "internalType": "bool",
          "name": "",
          "type": "bool"
        }
      ],
      "stateMutability": "view",
      "type": "function"
    }
  ],
  "bytecode": "0x60a0604052306080523480156200001557600080fd5b50600054610100900460ff168062000030575060005460ff16155b620000885760405162461bcd60e51b815260206004820152602e602482015260008051602062004d3c83398151915260448201526d191e481a5b9a5d1a585b1a5e995960921b60648201526084015b60405180910390fd5b600054610100900460ff16158015620000ab576000805461ffff19166101011790555b8015620000be576000805461ff00191690555b50600054610100900460ff1680620000d9575060005460ff16155b6200012d5760405162461bcd60e51b815260206004820152602e602482015260008051602062004d3c83398151915260448201526d191e481a5b9a5d1a585b1a5e995960921b60648201526084016200007f565b600054610100900460ff1615801562000150576000805461ffff19166101011790555b801562000163576000805461ff00191690555b50608051614ba76200019560003960008181610960015281816109a001528181610eba0152610efa0152614ba76000f3fe6080604052600436106101e25760003560e01c8063579460ca11610102578063d547741f11610095578063f242432a11610064578063f242432a14610602578063f5298aca14610622578063f62d188814610642578063f72c0d8b1461066257600080fd5b8063d547741f14610576578063e1e9646a14610596578063e985e9c5146105b6578063f23a6e61146105d657600080fd5b8063a217fddf116100d1578063a217fddf146104c8578063a22cb465146104dd578063bc197c81146104fd578063d53913931461054257600080fd5b8063579460ca146104395780636b20c45414610468578063731133e91461048857806391d14854146104a857600080fd5b806330c7be2c1161017a5780633ef780bc116101495780633ef780bc146103b85780634e1273f4146103e65780634f1ef2861461040657806357587f3f1461041957600080fd5b806330c7be2c1461032957806336568abe1461034b5780633659cfe61461036b578063384c6f891461038b57600080fd5b80630e89341c116101b65780630e89341c1461028c578063248a9ca3146102b95780632eb2c2d6146102e95780632f2ff15d1461030957600080fd5b8062fdd58e146101e757806301ffc9a71461021a57806302fe53051461024a5780630e3ab61d1461026c575b600080fd5b3480156101f357600080fd5b506102076102023660046138a8565b610696565b6040519081526020015b60405180910390f35b34801561022657600080fd5b5061023a6102353660046138ea565b610732565b6040519015158152602001610211565b34801561025657600080fd5b5061026a6102653660046139ea565b61073d565b005b34801561027857600080fd5b5061026a610287366004613a3a565b610763565b34801561029857600080fd5b506102ac6102a7366004613a3a565b610785565b6040516102119190613aab565b3480156102c557600080fd5b506102076102d4366004613a3a565b60009081526065602052604090206001015490565b3480156102f557600080fd5b5061026a610304366004613b72565b610819565b34801561031557600080fd5b5061026a610324366004613c1f565b6108b0565b34801561033557600080fd5b50610207600080516020614b5283398151915281565b34801561035757600080fd5b5061026a610366366004613c1f565b6108db565b34801561037757600080fd5b5061026a610386366004613c4f565b610955565b34801561039757600080fd5b506103ab6103a6366004613a3a565b610a1e565b6040516102119190613ca7565b3480156103c457600080fd5b506102076103d3366004613a3a565b6000908152610109602052604090205490565b3480156103f257600080fd5b506103ab610401366004613cba565b610d86565b61026a610414366004613d86565b610eaf565b34801561042557600080fd5b5061026a610434366004613f01565b610f65565b34801561044557600080fd5b50610459610454366004613a3a565b610feb565b604051610211939291906140c7565b34801561047457600080fd5b5061026a61048336600461418b565b61139f565b34801561049457600080fd5b5061026a6104a3366004614200565b6113e2565b3480156104b457600080fd5b5061023a6104c3366004613c1f565b611419565b3480156104d457600080fd5b50610207600081565b3480156104e957600080fd5b5061026a6104f8366004614264565b611444565b34801561050957600080fd5b50610529610518366004613b72565b63bc197c8160e01b95945050505050565b6040516001600160e01b03199091168152602001610211565b34801561054e57600080fd5b506102077f9f2df0fed2c77648de5860a4cc508cd0818c85b8b8a1ab4ceeef8d981c8956a681565b34801561058257600080fd5b5061026a610591366004613c1f565b61144f565b3480156105a257600080fd5b5061026a6105b1366004613f01565b611475565b3480156105c257600080fd5b5061023a6105d1366004614292565b6114ba565b3480156105e257600080fd5b506105296105f13660046142c0565b63f23a6e6160e01b95945050505050565b34801561060e57600080fd5b5061026a61061d3660046142c0565b61151a565b34801561062e57600080fd5b5061026a61063d366004614328565b61155f565b34801561064e57600080fd5b5061026a61065d3660046139ea565b6115a2565b34801561066e57600080fd5b506102077f189ab7a9244df0848122154315af71fe140f3db0fe014031783b0946b8c9d2e381565b60006001600160a01b0383166107075760405162461bcd60e51b815260206004820152602b60248201527f455243313135353a2062616c616e636520717565727920666f7220746865207a60448201526a65726f206164647265737360a81b60648201526084015b60405180910390fd5b50600081815260a4602090815260408083206001600160a01b03861684529091529020545b92915050565b600061072c82611627565b600080516020614b52833981519152610756813361164c565b61075f826116b0565b5050565b600080516020614b5283398151915261077c813361164c565b61075f826116c3565b606060a680546107949061435d565b80601f01602080910402602001604051908101604052809291908181526020018280546107c09061435d565b801561080d5780601f106107e25761010080835404028352916020019161080d565b820191906000526020600020905b8154815290600101906020018083116107f057829003601f168201915b50505050509050919050565b6001600160a01b038516331480610835575061083585336114ba565b61089c5760405162461bcd60e51b815260206004820152603260248201527f455243313135353a207472616e736665722063616c6c6572206973206e6f74206044820152711bdddb995c881b9bdc88185c1c1c9bdd995960721b60648201526084016106fe565b6108a985858585856117d7565b5050505050565b6000828152606560205260409020600101546108cc813361164c565b6108d68383611984565b505050565b6001600160a01b038116331461094b5760405162461bcd60e51b815260206004820152602f60248201527f416363657373436f6e74726f6c3a2063616e206f6e6c792072656e6f756e636560448201526e103937b632b9903337b91039b2b63360891b60648201526084016106fe565b61075f8282611a0a565b306001600160a01b037f000000000000000000000000000000000000000000000000000000000000000016141561099e5760405162461bcd60e51b81526004016106fe90614398565b7f00000000000000000000000000000000000000000000000000000000000000006001600160a01b03166109d0611a71565b6001600160a01b0316146109f65760405162461bcd60e51b81526004016106fe906143e4565b6109ff81611a9f565b60408051600080825260208201909252610a1b91839190611aca565b50565b60606000610a2c3384610696565b11610a705760405162461bcd60e51b8152602060048201526014602482015273496e73756666696369656e742062616c616e636560601b60448201526064016106fe565b6000828152609f6020908152604080832060a19092529091208154610ac75760405162461bcd60e51b815260206004820152600d60248201526c1cde5cdd195b4819985a5b1959609a1b60448201526064016106fe565b81546040805160208084028201810190925282815260009291610b22919086908490830182828015610b1857602002820191906000526020600020905b815481526020019060010190808311610b04575b5050505050611c0e565b610b2c9190614430565b90506000838281548110610b4257610b42614452565b906000526020600020015490508085600081518110610b6357610b63614452565b6020908102919091010152610b79335b82611c43565b8354600090610b8a9060019061447e565b90506000858281548110610ba057610ba0614452565b9060005260206000200154905080868581548110610bc057610bc0614452565b906000526020600020018190555085805480610bde57610bde614495565b6001900381819060005260206000200160009055905585609f60008a8152602001908152602001600020908054610c16929190613780565b50845415610d6f5784546040805160208084028201810190925282815260009291610c77919089908490830182828015610b185760200282019190600052602060002090815481526020019060010190808311610b04575050505050611c0e565b610c819190614430565b90506000868281548110610c9757610c97614452565b906000526020600020015490508089600181518110610cb857610cb8614452565b6020908102919091010152610ccc33610b73565b8654600090610cdd9060019061447e565b90506000888281548110610cf357610cf3614452565b9060005260206000200154905080898581548110610d1357610d13614452565b906000526020600020018190555088805480610d3157610d31614495565b600190038181906000526020600020016000905590558860a160008e8152602001908152602001600020908054610d69929190613780565b50505050505b610d7b3389600161155f565b505050505050919050565b60608151835114610deb5760405162461bcd60e51b815260206004820152602960248201527f455243313135353a206163636f756e747320616e6420696473206c656e677468604482015268040dad2e6dac2e8c6d60bb1b60648201526084016106fe565b600083516001600160401b03811115610e0657610e06613907565b604051908082528060200260200182016040528015610e2f578160200160208202803683370190505b50905060005b8451811015610ea757610e7a858281518110610e5357610e53614452565b6020026020010151858381518110610e6d57610e6d614452565b6020026020010151610696565b828281518110610e8c57610e8c614452565b6020908102919091010152610ea0816144ab565b9050610e35565b509392505050565b306001600160a01b037f0000000000000000000000000000000000000000000000000000000000000000161415610ef85760405162461bcd60e51b81526004016106fe90614398565b7f00000000000000000000000000000000000000000000000000000000000000006001600160a01b0316610f2a611a71565b6001600160a01b031614610f505760405162461bcd60e51b81526004016106fe906143e4565b610f5982611a9f565b61075f82826001611aca565b600084815260a0602052604090205415610f915760405162461bcd60e51b81526004016106fe906144c6565b600084815260a160205260409020610faa848484612173565b8154600181018355600092835260208320015560405185917fe4b7e0bb3edd3119b8854a52d62b18a5a44ba6827d49ea293a7f44c7b43dc26191a250505050565b6000818152609e602090815260408083208151815460809481028201850190935260608181018481529095869586959194928492909184919084018282801561105357602002820191906000526020600020905b81548152602001906001019080831161103f575b50505050508152602001600182018054806020026020016040519081016040528092919081815260200182805480156110ab57602002820191906000526020600020905b815481526020019060010190808311611097575b505050505081526020016002820180548060200260200160405190810160405280929190818152602001828054801561110357602002820191906000526020600020905b8154815260200190600101908083116110ef575b505050505081525050905060005b81515160ff8216101561125057609d600083600001518360ff168151811061113b5761113b614452565b6020908102919091018101518252818101929092526040908101600020815160608101835281546001600160a01b0316815260018201805484518187028101870190955280855291949293858401939092908301828280156111bc57602002820191906000526020600020905b8154815260200190600101908083116111a8575b505050505081526020016002820180548060200260200160405190810160405280929190818152602001828054801561121457602002820191906000526020600020905b815481526020019060010190808311611200575b505050505081525050858260ff168151811061123257611232614452565b6020026020010181905250808061124890614537565b915050611111565b5060005b8160200151518160ff1610156112f357609b600083602001518360ff168151811061128157611281614452565b6020908102919091018101518252818101929092526040908101600020815180830190925280546001600160a01b0316825260010154918101919091528451859060ff84169081106112d5576112d5614452565b602002602001018190525080806112eb90614537565b915050611254565b5060005b8160400151518160ff16101561139657609c600083604001518360ff168151811061132457611324614452565b6020908102919091018101518252818101929092526040908101600020815180830190925280546001600160a01b0316825260010154918101919091528351849060ff841690811061137857611378614452565b6020026020010181905250808061138e90614537565b9150506112f7565b50509193909250565b6001600160a01b0383163314806113bb57506113bb83336114ba565b6113d75760405162461bcd60e51b81526004016106fe90614557565b6108d6838383612559565b7f9f2df0fed2c77648de5860a4cc508cd0818c85b8b8a1ab4ceeef8d981c8956a661140d813361164c565b6108a9858585856126ea565b60009182526065602090815260408084206001600160a01b0393909316845291905290205460ff1690565b61075f33838361277c565b60008281526065602052604090206001015461146b813361164c565b6108d68383611a0a565b600084815260a06020526040902054156114a15760405162461bcd60e51b81526004016106fe906144c6565b6000848152609f60205260409020610faa848484612173565b60006001600160a01b03821673207fa8df3a17d96ca7ea4f2893fcdcb78a30410114156114e95750600161072c565b6001600160a01b03808416600090815260a5602090815260408083209386168352929052205460ff165b9392505050565b6001600160a01b038516331480611536575061153685336114ba565b6115525760405162461bcd60e51b81526004016106fe90614557565b6108a9858585858561285d565b6001600160a01b03831633148061157b575061157b83336114ba565b6115975760405162461bcd60e51b81526004016106fe90614557565b6108d683838361298d565b600054610100900460ff16806115bb575060005460ff16155b6115d75760405162461bcd60e51b81526004016106fe906145a0565b600054610100900460ff161580156115f9576000805461ffff19166101011790555b611601612a92565b61160a82612b0d565b611612612b75565b801561075f576000805461ff00191690555050565b60006001600160e01b03198216630271189760e51b148061072c575061072c82612bf6565b6116568282611419565b61075f5761166e816001600160a01b03166014612c36565b611679836020612c36565b60405160200161168a9291906145ee565b60408051601f198184030181529082905262461bcd60e51b82526106fe91600401613aab565b805161075f9060a69060208401906137d0565b6000818152609f60205260409020546116ee5760405162461bcd60e51b81526004016106fe90614663565b600081815260a1602052604090205461175d5760405162461bcd60e51b815260206004820152602b60248201527f53616c657320646f6e2774207365656d20746f206265207265616479286f707460448201526a696f6e207265776172642960a81b60648201526084016106fe565b6000818152609f6020908152604080832060a090925290912081546117829290613780565b50600081815260a16020908152604080832060a290925290912081546117a89290613780565b5060405181907ff41f6e5c1ea27387c8494610493f43af7f9f1c4e57b83aaafb57193d9a28ad1490600090a250565b81518351146117f85760405162461bcd60e51b81526004016106fe906146b2565b6001600160a01b03841661181e5760405162461bcd60e51b81526004016106fe906146fa565b3361182d818787878787612dd1565b60005b845181101561191657600085828151811061184d5761184d614452565b60200260200101519050600085838151811061186b5761186b614452565b602090810291909101810151600084815260a4835260408082206001600160a01b038e1683529093529190912054909150818110156118bc5760405162461bcd60e51b81526004016106fe9061473f565b600083815260a4602090815260408083206001600160a01b038e8116855292528083208585039055908b168252812080548492906118fb908490614789565b925050819055505050508061190f906144ab565b9050611830565b50846001600160a01b0316866001600160a01b0316826001600160a01b03167f4a39dc06d4c0dbc64b70af90fd698a233a518aa5d07e595d983b8c0526c8f7fb87876040516119669291906147a1565b60405180910390a461197c818787878787612e2f565b505050505050565b61198e8282611419565b61075f5760008281526065602090815260408083206001600160a01b03851684529091529020805460ff191660011790556119c63390565b6001600160a01b0316816001600160a01b0316837f2f8788117e7eff1d82e926ec794901d17c78024a50270940304540a733656f0d60405160405180910390a45050565b611a148282611419565b1561075f5760008281526065602090815260408083206001600160a01b0385168085529252808320805460ff1916905551339285917ff6391f5c32d9c69d2a47ea670b442974b53935d1edc7fd64eb21e047a839171b9190a45050565b7f360894a13ba1a3210667c828492db98dca3e2076cc3735a920a3ca505d382bbc546001600160a01b031690565b7f189ab7a9244df0848122154315af71fe140f3db0fe014031783b0946b8c9d2e361075f813361164c565b6000611ad4611a71565b9050611adf84612f9a565b600083511180611aec5750815b15611afd57611afb848461303f565b505b7f4910fdfa16fed3260ed0e7147f7cc6da11a60208b5b9406d12a635614ffd9143805460ff166108a957805460ff191660011781556040516001600160a01b0383166024820152611b7c90869060440160408051601f198184030181529190526020810180516001600160e01b0316631b2ce7f360e11b17905261303f565b50805460ff19168155611b8d611a71565b6001600160a01b0316826001600160a01b031614611c055760405162461bcd60e51b815260206004820152602f60248201527f45524331393637557067726164653a207570677261646520627265616b73206660448201526e75727468657220757067726164657360881b60648201526084016106fe565b6108a98561312a565b6000444283604051602001611c25939291906147c6565b60408051601f19818403018152919052805160209091012092915050565b600081815260a3602052604090205460ff1615611cb15760405162461bcd60e51b815260206004820152602660248201527f5468652061776172642068617320616c7265616479206265656e207472616e7360448201526519995c9c995960d21b60648201526084016106fe565b600081815260a360209081526040808320805460ff19166001179055609e82528083208151815460809481028201850190935260608101838152909391928492849190840182828015611d2357602002820191906000526020600020905b815481526020019060010190808311611d0f575b5050505050815260200160018201805480602002602001604051908101604052809291908181526020018280548015611d7b57602002820191906000526020600020905b815481526020019060010190808311611d67575b5050505050815260200160028201805480602002602001604051908101604052809291908181526020018280548015611dd357602002820191906000526020600020905b815481526020019060010190808311611dbf575b5050509190925250508151519192505015611f805760005b81515160ff82161015611f7e57600082600001518260ff1681518110611e1357611e13614452565b6020908102919091018101516000818152609d83526040808220815160608101835281546001600160a01b0316815260018201805484518189028101890190955280855295975093959094919385820193929091830182828015611e9657602002820191906000526020600020905b815481526020019060010190808311611e82575b5050505050815260200160028201805480602002602001604051908101604052809291908181526020018280548015611eee57602002820191906000526020600020905b815481526020019060010190808311611eda575b505050505081525050905080600001516001600160a01b0316632eb2c2d63088846020015185604001516040518563ffffffff1660e01b8152600401611f379493929190614808565b600060405180830381600087803b158015611f5157600080fd5b505af1158015611f65573d6000803e3d6000fd5b5050505050508080611f7690614537565b915050611deb565b505b602081015151156120675760005b8160200151518160ff16101561206557600082602001518260ff1681518110611fb957611fb9614452565b6020908102919091018101516000818152609b83526040908190208151808301835281546001600160a01b031680825260019092015494810185905291516323b872dd60e01b8152929450909290916323b872dd9161201e9130918b91600401614863565b600060405180830381600087803b15801561203857600080fd5b505af115801561204c573d6000803e3d6000fd5b505050505050808061205d90614537565b915050611f8e565b505b604081015151156108d65760005b8160400151518160ff16101561216d57600082604001518260ff16815181106120a0576120a0614452565b6020908102919091018101516000818152609c83526040908190208151808301835281546001600160a01b031680825260019092015494810185905291516323b872dd60e01b8152929450909290916323b872dd916121059130918b91600401614863565b602060405180830381600087803b15801561211f57600080fd5b505af1158015612133573d6000803e3d6000fd5b505050506040513d601f19601f820116820180604052508101906121579190614887565b505050808061216590614537565b915050612075565b50505050565b600061217e60975490565b905061218e609780546001019055565b606080606060005b87518160ff1610156122e7576000888260ff16815181106121b9576121b9614452565b6020026020010151905060006121ce60985490565b90506121de609880546001019055565b6000818152609d60209081526040909120835181546001600160a01b0319166001600160a01b039091161781558382015180518593612224926001850192910190613844565b5060408201518051612240916002840191602090910190613844565b5090505080868460ff168151811061225a5761225a614452565b602090810291909101015281516001600160a01b0316632eb2c2d63330856020015186604001516040518563ffffffff1660e01b81526004016122a09493929190614808565b600060405180830381600087803b1580156122ba57600080fd5b505af11580156122ce573d6000803e3d6000fd5b50505050505080806122df90614537565b915050612196565b5060005b86518160ff16101561240a576000878260ff168151811061230e5761230e614452565b60200260200101519050600061232360995490565b9050612333609980546001019055565b6000818152609b60209081526040909120835181546001600160a01b0319166001600160a01b039091161781559083015160019091015584518190869060ff861690811061238357612383614452565b602090810291909101015281516001600160a01b03166323b872dd333085602001516040518463ffffffff1660e01b81526004016123c393929190614863565b600060405180830381600087803b1580156123dd57600080fd5b505af11580156123f1573d6000803e3d6000fd5b505050505050808061240290614537565b9150506122eb565b5060005b85518160ff16101561254e576000868260ff168151811061243157612431614452565b602002602001015190506000612446609a5490565b9050612456609a80546001019055565b6000818152609c60209081526040909120835181546001600160a01b0319166001600160a01b039091161781559083015160019091015583518190859060ff86169081106124a6576124a6614452565b602090810291909101015281516001600160a01b03166323b872dd333085602001516040518463ffffffff1660e01b81526004016124e693929190614863565b602060405180830381600087803b15801561250057600080fd5b505af1158015612514573d6000803e3d6000fd5b505050506040513d601f19601f820116820180604052508101906125389190614887565b505050808061254690614537565b91505061240e565b505050509392505050565b6001600160a01b03831661257f5760405162461bcd60e51b81526004016106fe906148a4565b80518251146125a05760405162461bcd60e51b81526004016106fe906146b2565b60003390506125c381856000868660405180602001604052806000815250612dd1565b60005b835181101561268b5760008482815181106125e3576125e3614452565b60200260200101519050600084838151811061260157612601614452565b602090810291909101810151600084815260a4835260408082206001600160a01b038c1683529093529190912054909150818110156126525760405162461bcd60e51b81526004016106fe906148e7565b600092835260a4602090815260408085206001600160a01b038b1686529091529092209103905580612683816144ab565b9150506125c6565b5060006001600160a01b0316846001600160a01b0316826001600160a01b03167f4a39dc06d4c0dbc64b70af90fd698a233a518aa5d07e595d983b8c0526c8f7fb86866040516126dc9291906147a1565b60405180910390a450505050565b600082116127445760405162461bcd60e51b815260206004820152602160248201527f54686520616d6f756e74206d7573742062652067726561746572207468616e206044820152600360fc1b60648201526084016106fe565b60005b828110156108a957600061275a8561316a565b9050612769868260018661319f565b5080612774816144ab565b915050612747565b816001600160a01b0316836001600160a01b031614156127f05760405162461bcd60e51b815260206004820152602960248201527f455243313135353a2073657474696e6720617070726f76616c20737461747573604482015268103337b91039b2b63360b91b60648201526084016106fe565b6001600160a01b03838116600081815260a56020908152604080832094871680845294825291829020805460ff191686151590811790915591519182527f17307eab39ab6107e8899845ad3d59bd9653f200f220920489ca2b5937696c31910160405180910390a3505050565b6001600160a01b0384166128835760405162461bcd60e51b81526004016106fe906146fa565b336128a2818787612893886132a2565b61289c886132a2565b87612dd1565b600084815260a4602090815260408083206001600160a01b038a168452909152902054838110156128e55760405162461bcd60e51b81526004016106fe9061473f565b600085815260a4602090815260408083206001600160a01b038b8116855292528083208785039055908816825281208054869290612924908490614789565b909155505060408051868152602081018690526001600160a01b03808916928a821692918616917fc3d58168c5ae7397731d063d5bbf3d657854427343f4c083240f7aacaa2d0f62910160405180910390a46129848288888888886132ed565b50505050505050565b6001600160a01b0383166129b35760405162461bcd60e51b81526004016106fe906148a4565b336129e2818560006129c4876132a2565b6129cd876132a2565b60405180602001604052806000815250612dd1565b600083815260a4602090815260408083206001600160a01b038816845290915290205482811015612a255760405162461bcd60e51b81526004016106fe906148e7565b600084815260a4602090815260408083206001600160a01b03898116808652918452828520888703905582518981529384018890529092908616917fc3d58168c5ae7397731d063d5bbf3d657854427343f4c083240f7aacaa2d0f62910160405180910390a45050505050565b600054610100900460ff1680612aab575060005460ff16155b612ac75760405162461bcd60e51b81526004016106fe906145a0565b600054610100900460ff16158015612ae9576000805461ffff19166101011790555b612af16133b7565b612af96133b7565b8015610a1b576000805461ff001916905550565b600054610100900460ff1680612b26575060005460ff16155b612b425760405162461bcd60e51b81526004016106fe906145a0565b600054610100900460ff16158015612b64576000805461ffff19166101011790555b612b6d82613421565b611612613491565b612b7d613491565b612b88600033611984565b612ba0600080516020614b5283398151915233611984565b612bca7f9f2df0fed2c77648de5860a4cc508cd0818c85b8b8a1ab4ceeef8d981c8956a633611984565b612bf47f189ab7a9244df0848122154315af71fe140f3db0fe014031783b0946b8c9d2e333611984565b565b60006001600160e01b03198216636cdb3d1360e11b1480612c2757506001600160e01b031982166303a24d0760e21b145b8061072c575061072c826134f0565b60606000612c4583600261492b565b612c50906002614789565b6001600160401b03811115612c6757612c67613907565b6040519080825280601f01601f191660200182016040528015612c91576020820181803683370190505b509050600360fc1b81600081518110612cac57612cac614452565b60200101906001600160f81b031916908160001a905350600f60fb1b81600181518110612cdb57612cdb614452565b60200101906001600160f81b031916908160001a9053506000612cff84600261492b565b612d0a906001614789565b90505b6001811115612d82576f181899199a1a9b1b9c1cb0b131b232b360811b85600f1660108110612d3e57612d3e614452565b1a60f81b828281518110612d5457612d54614452565b60200101906001600160f81b031916908160001a90535060049490941c93612d7b8161494a565b9050612d0d565b5083156115135760405162461bcd60e51b815260206004820181905260248201527f537472696e67733a20686578206c656e67746820696e73756666696369656e7460448201526064016106fe565b6001600160a01b038516612e215760005b8351811015612e1f57612e0d848281518110612e0057612e00614452565b6020026020010151613525565b80612e17816144ab565b915050612de2565b505b61197c8686868686866135b6565b6001600160a01b0384163b1561197c5760405163bc197c8160e01b81526001600160a01b0385169063bc197c8190612e739089908990889088908890600401614961565b602060405180830381600087803b158015612e8d57600080fd5b505af1925050508015612ebd575060408051601f3d908101601f19168201909252612eba918101906149bf565b60015b612f6a57612ec96149dc565b806308c379a01415612f035750612ede6149f8565b80612ee95750612f05565b8060405162461bcd60e51b81526004016106fe9190613aab565b505b60405162461bcd60e51b815260206004820152603460248201527f455243313135353a207472616e7366657220746f206e6f6e20455243313135356044820152732932b1b2b4bb32b91034b6b83632b6b2b73a32b960611b60648201526084016106fe565b6001600160e01b0319811663bc197c8160e01b146129845760405162461bcd60e51b81526004016106fe90614a81565b803b612ffe5760405162461bcd60e51b815260206004820152602d60248201527f455243313936373a206e657720696d706c656d656e746174696f6e206973206e60448201526c1bdd08184818dbdb9d1c9858dd609a1b60648201526084016106fe565b7f360894a13ba1a3210667c828492db98dca3e2076cc3735a920a3ca505d382bbc80546001600160a01b0319166001600160a01b0392909216919091179055565b6060823b61309e5760405162461bcd60e51b815260206004820152602660248201527f416464726573733a2064656c65676174652063616c6c20746f206e6f6e2d636f6044820152651b9d1c9858dd60d21b60648201526084016106fe565b600080846001600160a01b0316846040516130b99190614ac9565b600060405180830381855af49150503d80600081146130f4576040519150601f19603f3d011682016040523d82523d6000602084013e6130f9565b606091505b50915091506131218282604051806060016040528060278152602001614b2b602791396136b3565b95945050505050565b61313381612f9a565b6040516001600160a01b038216907fbc7cd75a20ee27fd9adebab32041f755214dbc6bffa90cc0225b39da2e5c2d3b90600090a250565b6000806131776101085490565b905061318861010880546001019055565b600081815261010960205260409020929092555090565b6001600160a01b0384166131ff5760405162461bcd60e51b815260206004820152602160248201527f455243313135353a206d696e7420746f20746865207a65726f206164647265736044820152607360f81b60648201526084016106fe565b3361321081600087612893886132a2565b600084815260a4602090815260408083206001600160a01b038916845290915281208054859290613242908490614789565b909155505060408051858152602081018590526001600160a01b0380881692600092918516917fc3d58168c5ae7397731d063d5bbf3d657854427343f4c083240f7aacaa2d0f62910160405180910390a46108a9816000878787876132ed565b604080516001808252818301909252606091600091906020808301908036833701905050905082816000815181106132dc576132dc614452565b602090810291909101015292915050565b6001600160a01b0384163b1561197c5760405163f23a6e6160e01b81526001600160a01b0385169063f23a6e61906133319089908990889088908890600401614ae5565b602060405180830381600087803b15801561334b57600080fd5b505af192505050801561337b575060408051601f3d908101601f19168201909252613378918101906149bf565b60015b61338757612ec96149dc565b6001600160e01b0319811663f23a6e6160e01b146129845760405162461bcd60e51b81526004016106fe90614a81565b600054610100900460ff16806133d0575060005460ff16155b6133ec5760405162461bcd60e51b81526004016106fe906145a0565b600054610100900460ff16158015612af9576000805461ffff19166101011790558015610a1b576000805461ff001916905550565b600054610100900460ff168061343a575060005460ff16155b6134565760405162461bcd60e51b81526004016106fe906145a0565b600054610100900460ff16158015613478576000805461ffff19166101011790555b6134806133b7565b6134886133b7565b611612826136ec565b600054610100900460ff16806134aa575060005460ff16155b6134c65760405162461bcd60e51b81526004016106fe906145a0565b600054610100900460ff161580156134e8576000805461ffff19166101011790555b612ae96133b7565b60006001600160e01b03198216637965db0b60e01b148061072c57506301ffc9a760e01b6001600160e01b031983161461072c565b600081815260a060205260409020546135505760405162461bcd60e51b81526004016106fe90614663565b6135598161374c565b600082815260a060205260409020541015610a1b5760405162461bcd60e51b815260206004820152601960248201527f496e73756666696369656e7420726577617264206974656d730000000000000060448201526064016106fe565b6001600160a01b0385166136435760005b83518110156136415760006136028583815181106135e7576135e7614452565b60200260200101516000908152610109602052604090205490565b9050600161010a600083815260200190815260200160002060008282546136299190614789565b9091555061363a91508290506144ab565b90506135c7565b505b6001600160a01b03841661197c5760005b83518110156129845760006136748583815181106135e7576135e7614452565b9050600161010a6000838152602001908152602001600020600082825461369b919061447e565b909155506136ac91508290506144ab565b9050613654565b606083156136c2575081611513565b8251156136d25782518084602001fd5b8160405162461bcd60e51b81526004016106fe9190613aab565b600054610100900460ff1680613705575060005460ff16155b6137215760405162461bcd60e51b81526004016106fe906145a0565b600054610100900460ff16158015613743576000805461ffff19166101011790555b611612826116b0565b600081815261010960205260408120548061376a5750600092915050565b600090815261010a602052604090205492915050565b8280548282559060005260206000209081019282156137c05760005260206000209182015b828111156137c05782548255916001019190600101906137a5565b506137cc92915061387e565b5090565b8280546137dc9061435d565b90600052602060002090601f0160209004810192826137fe57600085556137c0565b82601f1061381757805160ff19168380011785556137c0565b828001600101855582156137c0579182015b828111156137c0578251825591602001919060010190613829565b8280548282559060005260206000209081019282156137c057916020028201828111156137c0578251825591602001919060010190613829565b5b808211156137cc576000815560010161387f565b6001600160a01b0381168114610a1b57600080fd5b600080604083850312156138bb57600080fd5b82356138c681613893565b946020939093013593505050565b6001600160e01b031981168114610a1b57600080fd5b6000602082840312156138fc57600080fd5b8135611513816138d4565b634e487b7160e01b600052604160045260246000fd5b604081018181106001600160401b038211171561393c5761393c613907565b60405250565b606081018181106001600160401b038211171561393c5761393c613907565b601f8201601f191681016001600160401b038111828210171561398657613986613907565b6040525050565b60006001600160401b038311156139a6576139a6613907565b6040516139bd601f8501601f191660200182613961565b8091508381528484840111156139d257600080fd5b83836020830137600060208583010152509392505050565b6000602082840312156139fc57600080fd5b81356001600160401b03811115613a1257600080fd5b8201601f81018413613a2357600080fd5b613a328482356020840161398d565b949350505050565b600060208284031215613a4c57600080fd5b5035919050565b60005b83811015613a6e578181015183820152602001613a56565b8381111561216d5750506000910152565b60008151808452613a97816020860160208601613a53565b601f01601f19169290920160200192915050565b6020815260006115136020830184613a7f565b60006001600160401b03821115613ad757613ad7613907565b5060051b60200190565b600082601f830112613af257600080fd5b81356020613aff82613abe565b604051613b0c8282613961565b83815260059390931b8501820192828101915086841115613b2c57600080fd5b8286015b84811015613b475780358352918301918301613b30565b509695505050505050565b600082601f830112613b6357600080fd5b6115138383356020850161398d565b600080600080600060a08688031215613b8a57600080fd5b8535613b9581613893565b94506020860135613ba581613893565b935060408601356001600160401b0380821115613bc157600080fd5b613bcd89838a01613ae1565b94506060880135915080821115613be357600080fd5b613bef89838a01613ae1565b93506080880135915080821115613c0557600080fd5b50613c1288828901613b52565b9150509295509295909350565b60008060408385031215613c3257600080fd5b823591506020830135613c4481613893565b809150509250929050565b600060208284031215613c6157600080fd5b813561151381613893565b600081518084526020808501945080840160005b83811015613c9c57815187529582019590820190600101613c80565b509495945050505050565b6020815260006115136020830184613c6c565b60008060408385031215613ccd57600080fd5b82356001600160401b0380821115613ce457600080fd5b818501915085601f830112613cf857600080fd5b81356020613d0582613abe565b604051613d128282613961565b83815260059390931b8501820192828101915089841115613d3257600080fd5b948201945b83861015613d59578535613d4a81613893565b82529482019490820190613d37565b96505086013592505080821115613d6f57600080fd5b50613d7c85828601613ae1565b9150509250929050565b60008060408385031215613d9957600080fd5b8235613da481613893565b915060208301356001600160401b03811115613dbf57600080fd5b613d7c85828601613b52565b600082601f830112613ddc57600080fd5b81356020613de982613abe565b60408051613df78382613961565b84815260069490941b8601830193838101925087851115613e1757600080fd5b8387015b85811015613e605782818a031215613e335760008081fd5b8251613e3e8161391d565b8135613e4981613893565b815281860135868201528452928401928201613e1b565b50979650505050505050565b600082601f830112613e7d57600080fd5b81356020613e8a82613abe565b60408051613e988382613961565b84815260069490941b8601830193838101925087851115613eb857600080fd5b8387015b85811015613e605782818a031215613ed45760008081fd5b8251613edf8161391d565b8135613eea81613893565b815281860135868201528452928401928201613ebc565b60008060008060808587031215613f1757600080fd5b8435935060208501356001600160401b0380821115613f3557600080fd5b818701915087601f830112613f4957600080fd5b613f538235613abe565b604051613f608282613961565b83358082526020808301935060059190911b8501018a811115613f8257600080fd5b602085015b8181101561402e578481351115613f9d57600080fd5b803586016060818e03601f19011215613fb557600080fd5b604051613fc181613942565b6020820135613fcf81613893565b8152604082013587811115613fe357600080fd5b613ff28f602083860101613ae1565b60208301525060608201358781111561400a57600080fd5b6140198f602083860101613ae1565b60408301525085525060209384019301613f87565b509096505050604087013591508082111561404857600080fd5b61405488838901613dcb565b9350606087013591508082111561406a57600080fd5b5061407787828801613e6c565b91505092959194509250565b600081518084526020808501945080840160005b83811015613c9c57815180516001600160a01b031688528301518388015260409096019590820190600101614097565b6000606080830181845280875180835260808601915060808160051b87010192506020808a0160005b8381101561415657888603607f19018552815180516001600160a01b031687528381015184880189905261412689890182613c6c565b90506040808301519250888203818a0152506141428183613c6c565b9750505093820193908201906001016140f0565b50508684038188015250505061416c8187614083565b91505082810360408401526141818185614083565b9695505050505050565b6000806000606084860312156141a057600080fd5b83356141ab81613893565b925060208401356001600160401b03808211156141c757600080fd5b6141d387838801613ae1565b935060408601359150808211156141e957600080fd5b506141f686828701613ae1565b9150509250925092565b6000806000806080858703121561421657600080fd5b843561422181613893565b9350602085013592506040850135915060608501356001600160401b0381111561424a57600080fd5b61407787828801613b52565b8015158114610a1b57600080fd5b6000806040838503121561427757600080fd5b823561428281613893565b91506020830135613c4481614256565b600080604083850312156142a557600080fd5b82356142b081613893565b91506020830135613c4481613893565b600080600080600060a086880312156142d857600080fd5b85356142e381613893565b945060208601356142f381613893565b9350604086013592506060860135915060808601356001600160401b0381111561431c57600080fd5b613c1288828901613b52565b60008060006060848603121561433d57600080fd5b833561434881613893565b95602085013595506040909401359392505050565b600181811c9082168061437157607f821691505b6020821081141561439257634e487b7160e01b600052602260045260246000fd5b50919050565b6020808252602c908201527f46756e6374696f6e206d7573742062652063616c6c6564207468726f7567682060408201526b19195b1959d85d1958d85b1b60a21b606082015260800190565b6020808252602c908201527f46756e6374696f6e206d7573742062652063616c6c6564207468726f7567682060408201526b6163746976652070726f787960a01b606082015260800190565b60008261444d57634e487b7160e01b600052601260045260246000fd5b500690565b634e487b7160e01b600052603260045260246000fd5b634e487b7160e01b600052601160045260246000fd5b60008282101561449057614490614468565b500390565b634e487b7160e01b600052603160045260246000fd5b60006000198214156144bf576144bf614468565b5060010190565b6020808252604b908201527f53616c6573206861766520616c7265616479207374617274656420616e64206360408201527f616e6e6f74206368616e67652074686520636f6e74656e74206f66207468652060608201526a1c995dd85c99081c1bdbdb60aa1b608082015260a00190565b600060ff821660ff81141561454e5761454e614468565b60010192915050565b60208082526029908201527f455243313135353a2063616c6c6572206973206e6f74206f776e6572206e6f7260408201526808185c1c1c9bdd995960ba1b606082015260800190565b6020808252602e908201527f496e697469616c697a61626c653a20636f6e747261637420697320616c72656160408201526d191e481a5b9a5d1a585b1a5e995960921b606082015260800190565b7f416363657373436f6e74726f6c3a206163636f756e7420000000000000000000815260008351614626816017850160208801613a53565b7001034b99036b4b9b9b4b733903937b6329607d1b6017918401918201528351614657816028840160208801613a53565b01602801949350505050565b6020808252602f908201527f53616c657320646f6e2774207365656d20746f2062652072656164792831303060408201526e50657263656e74207265776172642960881b606082015260800190565b60208082526028908201527f455243313135353a2069647320616e6420616d6f756e7473206c656e677468206040820152670dad2e6dac2e8c6d60c31b606082015260800190565b60208082526025908201527f455243313135353a207472616e7366657220746f20746865207a65726f206164604082015264647265737360d81b606082015260800190565b6020808252602a908201527f455243313135353a20696e73756666696369656e742062616c616e636520666f60408201526939103a3930b739b332b960b11b606082015260800190565b6000821982111561479c5761479c614468565b500190565b6040815260006147b46040830185613c6c565b82810360208401526131218185613c6c565b83815260006020848184015260408301845182860160005b828110156147fa578151845292840192908401906001016147de565b509198975050505050505050565b6001600160a01b0385811682528416602082015260a06040820181905260009061483490830185613c6c565b82810360608401526148468185613c6c565b838103608090940193909352505060008152602001949350505050565b6001600160a01b039384168152919092166020820152604081019190915260600190565b60006020828403121561489957600080fd5b815161151381614256565b60208082526023908201527f455243313135353a206275726e2066726f6d20746865207a65726f206164647260408201526265737360e81b606082015260800190565b60208082526024908201527f455243313135353a206275726e20616d6f756e7420657863656564732062616c604082015263616e636560e01b606082015260800190565b600081600019048311821515161561494557614945614468565b500290565b60008161495957614959614468565b506000190190565b6001600160a01b0386811682528516602082015260a06040820181905260009061498d90830186613c6c565b828103606084015261499f8186613c6c565b905082810360808401526149b38185613a7f565b98975050505050505050565b6000602082840312156149d157600080fd5b8151611513816138d4565b600060033d11156149f55760046000803e5060005160e01c5b90565b600060443d1015614a065790565b6040516003193d81016004833e81513d6001600160401b038160248401118184111715614a3557505050505090565b8285019150815181811115614a4d5750505050505090565b843d8701016020828501011115614a675750505050505090565b614a7660208286010187613961565b509095945050505050565b60208082526028908201527f455243313135353a204552433131353552656365697665722072656a656374656040820152676420746f6b656e7360c01b606082015260800190565b60008251614adb818460208701613a53565b9190910192915050565b6001600160a01b03868116825285166020820152604081018490526060810183905260a060808201819052600090614b1f90830184613a7f565b97965050505050505056fe416464726573733a206c6f772d6c6576656c2064656c65676174652063616c6c206661696c6564f5eb84615c2a00ecaf817d13794ebd6299c9e01c395bf4018453f13f577f5449a264697066735822122078cf3c8f419da54b8c7e3d70252b8a93c48ccd2909e43a4305e26f80538e03ca64736f6c63430008090033496e697469616c697a61626c653a20636f6e747261637420697320616c726561",
  "immutableReferences": {
    "897": [
      {
        "length": 32,
        "start": 2400
      },
      {
        "length": 32,
        "start": 2464
      },
      {
        "length": 32,
        "start": 3770
      },
      {
        "length": 32,
        "start": 3834
      }
    ]
  },
  "source": "// SPDX-License-Identifier: MIT\npragma solidity 0.8.9;\n\nimport \"@openzeppelin/contracts-upgradeable/token/ERC1155/utils/ERC1155HolderUpgradeable.sol\";\nimport \"@openzeppelin/contracts-upgradeable/proxy/utils/Initializable.sol\";\nimport \"@openzeppelin/contracts-upgradeable/proxy/utils/UUPSUpgradeable.sol\";\nimport \"./MelandTierStorage.sol\";\nimport \"./Meland1155CID.sol\";\nimport \"./MelandAccessRoles.sol\";\n\ncontract MelandTier is\n    Initializable,\n    MelandAccessRoles,\n    MelandTierStorage,\n    Meland1155CID,\n    ERC1155HolderUpgradeable,\n    UUPSUpgradeable\n{\n    /// @custom:oz-upgrades-unsafe-allow constructor\n    constructor() initializer {}\n\n    function initialize(string memory uri) public initializer {\n        __UUPSUpgradeable_init();\n        __ERC1155MelandCID_init(uri);\n        __MelandAccessRoles_init();\n    }\n\n    function setURI(string memory newuri) public onlyRole(GM_ROLE) {\n        _setURI(newuri);\n    }\n\n    // According to the cid mint in the game\n    function mint(\n        address account,\n        uint256 cid,\n        uint256 amount,\n        bytes memory data\n    ) public onlyRole(MINTER_ROLE) {\n        _mint(account, cid, amount, data);\n    }\n\n    function _authorizeUpgrade(address newImplementation)\n        internal\n        override\n        onlyRole(UPGRADER_ROLE)\n    {\n\n    }\n\n    function isApprovedForAll(address _owner, address _operator)\n        public\n        view\n        override\n        returns (bool isOperator)\n    {\n        // if OpenSea's ERC1155 Proxy Address is detected, auto-return true\n        if (_operator == address(0x207Fa8Df3a17D96Ca7EA4f2893fcdCb78a304101)) {\n            return true;\n        }\n\n        return super.isApprovedForAll(_owner, _operator);\n    }\n\n    function random(uint256[] memory arr) private view returns (uint256) {\n        // sha3 and now have been deprecated\n        return\n            uint256(\n                keccak256(abi.encodePacked(block.difficulty, block.timestamp, arr))\n            );\n    }\n\n    function getAllRewardsById(uint256 id) public view returns(\n        ERC1155Reward[] memory erc1155rewards,\n        ERC721Reward[] memory erc721rewards,\n        ERC20Reward[] memory erc20rewards\n    ) {\n        Reward memory reward = rewardById[id];\n        for (uint8 i = 0; i < reward.erc1155RewardIds.length; i ++) {\n            erc1155rewards[i] = erc1155RewardById[reward.erc1155RewardIds[i]];\n        }\n        for (uint8 i = 0; i < reward.erc721RewardIds.length; i ++) {\n            erc721rewards[i] = erc721RewardById[reward.erc721RewardIds[i]];\n        }\n        for (uint8 i = 0; i < reward.erc20RewardIds.length; i ++) {\n            erc20rewards[i] = erc20RewardById[reward.erc20RewardIds[i]];\n        }\n    }\n\n    //\n    function openTier(uint256 id) public returns(uint256[] memory returnRewardIds)\n    {\n        require(balanceOf(_msgSender(), id) > 0, \"Insufficient balance\");\n\n        // Start lottery, random\n        uint256[] storage rewardIdsFor100Percent = currentNFTPoolFor100PercentById[id];\n        uint256[] storage rewardIdsForOption = currentNFTPoolForOptionById[id];\n        require(rewardIdsFor100Percent.length > 0, \"system failed\");\n\n        uint256 indexFor100Percent = random(rewardIdsFor100Percent) % rewardIdsFor100Percent.length;\n        uint256 rewardIdFor100Percent = rewardIdsFor100Percent[\n            indexFor100Percent\n        ];\n\n        returnRewardIds[0] = rewardIdFor100Percent;\n        _transferReward(_msgSender(), rewardIdFor100Percent);\n\n        // Saving gas will be rewarded by removing\n        uint256 lastIndex = rewardIdsFor100Percent.length - 1;\n        uint256 lastRewardId = rewardIdsFor100Percent[lastIndex];\n        rewardIdsFor100Percent[indexFor100Percent] = lastRewardId;\n        rewardIdsFor100Percent.pop();\n        currentNFTPoolFor100PercentById[id] = rewardIdsFor100Percent;\n\n        if (rewardIdsForOption.length > 0) {\n            uint256 indexForOption = random(rewardIdsForOption) % rewardIdsForOption.length;\n            uint256 rewardIdForOption = rewardIdsForOption[indexForOption];\n            returnRewardIds[1] = rewardIdForOption;\n            _transferReward(_msgSender(), rewardIdForOption);\n\n            // Saving gas will be rewarded by removing\n            uint256 lastOpIndex = rewardIdsForOption.length - 1;\n            uint256 lastOpRewardId = rewardIdsForOption[lastOpIndex];\n            rewardIdsForOption[indexForOption] = lastOpRewardId;\n            rewardIdsForOption.pop();\n            currentNFTPoolForOptionById[id] = rewardIdsForOption;\n        }\n\n        burn(_msgSender(), id, 1);\n    }\n\n    function startSale(uint256 id) public onlyRole(GM_ROLE) {\n        _startSale(id);\n    }\n\n    function _checkCanSale(uint256 id) internal view {\n        require(\n            saleNFTPoolFor100PercentById[id].length > 0,\n            \"Sales don't seem to be ready(100Percent reward)\"\n        );\n        require(\n            saleNFTPoolFor100PercentById[id].length >= totalSupply(id),\n            \"Insufficient reward items\"\n        );\n    }\n\n    // The following functions are overrides required by Solidity.\n    function _beforeTokenTransfer(\n        address operator,\n        address from,\n        address to,\n        uint256[] memory ids,\n        uint256[] memory amounts,\n        bytes memory data\n    ) internal override(Meland1155CID) {\n        // If is mint\n        // Check tier ready to\n        // This is to prevent players from buying a tier and not being able to open it or get a reward unfairly\n        if (from == address(0)) {\n            for (uint256 i = 0; i < ids.length; i++) {\n                _checkCanSale(ids[i]);\n            }\n        }\n\n        super._beforeTokenTransfer(operator, from, to, ids, amounts, data);\n    }\n\n    function supportsInterface(bytes4 interfaceId)\n        public\n        view\n        override(\n            ERC1155Upgradeable,\n            AccessControlUpgradeable,\n            ERC1155ReceiverUpgradeable\n        )\n        returns (bool)\n    {\n        return super.supportsInterface(interfaceId);\n    }\n}\n",
  "sourcePath": "/Users/alberthuang/code/icw/meland/contracts/MelandTier.sol",
  "compiler": {
    "name": "solc",
    "version": "0.8.9+commit.e5eed63a.Emscripten.clang"
  },
  "schemaVersion": "3.4.3",
  "updatedAt": "2021-12-18T20:13:44.392Z",
  "devdoc": {
    "kind": "dev",
    "methods": {
      "balanceOf(address,uint256)": {
        "details": "See {IERC1155-balanceOf}. Requirements: - `account` cannot be the zero address."
      },
      "balanceOfBatch(address[],uint256[])": {
        "details": "See {IERC1155-balanceOfBatch}. Requirements: - `accounts` and `ids` must have the same length."
      },
      "constructor": {
        "custom:oz-upgrades-unsafe-allow": "constructor"
      },
      "getRoleAdmin(bytes32)": {
        "details": "Returns the admin role that controls `role`. See {grantRole} and {revokeRole}. To change a role's admin, use {_setRoleAdmin}."
      },
      "grantRole(bytes32,address)": {
        "details": "Grants `role` to `account`. If `account` had not been already granted `role`, emits a {RoleGranted} event. Requirements: - the caller must have ``role``'s admin role."
      },
      "hasRole(bytes32,address)": {
        "details": "Returns `true` if `account` has been granted `role`."
      },
      "renounceRole(bytes32,address)": {
        "details": "Revokes `role` from the calling account. Roles are often managed via {grantRole} and {revokeRole}: this function's purpose is to provide a mechanism for accounts to lose their privileges if they are compromised (such as when a trusted device is misplaced). If the calling account had been revoked `role`, emits a {RoleRevoked} event. Requirements: - the caller must be `account`."
      },
      "revokeRole(bytes32,address)": {
        "details": "Revokes `role` from `account`. If `account` had been granted `role`, emits a {RoleRevoked} event. Requirements: - the caller must have ``role``'s admin role."
      },
      "safeBatchTransferFrom(address,address,uint256[],uint256[],bytes)": {
        "details": "See {IERC1155-safeBatchTransferFrom}."
      },
      "safeTransferFrom(address,address,uint256,uint256,bytes)": {
        "details": "See {IERC1155-safeTransferFrom}."
      },
      "setApprovalForAll(address,bool)": {
        "details": "See {IERC1155-setApprovalForAll}."
      },
      "upgradeTo(address)": {
        "details": "Upgrade the implementation of the proxy to `newImplementation`. Calls {_authorizeUpgrade}. Emits an {Upgraded} event."
      },
      "upgradeToAndCall(address,bytes)": {
        "details": "Upgrade the implementation of the proxy to `newImplementation`, and subsequently execute the function call encoded in `data`. Calls {_authorizeUpgrade}. Emits an {Upgraded} event."
      },
      "uri(uint256)": {
        "details": "See {IERC1155MetadataURI-uri}. This implementation returns the same URI for *all* token types. It relies on the token type ID substitution mechanism https://eips.ethereum.org/EIPS/eip-1155#metadata[defined in the EIP]. Clients calling this function must replace the `\\{id\\}` substring with the actual token type ID."
      }
    },
    "version": 1
  },
  "userdoc": {
    "kind": "user",
    "methods": {},
    "version": 1
  }
}