{
  "contractName": "Meland1155CID",
  "abi": [
    {
      "anonymous": false,
      "inputs": [
        {
          "indexed": true,
          "internalType": "address",
          "name": "account",
          "type": "address"
        },
        {
          "indexed": true,
          "internalType": "address",
          "name": "operator",
          "type": "address"
        },
        {
          "indexed": false,
          "internalType": "bool",
          "name": "approved",
          "type": "bool"
        }
      ],
      "name": "ApprovalForAll",
      "type": "event"
    },
    {
      "anonymous": false,
      "inputs": [
        {
          "indexed": true,
          "internalType": "address",
          "name": "operator",
          "type": "address"
        },
        {
          "indexed": true,
          "internalType": "address",
          "name": "from",
          "type": "address"
        },
        {
          "indexed": true,
          "internalType": "address",
          "name": "to",
          "type": "address"
        },
        {
          "indexed": false,
          "internalType": "uint256[]",
          "name": "ids",
          "type": "uint256[]"
        },
        {
          "indexed": false,
          "internalType": "uint256[]",
          "name": "values",
          "type": "uint256[]"
        }
      ],
      "name": "TransferBatch",
      "type": "event"
    },
    {
      "anonymous": false,
      "inputs": [
        {
          "indexed": true,
          "internalType": "address",
          "name": "operator",
          "type": "address"
        },
        {
          "indexed": true,
          "internalType": "address",
          "name": "from",
          "type": "address"
        },
        {
          "indexed": true,
          "internalType": "address",
          "name": "to",
          "type": "address"
        },
        {
          "indexed": false,
          "internalType": "uint256",
          "name": "id",
          "type": "uint256"
        },
        {
          "indexed": false,
          "internalType": "uint256",
          "name": "value",
          "type": "uint256"
        }
      ],
      "name": "TransferSingle",
      "type": "event"
    },
    {
      "anonymous": false,
      "inputs": [
        {
          "indexed": false,
          "internalType": "string",
          "name": "value",
          "type": "string"
        },
        {
          "indexed": true,
          "internalType": "uint256",
          "name": "id",
          "type": "uint256"
        }
      ],
      "name": "URI",
      "type": "event"
    },
    {
      "inputs": [
        {
          "internalType": "address",
          "name": "account",
          "type": "address"
        },
        {
          "internalType": "uint256",
          "name": "id",
          "type": "uint256"
        }
      ],
      "name": "balanceOf",
      "outputs": [
        {
          "internalType": "uint256",
          "name": "",
          "type": "uint256"
        }
      ],
      "stateMutability": "view",
      "type": "function"
    },
    {
      "inputs": [
        {
          "internalType": "address[]",
          "name": "accounts",
          "type": "address[]"
        },
        {
          "internalType": "uint256[]",
          "name": "ids",
          "type": "uint256[]"
        }
      ],
      "name": "balanceOfBatch",
      "outputs": [
        {
          "internalType": "uint256[]",
          "name": "",
          "type": "uint256[]"
        }
      ],
      "stateMutability": "view",
      "type": "function"
    },
    {
      "inputs": [
        {
          "internalType": "address",
          "name": "account",
          "type": "address"
        },
        {
          "internalType": "uint256",
          "name": "id",
          "type": "uint256"
        },
        {
          "internalType": "uint256",
          "name": "value",
          "type": "uint256"
        }
      ],
      "name": "burn",
      "outputs": [],
      "stateMutability": "nonpayable",
      "type": "function"
    },
    {
      "inputs": [
        {
          "internalType": "address",
          "name": "account",
          "type": "address"
        },
        {
          "internalType": "uint256[]",
          "name": "ids",
          "type": "uint256[]"
        },
        {
          "internalType": "uint256[]",
          "name": "values",
          "type": "uint256[]"
        }
      ],
      "name": "burnBatch",
      "outputs": [],
      "stateMutability": "nonpayable",
      "type": "function"
    },
    {
      "inputs": [
        {
          "internalType": "address",
          "name": "account",
          "type": "address"
        },
        {
          "internalType": "address",
          "name": "operator",
          "type": "address"
        }
      ],
      "name": "isApprovedForAll",
      "outputs": [
        {
          "internalType": "bool",
          "name": "",
          "type": "bool"
        }
      ],
      "stateMutability": "view",
      "type": "function"
    },
    {
      "inputs": [
        {
          "internalType": "address",
          "name": "from",
          "type": "address"
        },
        {
          "internalType": "address",
          "name": "to",
          "type": "address"
        },
        {
          "internalType": "uint256[]",
          "name": "ids",
          "type": "uint256[]"
        },
        {
          "internalType": "uint256[]",
          "name": "amounts",
          "type": "uint256[]"
        },
        {
          "internalType": "bytes",
          "name": "data",
          "type": "bytes"
        }
      ],
      "name": "safeBatchTransferFrom",
      "outputs": [],
      "stateMutability": "nonpayable",
      "type": "function"
    },
    {
      "inputs": [
        {
          "internalType": "address",
          "name": "from",
          "type": "address"
        },
        {
          "internalType": "address",
          "name": "to",
          "type": "address"
        },
        {
          "internalType": "uint256",
          "name": "id",
          "type": "uint256"
        },
        {
          "internalType": "uint256",
          "name": "amount",
          "type": "uint256"
        },
        {
          "internalType": "bytes",
          "name": "data",
          "type": "bytes"
        }
      ],
      "name": "safeTransferFrom",
      "outputs": [],
      "stateMutability": "nonpayable",
      "type": "function"
    },
    {
      "inputs": [
        {
          "internalType": "address",
          "name": "operator",
          "type": "address"
        },
        {
          "internalType": "bool",
          "name": "approved",
          "type": "bool"
        }
      ],
      "name": "setApprovalForAll",
      "outputs": [],
      "stateMutability": "nonpayable",
      "type": "function"
    },
    {
      "inputs": [
        {
          "internalType": "bytes4",
          "name": "interfaceId",
          "type": "bytes4"
        }
      ],
      "name": "supportsInterface",
      "outputs": [
        {
          "internalType": "bool",
          "name": "",
          "type": "bool"
        }
      ],
      "stateMutability": "view",
      "type": "function"
    },
    {
      "inputs": [
        {
          "internalType": "uint256",
          "name": "id",
          "type": "uint256"
        }
      ],
      "name": "getCidByTokenId",
      "outputs": [
        {
          "internalType": "uint256",
          "name": "",
          "type": "uint256"
        }
      ],
      "stateMutability": "view",
      "type": "function"
    },
    {
      "inputs": [
        {
          "internalType": "uint256",
          "name": "id",
          "type": "uint256"
        }
      ],
      "name": "uri",
      "outputs": [
        {
          "internalType": "string",
          "name": "",
          "type": "string"
        }
      ],
      "stateMutability": "view",
      "type": "function"
    },
    {
      "inputs": [
        {
          "internalType": "uint256",
          "name": "id",
          "type": "uint256"
        }
      ],
      "name": "totalSupply",
      "outputs": [
        {
          "internalType": "uint256",
          "name": "",
          "type": "uint256"
        }
      ],
      "stateMutability": "view",
      "type": "function"
    },
    {
      "inputs": [
        {
          "internalType": "uint256",
          "name": "cid",
          "type": "uint256"
        }
      ],
      "name": "totalSupplyByCId",
      "outputs": [
        {
          "internalType": "uint256",
          "name": "",
          "type": "uint256"
        }
      ],
      "stateMutability": "view",
      "type": "function"
    }
  ],
  "bytecode": "0x608060405234801561001057600080fd5b50611ca9806100206000396000f3fe608060405234801561001057600080fd5b50600436106100ce5760003560e01c80636b20c4541161008c578063d318632411610066578063d3186324146101ca578063e985e9c5146101ea578063f242432a14610226578063f5298aca1461023957600080fd5b80636b20c45414610191578063a22cb465146101a4578063bd85b039146101b757600080fd5b8062fdd58e146100d357806301ffc9a7146100f95780630e89341c1461011c5780632eb2c2d61461013c5780633ef780bc146101515780634e1273f414610171575b600080fd5b6100e66100e1366004611206565b61024c565b6040519081526020015b60405180910390f35b61010c610107366004611249565b6102e5565b60405190151581526020016100f0565b61012f61012a36600461126d565b610337565b6040516100f091906112e2565b61014f61014a366004611441565b61038d565b005b6100e661015f36600461126d565b600090815260ca602052604090205490565b61018461017f3660046114eb565b610424565b6040516100f091906115f1565b61014f61019f366004611604565b61054e565b61014f6101b2366004611678565b610596565b6100e66101c536600461126d565b6105a5565b6100e66101d836600461126d565b600090815260cb602052604090205490565b61010c6101f83660046116b4565b6001600160a01b03918216600090815260666020908152604080832093909416825291909152205460ff1690565b61014f6102343660046116e7565b6105d7565b61014f61024736600461174c565b61061c565b60006001600160a01b0383166102bd5760405162461bcd60e51b815260206004820152602b60248201527f455243313135353a2062616c616e636520717565727920666f7220746865207a60448201526a65726f206164647265737360a81b60648201526084015b60405180910390fd5b5060009081526065602090815260408083206001600160a01b03949094168352929052205490565b60006001600160e01b03198216636cdb3d1360e11b148061031657506001600160e01b031982166303a24d0760e21b145b8061033157506301ffc9a760e01b6001600160e01b03198316145b92915050565b600081815260ca60205260409020546060906103528361065f565b61035b826106f3565b610364856106f3565b6040516020016103769392919061177f565b604051602081830303815290604052915050919050565b6001600160a01b0385163314806103a957506103a985336101f8565b6104105760405162461bcd60e51b815260206004820152603260248201527f455243313135353a207472616e736665722063616c6c6572206973206e6f74206044820152711bdddb995c881b9bdc88185c1c1c9bdd995960721b60648201526084016102b4565b61041d858585858561081c565b5050505050565b606081518351146104895760405162461bcd60e51b815260206004820152602960248201527f455243313135353a206163636f756e747320616e6420696473206c656e677468604482015268040dad2e6dac2e8c6d60bb1b60648201526084016102b4565b6000835167ffffffffffffffff8111156104a5576104a56112f5565b6040519080825280602002602001820160405280156104ce578160200160208202803683370190505b50905060005b8451811015610546576105198582815181106104f2576104f26117d9565b602002602001015185838151811061050c5761050c6117d9565b602002602001015161024c565b82828151811061052b5761052b6117d9565b602090810291909101015261053f81611805565b90506104d4565b509392505050565b6001600160a01b03831633148061056a575061056a83336101f8565b6105865760405162461bcd60e51b81526004016102b490611820565b6105918383836109c9565b505050565b6105a1338383610b5a565b5050565b600081815260ca6020526040812054806105c25750600092915050565b600090815260cb602052604090205492915050565b6001600160a01b0385163314806105f357506105f385336101f8565b61060f5760405162461bcd60e51b81526004016102b490611820565b61041d8585858585610c3b565b6001600160a01b038316331480610638575061063883336101f8565b6106545760405162461bcd60e51b81526004016102b490611820565b610591838383610d6b565b60606067805461066e90611869565b80601f016020809104026020016040519081016040528092919081815260200182805461069a90611869565b80156106e75780601f106106bc576101008083540402835291602001916106e7565b820191906000526020600020905b8154815290600101906020018083116106ca57829003601f168201915b50505050509050919050565b6060816107175750506040805180820190915260018152600360fc1b602082015290565b8160005b8115610741578061072b81611805565b915061073a9050600a836118a4565b915061071b565b60008167ffffffffffffffff81111561075c5761075c6112f5565b6040519080825280601f01601f191660200182016040528015610786576020820181803683370190505b509050815b85156108135761079c6001826118c6565b905060006107ab600a886118a4565b6107b690600a6118dd565b6107c090886118c6565b6107cb9060306118fc565b905060008160f81b9050808484815181106107e8576107e86117d9565b60200101906001600160f81b031916908160001a90535061080a600a896118a4565b9750505061078b565b50949350505050565b815183511461083d5760405162461bcd60e51b81526004016102b490611921565b6001600160a01b0384166108635760405162461bcd60e51b81526004016102b490611969565b33610872818787878787610e70565b60005b845181101561095b576000858281518110610892576108926117d9565b6020026020010151905060008583815181106108b0576108b06117d9565b60209081029190910181015160008481526065835260408082206001600160a01b038e1683529093529190912054909150818110156109015760405162461bcd60e51b81526004016102b4906119ae565b60008381526065602090815260408083206001600160a01b038e8116855292528083208585039055908b168252812080548492906109409084906119f8565b925050819055505050508061095490611805565b9050610875565b50846001600160a01b0316866001600160a01b0316826001600160a01b03167f4a39dc06d4c0dbc64b70af90fd698a233a518aa5d07e595d983b8c0526c8f7fb87876040516109ab929190611a10565b60405180910390a46109c1818787878787610f6a565b505050505050565b6001600160a01b0383166109ef5760405162461bcd60e51b81526004016102b490611a3e565b8051825114610a105760405162461bcd60e51b81526004016102b490611921565b6000339050610a3381856000868660405180602001604052806000815250610e70565b60005b8351811015610afb576000848281518110610a5357610a536117d9565b602002602001015190506000848381518110610a7157610a716117d9565b60209081029190910181015160008481526065835260408082206001600160a01b038c168352909352919091205490915081811015610ac25760405162461bcd60e51b81526004016102b490611a81565b60009283526065602090815260408085206001600160a01b038b1686529091529092209103905580610af381611805565b915050610a36565b5060006001600160a01b0316846001600160a01b0316826001600160a01b03167f4a39dc06d4c0dbc64b70af90fd698a233a518aa5d07e595d983b8c0526c8f7fb8686604051610b4c929190611a10565b60405180910390a450505050565b816001600160a01b0316836001600160a01b03161415610bce5760405162461bcd60e51b815260206004820152602960248201527f455243313135353a2073657474696e6720617070726f76616c20737461747573604482015268103337b91039b2b63360b91b60648201526084016102b4565b6001600160a01b03838116600081815260666020908152604080832094871680845294825291829020805460ff191686151590811790915591519182527f17307eab39ab6107e8899845ad3d59bd9653f200f220920489ca2b5937696c31910160405180910390a3505050565b6001600160a01b038416610c615760405162461bcd60e51b81526004016102b490611969565b33610c80818787610c71886110d5565b610c7a886110d5565b87610e70565b60008481526065602090815260408083206001600160a01b038a16845290915290205483811015610cc35760405162461bcd60e51b81526004016102b4906119ae565b60008581526065602090815260408083206001600160a01b038b8116855292528083208785039055908816825281208054869290610d029084906119f8565b909155505060408051868152602081018690526001600160a01b03808916928a821692918616917fc3d58168c5ae7397731d063d5bbf3d657854427343f4c083240f7aacaa2d0f62910160405180910390a4610d62828888888888611120565b50505050505050565b6001600160a01b038316610d915760405162461bcd60e51b81526004016102b490611a3e565b33610dc081856000610da2876110d5565b610dab876110d5565b60405180602001604052806000815250610e70565b60008381526065602090815260408083206001600160a01b038816845290915290205482811015610e035760405162461bcd60e51b81526004016102b490611a81565b60008481526065602090815260408083206001600160a01b03898116808652918452828520888703905582518981529384018890529092908616917fc3d58168c5ae7397731d063d5bbf3d657854427343f4c083240f7aacaa2d0f62910160405180910390a45050505050565b6001600160a01b038516610efb5760005b8351811015610ef9576000610ebb858381518110610ea157610ea16117d9565b6020026020010151600090815260ca602052604090205490565b9050600160cb60008381526020019081526020016000206000828254610ee191906119f8565b90915550610ef29150829050611805565b9050610e81565b505b6001600160a01b0384166109c15760005b8351811015610d62576000610f2c858381518110610ea157610ea16117d9565b9050600160cb60008381526020019081526020016000206000828254610f5291906118c6565b90915550610f639150829050611805565b9050610f0c565b6001600160a01b0384163b156109c15760405163bc197c8160e01b81526001600160a01b0385169063bc197c8190610fae9089908990889088908890600401611ac5565b602060405180830381600087803b158015610fc857600080fd5b505af1925050508015610ff8575060408051601f3d908101601f19168201909252610ff591810190611b23565b60015b6110a557611004611b40565b806308c379a0141561103e5750611019611b5c565b806110245750611040565b8060405162461bcd60e51b81526004016102b491906112e2565b505b60405162461bcd60e51b815260206004820152603460248201527f455243313135353a207472616e7366657220746f206e6f6e20455243313135356044820152732932b1b2b4bb32b91034b6b83632b6b2b73a32b960611b60648201526084016102b4565b6001600160e01b0319811663bc197c8160e01b14610d625760405162461bcd60e51b81526004016102b490611be6565b6040805160018082528183019092526060916000919060208083019080368337019050509050828160008151811061110f5761110f6117d9565b602090810291909101015292915050565b6001600160a01b0384163b156109c15760405163f23a6e6160e01b81526001600160a01b0385169063f23a6e61906111649089908990889088908890600401611c2e565b602060405180830381600087803b15801561117e57600080fd5b505af19250505080156111ae575060408051601f3d908101601f191682019092526111ab91810190611b23565b60015b6111ba57611004611b40565b6001600160e01b0319811663f23a6e6160e01b14610d625760405162461bcd60e51b81526004016102b490611be6565b80356001600160a01b038116811461120157600080fd5b919050565b6000806040838503121561121957600080fd5b611222836111ea565b946020939093013593505050565b6001600160e01b03198116811461124657600080fd5b50565b60006020828403121561125b57600080fd5b813561126681611230565b9392505050565b60006020828403121561127f57600080fd5b5035919050565b60005b838110156112a1578181015183820152602001611289565b838111156112b0576000848401525b50505050565b600081518084526112ce816020860160208601611286565b601f01601f19169290920160200192915050565b60208152600061126660208301846112b6565b634e487b7160e01b600052604160045260246000fd5b601f8201601f1916810167ffffffffffffffff81118282101715611331576113316112f5565b6040525050565b600067ffffffffffffffff821115611352576113526112f5565b5060051b60200190565b600082601f83011261136d57600080fd5b8135602061137a82611338565b604051611387828261130b565b83815260059390931b85018201928281019150868411156113a757600080fd5b8286015b848110156113c257803583529183019183016113ab565b509695505050505050565b600082601f8301126113de57600080fd5b813567ffffffffffffffff8111156113f8576113f86112f5565b60405161140f601f8301601f19166020018261130b565b81815284602083860101111561142457600080fd5b816020850160208301376000918101602001919091529392505050565b600080600080600060a0868803121561145957600080fd5b611462866111ea565b9450611470602087016111ea565b9350604086013567ffffffffffffffff8082111561148d57600080fd5b61149989838a0161135c565b945060608801359150808211156114af57600080fd5b6114bb89838a0161135c565b935060808801359150808211156114d157600080fd5b506114de888289016113cd565b9150509295509295909350565b600080604083850312156114fe57600080fd5b823567ffffffffffffffff8082111561151657600080fd5b818501915085601f83011261152a57600080fd5b8135602061153782611338565b604051611544828261130b565b83815260059390931b850182019282810191508984111561156457600080fd5b948201945b838610156115895761157a866111ea565b82529482019490820190611569565b9650508601359250508082111561159f57600080fd5b506115ac8582860161135c565b9150509250929050565b600081518084526020808501945080840160005b838110156115e6578151875295820195908201906001016115ca565b509495945050505050565b60208152600061126660208301846115b6565b60008060006060848603121561161957600080fd5b611622846111ea565b9250602084013567ffffffffffffffff8082111561163f57600080fd5b61164b8783880161135c565b9350604086013591508082111561166157600080fd5b5061166e8682870161135c565b9150509250925092565b6000806040838503121561168b57600080fd5b611694836111ea565b9150602083013580151581146116a957600080fd5b809150509250929050565b600080604083850312156116c757600080fd5b6116d0836111ea565b91506116de602084016111ea565b90509250929050565b600080600080600060a086880312156116ff57600080fd5b611708866111ea565b9450611716602087016111ea565b93506040860135925060608601359150608086013567ffffffffffffffff81111561174057600080fd5b6114de888289016113cd565b60008060006060848603121561176157600080fd5b61176a846111ea565b95602085013595506040909401359392505050565b60008451611791818460208901611286565b8083019050602f60f81b80825285516117b1816001850160208a01611286565b600192019182015283516117cc816002840160208801611286565b0160020195945050505050565b634e487b7160e01b600052603260045260246000fd5b634e487b7160e01b600052601160045260246000fd5b6000600019821415611819576118196117ef565b5060010190565b60208082526029908201527f455243313135353a2063616c6c6572206973206e6f74206f776e6572206e6f7260408201526808185c1c1c9bdd995960ba1b606082015260800190565b600181811c9082168061187d57607f821691505b6020821081141561189e57634e487b7160e01b600052602260045260246000fd5b50919050565b6000826118c157634e487b7160e01b600052601260045260246000fd5b500490565b6000828210156118d8576118d86117ef565b500390565b60008160001904831182151516156118f7576118f76117ef565b500290565b600060ff821660ff84168060ff03821115611919576119196117ef565b019392505050565b60208082526028908201527f455243313135353a2069647320616e6420616d6f756e7473206c656e677468206040820152670dad2e6dac2e8c6d60c31b606082015260800190565b60208082526025908201527f455243313135353a207472616e7366657220746f20746865207a65726f206164604082015264647265737360d81b606082015260800190565b6020808252602a908201527f455243313135353a20696e73756666696369656e742062616c616e636520666f60408201526939103a3930b739b332b960b11b606082015260800190565b60008219821115611a0b57611a0b6117ef565b500190565b604081526000611a2360408301856115b6565b8281036020840152611a3581856115b6565b95945050505050565b60208082526023908201527f455243313135353a206275726e2066726f6d20746865207a65726f206164647260408201526265737360e81b606082015260800190565b60208082526024908201527f455243313135353a206275726e20616d6f756e7420657863656564732062616c604082015263616e636560e01b606082015260800190565b6001600160a01b0386811682528516602082015260a060408201819052600090611af1908301866115b6565b8281036060840152611b0381866115b6565b90508281036080840152611b1781856112b6565b98975050505050505050565b600060208284031215611b3557600080fd5b815161126681611230565b600060033d1115611b595760046000803e5060005160e01c5b90565b600060443d1015611b6a5790565b6040516003193d81016004833e81513d67ffffffffffffffff8160248401118184111715611b9a57505050505090565b8285019150815181811115611bb25750505050505090565b843d8701016020828501011115611bcc5750505050505090565b611bdb6020828601018761130b565b509095945050505050565b60208082526028908201527f455243313135353a204552433131353552656365697665722072656a656374656040820152676420746f6b656e7360c01b606082015260800190565b6001600160a01b03868116825285166020820152604081018490526060810183905260a060808201819052600090611c68908301846112b6565b97965050505050505056fea264697066735822122024b1da876fb7e745baea0a7367f3e320e59c2ca3a8669c98b3ab3eb4ca5f78a964736f6c63430008090033",
  "immutableReferences": {},
  "source": "// SPDX-License-Identifier: MIT\npragma solidity 0.8.9;\n\nimport \"@openzeppelin/contracts-upgradeable/token/ERC1155/ERC1155Upgradeable.sol\";\nimport \"@openzeppelin/contracts-upgradeable/token/ERC1155/extensions/ERC1155BurnableUpgradeable.sol\";\nimport \"@openzeppelin/contracts-upgradeable/token/ERC1155/IERC1155Upgradeable.sol\";\nimport \"@openzeppelin/contracts-upgradeable/token/ERC721/IERC721Upgradeable.sol\";\nimport \"@openzeppelin/contracts-upgradeable/token/ERC20/IERC20Upgradeable.sol\";\nimport \"@openzeppelin/contracts-upgradeable/utils/ContextUpgradeable.sol\";\nimport \"@openzeppelin/contracts-upgradeable/utils/CountersUpgradeable.sol\";\n\n/// Store the association between Meland game prop CID and token id.\n\ncontract Meland1155CID is ERC1155Upgradeable, ERC1155BurnableUpgradeable {\n    using CountersUpgradeable for CountersUpgradeable.Counter;\n\n    CountersUpgradeable.Counter private _tokenIdCounter;\n\n    mapping(uint256 => uint256) private cidByTokenId;\n\n    mapping(uint256 => uint256) private _totalSupplyByCid;\n\n    function __ERC1155MelandCID_init(string memory _uri) internal initializer {\n        __ERC1155_init(_uri);\n        __ERC1155Burnable_init();\n    }\n\n    function __ERC1155MelandCID_init_unchained() internal initializer {}\n\n    function genTokenIdByCid(uint256 cid) internal returns (uint256) {\n        uint256 tokenId = _tokenIdCounter.current();\n        _tokenIdCounter.increment();\n\n        cidByTokenId[tokenId] = cid;\n\n        return tokenId;\n    }\n\n    function getCidByTokenId(uint256 id) public view returns (uint256) {\n        return cidByTokenId[id];\n    }\n\n    function _mint(\n        address to,\n        uint256 cid,\n        uint256 amount,\n        bytes memory data\n    ) internal virtual override {\n        require(amount > 0, \"The amount must be greater than 0\");\n        for (uint256 i = 0; i < amount; i++) {\n            uint256 tokenId = genTokenIdByCid(cid);\n\n            // Each NFT is unique\n            super._mint(to, tokenId, 1, data);\n        }\n    }\n\n    function uint2str(uint256 _i)\n        internal\n        pure\n        returns (string memory _uintAsString)\n    {\n        if (_i == 0) {\n            return \"0\";\n        }\n        uint256 j = _i;\n        uint256 len;\n        while (j != 0) {\n            len++;\n            j /= 10;\n        }\n        bytes memory bstr = new bytes(len);\n        uint256 k = len;\n        while (_i != 0) {\n            k = k - 1;\n            uint8 temp = (48 + uint8(_i - (_i / 10) * 10));\n            bytes1 b1 = bytes1(temp);\n            bstr[k] = b1;\n            _i /= 10;\n        }\n        return string(bstr);\n    }\n\n    function uri(uint256 id)\n        public\n        view\n        virtual\n        override\n        returns (string memory)\n    {\n        uint256 cid = cidByTokenId[id];\n        return string(abi.encodePacked(super.uri(id), \"/\", uint2str(cid), \"/\", uint2str(id)));\n    }\n\n    function _mintReturnTokenIds(\n        address to,\n        uint256 cid,\n        uint256 amount,\n        bytes memory data\n    ) internal virtual returns (uint256[] memory) {\n        uint256[] memory ids = new uint256[](amount);\n        require(amount > 0, \"The amount must be greater than 0\");\n        for (uint256 i = 0; i < amount; i++) {\n            uint256 tokenId = genTokenIdByCid(cid);\n\n            // Each NFT is unique\n            super._mint(to, tokenId, 1, data);\n\n            ids[i] = tokenId;\n        }\n        return ids;\n    }\n\n    function totalSupply(uint256 id) public view returns (uint256) {\n        uint256 cid = getCidByTokenId(id);\n\n        if (cid == 0) {\n            return 0;\n        }\n\n        return _totalSupplyByCid[cid];\n    }\n\n    function totalSupplyByCId(uint256 cid) public view returns (uint256) {\n        return _totalSupplyByCid[cid];\n    }\n\n    /**\n     * @dev See {ERC1155-_beforeTokenTransfer}.\n     */\n    function _beforeTokenTransfer(\n        address,\n        address from,\n        address to,\n        uint256[] memory ids,\n        uint256[] memory,\n        bytes memory\n    ) internal virtual override(ERC1155Upgradeable) {\n        if (from == address(0)) {\n            for (uint256 i = 0; i < ids.length; ++i) {\n                uint256 cid = getCidByTokenId(ids[i]);\n                _totalSupplyByCid[cid] += 1;\n            }\n        }\n\n        if (to == address(0)) {\n            for (uint256 i = 0; i < ids.length; ++i) {\n                uint256 cid = getCidByTokenId(ids[i]);\n                _totalSupplyByCid[cid] -= 1;\n            }\n        }\n    }\n}\n",
  "sourcePath": "/Users/alberthuang/code/icw/meland/contracts/Meland1155CID.sol",
  "compiler": {
    "name": "solc",
    "version": "0.8.9+commit.e5eed63a.Emscripten.clang"
  },
  "schemaVersion": "3.4.3",
  "updatedAt": "2021-12-26T08:21:15.882Z",
  "devdoc": {
    "kind": "dev",
    "methods": {
      "balanceOf(address,uint256)": {
        "details": "See {IERC1155-balanceOf}. Requirements: - `account` cannot be the zero address."
      },
      "balanceOfBatch(address[],uint256[])": {
        "details": "See {IERC1155-balanceOfBatch}. Requirements: - `accounts` and `ids` must have the same length."
      },
      "isApprovedForAll(address,address)": {
        "details": "See {IERC1155-isApprovedForAll}."
      },
      "safeBatchTransferFrom(address,address,uint256[],uint256[],bytes)": {
        "details": "See {IERC1155-safeBatchTransferFrom}."
      },
      "safeTransferFrom(address,address,uint256,uint256,bytes)": {
        "details": "See {IERC1155-safeTransferFrom}."
      },
      "setApprovalForAll(address,bool)": {
        "details": "See {IERC1155-setApprovalForAll}."
      },
      "supportsInterface(bytes4)": {
        "details": "See {IERC165-supportsInterface}."
      }
    },
    "version": 1
  },
  "userdoc": {
    "kind": "user",
    "methods": {},
    "notice": "Store the association between Meland game prop CID and token id.",
    "version": 1
  }
}