{
  "contractName": "Meland1155Wearable",
  "abi": [
    {
      "anonymous": false,
      "inputs": [
        {
          "indexed": false,
          "internalType": "address",
          "name": "previousAdmin",
          "type": "address"
        },
        {
          "indexed": false,
          "internalType": "address",
          "name": "newAdmin",
          "type": "address"
        }
      ],
      "name": "AdminChanged",
      "type": "event"
    },
    {
      "anonymous": false,
      "inputs": [
        {
          "indexed": true,
          "internalType": "address",
          "name": "account",
          "type": "address"
        },
        {
          "indexed": true,
          "internalType": "address",
          "name": "operator",
          "type": "address"
        },
        {
          "indexed": false,
          "internalType": "bool",
          "name": "approved",
          "type": "bool"
        }
      ],
      "name": "ApprovalForAll",
      "type": "event"
    },
    {
      "anonymous": false,
      "inputs": [
        {
          "indexed": true,
          "internalType": "address",
          "name": "beacon",
          "type": "address"
        }
      ],
      "name": "BeaconUpgraded",
      "type": "event"
    },
    {
      "anonymous": false,
      "inputs": [
        {
          "indexed": false,
          "internalType": "bool",
          "name": "_freezeEnabled",
          "type": "bool"
        }
      ],
      "name": "FreezeEnabledUpdate",
      "type": "event"
    },
    {
      "anonymous": false,
      "inputs": [
        {
          "indexed": true,
          "internalType": "bytes",
          "name": "rarity",
          "type": "bytes"
        },
        {
          "indexed": false,
          "internalType": "uint256",
          "name": "mintMax",
          "type": "uint256"
        }
      ],
      "name": "RarityUpdate",
      "type": "event"
    },
    {
      "anonymous": false,
      "inputs": [
        {
          "indexed": true,
          "internalType": "bytes32",
          "name": "role",
          "type": "bytes32"
        },
        {
          "indexed": true,
          "internalType": "bytes32",
          "name": "previousAdminRole",
          "type": "bytes32"
        },
        {
          "indexed": true,
          "internalType": "bytes32",
          "name": "newAdminRole",
          "type": "bytes32"
        }
      ],
      "name": "RoleAdminChanged",
      "type": "event"
    },
    {
      "anonymous": false,
      "inputs": [
        {
          "indexed": true,
          "internalType": "bytes32",
          "name": "role",
          "type": "bytes32"
        },
        {
          "indexed": true,
          "internalType": "address",
          "name": "account",
          "type": "address"
        },
        {
          "indexed": true,
          "internalType": "address",
          "name": "sender",
          "type": "address"
        }
      ],
      "name": "RoleGranted",
      "type": "event"
    },
    {
      "anonymous": false,
      "inputs": [
        {
          "indexed": true,
          "internalType": "bytes32",
          "name": "role",
          "type": "bytes32"
        },
        {
          "indexed": true,
          "internalType": "address",
          "name": "account",
          "type": "address"
        },
        {
          "indexed": true,
          "internalType": "address",
          "name": "sender",
          "type": "address"
        }
      ],
      "name": "RoleRevoked",
      "type": "event"
    },
    {
      "anonymous": false,
      "inputs": [
        {
          "indexed": true,
          "internalType": "address",
          "name": "operator",
          "type": "address"
        },
        {
          "indexed": true,
          "internalType": "address",
          "name": "from",
          "type": "address"
        },
        {
          "indexed": true,
          "internalType": "address",
          "name": "to",
          "type": "address"
        },
        {
          "indexed": false,
          "internalType": "uint256[]",
          "name": "ids",
          "type": "uint256[]"
        },
        {
          "indexed": false,
          "internalType": "uint256[]",
          "name": "values",
          "type": "uint256[]"
        }
      ],
      "name": "TransferBatch",
      "type": "event"
    },
    {
      "anonymous": false,
      "inputs": [
        {
          "indexed": true,
          "internalType": "address",
          "name": "operator",
          "type": "address"
        },
        {
          "indexed": true,
          "internalType": "address",
          "name": "from",
          "type": "address"
        },
        {
          "indexed": true,
          "internalType": "address",
          "name": "to",
          "type": "address"
        },
        {
          "indexed": false,
          "internalType": "uint256",
          "name": "id",
          "type": "uint256"
        },
        {
          "indexed": false,
          "internalType": "uint256",
          "name": "value",
          "type": "uint256"
        }
      ],
      "name": "TransferSingle",
      "type": "event"
    },
    {
      "anonymous": false,
      "inputs": [
        {
          "indexed": false,
          "internalType": "string",
          "name": "value",
          "type": "string"
        },
        {
          "indexed": true,
          "internalType": "uint256",
          "name": "id",
          "type": "uint256"
        }
      ],
      "name": "URI",
      "type": "event"
    },
    {
      "anonymous": false,
      "inputs": [
        {
          "indexed": true,
          "internalType": "address",
          "name": "implementation",
          "type": "address"
        }
      ],
      "name": "Upgraded",
      "type": "event"
    },
    {
      "inputs": [],
      "name": "DEFAULT_ADMIN_ROLE",
      "outputs": [
        {
          "internalType": "bytes32",
          "name": "",
          "type": "bytes32"
        }
      ],
      "stateMutability": "view",
      "type": "function"
    },
    {
      "inputs": [],
      "name": "GM_ROLE",
      "outputs": [
        {
          "internalType": "bytes32",
          "name": "",
          "type": "bytes32"
        }
      ],
      "stateMutability": "view",
      "type": "function"
    },
    {
      "inputs": [],
      "name": "MINTER_ROLE",
      "outputs": [
        {
          "internalType": "bytes32",
          "name": "",
          "type": "bytes32"
        }
      ],
      "stateMutability": "view",
      "type": "function"
    },
    {
      "inputs": [],
      "name": "UPGRADER_ROLE",
      "outputs": [
        {
          "internalType": "bytes32",
          "name": "",
          "type": "bytes32"
        }
      ],
      "stateMutability": "view",
      "type": "function"
    },
    {
      "inputs": [
        {
          "internalType": "string",
          "name": "",
          "type": "string"
        }
      ],
      "name": "acceptedToken",
      "outputs": [
        {
          "internalType": "contract IERC20Upgradeable",
          "name": "",
          "type": "address"
        }
      ],
      "stateMutability": "view",
      "type": "function"
    },
    {
      "inputs": [
        {
          "internalType": "address",
          "name": "account",
          "type": "address"
        },
        {
          "internalType": "uint256",
          "name": "id",
          "type": "uint256"
        }
      ],
      "name": "balanceOf",
      "outputs": [
        {
          "internalType": "uint256",
          "name": "",
          "type": "uint256"
        }
      ],
      "stateMutability": "view",
      "type": "function"
    },
    {
      "inputs": [
        {
          "internalType": "address[]",
          "name": "accounts",
          "type": "address[]"
        },
        {
          "internalType": "uint256[]",
          "name": "ids",
          "type": "uint256[]"
        }
      ],
      "name": "balanceOfBatch",
      "outputs": [
        {
          "internalType": "uint256[]",
          "name": "",
          "type": "uint256[]"
        }
      ],
      "stateMutability": "view",
      "type": "function"
    },
    {
      "inputs": [
        {
          "internalType": "address",
          "name": "account",
          "type": "address"
        },
        {
          "internalType": "uint256",
          "name": "id",
          "type": "uint256"
        },
        {
          "internalType": "uint256",
          "name": "value",
          "type": "uint256"
        }
      ],
      "name": "burn",
      "outputs": [],
      "stateMutability": "nonpayable",
      "type": "function"
    },
    {
      "inputs": [
        {
          "internalType": "address",
          "name": "account",
          "type": "address"
        },
        {
          "internalType": "uint256[]",
          "name": "ids",
          "type": "uint256[]"
        },
        {
          "internalType": "uint256[]",
          "name": "values",
          "type": "uint256[]"
        }
      ],
      "name": "burnBatch",
      "outputs": [],
      "stateMutability": "nonpayable",
      "type": "function"
    },
    {
      "inputs": [
        {
          "internalType": "uint256",
          "name": "id",
          "type": "uint256"
        }
      ],
      "name": "getCidByTokenId",
      "outputs": [
        {
          "internalType": "uint256",
          "name": "",
          "type": "uint256"
        }
      ],
      "stateMutability": "view",
      "type": "function"
    },
    {
      "inputs": [
        {
          "internalType": "uint256",
          "name": "cid",
          "type": "uint256"
        }
      ],
      "name": "getRarityByCId",
      "outputs": [
        {
          "internalType": "string",
          "name": "",
          "type": "string"
        }
      ],
      "stateMutability": "view",
      "type": "function"
    },
    {
      "inputs": [
        {
          "internalType": "uint256",
          "name": "id",
          "type": "uint256"
        }
      ],
      "name": "getRarityById",
      "outputs": [
        {
          "internalType": "string",
          "name": "",
          "type": "string"
        }
      ],
      "stateMutability": "view",
      "type": "function"
    },
    {
      "inputs": [
        {
          "internalType": "bytes32",
          "name": "role",
          "type": "bytes32"
        }
      ],
      "name": "getRoleAdmin",
      "outputs": [
        {
          "internalType": "bytes32",
          "name": "",
          "type": "bytes32"
        }
      ],
      "stateMutability": "view",
      "type": "function"
    },
    {
      "inputs": [
        {
          "internalType": "bytes32",
          "name": "role",
          "type": "bytes32"
        },
        {
          "internalType": "address",
          "name": "account",
          "type": "address"
        }
      ],
      "name": "grantRole",
      "outputs": [],
      "stateMutability": "nonpayable",
      "type": "function"
    },
    {
      "inputs": [
        {
          "internalType": "bytes32",
          "name": "role",
          "type": "bytes32"
        },
        {
          "internalType": "address",
          "name": "account",
          "type": "address"
        }
      ],
      "name": "hasRole",
      "outputs": [
        {
          "internalType": "bool",
          "name": "",
          "type": "bool"
        }
      ],
      "stateMutability": "view",
      "type": "function"
    },
    {
      "inputs": [
        {
          "internalType": "address",
          "name": "_owner",
          "type": "address"
        },
        {
          "internalType": "address",
          "name": "_operator",
          "type": "address"
        }
      ],
      "name": "isApprovedForAll",
      "outputs": [
        {
          "internalType": "bool",
          "name": "isOperator",
          "type": "bool"
        }
      ],
      "stateMutability": "view",
      "type": "function"
    },
    {
      "inputs": [],
      "name": "melandStoreItems",
      "outputs": [
        {
          "internalType": "string[]",
          "name": "",
          "type": "string[]"
        },
        {
          "internalType": "uint256[]",
          "name": "",
          "type": "uint256[]"
        }
      ],
      "stateMutability": "view",
      "type": "function"
    },
    {
      "inputs": [
        {
          "internalType": "string",
          "name": "",
          "type": "string"
        }
      ],
      "name": "melandStoreReceipt",
      "outputs": [
        {
          "internalType": "address",
          "name": "receipt",
          "type": "address"
        }
      ],
      "stateMutability": "pure",
      "type": "function"
    },
    {
      "inputs": [
        {
          "internalType": "bytes32",
          "name": "",
          "type": "bytes32"
        }
      ],
      "name": "mintMaxByRaritykeccak256",
      "outputs": [
        {
          "internalType": "uint256",
          "name": "",
          "type": "uint256"
        }
      ],
      "stateMutability": "view",
      "type": "function"
    },
    {
      "inputs": [
        {
          "internalType": "string",
          "name": "_a",
          "type": "string"
        }
      ],
      "name": "parseInt",
      "outputs": [
        {
          "internalType": "uint256",
          "name": "_parsedInt",
          "type": "uint256"
        }
      ],
      "stateMutability": "pure",
      "type": "function"
    },
    {
      "inputs": [
        {
          "internalType": "string",
          "name": "_a",
          "type": "string"
        },
        {
          "internalType": "uint256",
          "name": "_b",
          "type": "uint256"
        }
      ],
      "name": "parseInt",
      "outputs": [
        {
          "internalType": "uint256",
          "name": "_parsedInt",
          "type": "uint256"
        }
      ],
      "stateMutability": "pure",
      "type": "function"
    },
    {
      "inputs": [
        {
          "internalType": "bytes32",
          "name": "role",
          "type": "bytes32"
        },
        {
          "internalType": "address",
          "name": "account",
          "type": "address"
        }
      ],
      "name": "renounceRole",
      "outputs": [],
      "stateMutability": "nonpayable",
      "type": "function"
    },
    {
      "inputs": [
        {
          "internalType": "bytes32",
          "name": "role",
          "type": "bytes32"
        },
        {
          "internalType": "address",
          "name": "account",
          "type": "address"
        }
      ],
      "name": "revokeRole",
      "outputs": [],
      "stateMutability": "nonpayable",
      "type": "function"
    },
    {
      "inputs": [
        {
          "internalType": "address",
          "name": "from",
          "type": "address"
        },
        {
          "internalType": "address",
          "name": "to",
          "type": "address"
        },
        {
          "internalType": "uint256[]",
          "name": "ids",
          "type": "uint256[]"
        },
        {
          "internalType": "uint256[]",
          "name": "amounts",
          "type": "uint256[]"
        },
        {
          "internalType": "bytes",
          "name": "data",
          "type": "bytes"
        }
      ],
      "name": "safeBatchTransferFrom",
      "outputs": [],
      "stateMutability": "nonpayable",
      "type": "function"
    },
    {
      "inputs": [
        {
          "internalType": "string",
          "name": "_a",
          "type": "string"
        }
      ],
      "name": "safeParseInt",
      "outputs": [
        {
          "internalType": "uint256",
          "name": "_parsedInt",
          "type": "uint256"
        }
      ],
      "stateMutability": "pure",
      "type": "function"
    },
    {
      "inputs": [
        {
          "internalType": "string",
          "name": "_a",
          "type": "string"
        },
        {
          "internalType": "uint256",
          "name": "_b",
          "type": "uint256"
        }
      ],
      "name": "safeParseInt",
      "outputs": [
        {
          "internalType": "uint256",
          "name": "_parsedInt",
          "type": "uint256"
        }
      ],
      "stateMutability": "pure",
      "type": "function"
    },
    {
      "inputs": [
        {
          "internalType": "address",
          "name": "from",
          "type": "address"
        },
        {
          "internalType": "address",
          "name": "to",
          "type": "address"
        },
        {
          "internalType": "uint256",
          "name": "id",
          "type": "uint256"
        },
        {
          "internalType": "uint256",
          "name": "amount",
          "type": "uint256"
        },
        {
          "internalType": "bytes",
          "name": "data",
          "type": "bytes"
        }
      ],
      "name": "safeTransferFrom",
      "outputs": [],
      "stateMutability": "nonpayable",
      "type": "function"
    },
    {
      "inputs": [
        {
          "internalType": "address",
          "name": "operator",
          "type": "address"
        },
        {
          "internalType": "bool",
          "name": "approved",
          "type": "bool"
        }
      ],
      "name": "setApprovalForAll",
      "outputs": [],
      "stateMutability": "nonpayable",
      "type": "function"
    },
    {
      "inputs": [
        {
          "internalType": "uint256",
          "name": "id",
          "type": "uint256"
        }
      ],
      "name": "totalSupply",
      "outputs": [
        {
          "internalType": "uint256",
          "name": "",
          "type": "uint256"
        }
      ],
      "stateMutability": "view",
      "type": "function"
    },
    {
      "inputs": [
        {
          "internalType": "uint256",
          "name": "cid",
          "type": "uint256"
        }
      ],
      "name": "totalSupplyByCId",
      "outputs": [
        {
          "internalType": "uint256",
          "name": "",
          "type": "uint256"
        }
      ],
      "stateMutability": "view",
      "type": "function"
    },
    {
      "inputs": [
        {
          "internalType": "address",
          "name": "newImplementation",
          "type": "address"
        }
      ],
      "name": "upgradeTo",
      "outputs": [],
      "stateMutability": "nonpayable",
      "type": "function"
    },
    {
      "inputs": [
        {
          "internalType": "address",
          "name": "newImplementation",
          "type": "address"
        },
        {
          "internalType": "bytes",
          "name": "data",
          "type": "bytes"
        }
      ],
      "name": "upgradeToAndCall",
      "outputs": [],
      "stateMutability": "payable",
      "type": "function"
    },
    {
      "inputs": [
        {
          "internalType": "uint256",
          "name": "id",
          "type": "uint256"
        }
      ],
      "name": "uri",
      "outputs": [
        {
          "internalType": "string",
          "name": "",
          "type": "string"
        }
      ],
      "stateMutability": "view",
      "type": "function"
    },
    {
      "inputs": [
        {
          "internalType": "string",
          "name": "uri",
          "type": "string"
        }
      ],
      "name": "initialize",
      "outputs": [],
      "stateMutability": "nonpayable",
      "type": "function"
    },
    {
      "inputs": [
        {
          "internalType": "string",
          "name": "newuri",
          "type": "string"
        }
      ],
      "name": "setURI",
      "outputs": [],
      "stateMutability": "nonpayable",
      "type": "function"
    },
    {
      "inputs": [
        {
          "internalType": "string",
          "name": "symbol",
          "type": "string"
        }
      ],
      "name": "melandStoreItemURI",
      "outputs": [
        {
          "internalType": "string",
          "name": "",
          "type": "string"
        }
      ],
      "stateMutability": "view",
      "type": "function"
    },
    {
      "inputs": [
        {
          "internalType": "address",
          "name": "account",
          "type": "address"
        },
        {
          "internalType": "uint256",
          "name": "cid",
          "type": "uint256"
        },
        {
          "internalType": "uint256",
          "name": "amount",
          "type": "uint256"
        }
      ],
      "name": "mint",
      "outputs": [
        {
          "internalType": "uint256[]",
          "name": "",
          "type": "uint256[]"
        }
      ],
      "stateMutability": "nonpayable",
      "type": "function"
    },
    {
      "inputs": [
        {
          "internalType": "bytes",
          "name": "_rarity",
          "type": "bytes"
        },
        {
          "internalType": "uint256",
          "name": "mintMax",
          "type": "uint256"
        }
      ],
      "name": "setRarity",
      "outputs": [],
      "stateMutability": "nonpayable",
      "type": "function"
    },
    {
      "inputs": [
        {
          "internalType": "uint256",
          "name": "cid",
          "type": "uint256"
        },
        {
          "internalType": "bytes",
          "name": "_rarity",
          "type": "bytes"
        }
      ],
      "name": "setCIDRarity",
      "outputs": [],
      "stateMutability": "nonpayable",
      "type": "function"
    },
    {
      "inputs": [
        {
          "internalType": "contract MelandTier",
          "name": "_tierAddress",
          "type": "address"
        }
      ],
      "name": "setMelandTier",
      "outputs": [],
      "stateMutability": "nonpayable",
      "type": "function"
    },
    {
      "inputs": [
        {
          "internalType": "bytes4",
          "name": "interfaceId",
          "type": "bytes4"
        }
      ],
      "name": "supportsInterface",
      "outputs": [
        {
          "internalType": "bool",
          "name": "",
          "type": "bool"
        }
      ],
      "stateMutability": "view",
      "type": "function"
    },
    {
      "inputs": [
        {
          "internalType": "contract IERC20Upgradeable",
          "name": "token",
          "type": "address"
        }
      ],
      "name": "setAcceptedToken",
      "outputs": [],
      "stateMutability": "nonpayable",
      "type": "function"
    },
    {
      "inputs": [
        {
          "internalType": "contract NFTStore",
          "name": "s",
          "type": "address"
        }
      ],
      "name": "setStore",
      "outputs": [],
      "stateMutability": "nonpayable",
      "type": "function"
    },
    {
      "inputs": [
        {
          "internalType": "string",
          "name": "symbol",
          "type": "string"
        },
        {
          "internalType": "uint256",
          "name": "price",
          "type": "uint256"
        }
      ],
      "name": "setStoreItem",
      "outputs": [],
      "stateMutability": "nonpayable",
      "type": "function"
    },
    {
      "inputs": [
        {
          "internalType": "string",
          "name": "symbol",
          "type": "string"
        }
      ],
      "name": "delStoreItem",
      "outputs": [],
      "stateMutability": "nonpayable",
      "type": "function"
    },
    {
      "inputs": [
        {
          "internalType": "string",
          "name": "",
          "type": "string"
        }
      ],
      "name": "melandStoreItemsRestrictPurchaseNFTIds",
      "outputs": [
        {
          "internalType": "bool",
          "name": "",
          "type": "bool"
        },
        {
          "internalType": "uint256[]",
          "name": "",
          "type": "uint256[]"
        }
      ],
      "stateMutability": "pure",
      "type": "function"
    },
    {
      "inputs": [
        {
          "internalType": "string",
          "name": "symbol",
          "type": "string"
        },
        {
          "internalType": "uint256",
          "name": "id",
          "type": "uint256"
        },
        {
          "internalType": "address",
          "name": "to",
          "type": "address"
        }
      ],
      "name": "melandStoreItemsMint",
      "outputs": [
        {
          "internalType": "uint256",
          "name": "",
          "type": "uint256"
        }
      ],
      "stateMutability": "nonpayable",
      "type": "function"
    },
    {
      "inputs": [
        {
          "internalType": "string",
          "name": "symbol",
          "type": "string"
        }
      ],
      "name": "test",
      "outputs": [
        {
          "internalType": "uint256",
          "name": "",
          "type": "uint256"
        }
      ],
      "stateMutability": "pure",
      "type": "function"
    },
    {
      "inputs": [
        {
          "internalType": "string",
          "name": "symbol",
          "type": "string"
        }
      ],
      "name": "melandStoreSellStatus",
      "outputs": [
        {
          "internalType": "bool",
          "name": "",
          "type": "bool"
        }
      ],
      "stateMutability": "view",
      "type": "function"
    },
    {
      "inputs": [
        {
          "internalType": "string",
          "name": "",
          "type": "string"
        }
      ],
      "name": "melandStoreItemsRestrictedPurchase",
      "outputs": [
        {
          "internalType": "bool",
          "name": "restricted",
          "type": "bool"
        },
        {
          "internalType": "uint256",
          "name": "restrictLimit",
          "type": "uint256"
        }
      ],
      "stateMutability": "pure",
      "type": "function"
    }
  ],
  "bytecode": "0x60a06040523060805234801561001457600080fd5b50608051614a0a61004560003960008181610d1b01528181610d5b01528181610f1a0152610f5a0152614a0a6000f3fe6080604052600436106102c85760003560e01c806390ad941d11610175578063d3186324116100dc578063f405a58411610095578063f70e9a471161006f578063f70e9a471461095c578063f72c0d8b1461097c578063f9fbd554146109b0578063fcc6dd57146109d057600080fd5b8063f405a584146108fc578063f5298aca1461091c578063f62d18881461093c57600080fd5b8063d31863241461081b578063d539139314610848578063d547741f1461087c578063e985e9c51461089c578063ed9be432146108bc578063f242432a146108dc57600080fd5b8063a649e7a51161012e578063a649e7a51461074e578063b0c208bc1461077b578063bd85b0391461079b578063bdb7b5dd146107bb578063be7cbe75146107db578063bf4d89b5146107fb57600080fd5b806390ad941d1461068757806391d14854146106a75780639294f212146106c75780639f89e769146106e7578063a217fddf14610719578063a22cb4651461072e57600080fd5b806330c7be2c116102345780634f1ef286116101ed5780636b20c454116101c75780636b20c454146106045780637487f5281461062457806377937c05146106445780638b31e62d1461066457600080fd5b80634f1ef286146105855780635eccb30c14610598578063664033d5146105b857600080fd5b806330c7be2c146104b657806336568abe146104d85780633659cfe6146104f85780633ef780bc1461051857806342346c5e146105455780634e1273f41461056557600080fd5b8063156e29f611610286578063156e29f6146103d95780631a8c2e80146104065780631ba43d2b14610426578063248a9ca3146104465780632eb2c2d6146104765780632f2ff15d1461049657600080fd5b8062fdd58e146102cd57806301ffc9a71461030057806302fe5305146103305780630820c90d14610352578063087cbd401461038c5780630e89341c146103ac575b600080fd5b3480156102d957600080fd5b506102ed6102e8366004613950565b6109fc565b6040519081526020015b60405180910390f35b34801561030c57600080fd5b5061032061031b366004613992565b610a98565b60405190151581526020016102f7565b34801561033c57600080fd5b5061035061034b366004613a64565b610aa3565b005b34801561035e57600080fd5b5061037561036d366004613a64565b506000908190565b6040805192151583526020830191909152016102f7565b34801561039857600080fd5b506103506103a7366004613aa0565b610ac9565b3480156103b857600080fd5b506103cc6103c7366004613abd565b610aeb565b6040516102f79190613b2e565b3480156103e557600080fd5b506103f96103f4366004613b41565b610af6565b6040516102f79190613bb1565b34801561041257600080fd5b506102ed610421366004613bc4565b610b47565b34801561043257600080fd5b50610320610441366004613a64565b610ba0565b34801561045257600080fd5b506102ed610461366004613abd565b600090815260cf602052604090206001015490565b34801561048257600080fd5b50610350610491366004613cb2565b610bd4565b3480156104a257600080fd5b506103506104b1366004613d5f565b610c6b565b3480156104c257600080fd5b506102ed6000805160206149b583398151915281565b3480156104e457600080fd5b506103506104f3366004613d5f565b610c96565b34801561050457600080fd5b50610350610513366004613aa0565b610d10565b34801561052457600080fd5b506102ed610533366004613abd565b600090815260ca602052604090205490565b34801561055157600080fd5b506102ed610560366004613a64565b610dd9565b34801561057157600080fd5b506103f9610580366004613d8f565b610de6565b610350610593366004613e5b565b610f0f565b3480156105a457600080fd5b506102ed6105b3366004613a64565b610fc5565b3480156105c457600080fd5b506105ec6105d3366004613a64565b5073fced262e4949b7b5c4177b4e0ad8e974cc7493bf90565b6040516001600160a01b0390911681526020016102f7565b34801561061057600080fd5b5061035061061f366004613ea0565b610fd2565b34801561063057600080fd5b5061035061063f366004613aa0565b611015565b34801561065057600080fd5b5061035061065f366004613f15565b611037565b34801561067057600080fd5b5061067961105a565b6040516102f7929190613f45565b34801561069357600080fd5b506103cc6106a2366004613abd565b611190565b3480156106b357600080fd5b506103206106c2366004613d5f565b611232565b3480156106d357600080fd5b506103506106e2366004613fb2565b61125d565b3480156106f357600080fd5b5061070b610702366004613a64565b50600090606090565b6040516102f7929190613ff6565b34801561072557600080fd5b506102ed600081565b34801561073a57600080fd5b50610350610749366004614011565b611280565b34801561075a57600080fd5b506102ed610769366004613abd565b60cd6020526000908152604090205481565b34801561078757600080fd5b50610350610796366004613a64565b61128b565b3480156107a757600080fd5b506102ed6107b6366004613abd565b6112ad565b3480156107c757600080fd5b506103506107d6366004613fb2565b6112df565b3480156107e757600080fd5b506103cc6107f6366004613abd565b611302565b34801561080757600080fd5b506102ed610816366004613fb2565b6113b8565b34801561082757600080fd5b506102ed610836366004613abd565b600090815260cb602052604090205490565b34801561085457600080fd5b506102ed7f9f2df0fed2c77648de5860a4cc508cd0818c85b8b8a1ab4ceeef8d981c8956a681565b34801561088857600080fd5b50610350610897366004613d5f565b6114d5565b3480156108a857600080fd5b506103206108b7366004614044565b6114fb565b3480156108c857600080fd5b506102ed6108d7366004613fb2565b611507565b3480156108e857600080fd5b506103506108f7366004614072565b6116c0565b34801561090857600080fd5b506103cc610917366004613a64565b611705565b34801561092857600080fd5b50610350610937366004613b41565b611739565b34801561094857600080fd5b50610350610957366004613a64565b61177c565b34801561096857600080fd5b50610350610977366004613aa0565b611801565b34801561098857600080fd5b506102ed7f189ab7a9244df0848122154315af71fe140f3db0fe014031783b0946b8c9d2e381565b3480156109bc57600080fd5b506102ed6109cb366004613a64565b611839565b3480156109dc57600080fd5b506105ec6109eb366004613a64565b50610102546001600160a01b031690565b60006001600160a01b038316610a6d5760405162461bcd60e51b815260206004820152602b60248201527f455243313135353a2062616c616e636520717565727920666f7220746865207a60448201526a65726f206164647265737360a81b60648201526084015b60405180910390fd5b5060008181526065602090815260408083206001600160a01b03861684529091529020545b92915050565b6000610a9282611844565b6000805160206149b5833981519152610abc8133611869565b610ac5826118cd565b5050565b6000805160206149b5833981519152610ae28133611869565b610ac5826118e0565b6060610a9282611904565b60607f9f2df0fed2c77648de5860a4cc508cd0818c85b8b8a1ab4ceeef8d981c8956a6610b238133611869565b610b3e8585856040518060200160405280600081525061195a565b95945050505050565b6000610b54848484611a5c565b6000610b5f85611ac0565b90506000610b6f84836001610af6565b9050610b79611acb565b80600081518110610b8c57610b8c6140da565b6020026020010151925050505b9392505050565b600080610bac83611ac0565b90506000610bb982611b3e565b600092835260cb602052604090922054919091109392505050565b6001600160a01b038516331480610bf05750610bf085336114fb565b610c575760405162461bcd60e51b815260206004820152603260248201527f455243313135353a207472616e736665722063616c6c6572206973206e6f74206044820152711bdddb995c881b9bdc88185c1c1c9bdd995960721b6064820152608401610a64565b610c648585858585611bf8565b5050505050565b600082815260cf6020526040902060010154610c878133611869565b610c918383611da5565b505050565b6001600160a01b0381163314610d065760405162461bcd60e51b815260206004820152602f60248201527f416363657373436f6e74726f6c3a2063616e206f6e6c792072656e6f756e636560448201526e103937b632b9903337b91039b2b63360891b6064820152608401610a64565b610ac58282611e2b565b306001600160a01b037f0000000000000000000000000000000000000000000000000000000000000000161415610d595760405162461bcd60e51b8152600401610a64906140f0565b7f00000000000000000000000000000000000000000000000000000000000000006001600160a01b0316610d8b611e92565b6001600160a01b031614610db15760405162461bcd60e51b8152600401610a649061413c565b610dba81611ec0565b60408051600080825260208201909252610dd691839190611eeb565b50565b6000610a928260006113b8565b60608151835114610e4b5760405162461bcd60e51b815260206004820152602960248201527f455243313135353a206163636f756e747320616e6420696473206c656e677468604482015268040dad2e6dac2e8c6d60bb1b6064820152608401610a64565b600083516001600160401b03811115610e6657610e666139af565b604051908082528060200260200182016040528015610e8f578160200160208202803683370190505b50905060005b8451811015610f0757610eda858281518110610eb357610eb36140da565b6020026020010151858381518110610ecd57610ecd6140da565b60200260200101516109fc565b828281518110610eec57610eec6140da565b6020908102919091010152610f008161419e565b9050610e95565b509392505050565b306001600160a01b037f0000000000000000000000000000000000000000000000000000000000000000161415610f585760405162461bcd60e51b8152600401610a64906140f0565b7f00000000000000000000000000000000000000000000000000000000000000006001600160a01b0316610f8a611e92565b6001600160a01b031614610fb05760405162461bcd60e51b8152600401610a649061413c565b610fb982611ec0565b610ac582826001611eeb565b6000610a92826000611507565b6001600160a01b038316331480610fee5750610fee83336114fb565b61100a5760405162461bcd60e51b8152600401610a64906141b9565b610c9183838361202f565b6000805160206149b583398151915261102e8133611869565b610ac5826121c0565b6000805160206149b58339815191526110508133611869565b610c9183836121e4565b60608061010361010481805480602002602001604051908101604052809291908181526020016000905b828210156111305783829060005260206000200180546110a390614202565b80601f01602080910402602001604051908101604052809291908181526020018280546110cf90614202565b801561111c5780601f106110f15761010080835404028352916020019161111c565b820191906000526020600020905b8154815290600101906020018083116110ff57829003601f168201915b505050505081526020019060010190611084565b5050505091508080548060200260200160405190810160405280929190818152602001828054801561118157602002820191906000526020600020905b81548152602001906001019080831161116d575b50505050509050915091509091565b600081815260ce602052604090208054606091906111ad90614202565b80601f01602080910402602001604051908101604052809291908181526020018280546111d990614202565b80156112265780601f106111fb57610100808354040283529160200191611226565b820191906000526020600020905b81548152906001019060200180831161120957829003601f168201915b50505050509050919050565b600091825260cf602090815260408084206001600160a01b0393909316845291905290205460ff1690565b6000805160206149b58339815191526112768133611869565b610c918383612203565b610ac533838361226e565b6000805160206149b58339815191526112a48133611869565b610ac58261234f565b600081815260ca6020526040812054806112ca5750600092915050565b600090815260cb602052604090205492915050565b6000805160206149b58339815191526112f88133611869565b610c9183836124c6565b600081815260ca602052604081205460609190600081815260ce6020526040902080549192509061133290614202565b80601f016020809104026020016040519081016040528092919081815260200182805461135e90614202565b80156113ab5780601f10611380576101008083540402835291602001916113ab565b820191906000526020600020905b81548152906001019060200180831161138e57829003601f168201915b5050505050915050919050565b6000828180805b83518110156114ad5760308482815181106113dc576113dc6140da565b016020015160f81c1080159061140c57506039848281518110611401576114016140da565b016020015160f81c11155b1561147357811561142f5785611421576114ad565b8561142b8161423d565b9650505b61143a600a84614254565b92506030848281518110611450576114506140da565b0160200151611462919060f81c614273565b61146c908461428a565b925061149b565b838181518110611485576114856140da565b60209101015160f81c602e141561149b57600191505b806114a58161419e565b9150506113bf565b5084156114cc576114bf85600a614386565b6114c99083614254565b91505b50949350505050565b600082815260cf60205260409020600101546114f18133611869565b610c918383611e2b565b6000610b998383612643565b6000828180805b83518110156114ad57603084828151811061152b5761152b6140da565b016020015160f81c1080159061155b57506039848281518110611550576115506140da565b016020015160f81c11155b156115c257811561157e5785611570576114ad565b8561157a8161423d565b9650505b611589600a84614254565b9250603084828151811061159f5761159f6140da565b01602001516115b1919060f81c614273565b6115bb908461428a565b92506116ae565b8381815181106115d4576115d46140da565b60209101015160f81c602e14156116515781156116485760405162461bcd60e51b815260206004820152602c60248201527f4d6f7265207468616e206f6e6520646563696d616c20656e636f756e7465726560448201526b6420696e20737472696e672160a01b6064820152608401610a64565b600191506116ae565b60405162461bcd60e51b815260206004820152602c60248201527f4e6f6e2d6e756d6572616c2063686172616374657220656e636f756e7465726560448201526b6420696e20737472696e672160a01b6064820152608401610a64565b806116b88161419e565b91505061150e565b6001600160a01b0385163314806116dc57506116dc85336114fb565b6116f85760405162461bcd60e51b8152600401610a64906141b9565b610c6485858585856126be565b606061171160006127ee565b82604051602001611723929190614392565b6040516020818303038152906040529050919050565b6001600160a01b038316331480611755575061175583336114fb565b6117715760405162461bcd60e51b8152600401610a64906141b9565b610c918383836127fd565b600054610100900460ff1680611795575060005460ff16155b6117b15760405162461bcd60e51b8152600401610a64906143e2565b600054610100900460ff161580156117d3576000805461ffff19166101011790555b6117db612902565b6117e48261297d565b6117ec612a51565b8015610ac5576000805461ff00191690555050565b6000805160206149b583398151915261181a8133611869565b60cc80546001600160a01b0319166001600160a01b0384161790555050565b6000610a9282611ac0565b60006001600160e01b03198216637965db0b60e01b1480610a925750610a9282612ad0565b6118738282611232565b610ac55761188b816001600160a01b03166014612b20565b611896836020612b20565b6040516020016118a7929190614430565b60408051601f198184030181529082905262461bcd60e51b8252610a6491600401613b2e565b8051610ac59060679060208401906137f1565b61010180546001600160a01b0319166001600160a01b038316179055610dd6611acb565b600081815260ca602052604090205460609061191f836127ee565b61192882612cbb565b61193185612cbb565b604051602001611943939291906144a5565b604051602081830303815290604052915050919050565b60606000836001600160401b03811115611976576119766139af565b60405190808252806020026020018201604052801561199f578160200160208202803683370190505b509050600084116119fc5760405162461bcd60e51b815260206004820152602160248201527f54686520616d6f756e74206d7573742062652067726561746572207468616e206044820152600360fc1b6064820152608401610a64565b60005b84811015611a52576000611a1287612dda565b9050611a218882600188612e0e565b80838381518110611a3457611a346140da565b60209081029190910101525080611a4a8161419e565b9150506119ff565b5095945050505050565b610101546001600160a01b0316336001600160a01b031614610c915760405162461bcd60e51b815260206004820152601f60248201527f416c6c6f77206f6e6c79204d656c616e642e6169206d616c6c2063616c6c73006044820152606401610a64565b6000610a9282610dd9565b610101546001600160a01b031615611b3c576101015460405163fa21a11d60e01b81523060048201526001600160a01b039091169063fa21a11d90602401600060405180830381600087803b158015611b2357600080fd5b505af1158015611b37573d6000803e3d6000fd5b505050505b565b600081815260ce602052604081208054829190611b5a90614202565b80601f0160208091040260200160405190810160405280929190818152602001828054611b8690614202565b8015611bd35780601f10611ba857610100808354040283529160200191611bd3565b820191906000526020600020905b815481529060010190602001808311611bb657829003601f168201915b50505050509050610b99818051602091820120600090815260cd909152604090205490565b8151835114611c195760405162461bcd60e51b8152600401610a64906144ff565b6001600160a01b038416611c3f5760405162461bcd60e51b8152600401610a6490614547565b33611c4e818787878787612f11565b60005b8451811015611d37576000858281518110611c6e57611c6e6140da565b602002602001015190506000858381518110611c8c57611c8c6140da565b60209081029190910181015160008481526065835260408082206001600160a01b038e168352909352919091205490915081811015611cdd5760405162461bcd60e51b8152600401610a649061458c565b60008381526065602090815260408083206001600160a01b038e8116855292528083208585039055908b16825281208054849290611d1c90849061428a565b9250508190555050505080611d309061419e565b9050611c51565b50846001600160a01b0316866001600160a01b0316826001600160a01b03167f4a39dc06d4c0dbc64b70af90fd698a233a518aa5d07e595d983b8c0526c8f7fb8787604051611d879291906145d6565b60405180910390a4611d9d81878787878761307f565b505050505050565b611daf8282611232565b610ac557600082815260cf602090815260408083206001600160a01b03851684529091529020805460ff19166001179055611de73390565b6001600160a01b0316816001600160a01b0316837f2f8788117e7eff1d82e926ec794901d17c78024a50270940304540a733656f0d60405160405180910390a45050565b611e358282611232565b15610ac557600082815260cf602090815260408083206001600160a01b0385168085529252808320805460ff1916905551339285917ff6391f5c32d9c69d2a47ea670b442974b53935d1edc7fd64eb21e047a839171b9190a45050565b7f360894a13ba1a3210667c828492db98dca3e2076cc3735a920a3ca505d382bbc546001600160a01b031690565b7f189ab7a9244df0848122154315af71fe140f3db0fe014031783b0946b8c9d2e3610ac58133611869565b6000611ef5611e92565b9050611f00846131ea565b600083511180611f0d5750815b15611f1e57611f1c848461328f565b505b7f4910fdfa16fed3260ed0e7147f7cc6da11a60208b5b9406d12a635614ffd9143805460ff16610c6457805460ff191660011781556040516001600160a01b0383166024820152611f9d90869060440160408051601f198184030181529190526020810180516001600160e01b0316631b2ce7f360e11b17905261328f565b50805460ff19168155611fae611e92565b6001600160a01b0316826001600160a01b0316146120265760405162461bcd60e51b815260206004820152602f60248201527f45524331393637557067726164653a207570677261646520627265616b73206660448201526e75727468657220757067726164657360881b6064820152608401610a64565b610c6485613371565b6001600160a01b0383166120555760405162461bcd60e51b8152600401610a64906145fb565b80518251146120765760405162461bcd60e51b8152600401610a64906144ff565b600033905061209981856000868660405180602001604052806000815250612f11565b60005b83518110156121615760008482815181106120b9576120b96140da565b6020026020010151905060008483815181106120d7576120d76140da565b60209081029190910181015160008481526065835260408082206001600160a01b038c1683529093529190912054909150818110156121285760405162461bcd60e51b8152600401610a649061463e565b60009283526065602090815260408085206001600160a01b038b16865290915290922091039055806121598161419e565b91505061209c565b5060006001600160a01b0316846001600160a01b0316826001600160a01b03167f4a39dc06d4c0dbc64b70af90fd698a233a518aa5d07e595d983b8c0526c8f7fb86866040516121b29291906145d6565b60405180910390a450505050565b61010280546001600160a01b0319166001600160a01b038316179055610dd6611acb565b600082815260ce602090815260409091208251610c91928401906137f1565b8060cd60008480519060200120815260200190815260200160002081905550816040516122309190614682565b604051908190038120828252907fc0cc007bc58275ca70d6cec6795b70feb61df220b5c085a20bb71648ed57072c9060200160405180910390a25050565b816001600160a01b0316836001600160a01b031614156122e25760405162461bcd60e51b815260206004820152602960248201527f455243313135353a2073657474696e6720617070726f76616c20737461747573604482015268103337b91039b2b63360b91b6064820152608401610a64565b6001600160a01b03838116600081815260666020908152604080832094871680845294825291829020805460ff191686151590811790915591519182527f17307eab39ab6107e8899845ad3d59bd9653f200f220920489ca2b5937696c31910160405180910390a3505050565b6000805b610103548110156123b5578280519060200120610103828154811061237a5761237a6140da565b90600052602060002001604051612391919061469e565b604051809103902014156123a3578091505b806123ad8161419e565b915050612353565b5061010380546123c790600190614273565b815481106123d7576123d76140da565b9060005260206000200161010382815481106123f5576123f56140da565b9060005260206000200190805461240b90614202565b612416929190613875565b506101038054806124295761242961473a565b60019003818190600052602060002001600061244591906138f0565b9055610103546101049061245b90600190614273565b8154811061246b5761246b6140da565b9060005260206000200154610104828154811061248a5761248a6140da565b6000918252602090912001556101048054806124a8576124a861473a565b60019003818190600052602060002001600090559055610ac5611acb565b6000805b6101035481101561252c5761010381815481106124e9576124e96140da565b90600052602060002001604051612500919061469e565b60405180910390208480519060200120141561251a578091505b806125248161419e565b9150506124ca565b50801561255957816101048281548110612548576125486140da565b60009182526020909120015561263b565b61010354158015906125a457508280519060200120610103600081548110612583576125836140da565b9060005260206000200160405161259a919061469e565b6040518091039020145b156125bf5781610104600081548110612548576125486140da565b61010380546001810182556000919091528351612603917f02c297ab74aad0aede3a1895c857b1f2c71e6a203feb727bec95ac752998cb78019060208601906137f1565b5061010480546001810182556000919091527f4c0be60200faa20559308cb7b5a1bb3255c16cb1cab91f525b5ae7a03d02fabe018290555b610c91611acb565b60006001600160a01b03821673207fa8df3a17d96ca7ea4f2893fcdcb78a304101141561267257506001610a92565b60cc546001600160a01b038381169116141561269057506001610a92565b6001600160a01b0380841660009081526066602090815260408083209386168352929052205460ff16610b99565b6001600160a01b0384166126e45760405162461bcd60e51b8152600401610a6490614547565b336127038187876126f4886133b1565b6126fd886133b1565b87612f11565b60008481526065602090815260408083206001600160a01b038a168452909152902054838110156127465760405162461bcd60e51b8152600401610a649061458c565b60008581526065602090815260408083206001600160a01b038b811685529252808320878503905590881682528120805486929061278590849061428a565b909155505060408051868152602081018690526001600160a01b03808916928a821692918616917fc3d58168c5ae7397731d063d5bbf3d657854427343f4c083240f7aacaa2d0f62910160405180910390a46127e58288888888886133fc565b50505050505050565b6060606780546111ad90614202565b6001600160a01b0383166128235760405162461bcd60e51b8152600401610a64906145fb565b3361285281856000612834876133b1565b61283d876133b1565b60405180602001604052806000815250612f11565b60008381526065602090815260408083206001600160a01b0388168452909152902054828110156128955760405162461bcd60e51b8152600401610a649061463e565b60008481526065602090815260408083206001600160a01b03898116808652918452828520888703905582518981529384018890529092908616917fc3d58168c5ae7397731d063d5bbf3d657854427343f4c083240f7aacaa2d0f62910160405180910390a45050505050565b600054610100900460ff168061291b575060005460ff16155b6129375760405162461bcd60e51b8152600401610a64906143e2565b600054610100900460ff16158015612959576000805461ffff19166101011790555b6129616134c6565b6129696134c6565b8015610dd6576000805461ff001916905550565b6129a660405180604001604052806006815260200165756e6971756560d01b8152506001612203565b6129cf604051806040016040528060068152602001656d797468696360d01b815250600a612203565b6129f6604051806040016040528060048152602001636570696360e01b8152506064612203565b612a1e604051806040016040528060048152602001637261726560e01b8152506103e8612203565b612a486040518060400160405280600681526020016531b7b6b6b7b760d11b815250612710612203565b610dd681613530565b612a59613594565b612a64600033611da5565b612a7c6000805160206149b583398151915233611da5565b612aa67f9f2df0fed2c77648de5860a4cc508cd0818c85b8b8a1ab4ceeef8d981c8956a633611da5565b611b3c7f189ab7a9244df0848122154315af71fe140f3db0fe014031783b0946b8c9d2e333611da5565b60006001600160e01b03198216636cdb3d1360e11b1480612b0157506001600160e01b031982166303a24d0760e21b145b80610a9257506301ffc9a760e01b6001600160e01b0319831614610a92565b60606000612b2f836002614254565b612b3a90600261428a565b6001600160401b03811115612b5157612b516139af565b6040519080825280601f01601f191660200182016040528015612b7b576020820181803683370190505b509050600360fc1b81600081518110612b9657612b966140da565b60200101906001600160f81b031916908160001a905350600f60fb1b81600181518110612bc557612bc56140da565b60200101906001600160f81b031916908160001a9053506000612be9846002614254565b612bf490600161428a565b90505b6001811115612c6c576f181899199a1a9b1b9c1cb0b131b232b360811b85600f1660108110612c2857612c286140da565b1a60f81b828281518110612c3e57612c3e6140da565b60200101906001600160f81b031916908160001a90535060049490941c93612c658161423d565b9050612bf7565b508315610b995760405162461bcd60e51b815260206004820181905260248201527f537472696e67733a20686578206c656e67746820696e73756666696369656e746044820152606401610a64565b606081612cdf5750506040805180820190915260018152600360fc1b602082015290565b8160005b8115612d095780612cf38161419e565b9150612d029050600a83614750565b9150612ce3565b6000816001600160401b03811115612d2357612d236139af565b6040519080825280601f01601f191660200182016040528015612d4d576020820181803683370190505b509050815b85156114cc57612d63600182614273565b90506000612d72600a88614750565b612d7d90600a614254565b612d879088614273565b612d92906030614772565b905060008160f81b905080848481518110612daf57612daf6140da565b60200101906001600160f81b031916908160001a905350612dd1600a89614750565b97505050612d52565b6000612dea60c980546001019055565b6000612df560c95490565b600081815260ca60205260409020939093555090919050565b6001600160a01b038416612e6e5760405162461bcd60e51b815260206004820152602160248201527f455243313135353a206d696e7420746f20746865207a65726f206164647265736044820152607360f81b6064820152608401610a64565b33612e7f816000876126f4886133b1565b60008481526065602090815260408083206001600160a01b038916845290915281208054859290612eb190849061428a565b909155505060408051858152602081018590526001600160a01b0380881692600092918516917fc3d58168c5ae7397731d063d5bbf3d657854427343f4c083240f7aacaa2d0f62910160405180910390a4610c64816000878787876133fc565b6001600160a01b0385166130715760005b835181101561306f576000848281518110612f3f57612f3f6140da565b602002602001015190506000612f6182600090815260ca602052604090205490565b600081815260ce6020526040812080549293509091612f7f90614202565b80601f0160208091040260200160405190810160405280929190818152602001828054612fab90614202565b8015612ff85780601f10612fcd57610100808354040283529160200191612ff8565b820191906000526020600020905b815481529060010190602001808311612fdb57829003601f168201915b50505050509050600061300a83611b3e565b905080613016856112ad565b10828260405160200161302a929190614797565b604051602081830303815290604052906130575760405162461bcd60e51b8152600401610a649190613b2e565b505050505080806130679061419e565b915050612f22565b505b611d9d8686868686866135f3565b6001600160a01b0384163b15611d9d5760405163bc197c8160e01b81526001600160a01b0385169063bc197c81906130c390899089908890889088906004016147e0565b602060405180830381600087803b1580156130dd57600080fd5b505af192505050801561310d575060408051601f3d908101601f1916820190925261310a9181019061483e565b60015b6131ba5761311961485b565b806308c379a01415613153575061312e614877565b806131395750613155565b8060405162461bcd60e51b8152600401610a649190613b2e565b505b60405162461bcd60e51b815260206004820152603460248201527f455243313135353a207472616e7366657220746f206e6f6e20455243313135356044820152732932b1b2b4bb32b91034b6b83632b6b2b73a32b960611b6064820152608401610a64565b6001600160e01b0319811663bc197c8160e01b146127e55760405162461bcd60e51b8152600401610a6490614900565b803b61324e5760405162461bcd60e51b815260206004820152602d60248201527f455243313936373a206e657720696d706c656d656e746174696f6e206973206e60448201526c1bdd08184818dbdb9d1c9858dd609a1b6064820152608401610a64565b7f360894a13ba1a3210667c828492db98dca3e2076cc3735a920a3ca505d382bbc80546001600160a01b0319166001600160a01b0392909216919091179055565b6060823b6132ee5760405162461bcd60e51b815260206004820152602660248201527f416464726573733a2064656c65676174652063616c6c20746f206e6f6e2d636f6044820152651b9d1c9858dd60d21b6064820152608401610a64565b600080846001600160a01b0316846040516133099190614682565b600060405180830381855af49150503d8060008114613344576040519150601f19603f3d011682016040523d82523d6000602084013e613349565b606091505b5091509150610b3e828260405180606001604052806027815260200161498e602791396136ed565b61337a816131ea565b6040516001600160a01b038216907fbc7cd75a20ee27fd9adebab32041f755214dbc6bffa90cc0225b39da2e5c2d3b90600090a250565b604080516001808252818301909252606091600091906020808301908036833701905050905082816000815181106133eb576133eb6140da565b602090810291909101015292915050565b6001600160a01b0384163b15611d9d5760405163f23a6e6160e01b81526001600160a01b0385169063f23a6e61906134409089908990889088908890600401614948565b602060405180830381600087803b15801561345a57600080fd5b505af192505050801561348a575060408051601f3d908101601f191682019092526134879181019061483e565b60015b6134965761311961485b565b6001600160e01b0319811663f23a6e6160e01b146127e55760405162461bcd60e51b8152600401610a6490614900565b600054610100900460ff16806134df575060005460ff16155b6134fb5760405162461bcd60e51b8152600401610a64906143e2565b600054610100900460ff16158015612969576000805461ffff19166101011790558015610dd6576000805461ff001916905550565b600054610100900460ff1680613549575060005460ff16155b6135655760405162461bcd60e51b8152600401610a64906143e2565b600054610100900460ff16158015613587576000805461ffff19166101011790555b61359082613726565b6117ec5b600054610100900460ff16806135ad575060005460ff16155b6135c95760405162461bcd60e51b8152600401610a64906143e2565b600054610100900460ff161580156135eb576000805461ffff19166101011790555b6129596134c6565b6001600160a01b03851661367e5760005b835181101561367c57600061363e858381518110613624576136246140da565b6020026020010151600090815260ca602052604090205490565b9050600160cb60008381526020019081526020016000206000828254613664919061428a565b90915550613675915082905061419e565b9050613604565b505b6001600160a01b038416611d9d5760005b83518110156127e55760006136af858381518110613624576136246140da565b9050600160cb600083815260200190815260200160002060008282546136d59190614273565b909155506136e6915082905061419e565b905061368f565b606083156136fc575081610b99565b82511561370c5782518084602001fd5b8160405162461bcd60e51b8152600401610a649190613b2e565b600054610100900460ff168061373f575060005460ff16155b61375b5760405162461bcd60e51b8152600401610a64906143e2565b600054610100900460ff1615801561377d576000805461ffff19166101011790555b6137856134c6565b61378d6134c6565b6117ec82600054610100900460ff16806137aa575060005460ff16155b6137c65760405162461bcd60e51b8152600401610a64906143e2565b600054610100900460ff161580156137e8576000805461ffff19166101011790555b6117ec826118cd565b8280546137fd90614202565b90600052602060002090601f01602090048101928261381f5760008555613865565b82601f1061383857805160ff1916838001178555613865565b82800160010185558215613865579182015b8281111561386557825182559160200191906001019061384a565b50613871929150613926565b5090565b82805461388190614202565b90600052602060002090601f0160209004810192826138a35760008555613865565b82601f106138b45780548555613865565b8280016001018555821561386557600052602060002091601f016020900482015b828111156138655782548255916001019190600101906138d5565b5080546138fc90614202565b6000825580601f1061390c575050565b601f016020900490600052602060002090810190610dd691905b5b808211156138715760008155600101613927565b6001600160a01b0381168114610dd657600080fd5b6000806040838503121561396357600080fd5b823561396e8161393b565b946020939093013593505050565b6001600160e01b031981168114610dd657600080fd5b6000602082840312156139a457600080fd5b8135610b998161397c565b634e487b7160e01b600052604160045260246000fd5b601f8201601f191681016001600160401b03811182821017156139ea576139ea6139af565b6040525050565b600082601f830112613a0257600080fd5b81356001600160401b03811115613a1b57613a1b6139af565b604051613a32601f8301601f1916602001826139c5565b818152846020838601011115613a4757600080fd5b816020850160208301376000918101602001919091529392505050565b600060208284031215613a7657600080fd5b81356001600160401b03811115613a8c57600080fd5b613a98848285016139f1565b949350505050565b600060208284031215613ab257600080fd5b8135610b998161393b565b600060208284031215613acf57600080fd5b5035919050565b60005b83811015613af1578181015183820152602001613ad9565b83811115611b375750506000910152565b60008151808452613b1a816020860160208601613ad6565b601f01601f19169290920160200192915050565b602081526000610b996020830184613b02565b600080600060608486031215613b5657600080fd5b8335613b618161393b565b95602085013595506040909401359392505050565b600081518084526020808501945080840160005b83811015613ba657815187529582019590820190600101613b8a565b509495945050505050565b602081526000610b996020830184613b76565b600080600060608486031215613bd957600080fd5b83356001600160401b03811115613bef57600080fd5b613bfb868287016139f1565b935050602084013591506040840135613c138161393b565b809150509250925092565b60006001600160401b03821115613c3757613c376139af565b5060051b60200190565b600082601f830112613c5257600080fd5b81356020613c5f82613c1e565b604051613c6c82826139c5565b83815260059390931b8501820192828101915086841115613c8c57600080fd5b8286015b84811015613ca75780358352918301918301613c90565b509695505050505050565b600080600080600060a08688031215613cca57600080fd5b8535613cd58161393b565b94506020860135613ce58161393b565b935060408601356001600160401b0380821115613d0157600080fd5b613d0d89838a01613c41565b94506060880135915080821115613d2357600080fd5b613d2f89838a01613c41565b93506080880135915080821115613d4557600080fd5b50613d52888289016139f1565b9150509295509295909350565b60008060408385031215613d7257600080fd5b823591506020830135613d848161393b565b809150509250929050565b60008060408385031215613da257600080fd5b82356001600160401b0380821115613db957600080fd5b818501915085601f830112613dcd57600080fd5b81356020613dda82613c1e565b604051613de782826139c5565b83815260059390931b8501820192828101915089841115613e0757600080fd5b948201945b83861015613e2e578535613e1f8161393b565b82529482019490820190613e0c565b96505086013592505080821115613e4457600080fd5b50613e5185828601613c41565b9150509250929050565b60008060408385031215613e6e57600080fd5b8235613e798161393b565b915060208301356001600160401b03811115613e9457600080fd5b613e51858286016139f1565b600080600060608486031215613eb557600080fd5b8335613ec08161393b565b925060208401356001600160401b0380821115613edc57600080fd5b613ee887838801613c41565b93506040860135915080821115613efe57600080fd5b50613f0b86828701613c41565b9150509250925092565b60008060408385031215613f2857600080fd5b8235915060208301356001600160401b03811115613e9457600080fd5b6000604082016040835280855180835260608501915060608160051b8601019250602080880160005b83811015613f9c57605f19888703018552613f8a868351613b02565b95509382019390820190600101613f6e565b505085840381870152505050610b3e8185613b76565b60008060408385031215613fc557600080fd5b82356001600160401b03811115613fdb57600080fd5b613fe7858286016139f1565b95602094909401359450505050565b8215158152604060208201526000613a986040830184613b76565b6000806040838503121561402457600080fd5b823561402f8161393b565b915060208301358015158114613d8457600080fd5b6000806040838503121561405757600080fd5b82356140628161393b565b91506020830135613d848161393b565b600080600080600060a0868803121561408a57600080fd5b85356140958161393b565b945060208601356140a58161393b565b9350604086013592506060860135915060808601356001600160401b038111156140ce57600080fd5b613d52888289016139f1565b634e487b7160e01b600052603260045260246000fd5b6020808252602c908201527f46756e6374696f6e206d7573742062652063616c6c6564207468726f7567682060408201526b19195b1959d85d1958d85b1b60a21b606082015260800190565b6020808252602c908201527f46756e6374696f6e206d7573742062652063616c6c6564207468726f7567682060408201526b6163746976652070726f787960a01b606082015260800190565b634e487b7160e01b600052601160045260246000fd5b60006000198214156141b2576141b2614188565b5060010190565b60208082526029908201527f455243313135353a2063616c6c6572206973206e6f74206f776e6572206e6f7260408201526808185c1c1c9bdd995960ba1b606082015260800190565b600181811c9082168061421657607f821691505b6020821081141561423757634e487b7160e01b600052602260045260246000fd5b50919050565b60008161424c5761424c614188565b506000190190565b600081600019048311821515161561426e5761426e614188565b500290565b60008282101561428557614285614188565b500390565b6000821982111561429d5761429d614188565b500190565b600181815b808511156142dd5781600019048211156142c3576142c3614188565b808516156142d057918102915b93841c93908002906142a7565b509250929050565b6000826142f457506001610a92565b8161430157506000610a92565b816001811461431757600281146143215761433d565b6001915050610a92565b60ff84111561433257614332614188565b50506001821b610a92565b5060208310610133831016604e8410600b8410161715614360575081810a610a92565b61436a83836142a2565b806000190482111561437e5761437e614188565b029392505050565b6000610b9983836142e5565b600083516143a4818460208801613ad6565b602f60f81b9083018181526218da5960ea1b6001820152600481019190915283516143d6816005840160208801613ad6565b01600501949350505050565b6020808252602e908201527f496e697469616c697a61626c653a20636f6e747261637420697320616c72656160408201526d191e481a5b9a5d1a585b1a5e995960921b606082015260800190565b7f416363657373436f6e74726f6c3a206163636f756e7420000000000000000000815260008351614468816017850160208801613ad6565b7001034b99036b4b9b9b4b733903937b6329607d1b6017918401918201528351614499816028840160208801613ad6565b01602801949350505050565b600084516144b7818460208901613ad6565b8083019050602f60f81b80825285516144d7816001850160208a01613ad6565b600192019182015283516144f2816002840160208801613ad6565b0160020195945050505050565b60208082526028908201527f455243313135353a2069647320616e6420616d6f756e7473206c656e677468206040820152670dad2e6dac2e8c6d60c31b606082015260800190565b60208082526025908201527f455243313135353a207472616e7366657220746f20746865207a65726f206164604082015264647265737360d81b606082015260800190565b6020808252602a908201527f455243313135353a20696e73756666696369656e742062616c616e636520666f60408201526939103a3930b739b332b960b11b606082015260800190565b6040815260006145e96040830185613b76565b8281036020840152610b3e8185613b76565b60208082526023908201527f455243313135353a206275726e2066726f6d20746865207a65726f206164647260408201526265737360e81b606082015260800190565b60208082526024908201527f455243313135353a206275726e20616d6f756e7420657863656564732062616c604082015263616e636560e01b606082015260800190565b60008251614694818460208701613ad6565b9190910192915050565b600080835481600182811c9150808316806146ba57607f831692505b60208084108214156146da57634e487b7160e01b86526022600452602486fd5b8180156146ee57600181146146ff5761472c565b60ff1986168952848901965061472c565b60008a81526020902060005b868110156147245781548b82015290850190830161470b565b505084890196505b509498975050505050505050565b634e487b7160e01b600052603160045260246000fd5b60008261476d57634e487b7160e01b600052601260045260246000fd5b500490565b600060ff821660ff84168060ff0382111561478f5761478f614188565b019392505050565b600083516147a9818460208801613ad6565b7f726172697479206f6e6c7920746f74616c537570706c790000000000000000009201918252506017810191909152603701919050565b6001600160a01b0386811682528516602082015260a06040820181905260009061480c90830186613b76565b828103606084015261481e8186613b76565b905082810360808401526148328185613b02565b98975050505050505050565b60006020828403121561485057600080fd5b8151610b998161397c565b600060033d11156148745760046000803e5060005160e01c5b90565b600060443d10156148855790565b6040516003193d81016004833e81513d6001600160401b0381602484011181841117156148b457505050505090565b82850191508151818111156148cc5750505050505090565b843d87010160208285010111156148e65750505050505090565b6148f5602082860101876139c5565b509095945050505050565b60208082526028908201527f455243313135353a204552433131353552656365697665722072656a656374656040820152676420746f6b656e7360c01b606082015260800190565b6001600160a01b03868116825285166020820152604081018490526060810183905260a06080820181905260009061498290830184613b02565b97965050505050505056fe416464726573733a206c6f772d6c6576656c2064656c65676174652063616c6c206661696c6564f5eb84615c2a00ecaf817d13794ebd6299c9e01c395bf4018453f13f577f5449a2646970667358221220592783ecc54dd1ed7a70a752856e11188bf33739b5da02fd6ced1fd156bd172564736f6c63430008090033",
  "immutableReferences": {
    "1023": [
      {
        "length": 32,
        "start": 3355
      },
      {
        "length": 32,
        "start": 3419
      },
      {
        "length": 32,
        "start": 3866
      },
      {
        "length": 32,
        "start": 3930
      }
    ]
  },
  "source": "// SPDX-License-Identifier: MIT\npragma solidity 0.8.9;\n\nimport \"@openzeppelin/contracts-upgradeable/token/ERC1155/ERC1155Upgradeable.sol\";\nimport \"@openzeppelin/contracts-upgradeable/access/AccessControlUpgradeable.sol\";\nimport \"@openzeppelin/contracts-upgradeable/token/ERC1155/extensions/ERC1155BurnableUpgradeable.sol\";\nimport \"@openzeppelin/contracts-upgradeable/proxy/utils/Initializable.sol\";\nimport \"@openzeppelin/contracts-upgradeable/proxy/utils/UUPSUpgradeable.sol\";\nimport \"./Meland1155Rarity.sol\";\nimport \"./MelandAccessRoles.sol\";\nimport \"./MelandTier.sol\";\nimport \"./Meland1155StoreItem.sol\";\n\ncontract Meland1155Wearable is\n    Initializable,\n    Meland1155Rarity,\n    MelandAccessRoles,\n    Meland1155StoreItem,\n    UUPSUpgradeable\n{\n    function initialize(string memory uri) public initializer {\n        __UUPSUpgradeable_init();\n        __Meland1155Rarity_init(uri);\n        __MelandAccessRoles_init();\n    }\n\n    function setURI(string memory newuri) public onlyRole(GM_ROLE) {\n        _setURI(newuri);\n    }\n\n    function melandStoreItemURI(string memory symbol)\n        external\n        view\n        returns (string memory)\n    {\n        return\n            string(\n                abi.encodePacked(\n                    ERC1155Upgradeable.uri(0),\n                    \"/\",\n                    \"cid\",\n                    \"/\",\n                    symbol\n                )\n            );\n    }\n\n    function mint(\n        address account,\n        uint256 cid,\n        uint256 amount\n    ) public onlyRole(MINTER_ROLE) returns (uint256[] memory) {\n        return _mintReturnTokenIds(account, cid, amount, \"\");\n    }\n\n    function setRarity(bytes memory _rarity, uint256 mintMax)\n        public\n        onlyRole(GM_ROLE)\n    {\n        _setRarity(_rarity, mintMax);\n    }\n\n    function setCIDRarity(uint256 cid, bytes memory _rarity)\n        public\n        onlyRole(GM_ROLE)\n    {\n        _setCIDRarity(cid, _rarity);\n    }\n\n    function setMelandTier(MelandTier _tierAddress) public onlyRole(GM_ROLE) {\n        _setMelandTier(_tierAddress);\n    }\n\n    function _authorizeUpgrade(address newImplementation)\n        internal\n        override\n        onlyRole(UPGRADER_ROLE)\n    {}\n\n    // The following functions are overrides required by Solidity.\n    function supportsInterface(bytes4 interfaceId)\n        public\n        view\n        override(ERC1155Upgradeable, AccessControlUpgradeable)\n        returns (bool)\n    {\n        return super.supportsInterface(interfaceId);\n    }\n\n    // store item impl ----\n    function setAcceptedToken(IERC20Upgradeable token)\n        external\n        onlyRole(GM_ROLE)\n    {\n        _setAcceptedToken(token);\n    }\n\n    function setStore(NFTStore s) external onlyRole(GM_ROLE) {\n        _setStore(s);\n    }\n\n    function setStoreItem(string memory symbol, uint256 price)\n        external\n        onlyRole(GM_ROLE)\n    {\n        _setStoreItem(symbol, price);\n    }\n\n    function delStoreItem(string memory symbol) external onlyRole(GM_ROLE) {\n        _delStoreItem(symbol);\n    }\n\n    // If return ture, means that the mall will only have the specified id\n    // Else otherwise it will be linear mint\n    // The ids Must ensure that you can mint,\n    // If multi-channel sales or mint, you need to filter out the ids that have been minted,\n    // To prevent errors in the sales process\n    function melandStoreItemsRestrictPurchaseNFTIds(string memory)\n        external\n        pure\n        returns (bool, uint256[] memory)\n    {\n        uint256[] memory ids;\n        return (false, ids);\n    }\n\n    // Store to pay NFT to the selling user by calling this function,\n    // For security reasons, be sure to control the permissions to allow only MelandStore contracts to call\n    // If melandStoreItemsRestrictPurchaseNFTIds return false, the id as zero.\n    function melandStoreItemsMint(\n        string memory symbol,\n        uint256 id,\n        address to\n    ) external override returns(uint256) {\n        super.checkMelandStoreItemsMint(symbol, id, to);\n        uint256 cid = _bytestoUint256(symbol);\n        uint256[] memory ids = mint(to, cid, 1);\n        _dispatchItemInfoUpdate();\n        return ids[0];\n    }\n\n    function test(string memory symbol) public pure returns(uint256) {\n        return _bytestoUint256(symbol);\n    }\n\n    // If return false, Stores will suspend sales.\n    function melandStoreSellStatus(string memory symbol)\n        external\n        view\n        returns (bool)\n    {\n        uint256 cid = _bytestoUint256(symbol);\n        uint256 mintMax = _getMintMaxByCId(cid);\n        uint totol = totalSupplyByCId(cid);\n        return totol < mintMax;\n    }\n\n    // If return true, it means that each person can only buy a certain amount\n    function melandStoreItemsRestrictedPurchase(string memory)\n        external\n        pure\n        returns (bool restricted, uint256 restrictLimit)\n    {\n        restricted = false;\n        restrictLimit = 0;\n    }\n}\n",
  "sourcePath": "/Users/alberthuang/code/icw/meland/contracts/Meland1155Wearable.sol",
  "compiler": {
    "name": "solc",
    "version": "0.8.9+commit.e5eed63a.Emscripten.clang"
  },
  "schemaVersion": "3.4.3",
  "updatedAt": "2021-12-26T23:24:40.726Z",
  "devdoc": {
    "kind": "dev",
    "methods": {
      "balanceOf(address,uint256)": {
        "details": "See {IERC1155-balanceOf}. Requirements: - `account` cannot be the zero address."
      },
      "balanceOfBatch(address[],uint256[])": {
        "details": "See {IERC1155-balanceOfBatch}. Requirements: - `accounts` and `ids` must have the same length."
      },
      "getRoleAdmin(bytes32)": {
        "details": "Returns the admin role that controls `role`. See {grantRole} and {revokeRole}. To change a role's admin, use {_setRoleAdmin}."
      },
      "grantRole(bytes32,address)": {
        "details": "Grants `role` to `account`. If `account` had not been already granted `role`, emits a {RoleGranted} event. Requirements: - the caller must have ``role``'s admin role."
      },
      "hasRole(bytes32,address)": {
        "details": "Returns `true` if `account` has been granted `role`."
      },
      "renounceRole(bytes32,address)": {
        "details": "Revokes `role` from the calling account. Roles are often managed via {grantRole} and {revokeRole}: this function's purpose is to provide a mechanism for accounts to lose their privileges if they are compromised (such as when a trusted device is misplaced). If the calling account had been revoked `role`, emits a {RoleRevoked} event. Requirements: - the caller must be `account`."
      },
      "revokeRole(bytes32,address)": {
        "details": "Revokes `role` from `account`. If `account` had been granted `role`, emits a {RoleRevoked} event. Requirements: - the caller must have ``role``'s admin role."
      },
      "safeBatchTransferFrom(address,address,uint256[],uint256[],bytes)": {
        "details": "See {IERC1155-safeBatchTransferFrom}."
      },
      "safeTransferFrom(address,address,uint256,uint256,bytes)": {
        "details": "See {IERC1155-safeTransferFrom}."
      },
      "setApprovalForAll(address,bool)": {
        "details": "See {IERC1155-setApprovalForAll}."
      },
      "upgradeTo(address)": {
        "details": "Upgrade the implementation of the proxy to `newImplementation`. Calls {_authorizeUpgrade}. Emits an {Upgraded} event."
      },
      "upgradeToAndCall(address,bytes)": {
        "details": "Upgrade the implementation of the proxy to `newImplementation`, and subsequently execute the function call encoded in `data`. Calls {_authorizeUpgrade}. Emits an {Upgraded} event."
      }
    },
    "version": 1
  },
  "userdoc": {
    "kind": "user",
    "methods": {},
    "version": 1
  }
}