{
  "contractName": "Meland1155LandFuture",
  "abi": [
    {
      "anonymous": false,
      "inputs": [
        {
          "indexed": false,
          "internalType": "address",
          "name": "previousAdmin",
          "type": "address"
        },
        {
          "indexed": false,
          "internalType": "address",
          "name": "newAdmin",
          "type": "address"
        }
      ],
      "name": "AdminChanged",
      "type": "event"
    },
    {
      "anonymous": false,
      "inputs": [
        {
          "indexed": true,
          "internalType": "address",
          "name": "account",
          "type": "address"
        },
        {
          "indexed": true,
          "internalType": "address",
          "name": "operator",
          "type": "address"
        },
        {
          "indexed": false,
          "internalType": "bool",
          "name": "approved",
          "type": "bool"
        }
      ],
      "name": "ApprovalForAll",
      "type": "event"
    },
    {
      "anonymous": false,
      "inputs": [
        {
          "indexed": true,
          "internalType": "address",
          "name": "beacon",
          "type": "address"
        }
      ],
      "name": "BeaconUpgraded",
      "type": "event"
    },
    {
      "anonymous": false,
      "inputs": [
        {
          "indexed": false,
          "internalType": "bool",
          "name": "_freezeEnabled",
          "type": "bool"
        }
      ],
      "name": "FreezeEnabledUpdate",
      "type": "event"
    },
    {
      "anonymous": false,
      "inputs": [
        {
          "indexed": true,
          "internalType": "address",
          "name": "_address",
          "type": "address"
        },
        {
          "indexed": false,
          "internalType": "bool",
          "name": "_bool",
          "type": "bool"
        }
      ],
      "name": "FreezeWhiteListUpdate",
      "type": "event"
    },
    {
      "anonymous": false,
      "inputs": [
        {
          "indexed": true,
          "internalType": "bytes32",
          "name": "role",
          "type": "bytes32"
        },
        {
          "indexed": true,
          "internalType": "bytes32",
          "name": "previousAdminRole",
          "type": "bytes32"
        },
        {
          "indexed": true,
          "internalType": "bytes32",
          "name": "newAdminRole",
          "type": "bytes32"
        }
      ],
      "name": "RoleAdminChanged",
      "type": "event"
    },
    {
      "anonymous": false,
      "inputs": [
        {
          "indexed": true,
          "internalType": "bytes32",
          "name": "role",
          "type": "bytes32"
        },
        {
          "indexed": true,
          "internalType": "address",
          "name": "account",
          "type": "address"
        },
        {
          "indexed": true,
          "internalType": "address",
          "name": "sender",
          "type": "address"
        }
      ],
      "name": "RoleGranted",
      "type": "event"
    },
    {
      "anonymous": false,
      "inputs": [
        {
          "indexed": true,
          "internalType": "bytes32",
          "name": "role",
          "type": "bytes32"
        },
        {
          "indexed": true,
          "internalType": "address",
          "name": "account",
          "type": "address"
        },
        {
          "indexed": true,
          "internalType": "address",
          "name": "sender",
          "type": "address"
        }
      ],
      "name": "RoleRevoked",
      "type": "event"
    },
    {
      "anonymous": false,
      "inputs": [
        {
          "indexed": true,
          "internalType": "address",
          "name": "operator",
          "type": "address"
        },
        {
          "indexed": true,
          "internalType": "address",
          "name": "from",
          "type": "address"
        },
        {
          "indexed": true,
          "internalType": "address",
          "name": "to",
          "type": "address"
        },
        {
          "indexed": false,
          "internalType": "uint256[]",
          "name": "ids",
          "type": "uint256[]"
        },
        {
          "indexed": false,
          "internalType": "uint256[]",
          "name": "values",
          "type": "uint256[]"
        }
      ],
      "name": "TransferBatch",
      "type": "event"
    },
    {
      "anonymous": false,
      "inputs": [
        {
          "indexed": true,
          "internalType": "address",
          "name": "operator",
          "type": "address"
        },
        {
          "indexed": true,
          "internalType": "address",
          "name": "from",
          "type": "address"
        },
        {
          "indexed": true,
          "internalType": "address",
          "name": "to",
          "type": "address"
        },
        {
          "indexed": false,
          "internalType": "uint256",
          "name": "id",
          "type": "uint256"
        },
        {
          "indexed": false,
          "internalType": "uint256",
          "name": "value",
          "type": "uint256"
        }
      ],
      "name": "TransferSingle",
      "type": "event"
    },
    {
      "anonymous": false,
      "inputs": [
        {
          "indexed": false,
          "internalType": "string",
          "name": "value",
          "type": "string"
        },
        {
          "indexed": true,
          "internalType": "uint256",
          "name": "id",
          "type": "uint256"
        }
      ],
      "name": "URI",
      "type": "event"
    },
    {
      "anonymous": false,
      "inputs": [
        {
          "indexed": true,
          "internalType": "address",
          "name": "implementation",
          "type": "address"
        }
      ],
      "name": "Upgraded",
      "type": "event"
    },
    {
      "inputs": [],
      "name": "DEFAULT_ADMIN_ROLE",
      "outputs": [
        {
          "internalType": "bytes32",
          "name": "",
          "type": "bytes32"
        }
      ],
      "stateMutability": "view",
      "type": "function"
    },
    {
      "inputs": [],
      "name": "GM_ROLE",
      "outputs": [
        {
          "internalType": "bytes32",
          "name": "",
          "type": "bytes32"
        }
      ],
      "stateMutability": "view",
      "type": "function"
    },
    {
      "inputs": [],
      "name": "MINTER_ROLE",
      "outputs": [
        {
          "internalType": "bytes32",
          "name": "",
          "type": "bytes32"
        }
      ],
      "stateMutability": "view",
      "type": "function"
    },
    {
      "inputs": [],
      "name": "UPGRADER_ROLE",
      "outputs": [
        {
          "internalType": "bytes32",
          "name": "",
          "type": "bytes32"
        }
      ],
      "stateMutability": "view",
      "type": "function"
    },
    {
      "inputs": [
        {
          "internalType": "string",
          "name": "",
          "type": "string"
        }
      ],
      "name": "acceptedToken",
      "outputs": [
        {
          "internalType": "contract IERC20Upgradeable",
          "name": "",
          "type": "address"
        }
      ],
      "stateMutability": "view",
      "type": "function"
    },
    {
      "inputs": [
        {
          "internalType": "address",
          "name": "account",
          "type": "address"
        },
        {
          "internalType": "uint256",
          "name": "id",
          "type": "uint256"
        }
      ],
      "name": "balanceOf",
      "outputs": [
        {
          "internalType": "uint256",
          "name": "",
          "type": "uint256"
        }
      ],
      "stateMutability": "view",
      "type": "function"
    },
    {
      "inputs": [
        {
          "internalType": "address[]",
          "name": "accounts",
          "type": "address[]"
        },
        {
          "internalType": "uint256[]",
          "name": "ids",
          "type": "uint256[]"
        }
      ],
      "name": "balanceOfBatch",
      "outputs": [
        {
          "internalType": "uint256[]",
          "name": "",
          "type": "uint256[]"
        }
      ],
      "stateMutability": "view",
      "type": "function"
    },
    {
      "inputs": [
        {
          "internalType": "address",
          "name": "account",
          "type": "address"
        },
        {
          "internalType": "uint256",
          "name": "id",
          "type": "uint256"
        },
        {
          "internalType": "uint256",
          "name": "value",
          "type": "uint256"
        }
      ],
      "name": "burn",
      "outputs": [],
      "stateMutability": "nonpayable",
      "type": "function"
    },
    {
      "inputs": [
        {
          "internalType": "address",
          "name": "account",
          "type": "address"
        },
        {
          "internalType": "uint256[]",
          "name": "ids",
          "type": "uint256[]"
        },
        {
          "internalType": "uint256[]",
          "name": "values",
          "type": "uint256[]"
        }
      ],
      "name": "burnBatch",
      "outputs": [],
      "stateMutability": "nonpayable",
      "type": "function"
    },
    {
      "inputs": [
        {
          "internalType": "address",
          "name": "",
          "type": "address"
        }
      ],
      "name": "canBuyListByAddress",
      "outputs": [
        {
          "internalType": "bool",
          "name": "",
          "type": "bool"
        }
      ],
      "stateMutability": "view",
      "type": "function"
    },
    {
      "inputs": [
        {
          "internalType": "uint256",
          "name": "",
          "type": "uint256"
        }
      ],
      "name": "ereezeExpiredAtMapById",
      "outputs": [
        {
          "internalType": "uint256",
          "name": "",
          "type": "uint256"
        }
      ],
      "stateMutability": "view",
      "type": "function"
    },
    {
      "inputs": [
        {
          "internalType": "bytes32",
          "name": "role",
          "type": "bytes32"
        }
      ],
      "name": "getRoleAdmin",
      "outputs": [
        {
          "internalType": "bytes32",
          "name": "",
          "type": "bytes32"
        }
      ],
      "stateMutability": "view",
      "type": "function"
    },
    {
      "inputs": [
        {
          "internalType": "bytes32",
          "name": "role",
          "type": "bytes32"
        },
        {
          "internalType": "address",
          "name": "account",
          "type": "address"
        }
      ],
      "name": "grantRole",
      "outputs": [],
      "stateMutability": "nonpayable",
      "type": "function"
    },
    {
      "inputs": [
        {
          "internalType": "bytes32",
          "name": "role",
          "type": "bytes32"
        },
        {
          "internalType": "address",
          "name": "account",
          "type": "address"
        }
      ],
      "name": "hasRole",
      "outputs": [
        {
          "internalType": "bool",
          "name": "",
          "type": "bool"
        }
      ],
      "stateMutability": "view",
      "type": "function"
    },
    {
      "inputs": [
        {
          "internalType": "uint256",
          "name": "",
          "type": "uint256"
        }
      ],
      "name": "landtypeById",
      "outputs": [
        {
          "internalType": "string",
          "name": "",
          "type": "string"
        }
      ],
      "stateMutability": "view",
      "type": "function"
    },
    {
      "inputs": [],
      "name": "melandStoreItems",
      "outputs": [
        {
          "internalType": "string[]",
          "name": "",
          "type": "string[]"
        },
        {
          "internalType": "uint256[]",
          "name": "",
          "type": "uint256[]"
        }
      ],
      "stateMutability": "view",
      "type": "function"
    },
    {
      "inputs": [
        {
          "internalType": "string",
          "name": "",
          "type": "string"
        }
      ],
      "name": "melandStoreReceipt",
      "outputs": [
        {
          "internalType": "address",
          "name": "receipt",
          "type": "address"
        }
      ],
      "stateMutability": "pure",
      "type": "function"
    },
    {
      "inputs": [
        {
          "internalType": "string",
          "name": "_a",
          "type": "string"
        }
      ],
      "name": "parseInt",
      "outputs": [
        {
          "internalType": "uint256",
          "name": "_parsedInt",
          "type": "uint256"
        }
      ],
      "stateMutability": "pure",
      "type": "function"
    },
    {
      "inputs": [
        {
          "internalType": "string",
          "name": "_a",
          "type": "string"
        },
        {
          "internalType": "uint256",
          "name": "_b",
          "type": "uint256"
        }
      ],
      "name": "parseInt",
      "outputs": [
        {
          "internalType": "uint256",
          "name": "_parsedInt",
          "type": "uint256"
        }
      ],
      "stateMutability": "pure",
      "type": "function"
    },
    {
      "inputs": [
        {
          "internalType": "bytes32",
          "name": "role",
          "type": "bytes32"
        },
        {
          "internalType": "address",
          "name": "account",
          "type": "address"
        }
      ],
      "name": "renounceRole",
      "outputs": [],
      "stateMutability": "nonpayable",
      "type": "function"
    },
    {
      "inputs": [
        {
          "internalType": "bytes32",
          "name": "role",
          "type": "bytes32"
        },
        {
          "internalType": "address",
          "name": "account",
          "type": "address"
        }
      ],
      "name": "revokeRole",
      "outputs": [],
      "stateMutability": "nonpayable",
      "type": "function"
    },
    {
      "inputs": [
        {
          "internalType": "address",
          "name": "from",
          "type": "address"
        },
        {
          "internalType": "address",
          "name": "to",
          "type": "address"
        },
        {
          "internalType": "uint256[]",
          "name": "ids",
          "type": "uint256[]"
        },
        {
          "internalType": "uint256[]",
          "name": "amounts",
          "type": "uint256[]"
        },
        {
          "internalType": "bytes",
          "name": "data",
          "type": "bytes"
        }
      ],
      "name": "safeBatchTransferFrom",
      "outputs": [],
      "stateMutability": "nonpayable",
      "type": "function"
    },
    {
      "inputs": [
        {
          "internalType": "string",
          "name": "_a",
          "type": "string"
        }
      ],
      "name": "safeParseInt",
      "outputs": [
        {
          "internalType": "uint256",
          "name": "_parsedInt",
          "type": "uint256"
        }
      ],
      "stateMutability": "pure",
      "type": "function"
    },
    {
      "inputs": [
        {
          "internalType": "string",
          "name": "_a",
          "type": "string"
        },
        {
          "internalType": "uint256",
          "name": "_b",
          "type": "uint256"
        }
      ],
      "name": "safeParseInt",
      "outputs": [
        {
          "internalType": "uint256",
          "name": "_parsedInt",
          "type": "uint256"
        }
      ],
      "stateMutability": "pure",
      "type": "function"
    },
    {
      "inputs": [
        {
          "internalType": "address",
          "name": "from",
          "type": "address"
        },
        {
          "internalType": "address",
          "name": "to",
          "type": "address"
        },
        {
          "internalType": "uint256",
          "name": "id",
          "type": "uint256"
        },
        {
          "internalType": "uint256",
          "name": "amount",
          "type": "uint256"
        },
        {
          "internalType": "bytes",
          "name": "data",
          "type": "bytes"
        }
      ],
      "name": "safeTransferFrom",
      "outputs": [],
      "stateMutability": "nonpayable",
      "type": "function"
    },
    {
      "inputs": [
        {
          "internalType": "address",
          "name": "operator",
          "type": "address"
        },
        {
          "internalType": "bool",
          "name": "approved",
          "type": "bool"
        }
      ],
      "name": "setApprovalForAll",
      "outputs": [],
      "stateMutability": "nonpayable",
      "type": "function"
    },
    {
      "inputs": [
        {
          "internalType": "bytes",
          "name": "",
          "type": "bytes"
        }
      ],
      "name": "supportLandtypes",
      "outputs": [
        {
          "internalType": "bool",
          "name": "",
          "type": "bool"
        }
      ],
      "stateMutability": "view",
      "type": "function"
    },
    {
      "inputs": [
        {
          "internalType": "bytes32",
          "name": "",
          "type": "bytes32"
        }
      ],
      "name": "totalSupplyByLandtype",
      "outputs": [
        {
          "internalType": "uint256",
          "name": "",
          "type": "uint256"
        }
      ],
      "stateMutability": "view",
      "type": "function"
    },
    {
      "inputs": [
        {
          "internalType": "address",
          "name": "newImplementation",
          "type": "address"
        }
      ],
      "name": "upgradeTo",
      "outputs": [],
      "stateMutability": "nonpayable",
      "type": "function"
    },
    {
      "inputs": [
        {
          "internalType": "address",
          "name": "newImplementation",
          "type": "address"
        },
        {
          "internalType": "bytes",
          "name": "data",
          "type": "bytes"
        }
      ],
      "name": "upgradeToAndCall",
      "outputs": [],
      "stateMutability": "payable",
      "type": "function"
    },
    {
      "inputs": [],
      "name": "vipland1x1",
      "outputs": [
        {
          "internalType": "bytes",
          "name": "",
          "type": "bytes"
        }
      ],
      "stateMutability": "view",
      "type": "function"
    },
    {
      "inputs": [],
      "name": "vipland2x2",
      "outputs": [
        {
          "internalType": "bytes",
          "name": "",
          "type": "bytes"
        }
      ],
      "stateMutability": "view",
      "type": "function"
    },
    {
      "inputs": [],
      "name": "vipland4x4",
      "outputs": [
        {
          "internalType": "bytes",
          "name": "",
          "type": "bytes"
        }
      ],
      "stateMutability": "view",
      "type": "function"
    },
    {
      "inputs": [],
      "name": "vipland4x4fixed",
      "outputs": [
        {
          "internalType": "bytes",
          "name": "",
          "type": "bytes"
        }
      ],
      "stateMutability": "view",
      "type": "function"
    },
    {
      "inputs": [
        {
          "internalType": "string",
          "name": "_uri",
          "type": "string"
        }
      ],
      "name": "initialize",
      "outputs": [],
      "stateMutability": "nonpayable",
      "type": "function"
    },
    {
      "inputs": [
        {
          "internalType": "string",
          "name": "newuri",
          "type": "string"
        }
      ],
      "name": "setURI",
      "outputs": [],
      "stateMutability": "nonpayable",
      "type": "function"
    },
    {
      "inputs": [],
      "name": "fixedtype",
      "outputs": [],
      "stateMutability": "nonpayable",
      "type": "function"
    },
    {
      "inputs": [
        {
          "internalType": "uint256",
          "name": "id",
          "type": "uint256"
        }
      ],
      "name": "uri",
      "outputs": [
        {
          "internalType": "string",
          "name": "",
          "type": "string"
        }
      ],
      "stateMutability": "view",
      "type": "function"
    },
    {
      "inputs": [
        {
          "internalType": "address",
          "name": "_address",
          "type": "address"
        },
        {
          "internalType": "bool",
          "name": "_b",
          "type": "bool"
        }
      ],
      "name": "setCanBuyListByAddress",
      "outputs": [],
      "stateMutability": "nonpayable",
      "type": "function"
    },
    {
      "inputs": [
        {
          "internalType": "string",
          "name": "symbol",
          "type": "string"
        }
      ],
      "name": "melandStoreItemURI",
      "outputs": [
        {
          "internalType": "string",
          "name": "",
          "type": "string"
        }
      ],
      "stateMutability": "view",
      "type": "function"
    },
    {
      "inputs": [
        {
          "internalType": "address",
          "name": "_owner",
          "type": "address"
        },
        {
          "internalType": "address",
          "name": "_operator",
          "type": "address"
        }
      ],
      "name": "isApprovedForAll",
      "outputs": [
        {
          "internalType": "bool",
          "name": "isOperator",
          "type": "bool"
        }
      ],
      "stateMutability": "view",
      "type": "function"
    },
    {
      "inputs": [
        {
          "internalType": "address",
          "name": "account",
          "type": "address"
        },
        {
          "internalType": "uint256",
          "name": "amount",
          "type": "uint256"
        },
        {
          "internalType": "bytes",
          "name": "landtype",
          "type": "bytes"
        }
      ],
      "name": "mint",
      "outputs": [],
      "stateMutability": "nonpayable",
      "type": "function"
    },
    {
      "inputs": [
        {
          "internalType": "address",
          "name": "_account",
          "type": "address"
        },
        {
          "internalType": "bool",
          "name": "_bool",
          "type": "bool"
        }
      ],
      "name": "setFreezeWhiteList",
      "outputs": [],
      "stateMutability": "nonpayable",
      "type": "function"
    },
    {
      "inputs": [
        {
          "internalType": "contract MelandTier",
          "name": "_tierAddress",
          "type": "address"
        }
      ],
      "name": "setMelandTier",
      "outputs": [],
      "stateMutability": "nonpayable",
      "type": "function"
    },
    {
      "inputs": [
        {
          "internalType": "bool",
          "name": "_bool",
          "type": "bool"
        }
      ],
      "name": "setFreezeEnabled",
      "outputs": [],
      "stateMutability": "nonpayable",
      "type": "function"
    },
    {
      "inputs": [
        {
          "internalType": "bytes4",
          "name": "interfaceId",
          "type": "bytes4"
        }
      ],
      "name": "supportsInterface",
      "outputs": [
        {
          "internalType": "bool",
          "name": "",
          "type": "bool"
        }
      ],
      "stateMutability": "view",
      "type": "function"
    },
    {
      "inputs": [
        {
          "internalType": "contract IERC20Upgradeable",
          "name": "token",
          "type": "address"
        }
      ],
      "name": "setAcceptedToken",
      "outputs": [],
      "stateMutability": "nonpayable",
      "type": "function"
    },
    {
      "inputs": [
        {
          "internalType": "contract NFTStore",
          "name": "s",
          "type": "address"
        }
      ],
      "name": "setStore",
      "outputs": [],
      "stateMutability": "nonpayable",
      "type": "function"
    },
    {
      "inputs": [
        {
          "internalType": "string",
          "name": "symbol",
          "type": "string"
        },
        {
          "internalType": "uint256",
          "name": "p",
          "type": "uint256"
        }
      ],
      "name": "setStoreItem",
      "outputs": [],
      "stateMutability": "nonpayable",
      "type": "function"
    },
    {
      "inputs": [
        {
          "internalType": "string",
          "name": "symbol",
          "type": "string"
        }
      ],
      "name": "delStoreItem",
      "outputs": [],
      "stateMutability": "nonpayable",
      "type": "function"
    },
    {
      "inputs": [
        {
          "internalType": "string",
          "name": "",
          "type": "string"
        }
      ],
      "name": "melandStoreItemsRestrictPurchaseNFTIds",
      "outputs": [
        {
          "internalType": "bool",
          "name": "",
          "type": "bool"
        },
        {
          "internalType": "uint256[]",
          "name": "",
          "type": "uint256[]"
        }
      ],
      "stateMutability": "pure",
      "type": "function"
    },
    {
      "inputs": [
        {
          "internalType": "string",
          "name": "symbol",
          "type": "string"
        },
        {
          "internalType": "uint256",
          "name": "id",
          "type": "uint256"
        },
        {
          "internalType": "address",
          "name": "to",
          "type": "address"
        }
      ],
      "name": "melandStoreItemsMint",
      "outputs": [
        {
          "internalType": "uint256",
          "name": "",
          "type": "uint256"
        }
      ],
      "stateMutability": "nonpayable",
      "type": "function"
    },
    {
      "inputs": [
        {
          "internalType": "string",
          "name": "",
          "type": "string"
        }
      ],
      "name": "melandStoreSellStatus",
      "outputs": [
        {
          "internalType": "bool",
          "name": "",
          "type": "bool"
        }
      ],
      "stateMutability": "pure",
      "type": "function"
    },
    {
      "inputs": [
        {
          "internalType": "string",
          "name": "",
          "type": "string"
        }
      ],
      "name": "melandStoreItemsRestrictedPurchase",
      "outputs": [
        {
          "internalType": "bool",
          "name": "restricted",
          "type": "bool"
        },
        {
          "internalType": "uint256",
          "name": "restrictLimit",
          "type": "uint256"
        }
      ],
      "stateMutability": "pure",
      "type": "function"
    }
  ],
  "bytecode": "0x60a06040523060805234801561001457600080fd5b50608051614cf661004560003960008181610fca0152818161100a015281816111c901526112090152614cf66000f3fe6080604052600436106103345760003560e01c80636b20c454116101ab578063b74f13a2116100f7578063f242432a11610095578063f62d18881161006f578063f62d188814610abe578063f70e9a4714610ade578063f72c0d8b14610afe578063fcc6dd5714610b3257600080fd5b8063f242432a14610a5e578063f405a58414610a7e578063f5298aca14610a9e57600080fd5b8063d5391393116100d1578063d5391393146109ca578063d547741f146109fe578063e985e9c514610a1e578063ed9be43214610a3e57600080fd5b8063b74f13a214610959578063bdb7b5dd1461098a578063bf4d89b5146109aa57600080fd5b806391d1485411610164578063a217fddf1161013e578063a217fddf146108e4578063a22cb465146108f9578063afd600f314610919578063b0c208bc1461093957600080fd5b806391d148541461087257806394d008ef146108925780639f89e769146108b257600080fd5b80636b20c4541461079957806371d42be5146107b95780637487f528146107d957806383c6c37d146107f957806386e7f544146108195780638b31e62d1461084f57600080fd5b80632eb0fa001161028557806342346c5e1161022357806352121f09116101fd57806352121f09146106c95780635eccb30c146106f7578063664033d514610717578063686d3d1f1461076357600080fd5b806342346c5e146106695780634e1273f4146106895780634f1ef286146106b657600080fd5b806330c7be2c1161025f57806330c7be2c146105cb57806333ac1f01146105ed57806336568abe146106295780633659cfe61461064957600080fd5b80632eb0fa00146105765780632eb2c2d61461058b5780632f2ff15d146105ab57600080fd5b80630e89341c116102f25780631a8c2e80116102cc5780631a8c2e80146104d85780631a98cef2146104f85780631ba43d2b14610525578063248a9ca31461054657600080fd5b80630e89341c146104555780630f380ce21461048257806315a54cf5146104b857600080fd5b8062fdd58e1461033957806301ffc9a71461036c57806302fe53051461039c5780630820c90d146103be578063087cbd40146103f95780630b5a6d8614610419575b600080fd5b34801561034557600080fd5b50610359610354366004613b92565b610b5e565b6040519081526020015b60405180910390f35b34801561037857600080fd5b5061038c610387366004613bd4565b610bfa565b6040519015158152602001610363565b3480156103a857600080fd5b506103bc6103b7366004613ca6565b610c05565b005b3480156103ca57600080fd5b506103e26103d9366004613ca6565b50600090600190565b604080519215158352602083019190915201610363565b34801561040557600080fd5b506103bc610414366004613ce2565b610c2b565b34801561042557600080fd5b5061038c610434366004613ca6565b80516020818301810180516101698252928201919093012091525460ff1681565b34801561046157600080fd5b50610475610470366004613cff565b610c4d565b6040516103639190613d70565b34801561048e57600080fd5b506104756040518060400160405280600a8152602001693b34b83630b732193c1960b11b81525081565b3480156104c457600080fd5b506103bc6104d3366004613d98565b610d28565b3480156104e457600080fd5b506103596104f3366004613dcd565b610d6e565b34801561050457600080fd5b50610359610513366004613cff565b60ff6020526000908152604090205481565b34801561053157600080fd5b5061038c610540366004613ca6565b50600190565b34801561055257600080fd5b50610359610561366004613cff565b60009081526098602052604090206001015490565b34801561058257600080fd5b506103bc610e0c565b34801561059757600080fd5b506103bc6105a6366004613ebb565b610e83565b3480156105b757600080fd5b506103bc6105c6366004613f68565b610f1a565b3480156105d757600080fd5b50610359600080516020614ca183398151915281565b3480156105f957600080fd5b506104756040518060400160405280601081526020016f1d9a5c1b185b990d1e0d0b599a5e195960821b81525081565b34801561063557600080fd5b506103bc610644366004613f68565b610f45565b34801561065557600080fd5b506103bc610664366004613ce2565b610fbf565b34801561067557600080fd5b50610359610684366004613ca6565b611088565b34801561069557600080fd5b506106a96106a4366004613f98565b611095565b604051610363919061409f565b6103bc6106c43660046140b2565b6111be565b3480156106d557600080fd5b506103596106e4366004613cff565b61016b6020526000908152604090205481565b34801561070357600080fd5b50610359610712366004613ca6565b611274565b34801561072357600080fd5b5061074b610732366004613ca6565b5073fced262e4949b7b5c4177b4e0ad8e974cc7493bf90565b6040516001600160a01b039091168152602001610363565b34801561076f57600080fd5b506104756040518060400160405280600a8152602001691d9a5c1b185b990d1e0d60b21b81525081565b3480156107a557600080fd5b506103bc6107b43660046140f7565b611281565b3480156107c557600080fd5b506103bc6107d436600461416c565b6112c4565b3480156107e557600080fd5b506103bc6107f4366004613ce2565b6112e6565b34801561080557600080fd5b506103bc610814366004613d98565b611308565b34801561082557600080fd5b506104756040518060400160405280600a8152602001697669706c616e6431783160b01b81525081565b34801561085b57600080fd5b5061086461132b565b604051610363929190614187565b34801561087e57600080fd5b5061038c61088d366004613f68565b611461565b34801561089e57600080fd5b506103bc6108ad3660046141f4565b61148c565b3480156108be57600080fd5b506108d66108cd366004613ca6565b50600090606090565b604051610363929190614242565b3480156108f057600080fd5b50610359600081565b34801561090557600080fd5b506103bc610914366004613d98565b61153f565b34801561092557600080fd5b50610475610934366004613cff565b61154a565b34801561094557600080fd5b506103bc610954366004613ca6565b6115e5565b34801561096557600080fd5b5061038c610974366004613ce2565b61016c6020526000908152604090205460ff1681565b34801561099657600080fd5b506103bc6109a536600461425d565b611607565b3480156109b657600080fd5b506103596109c536600461425d565b61162a565b3480156109d657600080fd5b506103597f9f2df0fed2c77648de5860a4cc508cd0818c85b8b8a1ab4ceeef8d981c8956a681565b348015610a0a57600080fd5b506103bc610a19366004613f68565b611747565b348015610a2a57600080fd5b5061038c610a393660046142a1565b61176d565b348015610a4a57600080fd5b50610359610a5936600461425d565b611779565b348015610a6a57600080fd5b506103bc610a793660046142cf565b611932565b348015610a8a57600080fd5b50610475610a99366004613ca6565b611977565b348015610aaa57600080fd5b506103bc610ab9366004614337565b6119ab565b348015610aca57600080fd5b506103bc610ad9366004613ca6565b6119ee565b348015610aea57600080fd5b506103bc610af9366004613ce2565b611bd9565b348015610b0a57600080fd5b506103597f189ab7a9244df0848122154315af71fe140f3db0fe014031783b0946b8c9d2e381565b348015610b3e57600080fd5b5061074b610b4d366004613ca6565b50610101546001600160a01b031690565b60006001600160a01b038316610bcf5760405162461bcd60e51b815260206004820152602b60248201527f455243313135353a2062616c616e636520717565727920666f7220746865207a60448201526a65726f206164647265737360a81b60648201526084015b60405180910390fd5b5060008181526065602090815260408083206001600160a01b03861684529091529020545b92915050565b6000610bf482611c11565b600080516020614ca1833981519152610c1e8133611c36565b610c2782611c9a565b5050565b600080516020614ca1833981519152610c448133611c36565b610c2782611cad565b600081815261016a6020526040812080546060929190610c6c9061436c565b80601f0160208091040260200160405190810160405280929190818152602001828054610c989061436c565b8015610ce55780601f10610cba57610100808354040283529160200191610ce5565b820191906000526020600020905b815481529060010190602001808311610cc857829003601f168201915b50505050509050610cf583611cd1565b81610cff85611d65565b604051602001610d11939291906143a7565b604051602081830303815290604052915050919050565b600080516020614ca1833981519152610d418133611c36565b506001600160a01b0391909116600090815261016c60205260409020805460ff1916911515919091179055565b6001600160a01b038116600090815261016c602052604081205460ff16610dcd5760405162461bcd60e51b81526020600482015260136024820152724e6f7420656c696769626c6520746f2062757960681b6044820152606401610bc6565b610dd8848484611e84565b610de761016880546001019055565b610168549250610dfa8284600187611ee8565b610e02611ffa565b50815b9392505050565b600080516020614ca1833981519152610e258133611c36565b60016101696040518060400160405280601081526020016f1d9a5c1b185b990d1e0d0b599a5e195960821b815250604051610e609190614401565b908152604051908190036020019020805491151560ff1990921691909117905550565b6001600160a01b038516331480610e9f5750610e9f853361176d565b610f065760405162461bcd60e51b815260206004820152603260248201527f455243313135353a207472616e736665722063616c6c6572206973206e6f74206044820152711bdddb995c881b9bdc88185c1c1c9bdd995960721b6064820152608401610bc6565b610f13858585858561206d565b5050505050565b600082815260986020526040902060010154610f368133611c36565b610f40838361221a565b505050565b6001600160a01b0381163314610fb55760405162461bcd60e51b815260206004820152602f60248201527f416363657373436f6e74726f6c3a2063616e206f6e6c792072656e6f756e636560448201526e103937b632b9903337b91039b2b63360891b6064820152608401610bc6565b610c2782826122a0565b306001600160a01b037f00000000000000000000000000000000000000000000000000000000000000001614156110085760405162461bcd60e51b8152600401610bc69061441d565b7f00000000000000000000000000000000000000000000000000000000000000006001600160a01b031661103a612307565b6001600160a01b0316146110605760405162461bcd60e51b8152600401610bc690614469565b61106981612335565b6040805160008082526020820190925261108591839190612360565b50565b6000610bf482600061162a565b606081518351146110fa5760405162461bcd60e51b815260206004820152602960248201527f455243313135353a206163636f756e747320616e6420696473206c656e677468604482015268040dad2e6dac2e8c6d60bb1b6064820152608401610bc6565b600083516001600160401b0381111561111557611115613bf1565b60405190808252806020026020018201604052801561113e578160200160208202803683370190505b50905060005b84518110156111b657611189858281518110611162576111626144b5565b602002602001015185838151811061117c5761117c6144b5565b6020026020010151610b5e565b82828151811061119b5761119b6144b5565b60209081029190910101526111af816144e1565b9050611144565b509392505050565b306001600160a01b037f00000000000000000000000000000000000000000000000000000000000000001614156112075760405162461bcd60e51b8152600401610bc69061441d565b7f00000000000000000000000000000000000000000000000000000000000000006001600160a01b0316611239612307565b6001600160a01b03161461125f5760405162461bcd60e51b8152600401610bc690614469565b61126882612335565b610c2782826001612360565b6000610bf4826000611779565b6001600160a01b03831633148061129d575061129d833361176d565b6112b95760405162461bcd60e51b8152600401610bc6906144fc565b610f408383836124a4565b600080516020614ca18339815191526112dd8133611c36565b610c2782612635565b600080516020614ca18339815191526112ff8133611c36565b610c278261267c565b600080516020614ca18339815191526113218133611c36565b610f4083836126a0565b60608061010261010381805480602002602001604051908101604052809291908181526020016000905b828210156114015783829060005260206000200180546113749061436c565b80601f01602080910402602001604051908101604052809291908181526020018280546113a09061436c565b80156113ed5780601f106113c2576101008083540402835291602001916113ed565b820191906000526020600020905b8154815290600101906020018083116113d057829003601f168201915b505050505081526020019060010190611355565b5050505091508080548060200260200160405190810160405280929190818152602001828054801561145257602002820191906000526020600020905b81548152602001906001019080831161143e575b50505050509050915091509091565b60009182526098602090815260408084206001600160a01b0393909316845291905290205460ff1690565b7f9f2df0fed2c77648de5860a4cc508cd0818c85b8b8a1ab4ceeef8d981c8956a66114b78133611c36565b6001600160a01b038416600090815261016c602052604090205460ff166115165760405162461bcd60e51b81526020600482015260136024820152724e6f7420656c696769626c6520746f2062757960681b6044820152606401610bc6565b61152561016880546001019055565b60006115316101685490565b9050610f1385828686611ee8565b610c273383836126ff565b61016a60205260009081526040902080546115649061436c565b80601f01602080910402602001604051908101604052809291908181526020018280546115909061436c565b80156115dd5780601f106115b2576101008083540402835291602001916115dd565b820191906000526020600020905b8154815290600101906020018083116115c057829003601f168201915b505050505081565b600080516020614ca18339815191526115fe8133611c36565b610c27826127e0565b600080516020614ca18339815191526116208133611c36565b610f4083836129ea565b6000828180805b835181101561171f57603084828151811061164e5761164e6144b5565b016020015160f81c1080159061167e57506039848281518110611673576116736144b5565b016020015160f81c11155b156116e55781156116a157856116935761171f565b8561169d81614545565b9650505b6116ac600a8461455c565b925060308482815181106116c2576116c26144b5565b01602001516116d4919060f81c61457b565b6116de9084614592565b925061170d565b8381815181106116f7576116f76144b5565b60209101015160f81c602e141561170d57600191505b80611717816144e1565b915050611631565b50841561173e5761173185600a61468e565b61173b908361455c565b91505b50949350505050565b6000828152609860205260409020600101546117638133611c36565b610f4083836122a0565b6000610e058383612b67565b6000828180805b835181101561171f57603084828151811061179d5761179d6144b5565b016020015160f81c108015906117cd575060398482815181106117c2576117c26144b5565b016020015160f81c11155b156118345781156117f057856117e25761171f565b856117ec81614545565b9650505b6117fb600a8461455c565b92506030848281518110611811576118116144b5565b0160200151611823919060f81c61457b565b61182d9084614592565b9250611920565b838181518110611846576118466144b5565b60209101015160f81c602e14156118c35781156118ba5760405162461bcd60e51b815260206004820152602c60248201527f4d6f7265207468616e206f6e6520646563696d616c20656e636f756e7465726560448201526b6420696e20737472696e672160a01b6064820152608401610bc6565b60019150611920565b60405162461bcd60e51b815260206004820152602c60248201527f4e6f6e2d6e756d6572616c2063686172616374657220656e636f756e7465726560448201526b6420696e20737472696e672160a01b6064820152608401610bc6565b8061192a816144e1565b915050611780565b6001600160a01b03851633148061194e575061194e853361176d565b61196a5760405162461bcd60e51b8152600401610bc6906144fc565b610f138585858585612be2565b60606119836000611cd1565b8260405160200161199592919061469a565b6040516020818303038152906040529050919050565b6001600160a01b0383163314806119c757506119c7833361176d565b6119e35760405162461bcd60e51b8152600401610bc6906144fc565b610f40838383612d03565b600054610100900460ff16611a095760005460ff1615611a0d565b303b155b611a705760405162461bcd60e51b815260206004820152602e60248201527f496e697469616c697a61626c653a20636f6e747261637420697320616c72656160448201526d191e481a5b9a5d1a585b1a5e995960921b6064820152608401610bc6565b600054610100900460ff16158015611a92576000805461ffff19166101011790555b611a9b82612e08565b611aa3612e48565b611aab612e87565b611ab3612eae565b611abb612ee4565b60016101696040518060400160405280600a8152602001697669706c616e6431783160b01b815250604051611af09190614401565b908152602001604051809103902060006101000a81548160ff02191690831515021790555060016101696040518060400160405280600a8152602001693b34b83630b732193c1960b11b815250604051611b4a9190614401565b908152602001604051809103902060006101000a81548160ff02191690831515021790555060016101696040518060400160405280600a8152602001691d9a5c1b185b990d1e0d60b21b815250604051611ba49190614401565b908152604051908190036020019020805491151560ff199092169190911790558015610c27576000805461ff00191690555050565b600080516020614ca1833981519152611bf28133611c36565b609780546001600160a01b0319166001600160a01b0384161790555050565b60006001600160e01b03198216637965db0b60e01b1480610bf45750610bf482612f63565b611c408282611461565b610c2757611c58816001600160a01b03166014612fb3565b611c63836020612fb3565b604051602001611c749291906146df565b60408051601f198184030181529082905262461bcd60e51b8252610bc691600401613d70565b8051610c27906067906020840190613aae565b61010080546001600160a01b0319166001600160a01b038316179055611085611ffa565b606060678054611ce09061436c565b80601f0160208091040260200160405190810160405280929190818152602001828054611d0c9061436c565b8015611d595780601f10611d2e57610100808354040283529160200191611d59565b820191906000526020600020905b815481529060010190602001808311611d3c57829003601f168201915b50505050509050919050565b606081611d895750506040805180820190915260018152600360fc1b602082015290565b8160005b8115611db35780611d9d816144e1565b9150611dac9050600a83614754565b9150611d8d565b6000816001600160401b03811115611dcd57611dcd613bf1565b6040519080825280601f01601f191660200182016040528015611df7576020820181803683370190505b509050815b851561173e57611e0d60018261457b565b90506000611e1c600a88614754565b611e2790600a61455c565b611e31908861457b565b611e3c906030614776565b905060008160f81b905080848481518110611e5957611e596144b5565b60200101906001600160f81b031916908160001a905350611e7b600a89614754565b97505050611dfc565b610100546001600160a01b0316336001600160a01b031614610f405760405162461bcd60e51b815260206004820152601f60248201527f416c6c6f77206f6e6c79204d656c616e642e6169206d616c6c2063616c6c73006044820152606401610bc6565b6001600160a01b038416611f485760405162461bcd60e51b815260206004820152602160248201527f455243313135353a206d696e7420746f20746865207a65726f206164647265736044820152607360f81b6064820152608401610bc6565b33611f6881600087611f598861314e565b611f628861314e565b87613199565b60008481526065602090815260408083206001600160a01b038916845290915281208054859290611f9a908490614592565b909155505060408051858152602081018590526001600160a01b0380881692600092918516917fc3d58168c5ae7397731d063d5bbf3d657854427343f4c083240f7aacaa2d0f62910160405180910390a4610f1381600087878787613547565b610100546001600160a01b03161561206b576101005460405163fa21a11d60e01b81523060048201526001600160a01b039091169063fa21a11d90602401600060405180830381600087803b15801561205257600080fd5b505af1158015612066573d6000803e3d6000fd5b505050505b565b815183511461208e5760405162461bcd60e51b8152600401610bc69061479b565b6001600160a01b0384166120b45760405162461bcd60e51b8152600401610bc6906147e3565b336120c3818787878787613199565b60005b84518110156121ac5760008582815181106120e3576120e36144b5565b602002602001015190506000858381518110612101576121016144b5565b60209081029190910181015160008481526065835260408082206001600160a01b038e1683529093529190912054909150818110156121525760405162461bcd60e51b8152600401610bc690614828565b60008381526065602090815260408083206001600160a01b038e8116855292528083208585039055908b16825281208054849290612191908490614592565b92505081905550505050806121a5906144e1565b90506120c6565b50846001600160a01b0316866001600160a01b0316826001600160a01b03167f4a39dc06d4c0dbc64b70af90fd698a233a518aa5d07e595d983b8c0526c8f7fb87876040516121fc929190614872565b60405180910390a46122128187878787876136b2565b505050505050565b6122248282611461565b610c275760008281526098602090815260408083206001600160a01b03851684529091529020805460ff1916600117905561225c3390565b6001600160a01b0316816001600160a01b0316837f2f8788117e7eff1d82e926ec794901d17c78024a50270940304540a733656f0d60405160405180910390a45050565b6122aa8282611461565b15610c275760008281526098602090815260408083206001600160a01b0385168085529252808320805460ff1916905551339285917ff6391f5c32d9c69d2a47ea670b442974b53935d1edc7fd64eb21e047a839171b9190a45050565b7f360894a13ba1a3210667c828492db98dca3e2076cc3735a920a3ca505d382bbc546001600160a01b031690565b7f189ab7a9244df0848122154315af71fe140f3db0fe014031783b0946b8c9d2e3610c278133611c36565b600061236a612307565b90506123758461377c565b6000835111806123825750815b15612393576123918484613821565b505b7f4910fdfa16fed3260ed0e7147f7cc6da11a60208b5b9406d12a635614ffd9143805460ff16610f1357805460ff191660011781556040516001600160a01b038316602482015261241290869060440160408051601f198184030181529190526020810180516001600160e01b0316631b2ce7f360e11b179052613821565b50805460ff19168155612423612307565b6001600160a01b0316826001600160a01b03161461249b5760405162461bcd60e51b815260206004820152602f60248201527f45524331393637557067726164653a207570677261646520627265616b73206660448201526e75727468657220757067726164657360881b6064820152608401610bc6565b610f138561390c565b6001600160a01b0383166124ca5760405162461bcd60e51b8152600401610bc690614897565b80518251146124eb5760405162461bcd60e51b8152600401610bc69061479b565b600033905061250e81856000868660405180602001604052806000815250613199565b60005b83518110156125d657600084828151811061252e5761252e6144b5565b60200260200101519050600084838151811061254c5761254c6144b5565b60209081029190910181015160008481526065835260408082206001600160a01b038c16835290935291909120549091508181101561259d5760405162461bcd60e51b8152600401610bc6906148da565b60009283526065602090815260408085206001600160a01b038b16865290915290922091039055806125ce816144e1565b915050612511565b5060006001600160a01b0316846001600160a01b0316826001600160a01b03167f4a39dc06d4c0dbc64b70af90fd698a233a518aa5d07e595d983b8c0526c8f7fb8686604051612627929190614872565b60405180910390a450505050565b60fc805460ff19168215159081179091556040519081527ffe201e4b4f6868843d95c43911ae6440969ce8f267814256f138983f77b444399060200160405180910390a150565b61010180546001600160a01b0319166001600160a01b038316179055611085611ffa565b6001600160a01b038216600081815260fe6020908152604091829020805460ff191685151590811790915591519182527f8b0795ef2ee415d4d22faae6db2f220e804a2ece30b9ef73c9135823d5326e4a910160405180910390a25050565b816001600160a01b0316836001600160a01b031614156127735760405162461bcd60e51b815260206004820152602960248201527f455243313135353a2073657474696e6720617070726f76616c20737461747573604482015268103337b91039b2b63360b91b6064820152608401610bc6565b6001600160a01b03838116600081815260666020908152604080832094871680845294825291829020805460ff191686151590811790915591519182527f17307eab39ab6107e8899845ad3d59bd9653f200f220920489ca2b5937696c31910160405180910390a3505050565b6000805b61010254811015612846578280519060200120610102828154811061280b5761280b6144b5565b90600052602060002001604051612822919061491e565b60405180910390201415612834578091505b8061283e816144e1565b9150506127e4565b5061010280546000919061285c9060019061457b565b8154811061286c5761286c6144b5565b9060005260206000200180546128819061436c565b80601f01602080910402602001604051908101604052809291908181526020018280546128ad9061436c565b80156128fa5780601f106128cf576101008083540402835291602001916128fa565b820191906000526020600020905b8154815290600101906020018083116128dd57829003601f168201915b505050505090506000610103600161010280549050612919919061457b565b81548110612929576129296144b5565b9060005260206000200154905081610102848154811061294b5761294b6144b5565b906000526020600020019080519060200190612968929190613aae565b5061010280548061297b5761297b6149ba565b6001900381819060005260206000200160006129979190613b32565b90558061010384815481106129ae576129ae6144b5565b6000918252602090912001556101038054806129cc576129cc6149ba565b60019003818190600052602060002001600090559055612066611ffa565b6000805b61010254811015612a50576101028181548110612a0d57612a0d6144b5565b90600052602060002001604051612a24919061491e565b604051809103902084805190602001201415612a3e578091505b80612a48816144e1565b9150506129ee565b508015612a7d57816101038281548110612a6c57612a6c6144b5565b600091825260209091200155612b5f565b6101025415801590612ac857508280519060200120610102600081548110612aa757612aa76144b5565b90600052602060002001604051612abe919061491e565b6040518091039020145b15612ae35781610103600081548110612a6c57612a6c6144b5565b61010280546001810182556000919091528351612b27917f93bdaa6a4190909b7c3fbe8d42169ffe1cab19f51dfc8db24c71abf849eced4a01906020860190613aae565b5061010380546001810182556000919091527f02c297ab74aad0aede3a1895c857b1f2c71e6a203feb727bec95ac752998cb78018290555b610f40611ffa565b60006001600160a01b03821673207fa8df3a17d96ca7ea4f2893fcdcb78a3041011415612b9657506001610bf4565b6097546001600160a01b0383811691161415612bb457506001610bf4565b6001600160a01b0380841660009081526066602090815260408083209386168352929052205460ff16610e05565b6001600160a01b038416612c085760405162461bcd60e51b8152600401610bc6906147e3565b33612c18818787611f598861314e565b60008481526065602090815260408083206001600160a01b038a16845290915290205483811015612c5b5760405162461bcd60e51b8152600401610bc690614828565b60008581526065602090815260408083206001600160a01b038b8116855292528083208785039055908816825281208054869290612c9a908490614592565b909155505060408051868152602081018690526001600160a01b03808916928a821692918616917fc3d58168c5ae7397731d063d5bbf3d657854427343f4c083240f7aacaa2d0f62910160405180910390a4612cfa828888888888613547565b50505050505050565b6001600160a01b038316612d295760405162461bcd60e51b8152600401610bc690614897565b33612d5881856000612d3a8761314e565b612d438761314e565b60405180602001604052806000815250613199565b60008381526065602090815260408083206001600160a01b038816845290915290205482811015612d9b5760405162461bcd60e51b8152600401610bc6906148da565b60008481526065602090815260408083206001600160a01b03898116808652918452828520888703905582518981529384018890529092908616917fc3d58168c5ae7397731d063d5bbf3d657854427343f4c083240f7aacaa2d0f62910160405180910390a45050505050565b600054610100900460ff16612e2f5760405162461bcd60e51b8152600401610bc6906149d0565b612e3761394c565b612e3f61394c565b61108581613973565b600054610100900460ff16612e6f5760405162461bcd60e51b8152600401610bc6906149d0565b612e7761394c565b612e7f61394c565b61206b61394c565b600054610100900460ff16612e775760405162461bcd60e51b8152600401610bc6906149d0565b60fc805460ff1916600190811790915562093a8060fd5561206b9073714df076992f95e452a345cd8289882cec6ab82f906126a0565b612eec612e48565b612ef760003361221a565b612f0f600080516020614ca18339815191523361221a565b612f397f9f2df0fed2c77648de5860a4cc508cd0818c85b8b8a1ab4ceeef8d981c8956a63361221a565b61206b7f189ab7a9244df0848122154315af71fe140f3db0fe014031783b0946b8c9d2e33361221a565b60006001600160e01b03198216636cdb3d1360e11b1480612f9457506001600160e01b031982166303a24d0760e21b145b80610bf457506301ffc9a760e01b6001600160e01b0319831614610bf4565b60606000612fc283600261455c565b612fcd906002614592565b6001600160401b03811115612fe457612fe4613bf1565b6040519080825280601f01601f19166020018201604052801561300e576020820181803683370190505b509050600360fc1b81600081518110613029576130296144b5565b60200101906001600160f81b031916908160001a905350600f60fb1b81600181518110613058576130586144b5565b60200101906001600160f81b031916908160001a905350600061307c84600261455c565b613087906001614592565b90505b60018111156130ff576f181899199a1a9b1b9c1cb0b131b232b360811b85600f16601081106130bb576130bb6144b5565b1a60f81b8282815181106130d1576130d16144b5565b60200101906001600160f81b031916908160001a90535060049490941c936130f881614545565b905061308a565b508315610e055760405162461bcd60e51b815260206004820181905260248201527f537472696e67733a20686578206c656e67746820696e73756666696369656e746044820152606401610bc6565b60408051600180825281830190925260609160009190602080830190803683370190505090508281600081518110613188576131886144b5565b602090810291909101015292915050565b60005b8251811015613246578281815181106131b7576131b76144b5565b60200260200101516001146132345760405162461bcd60e51b815260206004820152603b60248201527f45616368206c616e6420697320756e697175652c20536f20746865726520697360448201527f206e6f207472616e736665722067726561746572207468616e203100000000006064820152608401610bc6565b8061323e816144e1565b91505061319c565b5060005b83518110156133b9576000848281518110613267576132676144b5565b60200260200101519050600061016a600083815260200190815260200160002080546132929061436c565b80601f01602080910402602001604051908101604052809291908181526020018280546132be9061436c565b801561330b5780601f106132e05761010080835404028352916020019161330b565b820191906000526020600020905b8154815290600101906020018083116132ee57829003601f168201915b505050505090507f1cb6cb558a2b0eaf4f7c8fe6b68ffffce2f021379f9fa31ee9cbee72ba079f038180519060200120141561334c5761334c8888846139a3565b6001600160a01b0387166133a457600082815261016a6020526040812061337291613b32565b600161016b600083805190602001208152602001908152602001600020600082825461339e919061457b565b90915550505b505080806133b1906144e1565b91505061324a565b506001600160a01b03851661354257610169816040516133d99190614401565b908152604051602091819003820181205460ff16916133fa91849101614a1b565b604051602081830303815290604052906134275760405162461bcd60e51b8152600401610bc69190613d70565b5060005b835181101561350f5761016a600085838151811061344b5761344b6144b5565b60200260200101518152602001908152602001600020805461346c9061436c565b1590506134bb5760405162461bcd60e51b815260206004820152601d60248201527f4d616b6520737572652065616368206c616e6420697320756e697175650000006044820152606401610bc6565b8161016a60008684815181106134d3576134d36144b5565b6020026020010151815260200190815260200160002090805190602001906134fc929190613aae565b5080613507816144e1565b91505061342b565b50825161016b600083805190602001208152602001908152602001600020600082825461353c9190614592565b90915550505b612212565b6001600160a01b0384163b156122125760405163f23a6e6160e01b81526001600160a01b0385169063f23a6e619061358b9089908990889088908890600401614a4d565b602060405180830381600087803b1580156135a557600080fd5b505af19250505080156135d5575060408051601f3d908101601f191682019092526135d291810190614a92565b60015b613682576135e1614aaf565b806308c379a0141561361b57506135f6614acb565b80613601575061361d565b8060405162461bcd60e51b8152600401610bc69190613d70565b505b60405162461bcd60e51b815260206004820152603460248201527f455243313135353a207472616e7366657220746f206e6f6e20455243313135356044820152732932b1b2b4bb32b91034b6b83632b6b2b73a32b960611b6064820152608401610bc6565b6001600160e01b0319811663f23a6e6160e01b14612cfa5760405162461bcd60e51b8152600401610bc690614b54565b6001600160a01b0384163b156122125760405163bc197c8160e01b81526001600160a01b0385169063bc197c81906136f69089908990889088908890600401614b9c565b602060405180830381600087803b15801561371057600080fd5b505af1925050508015613740575060408051601f3d908101601f1916820190925261373d91810190614a92565b60015b61374c576135e1614aaf565b6001600160e01b0319811663bc197c8160e01b14612cfa5760405162461bcd60e51b8152600401610bc690614b54565b803b6137e05760405162461bcd60e51b815260206004820152602d60248201527f455243313936373a206e657720696d706c656d656e746174696f6e206973206e60448201526c1bdd08184818dbdb9d1c9858dd609a1b6064820152608401610bc6565b7f360894a13ba1a3210667c828492db98dca3e2076cc3735a920a3ca505d382bbc80546001600160a01b0319166001600160a01b0392909216919091179055565b6060823b6138805760405162461bcd60e51b815260206004820152602660248201527f416464726573733a2064656c65676174652063616c6c20746f206e6f6e2d636f6044820152651b9d1c9858dd60d21b6064820152608401610bc6565b600080846001600160a01b03168460405161389b9190614401565b600060405180830381855af49150503d80600081146138d6576040519150601f19603f3d011682016040523d82523d6000602084013e6138db565b606091505b50915091506139038282604051806060016040528060278152602001614c7a60279139613a69565b95945050505050565b6139158161377c565b6040516001600160a01b038216907fbc7cd75a20ee27fd9adebab32041f755214dbc6bffa90cc0225b39da2e5c2d3b90600090a250565b600054610100900460ff1661206b5760405162461bcd60e51b8152600401610bc6906149d0565b600054610100900460ff1661399a5760405162461bcd60e51b8152600401610bc6906149d0565b61108581611c9a565b60fc5460ff166139b257505050565b6001600160a01b0382163b156139c757505050565b6001600160a01b038216600090815260fe602052604090205460ff16156139ed57505050565b600081815260ff602052604090205442811090613a0990611d65565b604051602001613a199190614bfa565b60405160208183030381529060405290613a465760405162461bcd60e51b8152600401610bc69190613d70565b5060fd54613a55904290613aa2565b600091825260ff6020526040909120555050565b60608315613a78575081610e05565b825115613a885782518084602001fd5b8160405162461bcd60e51b8152600401610bc69190613d70565b6000610e058284614592565b828054613aba9061436c565b90600052602060002090601f016020900481019282613adc5760008555613b22565b82601f10613af557805160ff1916838001178555613b22565b82800160010185558215613b22579182015b82811115613b22578251825591602001919060010190613b07565b50613b2e929150613b68565b5090565b508054613b3e9061436c565b6000825580601f10613b4e575050565b601f01602090049060005260206000209081019061108591905b5b80821115613b2e5760008155600101613b69565b6001600160a01b038116811461108557600080fd5b60008060408385031215613ba557600080fd5b8235613bb081613b7d565b946020939093013593505050565b6001600160e01b03198116811461108557600080fd5b600060208284031215613be657600080fd5b8135610e0581613bbe565b634e487b7160e01b600052604160045260246000fd5b601f8201601f191681016001600160401b0381118282101715613c2c57613c2c613bf1565b6040525050565b600082601f830112613c4457600080fd5b81356001600160401b03811115613c5d57613c5d613bf1565b604051613c74601f8301601f191660200182613c07565b818152846020838601011115613c8957600080fd5b816020850160208301376000918101602001919091529392505050565b600060208284031215613cb857600080fd5b81356001600160401b03811115613cce57600080fd5b613cda84828501613c33565b949350505050565b600060208284031215613cf457600080fd5b8135610e0581613b7d565b600060208284031215613d1157600080fd5b5035919050565b60005b83811015613d33578181015183820152602001613d1b565b838111156120665750506000910152565b60008151808452613d5c816020860160208601613d18565b601f01601f19169290920160200192915050565b602081526000610e056020830184613d44565b80358015158114613d9357600080fd5b919050565b60008060408385031215613dab57600080fd5b8235613db681613b7d565b9150613dc460208401613d83565b90509250929050565b600080600060608486031215613de257600080fd5b83356001600160401b03811115613df857600080fd5b613e0486828701613c33565b935050602084013591506040840135613e1c81613b7d565b809150509250925092565b60006001600160401b03821115613e4057613e40613bf1565b5060051b60200190565b600082601f830112613e5b57600080fd5b81356020613e6882613e27565b604051613e758282613c07565b83815260059390931b8501820192828101915086841115613e9557600080fd5b8286015b84811015613eb05780358352918301918301613e99565b509695505050505050565b600080600080600060a08688031215613ed357600080fd5b8535613ede81613b7d565b94506020860135613eee81613b7d565b935060408601356001600160401b0380821115613f0a57600080fd5b613f1689838a01613e4a565b94506060880135915080821115613f2c57600080fd5b613f3889838a01613e4a565b93506080880135915080821115613f4e57600080fd5b50613f5b88828901613c33565b9150509295509295909350565b60008060408385031215613f7b57600080fd5b823591506020830135613f8d81613b7d565b809150509250929050565b60008060408385031215613fab57600080fd5b82356001600160401b0380821115613fc257600080fd5b818501915085601f830112613fd657600080fd5b81356020613fe382613e27565b604051613ff08282613c07565b83815260059390931b850182019282810191508984111561401057600080fd5b948201945b8386101561403757853561402881613b7d565b82529482019490820190614015565b9650508601359250508082111561404d57600080fd5b5061405a85828601613e4a565b9150509250929050565b600081518084526020808501945080840160005b8381101561409457815187529582019590820190600101614078565b509495945050505050565b602081526000610e056020830184614064565b600080604083850312156140c557600080fd5b82356140d081613b7d565b915060208301356001600160401b038111156140eb57600080fd5b61405a85828601613c33565b60008060006060848603121561410c57600080fd5b833561411781613b7d565b925060208401356001600160401b038082111561413357600080fd5b61413f87838801613e4a565b9350604086013591508082111561415557600080fd5b5061416286828701613e4a565b9150509250925092565b60006020828403121561417e57600080fd5b610e0582613d83565b6000604082016040835280855180835260608501915060608160051b8601019250602080880160005b838110156141de57605f198887030185526141cc868351613d44565b955093820193908201906001016141b0565b5050858403818701525050506139038185614064565b60008060006060848603121561420957600080fd5b833561421481613b7d565b92506020840135915060408401356001600160401b0381111561423657600080fd5b61416286828701613c33565b8215158152604060208201526000613cda6040830184614064565b6000806040838503121561427057600080fd5b82356001600160401b0381111561428657600080fd5b61429285828601613c33565b95602094909401359450505050565b600080604083850312156142b457600080fd5b82356142bf81613b7d565b91506020830135613f8d81613b7d565b600080600080600060a086880312156142e757600080fd5b85356142f281613b7d565b9450602086013561430281613b7d565b9350604086013592506060860135915060808601356001600160401b0381111561432b57600080fd5b613f5b88828901613c33565b60008060006060848603121561434c57600080fd5b833561435781613b7d565b95602085013595506040909401359392505050565b600181811c9082168061438057607f821691505b602082108114156143a157634e487b7160e01b600052602260045260246000fd5b50919050565b600084516143b9818460208901613d18565b8083019050602f60f81b80825285516143d9816001850160208a01613d18565b600192019182015283516143f4816002840160208801613d18565b0160020195945050505050565b60008251614413818460208701613d18565b9190910192915050565b6020808252602c908201527f46756e6374696f6e206d7573742062652063616c6c6564207468726f7567682060408201526b19195b1959d85d1958d85b1b60a21b606082015260800190565b6020808252602c908201527f46756e6374696f6e206d7573742062652063616c6c6564207468726f7567682060408201526b6163746976652070726f787960a01b606082015260800190565b634e487b7160e01b600052603260045260246000fd5b634e487b7160e01b600052601160045260246000fd5b60006000198214156144f5576144f56144cb565b5060010190565b60208082526029908201527f455243313135353a2063616c6c6572206973206e6f74206f776e6572206e6f7260408201526808185c1c1c9bdd995960ba1b606082015260800190565b600081614554576145546144cb565b506000190190565b6000816000190483118215151615614576576145766144cb565b500290565b60008282101561458d5761458d6144cb565b500390565b600082198211156145a5576145a56144cb565b500190565b600181815b808511156145e55781600019048211156145cb576145cb6144cb565b808516156145d857918102915b93841c93908002906145af565b509250929050565b6000826145fc57506001610bf4565b8161460957506000610bf4565b816001811461461f576002811461462957614645565b6001915050610bf4565b60ff84111561463a5761463a6144cb565b50506001821b610bf4565b5060208310610133831016604e8410600b8410161715614668575081810a610bf4565b61467283836145aa565b8060001904821115614686576146866144cb565b029392505050565b6000610e0583836145ed565b600083516146ac818460208801613d18565b8083019050602f60f81b80825284516146cc816001850160208901613d18565b6001920191820152600201949350505050565b7f416363657373436f6e74726f6c3a206163636f756e7420000000000000000000815260008351614717816017850160208801613d18565b7001034b99036b4b9b9b4b733903937b6329607d1b6017918401918201528351614748816028840160208801613d18565b01602801949350505050565b60008261477157634e487b7160e01b600052601260045260246000fd5b500490565b600060ff821660ff84168060ff03821115614793576147936144cb565b019392505050565b60208082526028908201527f455243313135353a2069647320616e6420616d6f756e7473206c656e677468206040820152670dad2e6dac2e8c6d60c31b606082015260800190565b60208082526025908201527f455243313135353a207472616e7366657220746f20746865207a65726f206164604082015264647265737360d81b606082015260800190565b6020808252602a908201527f455243313135353a20696e73756666696369656e742062616c616e636520666f60408201526939103a3930b739b332b960b11b606082015260800190565b6040815260006148856040830185614064565b82810360208401526139038185614064565b60208082526023908201527f455243313135353a206275726e2066726f6d20746865207a65726f206164647260408201526265737360e81b606082015260800190565b60208082526024908201527f455243313135353a206275726e20616d6f756e7420657863656564732062616c604082015263616e636560e01b606082015260800190565b600080835481600182811c91508083168061493a57607f831692505b602080841082141561495a57634e487b7160e01b86526022600452602486fd5b81801561496e576001811461497f576149ac565b60ff198616895284890196506149ac565b60008a81526020902060005b868110156149a45781548b82015290850190830161498b565b505084890196505b509498975050505050505050565b634e487b7160e01b600052603160045260246000fd5b6020808252602b908201527f496e697469616c697a61626c653a20636f6e7472616374206973206e6f74206960408201526a6e697469616c697a696e6760a81b606082015260800190565b60008251614a2d818460208701613d18565b6d1a5cc81b9bdd081cdd5c1c1bdc9d60921b920191825250600e01919050565b6001600160a01b03868116825285166020820152604081018490526060810183905260a060808201819052600090614a8790830184613d44565b979650505050505050565b600060208284031215614aa457600080fd5b8151610e0581613bbe565b600060033d1115614ac85760046000803e5060005160e01c5b90565b600060443d1015614ad95790565b6040516003193d81016004833e81513d6001600160401b038160248401118184111715614b0857505050505090565b8285019150815181811115614b205750505050505090565b843d8701016020828501011115614b3a5750505050505090565b614b4960208286010187613c07565b509095945050505050565b60208082526028908201527f455243313135353a204552433131353552656365697665722072656a656374656040820152676420746f6b656e7360c01b606082015260800190565b6001600160a01b0386811682528516602082015260a060408201819052600090614bc890830186614064565b8281036060840152614bda8186614064565b90508281036080840152614bee8185613d44565b98975050505050505050565b7f5468652063757272656e74204e465420697320696e207468652074726164696e81527f672070726f74656374696f6e20706572696f6420616e642063616e206265207460208201526a3930b232b21030b33a32b960a91b604082015260008251614c6c81604b850160208701613d18565b91909101604b019291505056fe416464726573733a206c6f772d6c6576656c2064656c65676174652063616c6c206661696c6564f5eb84615c2a00ecaf817d13794ebd6299c9e01c395bf4018453f13f577f5449a2646970667358221220a1e003d0d24462d955e12bcf7840f5caa1e094331665d297c3c3cc17d771d7c964736f6c63430008090033",
  "immutableReferences": {
    "1051": [
      {
        "length": 32,
        "start": 4042
      },
      {
        "length": 32,
        "start": 4106
      },
      {
        "length": 32,
        "start": 4553
      },
      {
        "length": 32,
        "start": 4617
      }
    ]
  },
  "source": "// SPDX-License-Identifier: MIT\npragma solidity 0.8.9;\n\nimport \"@openzeppelin/contracts-upgradeable/token/ERC1155/ERC1155Upgradeable.sol\";\nimport \"@openzeppelin/contracts-upgradeable/access/AccessControlUpgradeable.sol\";\nimport \"@openzeppelin/contracts-upgradeable/token/ERC1155/extensions/ERC1155BurnableUpgradeable.sol\";\nimport \"@openzeppelin/contracts-upgradeable/proxy/utils/Initializable.sol\";\nimport \"@openzeppelin/contracts-upgradeable/proxy/utils/UUPSUpgradeable.sol\";\nimport \"@openzeppelin/contracts-upgradeable/utils/CountersUpgradeable.sol\";\nimport \"./MelandNFTFreeze.sol\";\nimport \"./MelandTierAddressStore.sol\";\nimport \"./MelandAccessRoles.sol\";\nimport \"./MelandTier.sol\";\nimport \"./Meland1155StoreItem.sol\";\n\ncontract Meland1155LandFuture is\n    Initializable,\n    MelandTierAddressStore,\n    MelandAccessRoles,\n    ERC1155BurnableUpgradeable,\n    MelandNFTFreeze,\n    Meland1155StoreItem,\n    UUPSUpgradeable\n{\n    using CountersUpgradeable for CountersUpgradeable.Counter;\n\n    CountersUpgradeable.Counter private _tokenIdCounter;\n    bytes public constant vipland1x1 = \"vipland1x1\";\n    bytes public constant vipland2x2 = \"vipland2x2\";\n    bytes public constant vipland4x4 = \"vipland4x4\";\n    bytes public constant vipland4x4fixed = \"vipland4x4-fixed\";\n    mapping(bytes => bool) public supportLandtypes;\n    mapping(uint256 => string) public landtypeById;\n    mapping(bytes32 => uint256) public totalSupplyByLandtype;\n    mapping(address => bool) public canBuyListByAddress;\n\n    function initialize(string memory _uri) public initializer {\n        __ERC1155_init(_uri);\n        __ERC1155Burnable_init();\n        __UUPSUpgradeable_init();\n        __MelandNFTFreeze_init();\n        __MelandAccessRoles_init();\n\n        supportLandtypes[vipland1x1] = true;\n        supportLandtypes[vipland2x2] = true;\n        supportLandtypes[vipland4x4] = true;\n    }\n\n    function setURI(string memory newuri) public onlyRole(GM_ROLE) {\n        _setURI(newuri);\n    }\n\n    function fixedtype() public onlyRole(GM_ROLE) {\n        supportLandtypes[vipland4x4fixed] = true;\n    }\n\n    function uri(uint256 id)\n        public\n        view\n        virtual\n        override\n        returns (string memory)\n    {\n        string memory landtype = landtypeById[id];\n        return string(abi.encodePacked(super.uri(id), \"/\", landtype, \"/\", uint2str(id)));\n    }\n\n    function setCanBuyListByAddress(address _address, bool _b) public onlyRole(GM_ROLE) {\n        canBuyListByAddress[_address] = _b;\n    }\n\n    function melandStoreItemURI(string memory symbol)\n        external\n        view\n        returns (string memory)\n    {\n        return string(abi.encodePacked(ERC1155Upgradeable.uri(0), \"/\", symbol, \"/\"));\n    }\n\n    function isApprovedForAll(address _owner, address _operator)\n        public\n        view\n        override(MelandTierAddressStore, ERC1155Upgradeable)\n        returns (bool isOperator)\n    {\n        return super.isApprovedForAll(_owner, _operator);\n    }\n\n    function mint(\n        address account,\n        uint256 amount,\n        bytes memory landtype\n    ) public onlyRole(MINTER_ROLE) {\n        require(canBuyListByAddress[account], \"Not eligible to buy\");\n        _tokenIdCounter.increment();\n        uint256 id = _tokenIdCounter.current();\n        _mint(account, id, amount, landtype);\n    }\n\n    // Add or cancel freeze white list\n    function setFreezeWhiteList(address _account, bool _bool)\n        public\n        onlyRole(GM_ROLE)\n    {\n        _setFreezeWhite(_account, _bool);\n    }\n\n    function setMelandTier(MelandTier _tierAddress) public onlyRole(GM_ROLE) {\n        _setMelandTier(_tierAddress);\n    }\n\n    // Enable or Disable Freeze feature.\n    function setFreezeEnabled(bool _bool) public onlyRole(GM_ROLE) {\n        _setFreezeEnabled(_bool);\n    }\n\n    function _authorizeUpgrade(address newImplementation)\n        internal\n        override\n        onlyRole(UPGRADER_ROLE)\n    {}\n\n    function totalSupply(uint256 id) internal view returns (uint256) {\n        string memory lantype = landtypeById[id];\n        return totalSupplyByLandtype[keccak256(bytes(lantype))];\n    }\n\n    // The following functions are overrides required by Solidity.\n\n    function supportsInterface(bytes4 interfaceId)\n        public\n        view\n        override(ERC1155Upgradeable, AccessControlUpgradeable)\n        returns (bool)\n    {\n        return super.supportsInterface(interfaceId);\n    }\n\n    // The following functions are overrides required by Solidity.\n    function _beforeTokenTransfer(\n        address operator,\n        address from,\n        address to,\n        uint256[] memory ids,\n        uint256[] memory amounts,\n        bytes memory maybelandtype\n    ) internal override(ERC1155Upgradeable) {\n        for (uint256 i = 0; i < amounts.length; i++) {\n            require(\n                amounts[i] == 1,\n                \"Each land is unique, So there is no transfer greater than 1\"\n            );\n        }\n\n        for (uint256 i = 0; i < ids.length; i++) {\n            uint256 id = ids[i];\n\n            // check freeze\n            string memory landtype = landtypeById[id];\n\n            if (keccak256(bytes(landtype)) == keccak256(\"ticketland\")) {\n                _freezeProtect(from, to, id);\n            }\n\n            // sub totalSupply when burn token\n            if (to == address(0)) {\n                // clear lantyoe when burn\n                delete landtypeById[id];\n                totalSupplyByLandtype[keccak256(bytes(landtype))] -= 1;\n            }\n        }\n\n        // if is mint\n        // check land type is support\n        if (from == address(0)) {\n            require(\n                supportLandtypes[maybelandtype],\n                string(abi.encodePacked(maybelandtype, \"is not support\"))\n            );\n\n            for (uint256 i = 0; i < ids.length; i++) {\n                require(\n                    bytes(landtypeById[ids[i]]).length == 0,\n                    \"Make sure each land is unique\"\n                );\n                landtypeById[ids[i]] = string(maybelandtype);\n            }\n\n            totalSupplyByLandtype[keccak256(maybelandtype)] += ids.length;\n        }\n\n        super._beforeTokenTransfer(\n            operator,\n            from,\n            to,\n            ids,\n            amounts,\n            maybelandtype\n        );\n    }\n\n    // store item impl ----\n    function setAcceptedToken(IERC20Upgradeable token)\n        external\n        onlyRole(GM_ROLE)\n    {\n        _setAcceptedToken(token);\n    }\n\n    function setStore(NFTStore s) external onlyRole(GM_ROLE) {\n        _setStore(s);\n    }\n\n    function setStoreItem(string memory symbol, uint256 p)\n        external\n        onlyRole(GM_ROLE)\n    {\n        _setStoreItem(symbol, p);\n    }\n\n    function delStoreItem(string memory symbol) external onlyRole(GM_ROLE) {\n        _delStoreItem(symbol);\n    }\n\n    // If return ture, means that the mall will only have the specified id\n    // Else otherwise it will be linear mint\n    // The ids Must ensure that you can mint\n    // If multi-channel sales or mint, you need to filter out the ids that have been minted\n    // To prevent errors in the sales process\n    function melandStoreItemsRestrictPurchaseNFTIds(string memory)\n        external\n        pure\n        returns (bool, uint256[] memory)\n    {\n        uint256[] memory ids;\n        return (false, ids);\n    }\n\n    // Store to pay NFT to the selling user by calling this function,\n    // For security reasons, be sure to control the permissions to allow only MelandStore contracts to call\n    // If melandStoreItemsRestrictPurchaseNFTIds return false, the id as zero.\n    function melandStoreItemsMint(\n        string memory symbol,\n        uint256 id,\n        address to\n    ) external override returns(uint256) {\n        require(canBuyListByAddress[to], \"Not eligible to buy\");\n        super.checkMelandStoreItemsMint(symbol, id, to);\n        _tokenIdCounter.increment();\n        id = _tokenIdCounter.current();\n        _mint(to, id, 1, bytes(symbol));\n        _dispatchItemInfoUpdate();\n        return id;\n    }\n\n    // If return false, Stores will suspend sales.\n    function melandStoreSellStatus(string memory)\n        external\n        pure\n        returns (bool)\n    {\n        return true;\n    }\n\n    // If return true, it means that each person can only buy a certain amount\n    function melandStoreItemsRestrictedPurchase(string memory)\n        external\n        pure\n        returns (bool restricted, uint256 restrictLimit)\n    {\n        restricted = false;\n        restrictLimit = 1;\n    }\n}\n",
  "sourcePath": "/Users/alberthuang/code/icw/meland/contracts/Meland1155LandFuture.sol",
  "compiler": {
    "name": "solc",
    "version": "0.8.9+commit.e5eed63a.Emscripten.clang"
  },
  "schemaVersion": "3.4.3",
  "updatedAt": "2021-12-31T04:32:33.944Z",
  "networkType": "ethereum",
  "devdoc": {
    "kind": "dev",
    "methods": {
      "balanceOf(address,uint256)": {
        "details": "See {IERC1155-balanceOf}. Requirements: - `account` cannot be the zero address."
      },
      "balanceOfBatch(address[],uint256[])": {
        "details": "See {IERC1155-balanceOfBatch}. Requirements: - `accounts` and `ids` must have the same length."
      },
      "getRoleAdmin(bytes32)": {
        "details": "Returns the admin role that controls `role`. See {grantRole} and {revokeRole}. To change a role's admin, use {_setRoleAdmin}."
      },
      "grantRole(bytes32,address)": {
        "details": "Grants `role` to `account`. If `account` had not been already granted `role`, emits a {RoleGranted} event. Requirements: - the caller must have ``role``'s admin role."
      },
      "hasRole(bytes32,address)": {
        "details": "Returns `true` if `account` has been granted `role`."
      },
      "renounceRole(bytes32,address)": {
        "details": "Revokes `role` from the calling account. Roles are often managed via {grantRole} and {revokeRole}: this function's purpose is to provide a mechanism for accounts to lose their privileges if they are compromised (such as when a trusted device is misplaced). If the calling account had been revoked `role`, emits a {RoleRevoked} event. Requirements: - the caller must be `account`."
      },
      "revokeRole(bytes32,address)": {
        "details": "Revokes `role` from `account`. If `account` had been granted `role`, emits a {RoleRevoked} event. Requirements: - the caller must have ``role``'s admin role."
      },
      "safeBatchTransferFrom(address,address,uint256[],uint256[],bytes)": {
        "details": "See {IERC1155-safeBatchTransferFrom}."
      },
      "safeTransferFrom(address,address,uint256,uint256,bytes)": {
        "details": "See {IERC1155-safeTransferFrom}."
      },
      "setApprovalForAll(address,bool)": {
        "details": "See {IERC1155-setApprovalForAll}."
      },
      "upgradeTo(address)": {
        "details": "Upgrade the implementation of the proxy to `newImplementation`. Calls {_authorizeUpgrade}. Emits an {Upgraded} event."
      },
      "upgradeToAndCall(address,bytes)": {
        "details": "Upgrade the implementation of the proxy to `newImplementation`, and subsequently execute the function call encoded in `data`. Calls {_authorizeUpgrade}. Emits an {Upgraded} event."
      }
    },
    "version": 1
  },
  "userdoc": {
    "kind": "user",
    "methods": {},
    "version": 1
  }
}