{
  "contractName": "Meland1155Land",
  "abi": [
    {
      "inputs": [],
      "stateMutability": "nonpayable",
      "type": "constructor"
    },
    {
      "anonymous": false,
      "inputs": [
        {
          "indexed": false,
          "internalType": "address",
          "name": "previousAdmin",
          "type": "address"
        },
        {
          "indexed": false,
          "internalType": "address",
          "name": "newAdmin",
          "type": "address"
        }
      ],
      "name": "AdminChanged",
      "type": "event"
    },
    {
      "anonymous": false,
      "inputs": [
        {
          "indexed": true,
          "internalType": "address",
          "name": "account",
          "type": "address"
        },
        {
          "indexed": true,
          "internalType": "address",
          "name": "operator",
          "type": "address"
        },
        {
          "indexed": false,
          "internalType": "bool",
          "name": "approved",
          "type": "bool"
        }
      ],
      "name": "ApprovalForAll",
      "type": "event"
    },
    {
      "anonymous": false,
      "inputs": [
        {
          "indexed": true,
          "internalType": "address",
          "name": "beacon",
          "type": "address"
        }
      ],
      "name": "BeaconUpgraded",
      "type": "event"
    },
    {
      "anonymous": false,
      "inputs": [
        {
          "indexed": false,
          "internalType": "bool",
          "name": "_freezeEnabled",
          "type": "bool"
        }
      ],
      "name": "FreezeEnabledUpdate",
      "type": "event"
    },
    {
      "anonymous": false,
      "inputs": [
        {
          "indexed": true,
          "internalType": "address",
          "name": "_address",
          "type": "address"
        },
        {
          "indexed": false,
          "internalType": "bool",
          "name": "_bool",
          "type": "bool"
        }
      ],
      "name": "FreezeWhiteListUpdate",
      "type": "event"
    },
    {
      "anonymous": false,
      "inputs": [
        {
          "indexed": true,
          "internalType": "bytes32",
          "name": "role",
          "type": "bytes32"
        },
        {
          "indexed": true,
          "internalType": "bytes32",
          "name": "previousAdminRole",
          "type": "bytes32"
        },
        {
          "indexed": true,
          "internalType": "bytes32",
          "name": "newAdminRole",
          "type": "bytes32"
        }
      ],
      "name": "RoleAdminChanged",
      "type": "event"
    },
    {
      "anonymous": false,
      "inputs": [
        {
          "indexed": true,
          "internalType": "bytes32",
          "name": "role",
          "type": "bytes32"
        },
        {
          "indexed": true,
          "internalType": "address",
          "name": "account",
          "type": "address"
        },
        {
          "indexed": true,
          "internalType": "address",
          "name": "sender",
          "type": "address"
        }
      ],
      "name": "RoleGranted",
      "type": "event"
    },
    {
      "anonymous": false,
      "inputs": [
        {
          "indexed": true,
          "internalType": "bytes32",
          "name": "role",
          "type": "bytes32"
        },
        {
          "indexed": true,
          "internalType": "address",
          "name": "account",
          "type": "address"
        },
        {
          "indexed": true,
          "internalType": "address",
          "name": "sender",
          "type": "address"
        }
      ],
      "name": "RoleRevoked",
      "type": "event"
    },
    {
      "anonymous": false,
      "inputs": [
        {
          "indexed": true,
          "internalType": "address",
          "name": "operator",
          "type": "address"
        },
        {
          "indexed": true,
          "internalType": "address",
          "name": "from",
          "type": "address"
        },
        {
          "indexed": true,
          "internalType": "address",
          "name": "to",
          "type": "address"
        },
        {
          "indexed": false,
          "internalType": "uint256[]",
          "name": "ids",
          "type": "uint256[]"
        },
        {
          "indexed": false,
          "internalType": "uint256[]",
          "name": "values",
          "type": "uint256[]"
        }
      ],
      "name": "TransferBatch",
      "type": "event"
    },
    {
      "anonymous": false,
      "inputs": [
        {
          "indexed": true,
          "internalType": "address",
          "name": "operator",
          "type": "address"
        },
        {
          "indexed": true,
          "internalType": "address",
          "name": "from",
          "type": "address"
        },
        {
          "indexed": true,
          "internalType": "address",
          "name": "to",
          "type": "address"
        },
        {
          "indexed": false,
          "internalType": "uint256",
          "name": "id",
          "type": "uint256"
        },
        {
          "indexed": false,
          "internalType": "uint256",
          "name": "value",
          "type": "uint256"
        }
      ],
      "name": "TransferSingle",
      "type": "event"
    },
    {
      "anonymous": false,
      "inputs": [
        {
          "indexed": false,
          "internalType": "string",
          "name": "value",
          "type": "string"
        },
        {
          "indexed": true,
          "internalType": "uint256",
          "name": "id",
          "type": "uint256"
        }
      ],
      "name": "URI",
      "type": "event"
    },
    {
      "anonymous": false,
      "inputs": [
        {
          "indexed": true,
          "internalType": "address",
          "name": "implementation",
          "type": "address"
        }
      ],
      "name": "Upgraded",
      "type": "event"
    },
    {
      "inputs": [],
      "name": "DEFAULT_ADMIN_ROLE",
      "outputs": [
        {
          "internalType": "bytes32",
          "name": "",
          "type": "bytes32"
        }
      ],
      "stateMutability": "view",
      "type": "function"
    },
    {
      "inputs": [],
      "name": "GM_ROLE",
      "outputs": [
        {
          "internalType": "bytes32",
          "name": "",
          "type": "bytes32"
        }
      ],
      "stateMutability": "view",
      "type": "function"
    },
    {
      "inputs": [],
      "name": "MINTER_ROLE",
      "outputs": [
        {
          "internalType": "bytes32",
          "name": "",
          "type": "bytes32"
        }
      ],
      "stateMutability": "view",
      "type": "function"
    },
    {
      "inputs": [],
      "name": "UPGRADER_ROLE",
      "outputs": [
        {
          "internalType": "bytes32",
          "name": "",
          "type": "bytes32"
        }
      ],
      "stateMutability": "view",
      "type": "function"
    },
    {
      "inputs": [
        {
          "internalType": "address",
          "name": "account",
          "type": "address"
        },
        {
          "internalType": "uint256",
          "name": "id",
          "type": "uint256"
        }
      ],
      "name": "balanceOf",
      "outputs": [
        {
          "internalType": "uint256",
          "name": "",
          "type": "uint256"
        }
      ],
      "stateMutability": "view",
      "type": "function"
    },
    {
      "inputs": [
        {
          "internalType": "address[]",
          "name": "accounts",
          "type": "address[]"
        },
        {
          "internalType": "uint256[]",
          "name": "ids",
          "type": "uint256[]"
        }
      ],
      "name": "balanceOfBatch",
      "outputs": [
        {
          "internalType": "uint256[]",
          "name": "",
          "type": "uint256[]"
        }
      ],
      "stateMutability": "view",
      "type": "function"
    },
    {
      "inputs": [
        {
          "internalType": "address",
          "name": "account",
          "type": "address"
        },
        {
          "internalType": "uint256",
          "name": "id",
          "type": "uint256"
        },
        {
          "internalType": "uint256",
          "name": "value",
          "type": "uint256"
        }
      ],
      "name": "burn",
      "outputs": [],
      "stateMutability": "nonpayable",
      "type": "function"
    },
    {
      "inputs": [
        {
          "internalType": "address",
          "name": "account",
          "type": "address"
        },
        {
          "internalType": "uint256[]",
          "name": "ids",
          "type": "uint256[]"
        },
        {
          "internalType": "uint256[]",
          "name": "values",
          "type": "uint256[]"
        }
      ],
      "name": "burnBatch",
      "outputs": [],
      "stateMutability": "nonpayable",
      "type": "function"
    },
    {
      "inputs": [
        {
          "internalType": "uint256",
          "name": "",
          "type": "uint256"
        }
      ],
      "name": "ereezeExpiredAtMapById",
      "outputs": [
        {
          "internalType": "uint256",
          "name": "",
          "type": "uint256"
        }
      ],
      "stateMutability": "view",
      "type": "function"
    },
    {
      "inputs": [
        {
          "internalType": "bytes32",
          "name": "role",
          "type": "bytes32"
        }
      ],
      "name": "getRoleAdmin",
      "outputs": [
        {
          "internalType": "bytes32",
          "name": "",
          "type": "bytes32"
        }
      ],
      "stateMutability": "view",
      "type": "function"
    },
    {
      "inputs": [
        {
          "internalType": "bytes32",
          "name": "role",
          "type": "bytes32"
        },
        {
          "internalType": "address",
          "name": "account",
          "type": "address"
        }
      ],
      "name": "grantRole",
      "outputs": [],
      "stateMutability": "nonpayable",
      "type": "function"
    },
    {
      "inputs": [
        {
          "internalType": "bytes32",
          "name": "role",
          "type": "bytes32"
        },
        {
          "internalType": "address",
          "name": "account",
          "type": "address"
        }
      ],
      "name": "hasRole",
      "outputs": [
        {
          "internalType": "bool",
          "name": "",
          "type": "bool"
        }
      ],
      "stateMutability": "view",
      "type": "function"
    },
    {
      "inputs": [
        {
          "internalType": "uint256",
          "name": "",
          "type": "uint256"
        }
      ],
      "name": "landtypeById",
      "outputs": [
        {
          "internalType": "string",
          "name": "",
          "type": "string"
        }
      ],
      "stateMutability": "view",
      "type": "function"
    },
    {
      "inputs": [
        {
          "internalType": "bytes32",
          "name": "role",
          "type": "bytes32"
        },
        {
          "internalType": "address",
          "name": "account",
          "type": "address"
        }
      ],
      "name": "renounceRole",
      "outputs": [],
      "stateMutability": "nonpayable",
      "type": "function"
    },
    {
      "inputs": [
        {
          "internalType": "bytes32",
          "name": "role",
          "type": "bytes32"
        },
        {
          "internalType": "address",
          "name": "account",
          "type": "address"
        }
      ],
      "name": "revokeRole",
      "outputs": [],
      "stateMutability": "nonpayable",
      "type": "function"
    },
    {
      "inputs": [
        {
          "internalType": "address",
          "name": "from",
          "type": "address"
        },
        {
          "internalType": "address",
          "name": "to",
          "type": "address"
        },
        {
          "internalType": "uint256[]",
          "name": "ids",
          "type": "uint256[]"
        },
        {
          "internalType": "uint256[]",
          "name": "amounts",
          "type": "uint256[]"
        },
        {
          "internalType": "bytes",
          "name": "data",
          "type": "bytes"
        }
      ],
      "name": "safeBatchTransferFrom",
      "outputs": [],
      "stateMutability": "nonpayable",
      "type": "function"
    },
    {
      "inputs": [
        {
          "internalType": "address",
          "name": "from",
          "type": "address"
        },
        {
          "internalType": "address",
          "name": "to",
          "type": "address"
        },
        {
          "internalType": "uint256",
          "name": "id",
          "type": "uint256"
        },
        {
          "internalType": "uint256",
          "name": "amount",
          "type": "uint256"
        },
        {
          "internalType": "bytes",
          "name": "data",
          "type": "bytes"
        }
      ],
      "name": "safeTransferFrom",
      "outputs": [],
      "stateMutability": "nonpayable",
      "type": "function"
    },
    {
      "inputs": [
        {
          "internalType": "address",
          "name": "operator",
          "type": "address"
        },
        {
          "internalType": "bool",
          "name": "approved",
          "type": "bool"
        }
      ],
      "name": "setApprovalForAll",
      "outputs": [],
      "stateMutability": "nonpayable",
      "type": "function"
    },
    {
      "inputs": [
        {
          "internalType": "string",
          "name": "",
          "type": "string"
        }
      ],
      "name": "supportLandtypes",
      "outputs": [
        {
          "internalType": "bool",
          "name": "",
          "type": "bool"
        }
      ],
      "stateMutability": "view",
      "type": "function"
    },
    {
      "inputs": [
        {
          "internalType": "bytes32",
          "name": "",
          "type": "bytes32"
        }
      ],
      "name": "totalSupplyByLandtype",
      "outputs": [
        {
          "internalType": "uint256",
          "name": "",
          "type": "uint256"
        }
      ],
      "stateMutability": "view",
      "type": "function"
    },
    {
      "inputs": [
        {
          "internalType": "address",
          "name": "newImplementation",
          "type": "address"
        }
      ],
      "name": "upgradeTo",
      "outputs": [],
      "stateMutability": "nonpayable",
      "type": "function"
    },
    {
      "inputs": [
        {
          "internalType": "address",
          "name": "newImplementation",
          "type": "address"
        },
        {
          "internalType": "bytes",
          "name": "data",
          "type": "bytes"
        }
      ],
      "name": "upgradeToAndCall",
      "outputs": [],
      "stateMutability": "payable",
      "type": "function"
    },
    {
      "inputs": [
        {
          "internalType": "uint256",
          "name": "",
          "type": "uint256"
        }
      ],
      "name": "uri",
      "outputs": [
        {
          "internalType": "string",
          "name": "",
          "type": "string"
        }
      ],
      "stateMutability": "view",
      "type": "function"
    },
    {
      "inputs": [
        {
          "internalType": "string",
          "name": "uri",
          "type": "string"
        }
      ],
      "name": "initialize",
      "outputs": [],
      "stateMutability": "nonpayable",
      "type": "function"
    },
    {
      "inputs": [
        {
          "internalType": "string",
          "name": "newuri",
          "type": "string"
        }
      ],
      "name": "setURI",
      "outputs": [],
      "stateMutability": "nonpayable",
      "type": "function"
    },
    {
      "inputs": [
        {
          "internalType": "address",
          "name": "_owner",
          "type": "address"
        },
        {
          "internalType": "address",
          "name": "_operator",
          "type": "address"
        }
      ],
      "name": "isApprovedForAll",
      "outputs": [
        {
          "internalType": "bool",
          "name": "isOperator",
          "type": "bool"
        }
      ],
      "stateMutability": "view",
      "type": "function"
    },
    {
      "inputs": [
        {
          "internalType": "address",
          "name": "account",
          "type": "address"
        },
        {
          "internalType": "uint256",
          "name": "id",
          "type": "uint256"
        },
        {
          "internalType": "uint256",
          "name": "amount",
          "type": "uint256"
        },
        {
          "internalType": "bytes",
          "name": "landtype",
          "type": "bytes"
        }
      ],
      "name": "mint",
      "outputs": [],
      "stateMutability": "nonpayable",
      "type": "function"
    },
    {
      "inputs": [
        {
          "internalType": "address",
          "name": "_account",
          "type": "address"
        },
        {
          "internalType": "bool",
          "name": "_bool",
          "type": "bool"
        }
      ],
      "name": "setFreezeWhiteList",
      "outputs": [],
      "stateMutability": "nonpayable",
      "type": "function"
    },
    {
      "inputs": [
        {
          "internalType": "contract MelandTier",
          "name": "_tierAddress",
          "type": "address"
        }
      ],
      "name": "setMelandTier",
      "outputs": [],
      "stateMutability": "nonpayable",
      "type": "function"
    },
    {
      "inputs": [
        {
          "internalType": "bool",
          "name": "_bool",
          "type": "bool"
        }
      ],
      "name": "setFreezeEnabled",
      "outputs": [],
      "stateMutability": "nonpayable",
      "type": "function"
    },
    {
      "inputs": [
        {
          "internalType": "address",
          "name": "to",
          "type": "address"
        },
        {
          "internalType": "uint256[]",
          "name": "ids",
          "type": "uint256[]"
        },
        {
          "internalType": "uint256[]",
          "name": "amounts",
          "type": "uint256[]"
        },
        {
          "internalType": "bytes",
          "name": "landtype",
          "type": "bytes"
        }
      ],
      "name": "mintBatch",
      "outputs": [],
      "stateMutability": "nonpayable",
      "type": "function"
    },
    {
      "inputs": [
        {
          "internalType": "bytes4",
          "name": "interfaceId",
          "type": "bytes4"
        }
      ],
      "name": "supportsInterface",
      "outputs": [
        {
          "internalType": "bool",
          "name": "",
          "type": "bool"
        }
      ],
      "stateMutability": "view",
      "type": "function"
    }
  ],
  "bytecode": "0x60a0604052306080523480156200001557600080fd5b50600054610100900460ff168062000030575060005460ff16155b620000885760405162461bcd60e51b815260206004820152602e602482015260008051602062003b0b83398151915260448201526d191e481a5b9a5d1a585b1a5e995960921b60648201526084015b60405180910390fd5b600054610100900460ff16158015620000ab576000805461ffff19166101011790555b8015620000be576000805461ff00191690555b50600054610100900460ff1680620000d9575060005460ff16155b6200012d5760405162461bcd60e51b815260206004820152602e602482015260008051602062003b0b83398151915260448201526d191e481a5b9a5d1a585b1a5e995960921b60648201526084016200007f565b600054610100900460ff1615801562000150576000805461ffff19166101011790555b801562000163576000805461ff00191690555b50608051613976620001956000396000818161093a0152818161097a01528181610b2c0152610b6c01526139766000f3fe6080604052600436106101e25760003560e01c806371d42be511610102578063d547741f11610095578063f5298aca11610064578063f5298aca146105d9578063f62d1888146105f9578063f70e9a4714610619578063f72c0d8b1461063957600080fd5b8063d547741f1461053d578063e59214941461055d578063e985e9c514610599578063f242432a146105b957600080fd5b8063a217fddf116100d1578063a217fddf146104c6578063a22cb465146104db578063afd600f3146104fb578063d53913931461051b57600080fd5b806371d42be514610446578063731133e91461046657806383c6c37d1461048657806391d14854146104a657600080fd5b80632f2ff15d1161017a5780634e1273f4116101495780634e1273f4146103b85780634f1ef286146103e557806352121f09146103f85780636b20c4541461042657600080fd5b80632f2ff15d1461033657806330c7be2c1461035657806336568abe146103785780633659cfe61461039857600080fd5b80631a98cef2116101b65780631a98cef2146102995780631f7fdffa146102c6578063248a9ca3146102e65780632eb2c2d61461031657600080fd5b8062fdd58e146101e757806301ffc9a71461021a57806302fe53051461024a5780630e89341c1461026c575b600080fd5b3480156101f357600080fd5b50610207610202366004612b17565b61066d565b6040519081526020015b60405180910390f35b34801561022657600080fd5b5061023a610235366004612b59565b610709565b6040519015158152602001610211565b34801561025657600080fd5b5061026a610265366004612c15565b610714565b005b34801561027857600080fd5b5061028c610287366004612c65565b61073a565b6040516102119190612cda565b3480156102a557600080fd5b506102076102b4366004612c65565b60ff6020526000908152604090205481565b3480156102d257600080fd5b5061026a6102e1366004612da1565b6107ce565b3480156102f257600080fd5b50610207610301366004612c65565b60009081526098602052604090206001015490565b34801561032257600080fd5b5061026a610331366004612e3b565b6107fa565b34801561034257600080fd5b5061026a610351366004612ee8565b61088a565b34801561036257600080fd5b5061020760008051602061392183398151915281565b34801561038457600080fd5b5061026a610393366004612ee8565b6108b5565b3480156103a457600080fd5b5061026a6103b3366004612f18565b61092f565b3480156103c457600080fd5b506103d86103d3366004612f35565b6109f8565b604051610211919061303c565b61026a6103f336600461304f565b610b21565b34801561040457600080fd5b50610207610413366004612c65565b6101666020526000908152604090205481565b34801561043257600080fd5b5061026a610441366004613094565b610bd7565b34801561045257600080fd5b5061026a61046136600461311e565b610c1a565b34801561047257600080fd5b5061026a610481366004613139565b610c3c565b34801561049257600080fd5b5061026a6104a136600461318f565b610c61565b3480156104b257600080fd5b5061023a6104c1366004612ee8565b610c84565b3480156104d257600080fd5b50610207600081565b3480156104e757600080fd5b5061026a6104f636600461318f565b610caf565b34801561050757600080fd5b5061028c610516366004612c65565b610cba565b34801561052757600080fd5b5061020760008051602061390183398151915281565b34801561054957600080fd5b5061026a610558366004612ee8565b610d55565b34801561056957600080fd5b5061023a610578366004612c15565b80516020818301810180516101648252928201919093012091525460ff1681565b3480156105a557600080fd5b5061023a6105b43660046131c4565b610d7b565b3480156105c557600080fd5b5061026a6105d43660046131f2565b610d8e565b3480156105e557600080fd5b5061026a6105f436600461325a565b610dd3565b34801561060557600080fd5b5061026a610614366004612c15565b610e16565b34801561062557600080fd5b5061026a610634366004612f18565b610f14565b34801561064557600080fd5b506102077f189ab7a9244df0848122154315af71fe140f3db0fe014031783b0946b8c9d2e381565b60006001600160a01b0383166106de5760405162461bcd60e51b815260206004820152602b60248201527f455243313135353a2062616c616e636520717565727920666f7220746865207a60448201526a65726f206164647265737360a81b60648201526084015b60405180910390fd5b5060008181526065602090815260408083206001600160a01b03861684529091529020545b92915050565b600061070382610f4c565b60008051602061392183398151915261072d8133610f71565b61073682610fd5565b5050565b6060606780546107499061328f565b80601f01602080910402602001604051908101604052809291908181526020018280546107759061328f565b80156107c25780601f10610797576101008083540402835291602001916107c2565b820191906000526020600020905b8154815290600101906020018083116107a557829003601f168201915b50505050509050919050565b6000805160206139018339815191526107e78133610f71565b6107f385858585610fe8565b5050505050565b6001600160a01b03851633148061081657506108168533610d7b565b61087d5760405162461bcd60e51b815260206004820152603260248201527f455243313135353a207472616e736665722063616c6c6572206973206e6f74206044820152711bdddb995c881b9bdc88185c1c1c9bdd995960721b60648201526084016106d5565b6107f38585858585611143565b6000828152609860205260409020600101546108a68133610f71565b6108b083836112f0565b505050565b6001600160a01b03811633146109255760405162461bcd60e51b815260206004820152602f60248201527f416363657373436f6e74726f6c3a2063616e206f6e6c792072656e6f756e636560448201526e103937b632b9903337b91039b2b63360891b60648201526084016106d5565b6107368282611376565b306001600160a01b037f00000000000000000000000000000000000000000000000000000000000000001614156109785760405162461bcd60e51b81526004016106d5906132ca565b7f00000000000000000000000000000000000000000000000000000000000000006001600160a01b03166109aa6113dd565b6001600160a01b0316146109d05760405162461bcd60e51b81526004016106d590613316565b6109d98161140b565b604080516000808252602082019092526109f591839190611436565b50565b60608151835114610a5d5760405162461bcd60e51b815260206004820152602960248201527f455243313135353a206163636f756e747320616e6420696473206c656e677468604482015268040dad2e6dac2e8c6d60bb1b60648201526084016106d5565b600083516001600160401b03811115610a7857610a78612b76565b604051908082528060200260200182016040528015610aa1578160200160208202803683370190505b50905060005b8451811015610b1957610aec858281518110610ac557610ac5613362565b6020026020010151858381518110610adf57610adf613362565b602002602001015161066d565b828281518110610afe57610afe613362565b6020908102919091010152610b128161338e565b9050610aa7565b509392505050565b306001600160a01b037f0000000000000000000000000000000000000000000000000000000000000000161415610b6a5760405162461bcd60e51b81526004016106d5906132ca565b7f00000000000000000000000000000000000000000000000000000000000000006001600160a01b0316610b9c6113dd565b6001600160a01b031614610bc25760405162461bcd60e51b81526004016106d590613316565b610bcb8261140b565b61073682826001611436565b6001600160a01b038316331480610bf35750610bf38333610d7b565b610c0f5760405162461bcd60e51b81526004016106d5906133a9565b6108b083838361157a565b600080516020613921833981519152610c338133610f71565b6107368261170b565b600080516020613901833981519152610c558133610f71565b6107f385858585611752565b600080516020613921833981519152610c7a8133610f71565b6108b0838361182a565b60009182526098602090815260408084206001600160a01b0393909316845291905290205460ff1690565b610736338383611889565b6101656020526000908152604090208054610cd49061328f565b80601f0160208091040260200160405190810160405280929190818152602001828054610d009061328f565b8015610d4d5780601f10610d2257610100808354040283529160200191610d4d565b820191906000526020600020905b815481529060010190602001808311610d3057829003601f168201915b505050505081565b600082815260986020526040902060010154610d718133610f71565b6108b08383611376565b6000610d87838361196a565b9392505050565b6001600160a01b038516331480610daa5750610daa8533610d7b565b610dc65760405162461bcd60e51b81526004016106d5906133a9565b6107f385858585856119e5565b6001600160a01b038316331480610def5750610def8333610d7b565b610e0b5760405162461bcd60e51b81526004016106d5906133a9565b6108b0838383611b06565b600054610100900460ff1680610e2f575060005460ff16155b610e4b5760405162461bcd60e51b81526004016106d5906133f2565b600054610100900460ff16158015610e6d576000805461ffff19166101011790555b610e7682611c0b565b610e7e611c90565b610e86611d13565b610e8e611d71565b610e96611da9565b6001610164604051610eb590661d9a5c1b185b9960ca1b815260070190565b90815260408051918290036020018220805493151560ff19948516179055691d1a58dad95d1b185b9960b21b8252610164600a8301525190819003602a019020805490911660011790558015610736576000805461ff00191690555050565b600080516020613921833981519152610f2d8133610f71565b609780546001600160a01b0319166001600160a01b0384161790555050565b60006001600160e01b03198216637965db0b60e01b1480610703575061070382611e16565b610f7b8282610c84565b61073657610f93816001600160a01b03166014611e66565b610f9e836020611e66565b604051602001610faf929190613440565b60408051601f198184030181529082905262461bcd60e51b82526106d591600401612cda565b8051610736906067906020840190612a33565b6001600160a01b03841661100e5760405162461bcd60e51b81526004016106d5906134b5565b815183511461102f5760405162461bcd60e51b81526004016106d5906134f6565b3361103f81600087878787612001565b60005b84518110156110db5783818151811061105d5761105d613362565b60200260200101516065600087848151811061107b5761107b613362565b602002602001015181526020019081526020016000206000886001600160a01b03166001600160a01b0316815260200190815260200160002060008282546110c3919061353e565b909155508190506110d38161338e565b915050611042565b50846001600160a01b031660006001600160a01b0316826001600160a01b03167f4a39dc06d4c0dbc64b70af90fd698a233a518aa5d07e595d983b8c0526c8f7fb878760405161112c929190613556565b60405180910390a46107f3816000878787876123af565b81518351146111645760405162461bcd60e51b81526004016106d5906134f6565b6001600160a01b03841661118a5760405162461bcd60e51b81526004016106d59061357b565b33611199818787878787612001565b60005b84518110156112825760008582815181106111b9576111b9613362565b6020026020010151905060008583815181106111d7576111d7613362565b60209081029190910181015160008481526065835260408082206001600160a01b038e1683529093529190912054909150818110156112285760405162461bcd60e51b81526004016106d5906135c0565b60008381526065602090815260408083206001600160a01b038e8116855292528083208585039055908b1682528120805484929061126790849061353e565b925050819055505050508061127b9061338e565b905061119c565b50846001600160a01b0316866001600160a01b0316826001600160a01b03167f4a39dc06d4c0dbc64b70af90fd698a233a518aa5d07e595d983b8c0526c8f7fb87876040516112d2929190613556565b60405180910390a46112e88187878787876123af565b505050505050565b6112fa8282610c84565b6107365760008281526098602090815260408083206001600160a01b03851684529091529020805460ff191660011790556113323390565b6001600160a01b0316816001600160a01b0316837f2f8788117e7eff1d82e926ec794901d17c78024a50270940304540a733656f0d60405160405180910390a45050565b6113808282610c84565b156107365760008281526098602090815260408083206001600160a01b0385168085529252808320805460ff1916905551339285917ff6391f5c32d9c69d2a47ea670b442974b53935d1edc7fd64eb21e047a839171b9190a45050565b7f360894a13ba1a3210667c828492db98dca3e2076cc3735a920a3ca505d382bbc546001600160a01b031690565b7f189ab7a9244df0848122154315af71fe140f3db0fe014031783b0946b8c9d2e36107368133610f71565b60006114406113dd565b905061144b8461251a565b6000835111806114585750815b156114695761146784846125bf565b505b7f4910fdfa16fed3260ed0e7147f7cc6da11a60208b5b9406d12a635614ffd9143805460ff166107f357805460ff191660011781556040516001600160a01b03831660248201526114e890869060440160408051601f198184030181529190526020810180516001600160e01b0316631b2ce7f360e11b1790526125bf565b50805460ff191681556114f96113dd565b6001600160a01b0316826001600160a01b0316146115715760405162461bcd60e51b815260206004820152602f60248201527f45524331393637557067726164653a207570677261646520627265616b73206660448201526e75727468657220757067726164657360881b60648201526084016106d5565b6107f3856126aa565b6001600160a01b0383166115a05760405162461bcd60e51b81526004016106d59061360a565b80518251146115c15760405162461bcd60e51b81526004016106d5906134f6565b60003390506115e481856000868660405180602001604052806000815250612001565b60005b83518110156116ac57600084828151811061160457611604613362565b60200260200101519050600084838151811061162257611622613362565b60209081029190910181015160008481526065835260408082206001600160a01b038c1683529093529190912054909150818110156116735760405162461bcd60e51b81526004016106d59061364d565b60009283526065602090815260408085206001600160a01b038b16865290915290922091039055806116a48161338e565b9150506115e7565b5060006001600160a01b0316846001600160a01b0316826001600160a01b03167f4a39dc06d4c0dbc64b70af90fd698a233a518aa5d07e595d983b8c0526c8f7fb86866040516116fd929190613556565b60405180910390a450505050565b60fc805460ff19168215159081179091556040519081527ffe201e4b4f6868843d95c43911ae6440969ce8f267814256f138983f77b444399060200160405180910390a150565b6001600160a01b0384166117785760405162461bcd60e51b81526004016106d5906134b5565b3361179881600087611789886126ea565b611792886126ea565b87612001565b60008481526065602090815260408083206001600160a01b0389168452909152812080548592906117ca90849061353e565b909155505060408051858152602081018590526001600160a01b0380881692600092918516917fc3d58168c5ae7397731d063d5bbf3d657854427343f4c083240f7aacaa2d0f62910160405180910390a46107f381600087878787612735565b6001600160a01b038216600081815260fe6020908152604091829020805460ff191685151590811790915591519182527f8b0795ef2ee415d4d22faae6db2f220e804a2ece30b9ef73c9135823d5326e4a910160405180910390a25050565b816001600160a01b0316836001600160a01b031614156118fd5760405162461bcd60e51b815260206004820152602960248201527f455243313135353a2073657474696e6720617070726f76616c20737461747573604482015268103337b91039b2b63360b91b60648201526084016106d5565b6001600160a01b03838116600081815260666020908152604080832094871680845294825291829020805460ff191686151590811790915591519182527f17307eab39ab6107e8899845ad3d59bd9653f200f220920489ca2b5937696c31910160405180910390a3505050565b60006001600160a01b03821673207fa8df3a17d96ca7ea4f2893fcdcb78a304101141561199957506001610703565b6097546001600160a01b03838116911614156119b757506001610703565b6001600160a01b0380841660009081526066602090815260408083209386168352929052205460ff16610d87565b6001600160a01b038416611a0b5760405162461bcd60e51b81526004016106d59061357b565b33611a1b818787611789886126ea565b60008481526065602090815260408083206001600160a01b038a16845290915290205483811015611a5e5760405162461bcd60e51b81526004016106d5906135c0565b60008581526065602090815260408083206001600160a01b038b8116855292528083208785039055908816825281208054869290611a9d90849061353e565b909155505060408051868152602081018690526001600160a01b03808916928a821692918616917fc3d58168c5ae7397731d063d5bbf3d657854427343f4c083240f7aacaa2d0f62910160405180910390a4611afd828888888888612735565b50505050505050565b6001600160a01b038316611b2c5760405162461bcd60e51b81526004016106d59061360a565b33611b5b81856000611b3d876126ea565b611b46876126ea565b60405180602001604052806000815250612001565b60008381526065602090815260408083206001600160a01b038816845290915290205482811015611b9e5760405162461bcd60e51b81526004016106d59061364d565b60008481526065602090815260408083206001600160a01b03898116808652918452828520888703905582518981529384018890529092908616917fc3d58168c5ae7397731d063d5bbf3d657854427343f4c083240f7aacaa2d0f62910160405180910390a45050505050565b600054610100900460ff1680611c24575060005460ff16155b611c405760405162461bcd60e51b81526004016106d5906133f2565b600054610100900460ff16158015611c62576000805461ffff19166101011790555b611c6a6127ff565b611c726127ff565b611c7b82612869565b8015610736576000805461ff00191690555050565b600054610100900460ff1680611ca9575060005460ff16155b611cc55760405162461bcd60e51b81526004016106d5906133f2565b600054610100900460ff16158015611ce7576000805461ffff19166101011790555b611cef6127ff565b611cf76127ff565b611cff6127ff565b80156109f5576000805461ff001916905550565b600054610100900460ff1680611d2c575060005460ff16155b611d485760405162461bcd60e51b81526004016106d5906133f2565b600054610100900460ff16158015611cef576000805461ffff1916610101179055611cf76127ff565b60fc805460ff1916600190811790915562093a8060fd55611da79073714df076992f95e452a345cd8289882cec6ab82f9061182a565b565b611db1611c90565b611dbc6000336112f0565b611dd4600080516020613921833981519152336112f0565b611dec600080516020613901833981519152336112f0565b611da77f189ab7a9244df0848122154315af71fe140f3db0fe014031783b0946b8c9d2e3336112f0565b60006001600160e01b03198216636cdb3d1360e11b1480611e4757506001600160e01b031982166303a24d0760e21b145b8061070357506301ffc9a760e01b6001600160e01b0319831614610703565b60606000611e75836002613691565b611e8090600261353e565b6001600160401b03811115611e9757611e97612b76565b6040519080825280601f01601f191660200182016040528015611ec1576020820181803683370190505b509050600360fc1b81600081518110611edc57611edc613362565b60200101906001600160f81b031916908160001a905350600f60fb1b81600181518110611f0b57611f0b613362565b60200101906001600160f81b031916908160001a9053506000611f2f846002613691565b611f3a90600161353e565b90505b6001811115611fb2576f181899199a1a9b1b9c1cb0b131b232b360811b85600f1660108110611f6e57611f6e613362565b1a60f81b828281518110611f8457611f84613362565b60200101906001600160f81b031916908160001a90535060049490941c93611fab816136b0565b9050611f3d565b508315610d875760405162461bcd60e51b815260206004820181905260248201527f537472696e67733a20686578206c656e67746820696e73756666696369656e7460448201526064016106d5565b60005b82518110156120ae5782818151811061201f5761201f613362565b602002602001015160011461209c5760405162461bcd60e51b815260206004820152603b60248201527f45616368206c616e6420697320756e697175652c20536f20746865726520697360448201527f206e6f207472616e736665722067726561746572207468616e2031000000000060648201526084016106d5565b806120a68161338e565b915050612004565b5060005b83518110156122215760008482815181106120cf576120cf613362565b602002602001015190506000610165600083815260200190815260200160002080546120fa9061328f565b80601f01602080910402602001604051908101604052809291908181526020018280546121269061328f565b80156121735780601f1061214857610100808354040283529160200191612173565b820191906000526020600020905b81548152906001019060200180831161215657829003601f168201915b505050505090507f1cb6cb558a2b0eaf4f7c8fe6b68ffffce2f021379f9fa31ee9cbee72ba079f03818051906020012014156121b4576121b48888846128c9565b6001600160a01b03871661220c576000828152610165602052604081206121da91612ab7565b6001610166600083805190602001208152602001908152602001600020600082825461220691906136c7565b90915550505b505080806122199061338e565b9150506120b2565b506001600160a01b0385166123aa576101648160405161224191906136de565b908152604051602091819003820181205460ff1691612262918491016136fa565b6040516020818303038152906040529061228f5760405162461bcd60e51b81526004016106d59190612cda565b5060005b83518110156123775761016560008583815181106122b3576122b3613362565b6020026020010151815260200190815260200160002080546122d49061328f565b1590506123235760405162461bcd60e51b815260206004820152601d60248201527f4d616b6520737572652065616368206c616e6420697320756e6971756500000060448201526064016106d5565b81610165600086848151811061233b5761233b613362565b602002602001015181526020019081526020016000209080519060200190612364929190612a33565b508061236f8161338e565b915050612293565b50825161016660008380519060200120815260200190815260200160002060008282546123a4919061353e565b90915550505b6112e8565b6001600160a01b0384163b156112e85760405163bc197c8160e01b81526001600160a01b0385169063bc197c81906123f3908990899088908890889060040161372c565b602060405180830381600087803b15801561240d57600080fd5b505af192505050801561243d575060408051601f3d908101601f1916820190925261243a9181019061378a565b60015b6124ea576124496137a7565b806308c379a01415612483575061245e6137c3565b806124695750612485565b8060405162461bcd60e51b81526004016106d59190612cda565b505b60405162461bcd60e51b815260206004820152603460248201527f455243313135353a207472616e7366657220746f206e6f6e20455243313135356044820152732932b1b2b4bb32b91034b6b83632b6b2b73a32b960611b60648201526084016106d5565b6001600160e01b0319811663bc197c8160e01b14611afd5760405162461bcd60e51b81526004016106d59061384c565b803b61257e5760405162461bcd60e51b815260206004820152602d60248201527f455243313936373a206e657720696d706c656d656e746174696f6e206973206e60448201526c1bdd08184818dbdb9d1c9858dd609a1b60648201526084016106d5565b7f360894a13ba1a3210667c828492db98dca3e2076cc3735a920a3ca505d382bbc80546001600160a01b0319166001600160a01b0392909216919091179055565b6060823b61261e5760405162461bcd60e51b815260206004820152602660248201527f416464726573733a2064656c65676174652063616c6c20746f206e6f6e2d636f6044820152651b9d1c9858dd60d21b60648201526084016106d5565b600080846001600160a01b03168460405161263991906136de565b600060405180830381855af49150503d8060008114612674576040519150601f19603f3d011682016040523d82523d6000602084013e612679565b606091505b50915091506126a182826040518060600160405280602781526020016138da602791396129ee565b95945050505050565b6126b38161251a565b6040516001600160a01b038216907fbc7cd75a20ee27fd9adebab32041f755214dbc6bffa90cc0225b39da2e5c2d3b90600090a250565b6040805160018082528183019092526060916000919060208083019080368337019050509050828160008151811061272457612724613362565b602090810291909101015292915050565b6001600160a01b0384163b156112e85760405163f23a6e6160e01b81526001600160a01b0385169063f23a6e61906127799089908990889088908890600401613894565b602060405180830381600087803b15801561279357600080fd5b505af19250505080156127c3575060408051601f3d908101601f191682019092526127c09181019061378a565b60015b6127cf576124496137a7565b6001600160e01b0319811663f23a6e6160e01b14611afd5760405162461bcd60e51b81526004016106d59061384c565b600054610100900460ff1680612818575060005460ff16155b6128345760405162461bcd60e51b81526004016106d5906133f2565b600054610100900460ff16158015611cff576000805461ffff191661010117905580156109f5576000805461ff001916905550565b600054610100900460ff1680612882575060005460ff16155b61289e5760405162461bcd60e51b81526004016106d5906133f2565b600054610100900460ff161580156128c0576000805461ffff19166101011790555b611c7b82610fd5565b60fc5460ff166128d857505050565b6001600160a01b0382163b156128ed57505050565b6001600160a01b038216600090815260fe602052604090205460ff161561291357505050565b600081815260ff60209081526040918290205491514283109261299e929091017f5468652063757272656e74204e465420697320696e207468652074726164696e81527f672070726f74656374696f6e20706572696f6420616e642063616e206265207460208201526a3930b232b21030b33a32b960a91b6040820152604b810191909152606b0190565b604051602081830303815290604052906129cb5760405162461bcd60e51b81526004016106d59190612cda565b5060fd546129da904290612a27565b600091825260ff6020526040909120555050565b606083156129fd575081610d87565b825115612a0d5782518084602001fd5b8160405162461bcd60e51b81526004016106d59190612cda565b6000610d87828461353e565b828054612a3f9061328f565b90600052602060002090601f016020900481019282612a615760008555612aa7565b82601f10612a7a57805160ff1916838001178555612aa7565b82800160010185558215612aa7579182015b82811115612aa7578251825591602001919060010190612a8c565b50612ab3929150612aed565b5090565b508054612ac39061328f565b6000825580601f10612ad3575050565b601f0160209004906000526020600020908101906109f591905b5b80821115612ab35760008155600101612aee565b6001600160a01b03811681146109f557600080fd5b60008060408385031215612b2a57600080fd5b8235612b3581612b02565b946020939093013593505050565b6001600160e01b0319811681146109f557600080fd5b600060208284031215612b6b57600080fd5b8135610d8781612b43565b634e487b7160e01b600052604160045260246000fd5b601f8201601f191681016001600160401b0381118282101715612bb157612bb1612b76565b6040525050565b60006001600160401b03831115612bd157612bd1612b76565b604051612be8601f8501601f191660200182612b8c565b809150838152848484011115612bfd57600080fd5b83836020830137600060208583010152509392505050565b600060208284031215612c2757600080fd5b81356001600160401b03811115612c3d57600080fd5b8201601f81018413612c4e57600080fd5b612c5d84823560208401612bb8565b949350505050565b600060208284031215612c7757600080fd5b5035919050565b60005b83811015612c99578181015183820152602001612c81565b83811115612ca8576000848401525b50505050565b60008151808452612cc6816020860160208601612c7e565b601f01601f19169290920160200192915050565b602081526000610d876020830184612cae565b60006001600160401b03821115612d0657612d06612b76565b5060051b60200190565b600082601f830112612d2157600080fd5b81356020612d2e82612ced565b604051612d3b8282612b8c565b83815260059390931b8501820192828101915086841115612d5b57600080fd5b8286015b84811015612d765780358352918301918301612d5f565b509695505050505050565b600082601f830112612d9257600080fd5b610d8783833560208501612bb8565b60008060008060808587031215612db757600080fd5b8435612dc281612b02565b935060208501356001600160401b0380821115612dde57600080fd5b612dea88838901612d10565b94506040870135915080821115612e0057600080fd5b612e0c88838901612d10565b93506060870135915080821115612e2257600080fd5b50612e2f87828801612d81565b91505092959194509250565b600080600080600060a08688031215612e5357600080fd5b8535612e5e81612b02565b94506020860135612e6e81612b02565b935060408601356001600160401b0380821115612e8a57600080fd5b612e9689838a01612d10565b94506060880135915080821115612eac57600080fd5b612eb889838a01612d10565b93506080880135915080821115612ece57600080fd5b50612edb88828901612d81565b9150509295509295909350565b60008060408385031215612efb57600080fd5b823591506020830135612f0d81612b02565b809150509250929050565b600060208284031215612f2a57600080fd5b8135610d8781612b02565b60008060408385031215612f4857600080fd5b82356001600160401b0380821115612f5f57600080fd5b818501915085601f830112612f7357600080fd5b81356020612f8082612ced565b604051612f8d8282612b8c565b83815260059390931b8501820192828101915089841115612fad57600080fd5b948201945b83861015612fd4578535612fc581612b02565b82529482019490820190612fb2565b96505086013592505080821115612fea57600080fd5b50612ff785828601612d10565b9150509250929050565b600081518084526020808501945080840160005b8381101561303157815187529582019590820190600101613015565b509495945050505050565b602081526000610d876020830184613001565b6000806040838503121561306257600080fd5b823561306d81612b02565b915060208301356001600160401b0381111561308857600080fd5b612ff785828601612d81565b6000806000606084860312156130a957600080fd5b83356130b481612b02565b925060208401356001600160401b03808211156130d057600080fd5b6130dc87838801612d10565b935060408601359150808211156130f257600080fd5b506130ff86828701612d10565b9150509250925092565b8035801515811461311957600080fd5b919050565b60006020828403121561313057600080fd5b610d8782613109565b6000806000806080858703121561314f57600080fd5b843561315a81612b02565b9350602085013592506040850135915060608501356001600160401b0381111561318357600080fd5b612e2f87828801612d81565b600080604083850312156131a257600080fd5b82356131ad81612b02565b91506131bb60208401613109565b90509250929050565b600080604083850312156131d757600080fd5b82356131e281612b02565b91506020830135612f0d81612b02565b600080600080600060a0868803121561320a57600080fd5b853561321581612b02565b9450602086013561322581612b02565b9350604086013592506060860135915060808601356001600160401b0381111561324e57600080fd5b612edb88828901612d81565b60008060006060848603121561326f57600080fd5b833561327a81612b02565b95602085013595506040909401359392505050565b600181811c908216806132a357607f821691505b602082108114156132c457634e487b7160e01b600052602260045260246000fd5b50919050565b6020808252602c908201527f46756e6374696f6e206d7573742062652063616c6c6564207468726f7567682060408201526b19195b1959d85d1958d85b1b60a21b606082015260800190565b6020808252602c908201527f46756e6374696f6e206d7573742062652063616c6c6564207468726f7567682060408201526b6163746976652070726f787960a01b606082015260800190565b634e487b7160e01b600052603260045260246000fd5b634e487b7160e01b600052601160045260246000fd5b60006000198214156133a2576133a2613378565b5060010190565b60208082526029908201527f455243313135353a2063616c6c6572206973206e6f74206f776e6572206e6f7260408201526808185c1c1c9bdd995960ba1b606082015260800190565b6020808252602e908201527f496e697469616c697a61626c653a20636f6e747261637420697320616c72656160408201526d191e481a5b9a5d1a585b1a5e995960921b606082015260800190565b7f416363657373436f6e74726f6c3a206163636f756e7420000000000000000000815260008351613478816017850160208801612c7e565b7001034b99036b4b9b9b4b733903937b6329607d1b60179184019182015283516134a9816028840160208801612c7e565b01602801949350505050565b60208082526021908201527f455243313135353a206d696e7420746f20746865207a65726f206164647265736040820152607360f81b606082015260800190565b60208082526028908201527f455243313135353a2069647320616e6420616d6f756e7473206c656e677468206040820152670dad2e6dac2e8c6d60c31b606082015260800190565b6000821982111561355157613551613378565b500190565b6040815260006135696040830185613001565b82810360208401526126a18185613001565b60208082526025908201527f455243313135353a207472616e7366657220746f20746865207a65726f206164604082015264647265737360d81b606082015260800190565b6020808252602a908201527f455243313135353a20696e73756666696369656e742062616c616e636520666f60408201526939103a3930b739b332b960b11b606082015260800190565b60208082526023908201527f455243313135353a206275726e2066726f6d20746865207a65726f206164647260408201526265737360e81b606082015260800190565b60208082526024908201527f455243313135353a206275726e20616d6f756e7420657863656564732062616c604082015263616e636560e01b606082015260800190565b60008160001904831182151516156136ab576136ab613378565b500290565b6000816136bf576136bf613378565b506000190190565b6000828210156136d9576136d9613378565b500390565b600082516136f0818460208701612c7e565b9190910192915050565b6000825161370c818460208701612c7e565b6d1a5cc81b9bdd081cdd5c1c1bdc9d60921b920191825250600e01919050565b6001600160a01b0386811682528516602082015260a06040820181905260009061375890830186613001565b828103606084015261376a8186613001565b9050828103608084015261377e8185612cae565b98975050505050505050565b60006020828403121561379c57600080fd5b8151610d8781612b43565b600060033d11156137c05760046000803e5060005160e01c5b90565b600060443d10156137d15790565b6040516003193d81016004833e81513d6001600160401b03816024840111818411171561380057505050505090565b82850191508151818111156138185750505050505090565b843d87010160208285010111156138325750505050505090565b61384160208286010187612b8c565b509095945050505050565b60208082526028908201527f455243313135353a204552433131353552656365697665722072656a656374656040820152676420746f6b656e7360c01b606082015260800190565b6001600160a01b03868116825285166020820152604081018490526060810183905260a0608082018190526000906138ce90830184612cae565b97965050505050505056fe416464726573733a206c6f772d6c6576656c2064656c65676174652063616c6c206661696c65649f2df0fed2c77648de5860a4cc508cd0818c85b8b8a1ab4ceeef8d981c8956a6f5eb84615c2a00ecaf817d13794ebd6299c9e01c395bf4018453f13f577f5449a264697066735822122087c683262292b77c0d6a6b3e73ede531e5cecf28306bd98253270aa16522d59764736f6c63430008090033496e697469616c697a61626c653a20636f6e747261637420697320616c726561",
  "immutableReferences": {
    "897": [
      {
        "length": 32,
        "start": 2362
      },
      {
        "length": 32,
        "start": 2426
      },
      {
        "length": 32,
        "start": 2860
      },
      {
        "length": 32,
        "start": 2924
      }
    ]
  },
  "source": "// SPDX-License-Identifier: MIT\npragma solidity 0.8.9;\n\nimport \"@openzeppelin/contracts-upgradeable/token/ERC1155/ERC1155Upgradeable.sol\";\nimport \"@openzeppelin/contracts-upgradeable/access/AccessControlUpgradeable.sol\";\nimport \"@openzeppelin/contracts-upgradeable/token/ERC1155/extensions/ERC1155BurnableUpgradeable.sol\";\nimport \"@openzeppelin/contracts-upgradeable/proxy/utils/Initializable.sol\";\nimport \"@openzeppelin/contracts-upgradeable/proxy/utils/UUPSUpgradeable.sol\";\nimport \"./MelandNFTFreeze.sol\";\nimport \"./MelandTierAddressStore.sol\";\nimport \"./MelandAccessRoles.sol\";\nimport \"./MelandTier.sol\";\n\ncontract Meland1155Land is\n    Initializable,\n    ERC1155Upgradeable,\n    MelandTierAddressStore,\n    MelandAccessRoles,\n    ERC1155BurnableUpgradeable,\n    MelandNFTFreeze,\n    UUPSUpgradeable\n{\n\n    mapping(string => bool) public supportLandtypes;\n    mapping(uint256 => string) public landtypeById;\n    mapping(bytes32 => uint256) public totalSupplyByLandtype;\n\n    /// @custom:oz-upgrades-unsafe-allow constructor\n    constructor() initializer {}\n\n    function initialize(string memory uri) public initializer {\n        __ERC1155_init(uri);\n        __ERC1155Burnable_init();\n        __UUPSUpgradeable_init();\n        __MelandNFTFreeze_init();\n        __MelandAccessRoles_init();\n\n        supportLandtypes[\"vipland\"] = true;\n        supportLandtypes[\"ticketland\"] = true;\n    }\n\n    function setURI(string memory newuri) public onlyRole(GM_ROLE) {\n        _setURI(newuri);\n    }\n\n    function isApprovedForAll(address _owner, address _operator)\n        public\n        view\n        override(ERC1155Upgradeable, MelandTierAddressStore)\n        returns (bool isOperator)\n    {\n        return super.isApprovedForAll(_owner, _operator);\n    }\n\n    function mint(\n        address account,\n        uint256 id,\n        uint256 amount,\n        bytes memory landtype\n    ) public onlyRole(MINTER_ROLE) {\n        _mint(account, id, amount, landtype);\n    }\n\n    // Add or cancel freeze white list\n    function setFreezeWhiteList(address _account, bool _bool) onlyRole(GM_ROLE) public {\n        _setFreezeWhite(_account, _bool);\n    }\n\n    function setMelandTier(MelandTier _tierAddress) public onlyRole(GM_ROLE) {\n        _setMelandTier(_tierAddress);\n    }\n    \n    // Enable or Disable Freeze feature.\n    function setFreezeEnabled(bool _bool) onlyRole(GM_ROLE) public {\n        _setFreezeEnabled(_bool);\n    }\n\n    function mintBatch(\n        address to,\n        uint256[] memory ids,\n        uint256[] memory amounts,\n        bytes memory landtype\n    ) public onlyRole(MINTER_ROLE) {\n        _mintBatch(to, ids, amounts, landtype);\n    }\n\n    function _authorizeUpgrade(address newImplementation)\n        internal\n        override\n        onlyRole(UPGRADER_ROLE)\n    {}\n\n    function totalSupply(uint256 id) internal view returns (uint256) {\n        string memory lantype = landtypeById[id];\n        return totalSupplyByLandtype[keccak256(bytes(lantype))];\n    }\n\n    // The following functions are overrides required by Solidity.\n\n    function supportsInterface(bytes4 interfaceId)\n        public\n        view\n        override(ERC1155Upgradeable, AccessControlUpgradeable)\n        returns (bool)\n    {\n        return super.supportsInterface(interfaceId);\n    }\n\n    // The following functions are overrides required by Solidity.\n    function _beforeTokenTransfer(\n        address operator,\n        address from,\n        address to,\n        uint256[] memory ids,\n        uint256[] memory amounts,\n        bytes memory maybelandtype\n    ) internal override(ERC1155Upgradeable) {\n        for (uint256 i = 0; i < amounts.length; i++) {\n            require(\n                amounts[i] == 1,\n                \"Each land is unique, So there is no transfer greater than 1\"\n            );\n        }\n\n        for (uint256 i = 0; i < ids.length; i++) {\n            uint256 id = ids[i];\n\n            // check freeze\n            string memory landtype = landtypeById[id];\n\n            if (keccak256(bytes(landtype)) == keccak256(\"ticketland\")) {\n                _freezeProtect(from, to, id);\n            }\n\n            // sub totalSupply when burn token\n            if (to == address(0)) {\n\n                // clear lantyoe when burn\n                delete landtypeById[id];\n                totalSupplyByLandtype[keccak256(bytes(landtype))] -= 1;\n            }\n        }\n\n        // if is mint\n        // check land type is support\n        if (from == address(0)) {\n            require(\n                supportLandtypes[string(maybelandtype)],\n                string(abi.encodePacked(maybelandtype, \"is not support\"))\n            );\n\n            for (uint256 i = 0; i < ids.length; i++) {\n                require(\n                    bytes(landtypeById[ids[i]]).length == 0,\n                    \"Make sure each land is unique\"\n                );\n                landtypeById[ids[i]] = string(maybelandtype);\n            }\n\n            totalSupplyByLandtype[keccak256(maybelandtype)] += ids.length;\n        }\n\n        super._beforeTokenTransfer(operator, from, to, ids, amounts, maybelandtype);\n    }\n}\n",
  "sourcePath": "/Users/alberthuang/code/icw/meland/contracts/Meland1155Land.sol",
  "compiler": {
    "name": "solc",
    "version": "0.8.9+commit.e5eed63a.Emscripten.clang"
  },
  "schemaVersion": "3.4.3",
  "updatedAt": "2021-12-19T13:18:52.214Z",
  "devdoc": {
    "kind": "dev",
    "methods": {
      "balanceOf(address,uint256)": {
        "details": "See {IERC1155-balanceOf}. Requirements: - `account` cannot be the zero address."
      },
      "balanceOfBatch(address[],uint256[])": {
        "details": "See {IERC1155-balanceOfBatch}. Requirements: - `accounts` and `ids` must have the same length."
      },
      "constructor": {
        "custom:oz-upgrades-unsafe-allow": "constructor"
      },
      "getRoleAdmin(bytes32)": {
        "details": "Returns the admin role that controls `role`. See {grantRole} and {revokeRole}. To change a role's admin, use {_setRoleAdmin}."
      },
      "grantRole(bytes32,address)": {
        "details": "Grants `role` to `account`. If `account` had not been already granted `role`, emits a {RoleGranted} event. Requirements: - the caller must have ``role``'s admin role."
      },
      "hasRole(bytes32,address)": {
        "details": "Returns `true` if `account` has been granted `role`."
      },
      "renounceRole(bytes32,address)": {
        "details": "Revokes `role` from the calling account. Roles are often managed via {grantRole} and {revokeRole}: this function's purpose is to provide a mechanism for accounts to lose their privileges if they are compromised (such as when a trusted device is misplaced). If the calling account had been revoked `role`, emits a {RoleRevoked} event. Requirements: - the caller must be `account`."
      },
      "revokeRole(bytes32,address)": {
        "details": "Revokes `role` from `account`. If `account` had been granted `role`, emits a {RoleRevoked} event. Requirements: - the caller must have ``role``'s admin role."
      },
      "safeBatchTransferFrom(address,address,uint256[],uint256[],bytes)": {
        "details": "See {IERC1155-safeBatchTransferFrom}."
      },
      "safeTransferFrom(address,address,uint256,uint256,bytes)": {
        "details": "See {IERC1155-safeTransferFrom}."
      },
      "setApprovalForAll(address,bool)": {
        "details": "See {IERC1155-setApprovalForAll}."
      },
      "upgradeTo(address)": {
        "details": "Upgrade the implementation of the proxy to `newImplementation`. Calls {_authorizeUpgrade}. Emits an {Upgraded} event."
      },
      "upgradeToAndCall(address,bytes)": {
        "details": "Upgrade the implementation of the proxy to `newImplementation`, and subsequently execute the function call encoded in `data`. Calls {_authorizeUpgrade}. Emits an {Upgraded} event."
      },
      "uri(uint256)": {
        "details": "See {IERC1155MetadataURI-uri}. This implementation returns the same URI for *all* token types. It relies on the token type ID substitution mechanism https://eips.ethereum.org/EIPS/eip-1155#metadata[defined in the EIP]. Clients calling this function must replace the `\\{id\\}` substring with the actual token type ID."
      }
    },
    "version": 1
  },
  "userdoc": {
    "kind": "user",
    "methods": {},
    "version": 1
  }
}