{"contractName":"MelandTier","abi":[{"anonymous":false,"inputs":[{"indexed":false,"internalType":"address","name":"previousAdmin","type":"address"},{"indexed":false,"internalType":"address","name":"newAdmin","type":"address"}],"name":"AdminChanged","type":"event"},{"anonymous":false,"inputs":[{"indexed":true,"internalType":"address","name":"account","type":"address"},{"indexed":true,"internalType":"address","name":"operator","type":"address"},{"indexed":false,"internalType":"bool","name":"approved","type":"bool"}],"name":"ApprovalForAll","type":"event"},{"anonymous":false,"inputs":[{"indexed":true,"internalType":"address","name":"beacon","type":"address"}],"name":"BeaconUpgraded","type":"event"},{"anonymous":false,"inputs":[{"indexed":true,"internalType":"uint256","name":"rewardId","type":"uint256"},{"indexed":true,"internalType":"uint256","name":"erc1155RewardId","type":"uint256"},{"components":[{"internalType":"contract IERC1155Upgradeable","name":"erc1155","type":"address"},{"internalType":"uint256[]","name":"tokenIds","type":"uint256[]"},{"internalType":"uint256[]","name":"amounts","type":"uint256[]"}],"indexed":false,"internalType":"struct MelandTierStorage.ERC1155Reward","name":"erc1155reward","type":"tuple"}],"name":"CreateRewardERC1155","type":"event"},{"anonymous":false,"inputs":[{"indexed":true,"internalType":"uint256","name":"rewardId","type":"uint256"},{"indexed":true,"internalType":"uint256","name":"erc20RewardId","type":"uint256"},{"components":[{"internalType":"contract IERC20Upgradeable","name":"erc20","type":"address"},{"internalType":"uint256","name":"amount","type":"uint256"}],"indexed":false,"internalType":"struct MelandTierStorage.ERC20Reward","name":"erc20reward","type":"tuple"}],"name":"CreateRewardERC20","type":"event"},{"anonymous":false,"inputs":[{"indexed":true,"internalType":"uint256","name":"rewardId","type":"uint256"},{"indexed":true,"internalType":"uint256","name":"erc721RewardId","type":"uint256"},{"components":[{"internalType":"contract IERC721Upgradeable","name":"erc721","type":"address"},{"internalType":"uint256","name":"tokenId","type":"uint256"}],"indexed":false,"internalType":"struct MelandTierStorage.ERC721Reward","name":"erc721reward","type":"tuple"}],"name":"CreateRewardERC721","type":"event"},{"anonymous":false,"inputs":[{"indexed":false,"internalType":"uint256[2]","name":"rewardIds","type":"uint256[2]"}],"name":"OpenTier","type":"event"},{"anonymous":false,"inputs":[{"indexed":true,"internalType":"uint256","name":"cid","type":"uint256"}],"name":"RewaardPoolUpdate","type":"event"},{"anonymous":false,"inputs":[{"indexed":true,"internalType":"bytes32","name":"role","type":"bytes32"},{"indexed":true,"internalType":"bytes32","name":"previousAdminRole","type":"bytes32"},{"indexed":true,"internalType":"bytes32","name":"newAdminRole","type":"bytes32"}],"name":"RoleAdminChanged","type":"event"},{"anonymous":false,"inputs":[{"indexed":true,"internalType":"bytes32","name":"role","type":"bytes32"},{"indexed":true,"internalType":"address","name":"account","type":"address"},{"indexed":true,"internalType":"address","name":"sender","type":"address"}],"name":"RoleGranted","type":"event"},{"anonymous":false,"inputs":[{"indexed":true,"internalType":"bytes32","name":"role","type":"bytes32"},{"indexed":true,"internalType":"address","name":"account","type":"address"},{"indexed":true,"internalType":"address","name":"sender","type":"address"}],"name":"RoleRevoked","type":"event"},{"anonymous":false,"inputs":[{"indexed":true,"internalType":"uint256","name":"cid","type":"uint256"}],"name":"TierStartSale","type":"event"},{"anonymous":false,"inputs":[{"indexed":true,"internalType":"address","name":"operator","type":"address"},{"indexed":true,"internalType":"address","name":"from","type":"address"},{"indexed":true,"internalType":"address","name":"to","type":"address"},{"indexed":false,"internalType":"uint256[]","name":"ids","type":"uint256[]"},{"indexed":false,"internalType":"uint256[]","name":"values","type":"uint256[]"}],"name":"TransferBatch","type":"event"},{"anonymous":false,"inputs":[{"indexed":true,"internalType":"address","name":"operator","type":"address"},{"indexed":true,"internalType":"address","name":"from","type":"address"},{"indexed":true,"internalType":"address","name":"to","type":"address"},{"indexed":false,"internalType":"uint256","name":"id","type":"uint256"},{"indexed":false,"internalType":"uint256","name":"value","type":"uint256"}],"name":"TransferSingle","type":"event"},{"anonymous":false,"inputs":[{"indexed":false,"internalType":"string","name":"value","type":"string"},{"indexed":true,"internalType":"uint256","name":"id","type":"uint256"}],"name":"URI","type":"event"},{"anonymous":false,"inputs":[{"indexed":true,"internalType":"address","name":"implementation","type":"address"}],"name":"Upgraded","type":"event"},{"inputs":[],"name":"DEFAULT_ADMIN_ROLE","outputs":[{"internalType":"bytes32","name":"","type":"bytes32"}],"stateMutability":"view","type":"function"},{"inputs":[],"name":"GM_ROLE","outputs":[{"internalType":"bytes32","name":"","type":"bytes32"}],"stateMutability":"view","type":"function"},{"inputs":[],"name":"MINTER_ROLE","outputs":[{"internalType":"bytes32","name":"","type":"bytes32"}],"stateMutability":"view","type":"function"},{"inputs":[],"name":"UPGRADER_ROLE","outputs":[{"internalType":"bytes32","name":"","type":"bytes32"}],"stateMutability":"view","type":"function"},{"inputs":[{"internalType":"uint256","name":"cid","type":"uint256"},{"components":[{"internalType":"contract IERC1155Upgradeable","name":"erc1155","type":"address"},{"internalType":"uint256[]","name":"tokenIds","type":"uint256[]"},{"internalType":"uint256[]","name":"amounts","type":"uint256[]"}],"internalType":"struct MelandTierStorage.ERC1155Reward[]","name":"erc1155rewards","type":"tuple[]"},{"components":[{"internalType":"contract IERC721Upgradeable","name":"erc721","type":"address"},{"internalType":"uint256","name":"tokenId","type":"uint256"}],"internalType":"struct MelandTierStorage.ERC721Reward[]","name":"erc721rewards","type":"tuple[]"},{"components":[{"internalType":"contract IERC20Upgradeable","name":"erc20","type":"address"},{"internalType":"uint256","name":"amount","type":"uint256"}],"internalType":"struct MelandTierStorage.ERC20Reward[]","name":"erc20rewards","type":"tuple[]"}],"name":"add100PercentReward","outputs":[],"stateMutability":"nonpayable","type":"function"},{"inputs":[{"internalType":"uint256","name":"cid","type":"uint256"},{"components":[{"internalType":"contract IERC1155Upgradeable","name":"erc1155","type":"address"},{"internalType":"uint256[]","name":"tokenIds","type":"uint256[]"},{"internalType":"uint256[]","name":"amounts","type":"uint256[]"}],"internalType":"struct MelandTierStorage.ERC1155Reward[]","name":"erc1155rewards","type":"tuple[]"},{"components":[{"internalType":"contract IERC721Upgradeable","name":"erc721","type":"address"},{"internalType":"uint256","name":"tokenId","type":"uint256"}],"internalType":"struct MelandTierStorage.ERC721Reward[]","name":"erc721rewards","type":"tuple[]"},{"components":[{"internalType":"contract IERC20Upgradeable","name":"erc20","type":"address"},{"internalType":"uint256","name":"amount","type":"uint256"}],"internalType":"struct MelandTierStorage.ERC20Reward[]","name":"erc20rewards","type":"tuple[]"}],"name":"addOptionReward","outputs":[],"stateMutability":"nonpayable","type":"function"},{"inputs":[{"internalType":"address","name":"account","type":"address"},{"internalType":"uint256","name":"id","type":"uint256"}],"name":"balanceOf","outputs":[{"internalType":"uint256","name":"","type":"uint256"}],"stateMutability":"view","type":"function"},{"inputs":[{"internalType":"address[]","name":"accounts","type":"address[]"},{"internalType":"uint256[]","name":"ids","type":"uint256[]"}],"name":"balanceOfBatch","outputs":[{"internalType":"uint256[]","name":"","type":"uint256[]"}],"stateMutability":"view","type":"function"},{"inputs":[{"internalType":"address","name":"account","type":"address"},{"internalType":"uint256","name":"id","type":"uint256"},{"internalType":"uint256","name":"value","type":"uint256"}],"name":"burn","outputs":[],"stateMutability":"nonpayable","type":"function"},{"inputs":[{"internalType":"address","name":"account","type":"address"},{"internalType":"uint256[]","name":"ids","type":"uint256[]"},{"internalType":"uint256[]","name":"values","type":"uint256[]"}],"name":"burnBatch","outputs":[],"stateMutability":"nonpayable","type":"function"},{"inputs":[{"internalType":"uint256","name":"","type":"uint256"}],"name":"erc1155RewardById","outputs":[{"internalType":"contract IERC1155Upgradeable","name":"erc1155","type":"address"}],"stateMutability":"view","type":"function"},{"inputs":[{"internalType":"uint256","name":"","type":"uint256"}],"name":"erc20RewardById","outputs":[{"internalType":"contract IERC20Upgradeable","name":"erc20","type":"address"},{"internalType":"uint256","name":"amount","type":"uint256"}],"stateMutability":"view","type":"function"},{"inputs":[{"internalType":"uint256","name":"","type":"uint256"}],"name":"erc721RewardById","outputs":[{"internalType":"contract IERC721Upgradeable","name":"erc721","type":"address"},{"internalType":"uint256","name":"tokenId","type":"uint256"}],"stateMutability":"view","type":"function"},{"inputs":[{"internalType":"uint256","name":"cid","type":"uint256"},{"components":[{"internalType":"contract IERC1155Upgradeable","name":"erc1155","type":"address"},{"internalType":"uint256[]","name":"tokenIds","type":"uint256[]"},{"internalType":"uint256[]","name":"amounts","type":"uint256[]"}],"internalType":"struct MelandTierStorage.ERC1155Reward[]","name":"erc1155rewards","type":"tuple[]"},{"components":[{"internalType":"contract IERC721Upgradeable","name":"erc721","type":"address"},{"internalType":"uint256","name":"tokenId","type":"uint256"}],"internalType":"struct MelandTierStorage.ERC721Reward[]","name":"erc721rewards","type":"tuple[]"},{"components":[{"internalType":"contract IERC20Upgradeable","name":"erc20","type":"address"},{"internalType":"uint256","name":"amount","type":"uint256"}],"internalType":"struct MelandTierStorage.ERC20Reward[]","name":"erc20rewards","type":"tuple[]"}],"name":"fixed100PercentReward","outputs":[],"stateMutability":"nonpayable","type":"function"},{"inputs":[{"internalType":"uint256","name":"id","type":"uint256"}],"name":"getCidByTokenId","outputs":[{"internalType":"uint256","name":"","type":"uint256"}],"stateMutability":"view","type":"function"},{"inputs":[{"internalType":"bytes32","name":"role","type":"bytes32"}],"name":"getRoleAdmin","outputs":[{"internalType":"bytes32","name":"","type":"bytes32"}],"stateMutability":"view","type":"function"},{"inputs":[{"internalType":"bytes32","name":"role","type":"bytes32"},{"internalType":"address","name":"account","type":"address"}],"name":"grantRole","outputs":[],"stateMutability":"nonpayable","type":"function"},{"inputs":[{"internalType":"bytes32","name":"role","type":"bytes32"},{"internalType":"address","name":"account","type":"address"}],"name":"hasRole","outputs":[{"internalType":"bool","name":"","type":"bool"}],"stateMutability":"view","type":"function"},{"inputs":[{"internalType":"address","name":"","type":"address"},{"internalType":"address","name":"","type":"address"},{"internalType":"uint256[]","name":"","type":"uint256[]"},{"internalType":"uint256[]","name":"","type":"uint256[]"},{"internalType":"bytes","name":"","type":"bytes"}],"name":"onERC1155BatchReceived","outputs":[{"internalType":"bytes4","name":"","type":"bytes4"}],"stateMutability":"nonpayable","type":"function"},{"inputs":[{"internalType":"address","name":"","type":"address"},{"internalType":"address","name":"","type":"address"},{"internalType":"uint256","name":"","type":"uint256"},{"internalType":"uint256","name":"","type":"uint256"},{"internalType":"bytes","name":"","type":"bytes"}],"name":"onERC1155Received","outputs":[{"internalType":"bytes4","name":"","type":"bytes4"}],"stateMutability":"nonpayable","type":"function"},{"inputs":[{"internalType":"bytes32","name":"role","type":"bytes32"},{"internalType":"address","name":"account","type":"address"}],"name":"renounceRole","outputs":[],"stateMutability":"nonpayable","type":"function"},{"inputs":[{"internalType":"bytes32","name":"role","type":"bytes32"},{"internalType":"address","name":"account","type":"address"}],"name":"revokeRole","outputs":[],"stateMutability":"nonpayable","type":"function"},{"inputs":[{"internalType":"address","name":"from","type":"address"},{"internalType":"address","name":"to","type":"address"},{"internalType":"uint256[]","name":"ids","type":"uint256[]"},{"internalType":"uint256[]","name":"amounts","type":"uint256[]"},{"internalType":"bytes","name":"data","type":"bytes"}],"name":"safeBatchTransferFrom","outputs":[],"stateMutability":"nonpayable","type":"function"},{"inputs":[{"internalType":"address","name":"from","type":"address"},{"internalType":"address","name":"to","type":"address"},{"internalType":"uint256","name":"id","type":"uint256"},{"internalType":"uint256","name":"amount","type":"uint256"},{"internalType":"bytes","name":"data","type":"bytes"}],"name":"safeTransferFrom","outputs":[],"stateMutability":"nonpayable","type":"function"},{"inputs":[{"internalType":"address","name":"operator","type":"address"},{"internalType":"bool","name":"approved","type":"bool"}],"name":"setApprovalForAll","outputs":[],"stateMutability":"nonpayable","type":"function"},{"inputs":[{"internalType":"uint256","name":"id","type":"uint256"}],"name":"totalSupply","outputs":[{"internalType":"uint256","name":"","type":"uint256"}],"stateMutability":"view","type":"function"},{"inputs":[{"internalType":"uint256","name":"cid","type":"uint256"}],"name":"totalSupplyByCId","outputs":[{"internalType":"uint256","name":"","type":"uint256"}],"stateMutability":"view","type":"function"},{"inputs":[{"internalType":"address","name":"newImplementation","type":"address"}],"name":"upgradeTo","outputs":[],"stateMutability":"nonpayable","type":"function"},{"inputs":[{"internalType":"address","name":"newImplementation","type":"address"},{"internalType":"bytes","name":"data","type":"bytes"}],"name":"upgradeToAndCall","outputs":[],"stateMutability":"payable","type":"function"},{"inputs":[{"internalType":"uint256","name":"id","type":"uint256"}],"name":"uri","outputs":[{"internalType":"string","name":"","type":"string"}],"stateMutability":"view","type":"function"},{"inputs":[{"internalType":"string","name":"uri","type":"string"}],"name":"initialize","outputs":[],"stateMutability":"nonpayable","type":"function"},{"inputs":[{"internalType":"string","name":"newuri","type":"string"}],"name":"setURI","outputs":[],"stateMutability":"nonpayable","type":"function"},{"inputs":[{"internalType":"address","name":"account","type":"address"},{"internalType":"uint256","name":"cid","type":"uint256"},{"internalType":"uint256","name":"amount","type":"uint256"},{"internalType":"bytes","name":"data","type":"bytes"}],"name":"mint","outputs":[],"stateMutability":"nonpayable","type":"function"},{"inputs":[{"internalType":"address","name":"_owner","type":"address"},{"internalType":"address","name":"_operator","type":"address"}],"name":"isApprovedForAll","outputs":[{"internalType":"bool","name":"isOperator","type":"bool"}],"stateMutability":"view","type":"function"},{"inputs":[{"internalType":"uint256","name":"id","type":"uint256"}],"name":"getAllRewardsById","outputs":[{"components":[{"internalType":"contract IERC1155Upgradeable","name":"erc1155","type":"address"},{"internalType":"uint256[]","name":"tokenIds","type":"uint256[]"},{"internalType":"uint256[]","name":"amounts","type":"uint256[]"}],"internalType":"struct MelandTierStorage.ERC1155Reward[]","name":"erc1155rewards","type":"tuple[]"},{"components":[{"internalType":"contract IERC721Upgradeable","name":"erc721","type":"address"},{"internalType":"uint256","name":"tokenId","type":"uint256"}],"internalType":"struct MelandTierStorage.ERC721Reward[]","name":"erc721rewards","type":"tuple[]"},{"components":[{"internalType":"contract IERC20Upgradeable","name":"erc20","type":"address"},{"internalType":"uint256","name":"amount","type":"uint256"}],"internalType":"struct MelandTierStorage.ERC20Reward[]","name":"erc20rewards","type":"tuple[]"}],"stateMutability":"view","type":"function"},{"inputs":[{"internalType":"uint256","name":"id","type":"uint256"}],"name":"openTier","outputs":[{"internalType":"uint256[2]","name":"returnRewardIds","type":"uint256[2]"}],"stateMutability":"nonpayable","type":"function"},{"inputs":[{"internalType":"uint256","name":"cid","type":"uint256"}],"name":"startSale","outputs":[],"stateMutability":"nonpayable","type":"function"},{"inputs":[{"internalType":"bytes4","name":"interfaceId","type":"bytes4"}],"name":"supportsInterface","outputs":[{"internalType":"bool","name":"","type":"bool"}],"stateMutability":"view","type":"function"}],"bytecode":"0x60a06040523060805234801561001457600080fd5b50608051614e8861004560003960008181610acd01528181610b0d0152818161104001526110800152614e886000f3fe6080604052600436106102245760003560e01c80637672f2b511610123578063d4a31393116100ab578063f23a6e611161006f578063f23a6e6114610780578063f242432a146107ac578063f5298aca146107cc578063f62d1888146107ec578063f72c0d8b1461080c57600080fd5b8063d4a31393146106cc578063d5391393146106ec578063d547741f14610720578063e1e9646a14610740578063e985e9c51461076057600080fd5b8063bc197c81116100f2578063bc197c811461059a578063bd85b039146105df578063c14ee0aa146105ff578063d0a7917a1461065e578063d31863241461069e57600080fd5b80637672f2b5146104f757806391d1485414610545578063a217fddf14610565578063a22cb4651461057a57600080fd5b806336568abe116101b15780634f1ef286116101755780634f1ef2861461045557806357587f3f14610468578063579460ca146104885780636b20c454146104b7578063731133e9146104d757600080fd5b806336568abe1461038d5780633659cfe6146103ad578063384c6f89146103cd5780633ef780bc146103fa5780634e1273f41461042857600080fd5b80630e89341c116101f85780630e89341c146102ce578063248a9ca3146102fb5780632eb2c2d61461032b5780632f2ff15d1461034b57806330c7be2c1461036b57600080fd5b8062fdd58e1461022957806301ffc9a71461025c57806302fe53051461028c5780630e3ab61d146102ae575b600080fd5b34801561023557600080fd5b50610249610244366004613ab3565b610840565b6040519081526020015b60405180910390f35b34801561026857600080fd5b5061027c610277366004613af5565b6108dc565b6040519015158152602001610253565b34801561029857600080fd5b506102ac6102a7366004613bf5565b6108e7565b005b3480156102ba57600080fd5b506102ac6102c9366004613c45565b61090d565b3480156102da57600080fd5b506102ee6102e9366004613c45565b61092f565b6040516102539190613cb6565b34801561030757600080fd5b50610249610316366004613c45565b60009081526065602052604090206001015490565b34801561033757600080fd5b506102ac610346366004613d7d565b610986565b34801561035757600080fd5b506102ac610366366004613e2a565b610a1d565b34801561037757600080fd5b50610249600080516020614e3383398151915281565b34801561039957600080fd5b506102ac6103a8366004613e2a565b610a48565b3480156103b957600080fd5b506102ac6103c8366004613e5a565b610ac2565b3480156103d957600080fd5b506103ed6103e8366004613c45565b610b8b565b6040516102539190613e77565b34801561040657600080fd5b50610249610415366004613c45565b6000908152610109602052604090205490565b34801561043457600080fd5b50610448610443366004613ea8565b610f0c565b6040516102539190613faf565b6102ac610463366004613fc2565b611035565b34801561047457600080fd5b506102ac6104833660046140a8565b6110eb565b34801561049457600080fd5b506104a86104a3366004613c45565b611171565b604051610253939291906142b7565b3480156104c357600080fd5b506102ac6104d2366004614382565b611525565b3480156104e357600080fd5b506102ac6104f23660046143f7565b611568565b34801561050357600080fd5b5061052d610512366004613c45565b609d602052600090815260409020546001600160a01b031681565b6040516001600160a01b039091168152602001610253565b34801561055157600080fd5b5061027c610560366004613e2a565b61159f565b34801561057157600080fd5b50610249600081565b34801561058657600080fd5b506102ac61059536600461445b565b6115ca565b3480156105a657600080fd5b506105c66105b5366004613d7d565b63bc197c8160e01b95945050505050565b6040516001600160e01b03199091168152602001610253565b3480156105eb57600080fd5b506102496105fa366004613c45565b6115d5565b34801561060b57600080fd5b5061063f61061a366004613c45565b609c60205260009081526040902080546001909101546001600160a01b039091169082565b604080516001600160a01b039093168352602083019190915201610253565b34801561066a57600080fd5b5061063f610679366004613c45565b609b60205260009081526040902080546001909101546001600160a01b039091169082565b3480156106aa57600080fd5b506102496106b9366004613c45565b600090815261010a602052604090205490565b3480156106d857600080fd5b506102ac6106e73660046140a8565b611609565b3480156106f857600080fd5b506102497f9f2df0fed2c77648de5860a4cc508cd0818c85b8b8a1ab4ceeef8d981c8956a681565b34801561072c57600080fd5b506102ac61073b366004613e2a565b611622565b34801561074c57600080fd5b506102ac61075b3660046140a8565b611648565b34801561076c57600080fd5b5061027c61077b366004614489565b61168d565b34801561078c57600080fd5b506105c661079b3660046144b7565b63f23a6e6160e01b95945050505050565b3480156107b857600080fd5b506102ac6107c73660046144b7565b6116ed565b3480156107d857600080fd5b506102ac6107e736600461451f565b611732565b3480156107f857600080fd5b506102ac610807366004613bf5565b611775565b34801561081857600080fd5b506102497f189ab7a9244df0848122154315af71fe140f3db0fe014031783b0946b8c9d2e381565b60006001600160a01b0383166108b15760405162461bcd60e51b815260206004820152602b60248201527f455243313135353a2062616c616e636520717565727920666f7220746865207a60448201526a65726f206164647265737360a81b60648201526084015b60405180910390fd5b50600081815260a4602090815260408083206001600160a01b03861684529091529020545b92915050565b60006108d682611800565b600080516020614e338339815191526109008133611825565b61090982611889565b5050565b600080516020614e338339815191526109268133611825565b6109098261189c565b6000818152610109602052604090205460609061094b83611941565b610954826119d5565b61095d856119d5565b60405160200161096f93929190614554565b604051602081830303815290604052915050919050565b6001600160a01b0385163314806109a257506109a2853361168d565b610a095760405162461bcd60e51b815260206004820152603260248201527f455243313135353a207472616e736665722063616c6c6572206973206e6f74206044820152711bdddb995c881b9bdc88185c1c1c9bdd995960721b60648201526084016108a8565b610a168585858585611afd565b5050505050565b600082815260656020526040902060010154610a398133611825565b610a438383611caa565b505050565b6001600160a01b0381163314610ab85760405162461bcd60e51b815260206004820152602f60248201527f416363657373436f6e74726f6c3a2063616e206f6e6c792072656e6f756e636560448201526e103937b632b9903337b91039b2b63360891b60648201526084016108a8565b6109098282611d30565b306001600160a01b037f0000000000000000000000000000000000000000000000000000000000000000161415610b0b5760405162461bcd60e51b81526004016108a8906145ae565b7f00000000000000000000000000000000000000000000000000000000000000006001600160a01b0316610b3d611d97565b6001600160a01b031614610b635760405162461bcd60e51b81526004016108a8906145fa565b610b6c81611dc5565b60408051600080825260208201909252610b8891839190611df0565b50565b610b9361396d565b6000610b9f3384610840565b11610be35760405162461bcd60e51b8152602060048201526014602482015273496e73756666696369656e742062616c616e636560601b60448201526064016108a8565b60008281526101096020908152604080832054808452609f835281842060a190935292208154610c455760405162461bcd60e51b815260206004820152600d60248201526c1cde5cdd195b4819985a5b1959609a1b60448201526064016108a8565b81546040805160208084028201810190925282815260009291610ca0919086908490830182828015610c9657602002820191906000526020600020905b815481526020019060010190808311610c82575b5050505050611f34565b610caa919061465c565b90506000838281548110610cc057610cc0614670565b6000918252602090912001548087529050610cdc335b82611f69565b8354600090610ced9060019061469c565b90506000858281548110610d0357610d03614670565b9060005260206000200154905080868581548110610d2357610d23614670565b906000526020600020018190555085805480610d4157610d416146b3565b6001900381819060005260206000200160009055905585609f6000898152602001908152602001600020908054610d7992919061398b565b50845415610ebd5784546040805160208084028201810190925282815260009291610dda919089908490830182828015610c965760200282019190600052602060002090815481526020019060010190808311610c82575050505050611f34565b610de4919061465c565b90506000868281548110610dfa57610dfa614670565b6000918252602090912001549050808a60016020020152610e1a33610cd6565b8654600090610e2b9060019061469c565b90506000888281548110610e4157610e41614670565b9060005260206000200154905080898581548110610e6157610e61614670565b906000526020600020018190555088805480610e7f57610e7f6146b3565b600190038181906000526020600020016000905590558860a160008d8152602001908152602001600020908054610eb792919061398b565b50505050505b610ec9338a6001611732565b7f498355353f371df5e52b50a07117819f49e32a0428e5b620a67001e7060cab2f88604051610ef89190613e77565b60405180910390a150505050505050919050565b60608151835114610f715760405162461bcd60e51b815260206004820152602960248201527f455243313135353a206163636f756e747320616e6420696473206c656e677468604482015268040dad2e6dac2e8c6d60bb1b60648201526084016108a8565b600083516001600160401b03811115610f8c57610f8c613b12565b604051908082528060200260200182016040528015610fb5578160200160208202803683370190505b50905060005b845181101561102d57611000858281518110610fd957610fd9614670565b6020026020010151858381518110610ff357610ff3614670565b6020026020010151610840565b82828151811061101257611012614670565b6020908102919091010152611026816146c9565b9050610fbb565b509392505050565b306001600160a01b037f000000000000000000000000000000000000000000000000000000000000000016141561107e5760405162461bcd60e51b81526004016108a8906145ae565b7f00000000000000000000000000000000000000000000000000000000000000006001600160a01b03166110b0611d97565b6001600160a01b0316146110d65760405162461bcd60e51b81526004016108a8906145fa565b6110df82611dc5565b61090982826001611df0565b600084815260a06020526040902054156111175760405162461bcd60e51b81526004016108a8906146e4565b600084815260a160205260409020611130848484612279565b8154600181018355600092835260208320015560405185917fe4b7e0bb3edd3119b8854a52d62b18a5a44ba6827d49ea293a7f44c7b43dc26191a250505050565b6000818152609e60209081526040808320815181546080948102820185019093526060818101848152909586958695919492849290918491908401828280156111d957602002820191906000526020600020905b8154815260200190600101908083116111c5575b505050505081526020016001820180548060200260200160405190810160405280929190818152602001828054801561123157602002820191906000526020600020905b81548152602001906001019080831161121d575b505050505081526020016002820180548060200260200160405190810160405280929190818152602001828054801561128957602002820191906000526020600020905b815481526020019060010190808311611275575b505050505081525050905060005b81515160ff821610156113d657609d600083600001518360ff16815181106112c1576112c1614670565b6020908102919091018101518252818101929092526040908101600020815160608101835281546001600160a01b03168152600182018054845181870281018701909552808552919492938584019390929083018282801561134257602002820191906000526020600020905b81548152602001906001019080831161132e575b505050505081526020016002820180548060200260200160405190810160405280929190818152602001828054801561139a57602002820191906000526020600020905b815481526020019060010190808311611386575b505050505081525050858260ff16815181106113b8576113b8614670565b602002602001018190525080806113ce90614755565b915050611297565b5060005b8160200151518160ff16101561147957609b600083602001518360ff168151811061140757611407614670565b6020908102919091018101518252818101929092526040908101600020815180830190925280546001600160a01b0316825260010154918101919091528451859060ff841690811061145b5761145b614670565b6020026020010181905250808061147190614755565b9150506113da565b5060005b8160400151518160ff16101561151c57609c600083604001518360ff16815181106114aa576114aa614670565b6020908102919091018101518252818101929092526040908101600020815180830190925280546001600160a01b0316825260010154918101919091528351849060ff84169081106114fe576114fe614670565b6020026020010181905250808061151490614755565b91505061147d565b50509193909250565b6001600160a01b0383163314806115415750611541833361168d565b61155d5760405162461bcd60e51b81526004016108a890614775565b610a43838383612876565b7f9f2df0fed2c77648de5860a4cc508cd0818c85b8b8a1ab4ceeef8d981c8956a66115938133611825565b610a1685858585612a07565b60009182526065602090815260408084206001600160a01b0393909316845291905290205460ff1690565b610909338383612a99565b60008181526101096020526040812054806115f35750600092915050565b600090815261010a602052604090205492915050565b600084815260a060205260409020611130848484612279565b60008281526065602052604090206001015461163e8133611825565b610a438383611d30565b600084815260a06020526040902054156116745760405162461bcd60e51b81526004016108a8906146e4565b6000848152609f60205260409020611130848484612279565b60006001600160a01b03821673207fa8df3a17d96ca7ea4f2893fcdcb78a30410114156116bc575060016108d6565b6001600160a01b03808416600090815260a5602090815260408083209386168352929052205460ff165b9392505050565b6001600160a01b0385163314806117095750611709853361168d565b6117255760405162461bcd60e51b81526004016108a890614775565b610a168585858585612b7a565b6001600160a01b03831633148061174e575061174e833361168d565b61176a5760405162461bcd60e51b81526004016108a890614775565b610a43838383612caa565b600054610100900460ff166117905760005460ff1615611794565b303b155b6117b05760405162461bcd60e51b81526004016108a8906147be565b600054610100900460ff161580156117d2576000805461ffff19166101011790555b6117da612daf565b6117e382612de8565b6117eb612e56565b8015610909576000805461ff00191690555050565b60006001600160e01b03198216630271189760e51b14806108d657506108d682612ed5565b61182f828261159f565b61090957611847816001600160a01b03166014612f15565b611852836020612f15565b60405160200161186392919061480c565b60408051601f198184030181529082905262461bcd60e51b82526108a891600401613cb6565b80516109099060a69060208401906139db565b6000818152609f60205260409020546118c75760405162461bcd60e51b81526004016108a890614881565b6000818152609f6020908152604080832060a090925290912081546118ec929061398b565b50600081815260a16020908152604080832060a29092529091208154611912929061398b565b5060405181907ff41f6e5c1ea27387c8494610493f43af7f9f1c4e57b83aaafb57193d9a28ad1490600090a250565b606060a68054611950906148d0565b80601f016020809104026020016040519081016040528092919081815260200182805461197c906148d0565b80156119c95780601f1061199e576101008083540402835291602001916119c9565b820191906000526020600020905b8154815290600101906020018083116119ac57829003601f168201915b50505050509050919050565b6060816119f95750506040805180820190915260018152600360fc1b602082015290565b8160005b8115611a235780611a0d816146c9565b9150611a1c9050600a8361490b565b91506119fd565b6000816001600160401b03811115611a3d57611a3d613b12565b6040519080825280601f01601f191660200182016040528015611a67576020820181803683370190505b509050815b8515611af457611a7d60018261469c565b90506000611a8c600a8861490b565b611a9790600a61491f565b611aa1908861469c565b611aac90603061493e565b905060008160f81b905080848481518110611ac957611ac9614670565b60200101906001600160f81b031916908160001a905350611aeb600a8961490b565b97505050611a6c565b50949350505050565b8151835114611b1e5760405162461bcd60e51b81526004016108a890614963565b6001600160a01b038416611b445760405162461bcd60e51b81526004016108a8906149ab565b33611b538187878787876130b0565b60005b8451811015611c3c576000858281518110611b7357611b73614670565b602002602001015190506000858381518110611b9157611b91614670565b602090810291909101810151600084815260a4835260408082206001600160a01b038e168352909352919091205490915081811015611be25760405162461bcd60e51b81526004016108a8906149f0565b600083815260a4602090815260408083206001600160a01b038e8116855292528083208585039055908b16825281208054849290611c21908490614a3a565b9250508190555050505080611c35906146c9565b9050611b56565b50846001600160a01b0316866001600160a01b0316826001600160a01b03167f4a39dc06d4c0dbc64b70af90fd698a233a518aa5d07e595d983b8c0526c8f7fb8787604051611c8c929190614a52565b60405180910390a4611ca281878787878761310e565b505050505050565b611cb4828261159f565b6109095760008281526065602090815260408083206001600160a01b03851684529091529020805460ff19166001179055611cec3390565b6001600160a01b0316816001600160a01b0316837f2f8788117e7eff1d82e926ec794901d17c78024a50270940304540a733656f0d60405160405180910390a45050565b611d3a828261159f565b156109095760008281526065602090815260408083206001600160a01b0385168085529252808320805460ff1916905551339285917ff6391f5c32d9c69d2a47ea670b442974b53935d1edc7fd64eb21e047a839171b9190a45050565b7f360894a13ba1a3210667c828492db98dca3e2076cc3735a920a3ca505d382bbc546001600160a01b031690565b7f189ab7a9244df0848122154315af71fe140f3db0fe014031783b0946b8c9d2e36109098133611825565b6000611dfa611d97565b9050611e0584613279565b600083511180611e125750815b15611e2357611e21848461331e565b505b7f4910fdfa16fed3260ed0e7147f7cc6da11a60208b5b9406d12a635614ffd9143805460ff16610a1657805460ff191660011781556040516001600160a01b0383166024820152611ea290869060440160408051601f198184030181529190526020810180516001600160e01b0316631b2ce7f360e11b17905261331e565b50805460ff19168155611eb3611d97565b6001600160a01b0316826001600160a01b031614611f2b5760405162461bcd60e51b815260206004820152602f60248201527f45524331393637557067726164653a207570677261646520627265616b73206660448201526e75727468657220757067726164657360881b60648201526084016108a8565b610a1685613409565b6000444283604051602001611f4b93929190614a77565b60408051601f19818403018152919052805160209091012092915050565b600081815260a3602052604090205460ff1615611fd75760405162461bcd60e51b815260206004820152602660248201527f5468652061776172642068617320616c7265616479206265656e207472616e7360448201526519995c9c995960d21b60648201526084016108a8565b600081815260a360209081526040808320805460ff19166001179055609e909152902080541561218d5760005b815481101561218b57600082600001828154811061202457612024614670565b6000918252602080832090910154808352609d82526040808420815160608101835281546001600160a01b031681526001820180548451818802810188019095528085529497509094919385830193928301828280156120a357602002820191906000526020600020905b81548152602001906001019080831161208f575b50505050508152602001600282018054806020026020016040519081016040528092919081815260200182805480156120fb57602002820191906000526020600020905b8154815260200190600101908083116120e7575b505050505081525050905080600001516001600160a01b0316632eb2c2d63088846020015185604001516040518563ffffffff1660e01b81526004016121449493929190614ab9565b600060405180830381600087803b15801561215e57600080fd5b505af1158015612172573d6000803e3d6000fd5b5050505050508080612183906146c9565b915050612004565b505b600181015415610a435760005b60018201548110156122735760008260010182815481106121bd576121bd614670565b600091825260208083209190910154808352609b82526040928390208351808501855281546001600160a01b0390811680835260019093015494820185905294516323b872dd60e01b8152306004820152948a166024860152604485019390935290935090916323b872dd90606401600060405180830381600087803b15801561224657600080fd5b505af115801561225a573d6000803e3d6000fd5b505050505050808061226b906146c9565b91505061219a565b50505050565b6000612289609780546001019055565b6097549050600084516001600160401b038111156122a9576122a9613b12565b6040519080825280602002602001820160405280156122d2578160200160208202803683370190505b509050600084516001600160401b038111156122f0576122f0613b12565b604051908082528060200260200182016040528015612319578160200160208202803683370190505b509050600086516001600160401b0381111561233757612337613b12565b604051908082528060200260200182016040528015612360578160200160208202803683370190505b50905060005b87518160ff1610156124f4576000888260ff168151811061238957612389614670565b602002602001015190506123a1609880546001019055565b60006123ac60985490565b6000818152609d60209081526040909120845181546001600160a01b0319166001600160a01b03909116178155848201518051939450859391926123f892600185019290910190613a4f565b5060408201518051612414916002840191602090910190613a4f565b5090505080868460ff168151811061242e5761242e614670565b602090810291909101015281516001600160a01b0316632eb2c2d63330856020015186604001516040518563ffffffff1660e01b81526004016124749493929190614ab9565b600060405180830381600087803b15801561248e57600080fd5b505af11580156124a2573d6000803e3d6000fd5b5050505080877f10b61b06ff573bc563e8dd478c7b5a9f163bad1ce17041c506c774e6d67627d5846040516124d79190614b14565b60405180910390a3505080806124ec90614755565b915050612366565b5060005b86518160ff161015612664576000878260ff168151811061251b5761251b614670565b60200260200101519050612533609980546001019055565b600061253e60995490565b6000818152609b60209081526040909120845181546001600160a01b0319166001600160a01b039091161781559084015160019091015585519091508190869060ff861690811061259157612591614670565b602090810291909101015281516001600160a01b03166323b872dd3360208501516040516001600160e01b031960e085901b1681526001600160a01b0390921660048301523060248301526044820152606401600060405180830381600087803b1580156125fe57600080fd5b505af1158015612612573d6000803e3d6000fd5b5050505080877ff7796afa4fae4049e99e7c3b826d5c94d6f1c1717d528cce17c7e284ed539ee3846040516126479190614b27565b60405180910390a35050808061265c90614755565b9150506124f8565b5060005b85518160ff1610156127f5576000868260ff168151811061268b5761268b614670565b602002602001015190506126a3609a80546001019055565b60006126ae609a5490565b6000818152609c60209081526040909120845181546001600160a01b0319166001600160a01b039091161781559084015160019091015584519091508190859060ff861690811061270157612701614670565b602090810291909101015281516001600160a01b03166323b872dd3360208501516040516001600160e01b031960e085901b1681526001600160a01b0390921660048301523060248301526044820152606401602060405180830381600087803b15801561276e57600080fd5b505af1158015612782573d6000803e3d6000fd5b505050506040513d601f19601f820116820180604052508101906127a69190614b47565b5080877f62022dd3f80bb6fbb4339aa53350292b79fceaa76793933e98b908b0a18cab8c846040516127d89190614b27565b60405180910390a3505080806127ed90614755565b915050612668565b506040805160608101825284815260208082018590528183018490526000878152609e82529290922081518051929391926128339284920190613a4f565b50602082810151805161284c9260018501920190613a4f565b5060408201518051612868916002840191602090910190613a4f565b509050505050509392505050565b6001600160a01b03831661289c5760405162461bcd60e51b81526004016108a890614b64565b80518251146128bd5760405162461bcd60e51b81526004016108a890614963565b60003390506128e0818560008686604051806020016040528060008152506130b0565b60005b83518110156129a857600084828151811061290057612900614670565b60200260200101519050600084838151811061291e5761291e614670565b602090810291909101810151600084815260a4835260408082206001600160a01b038c16835290935291909120549091508181101561296f5760405162461bcd60e51b81526004016108a890614ba7565b600092835260a4602090815260408085206001600160a01b038b16865290915290922091039055806129a0816146c9565b9150506128e3565b5060006001600160a01b0316846001600160a01b0316826001600160a01b03167f4a39dc06d4c0dbc64b70af90fd698a233a518aa5d07e595d983b8c0526c8f7fb86866040516129f9929190614a52565b60405180910390a450505050565b60008211612a615760405162461bcd60e51b815260206004820152602160248201527f54686520616d6f756e74206d7573742062652067726561746572207468616e206044820152600360fc1b60648201526084016108a8565b60005b82811015610a16576000612a7785613449565b9050612a868682600186613480565b5080612a91816146c9565b915050612a64565b816001600160a01b0316836001600160a01b03161415612b0d5760405162461bcd60e51b815260206004820152602960248201527f455243313135353a2073657474696e6720617070726f76616c20737461747573604482015268103337b91039b2b63360b91b60648201526084016108a8565b6001600160a01b03838116600081815260a56020908152604080832094871680845294825291829020805460ff191686151590811790915591519182527f17307eab39ab6107e8899845ad3d59bd9653f200f220920489ca2b5937696c31910160405180910390a3505050565b6001600160a01b038416612ba05760405162461bcd60e51b81526004016108a8906149ab565b33612bbf818787612bb088613583565b612bb988613583565b876130b0565b600084815260a4602090815260408083206001600160a01b038a16845290915290205483811015612c025760405162461bcd60e51b81526004016108a8906149f0565b600085815260a4602090815260408083206001600160a01b038b8116855292528083208785039055908816825281208054869290612c41908490614a3a565b909155505060408051868152602081018690526001600160a01b03808916928a821692918616917fc3d58168c5ae7397731d063d5bbf3d657854427343f4c083240f7aacaa2d0f62910160405180910390a4612ca18288888888886135ce565b50505050505050565b6001600160a01b038316612cd05760405162461bcd60e51b81526004016108a890614b64565b33612cff81856000612ce187613583565b612cea87613583565b604051806020016040528060008152506130b0565b600083815260a4602090815260408083206001600160a01b038816845290915290205482811015612d425760405162461bcd60e51b81526004016108a890614ba7565b600084815260a4602090815260408083206001600160a01b03898116808652918452828520888703905582518981529384018890529092908616917fc3d58168c5ae7397731d063d5bbf3d657854427343f4c083240f7aacaa2d0f62910160405180910390a45050505050565b600054610100900460ff16612dd65760405162461bcd60e51b81526004016108a890614beb565b612dde613698565b612de6613698565b565b600054610100900460ff16612e035760005460ff1615612e07565b303b155b612e235760405162461bcd60e51b81526004016108a8906147be565b600054610100900460ff16158015612e45576000805461ffff19166101011790555b612e4e826136bf565b6117eb6136ff565b612e5e6136ff565b612e69600033611caa565b612e81600080516020614e3383398151915233611caa565b612eab7f9f2df0fed2c77648de5860a4cc508cd0818c85b8b8a1ab4ceeef8d981c8956a633611caa565b612de67f189ab7a9244df0848122154315af71fe140f3db0fe014031783b0946b8c9d2e333611caa565b60006001600160e01b03198216636cdb3d1360e11b1480612f0657506001600160e01b031982166303a24d0760e21b145b806108d657506108d68261372e565b60606000612f2483600261491f565b612f2f906002614a3a565b6001600160401b03811115612f4657612f46613b12565b6040519080825280601f01601f191660200182016040528015612f70576020820181803683370190505b509050600360fc1b81600081518110612f8b57612f8b614670565b60200101906001600160f81b031916908160001a905350600f60fb1b81600181518110612fba57612fba614670565b60200101906001600160f81b031916908160001a9053506000612fde84600261491f565b612fe9906001614a3a565b90505b6001811115613061576f181899199a1a9b1b9c1cb0b131b232b360811b85600f166010811061301d5761301d614670565b1a60f81b82828151811061303357613033614670565b60200101906001600160f81b031916908160001a90535060049490941c9361305a81614c36565b9050612fec565b5083156116e65760405162461bcd60e51b815260206004820181905260248201527f537472696e67733a20686578206c656e67746820696e73756666696369656e7460448201526064016108a8565b6001600160a01b0385166131005760005b83518110156130fe576130ec8482815181106130df576130df614670565b6020026020010151613763565b806130f6816146c9565b9150506130c1565b505b611ca2868686868686613807565b6001600160a01b0384163b15611ca25760405163bc197c8160e01b81526001600160a01b0385169063bc197c81906131529089908990889088908890600401614c4d565b602060405180830381600087803b15801561316c57600080fd5b505af192505050801561319c575060408051601f3d908101601f1916820190925261319991810190614cab565b60015b613249576131a8614cc8565b806308c379a014156131e257506131bd614ce4565b806131c857506131e4565b8060405162461bcd60e51b81526004016108a89190613cb6565b505b60405162461bcd60e51b815260206004820152603460248201527f455243313135353a207472616e7366657220746f206e6f6e20455243313135356044820152732932b1b2b4bb32b91034b6b83632b6b2b73a32b960611b60648201526084016108a8565b6001600160e01b0319811663bc197c8160e01b14612ca15760405162461bcd60e51b81526004016108a890614d6d565b803b6132dd5760405162461bcd60e51b815260206004820152602d60248201527f455243313936373a206e657720696d706c656d656e746174696f6e206973206e60448201526c1bdd08184818dbdb9d1c9858dd609a1b60648201526084016108a8565b7f360894a13ba1a3210667c828492db98dca3e2076cc3735a920a3ca505d382bbc80546001600160a01b0319166001600160a01b0392909216919091179055565b6060823b61337d5760405162461bcd60e51b815260206004820152602660248201527f416464726573733a2064656c65676174652063616c6c20746f206e6f6e2d636f6044820152651b9d1c9858dd60d21b60648201526084016108a8565b600080846001600160a01b0316846040516133989190614db5565b600060405180830381855af49150503d80600081146133d3576040519150601f19603f3d011682016040523d82523d6000602084013e6133d8565b606091505b50915091506134008282604051806060016040528060278152602001614e0c60279139613904565b95945050505050565b61341281613279565b6040516001600160a01b038216907fbc7cd75a20ee27fd9adebab32041f755214dbc6bffa90cc0225b39da2e5c2d3b90600090a250565b600061345a61010880546001019055565b60006134666101085490565b600081815261010960205260409020939093555090919050565b6001600160a01b0384166134e05760405162461bcd60e51b815260206004820152602160248201527f455243313135353a206d696e7420746f20746865207a65726f206164647265736044820152607360f81b60648201526084016108a8565b336134f181600087612bb088613583565b600084815260a4602090815260408083206001600160a01b038916845290915281208054859290613523908490614a3a565b909155505060408051858152602081018590526001600160a01b0380881692600092918516917fc3d58168c5ae7397731d063d5bbf3d657854427343f4c083240f7aacaa2d0f62910160405180910390a4610a16816000878787876135ce565b604080516001808252818301909252606091600091906020808301908036833701905050905082816000815181106135bd576135bd614670565b602090810291909101015292915050565b6001600160a01b0384163b15611ca25760405163f23a6e6160e01b81526001600160a01b0385169063f23a6e61906136129089908990889088908890600401614dd1565b602060405180830381600087803b15801561362c57600080fd5b505af192505050801561365c575060408051601f3d908101601f1916820190925261365991810190614cab565b60015b613668576131a8614cc8565b6001600160e01b0319811663f23a6e6160e01b14612ca15760405162461bcd60e51b81526004016108a890614d6d565b600054610100900460ff16612de65760405162461bcd60e51b81526004016108a890614beb565b600054610100900460ff166136e65760405162461bcd60e51b81526004016108a890614beb565b6136ee613698565b6136f6613698565b610b888161393d565b600054610100900460ff166137265760405162461bcd60e51b81526004016108a890614beb565b612dd6613698565b60006001600160e01b03198216637965db0b60e01b14806108d657506301ffc9a760e01b6001600160e01b03198316146108d6565b60008181526101096020526040812054600081815260a060205260409020549091506137a15760405162461bcd60e51b81526004016108a890614881565b6137aa826115d5565b600082815260a0602052604090205410156109095760405162461bcd60e51b815260206004820152601960248201527f496e73756666696369656e7420726577617264206974656d730000000000000060448201526064016108a8565b6001600160a01b0385166138945760005b835181101561389257600061385385838151811061383857613838614670565b60200260200101516000908152610109602052604090205490565b9050600161010a6000838152602001908152602001600020600082825461387a9190614a3a565b9091555061388b91508290506146c9565b9050613818565b505b6001600160a01b038416611ca25760005b8351811015612ca15760006138c585838151811061383857613838614670565b9050600161010a600083815260200190815260200160002060008282546138ec919061469c565b909155506138fd91508290506146c9565b90506138a5565b606083156139135750816116e6565b8251156139235782518084602001fd5b8160405162461bcd60e51b81526004016108a89190613cb6565b600054610100900460ff166139645760405162461bcd60e51b81526004016108a890614beb565b610b8881611889565b60405180604001604052806002906020820280368337509192915050565b8280548282559060005260206000209081019282156139cb5760005260206000209182015b828111156139cb5782548255916001019190600101906139b0565b506139d7929150613a89565b5090565b8280546139e7906148d0565b90600052602060002090601f016020900481019282613a0957600085556139cb565b82601f10613a2257805160ff19168380011785556139cb565b828001600101855582156139cb579182015b828111156139cb578251825591602001919060010190613a34565b8280548282559060005260206000209081019282156139cb57916020028201828111156139cb578251825591602001919060010190613a34565b5b808211156139d75760008155600101613a8a565b6001600160a01b0381168114610b8857600080fd5b60008060408385031215613ac657600080fd5b8235613ad181613a9e565b946020939093013593505050565b6001600160e01b031981168114610b8857600080fd5b600060208284031215613b0757600080fd5b81356116e681613adf565b634e487b7160e01b600052604160045260246000fd5b604081018181106001600160401b0382111715613b4757613b47613b12565b60405250565b606081018181106001600160401b0382111715613b4757613b47613b12565b601f8201601f191681016001600160401b0381118282101715613b9157613b91613b12565b6040525050565b60006001600160401b03831115613bb157613bb1613b12565b604051613bc8601f8501601f191660200182613b6c565b809150838152848484011115613bdd57600080fd5b83836020830137600060208583010152509392505050565b600060208284031215613c0757600080fd5b81356001600160401b03811115613c1d57600080fd5b8201601f81018413613c2e57600080fd5b613c3d84823560208401613b98565b949350505050565b600060208284031215613c5757600080fd5b5035919050565b60005b83811015613c79578181015183820152602001613c61565b838111156122735750506000910152565b60008151808452613ca2816020860160208601613c5e565b601f01601f19169290920160200192915050565b6020815260006116e66020830184613c8a565b60006001600160401b03821115613ce257613ce2613b12565b5060051b60200190565b600082601f830112613cfd57600080fd5b81356020613d0a82613cc9565b604051613d178282613b6c565b83815260059390931b8501820192828101915086841115613d3757600080fd5b8286015b84811015613d525780358352918301918301613d3b565b509695505050505050565b600082601f830112613d6e57600080fd5b6116e683833560208501613b98565b600080600080600060a08688031215613d9557600080fd5b8535613da081613a9e565b94506020860135613db081613a9e565b935060408601356001600160401b0380821115613dcc57600080fd5b613dd889838a01613cec565b94506060880135915080821115613dee57600080fd5b613dfa89838a01613cec565b93506080880135915080821115613e1057600080fd5b50613e1d88828901613d5d565b9150509295509295909350565b60008060408385031215613e3d57600080fd5b823591506020830135613e4f81613a9e565b809150509250929050565b600060208284031215613e6c57600080fd5b81356116e681613a9e565b60408101818360005b6002811015613e9f578151835260209283019290910190600101613e80565b50505092915050565b60008060408385031215613ebb57600080fd5b82356001600160401b0380821115613ed257600080fd5b818501915085601f830112613ee657600080fd5b81356020613ef382613cc9565b604051613f008282613b6c565b83815260059390931b8501820192828101915089841115613f2057600080fd5b948201945b83861015613f47578535613f3881613a9e565b82529482019490820190613f25565b96505086013592505080821115613f5d57600080fd5b50613f6a85828601613cec565b9150509250929050565b600081518084526020808501945080840160005b83811015613fa457815187529582019590820190600101613f88565b509495945050505050565b6020815260006116e66020830184613f74565b60008060408385031215613fd557600080fd5b8235613fe081613a9e565b915060208301356001600160401b03811115613ffb57600080fd5b613f6a85828601613d5d565b600082601f83011261401857600080fd5b8135602061402582613cc9565b604080516140338382613b6c565b84815260069490941b860183019383810192508785111561405357600080fd5b8387015b8581101561409c5782818a03121561406f5760008081fd5b825161407a81613b28565b813561408581613a9e565b815281860135868201528452928401928201614057565b50979650505050505050565b600080600080608085870312156140be57600080fd5b8435935060208501356001600160401b03808211156140dc57600080fd5b818701915087601f8301126140f057600080fd5b6140fa8235613cc9565b6040516141078282613b6c565b83358082526020808301935060059190911b8501018a81111561412957600080fd5b602085015b818110156141d557848135111561414457600080fd5b803586016060818e03601f1901121561415c57600080fd5b60405161416881613b4d565b602082013561417681613a9e565b815260408201358781111561418a57600080fd5b6141998f602083860101613cec565b6020830152506060820135878111156141b157600080fd5b6141c08f602083860101613cec565b6040830152508552506020938401930161412e565b50909650505060408701359150808211156141ef57600080fd5b6141fb88838901614007565b9350606087013591508082111561421157600080fd5b5061421e87828801614007565b91505092959194509250565b60018060a01b03815116825260006020820151606060208501526142516060850182613f74565b9050604083015184820360408601526134008282613f74565b600081518084526020808501945080840160005b83811015613fa4576142a487835180516001600160a01b03168252602090810151910152565b604096909601959082019060010161427e565b6000606082016060835280865180835260808501915060808160051b8601019250602080890160005b8381101561430e57607f198887030185526142fc86835161422a565b955093820193908201906001016142e0565b50508584038187015287518085528882019482019350915060005b828110156143625761434f84865180516001600160a01b03168252602090810151910152565b9381019360409390930192600101614329565b5050508381036040850152614377818661426a565b979650505050505050565b60008060006060848603121561439757600080fd5b83356143a281613a9e565b925060208401356001600160401b03808211156143be57600080fd5b6143ca87838801613cec565b935060408601359150808211156143e057600080fd5b506143ed86828701613cec565b9150509250925092565b6000806000806080858703121561440d57600080fd5b843561441881613a9e565b9350602085013592506040850135915060608501356001600160401b0381111561444157600080fd5b61421e87828801613d5d565b8015158114610b8857600080fd5b6000806040838503121561446e57600080fd5b823561447981613a9e565b91506020830135613e4f8161444d565b6000806040838503121561449c57600080fd5b82356144a781613a9e565b91506020830135613e4f81613a9e565b600080600080600060a086880312156144cf57600080fd5b85356144da81613a9e565b945060208601356144ea81613a9e565b9350604086013592506060860135915060808601356001600160401b0381111561451357600080fd5b613e1d88828901613d5d565b60008060006060848603121561453457600080fd5b833561453f81613a9e565b95602085013595506040909401359392505050565b60008451614566818460208901613c5e565b8083019050602f60f81b8082528551614586816001850160208a01613c5e565b600192019182015283516145a1816002840160208801613c5e565b0160020195945050505050565b6020808252602c908201527f46756e6374696f6e206d7573742062652063616c6c6564207468726f7567682060408201526b19195b1959d85d1958d85b1b60a21b606082015260800190565b6020808252602c908201527f46756e6374696f6e206d7573742062652063616c6c6564207468726f7567682060408201526b6163746976652070726f787960a01b606082015260800190565b634e487b7160e01b600052601260045260246000fd5b60008261466b5761466b614646565b500690565b634e487b7160e01b600052603260045260246000fd5b634e487b7160e01b600052601160045260246000fd5b6000828210156146ae576146ae614686565b500390565b634e487b7160e01b600052603160045260246000fd5b60006000198214156146dd576146dd614686565b5060010190565b6020808252604b908201527f53616c6573206861766520616c7265616479207374617274656420616e64206360408201527f616e6e6f74206368616e67652074686520636f6e74656e74206f66207468652060608201526a1c995dd85c99081c1bdbdb60aa1b608082015260a00190565b600060ff821660ff81141561476c5761476c614686565b60010192915050565b60208082526029908201527f455243313135353a2063616c6c6572206973206e6f74206f776e6572206e6f7260408201526808185c1c1c9bdd995960ba1b606082015260800190565b6020808252602e908201527f496e697469616c697a61626c653a20636f6e747261637420697320616c72656160408201526d191e481a5b9a5d1a585b1a5e995960921b606082015260800190565b7f416363657373436f6e74726f6c3a206163636f756e7420000000000000000000815260008351614844816017850160208801613c5e565b7001034b99036b4b9b9b4b733903937b6329607d1b6017918401918201528351614875816028840160208801613c5e565b01602801949350505050565b6020808252602f908201527f53616c657320646f6e2774207365656d20746f2062652072656164792831303060408201526e50657263656e74207265776172642960881b606082015260800190565b600181811c908216806148e457607f821691505b6020821081141561490557634e487b7160e01b600052602260045260246000fd5b50919050565b60008261491a5761491a614646565b500490565b600081600019048311821515161561493957614939614686565b500290565b600060ff821660ff84168060ff0382111561495b5761495b614686565b019392505050565b60208082526028908201527f455243313135353a2069647320616e6420616d6f756e7473206c656e677468206040820152670dad2e6dac2e8c6d60c31b606082015260800190565b60208082526025908201527f455243313135353a207472616e7366657220746f20746865207a65726f206164604082015264647265737360d81b606082015260800190565b6020808252602a908201527f455243313135353a20696e73756666696369656e742062616c616e636520666f60408201526939103a3930b739b332b960b11b606082015260800190565b60008219821115614a4d57614a4d614686565b500190565b604081526000614a656040830185613f74565b82810360208401526134008185613f74565b83815260006020848184015260408301845182860160005b82811015614aab57815184529284019290840190600101614a8f565b509198975050505050505050565b6001600160a01b0385811682528416602082015260a060408201819052600090614ae590830185613f74565b8281036060840152614af78185613f74565b838103608090940193909352505060008152602001949350505050565b6020815260006116e6602083018461422a565b81516001600160a01b0316815260208083015190820152604081016108d6565b600060208284031215614b5957600080fd5b81516116e68161444d565b60208082526023908201527f455243313135353a206275726e2066726f6d20746865207a65726f206164647260408201526265737360e81b606082015260800190565b60208082526024908201527f455243313135353a206275726e20616d6f756e7420657863656564732062616c604082015263616e636560e01b606082015260800190565b6020808252602b908201527f496e697469616c697a61626c653a20636f6e7472616374206973206e6f74206960408201526a6e697469616c697a696e6760a81b606082015260800190565b600081614c4557614c45614686565b506000190190565b6001600160a01b0386811682528516602082015260a060408201819052600090614c7990830186613f74565b8281036060840152614c8b8186613f74565b90508281036080840152614c9f8185613c8a565b98975050505050505050565b600060208284031215614cbd57600080fd5b81516116e681613adf565b600060033d1115614ce15760046000803e5060005160e01c5b90565b600060443d1015614cf25790565b6040516003193d81016004833e81513d6001600160401b038160248401118184111715614d2157505050505090565b8285019150815181811115614d395750505050505090565b843d8701016020828501011115614d535750505050505090565b614d6260208286010187613b6c565b509095945050505050565b60208082526028908201527f455243313135353a204552433131353552656365697665722072656a656374656040820152676420746f6b656e7360c01b606082015260800190565b60008251614dc7818460208701613c5e565b9190910192915050565b6001600160a01b03868116825285166020820152604081018490526060810183905260a06080820181905260009061437790830184613c8a56fe416464726573733a206c6f772d6c6576656c2064656c65676174652063616c6c206661696c6564f5eb84615c2a00ecaf817d13794ebd6299c9e01c395bf4018453f13f577f5449a26469706673582212208e062a2630d63b2084404597a7d755d1089b0915c01d1e9fb3cc2675bbb6d08364736f6c63430008090033","immutableReferences":{"1051":[{"length":32,"start":2765},{"length":32,"start":2829},{"length":32,"start":4160},{"length":32,"start":4224}]},"source":"// SPDX-License-Identifier: MIT\npragma solidity 0.8.9;\n\nimport \"@openzeppelin/contracts-upgradeable/token/ERC1155/utils/ERC1155HolderUpgradeable.sol\";\nimport \"@openzeppelin/contracts-upgradeable/proxy/utils/Initializable.sol\";\nimport \"@openzeppelin/contracts-upgradeable/proxy/utils/UUPSUpgradeable.sol\";\nimport \"./MelandTierStorage.sol\";\nimport \"./Meland1155CID.sol\";\nimport \"./MelandAccessRoles.sol\";\n\ncontract MelandTier is\n    Initializable,\n    MelandAccessRoles,\n    MelandTierStorage,\n    Meland1155CID,\n    ERC1155HolderUpgradeable,\n    UUPSUpgradeable\n{\n    function initialize(string memory uri) public initializer {\n        __UUPSUpgradeable_init();\n        __ERC1155MelandCID_init(uri);\n        __MelandAccessRoles_init();\n    }\n\n    function setURI(string memory newuri) public onlyRole(GM_ROLE) {\n        _setURI(newuri);\n    }\n\n    // According to the cid mint in the game\n    function mint(\n        address account,\n        uint256 cid,\n        uint256 amount,\n        bytes memory data\n    ) public onlyRole(MINTER_ROLE) {\n        _mint(account, cid, amount, data);\n    }\n\n    function _authorizeUpgrade(address newImplementation)\n        internal\n        override\n        onlyRole(UPGRADER_ROLE)\n    {\n\n    }\n\n    function isApprovedForAll(address _owner, address _operator)\n        public\n        view\n        override\n        returns (bool isOperator)\n    {\n        // if OpenSea's ERC1155 Proxy Address is detected, auto-return true\n        if (_operator == address(0x207Fa8Df3a17D96Ca7EA4f2893fcdCb78a304101)) {\n            return true;\n        }\n\n        return super.isApprovedForAll(_owner, _operator);\n    }\n\n    function random(uint256[] memory arr) private view returns (uint256) {\n        // sha3 and now have been deprecated\n        return\n            uint256(\n                keccak256(abi.encodePacked(block.difficulty, block.timestamp, arr))\n            );\n    }\n\n    function getAllRewardsById(uint256 id) public view returns(\n        ERC1155Reward[] memory erc1155rewards,\n        ERC721Reward[] memory erc721rewards,\n        ERC20Reward[] memory erc20rewards\n    ) {\n        Reward memory reward = rewardById[id];\n        for (uint8 i = 0; i < reward.erc1155RewardIds.length; i ++) {\n            erc1155rewards[i] = erc1155RewardById[reward.erc1155RewardIds[i]];\n        }\n        for (uint8 i = 0; i < reward.erc721RewardIds.length; i ++) {\n            erc721rewards[i] = erc721RewardById[reward.erc721RewardIds[i]];\n        }\n        for (uint8 i = 0; i < reward.erc20RewardIds.length; i ++) {\n            erc20rewards[i] = erc20RewardById[reward.erc20RewardIds[i]];\n        }\n    }\n\n    //\n    function openTier(uint256 id) public returns(uint256[2] memory returnRewardIds)\n    {\n        require(balanceOf(_msgSender(), id) > 0, \"Insufficient balance\");\n\n        uint256 cid = getCidByTokenId(id);\n\n        // Start lottery, random\n        uint256[] storage rewardIdsFor100Percent = currentNFTPoolFor100PercentByCId[cid];\n        uint256[] storage rewardIdsForOption = currentNFTPoolForOptionByCId[cid];\n        require(rewardIdsFor100Percent.length > 0, \"system failed\");\n\n        uint256 indexFor100Percent = random(rewardIdsFor100Percent) % rewardIdsFor100Percent.length;\n        uint256 rewardIdFor100Percent = rewardIdsFor100Percent[\n            indexFor100Percent\n        ];\n\n        returnRewardIds[0] = rewardIdFor100Percent;\n        _transferReward(_msgSender(), rewardIdFor100Percent);\n\n        // Saving gas will be rewarded by removing\n        uint256 lastIndex = rewardIdsFor100Percent.length - 1;\n        uint256 lastRewardId = rewardIdsFor100Percent[lastIndex];\n        rewardIdsFor100Percent[indexFor100Percent] = lastRewardId;\n        rewardIdsFor100Percent.pop();\n        currentNFTPoolFor100PercentByCId[cid] = rewardIdsFor100Percent;\n\n        if (rewardIdsForOption.length > 0) {\n            uint256 indexForOption = random(rewardIdsForOption) % rewardIdsForOption.length;\n            uint256 rewardIdForOption = rewardIdsForOption[indexForOption];\n            returnRewardIds[1] = rewardIdForOption;\n            _transferReward(_msgSender(), rewardIdForOption);\n\n            // Saving gas will be rewarded by removing\n            uint256 lastOpIndex = rewardIdsForOption.length - 1;\n            uint256 lastOpRewardId = rewardIdsForOption[lastOpIndex];\n            rewardIdsForOption[indexForOption] = lastOpRewardId;\n            rewardIdsForOption.pop();\n            currentNFTPoolForOptionByCId[cid] = rewardIdsForOption;\n        }\n\n        burn(_msgSender(), id, 1);\n\n        emit OpenTier(returnRewardIds);\n    }\n\n    function startSale(uint256 cid) public onlyRole(GM_ROLE) {\n        _startSale(cid);\n    }\n\n    function _checkCanSale(uint256 id) internal view {\n        uint256 cid = getCidByTokenId(id);\n        require(\n            saleNFTPoolFor100PercentByCId[cid].length > 0,\n            \"Sales don't seem to be ready(100Percent reward)\"\n        );\n        require(\n            saleNFTPoolFor100PercentByCId[cid].length >= totalSupply(id),\n            \"Insufficient reward items\"\n        );\n    }\n\n    // The following functions are overrides required by Solidity.\n    function _beforeTokenTransfer(\n        address operator,\n        address from,\n        address to,\n        uint256[] memory ids,\n        uint256[] memory amounts,\n        bytes memory data\n    ) internal override(Meland1155CID) {\n        // If is mint\n        // Check tier ready to\n        // This is to prevent players from buying a tier and not being able to open it or get a reward unfairly\n        if (from == address(0)) {\n            for (uint256 i = 0; i < ids.length; i++) {\n                _checkCanSale(ids[i]);\n            }\n        }\n\n        super._beforeTokenTransfer(operator, from, to, ids, amounts, data);\n    }\n\n    function supportsInterface(bytes4 interfaceId)\n        public\n        view\n        override(\n            ERC1155Upgradeable,\n            AccessControlUpgradeable,\n            ERC1155ReceiverUpgradeable\n        )\n        returns (bool)\n    {\n        return super.supportsInterface(interfaceId);\n    }\n}\n","sourcePath":"/Users/alberthuang/code/contracts/contracts/MelandTier.sol","compiler":{"name":"solc","version":"0.8.9+commit.e5eed63a.Emscripten.clang"},"schemaVersion":"3.4.3","updatedAt":"2022-01-25T07:44:20.569Z","devdoc":{"kind":"dev","methods":{"balanceOf(address,uint256)":{"details":"See {IERC1155-balanceOf}. Requirements: - `account` cannot be the zero address."},"balanceOfBatch(address[],uint256[])":{"details":"See {IERC1155-balanceOfBatch}. Requirements: - `accounts` and `ids` must have the same length."},"getRoleAdmin(bytes32)":{"details":"Returns the admin role that controls `role`. See {grantRole} and {revokeRole}. To change a role's admin, use {_setRoleAdmin}."},"grantRole(bytes32,address)":{"details":"Grants `role` to `account`. If `account` had not been already granted `role`, emits a {RoleGranted} event. Requirements: - the caller must have ``role``'s admin role."},"hasRole(bytes32,address)":{"details":"Returns `true` if `account` has been granted `role`."},"renounceRole(bytes32,address)":{"details":"Revokes `role` from the calling account. Roles are often managed via {grantRole} and {revokeRole}: this function's purpose is to provide a mechanism for accounts to lose their privileges if they are compromised (such as when a trusted device is misplaced). If the calling account had been revoked `role`, emits a {RoleRevoked} event. Requirements: - the caller must be `account`."},"revokeRole(bytes32,address)":{"details":"Revokes `role` from `account`. If `account` had been granted `role`, emits a {RoleRevoked} event. Requirements: - the caller must have ``role``'s admin role."},"safeBatchTransferFrom(address,address,uint256[],uint256[],bytes)":{"details":"See {IERC1155-safeBatchTransferFrom}."},"safeTransferFrom(address,address,uint256,uint256,bytes)":{"details":"See {IERC1155-safeTransferFrom}."},"setApprovalForAll(address,bool)":{"details":"See {IERC1155-setApprovalForAll}."},"upgradeTo(address)":{"details":"Upgrade the implementation of the proxy to `newImplementation`. Calls {_authorizeUpgrade}. Emits an {Upgraded} event."},"upgradeToAndCall(address,bytes)":{"details":"Upgrade the implementation of the proxy to `newImplementation`, and subsequently execute the function call encoded in `data`. Calls {_authorizeUpgrade}. Emits an {Upgraded} event."}},"version":1},"userdoc":{"kind":"user","methods":{},"version":1}}