{
  "contractName": "MelandTierX",
  "abi": [
    {
      "inputs": [],
      "stateMutability": "nonpayable",
      "type": "constructor"
    },
    {
      "anonymous": false,
      "inputs": [
        {
          "indexed": false,
          "internalType": "address",
          "name": "previousAdmin",
          "type": "address"
        },
        {
          "indexed": false,
          "internalType": "address",
          "name": "newAdmin",
          "type": "address"
        }
      ],
      "name": "AdminChanged",
      "type": "event"
    },
    {
      "anonymous": false,
      "inputs": [
        {
          "indexed": true,
          "internalType": "address",
          "name": "account",
          "type": "address"
        },
        {
          "indexed": true,
          "internalType": "address",
          "name": "operator",
          "type": "address"
        },
        {
          "indexed": false,
          "internalType": "bool",
          "name": "approved",
          "type": "bool"
        }
      ],
      "name": "ApprovalForAll",
      "type": "event"
    },
    {
      "anonymous": false,
      "inputs": [
        {
          "indexed": true,
          "internalType": "address",
          "name": "beacon",
          "type": "address"
        }
      ],
      "name": "BeaconUpgraded",
      "type": "event"
    },
    {
      "anonymous": false,
      "inputs": [
        {
          "indexed": true,
          "internalType": "bytes32",
          "name": "role",
          "type": "bytes32"
        },
        {
          "indexed": true,
          "internalType": "bytes32",
          "name": "previousAdminRole",
          "type": "bytes32"
        },
        {
          "indexed": true,
          "internalType": "bytes32",
          "name": "newAdminRole",
          "type": "bytes32"
        }
      ],
      "name": "RoleAdminChanged",
      "type": "event"
    },
    {
      "anonymous": false,
      "inputs": [
        {
          "indexed": true,
          "internalType": "bytes32",
          "name": "role",
          "type": "bytes32"
        },
        {
          "indexed": true,
          "internalType": "address",
          "name": "account",
          "type": "address"
        },
        {
          "indexed": true,
          "internalType": "address",
          "name": "sender",
          "type": "address"
        }
      ],
      "name": "RoleGranted",
      "type": "event"
    },
    {
      "anonymous": false,
      "inputs": [
        {
          "indexed": true,
          "internalType": "bytes32",
          "name": "role",
          "type": "bytes32"
        },
        {
          "indexed": true,
          "internalType": "address",
          "name": "account",
          "type": "address"
        },
        {
          "indexed": true,
          "internalType": "address",
          "name": "sender",
          "type": "address"
        }
      ],
      "name": "RoleRevoked",
      "type": "event"
    },
    {
      "anonymous": false,
      "inputs": [
        {
          "indexed": true,
          "internalType": "address",
          "name": "operator",
          "type": "address"
        },
        {
          "indexed": true,
          "internalType": "address",
          "name": "from",
          "type": "address"
        },
        {
          "indexed": true,
          "internalType": "address",
          "name": "to",
          "type": "address"
        },
        {
          "indexed": false,
          "internalType": "uint256[]",
          "name": "ids",
          "type": "uint256[]"
        },
        {
          "indexed": false,
          "internalType": "uint256[]",
          "name": "values",
          "type": "uint256[]"
        }
      ],
      "name": "TransferBatch",
      "type": "event"
    },
    {
      "anonymous": false,
      "inputs": [
        {
          "indexed": true,
          "internalType": "address",
          "name": "operator",
          "type": "address"
        },
        {
          "indexed": true,
          "internalType": "address",
          "name": "from",
          "type": "address"
        },
        {
          "indexed": true,
          "internalType": "address",
          "name": "to",
          "type": "address"
        },
        {
          "indexed": false,
          "internalType": "uint256",
          "name": "id",
          "type": "uint256"
        },
        {
          "indexed": false,
          "internalType": "uint256",
          "name": "value",
          "type": "uint256"
        }
      ],
      "name": "TransferSingle",
      "type": "event"
    },
    {
      "anonymous": false,
      "inputs": [
        {
          "indexed": false,
          "internalType": "string",
          "name": "value",
          "type": "string"
        },
        {
          "indexed": true,
          "internalType": "uint256",
          "name": "id",
          "type": "uint256"
        }
      ],
      "name": "URI",
      "type": "event"
    },
    {
      "anonymous": false,
      "inputs": [
        {
          "indexed": true,
          "internalType": "address",
          "name": "implementation",
          "type": "address"
        }
      ],
      "name": "Upgraded",
      "type": "event"
    },
    {
      "inputs": [],
      "name": "DEFAULT_ADMIN_ROLE",
      "outputs": [
        {
          "internalType": "bytes32",
          "name": "",
          "type": "bytes32"
        }
      ],
      "stateMutability": "view",
      "type": "function"
    },
    {
      "inputs": [],
      "name": "MINTER_ROLE",
      "outputs": [
        {
          "internalType": "bytes32",
          "name": "",
          "type": "bytes32"
        }
      ],
      "stateMutability": "view",
      "type": "function"
    },
    {
      "inputs": [],
      "name": "UPGRADER_ROLE",
      "outputs": [
        {
          "internalType": "bytes32",
          "name": "",
          "type": "bytes32"
        }
      ],
      "stateMutability": "view",
      "type": "function"
    },
    {
      "inputs": [],
      "name": "URI_SETTER_ROLE",
      "outputs": [
        {
          "internalType": "bytes32",
          "name": "",
          "type": "bytes32"
        }
      ],
      "stateMutability": "view",
      "type": "function"
    },
    {
      "inputs": [
        {
          "internalType": "address",
          "name": "account",
          "type": "address"
        },
        {
          "internalType": "uint256",
          "name": "id",
          "type": "uint256"
        }
      ],
      "name": "balanceOf",
      "outputs": [
        {
          "internalType": "uint256",
          "name": "",
          "type": "uint256"
        }
      ],
      "stateMutability": "view",
      "type": "function"
    },
    {
      "inputs": [
        {
          "internalType": "address[]",
          "name": "accounts",
          "type": "address[]"
        },
        {
          "internalType": "uint256[]",
          "name": "ids",
          "type": "uint256[]"
        }
      ],
      "name": "balanceOfBatch",
      "outputs": [
        {
          "internalType": "uint256[]",
          "name": "",
          "type": "uint256[]"
        }
      ],
      "stateMutability": "view",
      "type": "function"
    },
    {
      "inputs": [
        {
          "internalType": "address",
          "name": "account",
          "type": "address"
        },
        {
          "internalType": "uint256",
          "name": "id",
          "type": "uint256"
        },
        {
          "internalType": "uint256",
          "name": "value",
          "type": "uint256"
        }
      ],
      "name": "burn",
      "outputs": [],
      "stateMutability": "nonpayable",
      "type": "function"
    },
    {
      "inputs": [
        {
          "internalType": "address",
          "name": "account",
          "type": "address"
        },
        {
          "internalType": "uint256[]",
          "name": "ids",
          "type": "uint256[]"
        },
        {
          "internalType": "uint256[]",
          "name": "values",
          "type": "uint256[]"
        }
      ],
      "name": "burnBatch",
      "outputs": [],
      "stateMutability": "nonpayable",
      "type": "function"
    },
    {
      "inputs": [
        {
          "internalType": "uint256",
          "name": "id",
          "type": "uint256"
        }
      ],
      "name": "exists",
      "outputs": [
        {
          "internalType": "bool",
          "name": "",
          "type": "bool"
        }
      ],
      "stateMutability": "view",
      "type": "function"
    },
    {
      "inputs": [
        {
          "internalType": "bytes32",
          "name": "role",
          "type": "bytes32"
        }
      ],
      "name": "getRoleAdmin",
      "outputs": [
        {
          "internalType": "bytes32",
          "name": "",
          "type": "bytes32"
        }
      ],
      "stateMutability": "view",
      "type": "function"
    },
    {
      "inputs": [
        {
          "internalType": "bytes32",
          "name": "role",
          "type": "bytes32"
        },
        {
          "internalType": "address",
          "name": "account",
          "type": "address"
        }
      ],
      "name": "grantRole",
      "outputs": [],
      "stateMutability": "nonpayable",
      "type": "function"
    },
    {
      "inputs": [
        {
          "internalType": "bytes32",
          "name": "role",
          "type": "bytes32"
        },
        {
          "internalType": "address",
          "name": "account",
          "type": "address"
        }
      ],
      "name": "hasRole",
      "outputs": [
        {
          "internalType": "bool",
          "name": "",
          "type": "bool"
        }
      ],
      "stateMutability": "view",
      "type": "function"
    },
    {
      "inputs": [
        {
          "internalType": "address",
          "name": "account",
          "type": "address"
        },
        {
          "internalType": "address",
          "name": "operator",
          "type": "address"
        }
      ],
      "name": "isApprovedForAll",
      "outputs": [
        {
          "internalType": "bool",
          "name": "",
          "type": "bool"
        }
      ],
      "stateMutability": "view",
      "type": "function"
    },
    {
      "inputs": [
        {
          "internalType": "bytes32",
          "name": "role",
          "type": "bytes32"
        },
        {
          "internalType": "address",
          "name": "account",
          "type": "address"
        }
      ],
      "name": "renounceRole",
      "outputs": [],
      "stateMutability": "nonpayable",
      "type": "function"
    },
    {
      "inputs": [
        {
          "internalType": "bytes32",
          "name": "role",
          "type": "bytes32"
        },
        {
          "internalType": "address",
          "name": "account",
          "type": "address"
        }
      ],
      "name": "revokeRole",
      "outputs": [],
      "stateMutability": "nonpayable",
      "type": "function"
    },
    {
      "inputs": [
        {
          "internalType": "address",
          "name": "from",
          "type": "address"
        },
        {
          "internalType": "address",
          "name": "to",
          "type": "address"
        },
        {
          "internalType": "uint256[]",
          "name": "ids",
          "type": "uint256[]"
        },
        {
          "internalType": "uint256[]",
          "name": "amounts",
          "type": "uint256[]"
        },
        {
          "internalType": "bytes",
          "name": "data",
          "type": "bytes"
        }
      ],
      "name": "safeBatchTransferFrom",
      "outputs": [],
      "stateMutability": "nonpayable",
      "type": "function"
    },
    {
      "inputs": [
        {
          "internalType": "address",
          "name": "from",
          "type": "address"
        },
        {
          "internalType": "address",
          "name": "to",
          "type": "address"
        },
        {
          "internalType": "uint256",
          "name": "id",
          "type": "uint256"
        },
        {
          "internalType": "uint256",
          "name": "amount",
          "type": "uint256"
        },
        {
          "internalType": "bytes",
          "name": "data",
          "type": "bytes"
        }
      ],
      "name": "safeTransferFrom",
      "outputs": [],
      "stateMutability": "nonpayable",
      "type": "function"
    },
    {
      "inputs": [
        {
          "internalType": "address",
          "name": "operator",
          "type": "address"
        },
        {
          "internalType": "bool",
          "name": "approved",
          "type": "bool"
        }
      ],
      "name": "setApprovalForAll",
      "outputs": [],
      "stateMutability": "nonpayable",
      "type": "function"
    },
    {
      "inputs": [
        {
          "internalType": "uint256",
          "name": "id",
          "type": "uint256"
        }
      ],
      "name": "totalSupply",
      "outputs": [
        {
          "internalType": "uint256",
          "name": "",
          "type": "uint256"
        }
      ],
      "stateMutability": "view",
      "type": "function"
    },
    {
      "inputs": [
        {
          "internalType": "address",
          "name": "newImplementation",
          "type": "address"
        }
      ],
      "name": "upgradeTo",
      "outputs": [],
      "stateMutability": "nonpayable",
      "type": "function"
    },
    {
      "inputs": [
        {
          "internalType": "address",
          "name": "newImplementation",
          "type": "address"
        },
        {
          "internalType": "bytes",
          "name": "data",
          "type": "bytes"
        }
      ],
      "name": "upgradeToAndCall",
      "outputs": [],
      "stateMutability": "payable",
      "type": "function"
    },
    {
      "inputs": [
        {
          "internalType": "uint256",
          "name": "",
          "type": "uint256"
        }
      ],
      "name": "uri",
      "outputs": [
        {
          "internalType": "string",
          "name": "",
          "type": "string"
        }
      ],
      "stateMutability": "view",
      "type": "function"
    },
    {
      "inputs": [],
      "name": "initialize",
      "outputs": [],
      "stateMutability": "nonpayable",
      "type": "function"
    },
    {
      "inputs": [
        {
          "internalType": "string",
          "name": "newuri",
          "type": "string"
        }
      ],
      "name": "setURI",
      "outputs": [],
      "stateMutability": "nonpayable",
      "type": "function"
    },
    {
      "inputs": [
        {
          "internalType": "address",
          "name": "account",
          "type": "address"
        },
        {
          "internalType": "uint256",
          "name": "id",
          "type": "uint256"
        },
        {
          "internalType": "uint256",
          "name": "amount",
          "type": "uint256"
        },
        {
          "internalType": "bytes",
          "name": "data",
          "type": "bytes"
        }
      ],
      "name": "mint",
      "outputs": [],
      "stateMutability": "nonpayable",
      "type": "function"
    },
    {
      "inputs": [
        {
          "internalType": "address",
          "name": "to",
          "type": "address"
        },
        {
          "internalType": "uint256[]",
          "name": "ids",
          "type": "uint256[]"
        },
        {
          "internalType": "uint256[]",
          "name": "amounts",
          "type": "uint256[]"
        },
        {
          "internalType": "bytes",
          "name": "data",
          "type": "bytes"
        }
      ],
      "name": "mintBatch",
      "outputs": [],
      "stateMutability": "nonpayable",
      "type": "function"
    },
    {
      "inputs": [
        {
          "internalType": "bytes4",
          "name": "interfaceId",
          "type": "bytes4"
        }
      ],
      "name": "supportsInterface",
      "outputs": [
        {
          "internalType": "bool",
          "name": "",
          "type": "bool"
        }
      ],
      "stateMutability": "view",
      "type": "function"
    }
  ],
  "bytecode": "0x60a0604052306080523480156200001557600080fd5b50600054610100900460ff168062000030575060005460ff16155b620000985760405162461bcd60e51b815260206004820152602e60248201527f496e697469616c697a61626c653a20636f6e747261637420697320616c72656160448201526d191e481a5b9a5d1a585b1a5e995960921b606482015260840160405180910390fd5b600054610100900460ff16158015620000bb576000805461ffff19166101011790555b8015620000ce576000805461ff00191690555b50608051613148620001006000396000818161087d015281816108bd01528181610a6f0152610aaf01526131486000f3fe60806040526004361061019b5760003560e01c80636b20c454116100ec578063bd85b0391161008a578063e985e9c511610064578063e985e9c5146104de578063f242432a14610527578063f5298aca14610547578063f72c0d8b1461056757600080fd5b8063bd85b0391461046f578063d53913931461049c578063d547741f146104be57600080fd5b80638129fc1c116100c65780638129fc1c1461040557806391d148541461041a578063a217fddf1461043a578063a22cb4651461044f57600080fd5b80636b20c45414610391578063731133e9146103b15780637f345710146103d157600080fd5b80632eb2c2d6116101595780633659cfe6116101335780633659cfe6146103025780634e1273f4146103225780634f1ef2861461034f5780634f558e791461036257600080fd5b80632eb2c2d6146102a25780632f2ff15d146102c257806336568abe146102e257600080fd5b8062fdd58e146101a057806301ffc9a7146101d357806302fe5305146102035780630e89341c146102255780631f7fdffa14610252578063248a9ca314610272575b600080fd5b3480156101ac57600080fd5b506101c06101bb366004612384565b61059b565b6040519081526020015b60405180910390f35b3480156101df57600080fd5b506101f36101ee3660046123c4565b610634565b60405190151581526020016101ca565b34801561020f57600080fd5b5061022361021e366004612480565b610645565b005b34801561023157600080fd5b506102456102403660046124d0565b61067d565b6040516101ca9190612545565b34801561025e57600080fd5b5061022361026d36600461260c565b610711565b34801561027e57600080fd5b506101c061028d3660046124d0565b60009081526097602052604090206001015490565b3480156102ae57600080fd5b506102236102bd3660046126a4565b61073d565b3480156102ce57600080fd5b506102236102dd36600461274d565b6107cd565b3480156102ee57600080fd5b506102236102fd36600461274d565b6107f8565b34801561030e57600080fd5b5061022361031d366004612779565b610872565b34801561032e57600080fd5b5061034261033d366004612794565b61093b565b6040516101ca9190612899565b61022361035d3660046128ac565b610a64565b34801561036e57600080fd5b506101f361037d3660046124d0565b600090815260fb6020526040902054151590565b34801561039d57600080fd5b506102236103ac3660046128ef565b610b1a565b3480156103bd57600080fd5b506102236103cc366004612962565b610b5d565b3480156103dd57600080fd5b506101c07f7804d923f43a17d325d77e781528e0793b2edd9890ab45fc64efd7b4b427744c81565b34801561041157600080fd5b50610223610b82565b34801561042657600080fd5b506101f361043536600461274d565b610c9c565b34801561044657600080fd5b506101c0600081565b34801561045b57600080fd5b5061022361046a3660046129b6565b610cc7565b34801561047b57600080fd5b506101c061048a3660046124d0565b600090815260fb602052604090205490565b3480156104a857600080fd5b506101c06000805160206130f383398151915281565b3480156104ca57600080fd5b506102236104d936600461274d565b610cd2565b3480156104ea57600080fd5b506101f36104f93660046129f2565b6001600160a01b03918216600090815260666020908152604080832093909416825291909152205460ff1690565b34801561053357600080fd5b50610223610542366004612a1c565b610cf8565b34801561055357600080fd5b50610223610562366004612a80565b610d3d565b34801561057357600080fd5b506101c07f189ab7a9244df0848122154315af71fe140f3db0fe014031783b0946b8c9d2e381565b60006001600160a01b03831661060c5760405162461bcd60e51b815260206004820152602b60248201527f455243313135353a2062616c616e636520717565727920666f7220746865207a60448201526a65726f206164647265737360a81b60648201526084015b60405180910390fd5b5060009081526065602090815260408083206001600160a01b03949094168352929052205490565b600061063f82610d80565b92915050565b7f7804d923f43a17d325d77e781528e0793b2edd9890ab45fc64efd7b4b427744c6106708133610da5565b61067982610e09565b5050565b60606067805461068c90612ab3565b80601f01602080910402602001604051908101604052809291908181526020018280546106b890612ab3565b80156107055780601f106106da57610100808354040283529160200191610705565b820191906000526020600020905b8154815290600101906020018083116106e857829003601f168201915b50505050509050919050565b6000805160206130f383398151915261072a8133610da5565b61073685858585610e1c565b5050505050565b6001600160a01b038516331480610759575061075985336104f9565b6107c05760405162461bcd60e51b815260206004820152603260248201527f455243313135353a207472616e736665722063616c6c6572206973206e6f74206044820152711bdddb995c881b9bdc88185c1c1c9bdd995960721b6064820152608401610603565b6107368585858585610f77565b6000828152609760205260409020600101546107e98133610da5565b6107f38383611124565b505050565b6001600160a01b03811633146108685760405162461bcd60e51b815260206004820152602f60248201527f416363657373436f6e74726f6c3a2063616e206f6e6c792072656e6f756e636560448201526e103937b632b9903337b91039b2b63360891b6064820152608401610603565b61067982826111aa565b306001600160a01b037f00000000000000000000000000000000000000000000000000000000000000001614156108bb5760405162461bcd60e51b815260040161060390612aee565b7f00000000000000000000000000000000000000000000000000000000000000006001600160a01b03166108ed611211565b6001600160a01b0316146109135760405162461bcd60e51b815260040161060390612b3a565b61091c8161123f565b604080516000808252602082019092526109389183919061126a565b50565b606081518351146109a05760405162461bcd60e51b815260206004820152602960248201527f455243313135353a206163636f756e747320616e6420696473206c656e677468604482015268040dad2e6dac2e8c6d60bb1b6064820152608401610603565b600083516001600160401b038111156109bb576109bb6123e1565b6040519080825280602002602001820160405280156109e4578160200160208202803683370190505b50905060005b8451811015610a5c57610a2f858281518110610a0857610a08612b86565b6020026020010151858381518110610a2257610a22612b86565b602002602001015161059b565b828281518110610a4157610a41612b86565b6020908102919091010152610a5581612bb2565b90506109ea565b509392505050565b306001600160a01b037f0000000000000000000000000000000000000000000000000000000000000000161415610aad5760405162461bcd60e51b815260040161060390612aee565b7f00000000000000000000000000000000000000000000000000000000000000006001600160a01b0316610adf611211565b6001600160a01b031614610b055760405162461bcd60e51b815260040161060390612b3a565b610b0e8261123f565b6106798282600161126a565b6001600160a01b038316331480610b365750610b3683336104f9565b610b525760405162461bcd60e51b815260040161060390612bcd565b6107f38383836113ae565b6000805160206130f3833981519152610b768133610da5565b6107368585858561153f565b600054610100900460ff1680610b9b575060005460ff16155b610bb75760405162461bcd60e51b815260040161060390612c16565b600054610100900460ff16158015610bd9576000805461ffff19166101011790555b610bf160405180602001604052806000815250611617565b610bf961169c565b610c0161169c565b610c0961169c565b610c1161170b565b610c1c600033611124565b610c467f7804d923f43a17d325d77e781528e0793b2edd9890ab45fc64efd7b4b427744c33611124565b610c5e6000805160206130f383398151915233611124565b610c887f189ab7a9244df0848122154315af71fe140f3db0fe014031783b0946b8c9d2e333611124565b8015610938576000805461ff001916905550565b60009182526097602090815260408084206001600160a01b0393909316845291905290205460ff1690565b610679338383611769565b600082815260976020526040902060010154610cee8133610da5565b6107f383836111aa565b6001600160a01b038516331480610d145750610d1485336104f9565b610d305760405162461bcd60e51b815260040161060390612bcd565b610736858585858561184a565b6001600160a01b038316331480610d595750610d5983336104f9565b610d755760405162461bcd60e51b815260040161060390612bcd565b6107f383838361196b565b60006001600160e01b03198216637965db0b60e01b148061063f575061063f82611a70565b610daf8282610c9c565b61067957610dc7816001600160a01b03166014611ac0565b610dd2836020611ac0565b604051602001610de3929190612c64565b60408051601f198184030181529082905262461bcd60e51b825261060391600401612545565b80516106799060679060208401906122cf565b6001600160a01b038416610e425760405162461bcd60e51b815260040161060390612cd9565b8151835114610e635760405162461bcd60e51b815260040161060390612d1a565b33610e7381600087878787611c62565b60005b8451811015610f0f57838181518110610e9157610e91612b86565b602002602001015160656000878481518110610eaf57610eaf612b86565b602002602001015181526020019081526020016000206000886001600160a01b03166001600160a01b031681526020019081526020016000206000828254610ef79190612d62565b90915550819050610f0781612bb2565b915050610e76565b50846001600160a01b031660006001600160a01b0316826001600160a01b03167f4a39dc06d4c0dbc64b70af90fd698a233a518aa5d07e595d983b8c0526c8f7fb8787604051610f60929190612d7a565b60405180910390a461073681600087878787611c70565b8151835114610f985760405162461bcd60e51b815260040161060390612d1a565b6001600160a01b038416610fbe5760405162461bcd60e51b815260040161060390612d9f565b33610fcd818787878787611c62565b60005b84518110156110b6576000858281518110610fed57610fed612b86565b60200260200101519050600085838151811061100b5761100b612b86565b60209081029190910181015160008481526065835260408082206001600160a01b038e16835290935291909120549091508181101561105c5760405162461bcd60e51b815260040161060390612de4565b60008381526065602090815260408083206001600160a01b038e8116855292528083208585039055908b1682528120805484929061109b908490612d62565b92505081905550505050806110af90612bb2565b9050610fd0565b50846001600160a01b0316866001600160a01b0316826001600160a01b03167f4a39dc06d4c0dbc64b70af90fd698a233a518aa5d07e595d983b8c0526c8f7fb8787604051611106929190612d7a565b60405180910390a461111c818787878787611c70565b505050505050565b61112e8282610c9c565b6106795760008281526097602090815260408083206001600160a01b03851684529091529020805460ff191660011790556111663390565b6001600160a01b0316816001600160a01b0316837f2f8788117e7eff1d82e926ec794901d17c78024a50270940304540a733656f0d60405160405180910390a45050565b6111b48282610c9c565b156106795760008281526097602090815260408083206001600160a01b0385168085529252808320805460ff1916905551339285917ff6391f5c32d9c69d2a47ea670b442974b53935d1edc7fd64eb21e047a839171b9190a45050565b7f360894a13ba1a3210667c828492db98dca3e2076cc3735a920a3ca505d382bbc546001600160a01b031690565b7f189ab7a9244df0848122154315af71fe140f3db0fe014031783b0946b8c9d2e36106798133610da5565b6000611274611211565b905061127f84611ddb565b60008351118061128c5750815b1561129d5761129b8484611e80565b505b7f4910fdfa16fed3260ed0e7147f7cc6da11a60208b5b9406d12a635614ffd9143805460ff1661073657805460ff191660011781556040516001600160a01b038316602482015261131c90869060440160408051601f198184030181529190526020810180516001600160e01b0316631b2ce7f360e11b179052611e80565b50805460ff1916815561132d611211565b6001600160a01b0316826001600160a01b0316146113a55760405162461bcd60e51b815260206004820152602f60248201527f45524331393637557067726164653a207570677261646520627265616b73206660448201526e75727468657220757067726164657360881b6064820152608401610603565b61073685611f6b565b6001600160a01b0383166113d45760405162461bcd60e51b815260040161060390612e2e565b80518251146113f55760405162461bcd60e51b815260040161060390612d1a565b600033905061141881856000868660405180602001604052806000815250611c62565b60005b83518110156114e057600084828151811061143857611438612b86565b60200260200101519050600084838151811061145657611456612b86565b60209081029190910181015160008481526065835260408082206001600160a01b038c1683529093529190912054909150818110156114a75760405162461bcd60e51b815260040161060390612e71565b60009283526065602090815260408085206001600160a01b038b16865290915290922091039055806114d881612bb2565b91505061141b565b5060006001600160a01b0316846001600160a01b0316826001600160a01b03167f4a39dc06d4c0dbc64b70af90fd698a233a518aa5d07e595d983b8c0526c8f7fb8686604051611531929190612d7a565b60405180910390a450505050565b6001600160a01b0384166115655760405162461bcd60e51b815260040161060390612cd9565b336115858160008761157688611fab565b61157f88611fab565b87611c62565b60008481526065602090815260408083206001600160a01b0389168452909152812080548592906115b7908490612d62565b909155505060408051858152602081018590526001600160a01b0380881692600092918516917fc3d58168c5ae7397731d063d5bbf3d657854427343f4c083240f7aacaa2d0f62910160405180910390a461073681600087878787611ff6565b600054610100900460ff1680611630575060005460ff16155b61164c5760405162461bcd60e51b815260040161060390612c16565b600054610100900460ff1615801561166e576000805461ffff19166101011790555b6116766120c0565b61167e6120c0565b6116878261212a565b8015610679576000805461ff00191690555050565b600054610100900460ff16806116b5575060005460ff16155b6116d15760405162461bcd60e51b815260040161060390612c16565b600054610100900460ff161580156116f3576000805461ffff19166101011790555b6116fb6120c0565b6117036120c0565b610c886120c0565b600054610100900460ff1680611724575060005460ff16155b6117405760405162461bcd60e51b815260040161060390612c16565b600054610100900460ff161580156116fb576000805461ffff19166101011790556117036120c0565b816001600160a01b0316836001600160a01b031614156117dd5760405162461bcd60e51b815260206004820152602960248201527f455243313135353a2073657474696e6720617070726f76616c20737461747573604482015268103337b91039b2b63360b91b6064820152608401610603565b6001600160a01b03838116600081815260666020908152604080832094871680845294825291829020805460ff191686151590811790915591519182527f17307eab39ab6107e8899845ad3d59bd9653f200f220920489ca2b5937696c31910160405180910390a3505050565b6001600160a01b0384166118705760405162461bcd60e51b815260040161060390612d9f565b3361188081878761157688611fab565b60008481526065602090815260408083206001600160a01b038a168452909152902054838110156118c35760405162461bcd60e51b815260040161060390612de4565b60008581526065602090815260408083206001600160a01b038b8116855292528083208785039055908816825281208054869290611902908490612d62565b909155505060408051868152602081018690526001600160a01b03808916928a821692918616917fc3d58168c5ae7397731d063d5bbf3d657854427343f4c083240f7aacaa2d0f62910160405180910390a4611962828888888888611ff6565b50505050505050565b6001600160a01b0383166119915760405162461bcd60e51b815260040161060390612e2e565b336119c0818560006119a287611fab565b6119ab87611fab565b60405180602001604052806000815250611c62565b60008381526065602090815260408083206001600160a01b038816845290915290205482811015611a035760405162461bcd60e51b815260040161060390612e71565b60008481526065602090815260408083206001600160a01b03898116808652918452828520888703905582518981529384018890529092908616917fc3d58168c5ae7397731d063d5bbf3d657854427343f4c083240f7aacaa2d0f62910160405180910390a45050505050565b60006001600160e01b03198216636cdb3d1360e11b1480611aa157506001600160e01b031982166303a24d0760e21b145b8061063f57506301ffc9a760e01b6001600160e01b031983161461063f565b60606000611acf836002612eb5565b611ada906002612d62565b6001600160401b03811115611af157611af16123e1565b6040519080825280601f01601f191660200182016040528015611b1b576020820181803683370190505b509050600360fc1b81600081518110611b3657611b36612b86565b60200101906001600160f81b031916908160001a905350600f60fb1b81600181518110611b6557611b65612b86565b60200101906001600160f81b031916908160001a9053506000611b89846002612eb5565b611b94906001612d62565b90505b6001811115611c0c576f181899199a1a9b1b9c1cb0b131b232b360811b85600f1660108110611bc857611bc8612b86565b1a60f81b828281518110611bde57611bde612b86565b60200101906001600160f81b031916908160001a90535060049490941c93611c0581612ed4565b9050611b97565b508315611c5b5760405162461bcd60e51b815260206004820181905260248201527f537472696e67733a20686578206c656e67746820696e73756666696369656e746044820152606401610603565b9392505050565b61111c86868686868661218a565b6001600160a01b0384163b1561111c5760405163bc197c8160e01b81526001600160a01b0385169063bc197c8190611cb49089908990889088908890600401612eeb565b602060405180830381600087803b158015611cce57600080fd5b505af1925050508015611cfe575060408051601f3d908101601f19168201909252611cfb91810190612f49565b60015b611dab57611d0a612f66565b806308c379a01415611d445750611d1f612f82565b80611d2a5750611d46565b8060405162461bcd60e51b81526004016106039190612545565b505b60405162461bcd60e51b815260206004820152603460248201527f455243313135353a207472616e7366657220746f206e6f6e20455243313135356044820152732932b1b2b4bb32b91034b6b83632b6b2b73a32b960611b6064820152608401610603565b6001600160e01b0319811663bc197c8160e01b146119625760405162461bcd60e51b81526004016106039061300b565b803b611e3f5760405162461bcd60e51b815260206004820152602d60248201527f455243313936373a206e657720696d706c656d656e746174696f6e206973206e60448201526c1bdd08184818dbdb9d1c9858dd609a1b6064820152608401610603565b7f360894a13ba1a3210667c828492db98dca3e2076cc3735a920a3ca505d382bbc80546001600160a01b0319166001600160a01b0392909216919091179055565b6060823b611edf5760405162461bcd60e51b815260206004820152602660248201527f416464726573733a2064656c65676174652063616c6c20746f206e6f6e2d636f6044820152651b9d1c9858dd60d21b6064820152608401610603565b600080846001600160a01b031684604051611efa9190613053565b600060405180830381855af49150503d8060008114611f35576040519150601f19603f3d011682016040523d82523d6000602084013e611f3a565b606091505b5091509150611f6282826040518060600160405280602781526020016130cc60279139612296565b95945050505050565b611f7481611ddb565b6040516001600160a01b038216907fbc7cd75a20ee27fd9adebab32041f755214dbc6bffa90cc0225b39da2e5c2d3b90600090a250565b60408051600180825281830190925260609160009190602080830190803683370190505090508281600081518110611fe557611fe5612b86565b602090810291909101015292915050565b6001600160a01b0384163b1561111c5760405163f23a6e6160e01b81526001600160a01b0385169063f23a6e619061203a908990899088908890889060040161306f565b602060405180830381600087803b15801561205457600080fd5b505af1925050508015612084575060408051601f3d908101601f1916820190925261208191810190612f49565b60015b61209057611d0a612f66565b6001600160e01b0319811663f23a6e6160e01b146119625760405162461bcd60e51b81526004016106039061300b565b600054610100900460ff16806120d9575060005460ff16155b6120f55760405162461bcd60e51b815260040161060390612c16565b600054610100900460ff16158015610c88576000805461ffff19166101011790558015610938576000805461ff001916905550565b600054610100900460ff1680612143575060005460ff16155b61215f5760405162461bcd60e51b815260040161060390612c16565b600054610100900460ff16158015612181576000805461ffff19166101011790555b61168782610e09565b6001600160a01b0385166122115760005b835181101561220f578281815181106121b6576121b6612b86565b602002602001015160fb60008684815181106121d4576121d4612b86565b6020026020010151815260200190815260200160002060008282546121f99190612d62565b90915550612208905081612bb2565b905061219b565b505b6001600160a01b03841661111c5760005b83518110156119625782818151811061223d5761223d612b86565b602002602001015160fb600086848151811061225b5761225b612b86565b60200260200101518152602001908152602001600020600082825461228091906130b4565b9091555061228f905081612bb2565b9050612222565b606083156122a5575081611c5b565b8251156122b55782518084602001fd5b8160405162461bcd60e51b81526004016106039190612545565b8280546122db90612ab3565b90600052602060002090601f0160209004810192826122fd5760008555612343565b82601f1061231657805160ff1916838001178555612343565b82800160010185558215612343579182015b82811115612343578251825591602001919060010190612328565b5061234f929150612353565b5090565b5b8082111561234f5760008155600101612354565b80356001600160a01b038116811461237f57600080fd5b919050565b6000806040838503121561239757600080fd5b6123a083612368565b946020939093013593505050565b6001600160e01b03198116811461093857600080fd5b6000602082840312156123d657600080fd5b8135611c5b816123ae565b634e487b7160e01b600052604160045260246000fd5b601f8201601f191681016001600160401b038111828210171561241c5761241c6123e1565b6040525050565b60006001600160401b0383111561243c5761243c6123e1565b604051612453601f8501601f1916602001826123f7565b80915083815284848401111561246857600080fd5b83836020830137600060208583010152509392505050565b60006020828403121561249257600080fd5b81356001600160401b038111156124a857600080fd5b8201601f810184136124b957600080fd5b6124c884823560208401612423565b949350505050565b6000602082840312156124e257600080fd5b5035919050565b60005b838110156125045781810151838201526020016124ec565b83811115612513576000848401525b50505050565b600081518084526125318160208601602086016124e9565b601f01601f19169290920160200192915050565b602081526000611c5b6020830184612519565b60006001600160401b03821115612571576125716123e1565b5060051b60200190565b600082601f83011261258c57600080fd5b8135602061259982612558565b6040516125a682826123f7565b83815260059390931b85018201928281019150868411156125c657600080fd5b8286015b848110156125e157803583529183019183016125ca565b509695505050505050565b600082601f8301126125fd57600080fd5b611c5b83833560208501612423565b6000806000806080858703121561262257600080fd5b61262b85612368565b935060208501356001600160401b038082111561264757600080fd5b6126538883890161257b565b9450604087013591508082111561266957600080fd5b6126758883890161257b565b9350606087013591508082111561268b57600080fd5b50612698878288016125ec565b91505092959194509250565b600080600080600060a086880312156126bc57600080fd5b6126c586612368565b94506126d360208701612368565b935060408601356001600160401b03808211156126ef57600080fd5b6126fb89838a0161257b565b9450606088013591508082111561271157600080fd5b61271d89838a0161257b565b9350608088013591508082111561273357600080fd5b50612740888289016125ec565b9150509295509295909350565b6000806040838503121561276057600080fd5b8235915061277060208401612368565b90509250929050565b60006020828403121561278b57600080fd5b611c5b82612368565b600080604083850312156127a757600080fd5b82356001600160401b03808211156127be57600080fd5b818501915085601f8301126127d257600080fd5b813560206127df82612558565b6040516127ec82826123f7565b83815260059390931b850182019282810191508984111561280c57600080fd5b948201945b838610156128315761282286612368565b82529482019490820190612811565b9650508601359250508082111561284757600080fd5b506128548582860161257b565b9150509250929050565b600081518084526020808501945080840160005b8381101561288e57815187529582019590820190600101612872565b509495945050505050565b602081526000611c5b602083018461285e565b600080604083850312156128bf57600080fd5b6128c883612368565b915060208301356001600160401b038111156128e357600080fd5b612854858286016125ec565b60008060006060848603121561290457600080fd5b61290d84612368565b925060208401356001600160401b038082111561292957600080fd5b6129358783880161257b565b9350604086013591508082111561294b57600080fd5b506129588682870161257b565b9150509250925092565b6000806000806080858703121561297857600080fd5b61298185612368565b9350602085013592506040850135915060608501356001600160401b038111156129aa57600080fd5b612698878288016125ec565b600080604083850312156129c957600080fd5b6129d283612368565b9150602083013580151581146129e757600080fd5b809150509250929050565b60008060408385031215612a0557600080fd5b612a0e83612368565b915061277060208401612368565b600080600080600060a08688031215612a3457600080fd5b612a3d86612368565b9450612a4b60208701612368565b9350604086013592506060860135915060808601356001600160401b03811115612a7457600080fd5b612740888289016125ec565b600080600060608486031215612a9557600080fd5b612a9e84612368565b95602085013595506040909401359392505050565b600181811c90821680612ac757607f821691505b60208210811415612ae857634e487b7160e01b600052602260045260246000fd5b50919050565b6020808252602c908201527f46756e6374696f6e206d7573742062652063616c6c6564207468726f7567682060408201526b19195b1959d85d1958d85b1b60a21b606082015260800190565b6020808252602c908201527f46756e6374696f6e206d7573742062652063616c6c6564207468726f7567682060408201526b6163746976652070726f787960a01b606082015260800190565b634e487b7160e01b600052603260045260246000fd5b634e487b7160e01b600052601160045260246000fd5b6000600019821415612bc657612bc6612b9c565b5060010190565b60208082526029908201527f455243313135353a2063616c6c6572206973206e6f74206f776e6572206e6f7260408201526808185c1c1c9bdd995960ba1b606082015260800190565b6020808252602e908201527f496e697469616c697a61626c653a20636f6e747261637420697320616c72656160408201526d191e481a5b9a5d1a585b1a5e995960921b606082015260800190565b7f416363657373436f6e74726f6c3a206163636f756e7420000000000000000000815260008351612c9c8160178501602088016124e9565b7001034b99036b4b9b9b4b733903937b6329607d1b6017918401918201528351612ccd8160288401602088016124e9565b01602801949350505050565b60208082526021908201527f455243313135353a206d696e7420746f20746865207a65726f206164647265736040820152607360f81b606082015260800190565b60208082526028908201527f455243313135353a2069647320616e6420616d6f756e7473206c656e677468206040820152670dad2e6dac2e8c6d60c31b606082015260800190565b60008219821115612d7557612d75612b9c565b500190565b604081526000612d8d604083018561285e565b8281036020840152611f62818561285e565b60208082526025908201527f455243313135353a207472616e7366657220746f20746865207a65726f206164604082015264647265737360d81b606082015260800190565b6020808252602a908201527f455243313135353a20696e73756666696369656e742062616c616e636520666f60408201526939103a3930b739b332b960b11b606082015260800190565b60208082526023908201527f455243313135353a206275726e2066726f6d20746865207a65726f206164647260408201526265737360e81b606082015260800190565b60208082526024908201527f455243313135353a206275726e20616d6f756e7420657863656564732062616c604082015263616e636560e01b606082015260800190565b6000816000190483118215151615612ecf57612ecf612b9c565b500290565b600081612ee357612ee3612b9c565b506000190190565b6001600160a01b0386811682528516602082015260a060408201819052600090612f179083018661285e565b8281036060840152612f29818661285e565b90508281036080840152612f3d8185612519565b98975050505050505050565b600060208284031215612f5b57600080fd5b8151611c5b816123ae565b600060033d1115612f7f5760046000803e5060005160e01c5b90565b600060443d1015612f905790565b6040516003193d81016004833e81513d6001600160401b038160248401118184111715612fbf57505050505090565b8285019150815181811115612fd75750505050505090565b843d8701016020828501011115612ff15750505050505090565b613000602082860101876123f7565b509095945050505050565b60208082526028908201527f455243313135353a204552433131353552656365697665722072656a656374656040820152676420746f6b656e7360c01b606082015260800190565b600082516130658184602087016124e9565b9190910192915050565b6001600160a01b03868116825285166020820152604081018490526060810183905260a0608082018190526000906130a990830184612519565b979650505050505050565b6000828210156130c6576130c6612b9c565b50039056fe416464726573733a206c6f772d6c6576656c2064656c65676174652063616c6c206661696c65649f2df0fed2c77648de5860a4cc508cd0818c85b8b8a1ab4ceeef8d981c8956a6a26469706673582212200b5d1658cd21910d0436d7372366f10f384ca7fd2864eb04a247acd5b81cc5b364736f6c63430008090033",
  "immutableReferences": {
    "1023": [
      {
        "length": 32,
        "start": 2173
      },
      {
        "length": 32,
        "start": 2237
      },
      {
        "length": 32,
        "start": 2671
      },
      {
        "length": 32,
        "start": 2735
      }
    ]
  },
  "source": "// SPDX-License-Identifier: MIT\npragma solidity 0.8.9;\n\nimport \"@openzeppelin/contracts-upgradeable/token/ERC1155/ERC1155Upgradeable.sol\";\nimport \"@openzeppelin/contracts-upgradeable/access/AccessControlUpgradeable.sol\";\nimport \"@openzeppelin/contracts-upgradeable/token/ERC1155/extensions/ERC1155BurnableUpgradeable.sol\";\nimport \"@openzeppelin/contracts-upgradeable/token/ERC1155/extensions/ERC1155SupplyUpgradeable.sol\";\nimport \"@openzeppelin/contracts-upgradeable/proxy/utils/Initializable.sol\";\nimport \"@openzeppelin/contracts-upgradeable/proxy/utils/UUPSUpgradeable.sol\";\n\ncontract MelandTierX is Initializable, ERC1155Upgradeable, AccessControlUpgradeable, ERC1155BurnableUpgradeable, ERC1155SupplyUpgradeable, UUPSUpgradeable {\n    bytes32 public constant URI_SETTER_ROLE = keccak256(\"URI_SETTER_ROLE\");\n    bytes32 public constant MINTER_ROLE = keccak256(\"MINTER_ROLE\");\n    bytes32 public constant UPGRADER_ROLE = keccak256(\"UPGRADER_ROLE\");\n\n    /// @custom:oz-upgrades-unsafe-allow constructor\n    constructor() initializer {}\n\n    function initialize() initializer public {\n        __ERC1155_init(\"\");\n        __AccessControl_init();\n        __ERC1155Burnable_init();\n        __ERC1155Supply_init();\n        __UUPSUpgradeable_init();\n\n        _grantRole(DEFAULT_ADMIN_ROLE, msg.sender);\n        _grantRole(URI_SETTER_ROLE, msg.sender);\n        _grantRole(MINTER_ROLE, msg.sender);\n        _grantRole(UPGRADER_ROLE, msg.sender);\n    }\n\n    function setURI(string memory newuri) public onlyRole(URI_SETTER_ROLE) {\n        _setURI(newuri);\n    }\n\n    function mint(address account, uint256 id, uint256 amount, bytes memory data)\n        public\n        onlyRole(MINTER_ROLE)\n    {\n        _mint(account, id, amount, data);\n    }\n\n    function mintBatch(address to, uint256[] memory ids, uint256[] memory amounts, bytes memory data)\n        public\n        onlyRole(MINTER_ROLE)\n    {\n        _mintBatch(to, ids, amounts, data);\n    }\n\n    function _authorizeUpgrade(address newImplementation)\n        internal\n        onlyRole(UPGRADER_ROLE)\n        override\n    {}\n\n    // The following functions are overrides required by Solidity.\n\n    function _beforeTokenTransfer(address operator, address from, address to, uint256[] memory ids, uint256[] memory amounts, bytes memory data)\n        internal\n        override(ERC1155Upgradeable, ERC1155SupplyUpgradeable)\n    {\n        super._beforeTokenTransfer(operator, from, to, ids, amounts, data);\n    }\n\n    function supportsInterface(bytes4 interfaceId)\n        public\n        view\n        override(ERC1155Upgradeable, AccessControlUpgradeable)\n        returns (bool)\n    {\n        return super.supportsInterface(interfaceId);\n    }\n}",
  "sourcePath": "/Users/alberthuang/code/icw/meland/contracts/MelandTierX.sol",
  "compiler": {
    "name": "solc",
    "version": "0.8.9+commit.e5eed63a.Emscripten.clang"
  },
  "schemaVersion": "3.4.3",
  "updatedAt": "2021-12-16T19:17:15.486Z",
  "devdoc": {
    "kind": "dev",
    "methods": {
      "balanceOf(address,uint256)": {
        "details": "See {IERC1155-balanceOf}. Requirements: - `account` cannot be the zero address."
      },
      "balanceOfBatch(address[],uint256[])": {
        "details": "See {IERC1155-balanceOfBatch}. Requirements: - `accounts` and `ids` must have the same length."
      },
      "constructor": {
        "custom:oz-upgrades-unsafe-allow": "constructor"
      },
      "exists(uint256)": {
        "details": "Indicates whether any token exist with a given id, or not."
      },
      "getRoleAdmin(bytes32)": {
        "details": "Returns the admin role that controls `role`. See {grantRole} and {revokeRole}. To change a role's admin, use {_setRoleAdmin}."
      },
      "grantRole(bytes32,address)": {
        "details": "Grants `role` to `account`. If `account` had not been already granted `role`, emits a {RoleGranted} event. Requirements: - the caller must have ``role``'s admin role."
      },
      "hasRole(bytes32,address)": {
        "details": "Returns `true` if `account` has been granted `role`."
      },
      "isApprovedForAll(address,address)": {
        "details": "See {IERC1155-isApprovedForAll}."
      },
      "renounceRole(bytes32,address)": {
        "details": "Revokes `role` from the calling account. Roles are often managed via {grantRole} and {revokeRole}: this function's purpose is to provide a mechanism for accounts to lose their privileges if they are compromised (such as when a trusted device is misplaced). If the calling account had been revoked `role`, emits a {RoleRevoked} event. Requirements: - the caller must be `account`."
      },
      "revokeRole(bytes32,address)": {
        "details": "Revokes `role` from `account`. If `account` had been granted `role`, emits a {RoleRevoked} event. Requirements: - the caller must have ``role``'s admin role."
      },
      "safeBatchTransferFrom(address,address,uint256[],uint256[],bytes)": {
        "details": "See {IERC1155-safeBatchTransferFrom}."
      },
      "safeTransferFrom(address,address,uint256,uint256,bytes)": {
        "details": "See {IERC1155-safeTransferFrom}."
      },
      "setApprovalForAll(address,bool)": {
        "details": "See {IERC1155-setApprovalForAll}."
      },
      "totalSupply(uint256)": {
        "details": "Total amount of tokens in with a given id."
      },
      "upgradeTo(address)": {
        "details": "Upgrade the implementation of the proxy to `newImplementation`. Calls {_authorizeUpgrade}. Emits an {Upgraded} event."
      },
      "upgradeToAndCall(address,bytes)": {
        "details": "Upgrade the implementation of the proxy to `newImplementation`, and subsequently execute the function call encoded in `data`. Calls {_authorizeUpgrade}. Emits an {Upgraded} event."
      },
      "uri(uint256)": {
        "details": "See {IERC1155MetadataURI-uri}. This implementation returns the same URI for *all* token types. It relies on the token type ID substitution mechanism https://eips.ethereum.org/EIPS/eip-1155#metadata[defined in the EIP]. Clients calling this function must replace the `\\{id\\}` substring with the actual token type ID."
      }
    },
    "version": 1
  },
  "userdoc": {
    "kind": "user",
    "methods": {},
    "version": 1
  }
}