{
  "contractName": "MELD",
  "abi": [
    {
      "anonymous": false,
      "inputs": [
        {
          "indexed": false,
          "internalType": "address",
          "name": "previousAdmin",
          "type": "address"
        },
        {
          "indexed": false,
          "internalType": "address",
          "name": "newAdmin",
          "type": "address"
        }
      ],
      "name": "AdminChanged",
      "type": "event"
    },
    {
      "anonymous": false,
      "inputs": [
        {
          "indexed": true,
          "internalType": "address",
          "name": "owner",
          "type": "address"
        },
        {
          "indexed": true,
          "internalType": "address",
          "name": "spender",
          "type": "address"
        },
        {
          "indexed": false,
          "internalType": "uint256",
          "name": "value",
          "type": "uint256"
        }
      ],
      "name": "Approval",
      "type": "event"
    },
    {
      "anonymous": false,
      "inputs": [
        {
          "indexed": true,
          "internalType": "address",
          "name": "beacon",
          "type": "address"
        }
      ],
      "name": "BeaconUpgraded",
      "type": "event"
    },
    {
      "anonymous": false,
      "inputs": [
        {
          "indexed": false,
          "internalType": "address",
          "name": "_newImplementation",
          "type": "address"
        },
        {
          "indexed": false,
          "internalType": "uint256",
          "name": "createdAt",
          "type": "uint256"
        }
      ],
      "name": "NewPrepareUpgradeImpl",
      "type": "event"
    },
    {
      "anonymous": false,
      "inputs": [
        {
          "indexed": false,
          "internalType": "uint256",
          "name": "deplay",
          "type": "uint256"
        }
      ],
      "name": "NewUpgradeDelay",
      "type": "event"
    },
    {
      "anonymous": false,
      "inputs": [
        {
          "indexed": true,
          "internalType": "address",
          "name": "previousOwner",
          "type": "address"
        },
        {
          "indexed": true,
          "internalType": "address",
          "name": "newOwner",
          "type": "address"
        }
      ],
      "name": "OwnershipTransferred",
      "type": "event"
    },
    {
      "anonymous": false,
      "inputs": [
        {
          "indexed": true,
          "internalType": "address",
          "name": "from",
          "type": "address"
        },
        {
          "indexed": true,
          "internalType": "address",
          "name": "to",
          "type": "address"
        },
        {
          "indexed": false,
          "internalType": "uint256",
          "name": "value",
          "type": "uint256"
        }
      ],
      "name": "Transfer",
      "type": "event"
    },
    {
      "anonymous": false,
      "inputs": [
        {
          "indexed": true,
          "internalType": "address",
          "name": "implementation",
          "type": "address"
        }
      ],
      "name": "Upgraded",
      "type": "event"
    },
    {
      "inputs": [],
      "name": "BP",
      "outputs": [
        {
          "internalType": "contract BPContract",
          "name": "",
          "type": "address"
        }
      ],
      "stateMutability": "view",
      "type": "function"
    },
    {
      "inputs": [],
      "name": "BPDisabledForever",
      "outputs": [
        {
          "internalType": "bool",
          "name": "",
          "type": "bool"
        }
      ],
      "stateMutability": "view",
      "type": "function"
    },
    {
      "inputs": [
        {
          "internalType": "address",
          "name": "owner",
          "type": "address"
        },
        {
          "internalType": "address",
          "name": "spender",
          "type": "address"
        }
      ],
      "name": "allowance",
      "outputs": [
        {
          "internalType": "uint256",
          "name": "",
          "type": "uint256"
        }
      ],
      "stateMutability": "view",
      "type": "function"
    },
    {
      "inputs": [
        {
          "internalType": "address",
          "name": "spender",
          "type": "address"
        },
        {
          "internalType": "uint256",
          "name": "amount",
          "type": "uint256"
        }
      ],
      "name": "approve",
      "outputs": [
        {
          "internalType": "bool",
          "name": "",
          "type": "bool"
        }
      ],
      "stateMutability": "nonpayable",
      "type": "function"
    },
    {
      "inputs": [
        {
          "internalType": "address",
          "name": "account",
          "type": "address"
        }
      ],
      "name": "balanceOf",
      "outputs": [
        {
          "internalType": "uint256",
          "name": "",
          "type": "uint256"
        }
      ],
      "stateMutability": "view",
      "type": "function"
    },
    {
      "inputs": [],
      "name": "bpEnabled",
      "outputs": [
        {
          "internalType": "bool",
          "name": "",
          "type": "bool"
        }
      ],
      "stateMutability": "view",
      "type": "function"
    },
    {
      "inputs": [
        {
          "internalType": "uint256",
          "name": "amount",
          "type": "uint256"
        }
      ],
      "name": "burn",
      "outputs": [],
      "stateMutability": "nonpayable",
      "type": "function"
    },
    {
      "inputs": [
        {
          "internalType": "address",
          "name": "account",
          "type": "address"
        },
        {
          "internalType": "uint256",
          "name": "amount",
          "type": "uint256"
        }
      ],
      "name": "burnFrom",
      "outputs": [],
      "stateMutability": "nonpayable",
      "type": "function"
    },
    {
      "inputs": [],
      "name": "decimals",
      "outputs": [
        {
          "internalType": "uint8",
          "name": "",
          "type": "uint8"
        }
      ],
      "stateMutability": "view",
      "type": "function"
    },
    {
      "inputs": [
        {
          "internalType": "address",
          "name": "spender",
          "type": "address"
        },
        {
          "internalType": "uint256",
          "name": "subtractedValue",
          "type": "uint256"
        }
      ],
      "name": "decreaseAllowance",
      "outputs": [
        {
          "internalType": "bool",
          "name": "",
          "type": "bool"
        }
      ],
      "stateMutability": "nonpayable",
      "type": "function"
    },
    {
      "inputs": [
        {
          "internalType": "address",
          "name": "spender",
          "type": "address"
        },
        {
          "internalType": "uint256",
          "name": "addedValue",
          "type": "uint256"
        }
      ],
      "name": "increaseAllowance",
      "outputs": [
        {
          "internalType": "bool",
          "name": "",
          "type": "bool"
        }
      ],
      "stateMutability": "nonpayable",
      "type": "function"
    },
    {
      "inputs": [],
      "name": "name",
      "outputs": [
        {
          "internalType": "string",
          "name": "",
          "type": "string"
        }
      ],
      "stateMutability": "view",
      "type": "function"
    },
    {
      "inputs": [],
      "name": "owner",
      "outputs": [
        {
          "internalType": "address",
          "name": "",
          "type": "address"
        }
      ],
      "stateMutability": "view",
      "type": "function"
    },
    {
      "inputs": [],
      "name": "renounceOwnership",
      "outputs": [],
      "stateMutability": "nonpayable",
      "type": "function"
    },
    {
      "inputs": [],
      "name": "symbol",
      "outputs": [
        {
          "internalType": "string",
          "name": "",
          "type": "string"
        }
      ],
      "stateMutability": "view",
      "type": "function"
    },
    {
      "inputs": [],
      "name": "totalSupply",
      "outputs": [
        {
          "internalType": "uint256",
          "name": "",
          "type": "uint256"
        }
      ],
      "stateMutability": "view",
      "type": "function"
    },
    {
      "inputs": [
        {
          "internalType": "address",
          "name": "recipient",
          "type": "address"
        },
        {
          "internalType": "uint256",
          "name": "amount",
          "type": "uint256"
        }
      ],
      "name": "transfer",
      "outputs": [
        {
          "internalType": "bool",
          "name": "",
          "type": "bool"
        }
      ],
      "stateMutability": "nonpayable",
      "type": "function"
    },
    {
      "inputs": [
        {
          "internalType": "address",
          "name": "sender",
          "type": "address"
        },
        {
          "internalType": "address",
          "name": "recipient",
          "type": "address"
        },
        {
          "internalType": "uint256",
          "name": "amount",
          "type": "uint256"
        }
      ],
      "name": "transferFrom",
      "outputs": [
        {
          "internalType": "bool",
          "name": "",
          "type": "bool"
        }
      ],
      "stateMutability": "nonpayable",
      "type": "function"
    },
    {
      "inputs": [
        {
          "internalType": "address",
          "name": "newOwner",
          "type": "address"
        }
      ],
      "name": "transferOwnership",
      "outputs": [],
      "stateMutability": "nonpayable",
      "type": "function"
    },
    {
      "inputs": [
        {
          "internalType": "address",
          "name": "newImplementation",
          "type": "address"
        }
      ],
      "name": "upgradeTo",
      "outputs": [],
      "stateMutability": "nonpayable",
      "type": "function"
    },
    {
      "inputs": [
        {
          "internalType": "address",
          "name": "newImplementation",
          "type": "address"
        },
        {
          "internalType": "bytes",
          "name": "data",
          "type": "bytes"
        }
      ],
      "name": "upgradeToAndCall",
      "outputs": [],
      "stateMutability": "payable",
      "type": "function"
    },
    {
      "inputs": [],
      "name": "initialize",
      "outputs": [],
      "stateMutability": "nonpayable",
      "type": "function"
    },
    {
      "inputs": [
        {
          "internalType": "address",
          "name": "_bp",
          "type": "address"
        }
      ],
      "name": "setBPAddrss",
      "outputs": [],
      "stateMutability": "nonpayable",
      "type": "function"
    },
    {
      "inputs": [
        {
          "internalType": "bool",
          "name": "_enabled",
          "type": "bool"
        }
      ],
      "name": "setBpEnabled",
      "outputs": [],
      "stateMutability": "nonpayable",
      "type": "function"
    },
    {
      "inputs": [],
      "name": "setBotProtectionDisableForever",
      "outputs": [],
      "stateMutability": "nonpayable",
      "type": "function"
    },
    {
      "inputs": [],
      "name": "getMaxMints",
      "outputs": [
        {
          "internalType": "uint256",
          "name": "",
          "type": "uint256"
        }
      ],
      "stateMutability": "view",
      "type": "function"
    },
    {
      "inputs": [
        {
          "internalType": "uint256",
          "name": "amount",
          "type": "uint256"
        }
      ],
      "name": "mint",
      "outputs": [],
      "stateMutability": "nonpayable",
      "type": "function"
    },
    {
      "inputs": [
        {
          "internalType": "address",
          "name": "_newImplementation",
          "type": "address"
        }
      ],
      "name": "setPrepareUpgrade",
      "outputs": [],
      "stateMutability": "nonpayable",
      "type": "function"
    },
    {
      "inputs": [
        {
          "internalType": "uint256",
          "name": "_delay",
          "type": "uint256"
        }
      ],
      "name": "setUpgradeDelay",
      "outputs": [],
      "stateMutability": "nonpayable",
      "type": "function"
    }
  ],
  "bytecode": "0x60a06040523060805234801561001457600080fd5b5060805161216961004560003960008181610884015281816108c40152818161099301526109d301526121696000f3fe6080604052600436106101c25760003560e01c80635bdf01c8116100f75780639606d20111610095578063a9059cbb11610064578063a9059cbb146104f3578063c818c28014610513578063dd62ed3e14610528578063f2fde38b1461056e57600080fd5b80639606d201146104725780639cfdbd5e14610492578063a0712d68146104b3578063a457c2d7146104d357600080fd5b806379cc6790116100d157806379cc6790146103f65780638129fc1c146104165780638da5cb5b1461042b57806395d89b411461045d57600080fd5b80635bdf01c81461039657806370a08231146103ab578063715018a6146103e157600080fd5b806326898da9116101645780633659cfe61161013e5780633659cfe614610323578063395093511461034357806342966c68146103635780634f1ef2861461038357600080fd5b806326898da9146102c3578063313ce567146102e5578063346168051461030157600080fd5b806318160ddd116101a057806318160ddd146102445780631a31bd4114610263578063206a8a221461028357806323b872dd146102a357600080fd5b806306fdde03146101c7578063095ea7b3146101f25780631138980814610222575b600080fd5b3480156101d357600080fd5b506101dc61058e565b6040516101e99190611c30565b60405180910390f35b3480156101fe57600080fd5b5061021261020d366004611c7f565b610620565b60405190151581526020016101e9565b34801561022e57600080fd5b5061024261023d366004611ca9565b610637565b005b34801561025057600080fd5b506035545b6040519081526020016101e9565b34801561026f57600080fd5b5061024261027e366004611ca9565b6106e7565b34801561028f57600080fd5b5061024261029e366004611cc4565b610784565b3480156102af57600080fd5b506102126102be366004611ce6565b6107cd565b3480156102cf57600080fd5b5061012d5461021290600160a01b900460ff1681565b3480156102f157600080fd5b50604051601281526020016101e9565b34801561030d57600080fd5b5061012d5461021290600160a81b900460ff1681565b34801561032f57600080fd5b5061024261033e366004611ca9565b610879565b34801561034f57600080fd5b5061021261035e366004611c7f565b610942565b34801561036f57600080fd5b5061024261037e366004611d22565b61097e565b610242610391366004611d51565b610988565b3480156103a257600080fd5b50610255610a42565b3480156103b757600080fd5b506102556103c6366004611ca9565b6001600160a01b031660009081526033602052604090205490565b3480156103ed57600080fd5b50610242610a63565b34801561040257600080fd5b50610242610411366004611c7f565b610a99565b34801561042257600080fd5b50610242610b1f565b34801561043757600080fd5b506065546001600160a01b03165b6040516001600160a01b0390911681526020016101e9565b34801561046957600080fd5b506101dc610c4c565b34801561047e57600080fd5b5061024261048d366004611d22565b610c5b565b34801561049e57600080fd5b5061012d54610445906001600160a01b031681565b3480156104bf57600080fd5b506102426104ce366004611d22565b610d07565b3480156104df57600080fd5b506102126104ee366004611c7f565b610dad565b3480156104ff57600080fd5b5061021261050e366004611c7f565b610e46565b34801561051f57600080fd5b50610242610e53565b34801561053457600080fd5b50610255610543366004611e13565b6001600160a01b03918216600090815260346020908152604080832093909416825291909152205490565b34801561057a57600080fd5b50610242610589366004611ca9565b610eab565b60606036805461059d90611e46565b80601f01602080910402602001604051908101604052809291908181526020018280546105c990611e46565b80156106165780601f106105eb57610100808354040283529160200191610616565b820191906000526020600020905b8154815290600101906020018083116105f957829003601f168201915b5050505050905090565b600061062d338484610f43565b5060015b92915050565b6065546001600160a01b0316331461066a5760405162461bcd60e51b815260040161066190611e81565b60405180910390fd5b61012d546001600160a01b0316156106c45760405162461bcd60e51b815260206004820152601c60248201527f43616e206f6e6c7920626520696e697469616c697a6564206f6e6365000000006044820152606401610661565b61012d80546001600160a01b0319166001600160a01b0392909216919091179055565b6065546001600160a01b031633146107115760405162461bcd60e51b815260040161066190611e81565b6040805180820182526001600160a01b03831680825242602092830181905261012f80546001600160a01b031916831790556101308190558351918252918101919091527fcf33b9b7b71796171975286c240694dbc88ef404a7dafb7943c812b2d2ea2fb991015b60405180910390a150565b6065546001600160a01b031633146107ae5760405162461bcd60e51b815260040161066190611e81565b61012d8054911515600160a01b0260ff60a01b19909216919091179055565b60006107da848484611067565b6001600160a01b03841660009081526034602090815260408083203384529091529020548281101561085f5760405162461bcd60e51b815260206004820152602860248201527f45524332303a207472616e7366657220616d6f756e74206578636565647320616044820152676c6c6f77616e636560c01b6064820152608401610661565b61086c8533858403610f43565b60019150505b9392505050565b306001600160a01b037f00000000000000000000000000000000000000000000000000000000000000001614156108c25760405162461bcd60e51b815260040161066190611eb6565b7f00000000000000000000000000000000000000000000000000000000000000006001600160a01b03166108f4611242565b6001600160a01b03161461091a5760405162461bcd60e51b815260040161066190611f02565b61092381611270565b6040805160008082526020820190925261093f9183919061138a565b50565b3360008181526034602090815260408083206001600160a01b0387168452909152812054909161062d918590610979908690611f64565b610f43565b61093f33826114d5565b306001600160a01b037f00000000000000000000000000000000000000000000000000000000000000001614156109d15760405162461bcd60e51b815260040161066190611eb6565b7f00000000000000000000000000000000000000000000000000000000000000006001600160a01b0316610a03611242565b6001600160a01b031614610a295760405162461bcd60e51b815260040161066190611f02565b610a3282611270565b610a3e8282600161138a565b5050565b6000610a506012600a612060565b610a5e90637735940061206f565b905090565b6065546001600160a01b03163314610a8d5760405162461bcd60e51b815260040161066190611e81565b610a97600061162f565b565b6000610aa58333610543565b905081811015610b035760405162461bcd60e51b8152602060048201526024808201527f45524332303a206275726e20616d6f756e74206578636565647320616c6c6f77604482015263616e636560e01b6064820152608401610661565b610b108333848403610f43565b610b1a83836114d5565b505050565b600054610100900460ff16610b3a5760005460ff1615610b3e565b303b155b610ba15760405162461bcd60e51b815260206004820152602e60248201527f496e697469616c697a61626c653a20636f6e747261637420697320616c72656160448201526d191e481a5b9a5d1a585b1a5e995960921b6064820152608401610661565b600054610100900460ff16158015610bc3576000805461ffff19166101011790555b610c0a604051806040016040528060098152602001684d656c616e642e616960b81b815250604051806040016040528060048152602001631351531160e21b815250611681565b610c126116ba565b610c1a6116f1565b610c226116ba565b61012d805460ff60a81b191690556212750061012e55801561093f576000805461ff001916905550565b60606037805461059d90611e46565b6065546001600160a01b03163314610c855760405162461bcd60e51b815260040161066190611e81565b6202a300811015610cd15760405162461bcd60e51b81526020600482015260166024820152754d696e696d756d2074696d652069732032206461797360501b6044820152606401610661565b61012e8190556040518181527f09325ac6d11927d197b5283bc2e7490442ea8a033a071589b8a7a0653587d51290602001610779565b6065546001600160a01b03163314610d315760405162461bcd60e51b815260040161066190611e81565b610d39610a42565b603554610d469083611f64565b1115610da35760405162461bcd60e51b815260206004820152602660248201527f4578636565647320746865206d6178696d756d206e756d626572206f66206d696044820152656e7461626c6560d01b6064820152608401610661565b61093f3382611728565b3360009081526034602090815260408083206001600160a01b038616845290915281205482811015610e2f5760405162461bcd60e51b815260206004820152602560248201527f45524332303a2064656372656173656420616c6c6f77616e63652062656c6f77604482015264207a65726f60d81b6064820152608401610661565b610e3c3385858403610f43565b5060019392505050565b600061062d338484611067565b6065546001600160a01b03163314610e7d5760405162461bcd60e51b815260040161066190611e81565b61012d54600160a81b900460ff1615610e9557600080fd5b61012d805460ff60a81b1916600160a81b179055565b6065546001600160a01b03163314610ed55760405162461bcd60e51b815260040161066190611e81565b6001600160a01b038116610f3a5760405162461bcd60e51b815260206004820152602660248201527f4f776e61626c653a206e6577206f776e657220697320746865207a65726f206160448201526564647265737360d01b6064820152608401610661565b61093f8161162f565b6001600160a01b038316610fa55760405162461bcd60e51b8152602060048201526024808201527f45524332303a20617070726f76652066726f6d20746865207a65726f206164646044820152637265737360e01b6064820152608401610661565b6001600160a01b0382166110065760405162461bcd60e51b815260206004820152602260248201527f45524332303a20617070726f766520746f20746865207a65726f206164647265604482015261737360f01b6064820152608401610661565b6001600160a01b0383811660008181526034602090815260408083209487168084529482529182902085905590518481527f8c5be1e5ebec7d5bd14f71427d1e84f3dd0314c0f7b2291e5b200ac8c7c3b925910160405180910390a3505050565b6001600160a01b0383166110cb5760405162461bcd60e51b815260206004820152602560248201527f45524332303a207472616e736665722066726f6d20746865207a65726f206164604482015264647265737360d81b6064820152608401610661565b6001600160a01b03821661112d5760405162461bcd60e51b815260206004820152602360248201527f45524332303a207472616e7366657220746f20746865207a65726f206164647260448201526265737360e81b6064820152608401610661565b611138838383611813565b6001600160a01b038316600090815260336020526040902054818110156111b05760405162461bcd60e51b815260206004820152602660248201527f45524332303a207472616e7366657220616d6f756e7420657863656564732062604482015265616c616e636560d01b6064820152608401610661565b6001600160a01b038085166000908152603360205260408082208585039055918516815290812080548492906111e7908490611f64565b92505081905550826001600160a01b0316846001600160a01b03167fddf252ad1be2c89b69c2b068fc378daa952ba7f163c4a11628f55a4df523b3ef8460405161123391815260200190565b60405180910390a35b50505050565b7f360894a13ba1a3210667c828492db98dca3e2076cc3735a920a3ca505d382bbc546001600160a01b031690565b6065546001600160a01b0316331461129a5760405162461bcd60e51b815260040161066190611e81565b61012f546001600160a01b0382811691161461130d5760405162461bcd60e51b815260206004820152602c60248201527f5570677261646520636f6e74726163747320617265206e6f7420696e2074686560448201526b20726561647920717565756560a01b6064820152608401610661565b61012e54610130546113209042906118b1565b1161093f5760405162461bcd60e51b815260206004820152603460248201527f5570677261646520636f6e747261637473206d7573742062652070726570617260448201527365642032206461797320696e20616476616e636560601b6064820152608401610661565b6000611394611242565b905061139f846118bd565b6000835111806113ac5750815b156113bd576113bb8484611962565b505b7f4910fdfa16fed3260ed0e7147f7cc6da11a60208b5b9406d12a635614ffd9143805460ff166114ce57805460ff191660011781556040516001600160a01b038316602482015261143c90869060440160408051601f198184030181529190526020810180516001600160e01b0316631b2ce7f360e11b179052611962565b50805460ff1916815561144d611242565b6001600160a01b0316826001600160a01b0316146114c55760405162461bcd60e51b815260206004820152602f60248201527f45524331393637557067726164653a207570677261646520627265616b73206660448201526e75727468657220757067726164657360881b6064820152608401610661565b6114ce85611a4d565b5050505050565b6001600160a01b0382166115355760405162461bcd60e51b815260206004820152602160248201527f45524332303a206275726e2066726f6d20746865207a65726f206164647265736044820152607360f81b6064820152608401610661565b61154182600083611813565b6001600160a01b038216600090815260336020526040902054818110156115b55760405162461bcd60e51b815260206004820152602260248201527f45524332303a206275726e20616d6f756e7420657863656564732062616c616e604482015261636560f01b6064820152608401610661565b6001600160a01b03831660009081526033602052604081208383039055603580548492906115e490849061208e565b90915550506040518281526000906001600160a01b038516907fddf252ad1be2c89b69c2b068fc378daa952ba7f163c4a11628f55a4df523b3ef9060200160405180910390a3505050565b606580546001600160a01b038381166001600160a01b0319831681179093556040519116919082907f8be0079c531659141344cd1fd0a4f28419497f9722a3daafe3b4186f6b6457e090600090a35050565b600054610100900460ff166116a85760405162461bcd60e51b8152600401610661906120a5565b6116b0611a8d565b610a3e8282611ab4565b600054610100900460ff166116e15760405162461bcd60e51b8152600401610661906120a5565b6116e9611a8d565b610a97611a8d565b600054610100900460ff166117185760405162461bcd60e51b8152600401610661906120a5565b611720611a8d565b610a97611b02565b6001600160a01b03821661177e5760405162461bcd60e51b815260206004820152601f60248201527f45524332303a206d696e7420746f20746865207a65726f2061646472657373006044820152606401610661565b61178a60008383611813565b806035600082825461179c9190611f64565b90915550506001600160a01b038216600090815260336020526040812080548392906117c9908490611f64565b90915550506040518181526001600160a01b038316906000907fddf252ad1be2c89b69c2b068fc378daa952ba7f163c4a11628f55a4df523b3ef9060200160405180910390a35050565b61012d54600160a01b900460ff168015611838575061012d54600160a81b900460ff16155b15610b1a5761012d54604051637e2f3afd60e01b81526001600160a01b03858116600483015284811660248301526044820184905290911690637e2f3afd90606401600060405180830381600087803b15801561189457600080fd5b505af11580156118a8573d6000803e3d6000fd5b50505050505050565b6000610872828461208e565b803b6119215760405162461bcd60e51b815260206004820152602d60248201527f455243313936373a206e657720696d706c656d656e746174696f6e206973206e60448201526c1bdd08184818dbdb9d1c9858dd609a1b6064820152608401610661565b7f360894a13ba1a3210667c828492db98dca3e2076cc3735a920a3ca505d382bbc80546001600160a01b0319166001600160a01b0392909216919091179055565b6060823b6119c15760405162461bcd60e51b815260206004820152602660248201527f416464726573733a2064656c65676174652063616c6c20746f206e6f6e2d636f6044820152651b9d1c9858dd60d21b6064820152608401610661565b600080846001600160a01b0316846040516119dc91906120f0565b600060405180830381855af49150503d8060008114611a17576040519150601f19603f3d011682016040523d82523d6000602084013e611a1c565b606091505b5091509150611a44828260405180606001604052806027815260200161210d60279139611b32565b95945050505050565b611a56816118bd565b6040516001600160a01b038216907fbc7cd75a20ee27fd9adebab32041f755214dbc6bffa90cc0225b39da2e5c2d3b90600090a250565b600054610100900460ff16610a975760405162461bcd60e51b8152600401610661906120a5565b600054610100900460ff16611adb5760405162461bcd60e51b8152600401610661906120a5565b8151611aee906036906020850190611b6b565b508051610b1a906037906020840190611b6b565b600054610100900460ff16611b295760405162461bcd60e51b8152600401610661906120a5565b610a973361162f565b60608315611b41575081610872565b825115611b515782518084602001fd5b8160405162461bcd60e51b81526004016106619190611c30565b828054611b7790611e46565b90600052602060002090601f016020900481019282611b995760008555611bdf565b82601f10611bb257805160ff1916838001178555611bdf565b82800160010185558215611bdf579182015b82811115611bdf578251825591602001919060010190611bc4565b50611beb929150611bef565b5090565b5b80821115611beb5760008155600101611bf0565b60005b83811015611c1f578181015183820152602001611c07565b8381111561123c5750506000910152565b6020815260008251806020840152611c4f816040850160208701611c04565b601f01601f19169190910160400192915050565b80356001600160a01b0381168114611c7a57600080fd5b919050565b60008060408385031215611c9257600080fd5b611c9b83611c63565b946020939093013593505050565b600060208284031215611cbb57600080fd5b61087282611c63565b600060208284031215611cd657600080fd5b8135801515811461087257600080fd5b600080600060608486031215611cfb57600080fd5b611d0484611c63565b9250611d1260208501611c63565b9150604084013590509250925092565b600060208284031215611d3457600080fd5b5035919050565b634e487b7160e01b600052604160045260246000fd5b60008060408385031215611d6457600080fd5b611d6d83611c63565b9150602083013567ffffffffffffffff80821115611d8a57600080fd5b818501915085601f830112611d9e57600080fd5b813581811115611db057611db0611d3b565b604051601f8201601f19908116603f01168101908382118183101715611dd857611dd8611d3b565b81604052828152886020848701011115611df157600080fd5b8260208601602083013760006020848301015280955050505050509250929050565b60008060408385031215611e2657600080fd5b611e2f83611c63565b9150611e3d60208401611c63565b90509250929050565b600181811c90821680611e5a57607f821691505b60208210811415611e7b57634e487b7160e01b600052602260045260246000fd5b50919050565b6020808252818101527f4f776e61626c653a2063616c6c6572206973206e6f7420746865206f776e6572604082015260600190565b6020808252602c908201527f46756e6374696f6e206d7573742062652063616c6c6564207468726f7567682060408201526b19195b1959d85d1958d85b1b60a21b606082015260800190565b6020808252602c908201527f46756e6374696f6e206d7573742062652063616c6c6564207468726f7567682060408201526b6163746976652070726f787960a01b606082015260800190565b634e487b7160e01b600052601160045260246000fd5b60008219821115611f7757611f77611f4e565b500190565b600181815b80851115611fb7578160001904821115611f9d57611f9d611f4e565b80851615611faa57918102915b93841c9390800290611f81565b509250929050565b600082611fce57506001610631565b81611fdb57506000610631565b8160018114611ff15760028114611ffb57612017565b6001915050610631565b60ff84111561200c5761200c611f4e565b50506001821b610631565b5060208310610133831016604e8410600b841016171561203a575081810a610631565b6120448383611f7c565b806000190482111561205857612058611f4e565b029392505050565b600061087260ff841683611fbf565b600081600019048311821515161561208957612089611f4e565b500290565b6000828210156120a0576120a0611f4e565b500390565b6020808252602b908201527f496e697469616c697a61626c653a20636f6e7472616374206973206e6f74206960408201526a6e697469616c697a696e6760a81b606082015260800190565b60008251612102818460208701611c04565b919091019291505056fe416464726573733a206c6f772d6c6576656c2064656c65676174652063616c6c206661696c6564a26469706673582212204c9a497da15a940d66b586f74df0110265f1169c6e5dbb67885f4a1333f5165864736f6c63430008090033",
  "immutableReferences": {
    "1051": [
      {
        "length": 32,
        "start": 2180
      },
      {
        "length": 32,
        "start": 2244
      },
      {
        "length": 32,
        "start": 2451
      },
      {
        "length": 32,
        "start": 2515
      }
    ]
  },
  "source": "// SPDX-License-Identifier: MIT\npragma solidity 0.8.9;\n\nimport \"@openzeppelin/contracts-upgradeable/token/ERC20/ERC20Upgradeable.sol\";\nimport \"@openzeppelin/contracts-upgradeable/token/ERC20/extensions/ERC20BurnableUpgradeable.sol\";\nimport \"@openzeppelin/contracts-upgradeable/proxy/utils/Initializable.sol\";\nimport \"@openzeppelin/contracts-upgradeable/access/OwnableUpgradeable.sol\";\nimport \"@openzeppelin/contracts-upgradeable/proxy/utils/UUPSUpgradeable.sol\";\nimport \"@openzeppelin/contracts-upgradeable/utils/math/SafeMathUpgradeable.sol\";\nimport \"./BPContract.sol\";\n\ncontract MELD is\n    Initializable,\n    ERC20Upgradeable,\n    OwnableUpgradeable,\n    ERC20BurnableUpgradeable,\n    UUPSUpgradeable\n{\n    using SafeMathUpgradeable for uint256;\n\n    BPContract public BP;\n    bool public bpEnabled;\n    bool public BPDisabledForever;\n\n    uint upgradeDelay;\n\n    PrepareUpgradeImpl prepareUpgradeImpl;\n    struct PrepareUpgradeImpl {\n        address newImplementation;\n        // Ready to upgrade creation time\n        uint256 createdAt;\n    }\n\n    event NewUpgradeDelay(uint deplay);\n    event NewPrepareUpgradeImpl(address _newImplementation, uint256 createdAt);\n\n    function initialize() public initializer {\n        __ERC20_init(\"Meland.ai\", \"MELD\");\n        __ERC20Burnable_init();\n        __Ownable_init();\n        __UUPSUpgradeable_init();\n        BPDisabledForever = false;\n        upgradeDelay = 14 days;\n    }\n\n    function setBPAddrss(address _bp) external onlyOwner {\n        require(address(BP)== address(0), \"Can only be initialized once\");\n        BP = BPContract(_bp);\n    }\n\n    function setBpEnabled(bool _enabled) external onlyOwner {\n        bpEnabled = _enabled;\n    }\n\n    function setBotProtectionDisableForever() external onlyOwner{\n        require(BPDisabledForever == false);\n        BPDisabledForever = true;\n    }\n\n    function getMaxMints() public view returns (uint256) {\n        return 2000000000 * 10 ** decimals();\n    }\n\n    function mint(uint256 amount) public onlyOwner {\n        require(\n            amount + totalSupply() <= getMaxMints(),\n            \"Exceeds the maximum number of mintable\"\n        );\n        _mint(msg.sender, amount);\n    }\n\n    function _beforeTokenTransfer(address _from, address _to, uint _amount) internal override {\n        if (bpEnabled && !BPDisabledForever) {\n            BP.protect(_from, _to, _amount);\n        }\n        super._beforeTokenTransfer(_from, _to, _amount);\n    }\n\n    function setPrepareUpgrade(address _newImplementation) public onlyOwner {\n        prepareUpgradeImpl = PrepareUpgradeImpl(\n            _newImplementation,\n            block.timestamp\n        );\n        emit NewPrepareUpgradeImpl(_newImplementation, block.timestamp);\n    }\n\n    function setUpgradeDelay(uint _delay) public onlyOwner {\n        require(_delay >= 2 days, \"Minimum time is 2 days\");\n        upgradeDelay = _delay;\n        emit NewUpgradeDelay(_delay);\n    }\n\n    function _authorizeUpgrade(address _newImplementation)\n        internal\n        override\n        view\n        onlyOwner\n    {\n        require(_newImplementation == prepareUpgradeImpl.newImplementation, \"Upgrade contracts are not in the ready queue\");\n        require(block.timestamp.sub(prepareUpgradeImpl.createdAt) > upgradeDelay, \"Upgrade contracts must be prepared 2 days in advance\");\n    }\n}\n",
  "sourcePath": "/Users/alberthuang/code/contracts/contracts/MELD.sol",
  "compiler": {
    "name": "solc",
    "version": "0.8.9+commit.e5eed63a.Emscripten.clang"
  },
  "schemaVersion": "3.4.3",
  "updatedAt": "2022-01-25T07:44:20.379Z",
  "devdoc": {
    "kind": "dev",
    "methods": {
      "allowance(address,address)": {
        "details": "See {IERC20-allowance}."
      },
      "approve(address,uint256)": {
        "details": "See {IERC20-approve}. Requirements: - `spender` cannot be the zero address."
      },
      "balanceOf(address)": {
        "details": "See {IERC20-balanceOf}."
      },
      "burn(uint256)": {
        "details": "Destroys `amount` tokens from the caller. See {ERC20-_burn}."
      },
      "burnFrom(address,uint256)": {
        "details": "Destroys `amount` tokens from `account`, deducting from the caller's allowance. See {ERC20-_burn} and {ERC20-allowance}. Requirements: - the caller must have allowance for ``accounts``'s tokens of at least `amount`."
      },
      "decimals()": {
        "details": "Returns the number of decimals used to get its user representation. For example, if `decimals` equals `2`, a balance of `505` tokens should be displayed to a user as `5.05` (`505 / 10 ** 2`). Tokens usually opt for a value of 18, imitating the relationship between Ether and Wei. This is the value {ERC20} uses, unless this function is overridden; NOTE: This information is only used for _display_ purposes: it in no way affects any of the arithmetic of the contract, including {IERC20-balanceOf} and {IERC20-transfer}."
      },
      "decreaseAllowance(address,uint256)": {
        "details": "Atomically decreases the allowance granted to `spender` by the caller. This is an alternative to {approve} that can be used as a mitigation for problems described in {IERC20-approve}. Emits an {Approval} event indicating the updated allowance. Requirements: - `spender` cannot be the zero address. - `spender` must have allowance for the caller of at least `subtractedValue`."
      },
      "increaseAllowance(address,uint256)": {
        "details": "Atomically increases the allowance granted to `spender` by the caller. This is an alternative to {approve} that can be used as a mitigation for problems described in {IERC20-approve}. Emits an {Approval} event indicating the updated allowance. Requirements: - `spender` cannot be the zero address."
      },
      "name()": {
        "details": "Returns the name of the token."
      },
      "owner()": {
        "details": "Returns the address of the current owner."
      },
      "renounceOwnership()": {
        "details": "Leaves the contract without owner. It will not be possible to call `onlyOwner` functions anymore. Can only be called by the current owner. NOTE: Renouncing ownership will leave the contract without an owner, thereby removing any functionality that is only available to the owner."
      },
      "symbol()": {
        "details": "Returns the symbol of the token, usually a shorter version of the name."
      },
      "totalSupply()": {
        "details": "See {IERC20-totalSupply}."
      },
      "transfer(address,uint256)": {
        "details": "See {IERC20-transfer}. Requirements: - `recipient` cannot be the zero address. - the caller must have a balance of at least `amount`."
      },
      "transferFrom(address,address,uint256)": {
        "details": "See {IERC20-transferFrom}. Emits an {Approval} event indicating the updated allowance. This is not required by the EIP. See the note at the beginning of {ERC20}. Requirements: - `sender` and `recipient` cannot be the zero address. - `sender` must have a balance of at least `amount`. - the caller must have allowance for ``sender``'s tokens of at least `amount`."
      },
      "transferOwnership(address)": {
        "details": "Transfers ownership of the contract to a new account (`newOwner`). Can only be called by the current owner."
      },
      "upgradeTo(address)": {
        "details": "Upgrade the implementation of the proxy to `newImplementation`. Calls {_authorizeUpgrade}. Emits an {Upgraded} event."
      },
      "upgradeToAndCall(address,bytes)": {
        "details": "Upgrade the implementation of the proxy to `newImplementation`, and subsequently execute the function call encoded in `data`. Calls {_authorizeUpgrade}. Emits an {Upgraded} event."
      }
    },
    "version": 1
  },
  "userdoc": {
    "kind": "user",
    "methods": {},
    "version": 1
  }
}