{
  "contractName": "NFTFactory",
  "abi": [
    {
      "anonymous": false,
      "inputs": [
        {
          "indexed": false,
          "internalType": "address",
          "name": "previousAdmin",
          "type": "address"
        },
        {
          "indexed": false,
          "internalType": "address",
          "name": "newAdmin",
          "type": "address"
        }
      ],
      "name": "AdminChanged",
      "type": "event"
    },
    {
      "anonymous": false,
      "inputs": [
        {
          "indexed": true,
          "internalType": "address",
          "name": "beacon",
          "type": "address"
        }
      ],
      "name": "BeaconUpgraded",
      "type": "event"
    },
    {
      "anonymous": false,
      "inputs": [
        {
          "indexed": false,
          "internalType": "contract IERC721",
          "name": "nft",
          "type": "address"
        },
        {
          "indexed": false,
          "internalType": "address",
          "name": "operator",
          "type": "address"
        },
        {
          "indexed": false,
          "internalType": "uint256",
          "name": "operationTime",
          "type": "uint256"
        }
      ],
      "name": "NFTSupportCreate",
      "type": "event"
    },
    {
      "anonymous": false,
      "inputs": [
        {
          "indexed": false,
          "internalType": "contract IERC721",
          "name": "nft",
          "type": "address"
        },
        {
          "indexed": false,
          "internalType": "address",
          "name": "operator",
          "type": "address"
        },
        {
          "indexed": false,
          "internalType": "uint256",
          "name": "operationTime",
          "type": "uint256"
        }
      ],
      "name": "NFTSupportRemove",
      "type": "event"
    },
    {
      "anonymous": false,
      "inputs": [
        {
          "indexed": true,
          "internalType": "contract IERC721",
          "name": "nft",
          "type": "address"
        },
        {
          "components": [
            {
              "internalType": "address",
              "name": "proposer",
              "type": "address"
            },
            {
              "internalType": "uint256",
              "name": "proposalTime",
              "type": "uint256"
            },
            {
              "internalType": "bool",
              "name": "approved",
              "type": "bool"
            }
          ],
          "indexed": false,
          "internalType": "struct NFTFactory.RFC",
          "name": "rfc",
          "type": "tuple"
        }
      ],
      "name": "RFCApproved",
      "type": "event"
    },
    {
      "anonymous": false,
      "inputs": [
        {
          "indexed": true,
          "internalType": "contract IERC721",
          "name": "nft",
          "type": "address"
        },
        {
          "components": [
            {
              "internalType": "address",
              "name": "proposer",
              "type": "address"
            },
            {
              "internalType": "uint256",
              "name": "proposalTime",
              "type": "uint256"
            },
            {
              "internalType": "bool",
              "name": "approved",
              "type": "bool"
            }
          ],
          "indexed": false,
          "internalType": "struct NFTFactory.RFC",
          "name": "rfc",
          "type": "tuple"
        }
      ],
      "name": "RFCCreated",
      "type": "event"
    },
    {
      "anonymous": false,
      "inputs": [
        {
          "indexed": true,
          "internalType": "bytes32",
          "name": "role",
          "type": "bytes32"
        },
        {
          "indexed": true,
          "internalType": "bytes32",
          "name": "previousAdminRole",
          "type": "bytes32"
        },
        {
          "indexed": true,
          "internalType": "bytes32",
          "name": "newAdminRole",
          "type": "bytes32"
        }
      ],
      "name": "RoleAdminChanged",
      "type": "event"
    },
    {
      "anonymous": false,
      "inputs": [
        {
          "indexed": true,
          "internalType": "bytes32",
          "name": "role",
          "type": "bytes32"
        },
        {
          "indexed": true,
          "internalType": "address",
          "name": "account",
          "type": "address"
        },
        {
          "indexed": true,
          "internalType": "address",
          "name": "sender",
          "type": "address"
        }
      ],
      "name": "RoleGranted",
      "type": "event"
    },
    {
      "anonymous": false,
      "inputs": [
        {
          "indexed": true,
          "internalType": "bytes32",
          "name": "role",
          "type": "bytes32"
        },
        {
          "indexed": true,
          "internalType": "address",
          "name": "account",
          "type": "address"
        },
        {
          "indexed": true,
          "internalType": "address",
          "name": "sender",
          "type": "address"
        }
      ],
      "name": "RoleRevoked",
      "type": "event"
    },
    {
      "anonymous": false,
      "inputs": [
        {
          "indexed": true,
          "internalType": "address",
          "name": "implementation",
          "type": "address"
        }
      ],
      "name": "Upgraded",
      "type": "event"
    },
    {
      "inputs": [],
      "name": "DEFAULT_ADMIN_ROLE",
      "outputs": [
        {
          "internalType": "bytes32",
          "name": "",
          "type": "bytes32"
        }
      ],
      "stateMutability": "view",
      "type": "function"
    },
    {
      "inputs": [],
      "name": "GM_ROLE",
      "outputs": [
        {
          "internalType": "bytes32",
          "name": "",
          "type": "bytes32"
        }
      ],
      "stateMutability": "view",
      "type": "function"
    },
    {
      "inputs": [],
      "name": "UPGRADER_ROLE",
      "outputs": [
        {
          "internalType": "bytes32",
          "name": "",
          "type": "bytes32"
        }
      ],
      "stateMutability": "view",
      "type": "function"
    },
    {
      "inputs": [
        {
          "internalType": "bytes32",
          "name": "role",
          "type": "bytes32"
        }
      ],
      "name": "getRoleAdmin",
      "outputs": [
        {
          "internalType": "bytes32",
          "name": "",
          "type": "bytes32"
        }
      ],
      "stateMutability": "view",
      "type": "function"
    },
    {
      "inputs": [
        {
          "internalType": "bytes32",
          "name": "role",
          "type": "bytes32"
        },
        {
          "internalType": "address",
          "name": "account",
          "type": "address"
        }
      ],
      "name": "grantRole",
      "outputs": [],
      "stateMutability": "nonpayable",
      "type": "function"
    },
    {
      "inputs": [
        {
          "internalType": "bytes32",
          "name": "role",
          "type": "bytes32"
        },
        {
          "internalType": "address",
          "name": "account",
          "type": "address"
        }
      ],
      "name": "hasRole",
      "outputs": [
        {
          "internalType": "bool",
          "name": "",
          "type": "bool"
        }
      ],
      "stateMutability": "view",
      "type": "function"
    },
    {
      "inputs": [
        {
          "internalType": "uint256",
          "name": "",
          "type": "uint256"
        }
      ],
      "name": "nfts",
      "outputs": [
        {
          "internalType": "contract IERC721",
          "name": "",
          "type": "address"
        }
      ],
      "stateMutability": "view",
      "type": "function"
    },
    {
      "inputs": [
        {
          "internalType": "bytes32",
          "name": "role",
          "type": "bytes32"
        },
        {
          "internalType": "address",
          "name": "account",
          "type": "address"
        }
      ],
      "name": "renounceRole",
      "outputs": [],
      "stateMutability": "nonpayable",
      "type": "function"
    },
    {
      "inputs": [
        {
          "internalType": "bytes32",
          "name": "role",
          "type": "bytes32"
        },
        {
          "internalType": "address",
          "name": "account",
          "type": "address"
        }
      ],
      "name": "revokeRole",
      "outputs": [],
      "stateMutability": "nonpayable",
      "type": "function"
    },
    {
      "inputs": [
        {
          "internalType": "contract IERC721",
          "name": "",
          "type": "address"
        }
      ],
      "name": "supportNFTs",
      "outputs": [
        {
          "internalType": "bool",
          "name": "",
          "type": "bool"
        }
      ],
      "stateMutability": "view",
      "type": "function"
    },
    {
      "inputs": [
        {
          "internalType": "contract IERC721",
          "name": "",
          "type": "address"
        }
      ],
      "name": "supportRFCs",
      "outputs": [
        {
          "internalType": "address",
          "name": "proposer",
          "type": "address"
        },
        {
          "internalType": "uint256",
          "name": "proposalTime",
          "type": "uint256"
        },
        {
          "internalType": "bool",
          "name": "approved",
          "type": "bool"
        }
      ],
      "stateMutability": "view",
      "type": "function"
    },
    {
      "inputs": [
        {
          "internalType": "bytes4",
          "name": "interfaceId",
          "type": "bytes4"
        }
      ],
      "name": "supportsInterface",
      "outputs": [
        {
          "internalType": "bool",
          "name": "",
          "type": "bool"
        }
      ],
      "stateMutability": "view",
      "type": "function"
    },
    {
      "inputs": [
        {
          "internalType": "address",
          "name": "newImplementation",
          "type": "address"
        }
      ],
      "name": "upgradeTo",
      "outputs": [],
      "stateMutability": "nonpayable",
      "type": "function"
    },
    {
      "inputs": [
        {
          "internalType": "address",
          "name": "newImplementation",
          "type": "address"
        },
        {
          "internalType": "bytes",
          "name": "data",
          "type": "bytes"
        }
      ],
      "name": "upgradeToAndCall",
      "outputs": [],
      "stateMutability": "payable",
      "type": "function"
    },
    {
      "inputs": [],
      "name": "initialize",
      "outputs": [],
      "stateMutability": "nonpayable",
      "type": "function"
    },
    {
      "inputs": [
        {
          "internalType": "contract IERC721",
          "name": "nft",
          "type": "address"
        }
      ],
      "name": "newRFC",
      "outputs": [],
      "stateMutability": "nonpayable",
      "type": "function"
    },
    {
      "inputs": [
        {
          "internalType": "contract IERC721",
          "name": "nft",
          "type": "address"
        }
      ],
      "name": "approveRFC",
      "outputs": [],
      "stateMutability": "nonpayable",
      "type": "function"
    },
    {
      "inputs": [
        {
          "internalType": "contract IERC721",
          "name": "nft",
          "type": "address"
        }
      ],
      "name": "newSupport",
      "outputs": [],
      "stateMutability": "nonpayable",
      "type": "function"
    }
  ],
  "bytecode": "0x60a06040523060805234801561001457600080fd5b506080516117c76100456000396000818161051a0152818161055a0152818161076601526107a601526117c76000f3fe6080604052600436106101095760003560e01c806353366cd611610095578063a217fddf11610064578063a217fddf146102f7578063c92115e41461030c578063d547741f1461037c578063dca2cec91461039c578063f72c0d8b146103cc57600080fd5b806353366cd6146102825780637176360e146102a25780638129fc1c146102c257806391d14854146102d757600080fd5b806330c7be2c116100dc57806330c7be2c146101db57806336568abe1461020f5780633659cfe61461022f5780633e3500611461024f5780634f1ef2861461026f57600080fd5b806301ffc9a71461010e578063248a9ca314610143578063265aa621146101815780632f2ff15d146101b9575b600080fd5b34801561011a57600080fd5b5061012e610129366004611397565b610400565b60405190151581526020015b60405180910390f35b34801561014f57600080fd5b5061017361015e3660046113c1565b60009081526065602052604090206001015490565b60405190815260200161013a565b34801561018d57600080fd5b506101a161019c3660046113c1565b610437565b6040516001600160a01b03909116815260200161013a565b3480156101c557600080fd5b506101d96101d43660046113ef565b610461565b005b3480156101e757600080fd5b506101737ff5eb84615c2a00ecaf817d13794ebd6299c9e01c395bf4018453f13f577f544981565b34801561021b57600080fd5b506101d961022a3660046113ef565b61048c565b34801561023b57600080fd5b506101d961024a36600461141f565b61050f565b34801561025b57600080fd5b506101d961026a36600461141f565b6105d8565b6101d961027d366004611452565b61075b565b34801561028e57600080fd5b506101d961029d36600461141f565b610811565b3480156102ae57600080fd5b506101d96102bd36600461141f565b610845565b3480156102ce57600080fd5b506101d961098c565b3480156102e357600080fd5b5061012e6102f23660046113ef565b610a66565b34801561030357600080fd5b50610173600081565b34801561031857600080fd5b5061035561032736600461141f565b60fc602052600090815260409020805460018201546002909201546001600160a01b03909116919060ff1683565b604080516001600160a01b039094168452602084019290925215159082015260600161013a565b34801561038857600080fd5b506101d96103973660046113ef565b610a91565b3480156103a857600080fd5b5061012e6103b736600461141f565b60fb6020526000908152604090205460ff1681565b3480156103d857600080fd5b506101737f189ab7a9244df0848122154315af71fe140f3db0fe014031783b0946b8c9d2e381565b60006001600160e01b03198216637965db0b60e01b148061043157506301ffc9a760e01b6001600160e01b03198316145b92915050565b60fd818154811061044757600080fd5b6000918252602090912001546001600160a01b0316905081565b60008281526065602052604090206001015461047d8133610ab7565b6104878383610b1b565b505050565b6001600160a01b03811633146105015760405162461bcd60e51b815260206004820152602f60248201527f416363657373436f6e74726f6c3a2063616e206f6e6c792072656e6f756e636560448201526e103937b632b9903337b91039b2b63360891b60648201526084015b60405180910390fd5b61050b8282610ba1565b5050565b306001600160a01b037f00000000000000000000000000000000000000000000000000000000000000001614156105585760405162461bcd60e51b81526004016104f890611516565b7f00000000000000000000000000000000000000000000000000000000000000006001600160a01b031661058a610c08565b6001600160a01b0316146105b05760405162461bcd60e51b81526004016104f890611562565b6105b981610c36565b604080516000808252602082019092526105d591839190610c61565b50565b6001600160a01b038116600090815260fc6020526040902060010154156106365760405162461bcd60e51b8152602060048201526012602482015271416c7265616479206578697374732052464360701b60448201526064016104f8565b6001600160a01b038116600090815260fb602052604090205460ff16156106915760405162461bcd60e51b815260206004820152600f60248201526e105b1c9958591e481cdd5c1c1bdc9d608a1b60448201526064016104f8565b600060405180606001604052806106a53390565b6001600160a01b039081168252426020808401919091526000604093840181905286831680825260fc835290849020855181546001600160a01b031916941693841781558583018051600183015586860180516002909301805460ff191693151593909317909255855194855251928401929092529051151592820192909252919250907f7bf7a9f4f3afec6b1e29122e20f0cf352b7b922f5e27cfbd6d9e53b23e361ddc906060015b60405180910390a25050565b306001600160a01b037f00000000000000000000000000000000000000000000000000000000000000001614156107a45760405162461bcd60e51b81526004016104f890611516565b7f00000000000000000000000000000000000000000000000000000000000000006001600160a01b03166107d6610c08565b6001600160a01b0316146107fc5760405162461bcd60e51b81526004016104f890611562565b61080582610c36565b61050b82826001610c61565b7ff5eb84615c2a00ecaf817d13794ebd6299c9e01c395bf4018453f13f577f544961083c8133610ab7565b61050b82610dac565b6001600160a01b03808216600090815260fc602090815260409182902082516060810184528154909416845260018101549184018290526002015460ff161515918301919091526108c85760405162461bcd60e51b815260206004820152600d60248201526c4e6f7420666f756e642052464360981b60448201526064016104f8565b600160408281018281526001600160a01b03858116600090815260fc6020908152939020855181546001600160a01b0319169216919091178155918401519282019290925590516002909101805460ff191691151591909117905561092c82610dac565b816001600160a01b03167f2c463d1afc34a83acf61a30edb12a91f5f74da98d2db86108e17e4fdb4a229918260405161074f919081516001600160a01b031681526020808301519082015260409182015115159181019190915260600190565b600054610100900460ff16806109a5575060005460ff16155b6109c15760405162461bcd60e51b81526004016104f8906115ae565b600054610100900460ff161580156109e3576000805461ffff19166101011790555b6109eb610eb1565b6109f3610f18565b6109fe600033610f77565b610a287f189ab7a9244df0848122154315af71fe140f3db0fe014031783b0946b8c9d2e333610f77565b610a527ff5eb84615c2a00ecaf817d13794ebd6299c9e01c395bf4018453f13f577f544933610f77565b80156105d5576000805461ff001916905550565b60009182526065602090815260408084206001600160a01b0393909316845291905290205460ff1690565b600082815260656020526040902060010154610aad8133610ab7565b6104878383610ba1565b610ac18282610a66565b61050b57610ad9816001600160a01b03166014610f81565b610ae4836020610f81565b604051602001610af592919061162c565b60408051601f198184030181529082905262461bcd60e51b82526104f8916004016116a1565b610b258282610a66565b61050b5760008281526065602090815260408083206001600160a01b03851684529091529020805460ff19166001179055610b5d3390565b6001600160a01b0316816001600160a01b0316837f2f8788117e7eff1d82e926ec794901d17c78024a50270940304540a733656f0d60405160405180910390a45050565b610bab8282610a66565b1561050b5760008281526065602090815260408083206001600160a01b0385168085529252808320805460ff1916905551339285917ff6391f5c32d9c69d2a47ea670b442974b53935d1edc7fd64eb21e047a839171b9190a45050565b7f360894a13ba1a3210667c828492db98dca3e2076cc3735a920a3ca505d382bbc546001600160a01b031690565b7f189ab7a9244df0848122154315af71fe140f3db0fe014031783b0946b8c9d2e361050b8133610ab7565b6000610c6b610c08565b9050610c7684611124565b600083511180610c835750815b15610c9457610c9284846111c9565b505b7f4910fdfa16fed3260ed0e7147f7cc6da11a60208b5b9406d12a635614ffd9143805460ff16610da557805460ff191660011781556040516001600160a01b0383166024820152610d1390869060440160408051601f198184030181529190526020810180516001600160e01b0316631b2ce7f360e11b1790526111c9565b50805460ff19168155610d24610c08565b6001600160a01b0316826001600160a01b031614610d9c5760405162461bcd60e51b815260206004820152602f60248201527f45524331393637557067726164653a207570677261646520627265616b73206660448201526e75727468657220757067726164657360881b60648201526084016104f8565b610da5856112b4565b5050505050565b6001600160a01b038116600090815260fb602052604090205460ff1615610e095760405162461bcd60e51b8152602060048201526011602482015270105b1c9958591e481cdd5c1c1bdc9d1959607a1b60448201526064016104f8565b6001600160a01b038116600081815260fb60209081526040808320805460ff1916600190811790915560fd805491820181559093527f9346ac6dd7de6b96975fec380d4d994c4c12e6a8897544f22915316cc6cca28090920180546001600160a01b031916841790558151928352339083015242908201527f9fdcf8b1692f0a16e9281aafbc74bc889afdf88918e43a409b67b390987cff599060600160405180910390a150565b600054610100900460ff1680610eca575060005460ff16155b610ee65760405162461bcd60e51b81526004016104f8906115ae565b600054610100900460ff16158015610f08576000805461ffff19166101011790555b610f106112f4565b610a526112f4565b600054610100900460ff1680610f31575060005460ff16155b610f4d5760405162461bcd60e51b81526004016104f8906115ae565b600054610100900460ff16158015610f6f576000805461ffff19166101011790555b610f086112f4565b61050b8282610b1b565b60606000610f908360026116ea565b610f9b906002611709565b67ffffffffffffffff811115610fb357610fb361143c565b6040519080825280601f01601f191660200182016040528015610fdd576020820181803683370190505b509050600360fc1b81600081518110610ff857610ff8611721565b60200101906001600160f81b031916908160001a905350600f60fb1b8160018151811061102757611027611721565b60200101906001600160f81b031916908160001a905350600061104b8460026116ea565b611056906001611709565b90505b60018111156110ce576f181899199a1a9b1b9c1cb0b131b232b360811b85600f166010811061108a5761108a611721565b1a60f81b8282815181106110a0576110a0611721565b60200101906001600160f81b031916908160001a90535060049490941c936110c781611737565b9050611059565b50831561111d5760405162461bcd60e51b815260206004820181905260248201527f537472696e67733a20686578206c656e67746820696e73756666696369656e7460448201526064016104f8565b9392505050565b803b6111885760405162461bcd60e51b815260206004820152602d60248201527f455243313936373a206e657720696d706c656d656e746174696f6e206973206e60448201526c1bdd08184818dbdb9d1c9858dd609a1b60648201526084016104f8565b7f360894a13ba1a3210667c828492db98dca3e2076cc3735a920a3ca505d382bbc80546001600160a01b0319166001600160a01b0392909216919091179055565b6060823b6112285760405162461bcd60e51b815260206004820152602660248201527f416464726573733a2064656c65676174652063616c6c20746f206e6f6e2d636f6044820152651b9d1c9858dd60d21b60648201526084016104f8565b600080846001600160a01b031684604051611243919061174e565b600060405180830381855af49150503d806000811461127e576040519150601f19603f3d011682016040523d82523d6000602084013e611283565b606091505b50915091506112ab828260405180606001604052806027815260200161176b6027913961135e565b95945050505050565b6112bd81611124565b6040516001600160a01b038216907fbc7cd75a20ee27fd9adebab32041f755214dbc6bffa90cc0225b39da2e5c2d3b90600090a250565b600054610100900460ff168061130d575060005460ff16155b6113295760405162461bcd60e51b81526004016104f8906115ae565b600054610100900460ff16158015610a52576000805461ffff191661010117905580156105d5576000805461ff001916905550565b6060831561136d57508161111d565b82511561137d5782518084602001fd5b8160405162461bcd60e51b81526004016104f891906116a1565b6000602082840312156113a957600080fd5b81356001600160e01b03198116811461111d57600080fd5b6000602082840312156113d357600080fd5b5035919050565b6001600160a01b03811681146105d557600080fd5b6000806040838503121561140257600080fd5b823591506020830135611414816113da565b809150509250929050565b60006020828403121561143157600080fd5b813561111d816113da565b634e487b7160e01b600052604160045260246000fd5b6000806040838503121561146557600080fd5b8235611470816113da565b9150602083013567ffffffffffffffff8082111561148d57600080fd5b818501915085601f8301126114a157600080fd5b8135818111156114b3576114b361143c565b604051601f8201601f19908116603f011681019083821181831017156114db576114db61143c565b816040528281528860208487010111156114f457600080fd5b8260208601602083013760006020848301015280955050505050509250929050565b6020808252602c908201527f46756e6374696f6e206d7573742062652063616c6c6564207468726f7567682060408201526b19195b1959d85d1958d85b1b60a21b606082015260800190565b6020808252602c908201527f46756e6374696f6e206d7573742062652063616c6c6564207468726f7567682060408201526b6163746976652070726f787960a01b606082015260800190565b6020808252602e908201527f496e697469616c697a61626c653a20636f6e747261637420697320616c72656160408201526d191e481a5b9a5d1a585b1a5e995960921b606082015260800190565b60005b838110156116175781810151838201526020016115ff565b83811115611626576000848401525b50505050565b7f416363657373436f6e74726f6c3a206163636f756e74200000000000000000008152600083516116648160178501602088016115fc565b7001034b99036b4b9b9b4b733903937b6329607d1b60179184019182015283516116958160288401602088016115fc565b01602801949350505050565b60208152600082518060208401526116c08160408501602087016115fc565b601f01601f19169190910160400192915050565b634e487b7160e01b600052601160045260246000fd5b6000816000190483118215151615611704576117046116d4565b500290565b6000821982111561171c5761171c6116d4565b500190565b634e487b7160e01b600052603260045260246000fd5b600081611746576117466116d4565b506000190190565b600082516117608184602087016115fc565b919091019291505056fe416464726573733a206c6f772d6c6576656c2064656c65676174652063616c6c206661696c6564a2646970667358221220e1f638bdca2805b1d6492568c2c510bc7056fe0ed429641fea3540c4737a84b864736f6c63430008090033",
  "immutableReferences": {
    "1023": [
      {
        "length": 32,
        "start": 1306
      },
      {
        "length": 32,
        "start": 1370
      },
      {
        "length": 32,
        "start": 1894
      },
      {
        "length": 32,
        "start": 1958
      }
    ]
  },
  "source": "// SPDX-License-Identifier: MIT\npragma solidity 0.8.9;\n\n// meland.aiNFT.\n// NFT. .\n\nimport \"@openzeppelin/contracts-upgradeable/access/AccessControlUpgradeable.sol\";\nimport \"@openzeppelin/contracts-upgradeable/proxy/utils/UUPSUpgradeable.sol\";\nimport \"@openzeppelin/contracts-upgradeable/proxy/utils/Initializable.sol\";\nimport \"@openzeppelin/contracts/token/ERC721/IERC721.sol\";\n\ncontract NFTFactory is\n    Initializable,\n    AccessControlUpgradeable,\n    UUPSUpgradeable\n{\n    mapping(IERC721 => bool) public supportNFTs;\n\n    mapping(IERC721 => RFC) public supportRFCs;\n\n    IERC721[] public nfts;\n\n    bytes32 public constant UPGRADER_ROLE = keccak256(\"UPGRADER_ROLE\");\n    bytes32 public constant GM_ROLE = keccak256(\"GM_ROLE\");\n\n    event NFTSupportRemove(\n        IERC721 nft,\n        address operator,\n        uint256 operationTime\n    );\n\n    event NFTSupportCreate(\n        IERC721 nft,\n        address operator,\n        uint256 operationTime\n    );\n\n    event RFCCreated(IERC721 indexed nft, RFC rfc);\n    event RFCApproved(IERC721 indexed nft, RFC rfc);\n\n    struct RFC {\n        address proposer;\n        uint256 proposalTime;\n        bool approved;\n    }\n\n    function initialize() public initializer {\n        __UUPSUpgradeable_init();\n        __AccessControl_init();\n        _setupRole(DEFAULT_ADMIN_ROLE, msg.sender);\n        _setupRole(UPGRADER_ROLE, msg.sender);\n        _setupRole(GM_ROLE, msg.sender);\n    }\n\n    // RFC\n    // nft\n    // \n    function newRFC(IERC721 nft) public {\n        require(supportRFCs[nft].proposalTime == 0, \"Already exists RFC\");\n        require(!supportNFTs[nft], \"Already support\");\n\n        RFC memory rfc = RFC(_msgSender(), block.timestamp, false);\n\n        supportRFCs[nft] = rfc;\n\n        emit RFCCreated(nft, rfc);\n    }\n\n    function approveRFC(IERC721 nft) public {\n        RFC memory rfc = supportRFCs[nft];\n        require(rfc.proposalTime > 0, \"Not found RFC\");\n        rfc.approved = true;\n\n        supportRFCs[nft] = rfc;\n\n        _newSupport(nft);\n\n        emit RFCApproved(nft, rfc);\n    }\n\n    function _newSupport(IERC721 nft) private {\n        require(supportNFTs[nft] == false, \"Already supported\");\n        supportNFTs[nft] = true;\n        nfts.push(nft);\n        emit NFTSupportCreate(nft, msg.sender, block.timestamp);\n    }\n\n    // NFT.\n    function newSupport(IERC721 nft) public onlyRole(GM_ROLE) {\n        _newSupport(nft);\n    }\n\n    function _authorizeUpgrade(address newImplementation)\n        internal\n        override\n        onlyRole(UPGRADER_ROLE)\n    {}\n}\n",
  "sourcePath": "/Users/alberthuang/code/icw/meland/contracts/NFTFactory.sol",
  "compiler": {
    "name": "solc",
    "version": "0.8.9+commit.e5eed63a.Emscripten.clang"
  },
  "schemaVersion": "3.4.3",
  "updatedAt": "2021-12-07T05:18:47.649Z",
  "devdoc": {
    "kind": "dev",
    "methods": {
      "getRoleAdmin(bytes32)": {
        "details": "Returns the admin role that controls `role`. See {grantRole} and {revokeRole}. To change a role's admin, use {_setRoleAdmin}."
      },
      "grantRole(bytes32,address)": {
        "details": "Grants `role` to `account`. If `account` had not been already granted `role`, emits a {RoleGranted} event. Requirements: - the caller must have ``role``'s admin role."
      },
      "hasRole(bytes32,address)": {
        "details": "Returns `true` if `account` has been granted `role`."
      },
      "renounceRole(bytes32,address)": {
        "details": "Revokes `role` from the calling account. Roles are often managed via {grantRole} and {revokeRole}: this function's purpose is to provide a mechanism for accounts to lose their privileges if they are compromised (such as when a trusted device is misplaced). If the calling account had been revoked `role`, emits a {RoleRevoked} event. Requirements: - the caller must be `account`."
      },
      "revokeRole(bytes32,address)": {
        "details": "Revokes `role` from `account`. If `account` had been granted `role`, emits a {RoleRevoked} event. Requirements: - the caller must have ``role``'s admin role."
      },
      "supportsInterface(bytes4)": {
        "details": "See {IERC165-supportsInterface}."
      },
      "upgradeTo(address)": {
        "details": "Upgrade the implementation of the proxy to `newImplementation`. Calls {_authorizeUpgrade}. Emits an {Upgraded} event."
      },
      "upgradeToAndCall(address,bytes)": {
        "details": "Upgrade the implementation of the proxy to `newImplementation`, and subsequently execute the function call encoded in `data`. Calls {_authorizeUpgrade}. Emits an {Upgraded} event."
      }
    },
    "version": 1
  },
  "userdoc": {
    "kind": "user",
    "methods": {},
    "version": 1
  }
}