{
  "contractName": "NFTStoreStorage",
  "abi": [
    {
      "anonymous": false,
      "inputs": [
        {
          "indexed": false,
          "internalType": "uint256",
          "name": "ownerCutPerMillion",
          "type": "uint256"
        }
      ],
      "name": "ChangedOwnerCutPerMillion",
      "type": "event"
    },
    {
      "anonymous": false,
      "inputs": [
        {
          "indexed": true,
          "internalType": "address",
          "name": "buyer",
          "type": "address"
        },
        {
          "indexed": true,
          "internalType": "contract IMelandStoreItems",
          "name": "nftAddress",
          "type": "address"
        },
        {
          "indexed": false,
          "internalType": "string",
          "name": "symbol",
          "type": "string"
        },
        {
          "indexed": false,
          "internalType": "uint256",
          "name": "tokenId",
          "type": "uint256"
        },
        {
          "indexed": false,
          "internalType": "uint256",
          "name": "priceInWei",
          "type": "uint256"
        }
      ],
      "name": "NFTBuyed",
      "type": "event"
    },
    {
      "anonymous": false,
      "inputs": [
        {
          "indexed": false,
          "internalType": "contract IMelandStoreItems",
          "name": "nftAddress",
          "type": "address"
        }
      ],
      "name": "NFTCreated",
      "type": "event"
    },
    {
      "anonymous": false,
      "inputs": [
        {
          "indexed": false,
          "internalType": "contract IMelandStoreItems",
          "name": "nftAddress",
          "type": "address"
        }
      ],
      "name": "NFTDelete",
      "type": "event"
    },
    {
      "anonymous": false,
      "inputs": [
        {
          "indexed": false,
          "internalType": "contract IMelandStoreItems",
          "name": "nftAddress",
          "type": "address"
        },
        {
          "indexed": false,
          "internalType": "bool",
          "name": "checked",
          "type": "bool"
        }
      ],
      "name": "NFTItemUpdate",
      "type": "event"
    },
    {
      "inputs": [],
      "name": "bidbackWallet",
      "outputs": [
        {
          "internalType": "address",
          "name": "",
          "type": "address"
        }
      ],
      "stateMutability": "view",
      "type": "function"
    },
    {
      "inputs": [],
      "name": "foundationWallet",
      "outputs": [
        {
          "internalType": "address",
          "name": "",
          "type": "address"
        }
      ],
      "stateMutability": "view",
      "type": "function"
    },
    {
      "inputs": [
        {
          "internalType": "contract IMelandStoreItems",
          "name": "",
          "type": "address"
        }
      ],
      "name": "itemUploadedMap",
      "outputs": [
        {
          "internalType": "bool",
          "name": "",
          "type": "bool"
        }
      ],
      "stateMutability": "view",
      "type": "function"
    },
    {
      "inputs": [],
      "name": "officialWallet",
      "outputs": [
        {
          "internalType": "address",
          "name": "",
          "type": "address"
        }
      ],
      "stateMutability": "view",
      "type": "function"
    },
    {
      "inputs": [],
      "name": "ownerCutPerMillion",
      "outputs": [
        {
          "internalType": "uint256",
          "name": "",
          "type": "uint256"
        }
      ],
      "stateMutability": "view",
      "type": "function"
    }
  ],
  "bytecode": "0x608060405234801561001057600080fd5b50610162806100206000396000f3fe608060405234801561001057600080fd5b50600436106100575760003560e01c8063088025d31461005c5780636b7ae8dc1461008c578063a01f79d41461009f578063aabbd117146100b6578063eaf37170146100c9575b600080fd5b60015461006f906001600160a01b031681565b6040516001600160a01b0390911681526020015b60405180910390f35b60005461006f906001600160a01b031681565b6100a860035481565b604051908152602001610083565b60025461006f906001600160a01b031681565b6100ec6100d73660046100fc565b60046020526000908152604090205460ff1681565b6040519015158152602001610083565b60006020828403121561010e57600080fd5b81356001600160a01b038116811461012557600080fd5b939250505056fea2646970667358221220e00dd86d159a300ce2a476da1a1aa3e0c0b452ae3c21e7ec27a9e7d64039476d64736f6c63430008090033",
  "immutableReferences": {},
  "source": "// SPDX-License-Identifier: MIT\npragma solidity 0.8.9;\n\nimport \"./IMELD.sol\";\nimport \"./IMelandStoreItems.sol\";\n\ncontract NFTStoreStorage {\n    // 40% ownerCutPerMillion\n    address public foundationWallet;\n\n    // 20% ownerCutPerMillion\n    address public officialWallet;\n\n    // If the acceptedToken is a MELD, We will burn 40% of it, \n    // Else it is another token, \n    // We will credit it to the bidback account, and then periodically buy back and burn it.\n    address public bidbackWallet;\n\n    uint256 public ownerCutPerMillion;\n\n    mapping(IMelandStoreItems => bool) public itemUploadedMap;\n\n    mapping(bytes32 => uint256) private itemSymbolSales;\n\n    // EVENTS\n    event NFTCreated(\n        IMelandStoreItems nftAddress\n    );\n\n    // EVENTS\n    event NFTDelete(\n        IMelandStoreItems nftAddress\n    );\n\n    event NFTBuyed(\n        address indexed buyer,\n        IMelandStoreItems indexed nftAddress,\n        string symbol, \n        uint256 tokenId,\n        uint256 priceInWei\n    );\n\n    // When \n    event NFTItemUpdate(IMelandStoreItems nftAddress, bool checked);\n\n    event ChangedOwnerCutPerMillion(uint256 ownerCutPerMillion);\n\n    function _genItemSymbolBuyerKey(IMelandStoreItems nft, string memory symbol, address buyer) pure internal returns(bytes32) {\n        return keccak256(abi.encodePacked(address(nft), symbol, buyer));\n    }\n\n    function _getItemSymbolSales(IMelandStoreItems nft, string memory symbol, address buyer) view internal returns(uint256) {\n        bytes32 key = _genItemSymbolBuyerKey(nft, symbol, buyer);\n        return itemSymbolSales[key];\n    }\n\n    function _addItemSymbolSales(IMelandStoreItems nft, string memory symbol, address buyer) internal {\n        bytes32 key = _genItemSymbolBuyerKey(nft, symbol, buyer);\n        itemSymbolSales[key] += 1;\n    }\n}",
  "sourcePath": "/Users/alberthuang/code/icw/meland/contracts/NFTStoreStorage.sol",
  "compiler": {
    "name": "solc",
    "version": "0.8.9+commit.e5eed63a.Emscripten.clang"
  },
  "schemaVersion": "3.4.3",
  "updatedAt": "2021-12-26T23:24:40.868Z",
  "devdoc": {
    "kind": "dev",
    "methods": {},
    "version": 1
  },
  "userdoc": {
    "kind": "user",
    "methods": {},
    "version": 1
  }
}