{
  "contractName": "NFTStore",
  "abi": [
    {
      "anonymous": false,
      "inputs": [
        {
          "indexed": false,
          "internalType": "address",
          "name": "previousAdmin",
          "type": "address"
        },
        {
          "indexed": false,
          "internalType": "address",
          "name": "newAdmin",
          "type": "address"
        }
      ],
      "name": "AdminChanged",
      "type": "event"
    },
    {
      "anonymous": false,
      "inputs": [
        {
          "indexed": true,
          "internalType": "address",
          "name": "beacon",
          "type": "address"
        }
      ],
      "name": "BeaconUpgraded",
      "type": "event"
    },
    {
      "anonymous": false,
      "inputs": [
        {
          "indexed": false,
          "internalType": "uint256",
          "name": "ownerCutPerMillion",
          "type": "uint256"
        }
      ],
      "name": "ChangedOwnerCutPerMillion",
      "type": "event"
    },
    {
      "anonymous": false,
      "inputs": [
        {
          "indexed": true,
          "internalType": "address",
          "name": "buyer",
          "type": "address"
        },
        {
          "indexed": true,
          "internalType": "contract IMelandStoreItems",
          "name": "nftAddress",
          "type": "address"
        },
        {
          "indexed": false,
          "internalType": "string",
          "name": "symbol",
          "type": "string"
        },
        {
          "indexed": false,
          "internalType": "uint256",
          "name": "tokenId",
          "type": "uint256"
        },
        {
          "indexed": false,
          "internalType": "uint256",
          "name": "priceInWei",
          "type": "uint256"
        }
      ],
      "name": "NFTBuyed",
      "type": "event"
    },
    {
      "anonymous": false,
      "inputs": [
        {
          "indexed": false,
          "internalType": "contract IMelandStoreItems",
          "name": "nftAddress",
          "type": "address"
        }
      ],
      "name": "NFTCreated",
      "type": "event"
    },
    {
      "anonymous": false,
      "inputs": [
        {
          "indexed": false,
          "internalType": "contract IMelandStoreItems",
          "name": "nftAddress",
          "type": "address"
        }
      ],
      "name": "NFTDelete",
      "type": "event"
    },
    {
      "anonymous": false,
      "inputs": [
        {
          "indexed": false,
          "internalType": "contract IMelandStoreItems",
          "name": "nftAddress",
          "type": "address"
        },
        {
          "indexed": false,
          "internalType": "bool",
          "name": "checked",
          "type": "bool"
        }
      ],
      "name": "NFTItemUpdate",
      "type": "event"
    },
    {
      "anonymous": false,
      "inputs": [
        {
          "indexed": true,
          "internalType": "bytes32",
          "name": "role",
          "type": "bytes32"
        },
        {
          "indexed": true,
          "internalType": "bytes32",
          "name": "previousAdminRole",
          "type": "bytes32"
        },
        {
          "indexed": true,
          "internalType": "bytes32",
          "name": "newAdminRole",
          "type": "bytes32"
        }
      ],
      "name": "RoleAdminChanged",
      "type": "event"
    },
    {
      "anonymous": false,
      "inputs": [
        {
          "indexed": true,
          "internalType": "bytes32",
          "name": "role",
          "type": "bytes32"
        },
        {
          "indexed": true,
          "internalType": "address",
          "name": "account",
          "type": "address"
        },
        {
          "indexed": true,
          "internalType": "address",
          "name": "sender",
          "type": "address"
        }
      ],
      "name": "RoleGranted",
      "type": "event"
    },
    {
      "anonymous": false,
      "inputs": [
        {
          "indexed": true,
          "internalType": "bytes32",
          "name": "role",
          "type": "bytes32"
        },
        {
          "indexed": true,
          "internalType": "address",
          "name": "account",
          "type": "address"
        },
        {
          "indexed": true,
          "internalType": "address",
          "name": "sender",
          "type": "address"
        }
      ],
      "name": "RoleRevoked",
      "type": "event"
    },
    {
      "anonymous": false,
      "inputs": [
        {
          "indexed": true,
          "internalType": "address",
          "name": "implementation",
          "type": "address"
        }
      ],
      "name": "Upgraded",
      "type": "event"
    },
    {
      "inputs": [],
      "name": "DEFAULT_ADMIN_ROLE",
      "outputs": [
        {
          "internalType": "bytes32",
          "name": "",
          "type": "bytes32"
        }
      ],
      "stateMutability": "view",
      "type": "function"
    },
    {
      "inputs": [],
      "name": "GM_ROLE",
      "outputs": [
        {
          "internalType": "bytes32",
          "name": "",
          "type": "bytes32"
        }
      ],
      "stateMutability": "view",
      "type": "function"
    },
    {
      "inputs": [],
      "name": "MINTER_ROLE",
      "outputs": [
        {
          "internalType": "bytes32",
          "name": "",
          "type": "bytes32"
        }
      ],
      "stateMutability": "view",
      "type": "function"
    },
    {
      "inputs": [],
      "name": "UPGRADER_ROLE",
      "outputs": [
        {
          "internalType": "bytes32",
          "name": "",
          "type": "bytes32"
        }
      ],
      "stateMutability": "view",
      "type": "function"
    },
    {
      "inputs": [],
      "name": "bidbackWallet",
      "outputs": [
        {
          "internalType": "address",
          "name": "",
          "type": "address"
        }
      ],
      "stateMutability": "view",
      "type": "function"
    },
    {
      "inputs": [],
      "name": "foundationWallet",
      "outputs": [
        {
          "internalType": "address",
          "name": "",
          "type": "address"
        }
      ],
      "stateMutability": "view",
      "type": "function"
    },
    {
      "inputs": [
        {
          "internalType": "bytes32",
          "name": "role",
          "type": "bytes32"
        }
      ],
      "name": "getRoleAdmin",
      "outputs": [
        {
          "internalType": "bytes32",
          "name": "",
          "type": "bytes32"
        }
      ],
      "stateMutability": "view",
      "type": "function"
    },
    {
      "inputs": [
        {
          "internalType": "bytes32",
          "name": "role",
          "type": "bytes32"
        },
        {
          "internalType": "address",
          "name": "account",
          "type": "address"
        }
      ],
      "name": "grantRole",
      "outputs": [],
      "stateMutability": "nonpayable",
      "type": "function"
    },
    {
      "inputs": [
        {
          "internalType": "bytes32",
          "name": "role",
          "type": "bytes32"
        },
        {
          "internalType": "address",
          "name": "account",
          "type": "address"
        }
      ],
      "name": "hasRole",
      "outputs": [
        {
          "internalType": "bool",
          "name": "",
          "type": "bool"
        }
      ],
      "stateMutability": "view",
      "type": "function"
    },
    {
      "inputs": [
        {
          "internalType": "contract IMelandStoreItems",
          "name": "",
          "type": "address"
        }
      ],
      "name": "itemUploadedMap",
      "outputs": [
        {
          "internalType": "bool",
          "name": "",
          "type": "bool"
        }
      ],
      "stateMutability": "view",
      "type": "function"
    },
    {
      "inputs": [],
      "name": "officialWallet",
      "outputs": [
        {
          "internalType": "address",
          "name": "",
          "type": "address"
        }
      ],
      "stateMutability": "view",
      "type": "function"
    },
    {
      "inputs": [],
      "name": "ownerCutPerMillion",
      "outputs": [
        {
          "internalType": "uint256",
          "name": "",
          "type": "uint256"
        }
      ],
      "stateMutability": "view",
      "type": "function"
    },
    {
      "inputs": [
        {
          "internalType": "bytes32",
          "name": "role",
          "type": "bytes32"
        },
        {
          "internalType": "address",
          "name": "account",
          "type": "address"
        }
      ],
      "name": "renounceRole",
      "outputs": [],
      "stateMutability": "nonpayable",
      "type": "function"
    },
    {
      "inputs": [
        {
          "internalType": "bytes32",
          "name": "role",
          "type": "bytes32"
        },
        {
          "internalType": "address",
          "name": "account",
          "type": "address"
        }
      ],
      "name": "revokeRole",
      "outputs": [],
      "stateMutability": "nonpayable",
      "type": "function"
    },
    {
      "inputs": [
        {
          "internalType": "bytes4",
          "name": "interfaceId",
          "type": "bytes4"
        }
      ],
      "name": "supportsInterface",
      "outputs": [
        {
          "internalType": "bool",
          "name": "",
          "type": "bool"
        }
      ],
      "stateMutability": "view",
      "type": "function"
    },
    {
      "inputs": [
        {
          "internalType": "address",
          "name": "newImplementation",
          "type": "address"
        }
      ],
      "name": "upgradeTo",
      "outputs": [],
      "stateMutability": "nonpayable",
      "type": "function"
    },
    {
      "inputs": [
        {
          "internalType": "address",
          "name": "newImplementation",
          "type": "address"
        },
        {
          "internalType": "bytes",
          "name": "data",
          "type": "bytes"
        }
      ],
      "name": "upgradeToAndCall",
      "outputs": [],
      "stateMutability": "payable",
      "type": "function"
    },
    {
      "inputs": [
        {
          "internalType": "address",
          "name": "_officialWallet",
          "type": "address"
        },
        {
          "internalType": "address",
          "name": "_foundationWallet",
          "type": "address"
        },
        {
          "internalType": "address",
          "name": "_bidbackWallet",
          "type": "address"
        },
        {
          "internalType": "uint256",
          "name": "_ownerCutPerMillion",
          "type": "uint256"
        }
      ],
      "name": "initialize",
      "outputs": [],
      "stateMutability": "nonpayable",
      "type": "function"
    },
    {
      "inputs": [
        {
          "internalType": "contract IMelandStoreItems",
          "name": "nft",
          "type": "address"
        }
      ],
      "name": "createNFT",
      "outputs": [],
      "stateMutability": "nonpayable",
      "type": "function"
    },
    {
      "inputs": [
        {
          "internalType": "contract IMelandStoreItems",
          "name": "nft",
          "type": "address"
        }
      ],
      "name": "removedNFT",
      "outputs": [],
      "stateMutability": "nonpayable",
      "type": "function"
    },
    {
      "inputs": [
        {
          "internalType": "contract IMelandStoreItems",
          "name": "nft",
          "type": "address"
        }
      ],
      "name": "updateNFTItemInfo",
      "outputs": [],
      "stateMutability": "nonpayable",
      "type": "function"
    },
    {
      "inputs": [
        {
          "internalType": "uint256",
          "name": "_ownerCutPerMillion",
          "type": "uint256"
        }
      ],
      "name": "setOwnerCutPerMillion",
      "outputs": [],
      "stateMutability": "nonpayable",
      "type": "function"
    },
    {
      "inputs": [
        {
          "internalType": "contract IMelandStoreItems",
          "name": "nft",
          "type": "address"
        },
        {
          "internalType": "string",
          "name": "symbol",
          "type": "string"
        },
        {
          "internalType": "uint256",
          "name": "priceInWei",
          "type": "uint256"
        }
      ],
      "name": "buyNFT",
      "outputs": [],
      "stateMutability": "nonpayable",
      "type": "function"
    }
  ],
  "bytecode": "0x60a06040523060805234801561001457600080fd5b50608051612830610045600039600081816112e401528181611324015281816113ad01526113ed01526128306000f3fe6080604052600436106101405760003560e01c80634f1ef286116100b6578063cf756fdf1161006f578063cf756fdf14610392578063d5391393146103b2578063d547741f146103e6578063eaf3717014610406578063f72c0d8b14610437578063fa21a11d1461046b57600080fd5b80634f1ef286146102f45780636b7ae8dc1461030757806391d1485414610327578063a01f79d414610347578063a217fddf1461035d578063aabbd1171461037257600080fd5b8063248a9ca311610108578063248a9ca3146102145780632f2ff15d1461025257806330c7be2c14610272578063355568db1461029457806336568abe146102b45780633659cfe6146102d457600080fd5b806301ffc9a714610145578063088025d31461017a57806317e5883c146101b257806319dad16d146101d4578063242e5cab146101f4575b600080fd5b34801561015157600080fd5b50610165610160366004611f62565b61048b565b60405190151581526020015b60405180910390f35b34801561018657600080fd5b5060fc5461019a906001600160a01b031681565b6040516001600160a01b039091168152602001610171565b3480156101be57600080fd5b506101d26101cd366004611fa1565b6104c2565b005b3480156101e057600080fd5b506101d26101ef366004611fbe565b610586565b34801561020057600080fd5b506101d261020f366004612084565b610644565b34801561022057600080fd5b5061024461022f366004611fbe565b60009081526065602052604090206001015490565b604051908152602001610171565b34801561025e57600080fd5b506101d261026d3660046120f1565b611169565b34801561027e57600080fd5b506102446000805160206127db83398151915281565b3480156102a057600080fd5b506101d26102af366004611fa1565b611194565b3480156102c057600080fd5b506101d26102cf3660046120f1565b61125b565b3480156102e057600080fd5b506101d26102ef366004611fa1565b6112d9565b6101d2610302366004612121565b6113a2565b34801561031357600080fd5b5060fb5461019a906001600160a01b031681565b34801561033357600080fd5b506101656103423660046120f1565b611458565b34801561035357600080fd5b5061024460fe5481565b34801561036957600080fd5b50610244600081565b34801561037e57600080fd5b5060fd5461019a906001600160a01b031681565b34801561039e57600080fd5b506101d26103ad366004612185565b611483565b3480156103be57600080fd5b506102447f9f2df0fed2c77648de5860a4cc508cd0818c85b8b8a1ab4ceeef8d981c8956a681565b3480156103f257600080fd5b506101d26104013660046120f1565b611592565b34801561041257600080fd5b50610165610421366004611fa1565b60ff602081905260009182526040909120541681565b34801561044357600080fd5b506102447f189ab7a9244df0848122154315af71fe140f3db0fe014031783b0946b8c9d2e381565b34801561047757600080fd5b506101d2610486366004611fa1565b6115b8565b60006001600160e01b03198216637965db0b60e01b14806104bc57506301ffc9a760e01b6001600160e01b03198316145b92915050565b6104cb81611624565b6001600160a01b038116600090815260ff6020819052604090912054161561052b5760405162461bcd60e51b815260206004820152600e60248201526d416c72656164792065786973747360901b60448201526064015b60405180910390fd5b6001600160a01b038116600081815260ff6020908152604091829020805460ff1916600117905590519182527f3754da1a98214dd62255f52efe5c8d68ba410e5c19339cc7883a5fba3df0adf291015b60405180910390a150565b6000805160206127db83398151915261059f8133611679565b620f424082106106075760405162461bcd60e51b815260206004820152602d60248201527f546865206f776e6572206375742073686f756c64206265206265747765656e2060448201526c3020616e64203939392c39393960981b6064820152608401610522565b60fe8290556040518281527ffa406a120a9e7f2b332bfb7a43d3bf1c3f079262202907a6b69c94b2821a02c6906020015b60405180910390a15050565b6001600160a01b038316600090815260ff60208190526040909120543391166106a25760405162461bcd60e51b815260206004820152601060248201526f139195081b9bdd081d5c1b1bd859195960821b6044820152606401610522565b6106ab84611624565b60008080866001600160a01b0316638b31e62d6040518163ffffffff1660e01b815260040160006040518083038186803b1580156106e857600080fd5b505afa1580156106fc573d6000803e3d6000fd5b505050506040513d6000823e601f3d908101601f191682016040526107249190810190612290565b9150915060005b82518110156107875761076883828151811061074957610749612398565b6020026020010151888051602091820120825192909101919091201490565b1561077557809350610787565b8061077f816123c4565b91505061072b565b50604051631ba43d2b60e01b81526001600160a01b03881690631ba43d2b906107b490899060040161240b565b602060405180830381600087803b1580156107ce57600080fd5b505af11580156107e2573d6000803e3d6000fd5b505050506040513d601f19601f820116820180604052508101906108069190612433565b6108635760405162461bcd60e51b815260206004820152602860248201527f4d65726368616e6469736520686173206265656e2073757370656e6465642066604482015267726f6d2073616c6560c01b6064820152608401610522565b60008311806108a257506108a28260008151811061088357610883612398565b6020026020010151878051602091820120825192909101919091201490565b6108e35760405162461bcd60e51b815260206004820152601260248201527173796d626f6c206973206e6f742073616c6560701b6044820152606401610522565b848184815181106108f6576108f6612398565b60200260200101511461094b5760405162461bcd60e51b815260206004820152601860248201527f546865207072696365206973206e6f7420636f727265637400000000000000006044820152606401610522565b5050600080866001600160a01b0316630820c90d876040518263ffffffff1660e01b815260040161097c919061240b565b604080518083038186803b15801561099357600080fd5b505afa1580156109a7573d6000803e3d6000fd5b505050506040513d601f19601f820116820180604052508101906109cb919061244e565b915091508115610a7e57806109e18888876116dd565b1081604051602001610a4591907f457863656564656420746865206d6178696d756d206c696d697420746861742081527f6561636820706572736f6e2063616e20707572636861736520280000000000006020820152603a810191909152605a0190565b60405160208183030381529060405290610a725760405162461bcd60e51b8152600401610522919061240b565b50610a7e878786611706565b505060405163664033d560e01b81526000906001600160a01b0387169063664033d590610aaf90889060040161240b565b60206040518083038186803b158015610ac757600080fd5b505afa158015610adb573d6000803e3d6000fd5b505050506040513d601f19601f82011682018060405250810190610aff919061247a565b905060008080886001600160a01b0316639f89e769896040518263ffffffff1660e01b8152600401610b31919061240b565b60006040518083038186803b158015610b4957600080fd5b505afa158015610b5d573d6000803e3d6000fd5b505050506040513d6000823e601f3d908101601f19168201604052610b859190810190612497565b915091508115610c12576000815111610bf45760405162461bcd60e51b815260206004820152602b60248201527f496e73756666696369656e74207175616e74697479206f662073616c6561626c60448201526a6520696e76656e746f727960a81b6064820152608401610522565b80600081518110610c0757610c07612398565b602002602001015192505b60405163fcc6dd5760e01b81526000906001600160a01b038b169063fcc6dd5790610c41908c9060040161240b565b60206040518083038186803b158015610c5957600080fd5b505afa158015610c6d573d6000803e3d6000fd5b505050506040513d601f19601f82011682018060405250810190610c91919061247a565b905060008060fe541115610f9a57610cc1620f4240610cbb60fe548c61174590919063ffffffff16565b90611751565b90506000610cd56064610cbb846028611745565b90506000610ce96064610cbb856028611745565b90506000610cfd6064610cbb866014611745565b9050846001600160a01b03166323b872dd8c60fd60009054906101000a90046001600160a01b0316866040518463ffffffff1660e01b8152600401610d44939291906124db565b602060405180830381600087803b158015610d5e57600080fd5b505af1158015610d72573d6000803e3d6000fd5b505050506040513d601f19601f82011682018060405250810190610d969190612433565b50846001600160a01b03166323b872dd8c60fb60009054906101000a90046001600160a01b0316856040518463ffffffff1660e01b8152600401610ddc939291906124db565b602060405180830381600087803b158015610df657600080fd5b505af1158015610e0a573d6000803e3d6000fd5b505050506040513d601f19601f82011682018060405250810190610e2e9190612433565b610e945760405162461bcd60e51b815260206004820152603160248201527f48616e646c696e6720666565207472616e7366657220746f20666f756e646174604482015270696f6e57616c6c6574206661696c75726560781b6064820152608401610522565b846001600160a01b03166323b872dd8c60fc60009054906101000a90046001600160a01b0316846040518463ffffffff1660e01b8152600401610ed9939291906124db565b602060405180830381600087803b158015610ef357600080fd5b505af1158015610f07573d6000803e3d6000fd5b505050506040513d601f19601f82011682018060405250810190610f2b9190612433565b610f965760405162461bcd60e51b815260206004820152603660248201527f48616e646c696e6720666565207472616e7366657220746f206f6666696369616044820152756c57616c6c657420746f206f6666206661696c75726560501b6064820152608401610522565b5050505b6001600160a01b0382166323b872dd8988610fb58d8661175d565b6040518463ffffffff1660e01b8152600401610fd3939291906124db565b602060405180830381600087803b158015610fed57600080fd5b505af1158015611001573d6000803e3d6000fd5b505050506040513d601f19601f820116820180604052508101906110259190612433565b61108a5760405162461bcd60e51b815260206004820152603060248201527f5472616e73666572696e67207468652073616c6520616d6f756e7420746f207460448201526f1a19481cd95b1b195c8819985a5b195960821b6064820152608401610522565b6040516235185d60e71b81526001600160a01b038c1690631a8c2e80906110b9908d9089908d906004016124ff565b602060405180830381600087803b1580156110d357600080fd5b505af11580156110e7573d6000803e3d6000fd5b505050506040513d601f19601f8201168201806040525081019061110b9190612532565b94508a6001600160a01b0316886001600160a01b03167f3e296c9cc76153953bfca1fe13a14dc0aee5534fa1331116a964f12fad80353d8c888d6040516111549392919061254b565b60405180910390a35050505050505050505050565b6000828152606560205260409020600101546111858133611679565b61118f8383611769565b505050565b6000805160206127db8339815191526111ad8133611679565b6001600160a01b038216600090815260ff6020819052604090912054161561120a5760405162461bcd60e51b815260206004820152601060248201526f139195081b9bdd081d5c1b185bd9195960821b6044820152606401610522565b6001600160a01b038216600081815260ff6020908152604091829020805460ff1916905590519182527f06f409384c0d94d2cd9598077ce98c1d0ce08bdc8c53667ca6d2c1878f8bd3849101610638565b6001600160a01b03811633146112cb5760405162461bcd60e51b815260206004820152602f60248201527f416363657373436f6e74726f6c3a2063616e206f6e6c792072656e6f756e636560448201526e103937b632b9903337b91039b2b63360891b6064820152608401610522565b6112d582826117ef565b5050565b306001600160a01b037f00000000000000000000000000000000000000000000000000000000000000001614156113225760405162461bcd60e51b815260040161052290612570565b7f00000000000000000000000000000000000000000000000000000000000000006001600160a01b0316611354611856565b6001600160a01b03161461137a5760405162461bcd60e51b8152600401610522906125bc565b61138381611884565b6040805160008082526020820190925261139f918391906118af565b50565b306001600160a01b037f00000000000000000000000000000000000000000000000000000000000000001614156113eb5760405162461bcd60e51b815260040161052290612570565b7f00000000000000000000000000000000000000000000000000000000000000006001600160a01b031661141d611856565b6001600160a01b0316146114435760405162461bcd60e51b8152600401610522906125bc565b61144c82611884565b6112d5828260016118af565b60009182526065602090815260408084206001600160a01b0393909316845291905290205460ff1690565b600054610100900460ff1661149e5760005460ff16156114a2565b303b155b6115055760405162461bcd60e51b815260206004820152602e60248201527f496e697469616c697a61626c653a20636f6e747261637420697320616c72656160448201526d191e481a5b9a5d1a585b1a5e995960921b6064820152608401610522565b600054610100900460ff16158015611527576000805461ffff19166101011790555b61152f6119f3565b611537611a2c565b60fc80546001600160a01b038088166001600160a01b03199283161790925560fb805487841690831617905560fd80549286169290911691909117905560fe829055801561158b576000805461ff00191690555b5050505050565b6000828152606560205260409020600101546115ae8133611679565b61118f83836117ef565b6001600160a01b038116600090815260ff6020819052604090912054161561139f577fc792cdc7e2492613f3b1272b47afdfc0db66ee85b9fde5d34790f4f02b21f1838161160583611aab565b604080516001600160a01b03909316835290151560208301520161057b565b61162d81611aab565b61139f5760405162461bcd60e51b815260206004820152601960248201527f50726f647563742063616c6962726174696f6e206572726f72000000000000006044820152606401610522565b6116838282611458565b6112d55761169b816001600160a01b03166014611b31565b6116a6836020611b31565b6040516020016116b7929190612608565b60408051601f198184030181529082905262461bcd60e51b82526105229160040161240b565b6000806116eb858585611ccd565b600090815261010060205260409020549150505b9392505050565b6000611713848484611ccd565b905060016101006000838152602001908152602001600020600082825461173a919061267d565b909155505050505050565b60006116ff8284612695565b60006116ff82846126b4565b60006116ff82846126d6565b6117738282611458565b6112d55760008281526065602090815260408083206001600160a01b03851684529091529020805460ff191660011790556117ab3390565b6001600160a01b0316816001600160a01b0316837f2f8788117e7eff1d82e926ec794901d17c78024a50270940304540a733656f0d60405160405180910390a45050565b6117f98282611458565b156112d55760008281526065602090815260408083206001600160a01b0385168085529252808320805460ff1916905551339285917ff6391f5c32d9c69d2a47ea670b442974b53935d1edc7fd64eb21e047a839171b9190a45050565b7f360894a13ba1a3210667c828492db98dca3e2076cc3735a920a3ca505d382bbc546001600160a01b031690565b7f189ab7a9244df0848122154315af71fe140f3db0fe014031783b0946b8c9d2e36112d58133611679565b60006118b9611856565b90506118c484611d03565b6000835111806118d15750815b156118e2576118e08484611da8565b505b7f4910fdfa16fed3260ed0e7147f7cc6da11a60208b5b9406d12a635614ffd9143805460ff1661158b57805460ff191660011781556040516001600160a01b038316602482015261196190869060440160408051601f198184030181529190526020810180516001600160e01b0316631b2ce7f360e11b179052611da8565b50805460ff19168155611972611856565b6001600160a01b0316826001600160a01b0316146119ea5760405162461bcd60e51b815260206004820152602f60248201527f45524331393637557067726164653a207570677261646520627265616b73206660448201526e75727468657220757067726164657360881b6064820152608401610522565b61158b85611e93565b600054610100900460ff16611a1a5760405162461bcd60e51b8152600401610522906126ed565b611a22611ed3565b611a2a611ed3565b565b611a34611efa565b611a3f600033611769565b611a576000805160206127db83398151915233611769565b611a817f9f2df0fed2c77648de5860a4cc508cd0818c85b8b8a1ab4ceeef8d981c8956a633611769565b611a2a7f189ab7a9244df0848122154315af71fe140f3db0fe014031783b0946b8c9d2e333611769565b6000806000836001600160a01b0316638b31e62d6040518163ffffffff1660e01b815260040160006040518083038186803b158015611ae957600080fd5b505afa158015611afd573d6000803e3d6000fd5b505050506040513d6000823e601f3d908101601f19168201604052611b259190810190612290565b51905114949350505050565b60606000611b40836002612695565b611b4b90600261267d565b67ffffffffffffffff811115611b6357611b63611fd7565b6040519080825280601f01601f191660200182016040528015611b8d576020820181803683370190505b509050600360fc1b81600081518110611ba857611ba8612398565b60200101906001600160f81b031916908160001a905350600f60fb1b81600181518110611bd757611bd7612398565b60200101906001600160f81b031916908160001a9053506000611bfb846002612695565b611c0690600161267d565b90505b6001811115611c7e576f181899199a1a9b1b9c1cb0b131b232b360811b85600f1660108110611c3a57611c3a612398565b1a60f81b828281518110611c5057611c50612398565b60200101906001600160f81b031916908160001a90535060049490941c93611c7781612738565b9050611c09565b5083156116ff5760405162461bcd60e51b815260206004820181905260248201527f537472696e67733a20686578206c656e67746820696e73756666696369656e746044820152606401610522565b6000838383604051602001611ce49392919061274f565b6040516020818303038152906040528051906020012090509392505050565b803b611d675760405162461bcd60e51b815260206004820152602d60248201527f455243313936373a206e657720696d706c656d656e746174696f6e206973206e60448201526c1bdd08184818dbdb9d1c9858dd609a1b6064820152608401610522565b7f360894a13ba1a3210667c828492db98dca3e2076cc3735a920a3ca505d382bbc80546001600160a01b0319166001600160a01b0392909216919091179055565b6060823b611e075760405162461bcd60e51b815260206004820152602660248201527f416464726573733a2064656c65676174652063616c6c20746f206e6f6e2d636f6044820152651b9d1c9858dd60d21b6064820152608401610522565b600080846001600160a01b031684604051611e229190612797565b600060405180830381855af49150503d8060008114611e5d576040519150601f19603f3d011682016040523d82523d6000602084013e611e62565b606091505b5091509150611e8a82826040518060600160405280602781526020016127b460279139611f29565b95945050505050565b611e9c81611d03565b6040516001600160a01b038216907fbc7cd75a20ee27fd9adebab32041f755214dbc6bffa90cc0225b39da2e5c2d3b90600090a250565b600054610100900460ff16611a2a5760405162461bcd60e51b8152600401610522906126ed565b600054610100900460ff16611f215760405162461bcd60e51b8152600401610522906126ed565b611a1a611ed3565b60608315611f385750816116ff565b825115611f485782518084602001fd5b8160405162461bcd60e51b8152600401610522919061240b565b600060208284031215611f7457600080fd5b81356001600160e01b0319811681146116ff57600080fd5b6001600160a01b038116811461139f57600080fd5b600060208284031215611fb357600080fd5b81356116ff81611f8c565b600060208284031215611fd057600080fd5b5035919050565b634e487b7160e01b600052604160045260246000fd5b604051601f8201601f1916810167ffffffffffffffff8111828210171561201657612016611fd7565b604052919050565b600067ffffffffffffffff82111561203857612038611fd7565b50601f01601f191660200190565b60006120596120548461201e565b611fed565b905082815283838301111561206d57600080fd5b828260208301376000602084830101529392505050565b60008060006060848603121561209957600080fd5b83356120a481611f8c565b9250602084013567ffffffffffffffff8111156120c057600080fd5b8401601f810186136120d157600080fd5b6120e086823560208401612046565b925050604084013590509250925092565b6000806040838503121561210457600080fd5b82359150602083013561211681611f8c565b809150509250929050565b6000806040838503121561213457600080fd5b823561213f81611f8c565b9150602083013567ffffffffffffffff81111561215b57600080fd5b8301601f8101851361216c57600080fd5b61217b85823560208401612046565b9150509250929050565b6000806000806080858703121561219b57600080fd5b84356121a681611f8c565b935060208501356121b681611f8c565b925060408501356121c681611f8c565b9396929550929360600135925050565b600067ffffffffffffffff8211156121f0576121f0611fd7565b5060051b60200190565b60005b838110156122155781810151838201526020016121fd565b83811115612224576000848401525b50505050565b600082601f83011261223b57600080fd5b8151602061224b612054836121d6565b82815260059290921b8401810191818101908684111561226a57600080fd5b8286015b84811015612285578051835291830191830161226e565b509695505050505050565b60008060408084860312156122a457600080fd5b835167ffffffffffffffff808211156122bc57600080fd5b818601915086601f8301126122d057600080fd5b815160206122e0612054836121d6565b82815260059290921b8401810191818101908a8411156122ff57600080fd5b8286015b848110156123705780518681111561231b5760008081fd5b8701603f81018d1361232d5760008081fd5b8481015161233d6120548261201e565b8181528e8b8385010111156123525760008081fd5b612361828883018d86016121fa565b85525050918301918301612303565b509189015191975090945050508083111561238a57600080fd5b505061217b8582860161222a565b634e487b7160e01b600052603260045260246000fd5b634e487b7160e01b600052601160045260246000fd5b60006000198214156123d8576123d86123ae565b5060010190565b600081518084526123f78160208601602086016121fa565b601f01601f19169290920160200192915050565b6020815260006116ff60208301846123df565b8051801515811461242e57600080fd5b919050565b60006020828403121561244557600080fd5b6116ff8261241e565b6000806040838503121561246157600080fd5b61246a8361241e565b9150602083015190509250929050565b60006020828403121561248c57600080fd5b81516116ff81611f8c565b600080604083850312156124aa57600080fd5b6124b38361241e565b9150602083015167ffffffffffffffff8111156124cf57600080fd5b61217b8582860161222a565b6001600160a01b039384168152919092166020820152604081019190915260600190565b60608152600061251260608301866123df565b6020830194909452506001600160a01b0391909116604090910152919050565b60006020828403121561254457600080fd5b5051919050565b60608152600061255e60608301866123df565b60208301949094525060400152919050565b6020808252602c908201527f46756e6374696f6e206d7573742062652063616c6c6564207468726f7567682060408201526b19195b1959d85d1958d85b1b60a21b606082015260800190565b6020808252602c908201527f46756e6374696f6e206d7573742062652063616c6c6564207468726f7567682060408201526b6163746976652070726f787960a01b606082015260800190565b7f416363657373436f6e74726f6c3a206163636f756e74200000000000000000008152600083516126408160178501602088016121fa565b7001034b99036b4b9b9b4b733903937b6329607d1b60179184019182015283516126718160288401602088016121fa565b01602801949350505050565b60008219821115612690576126906123ae565b500190565b60008160001904831182151516156126af576126af6123ae565b500290565b6000826126d157634e487b7160e01b600052601260045260246000fd5b500490565b6000828210156126e8576126e86123ae565b500390565b6020808252602b908201527f496e697469616c697a61626c653a20636f6e7472616374206973206e6f74206960408201526a6e697469616c697a696e6760a81b606082015260800190565b600081612747576127476123ae565b506000190190565b60006bffffffffffffffffffffffff19808660601b168352845161277a8160148601602089016121fa565b60609490941b169190920160148101919091526028019392505050565b600082516127a98184602087016121fa565b919091019291505056fe416464726573733a206c6f772d6c6576656c2064656c65676174652063616c6c206661696c6564f5eb84615c2a00ecaf817d13794ebd6299c9e01c395bf4018453f13f577f5449a26469706673582212204c4a47cea143cd2439df33e4998460fba6625cdd6027826e38cb1ff04b5ae70064736f6c63430008090033",
  "immutableReferences": {
    "1051": [
      {
        "length": 32,
        "start": 4836
      },
      {
        "length": 32,
        "start": 4900
      },
      {
        "length": 32,
        "start": 5037
      },
      {
        "length": 32,
        "start": 5101
      }
    ]
  },
  "source": "// SPDX-License-Identifier: MIT\npragma solidity 0.8.9;\n\nimport \"@openzeppelin/contracts-upgradeable/access/AccessControlUpgradeable.sol\";\nimport \"@openzeppelin/contracts-upgradeable/proxy/utils/Initializable.sol\";\nimport \"@openzeppelin/contracts-upgradeable/proxy/utils/UUPSUpgradeable.sol\";\nimport \"@openzeppelin/contracts-upgradeable/utils/CountersUpgradeable.sol\";\nimport \"@openzeppelin/contracts-upgradeable/security/PausableUpgradeable.sol\";\nimport \"@openzeppelin/contracts-upgradeable/token/ERC20/IERC20Upgradeable.sol\";\nimport \"@openzeppelin/contracts-upgradeable/utils/math/SafeMathUpgradeable.sol\";\nimport \"./NFTStoreStorage.sol\";\nimport \"./MelandAccessRoles.sol\";\nimport \"./IMELD.sol\";\n\ncontract NFTStore is\n    Initializable,\n    MelandAccessRoles,\n    UUPSUpgradeable,\n    NFTStoreStorage\n{\n    using SafeMathUpgradeable for uint256;\n    using CountersUpgradeable for CountersUpgradeable.Counter;\n    CountersUpgradeable.Counter private itemIdCounters;\n\n    function initialize(\n        address _officialWallet,\n        address _foundationWallet,\n        address _bidbackWallet,\n        uint256 _ownerCutPerMillion\n    ) public initializer {\n        __UUPSUpgradeable_init();\n        __MelandAccessRoles_init();\n        officialWallet = _officialWallet;\n        foundationWallet = _foundationWallet;\n        bidbackWallet = _bidbackWallet;\n        ownerCutPerMillion = _ownerCutPerMillion;\n    }\n\n    // Uploaded new NFT sale\n    function createNFT(IMelandStoreItems nft) public {\n        _checkStoreItems(nft);\n        require(!itemUploadedMap[nft], \"Already exists\");\n        itemUploadedMap[nft] = true;\n        emit NFTCreated(nft);\n    }\n\n    // NFT\n    function removedNFT(IMelandStoreItems nft) external onlyRole(GM_ROLE) {\n        require(!itemUploadedMap[nft], \"NFT not uplaoded\");\n        itemUploadedMap[nft] = false;\n        emit NFTDelete(nft);\n    }\n\n    function updateNFTItemInfo(IMelandStoreItems nft) external {\n        if (itemUploadedMap[nft]) {\n            emit NFTItemUpdate(nft, _tryCheckStoreItems(nft));\n        }\n    }\n\n    // \n    // 50000 = 5%\n    // 500000 = 50%\n    function setOwnerCutPerMillion(uint256 _ownerCutPerMillion)\n        public\n        onlyRole(GM_ROLE)\n    {\n        require(\n            _ownerCutPerMillion < 1000000,\n            \"The owner cut should be between 0 and 999,999\"\n        );\n\n        ownerCutPerMillion = _ownerCutPerMillion;\n        emit ChangedOwnerCutPerMillion(ownerCutPerMillion);\n    }\n\n    function _tryCheckStoreItems(IMelandStoreItems nft)\n        private\n        view\n        returns (bool)\n    {\n        (string[] memory symbols, uint256[] memory prices) = nft\n            .melandStoreItems();\n        return symbols.length == prices.length;\n    }\n\n    function _checkStoreItems(IMelandStoreItems nft) private view {\n        require(_tryCheckStoreItems(nft), \"Product calibration error\");\n    }\n\n    function stringEq(string memory s1, string memory s2) internal pure returns(bool) {\n        return keccak256(bytes(s1)) == keccak256(bytes(s2));\n    }\n\n    function buyNFT(\n        IMelandStoreItems nft,\n        string memory symbol,\n        uint256 priceInWei\n    ) public {\n        address buyer = _msgSender();\n        require(itemUploadedMap[nft], \"NFT not uploaded\");\n        _checkStoreItems(nft);\n\n        uint256 buySymbolIndex = 0;\n        {\n            (string[] memory symbols, uint256[] memory prices) = nft.melandStoreItems();\n\n            for (uint256 i = 0; i < symbols.length; i++) {\n                if (stringEq(symbols[i], symbol)) {\n                    buySymbolIndex = i;\n                    break;\n                }\n            }\n\n            require(\n                nft.melandStoreSellStatus(symbol),\n                \"Merchandise has been suspended from sale\"\n            );\n\n            require(\n                buySymbolIndex > 0 || stringEq(symbols[0], symbol),\n                \"symbol is not sale\"\n            );\n\n            require(\n                prices[buySymbolIndex] == priceInWei,\n                \"The price is not correct\"\n            );\n        }\n\n        {\n            (bool restricted, uint256 restrictLimit) = nft\n                .melandStoreItemsRestrictedPurchase(symbol);\n            if (restricted) {\n                require(\n                    _getItemSymbolSales(nft, symbol, buyer) < restrictLimit,\n                    string(\n                        abi.encodePacked(\n                            \"Exceeded the maximum limit that each person can purchase (\",\n                            restrictLimit\n                        )\n                    )\n                );\n\n                _addItemSymbolSales(nft, symbol, buyer);\n            }\n        }\n\n        address seller = nft.melandStoreReceipt(symbol);\n        uint256 tokenId = 0;\n        (bool idsRestricted, uint256[] memory ids) = nft\n            .melandStoreItemsRestrictPurchaseNFTIds(symbol);\n        if (idsRestricted) {\n            require(\n                ids.length > 0,\n                \"Insufficient quantity of saleable inventory\"\n            );\n            tokenId = ids[0];\n        }\n\n        IERC20Upgradeable acceptedToken = nft.acceptedToken(symbol);\n\n        uint256 saleShareAmount = 0;\n\n        if (ownerCutPerMillion > 0) {\n            // Calculate sale share\n            saleShareAmount = priceInWei.mul(ownerCutPerMillion).div(1000000);\n\n            // 40% burn in handling fee\n            uint256 burnAmount = saleShareAmount.mul(40).div(100);\n\n            // The other 40% is held by the Foundation\n            uint256 foundationAmount = saleShareAmount.mul(40).div(100);\n\n            // The last 20% are official earnings\n            uint256 officialAmount = saleShareAmount.mul(20).div(100);\n\n            // transfer to bidback wallet when burn failed.\n            acceptedToken.transferFrom(\n                buyer,\n                bidbackWallet,\n                burnAmount\n            );\n\n            require(\n                acceptedToken.transferFrom(\n                    buyer,\n                    foundationWallet,\n                    foundationAmount\n                ),\n                \"Handling fee transfer to foundationWallet failure\"\n            );\n            require(\n                acceptedToken.transferFrom(\n                    buyer,\n                    officialWallet,\n                    officialAmount\n                ),\n                \"Handling fee transfer to officialWallet to off failure\"\n            );\n        }\n\n        // Transfer sale amount to seller\n        require(\n            acceptedToken.transferFrom(\n                buyer,\n                seller,\n                priceInWei.sub(saleShareAmount)\n            ),\n            \"Transfering the sale amount to the seller failed\"\n        );\n\n        tokenId = nft.melandStoreItemsMint(symbol, tokenId, buyer);\n\n        emit NFTBuyed(buyer, nft, symbol, tokenId, priceInWei);\n    }\n\n    function _authorizeUpgrade(address newImplementation)\n        internal\n        override\n        onlyRole(UPGRADER_ROLE)\n    {}\n}\n",
  "sourcePath": "/Users/alberthuang/code/icw/meland/contracts/NFTStore.sol",
  "compiler": {
    "name": "solc",
    "version": "0.8.9+commit.e5eed63a.Emscripten.clang"
  },
  "schemaVersion": "3.4.3",
  "updatedAt": "2021-12-31T04:32:33.879Z",
  "networkType": "ethereum",
  "devdoc": {
    "kind": "dev",
    "methods": {
      "getRoleAdmin(bytes32)": {
        "details": "Returns the admin role that controls `role`. See {grantRole} and {revokeRole}. To change a role's admin, use {_setRoleAdmin}."
      },
      "grantRole(bytes32,address)": {
        "details": "Grants `role` to `account`. If `account` had not been already granted `role`, emits a {RoleGranted} event. Requirements: - the caller must have ``role``'s admin role."
      },
      "hasRole(bytes32,address)": {
        "details": "Returns `true` if `account` has been granted `role`."
      },
      "renounceRole(bytes32,address)": {
        "details": "Revokes `role` from the calling account. Roles are often managed via {grantRole} and {revokeRole}: this function's purpose is to provide a mechanism for accounts to lose their privileges if they are compromised (such as when a trusted device is misplaced). If the calling account had been revoked `role`, emits a {RoleRevoked} event. Requirements: - the caller must be `account`."
      },
      "revokeRole(bytes32,address)": {
        "details": "Revokes `role` from `account`. If `account` had been granted `role`, emits a {RoleRevoked} event. Requirements: - the caller must have ``role``'s admin role."
      },
      "supportsInterface(bytes4)": {
        "details": "See {IERC165-supportsInterface}."
      },
      "upgradeTo(address)": {
        "details": "Upgrade the implementation of the proxy to `newImplementation`. Calls {_authorizeUpgrade}. Emits an {Upgraded} event."
      },
      "upgradeToAndCall(address,bytes)": {
        "details": "Upgrade the implementation of the proxy to `newImplementation`, and subsequently execute the function call encoded in `data`. Calls {_authorizeUpgrade}. Emits an {Upgraded} event."
      }
    },
    "version": 1
  },
  "userdoc": {
    "kind": "user",
    "methods": {},
    "version": 1
  }
}