{
  "contractName": "NFTStoreStorage",
  "abi": [
    {
      "anonymous": false,
      "inputs": [
        {
          "indexed": false,
          "internalType": "uint256",
          "name": "ownerCutPerMillion",
          "type": "uint256"
        }
      ],
      "name": "ChangedOwnerCutPerMillion",
      "type": "event"
    },
    {
      "anonymous": false,
      "inputs": [
        {
          "indexed": true,
          "internalType": "address",
          "name": "buyer",
          "type": "address"
        },
        {
          "indexed": true,
          "internalType": "contract IMelandStoreItems",
          "name": "nftAddress",
          "type": "address"
        },
        {
          "indexed": false,
          "internalType": "uint256",
          "name": "tokenId",
          "type": "uint256"
        },
        {
          "indexed": false,
          "internalType": "uint256",
          "name": "priceInWei",
          "type": "uint256"
        }
      ],
      "name": "NFTBuyed",
      "type": "event"
    },
    {
      "anonymous": false,
      "inputs": [
        {
          "indexed": false,
          "internalType": "contract IMelandStoreItems",
          "name": "nftAddress",
          "type": "address"
        }
      ],
      "name": "NFTCreated",
      "type": "event"
    },
    {
      "anonymous": false,
      "inputs": [
        {
          "indexed": false,
          "internalType": "contract IMelandStoreItems",
          "name": "nftAddress",
          "type": "address"
        }
      ],
      "name": "NFTDelete",
      "type": "event"
    },
    {
      "anonymous": false,
      "inputs": [
        {
          "indexed": false,
          "internalType": "contract IMelandStoreItems",
          "name": "nftAddress",
          "type": "address"
        },
        {
          "indexed": false,
          "internalType": "bool",
          "name": "checked",
          "type": "bool"
        }
      ],
      "name": "NFTItemUpdate",
      "type": "event"
    },
    {
      "inputs": [],
      "name": "acceptedToken",
      "outputs": [
        {
          "internalType": "contract IERC20MELD",
          "name": "",
          "type": "address"
        }
      ],
      "stateMutability": "view",
      "type": "function"
    },
    {
      "inputs": [],
      "name": "foundationWallet",
      "outputs": [
        {
          "internalType": "address",
          "name": "",
          "type": "address"
        }
      ],
      "stateMutability": "view",
      "type": "function"
    },
    {
      "inputs": [
        {
          "internalType": "contract IMelandStoreItems",
          "name": "",
          "type": "address"
        }
      ],
      "name": "itemUploadedMap",
      "outputs": [
        {
          "internalType": "bool",
          "name": "",
          "type": "bool"
        }
      ],
      "stateMutability": "view",
      "type": "function"
    },
    {
      "inputs": [],
      "name": "officialWallet",
      "outputs": [
        {
          "internalType": "address",
          "name": "",
          "type": "address"
        }
      ],
      "stateMutability": "view",
      "type": "function"
    },
    {
      "inputs": [],
      "name": "ownerCutPerMillion",
      "outputs": [
        {
          "internalType": "uint256",
          "name": "",
          "type": "uint256"
        }
      ],
      "stateMutability": "view",
      "type": "function"
    }
  ],
  "bytecode": "0x608060405234801561001057600080fd5b50610162806100206000396000f3fe608060405234801561001057600080fd5b50600436106100575760003560e01c8063088025d31461005c578063451c3d801461008c5780636b7ae8dc1461009f578063a01f79d4146100b2578063eaf37170146100c9575b600080fd5b60025461006f906001600160a01b031681565b6040516001600160a01b0390911681526020015b60405180910390f35b60005461006f906001600160a01b031681565b60015461006f906001600160a01b031681565b6100bb60035481565b604051908152602001610083565b6100ec6100d73660046100fc565b60046020526000908152604090205460ff1681565b6040519015158152602001610083565b60006020828403121561010e57600080fd5b81356001600160a01b038116811461012557600080fd5b939250505056fea264697066735822122001657c5f26b0f2c6865660b3601ccfee77adc6cb33e8ca0999aac918b06a465b64736f6c63430008090033",
  "immutableReferences": {},
  "source": "// SPDX-License-Identifier: MIT\npragma solidity 0.8.9;\n\n// 官方商城合约\n// 与marketplace的区别是. marketplace是用户和用户之间交易的合约.\n// 交易的NFT是已经mint的.\n// NFTStore 是官方和用户之间交易的合约.\n// 交易的NFT是不存在的.准备mint的.\n\nimport \"./IMELD.sol\";\nimport \"./IMelandStoreItems.sol\";\n\ncontract NFTStoreStorage {\n    // MELD Token.\n    IERC20MELD public acceptedToken;\n\n    // 基金会钱包\n    // 收取手续费中的40%\n    address public foundationWallet;\n\n    // 官方钱包\n    // 收取手续费中的20%\n    address public officialWallet;\n\n    // 抽成比例\n    uint256 public ownerCutPerMillion;\n\n    mapping(IMelandStoreItems => bool) public itemUploadedMap;\n\n    mapping(bytes32 => uint256) private itemSymbolSales;\n\n    // EVENTS\n    event NFTCreated(\n        IMelandStoreItems nftAddress\n    );\n\n    // EVENTS\n    event NFTDelete(\n        IMelandStoreItems nftAddress\n    );\n\n    event NFTBuyed(\n        address indexed buyer,\n        IMelandStoreItems indexed nftAddress,\n        uint256 tokenId,\n        uint256 priceInWei\n    );\n\n    // When \n    event NFTItemUpdate(IMelandStoreItems nftAddress, bool checked);\n\n    event ChangedOwnerCutPerMillion(uint256 ownerCutPerMillion);\n\n    function _genItemSymbolBuyerKey(IMelandStoreItems nft, bytes32 symbol, address buyer) pure internal returns(bytes32) {\n        return keccak256(abi.encodePacked(address(nft), symbol, buyer));\n    }\n\n    function _getItemSymbolSales(IMelandStoreItems nft, bytes32 symbol, address buyer) view internal returns(uint256) {\n        bytes32 key = _genItemSymbolBuyerKey(nft, symbol, buyer);\n        return itemSymbolSales[key];\n    }\n\n    function _addItemSymbolSales(IMelandStoreItems nft, bytes32 symbol, address buyer) internal {\n        bytes32 key = _genItemSymbolBuyerKey(nft, symbol, buyer);\n        itemSymbolSales[key] += 1;\n    }\n}",
  "sourcePath": "/Users/alberthuang/code/icw/meland/contracts/NFTStoreStorage.sol",
  "compiler": {
    "name": "solc",
    "version": "0.8.9+commit.e5eed63a.Emscripten.clang"
  },
  "schemaVersion": "3.4.3",
  "updatedAt": "2021-12-19T13:18:52.305Z",
  "devdoc": {
    "kind": "dev",
    "methods": {},
    "version": 1
  },
  "userdoc": {
    "kind": "user",
    "methods": {},
    "version": 1
  }
}