{
  "contractName": "NFTStoreStorage",
  "abi": [
    {
      "anonymous": false,
      "inputs": [
        {
          "indexed": false,
          "internalType": "uint256",
          "name": "ownerCutPerMillion",
          "type": "uint256"
        }
      ],
      "name": "ChangedOwnerCutPerMillion",
      "type": "event"
    },
    {
      "anonymous": false,
      "inputs": [
        {
          "indexed": true,
          "internalType": "uint256",
          "name": "id",
          "type": "uint256"
        },
        {
          "indexed": true,
          "internalType": "address",
          "name": "buyer",
          "type": "address"
        },
        {
          "indexed": false,
          "internalType": "contract IERC721MelandNFT",
          "name": "nftAddress",
          "type": "address"
        },
        {
          "indexed": false,
          "internalType": "uint256",
          "name": "tokenId",
          "type": "uint256"
        },
        {
          "indexed": false,
          "internalType": "uint256",
          "name": "priceInWei",
          "type": "uint256"
        }
      ],
      "name": "NFTBuyed",
      "type": "event"
    },
    {
      "anonymous": false,
      "inputs": [
        {
          "indexed": true,
          "internalType": "uint256",
          "name": "id",
          "type": "uint256"
        },
        {
          "indexed": true,
          "internalType": "address",
          "name": "seller",
          "type": "address"
        },
        {
          "indexed": false,
          "internalType": "contract IERC721MelandNFT",
          "name": "nftAddress",
          "type": "address"
        },
        {
          "indexed": false,
          "internalType": "uint256",
          "name": "priceInWei",
          "type": "uint256"
        }
      ],
      "name": "NFTCreated",
      "type": "event"
    },
    {
      "anonymous": false,
      "inputs": [
        {
          "indexed": true,
          "internalType": "uint256",
          "name": "id",
          "type": "uint256"
        },
        {
          "indexed": true,
          "internalType": "address",
          "name": "seller",
          "type": "address"
        },
        {
          "indexed": false,
          "internalType": "contract IERC721MelandNFT",
          "name": "nftAddress",
          "type": "address"
        }
      ],
      "name": "NFTDelete",
      "type": "event"
    },
    {
      "anonymous": false,
      "inputs": [
        {
          "indexed": true,
          "internalType": "uint256",
          "name": "id",
          "type": "uint256"
        },
        {
          "indexed": true,
          "internalType": "contract IERC721MelandNFT",
          "name": "nft",
          "type": "address"
        },
        {
          "indexed": false,
          "internalType": "uint256",
          "name": "length",
          "type": "uint256"
        }
      ],
      "name": "NFTIdPoolUpdate",
      "type": "event"
    },
    {
      "anonymous": false,
      "inputs": [
        {
          "indexed": true,
          "internalType": "uint256",
          "name": "id",
          "type": "uint256"
        },
        {
          "indexed": false,
          "internalType": "contract IERC721MelandNFT",
          "name": "nftAddress",
          "type": "address"
        }
      ],
      "name": "NFTItemUpdate",
      "type": "event"
    },
    {
      "inputs": [],
      "name": "GM_ROLE",
      "outputs": [
        {
          "internalType": "bytes32",
          "name": "",
          "type": "bytes32"
        }
      ],
      "stateMutability": "view",
      "type": "function"
    },
    {
      "inputs": [],
      "name": "MINTER_ROLE",
      "outputs": [
        {
          "internalType": "bytes32",
          "name": "",
          "type": "bytes32"
        }
      ],
      "stateMutability": "view",
      "type": "function"
    },
    {
      "inputs": [],
      "name": "UPGRADER_ROLE",
      "outputs": [
        {
          "internalType": "bytes32",
          "name": "",
          "type": "bytes32"
        }
      ],
      "stateMutability": "view",
      "type": "function"
    },
    {
      "inputs": [],
      "name": "acceptedToken",
      "outputs": [
        {
          "internalType": "contract IERC20MELD",
          "name": "",
          "type": "address"
        }
      ],
      "stateMutability": "view",
      "type": "function"
    },
    {
      "inputs": [],
      "name": "foundationWallet",
      "outputs": [
        {
          "internalType": "address",
          "name": "",
          "type": "address"
        }
      ],
      "stateMutability": "view",
      "type": "function"
    },
    {
      "inputs": [
        {
          "internalType": "contract IERC721MelandNFT",
          "name": "",
          "type": "address"
        }
      ],
      "name": "itemByNFT",
      "outputs": [
        {
          "internalType": "uint256",
          "name": "id",
          "type": "uint256"
        },
        {
          "internalType": "address",
          "name": "seller",
          "type": "address"
        },
        {
          "internalType": "bool",
          "name": "tokenIdPool",
          "type": "bool"
        },
        {
          "internalType": "uint256",
          "name": "priceInWei",
          "type": "uint256"
        },
        {
          "internalType": "uint256",
          "name": "sellsCount",
          "type": "uint256"
        },
        {
          "internalType": "uint32",
          "name": "limit",
          "type": "uint32"
        }
      ],
      "stateMutability": "view",
      "type": "function"
    },
    {
      "inputs": [
        {
          "internalType": "contract IERC721MelandNFT",
          "name": "",
          "type": "address"
        },
        {
          "internalType": "address",
          "name": "",
          "type": "address"
        }
      ],
      "name": "limitPool",
      "outputs": [
        {
          "internalType": "uint256",
          "name": "",
          "type": "uint256"
        }
      ],
      "stateMutability": "view",
      "type": "function"
    },
    {
      "inputs": [
        {
          "internalType": "string",
          "name": "",
          "type": "string"
        }
      ],
      "name": "nftByCid",
      "outputs": [
        {
          "internalType": "address",
          "name": "",
          "type": "address"
        }
      ],
      "stateMutability": "view",
      "type": "function"
    },
    {
      "inputs": [],
      "name": "officialWallet",
      "outputs": [
        {
          "internalType": "address",
          "name": "",
          "type": "address"
        }
      ],
      "stateMutability": "view",
      "type": "function"
    },
    {
      "inputs": [],
      "name": "ownerCutPerMillion",
      "outputs": [
        {
          "internalType": "uint256",
          "name": "",
          "type": "uint256"
        }
      ],
      "stateMutability": "view",
      "type": "function"
    },
    {
      "inputs": [
        {
          "internalType": "contract IERC721MelandNFT",
          "name": "",
          "type": "address"
        },
        {
          "internalType": "uint256",
          "name": "",
          "type": "uint256"
        }
      ],
      "name": "tokenIdsByNFT",
      "outputs": [
        {
          "internalType": "uint256",
          "name": "",
          "type": "uint256"
        }
      ],
      "stateMutability": "view",
      "type": "function"
    }
  ],
  "bytecode": "0x608060405234801561001057600080fd5b5061046c806100206000396000f3fe608060405234801561001057600080fd5b50600436106100a95760003560e01c806380b7613c1161007157806380b7613c146101d4578063a01f79d4146101ff578063ac54242d14610208578063b83fe3011461021b578063d53913931461024f578063f72c0d8b1461027657600080fd5b8063088025d3146100ae57806330c7be2c146100de578063451c3d801461011357806366b61640146101265780636b7ae8dc146101c1575b600080fd5b6002546100c1906001600160a01b031681565b6040516001600160a01b0390911681526020015b60405180910390f35b6101057ff5eb84615c2a00ecaf817d13794ebd6299c9e01c395bf4018453f13f577f544981565b6040519081526020016100d5565b6000546100c1906001600160a01b031681565b6101806101343660046102e6565b60036020819052600091825260409091208054600182015460028301549383015460049093015491936001600160a01b03821693600160a01b90920460ff169290919063ffffffff1686565b604080519687526001600160a01b039095166020870152921515938501939093526060840152608083019190915263ffffffff1660a082015260c0016100d5565b6001546100c1906001600160a01b031681565b6101056101e236600461030a565b600660209081526000928352604080842090915290825290205481565b61010560075481565b610105610216366004610343565b61029d565b6100c1610229366004610385565b80516020818301810180516005825292820191909301209152546001600160a01b031681565b6101057f9f2df0fed2c77648de5860a4cc508cd0818c85b8b8a1ab4ceeef8d981c8956a681565b6101057f189ab7a9244df0848122154315af71fe140f3db0fe014031783b0946b8c9d2e381565b600460205281600052604060002081815481106102b957600080fd5b90600052602060002001600091509150505481565b6001600160a01b03811681146102e357600080fd5b50565b6000602082840312156102f857600080fd5b8135610303816102ce565b9392505050565b6000806040838503121561031d57600080fd5b8235610328816102ce565b91506020830135610338816102ce565b809150509250929050565b6000806040838503121561035657600080fd5b8235610361816102ce565b946020939093013593505050565b634e487b7160e01b600052604160045260246000fd5b60006020828403121561039757600080fd5b813567ffffffffffffffff808211156103af57600080fd5b818401915084601f8301126103c357600080fd5b8135818111156103d5576103d561036f565b604051601f8201601f19908116603f011681019083821181831017156103fd576103fd61036f565b8160405282815287602084870101111561041657600080fd5b82602086016020830137600092810160200192909252509594505050505056fea26469706673582212202ef34975debeb0b47f918c0506e72feb7a7886ef1dea459f363d318a27b33cc064736f6c63430008090033",
  "immutableReferences": {},
  "source": "// SPDX-License-Identifier: MIT\npragma solidity 0.8.9;\n\n// \n// marketplace. marketplace.\n// NFTmint.\n// NFTStore .\n// NFT.mint.\n\nimport \"./IMELD.sol\";\nimport \"./IERC721MelandNFT.sol\";\n\ncontract NFTStoreStorage {\n    // MELD Token.\n    IERC20MELD public acceptedToken;\n\n    // \n    // 40%\n    address public foundationWallet;\n\n    // \n    // 20%\n    address public officialWallet;\n\n    bytes32 public constant UPGRADER_ROLE = keccak256(\"UPGRADER_ROLE\");\n    bytes32 public constant MINTER_ROLE = keccak256(\"MINTER_ROLE\");\n    bytes32 public constant GM_ROLE = keccak256(\"GM_ROLE\");\n\n    // nft address -> (nft token id -> Order)\n    mapping(IERC721MelandNFT => Item) public itemByNFT;\n\n    // token id \n    // tokenIdPool\n    // tokenid\n    // nftidtoken idmint\n    // \n    mapping(IERC721MelandNFT => uint256[]) public tokenIdsByNFT;\n\n    // cid\n    // cid\n    mapping(string => address) public nftByCid;\n\n    // \n    // NFT\n    mapping(IERC721MelandNFT => mapping(address => uint256)) public limitPool;\n\n    // \n    uint256 public ownerCutPerMillion;\n\n    struct Item {\n        uint256 id;\n        address seller;\n        // token id\n        // , token idtoken id mint\n        // \n        bool tokenIdPool;\n        uint256 priceInWei;\n        uint256 sellsCount;\n        // \n        // 0\n        uint32 limit;\n    }\n\n    // EVENTS\n    event NFTCreated(\n        uint256 indexed id,\n        address indexed seller,\n        IERC721MelandNFT nftAddress,\n        uint256 priceInWei\n    );\n\n    // EVENTS\n    event NFTDelete(\n        uint256 indexed id,\n        address indexed seller, \n        IERC721MelandNFT nftAddress\n    );\n\n    event NFTBuyed(\n        uint256 indexed id,\n        address indexed buyer,\n        IERC721MelandNFT nftAddress,\n        uint256 tokenId,\n        uint256 priceInWei\n    );\n\n    event NFTIdPoolUpdate(uint256 indexed id, IERC721MelandNFT indexed nft, uint256 length);\n\n    event NFTItemUpdate(uint256 indexed id, IERC721MelandNFT nftAddress);\n\n    event ChangedOwnerCutPerMillion(uint256 ownerCutPerMillion);\n}\n",
  "sourcePath": "/Users/alberthuang/code/icw/meland/contracts/NFTStoreStorage.sol",
  "compiler": {
    "name": "solc",
    "version": "0.8.9+commit.e5eed63a.Emscripten.clang"
  },
  "schemaVersion": "3.4.3",
  "updatedAt": "2021-12-07T05:18:47.686Z",
  "devdoc": {
    "kind": "dev",
    "methods": {},
    "version": 1
  },
  "userdoc": {
    "kind": "user",
    "methods": {},
    "version": 1
  }
}