{
  "contractName": "NFTWithRarity",
  "abi": [
    {
      "anonymous": false,
      "inputs": [
        {
          "indexed": false,
          "internalType": "address",
          "name": "previousAdmin",
          "type": "address"
        },
        {
          "indexed": false,
          "internalType": "address",
          "name": "newAdmin",
          "type": "address"
        }
      ],
      "name": "AdminChanged",
      "type": "event"
    },
    {
      "anonymous": false,
      "inputs": [
        {
          "indexed": true,
          "internalType": "address",
          "name": "owner",
          "type": "address"
        },
        {
          "indexed": true,
          "internalType": "address",
          "name": "approved",
          "type": "address"
        },
        {
          "indexed": true,
          "internalType": "uint256",
          "name": "tokenId",
          "type": "uint256"
        }
      ],
      "name": "Approval",
      "type": "event"
    },
    {
      "anonymous": false,
      "inputs": [
        {
          "indexed": true,
          "internalType": "address",
          "name": "owner",
          "type": "address"
        },
        {
          "indexed": true,
          "internalType": "address",
          "name": "operator",
          "type": "address"
        },
        {
          "indexed": false,
          "internalType": "bool",
          "name": "approved",
          "type": "bool"
        }
      ],
      "name": "ApprovalForAll",
      "type": "event"
    },
    {
      "anonymous": false,
      "inputs": [
        {
          "indexed": true,
          "internalType": "address",
          "name": "beacon",
          "type": "address"
        }
      ],
      "name": "BeaconUpgraded",
      "type": "event"
    },
    {
      "anonymous": false,
      "inputs": [
        {
          "indexed": true,
          "internalType": "bytes32",
          "name": "role",
          "type": "bytes32"
        },
        {
          "indexed": true,
          "internalType": "bytes32",
          "name": "previousAdminRole",
          "type": "bytes32"
        },
        {
          "indexed": true,
          "internalType": "bytes32",
          "name": "newAdminRole",
          "type": "bytes32"
        }
      ],
      "name": "RoleAdminChanged",
      "type": "event"
    },
    {
      "anonymous": false,
      "inputs": [
        {
          "indexed": true,
          "internalType": "bytes32",
          "name": "role",
          "type": "bytes32"
        },
        {
          "indexed": true,
          "internalType": "address",
          "name": "account",
          "type": "address"
        },
        {
          "indexed": true,
          "internalType": "address",
          "name": "sender",
          "type": "address"
        }
      ],
      "name": "RoleGranted",
      "type": "event"
    },
    {
      "anonymous": false,
      "inputs": [
        {
          "indexed": true,
          "internalType": "bytes32",
          "name": "role",
          "type": "bytes32"
        },
        {
          "indexed": true,
          "internalType": "address",
          "name": "account",
          "type": "address"
        },
        {
          "indexed": true,
          "internalType": "address",
          "name": "sender",
          "type": "address"
        }
      ],
      "name": "RoleRevoked",
      "type": "event"
    },
    {
      "anonymous": false,
      "inputs": [
        {
          "indexed": true,
          "internalType": "address",
          "name": "from",
          "type": "address"
        },
        {
          "indexed": true,
          "internalType": "address",
          "name": "to",
          "type": "address"
        },
        {
          "indexed": true,
          "internalType": "uint256",
          "name": "tokenId",
          "type": "uint256"
        }
      ],
      "name": "Transfer",
      "type": "event"
    },
    {
      "anonymous": false,
      "inputs": [
        {
          "indexed": true,
          "internalType": "address",
          "name": "implementation",
          "type": "address"
        }
      ],
      "name": "Upgraded",
      "type": "event"
    },
    {
      "inputs": [],
      "name": "DEFAULT_ADMIN_ROLE",
      "outputs": [
        {
          "internalType": "bytes32",
          "name": "",
          "type": "bytes32"
        }
      ],
      "stateMutability": "view",
      "type": "function"
    },
    {
      "inputs": [],
      "name": "MINTER_ROLE",
      "outputs": [
        {
          "internalType": "bytes32",
          "name": "",
          "type": "bytes32"
        }
      ],
      "stateMutability": "view",
      "type": "function"
    },
    {
      "inputs": [],
      "name": "UPGRADER_ROLE",
      "outputs": [
        {
          "internalType": "bytes32",
          "name": "",
          "type": "bytes32"
        }
      ],
      "stateMutability": "view",
      "type": "function"
    },
    {
      "inputs": [
        {
          "internalType": "address",
          "name": "to",
          "type": "address"
        },
        {
          "internalType": "uint256",
          "name": "tokenId",
          "type": "uint256"
        }
      ],
      "name": "approve",
      "outputs": [],
      "stateMutability": "nonpayable",
      "type": "function"
    },
    {
      "inputs": [
        {
          "internalType": "address",
          "name": "owner",
          "type": "address"
        }
      ],
      "name": "balanceOf",
      "outputs": [
        {
          "internalType": "uint256",
          "name": "",
          "type": "uint256"
        }
      ],
      "stateMutability": "view",
      "type": "function"
    },
    {
      "inputs": [
        {
          "internalType": "uint256",
          "name": "tokenId",
          "type": "uint256"
        }
      ],
      "name": "getApproved",
      "outputs": [
        {
          "internalType": "address",
          "name": "",
          "type": "address"
        }
      ],
      "stateMutability": "view",
      "type": "function"
    },
    {
      "inputs": [
        {
          "internalType": "bytes32",
          "name": "role",
          "type": "bytes32"
        }
      ],
      "name": "getRoleAdmin",
      "outputs": [
        {
          "internalType": "bytes32",
          "name": "",
          "type": "bytes32"
        }
      ],
      "stateMutability": "view",
      "type": "function"
    },
    {
      "inputs": [
        {
          "internalType": "bytes32",
          "name": "role",
          "type": "bytes32"
        },
        {
          "internalType": "address",
          "name": "account",
          "type": "address"
        }
      ],
      "name": "grantRole",
      "outputs": [],
      "stateMutability": "nonpayable",
      "type": "function"
    },
    {
      "inputs": [
        {
          "internalType": "bytes32",
          "name": "role",
          "type": "bytes32"
        },
        {
          "internalType": "address",
          "name": "account",
          "type": "address"
        }
      ],
      "name": "hasRole",
      "outputs": [
        {
          "internalType": "bool",
          "name": "",
          "type": "bool"
        }
      ],
      "stateMutability": "view",
      "type": "function"
    },
    {
      "inputs": [
        {
          "internalType": "address",
          "name": "owner",
          "type": "address"
        },
        {
          "internalType": "address",
          "name": "operator",
          "type": "address"
        }
      ],
      "name": "isApprovedForAll",
      "outputs": [
        {
          "internalType": "bool",
          "name": "",
          "type": "bool"
        }
      ],
      "stateMutability": "view",
      "type": "function"
    },
    {
      "inputs": [],
      "name": "name",
      "outputs": [
        {
          "internalType": "string",
          "name": "",
          "type": "string"
        }
      ],
      "stateMutability": "view",
      "type": "function"
    },
    {
      "inputs": [
        {
          "internalType": "uint256",
          "name": "tokenId",
          "type": "uint256"
        }
      ],
      "name": "ownerOf",
      "outputs": [
        {
          "internalType": "address",
          "name": "",
          "type": "address"
        }
      ],
      "stateMutability": "view",
      "type": "function"
    },
    {
      "inputs": [],
      "name": "rarity",
      "outputs": [
        {
          "internalType": "string",
          "name": "",
          "type": "string"
        }
      ],
      "stateMutability": "view",
      "type": "function"
    },
    {
      "inputs": [
        {
          "internalType": "bytes32",
          "name": "role",
          "type": "bytes32"
        },
        {
          "internalType": "address",
          "name": "account",
          "type": "address"
        }
      ],
      "name": "renounceRole",
      "outputs": [],
      "stateMutability": "nonpayable",
      "type": "function"
    },
    {
      "inputs": [
        {
          "internalType": "bytes32",
          "name": "role",
          "type": "bytes32"
        },
        {
          "internalType": "address",
          "name": "account",
          "type": "address"
        }
      ],
      "name": "revokeRole",
      "outputs": [],
      "stateMutability": "nonpayable",
      "type": "function"
    },
    {
      "inputs": [
        {
          "internalType": "address",
          "name": "from",
          "type": "address"
        },
        {
          "internalType": "address",
          "name": "to",
          "type": "address"
        },
        {
          "internalType": "uint256",
          "name": "tokenId",
          "type": "uint256"
        }
      ],
      "name": "safeTransferFrom",
      "outputs": [],
      "stateMutability": "nonpayable",
      "type": "function"
    },
    {
      "inputs": [
        {
          "internalType": "address",
          "name": "from",
          "type": "address"
        },
        {
          "internalType": "address",
          "name": "to",
          "type": "address"
        },
        {
          "internalType": "uint256",
          "name": "tokenId",
          "type": "uint256"
        },
        {
          "internalType": "bytes",
          "name": "_data",
          "type": "bytes"
        }
      ],
      "name": "safeTransferFrom",
      "outputs": [],
      "stateMutability": "nonpayable",
      "type": "function"
    },
    {
      "inputs": [
        {
          "internalType": "address",
          "name": "operator",
          "type": "address"
        },
        {
          "internalType": "bool",
          "name": "approved",
          "type": "bool"
        }
      ],
      "name": "setApprovalForAll",
      "outputs": [],
      "stateMutability": "nonpayable",
      "type": "function"
    },
    {
      "inputs": [],
      "name": "symbol",
      "outputs": [
        {
          "internalType": "string",
          "name": "",
          "type": "string"
        }
      ],
      "stateMutability": "view",
      "type": "function"
    },
    {
      "inputs": [
        {
          "internalType": "uint256",
          "name": "index",
          "type": "uint256"
        }
      ],
      "name": "tokenByIndex",
      "outputs": [
        {
          "internalType": "uint256",
          "name": "",
          "type": "uint256"
        }
      ],
      "stateMutability": "view",
      "type": "function"
    },
    {
      "inputs": [
        {
          "internalType": "address",
          "name": "owner",
          "type": "address"
        },
        {
          "internalType": "uint256",
          "name": "index",
          "type": "uint256"
        }
      ],
      "name": "tokenOfOwnerByIndex",
      "outputs": [
        {
          "internalType": "uint256",
          "name": "",
          "type": "uint256"
        }
      ],
      "stateMutability": "view",
      "type": "function"
    },
    {
      "inputs": [],
      "name": "totalSupply",
      "outputs": [
        {
          "internalType": "uint256",
          "name": "",
          "type": "uint256"
        }
      ],
      "stateMutability": "view",
      "type": "function"
    },
    {
      "inputs": [
        {
          "internalType": "address",
          "name": "from",
          "type": "address"
        },
        {
          "internalType": "address",
          "name": "to",
          "type": "address"
        },
        {
          "internalType": "uint256",
          "name": "tokenId",
          "type": "uint256"
        }
      ],
      "name": "transferFrom",
      "outputs": [],
      "stateMutability": "nonpayable",
      "type": "function"
    },
    {
      "inputs": [
        {
          "internalType": "address",
          "name": "newImplementation",
          "type": "address"
        }
      ],
      "name": "upgradeTo",
      "outputs": [],
      "stateMutability": "nonpayable",
      "type": "function"
    },
    {
      "inputs": [
        {
          "internalType": "address",
          "name": "newImplementation",
          "type": "address"
        },
        {
          "internalType": "bytes",
          "name": "data",
          "type": "bytes"
        }
      ],
      "name": "upgradeToAndCall",
      "outputs": [],
      "stateMutability": "payable",
      "type": "function"
    },
    {
      "inputs": [
        {
          "internalType": "bytes4",
          "name": "interfaceId",
          "type": "bytes4"
        }
      ],
      "name": "supportsInterface",
      "outputs": [
        {
          "internalType": "bool",
          "name": "",
          "type": "bool"
        }
      ],
      "stateMutability": "view",
      "type": "function"
    },
    {
      "inputs": [
        {
          "internalType": "string",
          "name": "name",
          "type": "string"
        },
        {
          "internalType": "string",
          "name": "_symbol",
          "type": "string"
        },
        {
          "internalType": "string",
          "name": "_rarity",
          "type": "string"
        },
        {
          "internalType": "string",
          "name": "_cid",
          "type": "string"
        }
      ],
      "name": "initialize",
      "outputs": [],
      "stateMutability": "nonpayable",
      "type": "function"
    },
    {
      "inputs": [
        {
          "internalType": "address",
          "name": "to",
          "type": "address"
        },
        {
          "internalType": "uint256",
          "name": "tokenId",
          "type": "uint256"
        }
      ],
      "name": "safeMint",
      "outputs": [],
      "stateMutability": "nonpayable",
      "type": "function"
    },
    {
      "inputs": [],
      "name": "getMintMax",
      "outputs": [
        {
          "internalType": "uint256",
          "name": "",
          "type": "uint256"
        }
      ],
      "stateMutability": "view",
      "type": "function"
    },
    {
      "inputs": [],
      "name": "getCid",
      "outputs": [
        {
          "internalType": "string",
          "name": "",
          "type": "string"
        }
      ],
      "stateMutability": "view",
      "type": "function"
    },
    {
      "inputs": [
        {
          "internalType": "string",
          "name": "baseURI_",
          "type": "string"
        }
      ],
      "name": "setBaseURI",
      "outputs": [],
      "stateMutability": "nonpayable",
      "type": "function"
    },
    {
      "inputs": [
        {
          "internalType": "uint256",
          "name": "_tokenId",
          "type": "uint256"
        }
      ],
      "name": "tokenURI",
      "outputs": [
        {
          "internalType": "string",
          "name": "",
          "type": "string"
        }
      ],
      "stateMutability": "view",
      "type": "function"
    }
  ],
  "bytecode": "0x60a06040523060805234801561001457600080fd5b50608051612de361004560003960008181610b6401528181610ba401528181610c480152610c880152612de36000f3fe6080604052600436106101e35760003560e01c80636352211e11610102578063b88d4fde11610095578063d547741f11610064578063d547741f14610585578063e985e9c5146105a5578063f72c0d8b146105ee578063fef21f0f1461062257600080fd5b8063b88d4fde146104fc578063c87b56dd1461051c578063ca00c7021461053c578063d53913931461055157600080fd5b8063a1448194116100d1578063a144819414610487578063a217fddf146104a7578063a22cb465146104bc578063a523d35e146104dc57600080fd5b80636352211e1461041257806370a082311461043257806391d148541461045257806395d89b411461047257600080fd5b80632f2ff15d1161017a57806342842e0e1161014957806342842e0e1461039f5780634f1ef286146103bf5780634f6ccce7146103d257806355f804b3146103f257600080fd5b80632f2ff15d1461031f5780632f745c591461033f57806336568abe1461035f5780633659cfe61461037f57600080fd5b806318160ddd116101b657806318160ddd146102995780631e51e4a1146102b957806323b872dd146102ce578063248a9ca3146102ee57600080fd5b806301ffc9a7146101e857806306fdde031461021d578063081812fc1461023f578063095ea7b314610277575b600080fd5b3480156101f457600080fd5b50610208610203366004612576565b610637565b60405190151581526020015b60405180910390f35b34801561022957600080fd5b50610232610648565b60405161021491906125eb565b34801561024b57600080fd5b5061025f61025a3660046125fe565b6106da565b6040516001600160a01b039091168152602001610214565b34801561028357600080fd5b50610297610292366004612633565b610774565b005b3480156102a557600080fd5b50610161545b604051908152602001610214565b3480156102c557600080fd5b506102ab61088a565b3480156102da57600080fd5b506102976102e936600461265d565b6109ec565b3480156102fa57600080fd5b506102ab6103093660046125fe565b600090815261012d602052604090206001015490565b34801561032b57600080fd5b5061029761033a366004612699565b610a1d565b34801561034b57600080fd5b506102ab61035a366004612633565b610a44565b34801561036b57600080fd5b5061029761037a366004612699565b610adb565b34801561038b57600080fd5b5061029761039a3660046126c5565b610b59565b3480156103ab57600080fd5b506102976103ba36600461265d565b610c22565b6102976103cd366004612783565b610c3d565b3480156103de57600080fd5b506102ab6103ed3660046125fe565b610cf3565b3480156103fe57600080fd5b5061029761040d3660046127d1565b610d88565b34801561041e57600080fd5b5061025f61042d3660046125fe565b610da8565b34801561043e57600080fd5b506102ab61044d3660046126c5565b610e1f565b34801561045e57600080fd5b5061020861046d366004612699565b610ea6565b34801561047e57600080fd5b50610232610ed2565b34801561049357600080fd5b506102976104a2366004612633565b610ee1565b3480156104b357600080fd5b506102ab600081565b3480156104c857600080fd5b506102976104d7366004612806565b610fd6565b3480156104e857600080fd5b506102976104f7366004612842565b610fe1565b34801561050857600080fd5b506102976105173660046128ef565b6110f4565b34801561052857600080fd5b506102326105373660046125fe565b61112c565b34801561054857600080fd5b5061023261119c565b34801561055d57600080fd5b506102ab7f9f2df0fed2c77648de5860a4cc508cd0818c85b8b8a1ab4ceeef8d981c8956a681565b34801561059157600080fd5b506102976105a0366004612699565b6111ac565b3480156105b157600080fd5b506102086105c036600461294b565b6001600160a01b039182166000908152606a6020908152604080832093909416825291909152205460ff1690565b3480156105fa57600080fd5b506102ab7f189ab7a9244df0848122154315af71fe140f3db0fe014031783b0946b8c9d2e381565b34801561062e57600080fd5b506102326111d3565b600061064282611262565b92915050565b60606065805461065790612975565b80601f016020809104026020016040519081016040528092919081815260200182805461068390612975565b80156106d05780601f106106a5576101008083540402835291602001916106d0565b820191906000526020600020905b8154815290600101906020018083116106b357829003601f168201915b5050505050905090565b6000818152606760205260408120546001600160a01b03166107585760405162461bcd60e51b815260206004820152602c60248201527f4552433732313a20617070726f76656420717565727920666f72206e6f6e657860448201526b34b9ba32b73a103a37b5b2b760a11b60648201526084015b60405180910390fd5b506000908152606960205260409020546001600160a01b031690565b600061077f82610da8565b9050806001600160a01b0316836001600160a01b031614156107ed5760405162461bcd60e51b815260206004820152602160248201527f4552433732313a20617070726f76616c20746f2063757272656e74206f776e656044820152603960f91b606482015260840161074f565b336001600160a01b0382161480610809575061080981336105c0565b61087b5760405162461bcd60e51b815260206004820152603860248201527f4552433732313a20617070726f76652063616c6c6572206973206e6f74206f7760448201527f6e6572206e6f7220617070726f76656420666f7220616c6c0000000000000000606482015260840161074f565b6108858383611287565b505050565b60007f3955032f1b4fd3485213d1c8a0e4ced5c0b5d4e9ffa466e04ca90c624d38a2526101936040516020016108c09190612a4a565b6040516020818303038152906040528051906020012014156108e3575061271090565b7f2cf735e2c7740b1996c475c19261a0b7dc86863c4718b4dfa4b90956a5ece4ff6101936040516020016109179190612a4a565b60405160208183030381529060405280519060200120141561093a57506103e890565b7f04f4f20a2d65eb0f15d7fb252c9027859568c706ff77f8b4471a76adbed564c461019360405160200161096e9190612a4a565b6040516020818303038152906040528051906020012014156109905750606490565b7fa58eac1729e77db1df98d5c5ccd379041337f7b18a101a313c69bbc06a3039996101936040516020016109c49190612a4a565b6040516020818303038152906040528051906020012014156109e65750600a90565b50600190565b6109f633826112f5565b610a125760405162461bcd60e51b815260040161074f90612a56565b6108858383836113ec565b600082815261012d6020526040902060010154610a3a8133611597565b61088583836115fb565b6000610a4f83610e1f565b8210610ab15760405162461bcd60e51b815260206004820152602b60248201527f455243373231456e756d657261626c653a206f776e657220696e646578206f7560448201526a74206f6620626f756e647360a81b606482015260840161074f565b506001600160a01b0391909116600090815261015f60209081526040808320938352929052205490565b6001600160a01b0381163314610b4b5760405162461bcd60e51b815260206004820152602f60248201527f416363657373436f6e74726f6c3a2063616e206f6e6c792072656e6f756e636560448201526e103937b632b9903337b91039b2b63360891b606482015260840161074f565b610b558282611682565b5050565b306001600160a01b037f0000000000000000000000000000000000000000000000000000000000000000161415610ba25760405162461bcd60e51b815260040161074f90612aa7565b7f00000000000000000000000000000000000000000000000000000000000000006001600160a01b0316610bd46116ea565b6001600160a01b031614610bfa5760405162461bcd60e51b815260040161074f90612af3565b610c0381611718565b60408051600080825260208201909252610c1f91839190611743565b50565b610885838383604051806020016040528060008152506110f4565b306001600160a01b037f0000000000000000000000000000000000000000000000000000000000000000161415610c865760405162461bcd60e51b815260040161074f90612aa7565b7f00000000000000000000000000000000000000000000000000000000000000006001600160a01b0316610cb86116ea565b6001600160a01b031614610cde5760405162461bcd60e51b815260040161074f90612af3565b610ce782611718565b610b5582826001611743565b6000610cff6101615490565b8210610d625760405162461bcd60e51b815260206004820152602c60248201527f455243373231456e756d657261626c653a20676c6f62616c20696e646578206f60448201526b7574206f6620626f756e647360a01b606482015260840161074f565b6101618281548110610d7657610d76612b3f565b90600052602060002001549050919050565b6000610d948133611597565b8151610885906101919060208501906124c7565b6000818152606760205260408120546001600160a01b0316806106425760405162461bcd60e51b815260206004820152602960248201527f4552433732313a206f776e657220717565727920666f72206e6f6e657869737460448201526832b73a103a37b5b2b760b91b606482015260840161074f565b60006001600160a01b038216610e8a5760405162461bcd60e51b815260206004820152602a60248201527f4552433732313a2062616c616e636520717565727920666f7220746865207a65604482015269726f206164647265737360b01b606482015260840161074f565b506001600160a01b031660009081526068602052604090205490565b600091825261012d602090815260408084206001600160a01b0393909316845291905290205460ff1690565b60606066805461065790612975565b7f9f2df0fed2c77648de5860a4cc508cd0818c85b8b8a1ab4ceeef8d981c8956a6610f0c8133611597565b610f1461088a565b6101615410610f735760405162461bcd60e51b815260206004820152602560248201527f457863656564696e6720746865206d6178696d756d20737570706c79207175616044820152646e7469747960d81b606482015260840161074f565b6000828152606760205260409020546001600160a01b031615610fcc5760405162461bcd60e51b81526020600482015260116024820152704d696e7420636f6e666c6963746564203160781b604482015260640161074f565b6108858383611887565b610b553383836118a1565b600054610100900460ff1680610ffa575060005460ff16155b6110165760405162461bcd60e51b815260040161074f90612b55565b600054610100900460ff16158015611038576000805461ffff19166101011790555b6110428585611970565b61104a6119f7565b6110526119f7565b61105d600033611a7a565b6110877f9f2df0fed2c77648de5860a4cc508cd0818c85b8b8a1ab4ceeef8d981c8956a633611a7a565b6110b17f189ab7a9244df0848122154315af71fe140f3db0fe014031783b0946b8c9d2e333611a7a565b81516110c5906101929060208501906124c7565b5082516110da906101939060208601906124c7565b5080156110ed576000805461ff00191690555b5050505050565b6110fe33836112f5565b61111a5760405162461bcd60e51b815260040161074f90612a56565b61112684848484611a84565b50505050565b60606000821161116f5760405162461bcd60e51b815260206004820152600e60248201526d15dc9bdb99c81d1bdad95b881a5960921b604482015260640161074f565b610191610192604051602001611186929190612ba3565b6040516020818303038152906040529050919050565b6060610192805461065790612975565b600082815261012d60205260409020600101546111c98133611597565b6108858383611682565b61019380546111e190612975565b80601f016020809104026020016040519081016040528092919081815260200182805461120d90612975565b801561125a5780601f1061122f5761010080835404028352916020019161125a565b820191906000526020600020905b81548152906001019060200180831161123d57829003601f168201915b505050505081565b60006001600160e01b0319821663780e9d6360e01b1480610642575061064282611ab7565b600081815260696020526040902080546001600160a01b0319166001600160a01b03841690811790915581906112bc82610da8565b6001600160a01b03167f8c5be1e5ebec7d5bd14f71427d1e84f3dd0314c0f7b2291e5b200ac8c7c3b92560405160405180910390a45050565b6000818152606760205260408120546001600160a01b031661136e5760405162461bcd60e51b815260206004820152602c60248201527f4552433732313a206f70657261746f7220717565727920666f72206e6f6e657860448201526b34b9ba32b73a103a37b5b2b760a11b606482015260840161074f565b600061137983610da8565b9050806001600160a01b0316846001600160a01b031614806113b45750836001600160a01b03166113a9846106da565b6001600160a01b0316145b806113e457506001600160a01b038082166000908152606a602090815260408083209388168352929052205460ff165b949350505050565b826001600160a01b03166113ff82610da8565b6001600160a01b0316146114675760405162461bcd60e51b815260206004820152602960248201527f4552433732313a207472616e73666572206f6620746f6b656e2074686174206960448201526839903737ba1037bbb760b91b606482015260840161074f565b6001600160a01b0382166114c95760405162461bcd60e51b8152602060048201526024808201527f4552433732313a207472616e7366657220746f20746865207a65726f206164646044820152637265737360e01b606482015260840161074f565b6114d4838383611adc565b6114df600082611287565b6001600160a01b0383166000908152606860205260408120805460019290611508908490612bce565b90915550506001600160a01b0382166000908152606860205260408120805460019290611536908490612be5565b909155505060008181526067602052604080822080546001600160a01b0319166001600160a01b0386811691821790925591518493918716917fddf252ad1be2c89b69c2b068fc378daa952ba7f163c4a11628f55a4df523b3ef91a4505050565b6115a18282610ea6565b610b55576115b9816001600160a01b03166014611ae7565b6115c4836020611ae7565b6040516020016115d5929190612bfd565b60408051601f198184030181529082905262461bcd60e51b825261074f916004016125eb565b6116058282610ea6565b610b5557600082815261012d602090815260408083206001600160a01b03851684529091529020805460ff1916600117905561163e3390565b6001600160a01b0316816001600160a01b0316837f2f8788117e7eff1d82e926ec794901d17c78024a50270940304540a733656f0d60405160405180910390a45050565b61168c8282610ea6565b15610b5557600082815261012d602090815260408083206001600160a01b0385168085529252808320805460ff1916905551339285917ff6391f5c32d9c69d2a47ea670b442974b53935d1edc7fd64eb21e047a839171b9190a45050565b7f360894a13ba1a3210667c828492db98dca3e2076cc3735a920a3ca505d382bbc546001600160a01b031690565b7f189ab7a9244df0848122154315af71fe140f3db0fe014031783b0946b8c9d2e3610b558133611597565b600061174d6116ea565b905061175884611c8a565b6000835111806117655750815b15611776576117748484611d2f565b505b7f4910fdfa16fed3260ed0e7147f7cc6da11a60208b5b9406d12a635614ffd9143805460ff166110ed57805460ff191660011781556040516001600160a01b03831660248201526117f590869060440160408051601f198184030181529190526020810180516001600160e01b0316631b2ce7f360e11b179052611d2f565b50805460ff191681556118066116ea565b6001600160a01b0316826001600160a01b03161461187e5760405162461bcd60e51b815260206004820152602f60248201527f45524331393637557067726164653a207570677261646520627265616b73206660448201526e75727468657220757067726164657360881b606482015260840161074f565b6110ed85611e1a565b610b55828260405180602001604052806000815250611e5a565b816001600160a01b0316836001600160a01b031614156119035760405162461bcd60e51b815260206004820152601960248201527f4552433732313a20617070726f766520746f2063616c6c657200000000000000604482015260640161074f565b6001600160a01b038381166000818152606a6020908152604080832094871680845294825291829020805460ff191686151590811790915591519182527f17307eab39ab6107e8899845ad3d59bd9653f200f220920489ca2b5937696c31910160405180910390a3505050565b600054610100900460ff1680611989575060005460ff16155b6119a55760405162461bcd60e51b815260040161074f90612b55565b600054610100900460ff161580156119c7576000805461ffff19166101011790555b6119cf611e8d565b6119d7611e8d565b6119e18383611ef7565b8015610885576000805461ff0019169055505050565b600054610100900460ff1680611a10575060005460ff16155b611a2c5760405162461bcd60e51b815260040161074f90612b55565b600054610100900460ff16158015611a4e576000805461ffff19166101011790555b611a56611e8d565b611a5e611e8d565b611a66611e8d565b8015610c1f576000805461ff001916905550565b610b5582826115fb565b611a8f8484846113ec565b611a9b84848484611f8c565b6111265760405162461bcd60e51b815260040161074f90612c72565b60006001600160e01b03198216637965db0b60e01b1480610642575061064282612099565b6108858383836120e9565b60606000611af6836002612cc4565b611b01906002612be5565b67ffffffffffffffff811115611b1957611b196126e0565b6040519080825280601f01601f191660200182016040528015611b43576020820181803683370190505b509050600360fc1b81600081518110611b5e57611b5e612b3f565b60200101906001600160f81b031916908160001a905350600f60fb1b81600181518110611b8d57611b8d612b3f565b60200101906001600160f81b031916908160001a9053506000611bb1846002612cc4565b611bbc906001612be5565b90505b6001811115611c34576f181899199a1a9b1b9c1cb0b131b232b360811b85600f1660108110611bf057611bf0612b3f565b1a60f81b828281518110611c0657611c06612b3f565b60200101906001600160f81b031916908160001a90535060049490941c93611c2d81612ce3565b9050611bbf565b508315611c835760405162461bcd60e51b815260206004820181905260248201527f537472696e67733a20686578206c656e67746820696e73756666696369656e74604482015260640161074f565b9392505050565b803b611cee5760405162461bcd60e51b815260206004820152602d60248201527f455243313936373a206e657720696d706c656d656e746174696f6e206973206e60448201526c1bdd08184818dbdb9d1c9858dd609a1b606482015260840161074f565b7f360894a13ba1a3210667c828492db98dca3e2076cc3735a920a3ca505d382bbc80546001600160a01b0319166001600160a01b0392909216919091179055565b6060823b611d8e5760405162461bcd60e51b815260206004820152602660248201527f416464726573733a2064656c65676174652063616c6c20746f206e6f6e2d636f6044820152651b9d1c9858dd60d21b606482015260840161074f565b600080846001600160a01b031684604051611da99190612cfa565b600060405180830381855af49150503d8060008114611de4576040519150601f19603f3d011682016040523d82523d6000602084013e611de9565b606091505b5091509150611e118282604051806060016040528060278152602001612d87602791396121a3565b95945050505050565b611e2381611c8a565b6040516001600160a01b038216907fbc7cd75a20ee27fd9adebab32041f755214dbc6bffa90cc0225b39da2e5c2d3b90600090a250565b611e6483836121dc565b611e716000848484611f8c565b6108855760405162461bcd60e51b815260040161074f90612c72565b600054610100900460ff1680611ea6575060005460ff16155b611ec25760405162461bcd60e51b815260040161074f90612b55565b600054610100900460ff16158015611a66576000805461ffff19166101011790558015610c1f576000805461ff001916905550565b600054610100900460ff1680611f10575060005460ff16155b611f2c5760405162461bcd60e51b815260040161074f90612b55565b600054610100900460ff16158015611f4e576000805461ffff19166101011790555b8251611f619060659060208601906124c7565b508151611f759060669060208501906124c7565b508015610885576000805461ff0019169055505050565b60006001600160a01b0384163b1561208e57604051630a85bd0160e11b81526001600160a01b0385169063150b7a0290611fd0903390899088908890600401612d16565b602060405180830381600087803b158015611fea57600080fd5b505af192505050801561201a575060408051601f3d908101601f1916820190925261201791810190612d53565b60015b612074573d808015612048576040519150601f19603f3d011682016040523d82523d6000602084013e61204d565b606091505b50805161206c5760405162461bcd60e51b815260040161074f90612c72565b805181602001fd5b6001600160e01b031916630a85bd0160e11b1490506113e4565b506001949350505050565b60006001600160e01b031982166380ac58cd60e01b14806120ca57506001600160e01b03198216635b5e139f60e01b145b8061064257506301ffc9a760e01b6001600160e01b0319831614610642565b6001600160a01b03831661214657612141816101618054600083815261016260205260408120829055600182018355919091527fafbb1c043347995df017ce3291b765e028ad5f784d2aa00c3f5e073760a4de8b0155565b612169565b816001600160a01b0316836001600160a01b03161461216957612169838261232a565b6001600160a01b03821661218057610885816123cc565b826001600160a01b0316826001600160a01b031614610885576108858282612481565b606083156121b2575081611c83565b8251156121c25782518084602001fd5b8160405162461bcd60e51b815260040161074f91906125eb565b6001600160a01b0382166122325760405162461bcd60e51b815260206004820181905260248201527f4552433732313a206d696e7420746f20746865207a65726f2061646472657373604482015260640161074f565b6000818152606760205260409020546001600160a01b0316156122975760405162461bcd60e51b815260206004820152601c60248201527f4552433732313a20746f6b656e20616c7265616479206d696e74656400000000604482015260640161074f565b6122a360008383611adc565b6001600160a01b03821660009081526068602052604081208054600192906122cc908490612be5565b909155505060008181526067602052604080822080546001600160a01b0319166001600160a01b03861690811790915590518392907fddf252ad1be2c89b69c2b068fc378daa952ba7f163c4a11628f55a4df523b3ef908290a45050565b6000600161233784610e1f565b6123419190612bce565b60008381526101606020526040902054909150808214612397576001600160a01b038416600090815261015f60209081526040808320858452825280832054848452818420819055835261016090915290208190555b506000918252610160602090815260408084208490556001600160a01b03909416835261015f81528383209183525290812055565b610161546000906123df90600190612bce565b60008381526101626020526040812054610161805493945090928490811061240957612409612b3f565b9060005260206000200154905080610161838154811061242b5761242b612b3f565b6000918252602080832090910192909255828152610162909152604080822084905585825281205561016180548061246557612465612d70565b6001900381819060005260206000200160009055905550505050565b600061248c83610e1f565b6001600160a01b03909316600090815261015f6020908152604080832086845282528083208590559382526101609052919091209190915550565b8280546124d390612975565b90600052602060002090601f0160209004810192826124f5576000855561253b565b82601f1061250e57805160ff191683800117855561253b565b8280016001018555821561253b579182015b8281111561253b578251825591602001919060010190612520565b5061254792915061254b565b5090565b5b80821115612547576000815560010161254c565b6001600160e01b031981168114610c1f57600080fd5b60006020828403121561258857600080fd5b8135611c8381612560565b60005b838110156125ae578181015183820152602001612596565b838111156111265750506000910152565b600081518084526125d7816020860160208601612593565b601f01601f19169290920160200192915050565b602081526000611c8360208301846125bf565b60006020828403121561261057600080fd5b5035919050565b80356001600160a01b038116811461262e57600080fd5b919050565b6000806040838503121561264657600080fd5b61264f83612617565b946020939093013593505050565b60008060006060848603121561267257600080fd5b61267b84612617565b925061268960208501612617565b9150604084013590509250925092565b600080604083850312156126ac57600080fd5b823591506126bc60208401612617565b90509250929050565b6000602082840312156126d757600080fd5b611c8382612617565b634e487b7160e01b600052604160045260246000fd5b600082601f83011261270757600080fd5b813567ffffffffffffffff80821115612722576127226126e0565b604051601f8301601f19908116603f0116810190828211818310171561274a5761274a6126e0565b8160405283815286602085880101111561276357600080fd5b836020870160208301376000602085830101528094505050505092915050565b6000806040838503121561279657600080fd5b61279f83612617565b9150602083013567ffffffffffffffff8111156127bb57600080fd5b6127c7858286016126f6565b9150509250929050565b6000602082840312156127e357600080fd5b813567ffffffffffffffff8111156127fa57600080fd5b6113e4848285016126f6565b6000806040838503121561281957600080fd5b61282283612617565b91506020830135801515811461283757600080fd5b809150509250929050565b6000806000806080858703121561285857600080fd5b843567ffffffffffffffff8082111561287057600080fd5b61287c888389016126f6565b9550602087013591508082111561289257600080fd5b61289e888389016126f6565b945060408701359150808211156128b457600080fd5b6128c0888389016126f6565b935060608701359150808211156128d657600080fd5b506128e3878288016126f6565b91505092959194509250565b6000806000806080858703121561290557600080fd5b61290e85612617565b935061291c60208601612617565b925060408501359150606085013567ffffffffffffffff81111561293f57600080fd5b6128e3878288016126f6565b6000806040838503121561295e57600080fd5b61296783612617565b91506126bc60208401612617565b600181811c9082168061298957607f821691505b602082108114156129aa57634e487b7160e01b600052602260045260246000fd5b50919050565b8054600090600181811c90808316806129ca57607f831692505b60208084108214156129ec57634e487b7160e01b600052602260045260246000fd5b818015612a005760018114612a1157612a3e565b60ff19861689528489019650612a3e565b60008881526020902060005b86811015612a365781548b820152908501908301612a1d565b505084890196505b50505050505092915050565b6000611c8382846129b0565b60208082526031908201527f4552433732313a207472616e736665722063616c6c6572206973206e6f74206f6040820152701ddb995c881b9bdc88185c1c1c9bdd9959607a1b606082015260800190565b6020808252602c908201527f46756e6374696f6e206d7573742062652063616c6c6564207468726f7567682060408201526b19195b1959d85d1958d85b1b60a21b606082015260800190565b6020808252602c908201527f46756e6374696f6e206d7573742062652063616c6c6564207468726f7567682060408201526b6163746976652070726f787960a01b606082015260800190565b634e487b7160e01b600052603260045260246000fd5b6020808252602e908201527f496e697469616c697a61626c653a20636f6e747261637420697320616c72656160408201526d191e481a5b9a5d1a585b1a5e995960921b606082015260800190565b60006113e4612bb283866129b0565b846129b0565b634e487b7160e01b600052601160045260246000fd5b600082821015612be057612be0612bb8565b500390565b60008219821115612bf857612bf8612bb8565b500190565b7f416363657373436f6e74726f6c3a206163636f756e7420000000000000000000815260008351612c35816017850160208801612593565b7001034b99036b4b9b9b4b733903937b6329607d1b6017918401918201528351612c66816028840160208801612593565b01602801949350505050565b60208082526032908201527f4552433732313a207472616e7366657220746f206e6f6e20455243373231526560408201527131b2b4bb32b91034b6b83632b6b2b73a32b960711b606082015260800190565b6000816000190483118215151615612cde57612cde612bb8565b500290565b600081612cf257612cf2612bb8565b506000190190565b60008251612d0c818460208701612593565b9190910192915050565b6001600160a01b0385811682528416602082015260408101839052608060608201819052600090612d49908301846125bf565b9695505050505050565b600060208284031215612d6557600080fd5b8151611c8381612560565b634e487b7160e01b600052603160045260246000fdfe416464726573733a206c6f772d6c6576656c2064656c65676174652063616c6c206661696c6564a26469706673582212209d691ac6f5b17c79f2ef9d872f79b5d329faaab3465f76c7c0296a7db61dc75864736f6c63430008090033",
  "immutableReferences": {
    "1023": [
      {
        "length": 32,
        "start": 2916
      },
      {
        "length": 32,
        "start": 2980
      },
      {
        "length": 32,
        "start": 3144
      },
      {
        "length": 32,
        "start": 3208
      }
    ]
  },
  "source": "// SPDX-License-Identifier: MIT\npragma solidity 0.8.9;\n\n// meland nft\n\nimport \"@openzeppelin/contracts-upgradeable/token/ERC721/ERC721Upgradeable.sol\";\nimport \"@openzeppelin/contracts-upgradeable/token/ERC721/extensions/ERC721EnumerableUpgradeable.sol\";\nimport \"@openzeppelin/contracts-upgradeable/token/ERC721/extensions/ERC721URIStorageUpgradeable.sol\";\nimport \"@openzeppelin/contracts-upgradeable/access/AccessControlUpgradeable.sol\";\nimport \"@openzeppelin/contracts-upgradeable/proxy/utils/Initializable.sol\";\nimport \"@openzeppelin/contracts-upgradeable/proxy/utils/UUPSUpgradeable.sol\";\nimport \"./IERC721MelandNFTWithRarity.sol\";\n\n/// @title A title that should describe the contract/interface\n/// @author The name of the author\n/// @notice Explain to an end user what this does\n/// @dev Explain to a developer any extra details\ncontract NFTWithRarity is\n    Initializable,\n    ERC721Upgradeable,\n    ERC721URIStorageUpgradeable,\n    UUPSUpgradeable,\n    AccessControlUpgradeable,\n    ERC721EnumerableUpgradeable\n{\n    // land mint role\n    bytes32 public constant MINTER_ROLE = keccak256(\"MINTER_ROLE\");\n    bytes32 public constant UPGRADER_ROLE = keccak256(\"UPGRADER_ROLE\");\n\n    // _baseURI\n    string private baseURI;\n\n    // game cid\n    string private cid;\n    string public rarity;\n\n    function _beforeTokenTransfer(\n        address from,\n        address to,\n        uint256 tokenId\n    ) internal override(ERC721Upgradeable, ERC721EnumerableUpgradeable) {\n        super._beforeTokenTransfer(from, to, tokenId);\n    }\n\n    function supportsInterface(bytes4 interfaceId)\n        public\n        view\n        override(\n            ERC721Upgradeable,\n            ERC721EnumerableUpgradeable,\n            AccessControlUpgradeable\n        )\n        returns (bool)\n    {\n        return super.supportsInterface(interfaceId);\n    }\n\n    /**\n     * @dev Base URI for computing {tokenURI}. If set, the resulting URI for each\n     * token will be the concatenation of the `baseURI` and the `tokenId`. Empty\n     * by default, can be overriden in child contracts.\n     */\n    function _baseURI() internal view override returns (string memory) {\n        return baseURI;\n    }\n\n    function initialize(\n        string memory name, \n        string memory _symbol,\n        string memory _rarity,\n        string memory _cid\n    )\n        public\n        initializer\n    {\n        __ERC721_init(name, _symbol);\n        __ERC721URIStorage_init();\n        __AccessControl_init();\n        _setupRole(DEFAULT_ADMIN_ROLE, msg.sender);\n        _setupRole(MINTER_ROLE, msg.sender);\n        _setupRole(UPGRADER_ROLE, msg.sender);\n        cid = _cid;\n        rarity = _rarity;\n    }\n\n    // safeMint\n    function safeMint(address to, uint256 tokenId) public onlyRole(MINTER_ROLE) {\n        require(\n            totalSupply() < getMintMax(),\n            \"Exceeding the maximum supply quantity\"\n        );\n\n        require(!_exists(tokenId), \"Mint conflicted 1\");\n        _safeMint(to, tokenId);\n    }\n\n    function getMintMax() public view virtual returns (uint256) {\n        if (keccak256(abi.encodePacked(rarity)) == keccak256(\"common\")) {\n            return 10000;\n        }\n        if (keccak256(abi.encodePacked(rarity)) == keccak256(\"rare\")) {\n            return 1000;\n        }\n        if (keccak256(abi.encodePacked(rarity)) == keccak256(\"epic\")) {\n            return 100;\n        }\n        if (keccak256(abi.encodePacked(rarity)) == keccak256(\"mythic\")) {\n            return 10;\n        }\n        return 1;\n    }\n\n    function getCid() public view returns(string memory) {\n        return cid;\n    }\n\n    function _burn(uint256 tokenId)\n        internal\n        override(ERC721Upgradeable, ERC721URIStorageUpgradeable)\n    {\n        super._burn(tokenId);\n    }\n\n    // \n    function setBaseURI(string memory baseURI_)\n        public\n        onlyRole(DEFAULT_ADMIN_ROLE)\n    {\n        baseURI = baseURI_;\n    }\n\n    function tokenURI(uint256 _tokenId)\n        public\n        view\n        override(ERC721Upgradeable, ERC721URIStorageUpgradeable)\n        returns (string memory)\n    {\n        require(_tokenId > 0, \"Wrong token id\");\n        return string(abi.encodePacked(baseURI, cid));\n    }\n\n    function _authorizeUpgrade(address newImplementation)\n        internal\n        override\n        onlyRole(UPGRADER_ROLE)\n    {}\n}\n",
  "sourcePath": "/Users/alberthuang/code/icw/meland/contracts/NFTWithRarity.sol",
  "compiler": {
    "name": "solc",
    "version": "0.8.9+commit.e5eed63a.Emscripten.clang"
  },
  "schemaVersion": "3.4.3",
  "updatedAt": "2021-12-07T05:18:47.694Z",
  "devdoc": {
    "author": "The name of the author",
    "details": "Explain to a developer any extra details",
    "kind": "dev",
    "methods": {
      "approve(address,uint256)": {
        "details": "See {IERC721-approve}."
      },
      "balanceOf(address)": {
        "details": "See {IERC721-balanceOf}."
      },
      "getApproved(uint256)": {
        "details": "See {IERC721-getApproved}."
      },
      "getRoleAdmin(bytes32)": {
        "details": "Returns the admin role that controls `role`. See {grantRole} and {revokeRole}. To change a role's admin, use {_setRoleAdmin}."
      },
      "grantRole(bytes32,address)": {
        "details": "Grants `role` to `account`. If `account` had not been already granted `role`, emits a {RoleGranted} event. Requirements: - the caller must have ``role``'s admin role."
      },
      "hasRole(bytes32,address)": {
        "details": "Returns `true` if `account` has been granted `role`."
      },
      "isApprovedForAll(address,address)": {
        "details": "See {IERC721-isApprovedForAll}."
      },
      "name()": {
        "details": "See {IERC721Metadata-name}."
      },
      "ownerOf(uint256)": {
        "details": "See {IERC721-ownerOf}."
      },
      "renounceRole(bytes32,address)": {
        "details": "Revokes `role` from the calling account. Roles are often managed via {grantRole} and {revokeRole}: this function's purpose is to provide a mechanism for accounts to lose their privileges if they are compromised (such as when a trusted device is misplaced). If the calling account had been revoked `role`, emits a {RoleRevoked} event. Requirements: - the caller must be `account`."
      },
      "revokeRole(bytes32,address)": {
        "details": "Revokes `role` from `account`. If `account` had been granted `role`, emits a {RoleRevoked} event. Requirements: - the caller must have ``role``'s admin role."
      },
      "safeTransferFrom(address,address,uint256)": {
        "details": "See {IERC721-safeTransferFrom}."
      },
      "safeTransferFrom(address,address,uint256,bytes)": {
        "details": "See {IERC721-safeTransferFrom}."
      },
      "setApprovalForAll(address,bool)": {
        "details": "See {IERC721-setApprovalForAll}."
      },
      "symbol()": {
        "details": "See {IERC721Metadata-symbol}."
      },
      "tokenByIndex(uint256)": {
        "details": "See {IERC721Enumerable-tokenByIndex}."
      },
      "tokenOfOwnerByIndex(address,uint256)": {
        "details": "See {IERC721Enumerable-tokenOfOwnerByIndex}."
      },
      "totalSupply()": {
        "details": "See {IERC721Enumerable-totalSupply}."
      },
      "transferFrom(address,address,uint256)": {
        "details": "See {IERC721-transferFrom}."
      },
      "upgradeTo(address)": {
        "details": "Upgrade the implementation of the proxy to `newImplementation`. Calls {_authorizeUpgrade}. Emits an {Upgraded} event."
      },
      "upgradeToAndCall(address,bytes)": {
        "details": "Upgrade the implementation of the proxy to `newImplementation`, and subsequently execute the function call encoded in `data`. Calls {_authorizeUpgrade}. Emits an {Upgraded} event."
      }
    },
    "title": "A title that should describe the contract/interface",
    "version": 1
  },
  "userdoc": {
    "kind": "user",
    "methods": {},
    "notice": "Explain to an end user what this does",
    "version": 1
  }
}