{
  "contractName": "TicketLand",
  "abi": [
    {
      "anonymous": false,
      "inputs": [
        {
          "indexed": false,
          "internalType": "address",
          "name": "previousAdmin",
          "type": "address"
        },
        {
          "indexed": false,
          "internalType": "address",
          "name": "newAdmin",
          "type": "address"
        }
      ],
      "name": "AdminChanged",
      "type": "event"
    },
    {
      "anonymous": false,
      "inputs": [
        {
          "indexed": true,
          "internalType": "address",
          "name": "owner",
          "type": "address"
        },
        {
          "indexed": true,
          "internalType": "address",
          "name": "approved",
          "type": "address"
        },
        {
          "indexed": true,
          "internalType": "uint256",
          "name": "tokenId",
          "type": "uint256"
        }
      ],
      "name": "Approval",
      "type": "event"
    },
    {
      "anonymous": false,
      "inputs": [
        {
          "indexed": true,
          "internalType": "address",
          "name": "owner",
          "type": "address"
        },
        {
          "indexed": true,
          "internalType": "address",
          "name": "operator",
          "type": "address"
        },
        {
          "indexed": false,
          "internalType": "bool",
          "name": "approved",
          "type": "bool"
        }
      ],
      "name": "ApprovalForAll",
      "type": "event"
    },
    {
      "anonymous": false,
      "inputs": [
        {
          "indexed": true,
          "internalType": "address",
          "name": "beacon",
          "type": "address"
        }
      ],
      "name": "BeaconUpgraded",
      "type": "event"
    },
    {
      "anonymous": false,
      "inputs": [
        {
          "indexed": true,
          "internalType": "bytes32",
          "name": "role",
          "type": "bytes32"
        },
        {
          "indexed": true,
          "internalType": "bytes32",
          "name": "previousAdminRole",
          "type": "bytes32"
        },
        {
          "indexed": true,
          "internalType": "bytes32",
          "name": "newAdminRole",
          "type": "bytes32"
        }
      ],
      "name": "RoleAdminChanged",
      "type": "event"
    },
    {
      "anonymous": false,
      "inputs": [
        {
          "indexed": true,
          "internalType": "bytes32",
          "name": "role",
          "type": "bytes32"
        },
        {
          "indexed": true,
          "internalType": "address",
          "name": "account",
          "type": "address"
        },
        {
          "indexed": true,
          "internalType": "address",
          "name": "sender",
          "type": "address"
        }
      ],
      "name": "RoleGranted",
      "type": "event"
    },
    {
      "anonymous": false,
      "inputs": [
        {
          "indexed": true,
          "internalType": "bytes32",
          "name": "role",
          "type": "bytes32"
        },
        {
          "indexed": true,
          "internalType": "address",
          "name": "account",
          "type": "address"
        },
        {
          "indexed": true,
          "internalType": "address",
          "name": "sender",
          "type": "address"
        }
      ],
      "name": "RoleRevoked",
      "type": "event"
    },
    {
      "anonymous": false,
      "inputs": [
        {
          "indexed": true,
          "internalType": "address",
          "name": "from",
          "type": "address"
        },
        {
          "indexed": true,
          "internalType": "address",
          "name": "to",
          "type": "address"
        },
        {
          "indexed": true,
          "internalType": "uint256",
          "name": "tokenId",
          "type": "uint256"
        }
      ],
      "name": "Transfer",
      "type": "event"
    },
    {
      "anonymous": false,
      "inputs": [
        {
          "indexed": true,
          "internalType": "address",
          "name": "implementation",
          "type": "address"
        }
      ],
      "name": "Upgraded",
      "type": "event"
    },
    {
      "inputs": [],
      "name": "DEFAULT_ADMIN_ROLE",
      "outputs": [
        {
          "internalType": "bytes32",
          "name": "",
          "type": "bytes32"
        }
      ],
      "stateMutability": "view",
      "type": "function"
    },
    {
      "inputs": [],
      "name": "LAND_PADDING",
      "outputs": [
        {
          "internalType": "uint16",
          "name": "",
          "type": "uint16"
        }
      ],
      "stateMutability": "view",
      "type": "function"
    },
    {
      "inputs": [],
      "name": "MINTER_ROLE",
      "outputs": [
        {
          "internalType": "bytes32",
          "name": "",
          "type": "bytes32"
        }
      ],
      "stateMutability": "view",
      "type": "function"
    },
    {
      "inputs": [],
      "name": "UPGRADER_ROLE",
      "outputs": [
        {
          "internalType": "bytes32",
          "name": "",
          "type": "bytes32"
        }
      ],
      "stateMutability": "view",
      "type": "function"
    },
    {
      "inputs": [
        {
          "internalType": "address",
          "name": "to",
          "type": "address"
        },
        {
          "internalType": "uint256",
          "name": "tokenId",
          "type": "uint256"
        }
      ],
      "name": "approve",
      "outputs": [],
      "stateMutability": "nonpayable",
      "type": "function"
    },
    {
      "inputs": [
        {
          "internalType": "address",
          "name": "owner",
          "type": "address"
        }
      ],
      "name": "balanceOf",
      "outputs": [
        {
          "internalType": "uint256",
          "name": "",
          "type": "uint256"
        }
      ],
      "stateMutability": "view",
      "type": "function"
    },
    {
      "inputs": [
        {
          "internalType": "uint256",
          "name": "tokenId",
          "type": "uint256"
        }
      ],
      "name": "checkExists",
      "outputs": [
        {
          "internalType": "bool",
          "name": "",
          "type": "bool"
        }
      ],
      "stateMutability": "view",
      "type": "function"
    },
    {
      "inputs": [
        {
          "internalType": "uint256",
          "name": "tokenId",
          "type": "uint256"
        }
      ],
      "name": "getApproved",
      "outputs": [
        {
          "internalType": "address",
          "name": "",
          "type": "address"
        }
      ],
      "stateMutability": "view",
      "type": "function"
    },
    {
      "inputs": [
        {
          "internalType": "bytes32",
          "name": "role",
          "type": "bytes32"
        }
      ],
      "name": "getRoleAdmin",
      "outputs": [
        {
          "internalType": "bytes32",
          "name": "",
          "type": "bytes32"
        }
      ],
      "stateMutability": "view",
      "type": "function"
    },
    {
      "inputs": [
        {
          "internalType": "bytes32",
          "name": "role",
          "type": "bytes32"
        },
        {
          "internalType": "address",
          "name": "account",
          "type": "address"
        }
      ],
      "name": "grantRole",
      "outputs": [],
      "stateMutability": "nonpayable",
      "type": "function"
    },
    {
      "inputs": [
        {
          "internalType": "bytes32",
          "name": "role",
          "type": "bytes32"
        },
        {
          "internalType": "address",
          "name": "account",
          "type": "address"
        }
      ],
      "name": "hasRole",
      "outputs": [
        {
          "internalType": "bool",
          "name": "",
          "type": "bool"
        }
      ],
      "stateMutability": "view",
      "type": "function"
    },
    {
      "inputs": [
        {
          "internalType": "address",
          "name": "owner",
          "type": "address"
        },
        {
          "internalType": "address",
          "name": "operator",
          "type": "address"
        }
      ],
      "name": "isApprovedForAll",
      "outputs": [
        {
          "internalType": "bool",
          "name": "",
          "type": "bool"
        }
      ],
      "stateMutability": "view",
      "type": "function"
    },
    {
      "inputs": [],
      "name": "name",
      "outputs": [
        {
          "internalType": "string",
          "name": "",
          "type": "string"
        }
      ],
      "stateMutability": "view",
      "type": "function"
    },
    {
      "inputs": [
        {
          "internalType": "uint256",
          "name": "tokenId",
          "type": "uint256"
        }
      ],
      "name": "ownerOf",
      "outputs": [
        {
          "internalType": "address",
          "name": "",
          "type": "address"
        }
      ],
      "stateMutability": "view",
      "type": "function"
    },
    {
      "inputs": [
        {
          "internalType": "uint256",
          "name": "tokenId",
          "type": "uint256"
        }
      ],
      "name": "rcCoordinates",
      "outputs": [
        {
          "internalType": "uint256",
          "name": "r",
          "type": "uint256"
        },
        {
          "internalType": "uint256",
          "name": "c",
          "type": "uint256"
        }
      ],
      "stateMutability": "pure",
      "type": "function"
    },
    {
      "inputs": [
        {
          "internalType": "bytes32",
          "name": "role",
          "type": "bytes32"
        },
        {
          "internalType": "address",
          "name": "account",
          "type": "address"
        }
      ],
      "name": "renounceRole",
      "outputs": [],
      "stateMutability": "nonpayable",
      "type": "function"
    },
    {
      "inputs": [
        {
          "internalType": "bytes32",
          "name": "role",
          "type": "bytes32"
        },
        {
          "internalType": "address",
          "name": "account",
          "type": "address"
        }
      ],
      "name": "revokeRole",
      "outputs": [],
      "stateMutability": "nonpayable",
      "type": "function"
    },
    {
      "inputs": [
        {
          "internalType": "address",
          "name": "to",
          "type": "address"
        },
        {
          "internalType": "uint256",
          "name": "landId",
          "type": "uint256"
        }
      ],
      "name": "safeMint",
      "outputs": [],
      "stateMutability": "nonpayable",
      "type": "function"
    },
    {
      "inputs": [
        {
          "internalType": "address",
          "name": "from",
          "type": "address"
        },
        {
          "internalType": "address",
          "name": "to",
          "type": "address"
        },
        {
          "internalType": "uint256",
          "name": "tokenId",
          "type": "uint256"
        }
      ],
      "name": "safeTransferFrom",
      "outputs": [],
      "stateMutability": "nonpayable",
      "type": "function"
    },
    {
      "inputs": [
        {
          "internalType": "address",
          "name": "from",
          "type": "address"
        },
        {
          "internalType": "address",
          "name": "to",
          "type": "address"
        },
        {
          "internalType": "uint256",
          "name": "tokenId",
          "type": "uint256"
        },
        {
          "internalType": "bytes",
          "name": "_data",
          "type": "bytes"
        }
      ],
      "name": "safeTransferFrom",
      "outputs": [],
      "stateMutability": "nonpayable",
      "type": "function"
    },
    {
      "inputs": [
        {
          "internalType": "address",
          "name": "operator",
          "type": "address"
        },
        {
          "internalType": "bool",
          "name": "approved",
          "type": "bool"
        }
      ],
      "name": "setApprovalForAll",
      "outputs": [],
      "stateMutability": "nonpayable",
      "type": "function"
    },
    {
      "inputs": [
        {
          "internalType": "string",
          "name": "baseURI_",
          "type": "string"
        }
      ],
      "name": "setBaseURI",
      "outputs": [],
      "stateMutability": "nonpayable",
      "type": "function"
    },
    {
      "inputs": [
        {
          "internalType": "contract IERC721Land[]",
          "name": "otherLands_",
          "type": "address[]"
        }
      ],
      "name": "setOtherLands",
      "outputs": [],
      "stateMutability": "nonpayable",
      "type": "function"
    },
    {
      "inputs": [
        {
          "internalType": "bytes4",
          "name": "interfaceId",
          "type": "bytes4"
        }
      ],
      "name": "supportsInterface",
      "outputs": [
        {
          "internalType": "bool",
          "name": "",
          "type": "bool"
        }
      ],
      "stateMutability": "view",
      "type": "function"
    },
    {
      "inputs": [],
      "name": "symbol",
      "outputs": [
        {
          "internalType": "string",
          "name": "",
          "type": "string"
        }
      ],
      "stateMutability": "view",
      "type": "function"
    },
    {
      "inputs": [
        {
          "internalType": "uint256",
          "name": "index",
          "type": "uint256"
        }
      ],
      "name": "tokenByIndex",
      "outputs": [
        {
          "internalType": "uint256",
          "name": "",
          "type": "uint256"
        }
      ],
      "stateMutability": "view",
      "type": "function"
    },
    {
      "inputs": [
        {
          "internalType": "address",
          "name": "owner",
          "type": "address"
        },
        {
          "internalType": "uint256",
          "name": "index",
          "type": "uint256"
        }
      ],
      "name": "tokenOfOwnerByIndex",
      "outputs": [
        {
          "internalType": "uint256",
          "name": "",
          "type": "uint256"
        }
      ],
      "stateMutability": "view",
      "type": "function"
    },
    {
      "inputs": [
        {
          "internalType": "uint256",
          "name": "tokenId",
          "type": "uint256"
        }
      ],
      "name": "tokenURI",
      "outputs": [
        {
          "internalType": "string",
          "name": "",
          "type": "string"
        }
      ],
      "stateMutability": "view",
      "type": "function"
    },
    {
      "inputs": [],
      "name": "totalSupply",
      "outputs": [
        {
          "internalType": "uint256",
          "name": "",
          "type": "uint256"
        }
      ],
      "stateMutability": "view",
      "type": "function"
    },
    {
      "inputs": [
        {
          "internalType": "address",
          "name": "from",
          "type": "address"
        },
        {
          "internalType": "address",
          "name": "to",
          "type": "address"
        },
        {
          "internalType": "uint256",
          "name": "tokenId",
          "type": "uint256"
        }
      ],
      "name": "transferFrom",
      "outputs": [],
      "stateMutability": "nonpayable",
      "type": "function"
    },
    {
      "inputs": [
        {
          "internalType": "address",
          "name": "newImplementation",
          "type": "address"
        }
      ],
      "name": "upgradeTo",
      "outputs": [],
      "stateMutability": "nonpayable",
      "type": "function"
    },
    {
      "inputs": [
        {
          "internalType": "address",
          "name": "newImplementation",
          "type": "address"
        },
        {
          "internalType": "bytes",
          "name": "data",
          "type": "bytes"
        }
      ],
      "name": "upgradeToAndCall",
      "outputs": [],
      "stateMutability": "payable",
      "type": "function"
    },
    {
      "inputs": [],
      "name": "initialize",
      "outputs": [],
      "stateMutability": "nonpayable",
      "type": "function"
    },
    {
      "inputs": [],
      "name": "getMintMax",
      "outputs": [
        {
          "internalType": "uint256",
          "name": "",
          "type": "uint256"
        }
      ],
      "stateMutability": "pure",
      "type": "function"
    }
  ],
  "bytecode": "0x60a06040523060805234801561001457600080fd5b5060805161301c61004560003960008181610a3b01528181610a7b01528181610b1f0152610b5f015261301c6000f3fe6080604052600436106101f95760003560e01c806355f804b31161010d578063a1448194116100a0578063c87b56dd1161006f578063c87b56dd146105c4578063d5391393146105e4578063d547741f14610618578063e985e9c514610638578063f72c0d8b1461068157600080fd5b8063a14481941461054f578063a217fddf1461056f578063a22cb46514610584578063b88d4fde146105a457600080fd5b80638129fc1c116100dc5780638129fc1c146104d057806391d14854146104e557806394fd6d271461050557806395d89b411461053a57600080fd5b806355f804b3146104475780636352211e1461046757806370a08231146104875780637d00a196146104a757600080fd5b8063248a9ca31161019057806336568abe1161015f57806336568abe146103b45780633659cfe6146103d457806342842e0e146103f45780634f1ef286146104145780634f6ccce71461042757600080fd5b8063248a9ca3146103245780632f2ff15d146103545780632f745c591461037457806331ff55561461039457600080fd5b80630e2e44e8116101cc5780630e2e44e8146102af57806318160ddd146102cf5780631e51e4a1146102ef57806323b872dd1461030457600080fd5b806301ffc9a7146101fe57806306fdde0314610233578063081812fc14610255578063095ea7b31461028d575b600080fd5b34801561020a57600080fd5b5061021e6102193660046126d2565b6106b5565b60405190151581526020015b60405180910390f35b34801561023f57600080fd5b506102486106c6565b60405161022a9190612747565b34801561026157600080fd5b5061027561027036600461275a565b6106d5565b6040516001600160a01b03909116815260200161022a565b34801561029957600080fd5b506102ad6102a8366004612788565b61076f565b005b3480156102bb57600080fd5b5061021e6102ca36600461275a565b610885565b3480156102db57600080fd5b5061012f545b60405190815260200161022a565b3480156102fb57600080fd5b506127106102e1565b34801561031057600080fd5b506102ad61031f3660046127b4565b6108a4565b34801561033057600080fd5b506102e161033f36600461275a565b600090815260fb602052604090206001015490565b34801561036057600080fd5b506102ad61036f3660046127f5565b6108d5565b34801561038057600080fd5b506102e161038f366004612788565b6108fb565b3480156103a057600080fd5b506102ad6103af36600461286c565b610992565b3480156103c057600080fd5b506102ad6103cf3660046127f5565b6109b2565b3480156103e057600080fd5b506102ad6103ef36600461291e565b610a30565b34801561040057600080fd5b506102ad61040f3660046127b4565b610af9565b6102ad6104223660046129b3565b610b14565b34801561043357600080fd5b506102e161044236600461275a565b610bca565b34801561045357600080fd5b506102ad610462366004612a03565b610c5f565b34801561047357600080fd5b5061027561048236600461275a565b610c7f565b34801561049357600080fd5b506102e16104a236600461291e565b610cf6565b3480156104b357600080fd5b506104bd61271081565b60405161ffff909116815260200161022a565b3480156104dc57600080fd5b506102ad610d7d565b3480156104f157600080fd5b5061021e6105003660046127f5565b610ea3565b34801561051157600080fd5b5061052561052036600461275a565b610ece565b6040805192835260208301919091520161022a565b34801561054657600080fd5b50610248610efd565b34801561055b57600080fd5b506102ad61056a366004612788565b610f8f565b34801561057b57600080fd5b506102e1600081565b34801561059057600080fd5b506102ad61059f366004612a4c565b6111cd565b3480156105b057600080fd5b506102ad6105bf366004612a7f565b6111d8565b3480156105d057600080fd5b506102486105df36600461275a565b611210565b3480156105f057600080fd5b506102e17f9f2df0fed2c77648de5860a4cc508cd0818c85b8b8a1ab4ceeef8d981c8956a681565b34801561062457600080fd5b506102ad6106333660046127f5565b611245565b34801561064457600080fd5b5061021e610653366004612aeb565b6001600160a01b039182166000908152609c6020908152604080832093909416825291909152205460ff1690565b34801561068d57600080fd5b506102e17f189ab7a9244df0848122154315af71fe140f3db0fe014031783b0946b8c9d2e381565b60006106c08261126b565b92915050565b60606106d0611290565b905090565b6000818152609960205260408120546001600160a01b03166107535760405162461bcd60e51b815260206004820152602c60248201527f4552433732313a20617070726f76656420717565727920666f72206e6f6e657860448201526b34b9ba32b73a103a37b5b2b760a11b60648201526084015b60405180910390fd5b506000908152609b60205260409020546001600160a01b031690565b600061077a82610c7f565b9050806001600160a01b0316836001600160a01b031614156107e85760405162461bcd60e51b815260206004820152602160248201527f4552433732313a20617070726f76616c20746f2063757272656e74206f776e656044820152603960f91b606482015260840161074a565b336001600160a01b038216148061080457506108048133610653565b6108765760405162461bcd60e51b815260206004820152603860248201527f4552433732313a20617070726f76652063616c6c6572206973206e6f74206f7760448201527f6e6572206e6f7220617070726f76656420666f7220616c6c0000000000000000606482015260840161074a565b610880838361129f565b505050565b6000818152609960205260408120546001600160a01b031615156106c0565b6108ae338261130d565b6108ca5760405162461bcd60e51b815260040161074a90612b19565b610880838383611404565b600082815260fb60205260409020600101546108f181336115af565b6108808383611613565b600061090683610cf6565b82106109685760405162461bcd60e51b815260206004820152602b60248201527f455243373231456e756d657261626c653a206f776e657220696e646578206f7560448201526a74206f6620626f756e647360a81b606482015260840161074a565b506001600160a01b0391909116600090815261012d60209081526040808320938352929052205490565b600061099e81336115af565b8151610880906101609060208501906125ce565b6001600160a01b0381163314610a225760405162461bcd60e51b815260206004820152602f60248201527f416363657373436f6e74726f6c3a2063616e206f6e6c792072656e6f756e636560448201526e103937b632b9903337b91039b2b63360891b606482015260840161074a565b610a2c8282611699565b5050565b306001600160a01b037f0000000000000000000000000000000000000000000000000000000000000000161415610a795760405162461bcd60e51b815260040161074a90612b6a565b7f00000000000000000000000000000000000000000000000000000000000000006001600160a01b0316610aab611700565b6001600160a01b031614610ad15760405162461bcd60e51b815260040161074a90612bb6565b610ada8161172e565b60408051600080825260208201909252610af691839190611759565b50565b610880838383604051806020016040528060008152506111d8565b306001600160a01b037f0000000000000000000000000000000000000000000000000000000000000000161415610b5d5760405162461bcd60e51b815260040161074a90612b6a565b7f00000000000000000000000000000000000000000000000000000000000000006001600160a01b0316610b8f611700565b6001600160a01b031614610bb55760405162461bcd60e51b815260040161074a90612bb6565b610bbe8261172e565b610a2c82826001611759565b6000610bd661012f5490565b8210610c395760405162461bcd60e51b815260206004820152602c60248201527f455243373231456e756d657261626c653a20676c6f62616c20696e646578206f60448201526b7574206f6620626f756e647360a01b606482015260840161074a565b61012f8281548110610c4d57610c4d612c02565b90600052602060002001549050919050565b6000610c6b81336115af565b81516108809061015f906020850190612633565b6000818152609960205260408120546001600160a01b0316806106c05760405162461bcd60e51b815260206004820152602960248201527f4552433732313a206f776e657220717565727920666f72206e6f6e657869737460448201526832b73a103a37b5b2b760b91b606482015260840161074a565b60006001600160a01b038216610d615760405162461bcd60e51b815260206004820152602a60248201527f4552433732313a2062616c616e636520717565727920666f7220746865207a65604482015269726f206164647265737360b01b606482015260840161074a565b506001600160a01b03166000908152609a602052604090205490565b600054610100900460ff1680610d96575060005460ff16155b610db25760405162461bcd60e51b815260040161074a90612c18565b600054610100900460ff16158015610dd4576000805461ffff19166101011790555b610e286040518060400160405280600a815260200169151a58dad95d13185b9960b21b8152506040518060400160405280601081526020016f135153110b551a58dad95d0b53185b9960821b8152506118a4565b610e3061192b565b610e3b60003361199a565b610e657f9f2df0fed2c77648de5860a4cc508cd0818c85b8b8a1ab4ceeef8d981c8956a63361199a565b610e8f7f189ab7a9244df0848122154315af71fe140f3db0fe014031783b0946b8c9d2e33361199a565b8015610af6576000805461ff001916905550565b600091825260fb602090815260408084206001600160a01b0393909316845291905290205460ff1690565b600080610edd61271084612c7c565b9050612710610eec8285612ca6565b610ef69190612cbd565b9150915091565b606060988054610f0c90612cd1565b80601f0160208091040260200160405190810160405280929190818152602001828054610f3890612cd1565b8015610f855780601f10610f5a57610100808354040283529160200191610f85565b820191906000526020600020905b815481529060010190602001808311610f6857829003601f168201915b5050505050905090565b7f9f2df0fed2c77648de5860a4cc508cd0818c85b8b8a1ab4ceeef8d981c8956a6610fba81336115af565b6127108211610ffa5760405162461bcd60e51b815260206004820152600c60248201526b3630b73224b21032b93937b960a11b604482015260640161074a565b61271061012f541061105c5760405162461bcd60e51b815260206004820152602560248201527f457863656564696e6720746865206d6178696d756d20737570706c79207175616044820152646e7469747960d81b606482015260840161074a565b6000828152609960205260409020546001600160a01b0316156110b55760405162461bcd60e51b81526020600482015260116024820152704d696e7420636f6e666c6963746564203160781b604482015260640161074a565b60005b6101605460ff821610156111c2576101608160ff16815481106110dd576110dd612c02565b6000918252602090912001546040516331a9108f60e11b8152600481018590526001600160a01b0390911690636352211e9060240160206040518083038186803b15801561112a57600080fd5b505afa92505050801561115a575060408051601f3d908101601f1916820190925261115791810190612d0c565b60015b611163576111b0565b6001600160a01b038116156111ae5760405162461bcd60e51b815260206004820152601160248201527026b4b73a1031b7b7333634b1ba32b2101960791b604482015260640161074a565b505b806111ba81612d29565b9150506110b8565b5061088083836119a4565b610a2c3383836119be565b6111e2338361130d565b6111fe5760405162461bcd60e51b815260040161074a90612b19565b61120a84848484611a8d565b50505050565b606061015f61121e83611ac0565b60405160200161122f929190612d65565b6040516020818303038152906040529050919050565b600082815260fb602052604090206001015461126181336115af565b6108808383611699565b60006001600160e01b0319821663780e9d6360e01b14806106c057506106c082611bbe565b606060978054610f0c90612cd1565b6000818152609b6020526040902080546001600160a01b0319166001600160a01b03841690811790915581906112d482610c7f565b6001600160a01b03167f8c5be1e5ebec7d5bd14f71427d1e84f3dd0314c0f7b2291e5b200ac8c7c3b92560405160405180910390a45050565b6000818152609960205260408120546001600160a01b03166113865760405162461bcd60e51b815260206004820152602c60248201527f4552433732313a206f70657261746f7220717565727920666f72206e6f6e657860448201526b34b9ba32b73a103a37b5b2b760a11b606482015260840161074a565b600061139183610c7f565b9050806001600160a01b0316846001600160a01b031614806113cc5750836001600160a01b03166113c1846106d5565b6001600160a01b0316145b806113fc57506001600160a01b038082166000908152609c602090815260408083209388168352929052205460ff165b949350505050565b826001600160a01b031661141782610c7f565b6001600160a01b03161461147f5760405162461bcd60e51b815260206004820152602960248201527f4552433732313a207472616e73666572206f6620746f6b656e2074686174206960448201526839903737ba1037bbb760b91b606482015260840161074a565b6001600160a01b0382166114e15760405162461bcd60e51b8152602060048201526024808201527f4552433732313a207472616e7366657220746f20746865207a65726f206164646044820152637265737360e01b606482015260840161074a565b6114ec838383611be3565b6114f760008261129f565b6001600160a01b0383166000908152609a60205260408120805460019290611520908490612ca6565b90915550506001600160a01b0382166000908152609a6020526040812080546001929061154e908490612e03565b909155505060008181526099602052604080822080546001600160a01b0319166001600160a01b0386811691821790925591518493918716917fddf252ad1be2c89b69c2b068fc378daa952ba7f163c4a11628f55a4df523b3ef91a4505050565b6115b98282610ea3565b610a2c576115d1816001600160a01b03166014611bee565b6115dc836020611bee565b6040516020016115ed929190612e1b565b60408051601f198184030181529082905262461bcd60e51b825261074a91600401612747565b61161d8282610ea3565b610a2c57600082815260fb602090815260408083206001600160a01b03851684529091529020805460ff191660011790556116553390565b6001600160a01b0316816001600160a01b0316837f2f8788117e7eff1d82e926ec794901d17c78024a50270940304540a733656f0d60405160405180910390a45050565b6116a38282610ea3565b15610a2c57600082815260fb602090815260408083206001600160a01b0385168085529252808320805460ff1916905551339285917ff6391f5c32d9c69d2a47ea670b442974b53935d1edc7fd64eb21e047a839171b9190a45050565b7f360894a13ba1a3210667c828492db98dca3e2076cc3735a920a3ca505d382bbc546001600160a01b031690565b7f189ab7a9244df0848122154315af71fe140f3db0fe014031783b0946b8c9d2e3610a2c81336115af565b6000611763611700565b905061176e84611d91565b60008351118061177b5750815b1561178c5761178a8484611e36565b505b7f4910fdfa16fed3260ed0e7147f7cc6da11a60208b5b9406d12a635614ffd9143805460ff1661189d57805460ff191660011781556040516001600160a01b038316602482015261180b90869060440160408051601f198184030181529190526020810180516001600160e01b0316631b2ce7f360e11b179052611e36565b50805460ff1916815561181c611700565b6001600160a01b0316826001600160a01b0316146118945760405162461bcd60e51b815260206004820152602f60248201527f45524331393637557067726164653a207570677261646520627265616b73206660448201526e75727468657220757067726164657360881b606482015260840161074a565b61189d85611f21565b5050505050565b600054610100900460ff16806118bd575060005460ff16155b6118d95760405162461bcd60e51b815260040161074a90612c18565b600054610100900460ff161580156118fb576000805461ffff19166101011790555b611903611f61565b61190b611f61565b6119158383611fcb565b8015610880576000805461ff0019169055505050565b600054610100900460ff1680611944575060005460ff16155b6119605760405162461bcd60e51b815260040161074a90612c18565b600054610100900460ff16158015611982576000805461ffff19166101011790555b61198a611f61565b611992611f61565b610e8f611f61565b610a2c8282611613565b610a2c828260405180602001604052806000815250612060565b816001600160a01b0316836001600160a01b03161415611a205760405162461bcd60e51b815260206004820152601960248201527f4552433732313a20617070726f766520746f2063616c6c657200000000000000604482015260640161074a565b6001600160a01b038381166000818152609c6020908152604080832094871680845294825291829020805460ff191686151590811790915591519182527f17307eab39ab6107e8899845ad3d59bd9653f200f220920489ca2b5937696c31910160405180910390a3505050565b611a98848484611404565b611aa484848484612093565b61120a5760405162461bcd60e51b815260040161074a90612e90565b606081611ae45750506040805180820190915260018152600360fc1b602082015290565b8160005b8115611b0e5780611af881612ee2565b9150611b079050600a83612cbd565b9150611ae8565b60008167ffffffffffffffff811115611b2957611b29612825565b6040519080825280601f01601f191660200182016040528015611b53576020820181803683370190505b5090505b84156113fc57611b68600183612ca6565b9150611b75600a86612c7c565b611b80906030612e03565b60f81b818381518110611b9557611b95612c02565b60200101906001600160f81b031916908160001a905350611bb7600a86612cbd565b9450611b57565b60006001600160e01b03198216637965db0b60e01b14806106c057506106c0826121a0565b6108808383836121f0565b60606000611bfd836002612efd565b611c08906002612e03565b67ffffffffffffffff811115611c2057611c20612825565b6040519080825280601f01601f191660200182016040528015611c4a576020820181803683370190505b509050600360fc1b81600081518110611c6557611c65612c02565b60200101906001600160f81b031916908160001a905350600f60fb1b81600181518110611c9457611c94612c02565b60200101906001600160f81b031916908160001a9053506000611cb8846002612efd565b611cc3906001612e03565b90505b6001811115611d3b576f181899199a1a9b1b9c1cb0b131b232b360811b85600f1660108110611cf757611cf7612c02565b1a60f81b828281518110611d0d57611d0d612c02565b60200101906001600160f81b031916908160001a90535060049490941c93611d3481612f1c565b9050611cc6565b508315611d8a5760405162461bcd60e51b815260206004820181905260248201527f537472696e67733a20686578206c656e67746820696e73756666696369656e74604482015260640161074a565b9392505050565b803b611df55760405162461bcd60e51b815260206004820152602d60248201527f455243313936373a206e657720696d706c656d656e746174696f6e206973206e60448201526c1bdd08184818dbdb9d1c9858dd609a1b606482015260840161074a565b7f360894a13ba1a3210667c828492db98dca3e2076cc3735a920a3ca505d382bbc80546001600160a01b0319166001600160a01b0392909216919091179055565b6060823b611e955760405162461bcd60e51b815260206004820152602660248201527f416464726573733a2064656c65676174652063616c6c20746f206e6f6e2d636f6044820152651b9d1c9858dd60d21b606482015260840161074a565b600080846001600160a01b031684604051611eb09190612f33565b600060405180830381855af49150503d8060008114611eeb576040519150601f19603f3d011682016040523d82523d6000602084013e611ef0565b606091505b5091509150611f188282604051806060016040528060278152602001612fc0602791396122aa565b95945050505050565b611f2a81611d91565b6040516001600160a01b038216907fbc7cd75a20ee27fd9adebab32041f755214dbc6bffa90cc0225b39da2e5c2d3b90600090a250565b600054610100900460ff1680611f7a575060005460ff16155b611f965760405162461bcd60e51b815260040161074a90612c18565b600054610100900460ff16158015610e8f576000805461ffff19166101011790558015610af6576000805461ff001916905550565b600054610100900460ff1680611fe4575060005460ff16155b6120005760405162461bcd60e51b815260040161074a90612c18565b600054610100900460ff16158015612022576000805461ffff19166101011790555b8251612035906097906020860190612633565b508151612049906098906020850190612633565b508015610880576000805461ff0019169055505050565b61206a83836122e3565b6120776000848484612093565b6108805760405162461bcd60e51b815260040161074a90612e90565b60006001600160a01b0384163b1561219557604051630a85bd0160e11b81526001600160a01b0385169063150b7a02906120d7903390899088908890600401612f4f565b602060405180830381600087803b1580156120f157600080fd5b505af1925050508015612121575060408051601f3d908101601f1916820190925261211e91810190612f8c565b60015b61217b573d80801561214f576040519150601f19603f3d011682016040523d82523d6000602084013e612154565b606091505b5080516121735760405162461bcd60e51b815260040161074a90612e90565b805181602001fd5b6001600160e01b031916630a85bd0160e11b1490506113fc565b506001949350505050565b60006001600160e01b031982166380ac58cd60e01b14806121d157506001600160e01b03198216635b5e139f60e01b145b806106c057506301ffc9a760e01b6001600160e01b03198316146106c0565b6001600160a01b03831661224d576122488161012f8054600083815261013060205260408120829055600182018355919091527f232da9e50dad2971456a78fb5cd6ff6b75019984d6e918139ce990999420f9790155565b612270565b816001600160a01b0316836001600160a01b031614612270576122708382612431565b6001600160a01b03821661228757610880816124d3565b826001600160a01b0316826001600160a01b031614610880576108808282612588565b606083156122b9575081611d8a565b8251156122c95782518084602001fd5b8160405162461bcd60e51b815260040161074a9190612747565b6001600160a01b0382166123395760405162461bcd60e51b815260206004820181905260248201527f4552433732313a206d696e7420746f20746865207a65726f2061646472657373604482015260640161074a565b6000818152609960205260409020546001600160a01b03161561239e5760405162461bcd60e51b815260206004820152601c60248201527f4552433732313a20746f6b656e20616c7265616479206d696e74656400000000604482015260640161074a565b6123aa60008383611be3565b6001600160a01b0382166000908152609a602052604081208054600192906123d3908490612e03565b909155505060008181526099602052604080822080546001600160a01b0319166001600160a01b03861690811790915590518392907fddf252ad1be2c89b69c2b068fc378daa952ba7f163c4a11628f55a4df523b3ef908290a45050565b6000600161243e84610cf6565b6124489190612ca6565b600083815261012e602052604090205490915080821461249e576001600160a01b038416600090815261012d60209081526040808320858452825280832054848452818420819055835261012e90915290208190555b50600091825261012e602090815260408084208490556001600160a01b03909416835261012d81528383209183525290812055565b61012f546000906124e690600190612ca6565b6000838152610130602052604081205461012f805493945090928490811061251057612510612c02565b906000526020600020015490508061012f838154811061253257612532612c02565b6000918252602080832090910192909255828152610130909152604080822084905585825281205561012f80548061256c5761256c612fa9565b6001900381819060005260206000200160009055905550505050565b600061259383610cf6565b6001600160a01b03909316600090815261012d60209081526040808320868452825280832085905593825261012e9052919091209190915550565b828054828255906000526020600020908101928215612623579160200282015b8281111561262357825182546001600160a01b0319166001600160a01b039091161782556020909201916001909101906125ee565b5061262f9291506126a7565b5090565b82805461263f90612cd1565b90600052602060002090601f0160209004810192826126615760008555612623565b82601f1061267a57805160ff1916838001178555612623565b82800160010185558215612623579182015b8281111561262357825182559160200191906001019061268c565b5b8082111561262f57600081556001016126a8565b6001600160e01b031981168114610af657600080fd5b6000602082840312156126e457600080fd5b8135611d8a816126bc565b60005b8381101561270a5781810151838201526020016126f2565b8381111561120a5750506000910152565b600081518084526127338160208601602086016126ef565b601f01601f19169290920160200192915050565b602081526000611d8a602083018461271b565b60006020828403121561276c57600080fd5b5035919050565b6001600160a01b0381168114610af657600080fd5b6000806040838503121561279b57600080fd5b82356127a681612773565b946020939093013593505050565b6000806000606084860312156127c957600080fd5b83356127d481612773565b925060208401356127e481612773565b929592945050506040919091013590565b6000806040838503121561280857600080fd5b82359150602083013561281a81612773565b809150509250929050565b634e487b7160e01b600052604160045260246000fd5b604051601f8201601f1916810167ffffffffffffffff8111828210171561286457612864612825565b604052919050565b6000602080838503121561287f57600080fd5b823567ffffffffffffffff8082111561289757600080fd5b818501915085601f8301126128ab57600080fd5b8135818111156128bd576128bd612825565b8060051b91506128ce84830161283b565b81815291830184019184810190888411156128e857600080fd5b938501935b83851015612912578435925061290283612773565b82825293850193908501906128ed565b98975050505050505050565b60006020828403121561293057600080fd5b8135611d8a81612773565b600067ffffffffffffffff83111561295557612955612825565b612968601f8401601f191660200161283b565b905082815283838301111561297c57600080fd5b828260208301376000602084830101529392505050565b600082601f8301126129a457600080fd5b611d8a8383356020850161293b565b600080604083850312156129c657600080fd5b82356129d181612773565b9150602083013567ffffffffffffffff8111156129ed57600080fd5b6129f985828601612993565b9150509250929050565b600060208284031215612a1557600080fd5b813567ffffffffffffffff811115612a2c57600080fd5b8201601f81018413612a3d57600080fd5b6113fc8482356020840161293b565b60008060408385031215612a5f57600080fd5b8235612a6a81612773565b91506020830135801515811461281a57600080fd5b60008060008060808587031215612a9557600080fd5b8435612aa081612773565b93506020850135612ab081612773565b925060408501359150606085013567ffffffffffffffff811115612ad357600080fd5b612adf87828801612993565b91505092959194509250565b60008060408385031215612afe57600080fd5b8235612b0981612773565b9150602083013561281a81612773565b60208082526031908201527f4552433732313a207472616e736665722063616c6c6572206973206e6f74206f6040820152701ddb995c881b9bdc88185c1c1c9bdd9959607a1b606082015260800190565b6020808252602c908201527f46756e6374696f6e206d7573742062652063616c6c6564207468726f7567682060408201526b19195b1959d85d1958d85b1b60a21b606082015260800190565b6020808252602c908201527f46756e6374696f6e206d7573742062652063616c6c6564207468726f7567682060408201526b6163746976652070726f787960a01b606082015260800190565b634e487b7160e01b600052603260045260246000fd5b6020808252602e908201527f496e697469616c697a61626c653a20636f6e747261637420697320616c72656160408201526d191e481a5b9a5d1a585b1a5e995960921b606082015260800190565b634e487b7160e01b600052601260045260246000fd5b600082612c8b57612c8b612c66565b500690565b634e487b7160e01b600052601160045260246000fd5b600082821015612cb857612cb8612c90565b500390565b600082612ccc57612ccc612c66565b500490565b600181811c90821680612ce557607f821691505b60208210811415612d0657634e487b7160e01b600052602260045260246000fd5b50919050565b600060208284031215612d1e57600080fd5b8151611d8a81612773565b600060ff821660ff811415612d4057612d40612c90565b60010192915050565b60008151612d5b8185602086016126ef565b9290920192915050565b600080845481600182811c915080831680612d8157607f831692505b6020808410821415612da157634e487b7160e01b86526022600452602486fd5b818015612db55760018114612dc657612df3565b60ff19861689528489019650612df3565b60008b81526020902060005b86811015612deb5781548b820152908501908301612dd2565b505084890196505b505050505050611f188185612d49565b60008219821115612e1657612e16612c90565b500190565b7f416363657373436f6e74726f6c3a206163636f756e7420000000000000000000815260008351612e538160178501602088016126ef565b7001034b99036b4b9b9b4b733903937b6329607d1b6017918401918201528351612e848160288401602088016126ef565b01602801949350505050565b60208082526032908201527f4552433732313a207472616e7366657220746f206e6f6e20455243373231526560408201527131b2b4bb32b91034b6b83632b6b2b73a32b960711b606082015260800190565b6000600019821415612ef657612ef6612c90565b5060010190565b6000816000190483118215151615612f1757612f17612c90565b500290565b600081612f2b57612f2b612c90565b506000190190565b60008251612f458184602087016126ef565b9190910192915050565b6001600160a01b0385811682528416602082015260408101839052608060608201819052600090612f829083018461271b565b9695505050505050565b600060208284031215612f9e57600080fd5b8151611d8a816126bc565b634e487b7160e01b600052603160045260246000fdfe416464726573733a206c6f772d6c6576656c2064656c65676174652063616c6c206661696c6564a26469706673582212209251163199398d0762010de70ec0ac9f1218c2b3a3a94b3581cd489c27a5f44f64736f6c63430008090033",
  "immutableReferences": {
    "1023": [
      {
        "length": 32,
        "start": 2619
      },
      {
        "length": 32,
        "start": 2683
      },
      {
        "length": 32,
        "start": 2847
      },
      {
        "length": 32,
        "start": 2911
      }
    ]
  },
  "source": "// SPDX-License-Identifier: MIT\npragma solidity 0.8.9;\n\nimport \"./BaseLand.sol\";\n\ncontract TicketLand is BaseLand {\n    function initialize() public initializer {\n        __ERC721_init(\"TicketLand\", \"MELD-Ticket-Land\");\n        __AccessControl_init();\n        _setupRole(DEFAULT_ADMIN_ROLE, msg.sender);\n        _setupRole(MINTER_ROLE, msg.sender);\n        _setupRole(UPGRADER_ROLE, msg.sender);\n    }\n\n    function getMintMax() public pure override(BaseLand) virtual returns (uint256) {\n        return 10000;\n    }\n}",
  "sourcePath": "/Users/alberthuang/code/icw/meland/contracts/TicketLand.sol",
  "compiler": {
    "name": "solc",
    "version": "0.8.9+commit.e5eed63a.Emscripten.clang"
  },
  "schemaVersion": "3.4.3",
  "updatedAt": "2021-12-16T19:17:15.600Z",
  "devdoc": {
    "kind": "dev",
    "methods": {
      "approve(address,uint256)": {
        "details": "See {IERC721-approve}."
      },
      "balanceOf(address)": {
        "details": "See {IERC721-balanceOf}."
      },
      "getApproved(uint256)": {
        "details": "See {IERC721-getApproved}."
      },
      "getRoleAdmin(bytes32)": {
        "details": "Returns the admin role that controls `role`. See {grantRole} and {revokeRole}. To change a role's admin, use {_setRoleAdmin}."
      },
      "grantRole(bytes32,address)": {
        "details": "Grants `role` to `account`. If `account` had not been already granted `role`, emits a {RoleGranted} event. Requirements: - the caller must have ``role``'s admin role."
      },
      "hasRole(bytes32,address)": {
        "details": "Returns `true` if `account` has been granted `role`."
      },
      "isApprovedForAll(address,address)": {
        "details": "See {IERC721-isApprovedForAll}."
      },
      "name()": {
        "details": "See {IERC721Metadata-name}."
      },
      "ownerOf(uint256)": {
        "details": "See {IERC721-ownerOf}."
      },
      "renounceRole(bytes32,address)": {
        "details": "Revokes `role` from the calling account. Roles are often managed via {grantRole} and {revokeRole}: this function's purpose is to provide a mechanism for accounts to lose their privileges if they are compromised (such as when a trusted device is misplaced). If the calling account had been revoked `role`, emits a {RoleRevoked} event. Requirements: - the caller must be `account`."
      },
      "revokeRole(bytes32,address)": {
        "details": "Revokes `role` from `account`. If `account` had been granted `role`, emits a {RoleRevoked} event. Requirements: - the caller must have ``role``'s admin role."
      },
      "safeTransferFrom(address,address,uint256)": {
        "details": "See {IERC721-safeTransferFrom}."
      },
      "safeTransferFrom(address,address,uint256,bytes)": {
        "details": "See {IERC721-safeTransferFrom}."
      },
      "setApprovalForAll(address,bool)": {
        "details": "See {IERC721-setApprovalForAll}."
      },
      "symbol()": {
        "details": "See {IERC721Metadata-symbol}."
      },
      "tokenByIndex(uint256)": {
        "details": "See {IERC721Enumerable-tokenByIndex}."
      },
      "tokenOfOwnerByIndex(address,uint256)": {
        "details": "See {IERC721Enumerable-tokenOfOwnerByIndex}."
      },
      "tokenURI(uint256)": {
        "details": "See {IERC721Metadata-tokenURI}."
      },
      "totalSupply()": {
        "details": "See {IERC721Enumerable-totalSupply}."
      },
      "transferFrom(address,address,uint256)": {
        "details": "See {IERC721-transferFrom}."
      },
      "upgradeTo(address)": {
        "details": "Upgrade the implementation of the proxy to `newImplementation`. Calls {_authorizeUpgrade}. Emits an {Upgraded} event."
      },
      "upgradeToAndCall(address,bytes)": {
        "details": "Upgrade the implementation of the proxy to `newImplementation`, and subsequently execute the function call encoded in `data`. Calls {_authorizeUpgrade}. Emits an {Upgraded} event."
      }
    },
    "version": 1
  },
  "userdoc": {
    "kind": "user",
    "methods": {},
    "version": 1
  }
}