{
  "contractName": "VestPoolV3",
  "abi": [
    {
      "anonymous": false,
      "inputs": [
        {
          "indexed": false,
          "internalType": "address",
          "name": "previousAdmin",
          "type": "address"
        },
        {
          "indexed": false,
          "internalType": "address",
          "name": "newAdmin",
          "type": "address"
        }
      ],
      "name": "AdminChanged",
      "type": "event"
    },
    {
      "anonymous": false,
      "inputs": [
        {
          "indexed": true,
          "internalType": "address",
          "name": "beacon",
          "type": "address"
        }
      ],
      "name": "BeaconUpgraded",
      "type": "event"
    },
    {
      "anonymous": false,
      "inputs": [
        {
          "indexed": true,
          "internalType": "bytes32",
          "name": "role",
          "type": "bytes32"
        },
        {
          "indexed": true,
          "internalType": "bytes32",
          "name": "previousAdminRole",
          "type": "bytes32"
        },
        {
          "indexed": true,
          "internalType": "bytes32",
          "name": "newAdminRole",
          "type": "bytes32"
        }
      ],
      "name": "RoleAdminChanged",
      "type": "event"
    },
    {
      "anonymous": false,
      "inputs": [
        {
          "indexed": true,
          "internalType": "bytes32",
          "name": "role",
          "type": "bytes32"
        },
        {
          "indexed": true,
          "internalType": "address",
          "name": "account",
          "type": "address"
        },
        {
          "indexed": true,
          "internalType": "address",
          "name": "sender",
          "type": "address"
        }
      ],
      "name": "RoleGranted",
      "type": "event"
    },
    {
      "anonymous": false,
      "inputs": [
        {
          "indexed": true,
          "internalType": "bytes32",
          "name": "role",
          "type": "bytes32"
        },
        {
          "indexed": true,
          "internalType": "address",
          "name": "account",
          "type": "address"
        },
        {
          "indexed": true,
          "internalType": "address",
          "name": "sender",
          "type": "address"
        }
      ],
      "name": "RoleRevoked",
      "type": "event"
    },
    {
      "anonymous": false,
      "inputs": [
        {
          "indexed": true,
          "internalType": "uint256",
          "name": "vestingId",
          "type": "uint256"
        },
        {
          "indexed": true,
          "internalType": "address",
          "name": "beneficiary",
          "type": "address"
        },
        {
          "indexed": false,
          "internalType": "uint256",
          "name": "amount",
          "type": "uint256"
        }
      ],
      "name": "TokenVestingAdded",
      "type": "event"
    },
    {
      "anonymous": false,
      "inputs": [
        {
          "indexed": true,
          "internalType": "uint256",
          "name": "vestingId",
          "type": "uint256"
        },
        {
          "indexed": true,
          "internalType": "address",
          "name": "beneficiary",
          "type": "address"
        },
        {
          "indexed": false,
          "internalType": "uint256",
          "name": "amount",
          "type": "uint256"
        }
      ],
      "name": "TokenVestingReleased",
      "type": "event"
    },
    {
      "anonymous": false,
      "inputs": [
        {
          "indexed": true,
          "internalType": "uint256",
          "name": "vestingId",
          "type": "uint256"
        },
        {
          "indexed": true,
          "internalType": "address",
          "name": "beneficiary",
          "type": "address"
        },
        {
          "indexed": false,
          "internalType": "uint256",
          "name": "amount",
          "type": "uint256"
        }
      ],
      "name": "TokenVestingRemoved",
      "type": "event"
    },
    {
      "anonymous": false,
      "inputs": [
        {
          "indexed": true,
          "internalType": "address",
          "name": "implementation",
          "type": "address"
        }
      ],
      "name": "Upgraded",
      "type": "event"
    },
    {
      "anonymous": false,
      "inputs": [
        {
          "indexed": true,
          "internalType": "address",
          "name": "vcAddress",
          "type": "address"
        }
      ],
      "name": "VCAdd",
      "type": "event"
    },
    {
      "inputs": [],
      "name": "DEFAULT_ADMIN_ROLE",
      "outputs": [
        {
          "internalType": "bytes32",
          "name": "",
          "type": "bytes32"
        }
      ],
      "stateMutability": "view",
      "type": "function"
    },
    {
      "inputs": [],
      "name": "GM_ROLE",
      "outputs": [
        {
          "internalType": "bytes32",
          "name": "",
          "type": "bytes32"
        }
      ],
      "stateMutability": "view",
      "type": "function"
    },
    {
      "inputs": [
        {
          "internalType": "bytes32",
          "name": "role",
          "type": "bytes32"
        }
      ],
      "name": "getRoleAdmin",
      "outputs": [
        {
          "internalType": "bytes32",
          "name": "",
          "type": "bytes32"
        }
      ],
      "stateMutability": "view",
      "type": "function"
    },
    {
      "inputs": [
        {
          "internalType": "bytes32",
          "name": "role",
          "type": "bytes32"
        },
        {
          "internalType": "address",
          "name": "account",
          "type": "address"
        }
      ],
      "name": "grantRole",
      "outputs": [],
      "stateMutability": "nonpayable",
      "type": "function"
    },
    {
      "inputs": [
        {
          "internalType": "bytes32",
          "name": "role",
          "type": "bytes32"
        },
        {
          "internalType": "address",
          "name": "account",
          "type": "address"
        }
      ],
      "name": "hasRole",
      "outputs": [
        {
          "internalType": "bool",
          "name": "",
          "type": "bool"
        }
      ],
      "stateMutability": "view",
      "type": "function"
    },
    {
      "inputs": [
        {
          "internalType": "bytes32",
          "name": "role",
          "type": "bytes32"
        },
        {
          "internalType": "address",
          "name": "account",
          "type": "address"
        }
      ],
      "name": "renounceRole",
      "outputs": [],
      "stateMutability": "nonpayable",
      "type": "function"
    },
    {
      "inputs": [
        {
          "internalType": "bytes32",
          "name": "role",
          "type": "bytes32"
        },
        {
          "internalType": "address",
          "name": "account",
          "type": "address"
        }
      ],
      "name": "revokeRole",
      "outputs": [],
      "stateMutability": "nonpayable",
      "type": "function"
    },
    {
      "inputs": [
        {
          "internalType": "bytes4",
          "name": "interfaceId",
          "type": "bytes4"
        }
      ],
      "name": "supportsInterface",
      "outputs": [
        {
          "internalType": "bool",
          "name": "",
          "type": "bool"
        }
      ],
      "stateMutability": "view",
      "type": "function"
    },
    {
      "inputs": [
        {
          "internalType": "address",
          "name": "newImplementation",
          "type": "address"
        }
      ],
      "name": "upgradeTo",
      "outputs": [],
      "stateMutability": "nonpayable",
      "type": "function"
    },
    {
      "inputs": [
        {
          "internalType": "address",
          "name": "newImplementation",
          "type": "address"
        },
        {
          "internalType": "bytes",
          "name": "data",
          "type": "bytes"
        }
      ],
      "name": "upgradeToAndCall",
      "outputs": [],
      "stateMutability": "payable",
      "type": "function"
    },
    {
      "inputs": [
        {
          "internalType": "address",
          "name": "",
          "type": "address"
        }
      ],
      "name": "vcmap",
      "outputs": [
        {
          "internalType": "uint256",
          "name": "timeOfTGE",
          "type": "uint256"
        },
        {
          "internalType": "uint256",
          "name": "amount",
          "type": "uint256"
        },
        {
          "internalType": "uint256",
          "name": "cliffMonth",
          "type": "uint256"
        },
        {
          "internalType": "uint256",
          "name": "vestingMonth",
          "type": "uint256"
        },
        {
          "internalType": "uint256",
          "name": "unlockTGE",
          "type": "uint256"
        },
        {
          "internalType": "address",
          "name": "beneficiary",
          "type": "address"
        },
        {
          "internalType": "bool",
          "name": "recived",
          "type": "bool"
        }
      ],
      "stateMutability": "view",
      "type": "function"
    },
    {
      "inputs": [
        {
          "internalType": "uint256",
          "name": "",
          "type": "uint256"
        }
      ],
      "name": "vestings",
      "outputs": [
        {
          "internalType": "uint256",
          "name": "releaseTime",
          "type": "uint256"
        },
        {
          "internalType": "uint256",
          "name": "amount",
          "type": "uint256"
        },
        {
          "internalType": "address",
          "name": "beneficiary",
          "type": "address"
        },
        {
          "internalType": "bool",
          "name": "released",
          "type": "bool"
        }
      ],
      "stateMutability": "view",
      "type": "function"
    },
    {
      "inputs": [
        {
          "internalType": "contract ERC20Upgradeable",
          "name": "_token",
          "type": "address"
        }
      ],
      "name": "initialize",
      "outputs": [],
      "stateMutability": "nonpayable",
      "type": "function"
    },
    {
      "inputs": [
        {
          "internalType": "uint256",
          "name": "_tokensToVest",
          "type": "uint256"
        }
      ],
      "name": "fixedTokensToVest",
      "outputs": [],
      "stateMutability": "nonpayable",
      "type": "function"
    },
    {
      "inputs": [],
      "name": "viewTokenToVest",
      "outputs": [
        {
          "internalType": "uint256",
          "name": "",
          "type": "uint256"
        }
      ],
      "stateMutability": "view",
      "type": "function"
    },
    {
      "inputs": [
        {
          "components": [
            {
              "internalType": "uint256",
              "name": "timeOfTGE",
              "type": "uint256"
            },
            {
              "internalType": "uint256",
              "name": "amount",
              "type": "uint256"
            },
            {
              "internalType": "uint256",
              "name": "cliffMonth",
              "type": "uint256"
            },
            {
              "internalType": "uint256",
              "name": "vestingMonth",
              "type": "uint256"
            },
            {
              "internalType": "uint256",
              "name": "unlockTGE",
              "type": "uint256"
            },
            {
              "internalType": "address",
              "name": "beneficiary",
              "type": "address"
            },
            {
              "internalType": "bool",
              "name": "recived",
              "type": "bool"
            }
          ],
          "internalType": "struct VestPoolV3.VC[]",
          "name": "_vcs",
          "type": "tuple[]"
        }
      ],
      "name": "addMultipleVC",
      "outputs": [],
      "stateMutability": "nonpayable",
      "type": "function"
    },
    {
      "inputs": [],
      "name": "reviceTGE",
      "outputs": [],
      "stateMutability": "nonpayable",
      "type": "function"
    },
    {
      "inputs": [
        {
          "internalType": "address",
          "name": "_vcAddress",
          "type": "address"
        }
      ],
      "name": "removeVC",
      "outputs": [],
      "stateMutability": "nonpayable",
      "type": "function"
    },
    {
      "inputs": [
        {
          "internalType": "uint256",
          "name": "_vestingId",
          "type": "uint256"
        }
      ],
      "name": "release",
      "outputs": [],
      "stateMutability": "nonpayable",
      "type": "function"
    },
    {
      "inputs": [
        {
          "internalType": "uint256",
          "name": "_amount",
          "type": "uint256"
        }
      ],
      "name": "retrieveExcessTokens",
      "outputs": [],
      "stateMutability": "nonpayable",
      "type": "function"
    }
  ],
  "bytecode": "0x60a06040523060805234801561001457600080fd5b5060805161230861004560003960008181610a6b01528181610aab01528181610e2f0152610e6f01526123086000f3fe60806040526004361061011f5760003560e01c80634f6288ae116100a0578063b59d74d911610064578063b59d74d914610400578063c4d66de814610420578063c92aec2214610440578063d547741f14610455578063e25222cf1461047557600080fd5b80634f6288ae146102835780636eb4809614610329578063821bee731461034957806391d14854146103cb578063a217fddf146103eb57600080fd5b806330c7be2c116100e757806330c7be2c146101ee57806336568abe146102105780633659cfe61461023057806337bdc99b146102505780634f1ef2861461027057600080fd5b806301ffc9a71461012457806304ca9f05146101595780630f06559814610170578063248a9ca3146101905780632f2ff15d146101ce575b600080fd5b34801561013057600080fd5b5061014461013f366004611cb7565b610495565b60405190151581526020015b60405180910390f35b34801561016557600080fd5b5061016e6104cc565b005b34801561017c57600080fd5b5061016e61018b366004611cf6565b610846565b34801561019c57600080fd5b506101c06101ab366004611d13565b60009081526065602052604090206001015490565b604051908152602001610150565b3480156101da57600080fd5b5061016e6101e9366004611d2c565b6109b7565b3480156101fa57600080fd5b506101c06000805160206122b383398151915281565b34801561021c57600080fd5b5061016e61022b366004611d2c565b6109e2565b34801561023c57600080fd5b5061016e61024b366004611cf6565b610a60565b34801561025c57600080fd5b5061016e61026b366004611d13565b610b29565b61016e61027e366004611dcc565b610e24565b34801561028f57600080fd5b506102e961029e366004611cf6565b60ff6020819052600091825260409091208054600182015460028301546003840154600485015460059095015493959294919390926001600160a01b03821691600160a01b90041687565b60408051978852602088019690965294860193909352606085019190915260808401526001600160a01b031660a0830152151560c082015260e001610150565b34801561033557600080fd5b5061016e610344366004611d13565b610eda565b34801561035557600080fd5b5061039a610364366004611d13565b60fe602052600090815260409020805460018201546002909201549091906001600160a01b03811690600160a01b900460ff1684565b604051610150949392919093845260208401929092526001600160a01b031660408301521515606082015260800190565b3480156103d757600080fd5b506101446103e6366004611d2c565b611040565b3480156103f757600080fd5b506101c0600081565b34801561040c57600080fd5b5061016e61041b366004611d13565b61106b565b34801561042c57600080fd5b5061016e61043b366004611cf6565b61108a565b34801561044c57600080fd5b506101c06111e9565b34801561046157600080fd5b5061016e610470366004611d2c565b61120c565b34801561048157600080fd5b5061016e610490366004611e82565b611232565b60006001600160e01b03198216637965db0b60e01b14806104c657506301ffc9a760e01b6001600160e01b03198316145b92915050565b33600090815260ff6020818152604092839020835160e08101855281548082526001830154938201939093526002820154948101949094526003810154606085015260048101546080850152600501546001600160a01b03811660a0850152600160a01b9004909116151560c08301526105815760405162461bcd60e51b81526020600482015260116024820152706e6f7420666f756e6420767320696e666f60781b60448201526064015b60405180910390fd5b805142116105d15760405162461bcd60e51b815260206004820152601760248201527f4e6f74207965742074696d6520746f207069636b2075700000000000000000006044820152606401610578565b60c08101511561061a5760405162461bcd60e51b8152602060048201526014602482015273223ab83634b1b0ba329021b7b63632b1ba34b7b760611b6044820152606401610578565b60008160200151116106655760405162461bcd60e51b8152602060048201526014602482015273496e73756666696369656e742062616c616e636560601b6044820152606401610578565b600061068d60646106878460800151856020015161146090919063ffffffff16565b90611473565b905060006106a882846020015161147f90919063ffffffff16565b90506106c3836020015160fc5461147f90919063ffffffff16565b60fc5580156107505760006106e584606001518361147390919063ffffffff16565b905062278d0060015b8560600151811161074c5760006107286107088385611fa6565b610722858a6040015161071b9190611fa6565b429061148b565b9061148b565b90506107398760a001518286611497565b508061074481611fc5565b9150506106ee565b5050505b811561081e5760fb5460a084015160405163a9059cbb60e01b81526001600160a01b0391821660048201526024810185905291169063a9059cbb90604401602060405180830381600087803b1580156107a857600080fd5b505af11580156107bc573d6000803e3d6000fd5b505050506040513d601f19601f820116820180604052508101906107e09190611fe0565b61081e5760405162461bcd60e51b815260206004820152600f60248201526e1d1c985b9cd9995c8819985a5b1959608a1b6044820152606401610578565b505033600090815260ff60205260409020600501805460ff60a01b1916600160a01b17905550565b6000805160206122b383398151915261085f81336115ca565b6001600160a01b03808316600090815260ff6020818152604092839020835160e081018552815480825260018301549382019390935260028201549481019490945260038101546060850152600481015460808501526005015493841660a0840152600160a01b90930416151560c0820152906109125760405162461bcd60e51b81526020600482015260116024820152706e6f7420666f756e6420767320696e666f60781b6044820152606401610578565b60c0810151156109575760405162461bcd60e51b815260206004820152601060248201526f1d98c81cdd185c9d081c9958da5d995960821b6044820152606401610578565b602081015160fc546109689161147f565b60fc5550506001600160a01b0316600090815260ff60205260408120818155600181018290556002810182905560038101829055600481019190915560050180546001600160a81b0319169055565b6000828152606560205260409020600101546109d381336115ca565b6109dd838361162e565b505050565b6001600160a01b0381163314610a525760405162461bcd60e51b815260206004820152602f60248201527f416363657373436f6e74726f6c3a2063616e206f6e6c792072656e6f756e636560448201526e103937b632b9903337b91039b2b63360891b6064820152608401610578565b610a5c82826116b4565b5050565b306001600160a01b037f0000000000000000000000000000000000000000000000000000000000000000161415610aa95760405162461bcd60e51b815260040161057890611ffd565b7f00000000000000000000000000000000000000000000000000000000000000006001600160a01b0316610adb61171b565b6001600160a01b031614610b015760405162461bcd60e51b815260040161057890612049565b610b0a81611749565b60408051600080825260208201909252610b2691839190611755565b50565b600081815260fe6020908152604091829020600281015483518085019094526012845271125b9d985b1a59081d995cdd1a5b99c81a5960721b9284019290925291906001600160a01b0316610b915760405162461bcd60e51b815260040161057891906120c5565b50600281015460408051808201909152601881527f56657374696e6720616c72656164792072656c65617365640000000000000000602082015290600160a01b900460ff1615610bf45760405162461bcd60e51b815260040161057891906120c5565b50805460408051808201909152601a81527f546f6b656e732068617665206e6f742076657374656420796574000000000000602082015290421015610c4c5760405162461bcd60e51b815260040161057891906120c5565b50600181015460fb546040516370a0823160e01b81523060048201526001600160a01b03909116906370a082319060240160206040518083038186803b158015610c9557600080fd5b505afa158015610ca9573d6000803e3d6000fd5b505050506040513d601f19601f82011682018060405250810190610ccd91906120f8565b101560405180604001604052806014815260200173496e73756666696369656e742062616c616e636560601b81525090610d1a5760405162461bcd60e51b815260040161057891906120c5565b5060028101805460ff60a01b1916600160a01b179055600181015460fc54610d419161147f565b60fc5560fb546002820154600183015460405163a9059cbb60e01b81526001600160a01b039283166004820152602481019190915291169063a9059cbb90604401602060405180830381600087803b158015610d9c57600080fd5b505af1158015610db0573d6000803e3d6000fd5b505050506040513d601f19601f82011682018060405250810190610dd49190611fe0565b50600281015460018201546040519081526001600160a01b039091169083907f295ac83a3c5cf518a125ba974be97dca6a668bae6dd90b6902b2618cdff1fcc69060200160405180910390a35050565b306001600160a01b037f0000000000000000000000000000000000000000000000000000000000000000161415610e6d5760405162461bcd60e51b815260040161057890611ffd565b7f00000000000000000000000000000000000000000000000000000000000000006001600160a01b0316610e9f61171b565b6001600160a01b031614610ec55760405162461bcd60e51b815260040161057890612049565b610ece82611749565b610a5c82826001611755565b6000610ee681336115ca565b60fc5460fb546040516370a0823160e01b8152306004820152610f6d92916001600160a01b0316906370a082319060240160206040518083038186803b158015610f2f57600080fd5b505afa158015610f43573d6000803e3d6000fd5b505050506040513d601f19601f82011682018060405250810190610f6791906120f8565b9061147f565b82111560405180604001604052806014815260200173496e73756666696369656e742062616c616e636560601b81525090610fbb5760405162461bcd60e51b815260040161057891906120c5565b5060fb5460405163a9059cbb60e01b8152336004820152602481018490526001600160a01b039091169063a9059cbb90604401602060405180830381600087803b15801561100857600080fd5b505af115801561101c573d6000803e3d6000fd5b505050506040513d601f19601f820116820180604052508101906109dd9190611fe0565b60009182526065602090815260408084206001600160a01b0393909316845291905290205460ff1690565b6000805160206122b383398151915261108481336115ca565b5060fc55565b600054610100900460ff166110a55760005460ff16156110a9565b303b155b61110c5760405162461bcd60e51b815260206004820152602e60248201527f496e697469616c697a61626c653a20636f6e747261637420697320616c72656160448201526d191e481a5b9a5d1a585b1a5e995960921b6064820152608401610578565b600054610100900460ff1615801561112e576000805461ffff19166101011790555b6001600160a01b0382166111845760405162461bcd60e51b815260206004820152601f60248201527f4d454c4420746f6b656e2061646472657373206973206e6f742076616c6964006044820152606401610578565b61118c6118a0565b6111976000336118e1565b6111af6000805160206122b3833981519152336118e1565b60fb80546001600160a01b0319166001600160a01b038416179055600060fd81905560fc558015610a5c576000805461ff00191690555050565b60006000805160206122b383398151915261120481336115ca565b505060fc5490565b60008281526065602052604090206001015461122881336115ca565b6109dd83836116b4565b6000805160206122b383398151915261124b81336115ca565b60005b82518160ff1610156109dd576000838260ff168151811061127157611271612111565b60209081029190910181015160a08101516001600160a01b0316600090815260ff928390526040902060050154909250600160a01b900416156112ed5760405162461bcd60e51b8152602060048201526014602482015273223ab83634b1b0ba329021b7b63632b1ba34b7b760611b6044820152606401610578565b60a0808201516001600160a01b03908116600090815260ff6020818152604092839020835160e08101855281548152600182015492810183905260028201549481019490945260038101546060850152600481015460808501526005015493841694830194909452600160a01b909204909116151560c0820152901561138257602081015160fc5461137e9161147f565b60fc555b60a0820180516001600160a01b03908116600090815260ff6020908152604091829020865181559086015160018201819055918601516002820155606086015160038201556080860151600482015592516005909301805460c08701511515600160a01b026001600160a81b031990911694909316939093179190911790915560fc5461140e9161148b565b60fc5560a08201516040516001600160a01b03909116907f3923112fb6700bb5356925b4b26605d1d640e670c8b43fb6c2847443e1a6d57990600090a25050808061145890612127565b91505061124e565b600061146c8284611fa6565b9392505050565b600061146c8284612147565b600061146c8284612169565b600061146c8284612180565b60408051808201909152601b81527f496e76616c69642062656e65666963696172792061646472657373000000000060208201526001600160a01b0384166114f25760405162461bcd60e51b815260040161057891906120c5565b5060fc54611500908261148b565b60fc5560fd5461151190600161148b565b60fd8181556040805160808101825285815260208082018681526001600160a01b03808a1684860181815260006060870181815299815260fe90955293869020945185559151600185015591516002909301805496511515600160a01b026001600160a81b0319909716939092169290921794909417909355905490517ffbd41c6118c5ed14f196c270a1793d95e8517e43031d9bb61aa71cb2a38bf557906115bd9085815260200190565b60405180910390a3505050565b6115d48282611040565b610a5c576115ec816001600160a01b031660146118eb565b6115f78360206118eb565b604051602001611608929190612198565b60408051601f198184030181529082905262461bcd60e51b8252610578916004016120c5565b6116388282611040565b610a5c5760008281526065602090815260408083206001600160a01b03851684529091529020805460ff191660011790556116703390565b6001600160a01b0316816001600160a01b0316837f2f8788117e7eff1d82e926ec794901d17c78024a50270940304540a733656f0d60405160405180910390a45050565b6116be8282611040565b15610a5c5760008281526065602090815260408083206001600160a01b0385168085529252808320805460ff1916905551339285917ff6391f5c32d9c69d2a47ea670b442974b53935d1edc7fd64eb21e047a839171b9190a45050565b7f360894a13ba1a3210667c828492db98dca3e2076cc3735a920a3ca505d382bbc546001600160a01b031690565b6000610a5c81336115ca565b600061175f61171b565b905061176a84611a87565b6000835111806117775750815b15611788576117868484611b2c565b505b7f4910fdfa16fed3260ed0e7147f7cc6da11a60208b5b9406d12a635614ffd9143805460ff1661189957805460ff191660011781556040516001600160a01b038316602482015261180790869060440160408051601f198184030181529190526020810180516001600160e01b0316631b2ce7f360e11b179052611b2c565b50805460ff1916815561181861171b565b6001600160a01b0316826001600160a01b0316146118905760405162461bcd60e51b815260206004820152602f60248201527f45524331393637557067726164653a207570677261646520627265616b73206660448201526e75727468657220757067726164657360881b6064820152608401610578565b61189985611c17565b5050505050565b600054610100900460ff166118c75760405162461bcd60e51b81526004016105789061220d565b6118cf611c57565b6118d7611c57565b6118df611c57565b565b610a5c828261162e565b606060006118fa836002611fa6565b611905906002612180565b67ffffffffffffffff81111561191d5761191d611d5c565b6040519080825280601f01601f191660200182016040528015611947576020820181803683370190505b509050600360fc1b8160008151811061196257611962612111565b60200101906001600160f81b031916908160001a905350600f60fb1b8160018151811061199157611991612111565b60200101906001600160f81b031916908160001a90535060006119b5846002611fa6565b6119c0906001612180565b90505b6001811115611a38576f181899199a1a9b1b9c1cb0b131b232b360811b85600f16601081106119f4576119f4612111565b1a60f81b828281518110611a0a57611a0a612111565b60200101906001600160f81b031916908160001a90535060049490941c93611a3181612258565b90506119c3565b50831561146c5760405162461bcd60e51b815260206004820181905260248201527f537472696e67733a20686578206c656e67746820696e73756666696369656e746044820152606401610578565b803b611aeb5760405162461bcd60e51b815260206004820152602d60248201527f455243313936373a206e657720696d706c656d656e746174696f6e206973206e60448201526c1bdd08184818dbdb9d1c9858dd609a1b6064820152608401610578565b7f360894a13ba1a3210667c828492db98dca3e2076cc3735a920a3ca505d382bbc80546001600160a01b0319166001600160a01b0392909216919091179055565b6060823b611b8b5760405162461bcd60e51b815260206004820152602660248201527f416464726573733a2064656c65676174652063616c6c20746f206e6f6e2d636f6044820152651b9d1c9858dd60d21b6064820152608401610578565b600080846001600160a01b031684604051611ba6919061226f565b600060405180830381855af49150503d8060008114611be1576040519150601f19603f3d011682016040523d82523d6000602084013e611be6565b606091505b5091509150611c0e828260405180606001604052806027815260200161228c60279139611c7e565b95945050505050565b611c2081611a87565b6040516001600160a01b038216907fbc7cd75a20ee27fd9adebab32041f755214dbc6bffa90cc0225b39da2e5c2d3b90600090a250565b600054610100900460ff166118df5760405162461bcd60e51b81526004016105789061220d565b60608315611c8d57508161146c565b825115611c9d5782518084602001fd5b8160405162461bcd60e51b815260040161057891906120c5565b600060208284031215611cc957600080fd5b81356001600160e01b03198116811461146c57600080fd5b6001600160a01b0381168114610b2657600080fd5b600060208284031215611d0857600080fd5b813561146c81611ce1565b600060208284031215611d2557600080fd5b5035919050565b60008060408385031215611d3f57600080fd5b823591506020830135611d5181611ce1565b809150509250929050565b634e487b7160e01b600052604160045260246000fd5b60405160e0810167ffffffffffffffff81118282101715611d9557611d95611d5c565b60405290565b604051601f8201601f1916810167ffffffffffffffff81118282101715611dc457611dc4611d5c565b604052919050565b60008060408385031215611ddf57600080fd5b8235611dea81611ce1565b915060208381013567ffffffffffffffff80821115611e0857600080fd5b818601915086601f830112611e1c57600080fd5b813581811115611e2e57611e2e611d5c565b611e40601f8201601f19168501611d9b565b91508082528784828501011115611e5657600080fd5b80848401858401376000848284010152508093505050509250929050565b8015158114610b2657600080fd5b60006020808385031215611e9557600080fd5b823567ffffffffffffffff80821115611ead57600080fd5b818501915085601f830112611ec157600080fd5b813581811115611ed357611ed3611d5c565b611ee1848260051b01611d9b565b818152848101925060e0918202840185019188831115611f0057600080fd5b938501935b82851015611f845780858a031215611f1d5760008081fd5b611f25611d72565b85358152868601358782015260408087013590820152606080870135908201526080808701359082015260a080870135611f5e81611ce1565b9082015260c086810135611f7181611e74565b9082015284529384019392850192611f05565b50979650505050505050565b634e487b7160e01b600052601160045260246000fd5b6000816000190483118215151615611fc057611fc0611f90565b500290565b6000600019821415611fd957611fd9611f90565b5060010190565b600060208284031215611ff257600080fd5b815161146c81611e74565b6020808252602c908201527f46756e6374696f6e206d7573742062652063616c6c6564207468726f7567682060408201526b19195b1959d85d1958d85b1b60a21b606082015260800190565b6020808252602c908201527f46756e6374696f6e206d7573742062652063616c6c6564207468726f7567682060408201526b6163746976652070726f787960a01b606082015260800190565b60005b838110156120b0578181015183820152602001612098565b838111156120bf576000848401525b50505050565b60208152600082518060208401526120e4816040850160208701612095565b601f01601f19169190910160400192915050565b60006020828403121561210a57600080fd5b5051919050565b634e487b7160e01b600052603260045260246000fd5b600060ff821660ff81141561213e5761213e611f90565b60010192915050565b60008261216457634e487b7160e01b600052601260045260246000fd5b500490565b60008282101561217b5761217b611f90565b500390565b6000821982111561219357612193611f90565b500190565b7f416363657373436f6e74726f6c3a206163636f756e74200000000000000000008152600083516121d0816017850160208801612095565b7001034b99036b4b9b9b4b733903937b6329607d1b6017918401918201528351612201816028840160208801612095565b01602801949350505050565b6020808252602b908201527f496e697469616c697a61626c653a20636f6e7472616374206973206e6f74206960408201526a6e697469616c697a696e6760a81b606082015260800190565b60008161226757612267611f90565b506000190190565b60008251612281818460208701612095565b919091019291505056fe416464726573733a206c6f772d6c6576656c2064656c65676174652063616c6c206661696c6564f5eb84615c2a00ecaf817d13794ebd6299c9e01c395bf4018453f13f577f5449a264697066735822122089c54adbe0848816d15163fb8391c96f22fc0ed7c6cbf9d0c721c64cf7b7dd1064736f6c63430008090033",
  "immutableReferences": {
    "1051": [
      {
        "length": 32,
        "start": 2667
      },
      {
        "length": 32,
        "start": 2731
      },
      {
        "length": 32,
        "start": 3631
      },
      {
        "length": 32,
        "start": 3695
      }
    ]
  },
  "source": "// SPDX-License-Identifier: MIT\npragma solidity 0.8.9;\n\nimport \"@openzeppelin/contracts-upgradeable/token/ERC20/ERC20Upgradeable.sol\";\nimport \"@openzeppelin/contracts-upgradeable/security/PausableUpgradeable.sol\";\nimport \"@openzeppelin/contracts-upgradeable/proxy/utils/Initializable.sol\";\nimport \"@openzeppelin/contracts-upgradeable/access/AccessControlUpgradeable.sol\";\nimport \"@openzeppelin/contracts-upgradeable/proxy/utils/UUPSUpgradeable.sol\";\nimport \"@openzeppelin/contracts-upgradeable/utils/AddressUpgradeable.sol\";\nimport \"@openzeppelin/contracts-upgradeable/utils/math/SafeMathUpgradeable.sol\";\n\ncontract VestPoolV3 is AccessControlUpgradeable, UUPSUpgradeable {\n    bytes32 public constant GM_ROLE = keccak256(\"GM_ROLE\");\n\n    using SafeMathUpgradeable for uint256;\n\n    ERC20Upgradeable private MELDToken;\n\n    uint256 private tokensToVest;\n    uint256 private vestingId;\n\n    string private constant INSUFFICIENT_BALANCE = \"Insufficient balance\";\n    string private constant INVALID_VESTING_ID = \"Invalid vesting id\";\n    string private constant VESTING_ALREADY_RELEASED =\n\"Vesting already released\";\n    string private constant INVALID_BENEFICIARY = \"Invalid beneficiary address\";\n    string private constant NOT_VESTED = \"Tokens have not vested yet\";\n\n    struct Vesting {\n        uint256 releaseTime;\n        uint256 amount;\n        address beneficiary;\n        bool released;\n    }\n    struct VC {\n        uint256 timeOfTGE;\n        uint256 amount;\n        uint256 cliffMonth;\n        uint256 vestingMonth;\n        uint256 unlockTGE;\n        address beneficiary;\n        bool recived;\n    }\n    mapping(uint256 => Vesting) public vestings;\n    mapping(address => VC) public vcmap;\n\n    event VCAdd(address indexed vcAddress);\n    event TokenVestingReleased(\n        uint256 indexed vestingId,\n        address indexed beneficiary,\n        uint256 amount\n    );\n    event TokenVestingAdded(\n        uint256 indexed vestingId,\n        address indexed beneficiary,\n        uint256 amount\n    );\n    event TokenVestingRemoved(\n        uint256 indexed vestingId,\n        address indexed beneficiary,\n        uint256 amount\n    );\n\n    function initialize(ERC20Upgradeable _token) public initializer {\n        require(\n            address(_token) != address(0x0),\n            \"MELD token address is not valid\"\n        );\n        __AccessControl_init();\n        _setupRole(DEFAULT_ADMIN_ROLE, msg.sender);\n        _setupRole(GM_ROLE, msg.sender);\n        MELDToken = _token;\n        vestingId = 0;\n        tokensToVest = 0;\n    }\n\n    // Manual fixed v1 tokenToVest;\n    function fixedTokensToVest(uint256 _tokensToVest) public onlyRole(GM_ROLE) {\n        tokensToVest = _tokensToVest;\n    }\n\n    function viewTokenToVest() public view onlyRole(GM_ROLE) returns (uint256) {\n        return tokensToVest;\n    }\n\n    // Batch add VC list\n    function addMultipleVC(VC[] memory _vcs) public onlyRole(GM_ROLE) {\n        for (uint8 i = 0; i < _vcs.length; i++) {\n            VC memory vc = _vcs[i];\n            require(\n                vcmap[vc.beneficiary].recived == false,\n                \"Duplicate Collection\"\n            );\n\n            VC memory oldvc = vcmap[vc.beneficiary];\n            if (oldvc.amount > 0) {\n                tokensToVest = tokensToVest.sub(oldvc.amount);\n            }\n\n            vcmap[vc.beneficiary] = vc;\n\n            tokensToVest = tokensToVest.add(vc.amount);\n\n            emit VCAdd(vc.beneficiary);\n        }\n    }\n\n    function reviceTGE() public {\n        VC memory vc = vcmap[msg.sender];\n        require(vc.timeOfTGE > 0, \"not found vs info\");\n        require(vc.timeOfTGE < block.timestamp, \"Not yet time to pick up\");\n        require(vc.recived == false, \"Duplicate Collection\");\n        require(vc.amount > 0, \"Insufficient balance\");\n\n        // Calculate token vesting\n        // Unlocked @TGE\n        // The rest are released once a month\n        uint256 unlockedTGETokens = vc.amount.mul(vc.unlockTGE).div(100);\n        uint256 lockedTokens = vc.amount.sub(unlockedTGETokens);\n\n        tokensToVest = tokensToVest.sub(vc.amount);\n\n        if (lockedTokens > 0) {\n            uint256 unlockedTokensEveryMonth = lockedTokens.div(\n                vc.vestingMonth\n            );\n            uint256 vestingPeriod = 30 days;\n\n            for (uint256 month = 1; month <= vc.vestingMonth; month++) {\n                uint256 releaseTime = block\n                    .timestamp\n                    .add(vc.cliffMonth * vestingPeriod)\n                    .add(vestingPeriod * month);\n                addVesting(\n                    vc.beneficiary,\n                    releaseTime,\n                    unlockedTokensEveryMonth\n                );\n            }\n        }\n        \n        if (unlockedTGETokens > 0) {\n            require(\n                MELDToken.transfer(vc.beneficiary, unlockedTGETokens),\n                \"transfer failed\"\n            );\n        }\n\n        vcmap[msg.sender].recived = true;\n    }\n\n    function removeVC(address _vcAddress) public onlyRole(GM_ROLE) {\n        VC memory vc = vcmap[_vcAddress];\n        require(vc.timeOfTGE > 0, \"not found vs info\");\n        require(vc.recived == false, \"vc start recived\");\n        tokensToVest = tokensToVest.sub(vc.amount);\n        delete vcmap[_vcAddress];\n    }\n\n    function addVesting(\n        address _beneficiary,\n        uint256 _releaseTime,\n        uint256 _amount\n    ) private {\n        require(_beneficiary != address(0x0), INVALID_BENEFICIARY);\n        tokensToVest = tokensToVest.add(_amount);\n        vestingId = vestingId.add(1);\n        vestings[vestingId] = Vesting({\n            beneficiary: _beneficiary,\n            releaseTime: _releaseTime,\n            amount: _amount,\n            released: false\n        });\n        emit TokenVestingAdded(vestingId, _beneficiary, _amount);\n    }\n\n    function release(uint256 _vestingId) public {\n        Vesting storage vesting = vestings[_vestingId];\n        require(vesting.beneficiary != address(0x0), INVALID_VESTING_ID);\n        require(!vesting.released, VESTING_ALREADY_RELEASED);\n        require(block.timestamp >= vesting.releaseTime, NOT_VESTED);\n        require(\n            MELDToken.balanceOf(address(this)) >= vesting.amount,\n            INSUFFICIENT_BALANCE\n        );\n        vesting.released = true;\n        tokensToVest = tokensToVest.sub(vesting.amount);\n        MELDToken.transfer(vesting.beneficiary, vesting.amount);\n        emit TokenVestingReleased(\n            _vestingId,\n            vesting.beneficiary,\n            vesting.amount\n        ); \n    }\n\n    function retrieveExcessTokens(uint256 _amount)\n        public\n        onlyRole(DEFAULT_ADMIN_ROLE)\n    {\n        require(\n            _amount <= MELDToken.balanceOf(address(this)).sub(tokensToVest),\n            INSUFFICIENT_BALANCE\n        );\n        MELDToken.transfer(msg.sender, _amount);\n    }\n\n    function _authorizeUpgrade(address newImplementation)\n        internal\n        override\n        onlyRole(DEFAULT_ADMIN_ROLE)\n    {}\n}\n",
  "sourcePath": "/Users/alberthuang/code/icw/meland/contracts/VestPoolV3.sol",
  "compiler": {
    "name": "solc",
    "version": "0.8.9+commit.e5eed63a.Emscripten.clang"
  },
  "schemaVersion": "3.4.3",
  "updatedAt": "2021-12-27T13:19:06.134Z",
  "devdoc": {
    "kind": "dev",
    "methods": {
      "getRoleAdmin(bytes32)": {
        "details": "Returns the admin role that controls `role`. See {grantRole} and {revokeRole}. To change a role's admin, use {_setRoleAdmin}."
      },
      "grantRole(bytes32,address)": {
        "details": "Grants `role` to `account`. If `account` had not been already granted `role`, emits a {RoleGranted} event. Requirements: - the caller must have ``role``'s admin role."
      },
      "hasRole(bytes32,address)": {
        "details": "Returns `true` if `account` has been granted `role`."
      },
      "renounceRole(bytes32,address)": {
        "details": "Revokes `role` from the calling account. Roles are often managed via {grantRole} and {revokeRole}: this function's purpose is to provide a mechanism for accounts to lose their privileges if they are compromised (such as when a trusted device is misplaced). If the calling account had been revoked `role`, emits a {RoleRevoked} event. Requirements: - the caller must be `account`."
      },
      "revokeRole(bytes32,address)": {
        "details": "Revokes `role` from `account`. If `account` had been granted `role`, emits a {RoleRevoked} event. Requirements: - the caller must have ``role``'s admin role."
      },
      "supportsInterface(bytes4)": {
        "details": "See {IERC165-supportsInterface}."
      },
      "upgradeTo(address)": {
        "details": "Upgrade the implementation of the proxy to `newImplementation`. Calls {_authorizeUpgrade}. Emits an {Upgraded} event."
      },
      "upgradeToAndCall(address,bytes)": {
        "details": "Upgrade the implementation of the proxy to `newImplementation`, and subsequently execute the function call encoded in `data`. Calls {_authorizeUpgrade}. Emits an {Upgraded} event."
      }
    },
    "version": 1
  },
  "userdoc": {
    "kind": "user",
    "methods": {},
    "version": 1
  }
}