{
  "contractName": "VestPool",
  "abi": [
    {
      "anonymous": false,
      "inputs": [
        {
          "indexed": false,
          "internalType": "address",
          "name": "previousAdmin",
          "type": "address"
        },
        {
          "indexed": false,
          "internalType": "address",
          "name": "newAdmin",
          "type": "address"
        }
      ],
      "name": "AdminChanged",
      "type": "event"
    },
    {
      "anonymous": false,
      "inputs": [
        {
          "indexed": true,
          "internalType": "address",
          "name": "beacon",
          "type": "address"
        }
      ],
      "name": "BeaconUpgraded",
      "type": "event"
    },
    {
      "anonymous": false,
      "inputs": [
        {
          "indexed": true,
          "internalType": "bytes32",
          "name": "role",
          "type": "bytes32"
        },
        {
          "indexed": true,
          "internalType": "bytes32",
          "name": "previousAdminRole",
          "type": "bytes32"
        },
        {
          "indexed": true,
          "internalType": "bytes32",
          "name": "newAdminRole",
          "type": "bytes32"
        }
      ],
      "name": "RoleAdminChanged",
      "type": "event"
    },
    {
      "anonymous": false,
      "inputs": [
        {
          "indexed": true,
          "internalType": "bytes32",
          "name": "role",
          "type": "bytes32"
        },
        {
          "indexed": true,
          "internalType": "address",
          "name": "account",
          "type": "address"
        },
        {
          "indexed": true,
          "internalType": "address",
          "name": "sender",
          "type": "address"
        }
      ],
      "name": "RoleGranted",
      "type": "event"
    },
    {
      "anonymous": false,
      "inputs": [
        {
          "indexed": true,
          "internalType": "bytes32",
          "name": "role",
          "type": "bytes32"
        },
        {
          "indexed": true,
          "internalType": "address",
          "name": "account",
          "type": "address"
        },
        {
          "indexed": true,
          "internalType": "address",
          "name": "sender",
          "type": "address"
        }
      ],
      "name": "RoleRevoked",
      "type": "event"
    },
    {
      "anonymous": false,
      "inputs": [
        {
          "indexed": true,
          "internalType": "uint256",
          "name": "vestingId",
          "type": "uint256"
        },
        {
          "indexed": true,
          "internalType": "address",
          "name": "beneficiary",
          "type": "address"
        },
        {
          "indexed": false,
          "internalType": "uint256",
          "name": "amount",
          "type": "uint256"
        }
      ],
      "name": "TokenVestingAdded",
      "type": "event"
    },
    {
      "anonymous": false,
      "inputs": [
        {
          "indexed": true,
          "internalType": "uint256",
          "name": "vestingId",
          "type": "uint256"
        },
        {
          "indexed": true,
          "internalType": "address",
          "name": "beneficiary",
          "type": "address"
        },
        {
          "indexed": false,
          "internalType": "uint256",
          "name": "amount",
          "type": "uint256"
        }
      ],
      "name": "TokenVestingReleased",
      "type": "event"
    },
    {
      "anonymous": false,
      "inputs": [
        {
          "indexed": true,
          "internalType": "uint256",
          "name": "vestingId",
          "type": "uint256"
        },
        {
          "indexed": true,
          "internalType": "address",
          "name": "beneficiary",
          "type": "address"
        },
        {
          "indexed": false,
          "internalType": "uint256",
          "name": "amount",
          "type": "uint256"
        }
      ],
      "name": "TokenVestingRemoved",
      "type": "event"
    },
    {
      "anonymous": false,
      "inputs": [
        {
          "indexed": true,
          "internalType": "address",
          "name": "implementation",
          "type": "address"
        }
      ],
      "name": "Upgraded",
      "type": "event"
    },
    {
      "anonymous": false,
      "inputs": [
        {
          "indexed": true,
          "internalType": "address",
          "name": "vcAddress",
          "type": "address"
        }
      ],
      "name": "VCAdd",
      "type": "event"
    },
    {
      "inputs": [],
      "name": "DEFAULT_ADMIN_ROLE",
      "outputs": [
        {
          "internalType": "bytes32",
          "name": "",
          "type": "bytes32"
        }
      ],
      "stateMutability": "view",
      "type": "function"
    },
    {
      "inputs": [],
      "name": "GM_ROLE",
      "outputs": [
        {
          "internalType": "bytes32",
          "name": "",
          "type": "bytes32"
        }
      ],
      "stateMutability": "view",
      "type": "function"
    },
    {
      "inputs": [
        {
          "internalType": "bytes32",
          "name": "role",
          "type": "bytes32"
        }
      ],
      "name": "getRoleAdmin",
      "outputs": [
        {
          "internalType": "bytes32",
          "name": "",
          "type": "bytes32"
        }
      ],
      "stateMutability": "view",
      "type": "function"
    },
    {
      "inputs": [
        {
          "internalType": "bytes32",
          "name": "role",
          "type": "bytes32"
        },
        {
          "internalType": "address",
          "name": "account",
          "type": "address"
        }
      ],
      "name": "grantRole",
      "outputs": [],
      "stateMutability": "nonpayable",
      "type": "function"
    },
    {
      "inputs": [
        {
          "internalType": "bytes32",
          "name": "role",
          "type": "bytes32"
        },
        {
          "internalType": "address",
          "name": "account",
          "type": "address"
        }
      ],
      "name": "hasRole",
      "outputs": [
        {
          "internalType": "bool",
          "name": "",
          "type": "bool"
        }
      ],
      "stateMutability": "view",
      "type": "function"
    },
    {
      "inputs": [
        {
          "internalType": "bytes32",
          "name": "role",
          "type": "bytes32"
        },
        {
          "internalType": "address",
          "name": "account",
          "type": "address"
        }
      ],
      "name": "renounceRole",
      "outputs": [],
      "stateMutability": "nonpayable",
      "type": "function"
    },
    {
      "inputs": [
        {
          "internalType": "bytes32",
          "name": "role",
          "type": "bytes32"
        },
        {
          "internalType": "address",
          "name": "account",
          "type": "address"
        }
      ],
      "name": "revokeRole",
      "outputs": [],
      "stateMutability": "nonpayable",
      "type": "function"
    },
    {
      "inputs": [
        {
          "internalType": "bytes4",
          "name": "interfaceId",
          "type": "bytes4"
        }
      ],
      "name": "supportsInterface",
      "outputs": [
        {
          "internalType": "bool",
          "name": "",
          "type": "bool"
        }
      ],
      "stateMutability": "view",
      "type": "function"
    },
    {
      "inputs": [
        {
          "internalType": "address",
          "name": "newImplementation",
          "type": "address"
        }
      ],
      "name": "upgradeTo",
      "outputs": [],
      "stateMutability": "nonpayable",
      "type": "function"
    },
    {
      "inputs": [
        {
          "internalType": "address",
          "name": "newImplementation",
          "type": "address"
        },
        {
          "internalType": "bytes",
          "name": "data",
          "type": "bytes"
        }
      ],
      "name": "upgradeToAndCall",
      "outputs": [],
      "stateMutability": "payable",
      "type": "function"
    },
    {
      "inputs": [
        {
          "internalType": "address",
          "name": "",
          "type": "address"
        }
      ],
      "name": "vcmap",
      "outputs": [
        {
          "internalType": "uint256",
          "name": "timeOfTGE",
          "type": "uint256"
        },
        {
          "internalType": "uint256",
          "name": "amount",
          "type": "uint256"
        },
        {
          "internalType": "uint256",
          "name": "cliffMonth",
          "type": "uint256"
        },
        {
          "internalType": "uint256",
          "name": "vestingMonth",
          "type": "uint256"
        },
        {
          "internalType": "uint256",
          "name": "unlockTGE",
          "type": "uint256"
        },
        {
          "internalType": "address",
          "name": "beneficiary",
          "type": "address"
        },
        {
          "internalType": "bool",
          "name": "recived",
          "type": "bool"
        }
      ],
      "stateMutability": "view",
      "type": "function"
    },
    {
      "inputs": [
        {
          "internalType": "uint256",
          "name": "",
          "type": "uint256"
        }
      ],
      "name": "vestings",
      "outputs": [
        {
          "internalType": "uint256",
          "name": "releaseTime",
          "type": "uint256"
        },
        {
          "internalType": "uint256",
          "name": "amount",
          "type": "uint256"
        },
        {
          "internalType": "address",
          "name": "beneficiary",
          "type": "address"
        },
        {
          "internalType": "bool",
          "name": "released",
          "type": "bool"
        }
      ],
      "stateMutability": "view",
      "type": "function"
    },
    {
      "inputs": [
        {
          "internalType": "contract ERC20Upgradeable",
          "name": "_token",
          "type": "address"
        }
      ],
      "name": "initialize",
      "outputs": [],
      "stateMutability": "nonpayable",
      "type": "function"
    },
    {
      "inputs": [],
      "name": "viewTokenToVest",
      "outputs": [
        {
          "internalType": "uint256",
          "name": "",
          "type": "uint256"
        }
      ],
      "stateMutability": "view",
      "type": "function"
    },
    {
      "inputs": [
        {
          "components": [
            {
              "internalType": "uint256",
              "name": "timeOfTGE",
              "type": "uint256"
            },
            {
              "internalType": "uint256",
              "name": "amount",
              "type": "uint256"
            },
            {
              "internalType": "uint256",
              "name": "cliffMonth",
              "type": "uint256"
            },
            {
              "internalType": "uint256",
              "name": "vestingMonth",
              "type": "uint256"
            },
            {
              "internalType": "uint256",
              "name": "unlockTGE",
              "type": "uint256"
            },
            {
              "internalType": "address",
              "name": "beneficiary",
              "type": "address"
            },
            {
              "internalType": "bool",
              "name": "recived",
              "type": "bool"
            }
          ],
          "internalType": "struct VestPool.VC[]",
          "name": "_vcs",
          "type": "tuple[]"
        }
      ],
      "name": "addMultipleVC",
      "outputs": [],
      "stateMutability": "nonpayable",
      "type": "function"
    },
    {
      "inputs": [],
      "name": "reviceTGE",
      "outputs": [],
      "stateMutability": "nonpayable",
      "type": "function"
    },
    {
      "inputs": [
        {
          "internalType": "address",
          "name": "_vcAddress",
          "type": "address"
        }
      ],
      "name": "removeVC",
      "outputs": [],
      "stateMutability": "nonpayable",
      "type": "function"
    },
    {
      "inputs": [
        {
          "internalType": "uint256",
          "name": "_vestingId",
          "type": "uint256"
        }
      ],
      "name": "release",
      "outputs": [],
      "stateMutability": "nonpayable",
      "type": "function"
    },
    {
      "inputs": [
        {
          "internalType": "uint256",
          "name": "_amount",
          "type": "uint256"
        }
      ],
      "name": "retrieveExcessTokens",
      "outputs": [],
      "stateMutability": "nonpayable",
      "type": "function"
    }
  ],
  "bytecode": "0x60a06040523060805234801561001457600080fd5b5060805161225c61004560003960008181610a3a01528181610a7a01528181610dfe0152610e3e015261225c6000f3fe6080604052600436106101145760003560e01c80634f1ef286116100a0578063a217fddf11610064578063a217fddf146103e0578063c4d66de8146103f5578063c92aec2214610415578063d547741f1461042a578063e25222cf1461044a57600080fd5b80634f1ef286146102655780634f6288ae146102785780636eb480961461031e578063821bee731461033e57806391d14854146103c057600080fd5b80632f2ff15d116100e75780632f2ff15d146101c357806330c7be2c146101e357806336568abe146102055780633659cfe61461022557806337bdc99b1461024557600080fd5b806301ffc9a71461011957806304ca9f051461014e5780630f06559814610165578063248a9ca314610185575b600080fd5b34801561012557600080fd5b50610139610134366004611c08565b61046a565b60405190151581526020015b60405180910390f35b34801561015a57600080fd5b506101636104a1565b005b34801561017157600080fd5b50610163610180366004611c47565b610815565b34801561019157600080fd5b506101b56101a0366004611c64565b60009081526065602052604090206001015490565b604051908152602001610145565b3480156101cf57600080fd5b506101636101de366004611c7d565b610986565b3480156101ef57600080fd5b506101b560008051602061220783398151915281565b34801561021157600080fd5b50610163610220366004611c7d565b6109b1565b34801561023157600080fd5b50610163610240366004611c47565b610a2f565b34801561025157600080fd5b50610163610260366004611c64565b610af8565b610163610273366004611d1d565b610df3565b34801561028457600080fd5b506102de610293366004611c47565b60ff6020819052600091825260409091208054600182015460028301546003840154600485015460059095015493959294919390926001600160a01b03821691600160a01b90041687565b60408051978852602088019690965294860193909352606085019190915260808401526001600160a01b031660a0830152151560c082015260e001610145565b34801561032a57600080fd5b50610163610339366004611c64565b610ea9565b34801561034a57600080fd5b5061038f610359366004611c64565b60fe602052600090815260409020805460018201546002909201549091906001600160a01b03811690600160a01b900460ff1684565b604051610145949392919093845260208401929092526001600160a01b031660408301521515606082015260800190565b3480156103cc57600080fd5b506101396103db366004611c7d565b61100f565b3480156103ec57600080fd5b506101b5600081565b34801561040157600080fd5b50610163610410366004611c47565b61103a565b34801561042157600080fd5b506101b561114c565b34801561043657600080fd5b50610163610445366004611c7d565b61116f565b34801561045657600080fd5b50610163610465366004611dd3565b611195565b60006001600160e01b03198216637965db0b60e01b148061049b57506301ffc9a760e01b6001600160e01b03198316145b92915050565b33600090815260ff6020818152604092839020835160e08101855281548082526001830154938201939093526002820154948101949094526003810154606085015260048101546080850152600501546001600160a01b03811660a0850152600160a01b9004909116151560c08301526105565760405162461bcd60e51b81526020600482015260116024820152706e6f7420666f756e6420767320696e666f60781b60448201526064015b60405180910390fd5b805142116105a65760405162461bcd60e51b815260206004820152601760248201527f4e6f74207965742074696d6520746f207069636b207570000000000000000000604482015260640161054d565b60c0810151156105ef5760405162461bcd60e51b8152602060048201526014602482015273223ab83634b1b0ba329021b7b63632b1ba34b7b760611b604482015260640161054d565b600081602001511161063a5760405162461bcd60e51b8152602060048201526014602482015273496e73756666696369656e742062616c616e636560601b604482015260640161054d565b6000610662606461065c8460800151856020015161132c90919063ffffffff16565b9061133f565b9050600061067d82846020015161134b90919063ffffffff16565b9050801561071f57600061069e84606001518361133f90919063ffffffff16565b602085015160fc5491925062278d00916106b79161134b565b60fc5560015b8560600151811161071b5760006106f76106d78385611ef7565b6106f1858a604001516106ea9190611ef7565b4290611357565b90611357565b90506107088760a001518286611363565b508061071381611f16565b9150506106bd565b5050505b81156107ed5760fb5460a084015160405163a9059cbb60e01b81526001600160a01b0391821660048201526024810185905291169063a9059cbb90604401602060405180830381600087803b15801561077757600080fd5b505af115801561078b573d6000803e3d6000fd5b505050506040513d601f19601f820116820180604052508101906107af9190611f31565b6107ed5760405162461bcd60e51b815260206004820152600f60248201526e1d1c985b9cd9995c8819985a5b1959608a1b604482015260640161054d565b505033600090815260ff60205260409020600501805460ff60a01b1916600160a01b17905550565b60008051602061220783398151915261082e8133611496565b6001600160a01b03808316600090815260ff6020818152604092839020835160e081018552815480825260018301549382019390935260028201549481019490945260038101546060850152600481015460808501526005015493841660a0840152600160a01b90930416151560c0820152906108e15760405162461bcd60e51b81526020600482015260116024820152706e6f7420666f756e6420767320696e666f60781b604482015260640161054d565b60c0810151156109265760405162461bcd60e51b815260206004820152601060248201526f1d98c81cdd185c9d081c9958da5d995960821b604482015260640161054d565b602081015160fc546109379161134b565b60fc5550506001600160a01b0316600090815260ff60205260408120818155600181018290556002810182905560038101829055600481019190915560050180546001600160a81b0319169055565b6000828152606560205260409020600101546109a28133611496565b6109ac83836114fa565b505050565b6001600160a01b0381163314610a215760405162461bcd60e51b815260206004820152602f60248201527f416363657373436f6e74726f6c3a2063616e206f6e6c792072656e6f756e636560448201526e103937b632b9903337b91039b2b63360891b606482015260840161054d565b610a2b8282611580565b5050565b306001600160a01b037f0000000000000000000000000000000000000000000000000000000000000000161415610a785760405162461bcd60e51b815260040161054d90611f4e565b7f00000000000000000000000000000000000000000000000000000000000000006001600160a01b0316610aaa6115e7565b6001600160a01b031614610ad05760405162461bcd60e51b815260040161054d90611f9a565b610ad981611615565b60408051600080825260208201909252610af591839190611621565b50565b600081815260fe6020908152604091829020600281015483518085019094526012845271125b9d985b1a59081d995cdd1a5b99c81a5960721b9284019290925291906001600160a01b0316610b605760405162461bcd60e51b815260040161054d9190612016565b50600281015460408051808201909152601881527f56657374696e6720616c72656164792072656c65617365640000000000000000602082015290600160a01b900460ff1615610bc35760405162461bcd60e51b815260040161054d9190612016565b50805460408051808201909152601a81527f546f6b656e732068617665206e6f742076657374656420796574000000000000602082015290421015610c1b5760405162461bcd60e51b815260040161054d9190612016565b50600181015460fb546040516370a0823160e01b81523060048201526001600160a01b03909116906370a082319060240160206040518083038186803b158015610c6457600080fd5b505afa158015610c78573d6000803e3d6000fd5b505050506040513d601f19601f82011682018060405250810190610c9c9190612049565b101560405180604001604052806014815260200173496e73756666696369656e742062616c616e636560601b81525090610ce95760405162461bcd60e51b815260040161054d9190612016565b5060028101805460ff60a01b1916600160a01b179055600181015460fc54610d109161134b565b60fc5560fb546002820154600183015460405163a9059cbb60e01b81526001600160a01b039283166004820152602481019190915291169063a9059cbb90604401602060405180830381600087803b158015610d6b57600080fd5b505af1158015610d7f573d6000803e3d6000fd5b505050506040513d601f19601f82011682018060405250810190610da39190611f31565b50600281015460018201546040519081526001600160a01b039091169083907f295ac83a3c5cf518a125ba974be97dca6a668bae6dd90b6902b2618cdff1fcc69060200160405180910390a35050565b306001600160a01b037f0000000000000000000000000000000000000000000000000000000000000000161415610e3c5760405162461bcd60e51b815260040161054d90611f4e565b7f00000000000000000000000000000000000000000000000000000000000000006001600160a01b0316610e6e6115e7565b6001600160a01b031614610e945760405162461bcd60e51b815260040161054d90611f9a565b610e9d82611615565b610a2b82826001611621565b6000610eb58133611496565b60fc5460fb546040516370a0823160e01b8152306004820152610f3c92916001600160a01b0316906370a082319060240160206040518083038186803b158015610efe57600080fd5b505afa158015610f12573d6000803e3d6000fd5b505050506040513d601f19601f82011682018060405250810190610f369190612049565b9061134b565b82111560405180604001604052806014815260200173496e73756666696369656e742062616c616e636560601b81525090610f8a5760405162461bcd60e51b815260040161054d9190612016565b5060fb5460405163a9059cbb60e01b8152336004820152602481018490526001600160a01b039091169063a9059cbb90604401602060405180830381600087803b158015610fd757600080fd5b505af1158015610feb573d6000803e3d6000fd5b505050506040513d601f19601f820116820180604052508101906109ac9190611f31565b60009182526065602090815260408084206001600160a01b0393909316845291905290205460ff1690565b600054610100900460ff1680611053575060005460ff16155b61106f5760405162461bcd60e51b815260040161054d90612062565b600054610100900460ff16158015611091576000805461ffff19166101011790555b6001600160a01b0382166110e75760405162461bcd60e51b815260206004820152601f60248201527f4d454c4420746f6b656e2061646472657373206973206e6f742076616c696400604482015260640161054d565b6110ef61176c565b6110fa6000336117ef565b611112600080516020612207833981519152336117ef565b60fb80546001600160a01b0319166001600160a01b038416179055600060fd81905560fc558015610a2b576000805461ff00191690555050565b60006000805160206122078339815191526111678133611496565b505060fc5490565b60008281526065602052604090206001015461118b8133611496565b6109ac8383611580565b6000805160206122078339815191526111ae8133611496565b60005b82518160ff1610156109ac576000838260ff16815181106111d4576111d46120b0565b60209081029190910181015160a08101516001600160a01b0316600090815260ff928390526040902060050154909250600160a01b900416156112505760405162461bcd60e51b8152602060048201526014602482015273223ab83634b1b0ba329021b7b63632b1ba34b7b760611b604482015260640161054d565b60a0810180516001600160a01b03908116600090815260ff6020908152604091829020855181559085015160018201819055918501516002820155606085015160038201556080850151600482015592516005909301805460c08601511515600160a01b026001600160a81b031990911694909316939093179190911790915560fc546112dc91611357565b60fc5560a08101516040516001600160a01b03909116907f3923112fb6700bb5356925b4b26605d1d640e670c8b43fb6c2847443e1a6d57990600090a25080611324816120c6565b9150506111b1565b60006113388284611ef7565b9392505050565b600061133882846120e6565b60006113388284612108565b6000611338828461211f565b60408051808201909152601b81527f496e76616c69642062656e65666963696172792061646472657373000000000060208201526001600160a01b0384166113be5760405162461bcd60e51b815260040161054d9190612016565b5060fc546113cc9082611357565b60fc5560fd546113dd906001611357565b60fd8181556040805160808101825285815260208082018681526001600160a01b03808a1684860181815260006060870181815299815260fe90955293869020945185559151600185015591516002909301805496511515600160a01b026001600160a81b0319909716939092169290921794909417909355905490517ffbd41c6118c5ed14f196c270a1793d95e8517e43031d9bb61aa71cb2a38bf557906114899085815260200190565b60405180910390a3505050565b6114a0828261100f565b610a2b576114b8816001600160a01b031660146117f9565b6114c38360206117f9565b6040516020016114d4929190612137565b60408051601f198184030181529082905262461bcd60e51b825261054d91600401612016565b611504828261100f565b610a2b5760008281526065602090815260408083206001600160a01b03851684529091529020805460ff1916600117905561153c3390565b6001600160a01b0316816001600160a01b0316837f2f8788117e7eff1d82e926ec794901d17c78024a50270940304540a733656f0d60405160405180910390a45050565b61158a828261100f565b15610a2b5760008281526065602090815260408083206001600160a01b0385168085529252808320805460ff1916905551339285917ff6391f5c32d9c69d2a47ea670b442974b53935d1edc7fd64eb21e047a839171b9190a45050565b7f360894a13ba1a3210667c828492db98dca3e2076cc3735a920a3ca505d382bbc546001600160a01b031690565b6000610a2b8133611496565b600061162b6115e7565b905061163684611995565b6000835111806116435750815b15611654576116528484611a3a565b505b7f4910fdfa16fed3260ed0e7147f7cc6da11a60208b5b9406d12a635614ffd9143805460ff1661176557805460ff191660011781556040516001600160a01b03831660248201526116d390869060440160408051601f198184030181529190526020810180516001600160e01b0316631b2ce7f360e11b179052611a3a565b50805460ff191681556116e46115e7565b6001600160a01b0316826001600160a01b03161461175c5760405162461bcd60e51b815260206004820152602f60248201527f45524331393637557067726164653a207570677261646520627265616b73206660448201526e75727468657220757067726164657360881b606482015260840161054d565b61176585611b25565b5050505050565b600054610100900460ff1680611785575060005460ff16155b6117a15760405162461bcd60e51b815260040161054d90612062565b600054610100900460ff161580156117c3576000805461ffff19166101011790555b6117cb611b65565b6117d3611b65565b6117db611b65565b8015610af5576000805461ff001916905550565b610a2b82826114fa565b60606000611808836002611ef7565b61181390600261211f565b67ffffffffffffffff81111561182b5761182b611cad565b6040519080825280601f01601f191660200182016040528015611855576020820181803683370190505b509050600360fc1b81600081518110611870576118706120b0565b60200101906001600160f81b031916908160001a905350600f60fb1b8160018151811061189f5761189f6120b0565b60200101906001600160f81b031916908160001a90535060006118c3846002611ef7565b6118ce90600161211f565b90505b6001811115611946576f181899199a1a9b1b9c1cb0b131b232b360811b85600f1660108110611902576119026120b0565b1a60f81b828281518110611918576119186120b0565b60200101906001600160f81b031916908160001a90535060049490941c9361193f816121ac565b90506118d1565b5083156113385760405162461bcd60e51b815260206004820181905260248201527f537472696e67733a20686578206c656e67746820696e73756666696369656e74604482015260640161054d565b803b6119f95760405162461bcd60e51b815260206004820152602d60248201527f455243313936373a206e657720696d706c656d656e746174696f6e206973206e60448201526c1bdd08184818dbdb9d1c9858dd609a1b606482015260840161054d565b7f360894a13ba1a3210667c828492db98dca3e2076cc3735a920a3ca505d382bbc80546001600160a01b0319166001600160a01b0392909216919091179055565b6060823b611a995760405162461bcd60e51b815260206004820152602660248201527f416464726573733a2064656c65676174652063616c6c20746f206e6f6e2d636f6044820152651b9d1c9858dd60d21b606482015260840161054d565b600080846001600160a01b031684604051611ab491906121c3565b600060405180830381855af49150503d8060008114611aef576040519150601f19603f3d011682016040523d82523d6000602084013e611af4565b606091505b5091509150611b1c82826040518060600160405280602781526020016121e060279139611bcf565b95945050505050565b611b2e81611995565b6040516001600160a01b038216907fbc7cd75a20ee27fd9adebab32041f755214dbc6bffa90cc0225b39da2e5c2d3b90600090a250565b600054610100900460ff1680611b7e575060005460ff16155b611b9a5760405162461bcd60e51b815260040161054d90612062565b600054610100900460ff161580156117db576000805461ffff19166101011790558015610af5576000805461ff001916905550565b60608315611bde575081611338565b825115611bee5782518084602001fd5b8160405162461bcd60e51b815260040161054d9190612016565b600060208284031215611c1a57600080fd5b81356001600160e01b03198116811461133857600080fd5b6001600160a01b0381168114610af557600080fd5b600060208284031215611c5957600080fd5b813561133881611c32565b600060208284031215611c7657600080fd5b5035919050565b60008060408385031215611c9057600080fd5b823591506020830135611ca281611c32565b809150509250929050565b634e487b7160e01b600052604160045260246000fd5b60405160e0810167ffffffffffffffff81118282101715611ce657611ce6611cad565b60405290565b604051601f8201601f1916810167ffffffffffffffff81118282101715611d1557611d15611cad565b604052919050565b60008060408385031215611d3057600080fd5b8235611d3b81611c32565b915060208381013567ffffffffffffffff80821115611d5957600080fd5b818601915086601f830112611d6d57600080fd5b813581811115611d7f57611d7f611cad565b611d91601f8201601f19168501611cec565b91508082528784828501011115611da757600080fd5b80848401858401376000848284010152508093505050509250929050565b8015158114610af557600080fd5b60006020808385031215611de657600080fd5b823567ffffffffffffffff80821115611dfe57600080fd5b818501915085601f830112611e1257600080fd5b813581811115611e2457611e24611cad565b611e32848260051b01611cec565b818152848101925060e0918202840185019188831115611e5157600080fd5b938501935b82851015611ed55780858a031215611e6e5760008081fd5b611e76611cc3565b85358152868601358782015260408087013590820152606080870135908201526080808701359082015260a080870135611eaf81611c32565b9082015260c086810135611ec281611dc5565b9082015284529384019392850192611e56565b50979650505050505050565b634e487b7160e01b600052601160045260246000fd5b6000816000190483118215151615611f1157611f11611ee1565b500290565b6000600019821415611f2a57611f2a611ee1565b5060010190565b600060208284031215611f4357600080fd5b815161133881611dc5565b6020808252602c908201527f46756e6374696f6e206d7573742062652063616c6c6564207468726f7567682060408201526b19195b1959d85d1958d85b1b60a21b606082015260800190565b6020808252602c908201527f46756e6374696f6e206d7573742062652063616c6c6564207468726f7567682060408201526b6163746976652070726f787960a01b606082015260800190565b60005b83811015612001578181015183820152602001611fe9565b83811115612010576000848401525b50505050565b6020815260008251806020840152612035816040850160208701611fe6565b601f01601f19169190910160400192915050565b60006020828403121561205b57600080fd5b5051919050565b6020808252602e908201527f496e697469616c697a61626c653a20636f6e747261637420697320616c72656160408201526d191e481a5b9a5d1a585b1a5e995960921b606082015260800190565b634e487b7160e01b600052603260045260246000fd5b600060ff821660ff8114156120dd576120dd611ee1565b60010192915050565b60008261210357634e487b7160e01b600052601260045260246000fd5b500490565b60008282101561211a5761211a611ee1565b500390565b6000821982111561213257612132611ee1565b500190565b7f416363657373436f6e74726f6c3a206163636f756e742000000000000000000081526000835161216f816017850160208801611fe6565b7001034b99036b4b9b9b4b733903937b6329607d1b60179184019182015283516121a0816028840160208801611fe6565b01602801949350505050565b6000816121bb576121bb611ee1565b506000190190565b600082516121d5818460208701611fe6565b919091019291505056fe416464726573733a206c6f772d6c6576656c2064656c65676174652063616c6c206661696c6564f5eb84615c2a00ecaf817d13794ebd6299c9e01c395bf4018453f13f577f5449a2646970667358221220b853318a9c1eb4a7a50d446a42b3c8c388fdd90456ef6b7e7897166fd37be5c564736f6c63430008090033",
  "immutableReferences": {
    "1023": [
      {
        "length": 32,
        "start": 2618
      },
      {
        "length": 32,
        "start": 2682
      },
      {
        "length": 32,
        "start": 3582
      },
      {
        "length": 32,
        "start": 3646
      }
    ]
  },
  "source": "// SPDX-License-Identifier: MIT\npragma solidity 0.8.9;\n\nimport \"@openzeppelin/contracts-upgradeable/token/ERC20/ERC20Upgradeable.sol\";\nimport \"@openzeppelin/contracts-upgradeable/security/PausableUpgradeable.sol\";\nimport \"@openzeppelin/contracts-upgradeable/proxy/utils/Initializable.sol\";\nimport \"@openzeppelin/contracts-upgradeable/access/AccessControlUpgradeable.sol\";\nimport \"@openzeppelin/contracts-upgradeable/proxy/utils/UUPSUpgradeable.sol\";\nimport \"@openzeppelin/contracts-upgradeable/utils/AddressUpgradeable.sol\";\nimport \"@openzeppelin/contracts-upgradeable/utils/math/SafeMathUpgradeable.sol\";\n\ncontract VestPool is AccessControlUpgradeable, UUPSUpgradeable {\n    bytes32 public constant GM_ROLE = keccak256(\"GM_ROLE\");\n\n    using SafeMathUpgradeable for uint256;\n\n    ERC20Upgradeable private MELDToken;\n\n    uint256 private tokensToVest;\n    uint256 private vestingId;\n\n    string private constant INSUFFICIENT_BALANCE = \"Insufficient balance\";\n    string private constant INVALID_VESTING_ID = \"Invalid vesting id\";\n    string private constant VESTING_ALREADY_RELEASED =\n        \"Vesting already released\";\n    string private constant INVALID_BENEFICIARY = \"Invalid beneficiary address\";\n    string private constant NOT_VESTED = \"Tokens have not vested yet\";\n\n    struct Vesting {\n        uint256 releaseTime;\n        uint256 amount;\n        address beneficiary;\n        bool released;\n    }\n    struct VC {\n        uint256 timeOfTGE;\n        uint256 amount;\n        uint256 cliffMonth;\n        uint256 vestingMonth;\n        uint256 unlockTGE;\n        address beneficiary;\n        bool recived;\n    }\n    mapping(uint256 => Vesting) public vestings;\n    mapping(address => VC) public vcmap;\n\n    event VCAdd(address indexed vcAddress);\n    event TokenVestingReleased(\n        uint256 indexed vestingId,\n        address indexed beneficiary,\n        uint256 amount\n    );\n    event TokenVestingAdded(\n        uint256 indexed vestingId,\n        address indexed beneficiary,\n        uint256 amount\n    );\n    event TokenVestingRemoved(\n        uint256 indexed vestingId,\n        address indexed beneficiary,\n        uint256 amount\n    );\n\n    function initialize(ERC20Upgradeable _token) public initializer {\n        require(\n            address(_token) != address(0x0),\n            \"MELD token address is not valid\"\n        );\n        __AccessControl_init();\n        _setupRole(DEFAULT_ADMIN_ROLE, msg.sender);\n        _setupRole(GM_ROLE, msg.sender);\n        MELDToken = _token;\n        vestingId = 0;\n        tokensToVest = 0;\n    }\n\n    function viewTokenToVest() public view onlyRole(GM_ROLE) returns (uint256) {\n        return tokensToVest;\n    }\n\n    // Batch add VC list\n    function addMultipleVC(VC[] memory _vcs) public onlyRole(GM_ROLE) {\n        for (uint8 i = 0; i < _vcs.length; i++) {\n            VC memory vc = _vcs[i];\n            require(\n                vcmap[vc.beneficiary].recived == false,\n                \"Duplicate Collection\"\n            );\n\n            vcmap[vc.beneficiary] = vc;\n\n            tokensToVest = tokensToVest.add(vc.amount);\n\n            emit VCAdd(vc.beneficiary);\n        }\n    }\n\n    function reviceTGE() public {\n        VC memory vc = vcmap[msg.sender];\n        require(vc.timeOfTGE > 0, \"not found vs info\");\n        require(vc.timeOfTGE < block.timestamp, \"Not yet time to pick up\");\n        require(vc.recived == false, \"Duplicate Collection\");\n        require(vc.amount > 0, \"Insufficient balance\");\n\n        // Calculate token vesting\n        // Unlocked @TGE\n        // The rest are released once a month\n        uint256 unlockedTGETokens = vc.amount.mul(vc.unlockTGE).div(100);\n        uint256 lockedTokens = vc.amount.sub(unlockedTGETokens);\n\n        if (lockedTokens > 0) {\n            uint256 unlockedTokensEveryMonth = lockedTokens.div(\n                vc.vestingMonth\n            );\n            uint256 vestingPeriod = 30 days;\n            tokensToVest = tokensToVest.sub(vc.amount);\n\n            for (uint256 month = 1; month <= vc.vestingMonth; month++) {\n                uint256 releaseTime = block\n                    .timestamp\n                    .add(vc.cliffMonth * vestingPeriod)\n                    .add(vestingPeriod * month);\n                addVesting(\n                    vc.beneficiary,\n                    releaseTime,\n                    unlockedTokensEveryMonth\n                );\n            }\n        }\n        \n        if (unlockedTGETokens > 0) {\n            require(\n                MELDToken.transfer(vc.beneficiary, unlockedTGETokens),\n                \"transfer failed\"\n            );\n        }\n\n        vcmap[msg.sender].recived = true;\n    }\n\n    function removeVC(address _vcAddress) public onlyRole(GM_ROLE) {\n        VC memory vc = vcmap[_vcAddress];\n        require(vc.timeOfTGE > 0, \"not found vs info\");\n        require(vc.recived == false, \"vc start recived\");\n        tokensToVest = tokensToVest.sub(vc.amount);\n        delete vcmap[_vcAddress];\n    }\n\n    function addVesting(\n        address _beneficiary,\n        uint256 _releaseTime,\n        uint256 _amount\n    ) private {\n        require(_beneficiary != address(0x0), INVALID_BENEFICIARY);\n        tokensToVest = tokensToVest.add(_amount);\n        vestingId = vestingId.add(1);\n        vestings[vestingId] = Vesting({\n            beneficiary: _beneficiary,\n            releaseTime: _releaseTime,\n            amount: _amount,\n            released: false\n        });\n        emit TokenVestingAdded(vestingId, _beneficiary, _amount);\n    }\n\n    function release(uint256 _vestingId) public {\n        Vesting storage vesting = vestings[_vestingId];\n        require(vesting.beneficiary != address(0x0), INVALID_VESTING_ID);\n        require(!vesting.released, VESTING_ALREADY_RELEASED);\n        require(block.timestamp >= vesting.releaseTime, NOT_VESTED);\n        require(\n            MELDToken.balanceOf(address(this)) >= vesting.amount,\n            INSUFFICIENT_BALANCE\n        );\n        vesting.released = true;\n        tokensToVest = tokensToVest.sub(vesting.amount);\n        MELDToken.transfer(vesting.beneficiary, vesting.amount);\n        emit TokenVestingReleased(\n            _vestingId,\n            vesting.beneficiary,\n            vesting.amount\n        );\n    }\n\n    function retrieveExcessTokens(uint256 _amount)\n        public\n        onlyRole(DEFAULT_ADMIN_ROLE)\n    {\n        require(\n            _amount <= MELDToken.balanceOf(address(this)).sub(tokensToVest),\n            INSUFFICIENT_BALANCE\n        );\n        MELDToken.transfer(msg.sender, _amount);\n    }\n\n    function _authorizeUpgrade(address newImplementation)\n        internal\n        override\n        onlyRole(DEFAULT_ADMIN_ROLE)\n    {}\n}\n",
  "sourcePath": "/Users/alberthuang/code/icw/meland/contracts/VestPool.sol",
  "compiler": {
    "name": "solc",
    "version": "0.8.9+commit.e5eed63a.Emscripten.clang"
  },
  "schemaVersion": "3.4.3",
  "updatedAt": "2021-12-16T19:17:15.624Z",
  "devdoc": {
    "kind": "dev",
    "methods": {
      "getRoleAdmin(bytes32)": {
        "details": "Returns the admin role that controls `role`. See {grantRole} and {revokeRole}. To change a role's admin, use {_setRoleAdmin}."
      },
      "grantRole(bytes32,address)": {
        "details": "Grants `role` to `account`. If `account` had not been already granted `role`, emits a {RoleGranted} event. Requirements: - the caller must have ``role``'s admin role."
      },
      "hasRole(bytes32,address)": {
        "details": "Returns `true` if `account` has been granted `role`."
      },
      "renounceRole(bytes32,address)": {
        "details": "Revokes `role` from the calling account. Roles are often managed via {grantRole} and {revokeRole}: this function's purpose is to provide a mechanism for accounts to lose their privileges if they are compromised (such as when a trusted device is misplaced). If the calling account had been revoked `role`, emits a {RoleRevoked} event. Requirements: - the caller must be `account`."
      },
      "revokeRole(bytes32,address)": {
        "details": "Revokes `role` from `account`. If `account` had been granted `role`, emits a {RoleRevoked} event. Requirements: - the caller must have ``role``'s admin role."
      },
      "supportsInterface(bytes4)": {
        "details": "See {IERC165-supportsInterface}."
      },
      "upgradeTo(address)": {
        "details": "Upgrade the implementation of the proxy to `newImplementation`. Calls {_authorizeUpgrade}. Emits an {Upgraded} event."
      },
      "upgradeToAndCall(address,bytes)": {
        "details": "Upgrade the implementation of the proxy to `newImplementation`, and subsequently execute the function call encoded in `data`. Calls {_authorizeUpgrade}. Emits an {Upgraded} event."
      }
    },
    "version": 1
  },
  "userdoc": {
    "kind": "user",
    "methods": {},
    "version": 1
  }
}